{
  "_format": "hh-sol-artifact-1",
  "contractName": "NFT",
  "sourceName": "contracts/NFT.sol",
  "abi": [
    {
      "inputs": [
        {
          "internalType": "string",
          "name": "_name",
          "type": "string"
        },
        {
          "internalType": "string",
          "name": "_symbol",
          "type": "string"
        }
      ],
      "stateMutability": "nonpayable",
      "type": "constructor"
    },
    {
      "inputs": [
        {
          "internalType": "address",
          "name": "sender",
          "type": "address"
        },
        {
          "internalType": "uint256",
          "name": "tokenId",
          "type": "uint256"
        },
        {
          "internalType": "address",
          "name": "owner",
          "type": "address"
        }
      ],
      "name": "ERC721IncorrectOwner",
      "type": "error"
    },
    {
      "inputs": [
        {
          "internalType": "address",
          "name": "operator",
          "type": "address"
        },
        {
          "internalType": "uint256",
          "name": "tokenId",
          "type": "uint256"
        }
      ],
      "name": "ERC721InsufficientApproval",
      "type": "error"
    },
    {
      "inputs": [
        {
          "internalType": "address",
          "name": "approver",
          "type": "address"
        }
      ],
      "name": "ERC721InvalidApprover",
      "type": "error"
    },
    {
      "inputs": [
        {
          "internalType": "address",
          "name": "operator",
          "type": "address"
        }
      ],
      "name": "ERC721InvalidOperator",
      "type": "error"
    },
    {
      "inputs": [
        {
          "internalType": "address",
          "name": "owner",
          "type": "address"
        }
      ],
      "name": "ERC721InvalidOwner",
      "type": "error"
    },
    {
      "inputs": [
        {
          "internalType": "address",
          "name": "receiver",
          "type": "address"
        }
      ],
      "name": "ERC721InvalidReceiver",
      "type": "error"
    },
    {
      "inputs": [
        {
          "internalType": "address",
          "name": "sender",
          "type": "address"
        }
      ],
      "name": "ERC721InvalidSender",
      "type": "error"
    },
    {
      "inputs": [
        {
          "internalType": "uint256",
          "name": "tokenId",
          "type": "uint256"
        }
      ],
      "name": "ERC721NonexistentToken",
      "type": "error"
    },
    {
      "anonymous": false,
      "inputs": [
        {
          "indexed": true,
          "internalType": "address",
          "name": "owner",
          "type": "address"
        },
        {
          "indexed": true,
          "internalType": "address",
          "name": "approved",
          "type": "address"
        },
        {
          "indexed": true,
          "internalType": "uint256",
          "name": "tokenId",
          "type": "uint256"
        }
      ],
      "name": "Approval",
      "type": "event"
    },
    {
      "anonymous": false,
      "inputs": [
        {
          "indexed": true,
          "internalType": "address",
          "name": "owner",
          "type": "address"
        },
        {
          "indexed": true,
          "internalType": "address",
          "name": "operator",
          "type": "address"
        },
        {
          "indexed": false,
          "internalType": "bool",
          "name": "approved",
          "type": "bool"
        }
      ],
      "name": "ApprovalForAll",
      "type": "event"
    },
    {
      "anonymous": false,
      "inputs": [
        {
          "indexed": false,
          "internalType": "uint256",
          "name": "_tokenId",
          "type": "uint256"
        }
      ],
      "name": "NFTMinted",
      "type": "event"
    },
    {
      "anonymous": false,
      "inputs": [
        {
          "indexed": true,
          "internalType": "address",
          "name": "from",
          "type": "address"
        },
        {
          "indexed": true,
          "internalType": "address",
          "name": "to",
          "type": "address"
        },
        {
          "indexed": true,
          "internalType": "uint256",
          "name": "tokenId",
          "type": "uint256"
        }
      ],
      "name": "Transfer",
      "type": "event"
    },
    {
      "inputs": [
        {
          "internalType": "address",
          "name": "to",
          "type": "address"
        },
        {
          "internalType": "uint256",
          "name": "tokenId",
          "type": "uint256"
        }
      ],
      "name": "approve",
      "outputs": [],
      "stateMutability": "nonpayable",
      "type": "function"
    },
    {
      "inputs": [
        {
          "internalType": "address",
          "name": "owner",
          "type": "address"
        }
      ],
      "name": "balanceOf",
      "outputs": [
        {
          "internalType": "uint256",
          "name": "",
          "type": "uint256"
        }
      ],
      "stateMutability": "view",
      "type": "function"
    },
    {
      "inputs": [
        {
          "internalType": "uint256",
          "name": "tokenId",
          "type": "uint256"
        }
      ],
      "name": "getApproved",
      "outputs": [
        {
          "internalType": "address",
          "name": "",
          "type": "address"
        }
      ],
      "stateMutability": "view",
      "type": "function"
    },
    {
      "inputs": [
        {
          "internalType": "address",
          "name": "owner",
          "type": "address"
        },
        {
          "internalType": "address",
          "name": "operator",
          "type": "address"
        }
      ],
      "name": "isApprovedForAll",
      "outputs": [
        {
          "internalType": "bool",
          "name": "",
          "type": "bool"
        }
      ],
      "stateMutability": "view",
      "type": "function"
    },
    {
      "inputs": [
        {
          "internalType": "address",
          "name": "_to",
          "type": "address"
        }
      ],
      "name": "mintTo",
      "outputs": [],
      "stateMutability": "nonpayable",
      "type": "function"
    },
    {
      "inputs": [],
      "name": "name",
      "outputs": [
        {
          "internalType": "string",
          "name": "",
          "type": "string"
        }
      ],
      "stateMutability": "view",
      "type": "function"
    },
    {
      "inputs": [
        {
          "internalType": "uint256",
          "name": "tokenId",
          "type": "uint256"
        }
      ],
      "name": "ownerOf",
      "outputs": [
        {
          "internalType": "address",
          "name": "",
          "type": "address"
        }
      ],
      "stateMutability": "view",
      "type": "function"
    },
    {
      "inputs": [
        {
          "internalType": "address",
          "name": "from",
          "type": "address"
        },
        {
          "internalType": "address",
          "name": "to",
          "type": "address"
        },
        {
          "internalType": "uint256",
          "name": "tokenId",
          "type": "uint256"
        }
      ],
      "name": "safeTransferFrom",
      "outputs": [],
      "stateMutability": "nonpayable",
      "type": "function"
    },
    {
      "inputs": [
        {
          "internalType": "address",
          "name": "from",
          "type": "address"
        },
        {
          "internalType": "address",
          "name": "to",
          "type": "address"
        },
        {
          "internalType": "uint256",
          "name": "tokenId",
          "type": "uint256"
        },
        {
          "internalType": "bytes",
          "name": "data",
          "type": "bytes"
        }
      ],
      "name": "safeTransferFrom",
      "outputs": [],
      "stateMutability": "nonpayable",
      "type": "function"
    },
    {
      "inputs": [
        {
          "internalType": "address",
          "name": "operator",
          "type": "address"
        },
        {
          "internalType": "bool",
          "name": "approved",
          "type": "bool"
        }
      ],
      "name": "setApprovalForAll",
      "outputs": [],
      "stateMutability": "nonpayable",
      "type": "function"
    },
    {
      "inputs": [
        {
          "internalType": "bytes4",
          "name": "interfaceId",
          "type": "bytes4"
        }
      ],
      "name": "supportsInterface",
      "outputs": [
        {
          "internalType": "bool",
          "name": "",
          "type": "bool"
        }
      ],
      "stateMutability": "view",
      "type": "function"
    },
    {
      "inputs": [],
      "name": "symbol",
      "outputs": [
        {
          "internalType": "string",
          "name": "",
          "type": "string"
        }
      ],
      "stateMutability": "view",
      "type": "function"
    },
    {
      "inputs": [
        {
          "internalType": "uint256",
          "name": "tokenId",
          "type": "uint256"
        }
      ],
      "name": "tokenURI",
      "outputs": [
        {
          "internalType": "string",
          "name": "",
          "type": "string"
        }
      ],
      "stateMutability": "pure",
      "type": "function"
    },
    {
      "inputs": [
        {
          "internalType": "address",
          "name": "from",
          "type": "address"
        },
        {
          "internalType": "address",
          "name": "to",
          "type": "address"
        },
        {
          "internalType": "uint256",
          "name": "tokenId",
          "type": "uint256"
        }
      ],
      "name": "transferFrom",
      "outputs": [],
      "stateMutability": "nonpayable",
      "type": "function"
    }
  ],
  "bytecode": "0x608060405260006006553480156200001657600080fd5b5060405162002c9138038062002c9183398181016040528101906200003c9190620001ff565b818181600090816200004f9190620004cf565b508060019081620000619190620004cf565b5050505050620005b6565b6000604051905090565b600080fd5b600080fd5b600080fd5b600080fd5b6000601f19601f8301169050919050565b7f4e487b7100000000000000000000000000000000000000000000000000000000600052604160045260246000fd5b620000d5826200008a565b810181811067ffffffffffffffff82111715620000f757620000f66200009b565b5b80604052505050565b60006200010c6200006c565b90506200011a8282620000ca565b919050565b600067ffffffffffffffff8211156200013d576200013c6200009b565b5b62000148826200008a565b9050602081019050919050565b60005b838110156200017557808201518184015260208101905062000158565b60008484015250505050565b60006200019862000192846200011f565b62000100565b905082815260208101848484011115620001b757620001b662000085565b5b620001c484828562000155565b509392505050565b600082601f830112620001e457620001e362000080565b5b8151620001f684826020860162000181565b91505092915050565b6000806040838503121562000219576200021862000076565b5b600083015167ffffffffffffffff8111156200023a57620002396200007b565b5b6200024885828601620001cc565b925050602083015167ffffffffffffffff8111156200026c576200026b6200007b565b5b6200027a85828601620001cc565b9150509250929050565b600081519050919050565b7f4e487b7100000000000000000000000000000000000000000000000000000000600052602260045260246000fd5b60006002820490506001821680620002d757607f821691505b602082108103620002ed57620002ec6200028f565b5b50919050565b60008190508160005260206000209050919050565b60006020601f8301049050919050565b600082821b905092915050565b600060088302620003577fffffffffffffffffffffffffffffffffffffffffffffffffffffffffffffffff8262000318565b62000363868362000318565b95508019841693508086168417925050509392505050565b6000819050919050565b6000819050919050565b6000620003b0620003aa620003a4846200037b565b62000385565b6200037b565b9050919050565b6000819050919050565b620003cc836200038f565b620003e4620003db82620003b7565b84845462000325565b825550505050565b600090565b620003fb620003ec565b62000408818484620003c1565b505050565b5b81811015620004305762000424600082620003f1565b6001810190506200040e565b5050565b601f8211156200047f576200044981620002f3565b620004548462000308565b8101602085101562000464578190505b6200047c620004738562000308565b8301826200040d565b50505b505050565b600082821c905092915050565b6000620004a46000198460080262000484565b1980831691505092915050565b6000620004bf838362000491565b9150826002028217905092915050565b620004da8262000284565b67ffffffffffffffff811115620004f657620004f56200009b565b5b620005028254620002be565b6200050f82828562000434565b600060209050601f83116001811462000547576000841562000532578287015190505b6200053e8582620004b1565b865550620005ae565b601f1984166200055786620002f3565b60005b8281101562000581578489015182556001820191506020850194506020810190506200055a565b86831015620005a157848901516200059d601f89168262000491565b8355505b6001600288020188555050505b505050505050565b6126cb80620005c66000396000f3fe608060405234801561001057600080fd5b50600436106100ea5760003560e01c806370a082311161008c578063a22cb46511610066578063a22cb4651461025b578063b88d4fde14610277578063c87b56dd14610293578063e985e9c5146102c3576100ea565b806370a08231146101f1578063755edd171461022157806395d89b411461023d576100ea565b8063095ea7b3116100c8578063095ea7b31461016d57806323b872dd1461018957806342842e0e146101a55780636352211e146101c1576100ea565b806301ffc9a7146100ef57806306fdde031461011f578063081812fc1461013d575b600080fd5b61010960048036038101906101049190611966565b6102f3565b60405161011691906119ae565b60405180910390f35b6101276103d5565b6040516101349190611a59565b60405180910390f35b61015760048036038101906101529190611ab1565b610467565b6040516101649190611b1f565b60405180910390f35b61018760048036038101906101829190611b66565b610483565b005b6101a3600480360381019061019e9190611ba6565b610499565b005b6101bf60048036038101906101ba9190611ba6565b61059b565b005b6101db60048036038101906101d69190611ab1565b6105bb565b6040516101e89190611b1f565b60405180910390f35b61020b60048036038101906102069190611bf9565b6105cd565b6040516102189190611c35565b60405180910390f35b61023b60048036038101906102369190611bf9565b610687565b005b6102456106e0565b6040516102529190611a59565b60405180910390f35b61027560048036038101906102709190611c7c565b610772565b005b610291600480360381019061028c9190611df1565b610788565b005b6102ad60048036038101906102a89190611ab1565b6107a5565b6040516102ba9190611a59565b60405180910390f35b6102dd60048036038101906102d89190611e74565b610939565b6040516102ea91906119ae565b60405180910390f35b60007f80ac58cd000000000000000000000000000000000000000000000000000000007bffffffffffffffffffffffffffffffffffffffffffffffffffffffff1916827bffffffffffffffffffffffffffffffffffffffffffffffffffffffff191614806103be57507f5b5e139f000000000000000000000000000000000000000000000000000000007bffffffffffffffffffffffffffffffffffffffffffffffffffffffff1916827bffffffffffffffffffffffffffffffffffffffffffffffffffffffff1916145b806103ce57506103cd826109cd565b5b9050919050565b6060600080546103e490611ee3565b80601f016020809104026020016040519081016040528092919081815260200182805461041090611ee3565b801561045d5780601f106104325761010080835404028352916020019161045d565b820191906000526020600020905b81548152906001019060200180831161044057829003601f168201915b5050505050905090565b600061047282610a37565b5061047c82610abf565b9050919050565b6104958282610490610afc565b610b04565b5050565b600073ffffffffffffffffffffffffffffffffffffffff168273ffffffffffffffffffffffffffffffffffffffff160361050b5760006040517f64a0ae920000000000000000000000000000000000000000000000000000000081526004016105029190611b1f565b60405180910390fd5b600061051f838361051a610afc565b610b16565b90508373ffffffffffffffffffffffffffffffffffffffff168173ffffffffffffffffffffffffffffffffffffffff1614610595578382826040517f64283d7b00000000000000000000000000000000000000000000000000000000815260040161058c93929190611f14565b60405180910390fd5b50505050565b6105b683838360405180602001604052806000815250610788565b505050565b60006105c682610a37565b9050919050565b60008073ffffffffffffffffffffffffffffffffffffffff168273ffffffffffffffffffffffffffffffffffffffff16036106405760006040517f89c62b640000000000000000000000000000000000000000000000000000000081526004016106379190611b1f565b60405180910390fd5b600360008373ffffffffffffffffffffffffffffffffffffffff1673ffffffffffffffffffffffffffffffffffffffff168152602001908152602001600020549050919050565b6000610691610d30565b905061069d8282610d46565b6106a5610d64565b7fd9dc24857f317ed9abbbb42e920ede0104231eb1d3d70236a74887ffaf159868816040516106d49190611c35565b60405180910390a15050565b6060600180546106ef90611ee3565b80601f016020809104026020016040519081016040528092919081815260200182805461071b90611ee3565b80156107685780601f1061073d57610100808354040283529160200191610768565b820191906000526020600020905b81548152906001019060200180831161074b57829003601f168201915b5050505050905090565b61078461077d610afc565b8383610d7e565b5050565b610793848484610499565b61079f84848484610eed565b50505050565b60606107af6118d3565b6040518061022001604052806101e681526020016124706101e69139816000600381106107df576107de611f4b565b5b60200201819052506107f0836110a4565b8160016003811061080457610803611f4b565b5b60200201819052506040518060400160405280600d81526020017f3c2f746578743e3c2f7376673e000000000000000000000000000000000000008152508160026003811061085657610855611f4b565b5b602002018190525060008160006003811061087457610873611f4b565b5b60200201518260016003811061088d5761088c611f4b565b5b6020020151836002600381106108a6576108a5611f4b565b5b60200201516040516020016108bd93929190611fb6565b6040516020818303038152906040529050600061090a6108dc866110a4565b6108e584611172565b6040516020016108f6929190612163565b604051602081830303815290604052611172565b90508060405160200161091d91906121f4565b6040516020818303038152906040529150819350505050919050565b6000600560008473ffffffffffffffffffffffffffffffffffffffff1673ffffffffffffffffffffffffffffffffffffffff16815260200190815260200160002060008373ffffffffffffffffffffffffffffffffffffffff1673ffffffffffffffffffffffffffffffffffffffff16815260200190815260200160002060009054906101000a900460ff16905092915050565b60007f01ffc9a7000000000000000000000000000000000000000000000000000000007bffffffffffffffffffffffffffffffffffffffffffffffffffffffff1916827bffffffffffffffffffffffffffffffffffffffffffffffffffffffff1916149050919050565b600080610a43836112e4565b9050600073ffffffffffffffffffffffffffffffffffffffff168173ffffffffffffffffffffffffffffffffffffffff1603610ab657826040517f7e273289000000000000000000000000000000000000000000000000000000008152600401610aad9190611c35565b60405180910390fd5b80915050919050565b60006004600083815260200190815260200160002060009054906101000a900473ffffffffffffffffffffffffffffffffffffffff169050919050565b600033905090565b610b118383836001611321565b505050565b600080610b22846112e4565b9050600073ffffffffffffffffffffffffffffffffffffffff168373ffffffffffffffffffffffffffffffffffffffff1614610b6457610b638184866114e6565b5b600073ffffffffffffffffffffffffffffffffffffffff168173ffffffffffffffffffffffffffffffffffffffff1614610bf557610ba6600085600080611321565b6001600360008373ffffffffffffffffffffffffffffffffffffffff1673ffffffffffffffffffffffffffffffffffffffff168152602001908152602001600020600082825403925050819055505b600073ffffffffffffffffffffffffffffffffffffffff168573ffffffffffffffffffffffffffffffffffffffff1614610c78576001600360008773ffffffffffffffffffffffffffffffffffffffff1673ffffffffffffffffffffffffffffffffffffffff168152602001908152602001600020600082825401925050819055505b846002600086815260200190815260200160002060006101000a81548173ffffffffffffffffffffffffffffffffffffffff021916908373ffffffffffffffffffffffffffffffffffffffff160217905550838573ffffffffffffffffffffffffffffffffffffffff168273ffffffffffffffffffffffffffffffffffffffff167fddf252ad1be2c89b69c2b068fc378daa952ba7f163c4a11628f55a4df523b3ef60405160405180910390a4809150509392505050565b60006001600654610d419190612245565b905090565b610d608282604051806020016040528060008152506115aa565b5050565b60066000815480929190610d7790612279565b9190505550565b600073ffffffffffffffffffffffffffffffffffffffff168273ffffffffffffffffffffffffffffffffffffffff1603610def57816040517f5b08ba18000000000000000000000000000000000000000000000000000000008152600401610de69190611b1f565b60405180910390fd5b80600560008573ffffffffffffffffffffffffffffffffffffffff1673ffffffffffffffffffffffffffffffffffffffff16815260200190815260200160002060008473ffffffffffffffffffffffffffffffffffffffff1673ffffffffffffffffffffffffffffffffffffffff16815260200190815260200160002060006101000a81548160ff0219169083151502179055508173ffffffffffffffffffffffffffffffffffffffff168373ffffffffffffffffffffffffffffffffffffffff167f17307eab39ab6107e8899845ad3d59bd9653f200f220920489ca2b5937696c3183604051610ee091906119ae565b60405180910390a3505050565b60008373ffffffffffffffffffffffffffffffffffffffff163b111561109e578273ffffffffffffffffffffffffffffffffffffffff1663150b7a02610f31610afc565b8685856040518563ffffffff1660e01b8152600401610f539493929190612316565b6020604051808303816000875af1925050508015610f8f57506040513d601f19601f82011682018060405250810190610f8c9190612377565b60015b611013573d8060008114610fbf576040519150601f19603f3d011682016040523d82523d6000602084013e610fc4565b606091505b50600081510361100b57836040517f64a0ae920000000000000000000000000000000000000000000000000000000081526004016110029190611b1f565b60405180910390fd5b805181602001fd5b63150b7a0260e01b7bffffffffffffffffffffffffffffffffffffffffffffffffffffffff1916817bffffffffffffffffffffffffffffffffffffffffffffffffffffffff19161461109c57836040517f64a0ae920000000000000000000000000000000000000000000000000000000081526004016110939190611b1f565b60405180910390fd5b505b50505050565b6060600060016110b3846115c6565b01905060008167ffffffffffffffff8111156110d2576110d1611cc6565b5b6040519080825280601f01601f1916602001820160405280156111045781602001600182028036833780820191505090505b509050600082602001820190505b600115611167578080600190039150507f3031323334353637383961626364656600000000000000000000000000000000600a86061a8153600a858161115b5761115a6123a4565b5b04945060008503611112575b819350505050919050565b60606000825103611194576040518060200160405280600081525090506112df565b600060405180606001604052806040815260200161265660409139905060006003600285516111c39190612245565b6111cd91906123d3565b60046111d99190612404565b67ffffffffffffffff8111156111f2576111f1611cc6565b5b6040519080825280601f01601f1916602001820160405280156112245781602001600182028036833780820191505090505b50905060018201602082018586518701602081018051600082525b8284101561129a576003840193508351603f8160121c168701518653600186019550603f81600c1c168701518653600186019550603f8160061c168701518653600186019550603f811687015186536001860195505061123f565b80825260038a5106600181146112b757600281146112ca576112d2565b603d6001870353603d60028703536112d2565b603d60018703535b5050505050505080925050505b919050565b60006002600083815260200190815260200160002060009054906101000a900473ffffffffffffffffffffffffffffffffffffffff169050919050565b808061135a5750600073ffffffffffffffffffffffffffffffffffffffff168273ffffffffffffffffffffffffffffffffffffffff1614155b1561148e57600061136a84610a37565b9050600073ffffffffffffffffffffffffffffffffffffffff168373ffffffffffffffffffffffffffffffffffffffff16141580156113d557508273ffffffffffffffffffffffffffffffffffffffff168173ffffffffffffffffffffffffffffffffffffffff1614155b80156113e857506113e68184610939565b155b1561142a57826040517fa9fbf51f0000000000000000000000000000000000000000000000000000000081526004016114219190611b1f565b60405180910390fd5b811561148c57838573ffffffffffffffffffffffffffffffffffffffff168273ffffffffffffffffffffffffffffffffffffffff167f8c5be1e5ebec7d5bd14f71427d1e84f3dd0314c0f7b2291e5b200ac8c7c3b92560405160405180910390a45b505b836004600085815260200190815260200160002060006101000a81548173ffffffffffffffffffffffffffffffffffffffff021916908373ffffffffffffffffffffffffffffffffffffffff16021790555050505050565b6114f1838383611719565b6115a557600073ffffffffffffffffffffffffffffffffffffffff168373ffffffffffffffffffffffffffffffffffffffff160361156657806040517f7e27328900000000000000000000000000000000000000000000000000000000815260040161155d9190611c35565b60405180910390fd5b81816040517f177e802f00000000000000000000000000000000000000000000000000000000815260040161159c929190612446565b60405180910390fd5b505050565b6115b483836117da565b6115c16000848484610eed565b505050565b600080600090507a184f03e93ff9f4daa797ed6e38ed64bf6a1f0100000000000000008310611624577a184f03e93ff9f4daa797ed6e38ed64bf6a1f010000000000000000838161161a576116196123a4565b5b0492506040810190505b6d04ee2d6d415b85acef81000000008310611661576d04ee2d6d415b85acef81000000008381611657576116566123a4565b5b0492506020810190505b662386f26fc10000831061169057662386f26fc100008381611686576116856123a4565b5b0492506010810190505b6305f5e10083106116b9576305f5e10083816116af576116ae6123a4565b5b0492506008810190505b61271083106116de5761271083816116d4576116d36123a4565b5b0492506004810190505b6064831061170157606483816116f7576116f66123a4565b5b0492506002810190505b600a8310611710576001810190505b80915050919050565b60008073ffffffffffffffffffffffffffffffffffffffff168373ffffffffffffffffffffffffffffffffffffffff16141580156117d157508273ffffffffffffffffffffffffffffffffffffffff168473ffffffffffffffffffffffffffffffffffffffff16148061179257506117918484610939565b5b806117d057508273ffffffffffffffffffffffffffffffffffffffff166117b883610abf565b73ffffffffffffffffffffffffffffffffffffffff16145b5b90509392505050565b600073ffffffffffffffffffffffffffffffffffffffff168273ffffffffffffffffffffffffffffffffffffffff160361184c5760006040517f64a0ae920000000000000000000000000000000000000000000000000000000081526004016118439190611b1f565b60405180910390fd5b600061185a83836000610b16565b9050600073ffffffffffffffffffffffffffffffffffffffff168173ffffffffffffffffffffffffffffffffffffffff16146118ce5760006040517f73c6ac6e0000000000000000000000000000000000000000000000000000000081526004016118c59190611b1f565b60405180910390fd5b505050565b60405180606001604052806003905b60608152602001906001900390816118e25790505090565b6000604051905090565b600080fd5b600080fd5b60007fffffffff0000000000000000000000000000000000000000000000000000000082169050919050565b6119438161190e565b811461194e57600080fd5b50565b6000813590506119608161193a565b92915050565b60006020828403121561197c5761197b611904565b5b600061198a84828501611951565b91505092915050565b60008115159050919050565b6119a881611993565b82525050565b60006020820190506119c3600083018461199f565b92915050565b600081519050919050565b600082825260208201905092915050565b60005b83811015611a035780820151818401526020810190506119e8565b60008484015250505050565b6000601f19601f8301169050919050565b6000611a2b826119c9565b611a3581856119d4565b9350611a458185602086016119e5565b611a4e81611a0f565b840191505092915050565b60006020820190508181036000830152611a738184611a20565b905092915050565b6000819050919050565b611a8e81611a7b565b8114611a9957600080fd5b50565b600081359050611aab81611a85565b92915050565b600060208284031215611ac757611ac6611904565b5b6000611ad584828501611a9c565b91505092915050565b600073ffffffffffffffffffffffffffffffffffffffff82169050919050565b6000611b0982611ade565b9050919050565b611b1981611afe565b82525050565b6000602082019050611b346000830184611b10565b92915050565b611b4381611afe565b8114611b4e57600080fd5b50565b600081359050611b6081611b3a565b92915050565b60008060408385031215611b7d57611b7c611904565b5b6000611b8b85828601611b51565b9250506020611b9c85828601611a9c565b9150509250929050565b600080600060608486031215611bbf57611bbe611904565b5b6000611bcd86828701611b51565b9350506020611bde86828701611b51565b9250506040611bef86828701611a9c565b9150509250925092565b600060208284031215611c0f57611c0e611904565b5b6000611c1d84828501611b51565b91505092915050565b611c2f81611a7b565b82525050565b6000602082019050611c4a6000830184611c26565b92915050565b611c5981611993565b8114611c6457600080fd5b50565b600081359050611c7681611c50565b92915050565b60008060408385031215611c9357611c92611904565b5b6000611ca185828601611b51565b9250506020611cb285828601611c67565b9150509250929050565b600080fd5b600080fd5b7f4e487b7100000000000000000000000000000000000000000000000000000000600052604160045260246000fd5b611cfe82611a0f565b810181811067ffffffffffffffff82111715611d1d57611d1c611cc6565b5b80604052505050565b6000611d306118fa565b9050611d3c8282611cf5565b919050565b600067ffffffffffffffff821115611d5c57611d5b611cc6565b5b611d6582611a0f565b9050602081019050919050565b82818337600083830152505050565b6000611d94611d8f84611d41565b611d26565b905082815260208101848484011115611db057611daf611cc1565b5b611dbb848285611d72565b509392505050565b600082601f830112611dd857611dd7611cbc565b5b8135611de8848260208601611d81565b91505092915050565b60008060008060808587031215611e0b57611e0a611904565b5b6000611e1987828801611b51565b9450506020611e2a87828801611b51565b9350506040611e3b87828801611a9c565b925050606085013567ffffffffffffffff811115611e5c57611e5b611909565b5b611e6887828801611dc3565b91505092959194509250565b60008060408385031215611e8b57611e8a611904565b5b6000611e9985828601611b51565b9250506020611eaa85828601611b51565b9150509250929050565b7f4e487b7100000000000000000000000000000000000000000000000000000000600052602260045260246000fd5b60006002820490506001821680611efb57607f821691505b602082108103611f0e57611f0d611eb4565b5b50919050565b6000606082019050611f296000830186611b10565b611f366020830185611c26565b611f436040830184611b10565b949350505050565b7f4e487b7100000000000000000000000000000000000000000000000000000000600052603260045260246000fd5b600081905092915050565b6000611f90826119c9565b611f9a8185611f7a565b9350611faa8185602086016119e5565b80840191505092915050565b6000611fc28286611f85565b9150611fce8285611f85565b9150611fda8284611f85565b9150819050949350505050565b7f7b226e616d65223a202242616467652023000000000000000000000000000000600082015250565b600061201d601183611f7a565b915061202882611fe7565b601182019050919050565b7f222c20226465736372697074696f6e223a20224120636f6e636973652048617260008201527f64686174207475746f7269616c204261646765204e46542077697468206f6e2d60208201527f636861696e2053564720696d61676573206c696b65206c6f6f6b2e222c20226960408201527f6d616765223a2022646174613a696d6167652f7376672b786d6c3b626173653660608201527f342c000000000000000000000000000000000000000000000000000000000000608082015250565b6000612101608283611f7a565b915061210c82612033565b608282019050919050565b7f227d000000000000000000000000000000000000000000000000000000000000600082015250565b600061214d600283611f7a565b915061215882612117565b600282019050919050565b600061216e82612010565b915061217a8285611f85565b9150612185826120f4565b91506121918284611f85565b915061219c82612140565b91508190509392505050565b7f646174613a6170706c69636174696f6e2f6a736f6e3b6261736536342c000000600082015250565b60006121de601d83611f7a565b91506121e9826121a8565b601d82019050919050565b60006121ff826121d1565b915061220b8284611f85565b915081905092915050565b7f4e487b7100000000000000000000000000000000000000000000000000000000600052601160045260246000fd5b600061225082611a7b565b915061225b83611a7b565b925082820190508082111561227357612272612216565b5b92915050565b600061228482611a7b565b91507fffffffffffffffffffffffffffffffffffffffffffffffffffffffffffffffff82036122b6576122b5612216565b5b600182019050919050565b600081519050919050565b600082825260208201905092915050565b60006122e8826122c1565b6122f281856122cc565b93506123028185602086016119e5565b61230b81611a0f565b840191505092915050565b600060808201905061232b6000830187611b10565b6123386020830186611b10565b6123456040830185611c26565b818103606083015261235781846122dd565b905095945050505050565b6000815190506123718161193a565b92915050565b60006020828403121561238d5761238c611904565b5b600061239b84828501612362565b91505092915050565b7f4e487b7100000000000000000000000000000000000000000000000000000000600052601260045260246000fd5b60006123de82611a7b565b91506123e983611a7b565b9250826123f9576123f86123a4565b5b828204905092915050565b600061240f82611a7b565b915061241a83611a7b565b925082820261242881611a7b565b9150828204841483151761243f5761243e612216565b5b5092915050565b600060408201905061245b6000830185611b10565b6124686020830184611c26565b939250505056fe3c7376672077696474683d22353030707822206865696768743d223530307078222076696577426f783d2230203020313230203132302220786d6c6e733d22687474703a2f2f7777772e77332e6f72672f323030302f737667222066696c6c3d226e6f6e65223e3c70617468207374726f6b653d222330303030303022207374726f6b652d6c696e656361703d22726f756e6422207374726f6b652d6c696e656a6f696e3d22726f756e6422207374726f6b652d77696474683d22372e352220643d224d34392e3435362033302e34363661362e32313920362e323139203020302030202d352e32383220322e3933346c2d32392e3634312034372e363434632d322e33303320332e37303120302e33353920382e34393120342e37313820382e3439316838312e3563342e33353920302e30303120372e303231202d342e373920342e373138202d382e3439316c2d31332e393737202d32322e343637632d322e343334202d332e393133202d382e313331202d332e393133202d31302e35363520306c2d352e32363320382e343538202d32302e393235202d33332e36333461362e32313920362e323139203020302030202d352e323831202d322e3933347a222f3e3c7465787420783d2234352220793d223730222066696c6c3d22626c61636b223e4142434445464748494a4b4c4d4e4f505152535455565758595a6162636465666768696a6b6c6d6e6f707172737475767778797a303132333435363738392b2fa26469706673582212203f9974065c69c5aca531c466715ab3e1409e6d7f887f1fb971982e14c1ffd53064736f6c63430008180033",
  "linkReferences": {},
  "deployedLinkReferences": {}
}