{
  "_format": "hh-sol-artifact-1",
  "contractName": "NFTMarket",
  "sourceName": "contracts/NFTMarket.sol",
  "abi": [
    {
      "inputs": [
        {
          "internalType": "address",
          "name": "nftAddress",
          "type": "address"
        },
        {
          "internalType": "uint256",
          "name": "tokenId",
          "type": "uint256"
        }
      ],
      "name": "AlreadyListed",
      "type": "error"
    },
    {
      "inputs": [],
      "name": "NotApprovedForMarketplace",
      "type": "error"
    },
    {
      "inputs": [
        {
          "internalType": "address",
          "name": "nftAddress",
          "type": "address"
        },
        {
          "internalType": "uint256",
          "name": "tokenId",
          "type": "uint256"
        }
      ],
      "name": "NotListed",
      "type": "error"
    },
    {
      "inputs": [],
      "name": "NotOwner",
      "type": "error"
    },
    {
      "inputs": [],
      "name": "PriceMustBeAboveZero",
      "type": "error"
    },
    {
      "inputs": [],
      "name": "ReentrancyGuardReentrantCall",
      "type": "error"
    },
    {
      "anonymous": false,
      "inputs": [
        {
          "indexed": true,
          "internalType": "address",
          "name": "buyer",
          "type": "address"
        },
        {
          "indexed": true,
          "internalType": "address",
          "name": "nftAddress",
          "type": "address"
        },
        {
          "indexed": true,
          "internalType": "uint256",
          "name": "tokenId",
          "type": "uint256"
        },
        {
          "indexed": false,
          "internalType": "uint256",
          "name": "price",
          "type": "uint256"
        }
      ],
      "name": "EventItemBuy",
      "type": "event"
    },
    {
      "anonymous": false,
      "inputs": [
        {
          "indexed": true,
          "internalType": "address",
          "name": "seller",
          "type": "address"
        },
        {
          "indexed": true,
          "internalType": "address",
          "name": "nftAddress",
          "type": "address"
        },
        {
          "indexed": true,
          "internalType": "uint256",
          "name": "tokenId",
          "type": "uint256"
        },
        {
          "indexed": false,
          "internalType": "uint256",
          "name": "price",
          "type": "uint256"
        }
      ],
      "name": "EventItemListed",
      "type": "event"
    },
    {
      "anonymous": false,
      "inputs": [
        {
          "indexed": true,
          "internalType": "address",
          "name": "seller",
          "type": "address"
        },
        {
          "indexed": true,
          "internalType": "address",
          "name": "nftAddress",
          "type": "address"
        },
        {
          "indexed": true,
          "internalType": "uint256",
          "name": "tokenId",
          "type": "uint256"
        }
      ],
      "name": "EventUnItemListed",
      "type": "event"
    },
    {
      "inputs": [
        {
          "internalType": "address",
          "name": "",
          "type": "address"
        },
        {
          "internalType": "uint256",
          "name": "",
          "type": "uint256"
        }
      ],
      "name": "AddressIdBool",
      "outputs": [
        {
          "internalType": "bool",
          "name": "",
          "type": "bool"
        }
      ],
      "stateMutability": "view",
      "type": "function"
    },
    {
      "inputs": [
        {
          "internalType": "address",
          "name": "",
          "type": "address"
        },
        {
          "internalType": "uint256",
          "name": "",
          "type": "uint256"
        }
      ],
      "name": "AddressIdListings",
      "outputs": [
        {
          "internalType": "address",
          "name": "nftContractAddr",
          "type": "address"
        },
        {
          "internalType": "uint256",
          "name": "tokenId",
          "type": "uint256"
        },
        {
          "internalType": "uint256",
          "name": "price",
          "type": "uint256"
        },
        {
          "internalType": "address",
          "name": "seller",
          "type": "address"
        },
        {
          "internalType": "uint256",
          "name": "listedTime",
          "type": "uint256"
        }
      ],
      "stateMutability": "view",
      "type": "function"
    },
    {
      "inputs": [
        {
          "internalType": "uint256",
          "name": "",
          "type": "uint256"
        }
      ],
      "name": "NftAddrIdArray",
      "outputs": [
        {
          "internalType": "address",
          "name": "nftContract",
          "type": "address"
        },
        {
          "internalType": "uint256",
          "name": "tokenId",
          "type": "uint256"
        }
      ],
      "stateMutability": "view",
      "type": "function"
    },
    {
      "inputs": [
        {
          "internalType": "address",
          "name": "acceptedTokenAddress",
          "type": "address"
        },
        {
          "internalType": "address",
          "name": "nftAddress",
          "type": "address"
        },
        {
          "internalType": "uint256",
          "name": "tokenId",
          "type": "uint256"
        }
      ],
      "name": "buyItem",
      "outputs": [],
      "stateMutability": "payable",
      "type": "function"
    },
    {
      "inputs": [],
      "name": "getAllListing",
      "outputs": [
        {
          "components": [
            {
              "internalType": "address",
              "name": "nftContractAddr",
              "type": "address"
            },
            {
              "internalType": "uint256",
              "name": "tokenId",
              "type": "uint256"
            },
            {
              "internalType": "uint256",
              "name": "price",
              "type": "uint256"
            },
            {
              "internalType": "address",
              "name": "seller",
              "type": "address"
            },
            {
              "internalType": "uint256",
              "name": "listedTime",
              "type": "uint256"
            }
          ],
          "internalType": "struct NFTMarket.NftListing[]",
          "name": "",
          "type": "tuple[]"
        }
      ],
      "stateMutability": "view",
      "type": "function"
    },
    {
      "inputs": [
        {
          "internalType": "address",
          "name": "nftAddress",
          "type": "address"
        },
        {
          "internalType": "uint256",
          "name": "tokenId",
          "type": "uint256"
        }
      ],
      "name": "getListing",
      "outputs": [
        {
          "components": [
            {
              "internalType": "address",
              "name": "nftContractAddr",
              "type": "address"
            },
            {
              "internalType": "uint256",
              "name": "tokenId",
              "type": "uint256"
            },
            {
              "internalType": "uint256",
              "name": "price",
              "type": "uint256"
            },
            {
              "internalType": "address",
              "name": "seller",
              "type": "address"
            },
            {
              "internalType": "uint256",
              "name": "listedTime",
              "type": "uint256"
            }
          ],
          "internalType": "struct NFTMarket.NftListing",
          "name": "",
          "type": "tuple"
        }
      ],
      "stateMutability": "view",
      "type": "function"
    },
    {
      "inputs": [
        {
          "internalType": "address",
          "name": "nftAddress",
          "type": "address"
        },
        {
          "internalType": "uint256",
          "name": "tokenId",
          "type": "uint256"
        },
        {
          "internalType": "uint256",
          "name": "price",
          "type": "uint256"
        }
      ],
      "name": "listItem",
      "outputs": [],
      "stateMutability": "nonpayable",
      "type": "function"
    },
    {
      "inputs": [
        {
          "internalType": "address",
          "name": "nftMarketAddress",
          "type": "address"
        },
        {
          "internalType": "address",
          "name": "nftAddress",
          "type": "address"
        },
        {
          "internalType": "uint256",
          "name": "tokenId",
          "type": "uint256"
        }
      ],
      "name": "unListItem",
      "outputs": [],
      "stateMutability": "nonpayable",
      "type": "function"
    }
  ],
  "bytecode": "0x608060405234801561001057600080fd5b506001600081905550611f48806100286000396000f3fe60806040526004361061007b5760003560e01c806388700d1c1161004e57806388700d1c1461014257806389bfd38f1461017f578063ac205314146101a8578063ad8f1253146101e95761007b565b8063467efe5a1461008057806370a3be43146100ab5780637b3bafc7146100c75780638307bcd414610105575b600080fd5b34801561008c57600080fd5b50610095610212565b6040516100a29190611ab9565b60405180910390f35b6100c560048036038101906100c09190611b38565b610479565b005b3480156100d357600080fd5b506100ee60048036038101906100e99190611b8b565b610950565b6040516100fc929190611bd6565b60405180910390f35b34801561011157600080fd5b5061012c60048036038101906101279190611bff565b6109a4565b6040516101399190611c5a565b60405180910390f35b34801561014e57600080fd5b5061016960048036038101906101649190611bff565b6109d3565b6040516101769190611cdd565b60405180910390f35b34801561018b57600080fd5b506101a660048036038101906101a19190611cf8565b610b08565b005b3480156101b457600080fd5b506101cf60048036038101906101ca9190611bff565b6113fa565b6040516101e0959493929190611d4b565b60405180910390f35b3480156101f557600080fd5b50610210600480360381019061020b9190611b38565b61147d565b005b6060600060018054905067ffffffffffffffff81111561023557610234611d9e565b5b60405190808252806020026020018201604052801561026e57816020015b61025b6118bd565b8152602001906001900390816102535790505b509050610279611918565b60005b600180549050811015610470576001818154811061029d5761029c611dcd565b5b90600052602060002090600202016040518060400160405290816000820160009054906101000a900473ffffffffffffffffffffffffffffffffffffffff1673ffffffffffffffffffffffffffffffffffffffff1673ffffffffffffffffffffffffffffffffffffffff168152602001600182015481525050915060026000836000015173ffffffffffffffffffffffffffffffffffffffff1673ffffffffffffffffffffffffffffffffffffffff1681526020019081526020016000206000836020015181526020019081526020016000206040518060a00160405290816000820160009054906101000a900473ffffffffffffffffffffffffffffffffffffffff1673ffffffffffffffffffffffffffffffffffffffff1673ffffffffffffffffffffffffffffffffffffffff16815260200160018201548152602001600282015481526020016003820160009054906101000a900473ffffffffffffffffffffffffffffffffffffffff1673ffffffffffffffffffffffffffffffffffffffff1673ffffffffffffffffffffffffffffffffffffffff16815260200160048201548152505083828151811061045857610457611dcd565b5b6020026020010181905250808060010191505061027c565b50819250505090565b81816000600260008473ffffffffffffffffffffffffffffffffffffffff1673ffffffffffffffffffffffffffffffffffffffff16815260200190815260200160002060008381526020019081526020016000206040518060a00160405290816000820160009054906101000a900473ffffffffffffffffffffffffffffffffffffffff1673ffffffffffffffffffffffffffffffffffffffff1673ffffffffffffffffffffffffffffffffffffffff16815260200160018201548152602001600282015481526020016003820160009054906101000a900473ffffffffffffffffffffffffffffffffffffffff1673ffffffffffffffffffffffffffffffffffffffff1673ffffffffffffffffffffffffffffffffffffffff168152602001600482015481525050905060008160400151116105ef5782826040517f6831488c0000000000000000000000000000000000000000000000000000000081526004016105e6929190611bd6565b60405180910390fd5b6105f761186d565b6000600260008773ffffffffffffffffffffffffffffffffffffffff1673ffffffffffffffffffffffffffffffffffffffff16815260200190815260200160002060008681526020019081526020016000206040518060a00160405290816000820160009054906101000a900473ffffffffffffffffffffffffffffffffffffffff1673ffffffffffffffffffffffffffffffffffffffff1673ffffffffffffffffffffffffffffffffffffffff16815260200160018201548152602001600282015481526020016003820160009054906101000a900473ffffffffffffffffffffffffffffffffffffffff1673ffffffffffffffffffffffffffffffffffffffff1673ffffffffffffffffffffffffffffffffffffffff1681526020016004820154815250509050600260008773ffffffffffffffffffffffffffffffffffffffff1673ffffffffffffffffffffffffffffffffffffffff1681526020019081526020016000206000868152602001908152602001600020600080820160006101000a81549073ffffffffffffffffffffffffffffffffffffffff0219169055600182016000905560028201600090556003820160006101000a81549073ffffffffffffffffffffffffffffffffffffffff0219169055600482016000905550508573ffffffffffffffffffffffffffffffffffffffff166342842e0e826060015133886040518463ffffffff1660e01b815260040161081a93929190611dfc565b600060405180830381600087803b15801561083457600080fd5b505af1158015610848573d6000803e3d6000fd5b505050508673ffffffffffffffffffffffffffffffffffffffff166323b872dd33836060015184604001516040518463ffffffff1660e01b815260040161089193929190611dfc565b6020604051808303816000875af11580156108b0573d6000803e3d6000fd5b505050506040513d601f19601f820116820180604052508101906108d49190611e5f565b50848673ffffffffffffffffffffffffffffffffffffffff163373ffffffffffffffffffffffffffffffffffffffff167f36d50063290bfbab89cc026546c79ccde5e7cce4d2bb58adef744ef78b0ed46484604001516040516109379190611e8c565b60405180910390a4506109486118b3565b505050505050565b6001818154811061096057600080fd5b90600052602060002090600202016000915090508060000160009054906101000a900473ffffffffffffffffffffffffffffffffffffffff16908060010154905082565b60036020528160005260406000206020528060005260406000206000915091509054906101000a900460ff1681565b6109db6118bd565b600260008473ffffffffffffffffffffffffffffffffffffffff1673ffffffffffffffffffffffffffffffffffffffff16815260200190815260200160002060008381526020019081526020016000206040518060a00160405290816000820160009054906101000a900473ffffffffffffffffffffffffffffffffffffffff1673ffffffffffffffffffffffffffffffffffffffff1673ffffffffffffffffffffffffffffffffffffffff16815260200160018201548152602001600282015481526020016003820160009054906101000a900473ffffffffffffffffffffffffffffffffffffffff1673ffffffffffffffffffffffffffffffffffffffff1673ffffffffffffffffffffffffffffffffffffffff168152602001600482015481525050905092915050565b82826000600260008473ffffffffffffffffffffffffffffffffffffffff1673ffffffffffffffffffffffffffffffffffffffff16815260200190815260200160002060008381526020019081526020016000206040518060a00160405290816000820160009054906101000a900473ffffffffffffffffffffffffffffffffffffffff1673ffffffffffffffffffffffffffffffffffffffff1673ffffffffffffffffffffffffffffffffffffffff16815260200160018201548152602001600282015481526020016003820160009054906101000a900473ffffffffffffffffffffffffffffffffffffffff1673ffffffffffffffffffffffffffffffffffffffff1673ffffffffffffffffffffffffffffffffffffffff1681526020016004820154815250509050600081604001511115610c7f5782826040517f4a5568d5000000000000000000000000000000000000000000000000000000008152600401610c76929190611bd6565b60405180910390fd5b858533600083905060008173ffffffffffffffffffffffffffffffffffffffff16636352211e856040518263ffffffff1660e01b8152600401610cc29190611e8c565b602060405180830381865afa158015610cdf573d6000803e3d6000fd5b505050506040513d601f19601f82011682018060405250810190610d039190611ebc565b90508073ffffffffffffffffffffffffffffffffffffffff168373ffffffffffffffffffffffffffffffffffffffff1614610d6a576040517f30cd747100000000000000000000000000000000000000000000000000000000815260040160405180910390fd5b60008911610da4576040517fe1abbfc500000000000000000000000000000000000000000000000000000000815260040160405180910390fd5b60008b90503073ffffffffffffffffffffffffffffffffffffffff168173ffffffffffffffffffffffffffffffffffffffff1663081812fc8d6040518263ffffffff1660e01b8152600401610df99190611e8c565b602060405180830381865afa158015610e16573d6000803e3d6000fd5b505050506040513d601f19601f82011682018060405250810190610e3a9190611ebc565b73ffffffffffffffffffffffffffffffffffffffff1614610e87576040517f4be3a2c500000000000000000000000000000000000000000000000000000000815260040160405180910390fd5b6000600360008e73ffffffffffffffffffffffffffffffffffffffff1673ffffffffffffffffffffffffffffffffffffffff16815260200190815260200160002060008d815260200190815260200160002060009054906101000a900460ff1690508015611120578c600260008f73ffffffffffffffffffffffffffffffffffffffff1673ffffffffffffffffffffffffffffffffffffffff16815260200190815260200160002060008e815260200190815260200160002060000160006101000a81548173ffffffffffffffffffffffffffffffffffffffff021916908373ffffffffffffffffffffffffffffffffffffffff1602179055508b600260008f73ffffffffffffffffffffffffffffffffffffffff1673ffffffffffffffffffffffffffffffffffffffff16815260200190815260200160002060008e8152602001908152602001600020600101819055508a600260008f73ffffffffffffffffffffffffffffffffffffffff1673ffffffffffffffffffffffffffffffffffffffff16815260200190815260200160002060008e81526020019081526020016000206002018190555033600260008f73ffffffffffffffffffffffffffffffffffffffff1673ffffffffffffffffffffffffffffffffffffffff16815260200190815260200160002060008e815260200190815260200160002060030160006101000a81548173ffffffffffffffffffffffffffffffffffffffff021916908373ffffffffffffffffffffffffffffffffffffffff16021790555042600260008f73ffffffffffffffffffffffffffffffffffffffff1673ffffffffffffffffffffffffffffffffffffffff16815260200190815260200160002060008e815260200190815260200160002060040181905550611385565b6040518060a001604052808e73ffffffffffffffffffffffffffffffffffffffff1681526020018d81526020018c81526020013373ffffffffffffffffffffffffffffffffffffffff16815260200142815250600260008f73ffffffffffffffffffffffffffffffffffffffff1673ffffffffffffffffffffffffffffffffffffffff16815260200190815260200160002060008e815260200190815260200160002060008201518160000160006101000a81548173ffffffffffffffffffffffffffffffffffffffff021916908373ffffffffffffffffffffffffffffffffffffffff160217905550602082015181600101556040820151816002015560608201518160030160006101000a81548173ffffffffffffffffffffffffffffffffffffffff021916908373ffffffffffffffffffffffffffffffffffffffff160217905550608082015181600401559050506001600360008f73ffffffffffffffffffffffffffffffffffffffff1673ffffffffffffffffffffffffffffffffffffffff16815260200190815260200160002060008e815260200190815260200160002060006101000a81548160ff021916908315150217905550600160405180604001604052808f73ffffffffffffffffffffffffffffffffffffffff1681526020018e815250908060018154018082558091505060019003906000526020600020906002020160009091909190915060008201518160000160006101000a81548173ffffffffffffffffffffffffffffffffffffffff021916908373ffffffffffffffffffffffffffffffffffffffff1602179055506020820151816001015550505b8b8d73ffffffffffffffffffffffffffffffffffffffff163373ffffffffffffffffffffffffffffffffffffffff167f2a00f94a7bb6771d006c2085182eb236bc00b324dd2ff44459bc0331301cf5ee8e6040516113e39190611e8c565b60405180910390a450505050505050505050505050565b6002602052816000526040600020602052806000526040600020600091509150508060000160009054906101000a900473ffffffffffffffffffffffffffffffffffffffff16908060010154908060020154908060030160009054906101000a900473ffffffffffffffffffffffffffffffffffffffff16908060040154905085565b81816000600260008473ffffffffffffffffffffffffffffffffffffffff1673ffffffffffffffffffffffffffffffffffffffff16815260200190815260200160002060008381526020019081526020016000206040518060a00160405290816000820160009054906101000a900473ffffffffffffffffffffffffffffffffffffffff1673ffffffffffffffffffffffffffffffffffffffff1673ffffffffffffffffffffffffffffffffffffffff16815260200160018201548152602001600282015481526020016003820160009054906101000a900473ffffffffffffffffffffffffffffffffffffffff1673ffffffffffffffffffffffffffffffffffffffff1673ffffffffffffffffffffffffffffffffffffffff168152602001600482015481525050905060008160400151116115f35782826040517f6831488c0000000000000000000000000000000000000000000000000000000081526004016115ea929190611bd6565b60405180910390fd5b848433600083905060008173ffffffffffffffffffffffffffffffffffffffff16636352211e856040518263ffffffff1660e01b81526004016116369190611e8c565b602060405180830381865afa158015611653573d6000803e3d6000fd5b505050506040513d601f19601f820116820180604052508101906116779190611ebc565b90508073ffffffffffffffffffffffffffffffffffffffff168373ffffffffffffffffffffffffffffffffffffffff16146116de576040517f30cd747100000000000000000000000000000000000000000000000000000000815260040160405180910390fd5b8973ffffffffffffffffffffffffffffffffffffffff1663a22cb4658c60006040518363ffffffff1660e01b815260040161171a929190611ee9565b600060405180830381600087803b15801561173457600080fd5b505af1158015611748573d6000803e3d6000fd5b50505050600260008b73ffffffffffffffffffffffffffffffffffffffff1673ffffffffffffffffffffffffffffffffffffffff16815260200190815260200160002060008a8152602001908152602001600020600080820160006101000a81549073ffffffffffffffffffffffffffffffffffffffff0219169055600182016000905560028201600090556003820160006101000a81549073ffffffffffffffffffffffffffffffffffffffff021916905560048201600090555050888a73ffffffffffffffffffffffffffffffffffffffff163373ffffffffffffffffffffffffffffffffffffffff167f8e0a9b75c21031a8d42c7c777252e5683076d58d0c8ce796c4ed6b90fd65929660405160405180910390a45050505050505050505050565b6002600054036118a9576040517f3ee5aeb500000000000000000000000000000000000000000000000000000000815260040160405180910390fd5b6002600081905550565b6001600081905550565b6040518060a00160405280600073ffffffffffffffffffffffffffffffffffffffff1681526020016000815260200160008152602001600073ffffffffffffffffffffffffffffffffffffffff168152602001600081525090565b6040518060400160405280600073ffffffffffffffffffffffffffffffffffffffff168152602001600081525090565b600081519050919050565b600082825260208201905092915050565b6000819050602082019050919050565b600073ffffffffffffffffffffffffffffffffffffffff82169050919050565b600061199f82611974565b9050919050565b6119af81611994565b82525050565b6000819050919050565b6119c8816119b5565b82525050565b60a0820160008201516119e460008501826119a6565b5060208201516119f760208501826119bf565b506040820151611a0a60408501826119bf565b506060820151611a1d60608501826119a6565b506080820151611a3060808501826119bf565b50505050565b6000611a4283836119ce565b60a08301905092915050565b6000602082019050919050565b6000611a6682611948565b611a708185611953565b9350611a7b83611964565b8060005b83811015611aac578151611a938882611a36565b9750611a9e83611a4e565b925050600181019050611a7f565b5085935050505092915050565b60006020820190508181036000830152611ad38184611a5b565b905092915050565b600080fd5b611ae981611994565b8114611af457600080fd5b50565b600081359050611b0681611ae0565b92915050565b611b15816119b5565b8114611b2057600080fd5b50565b600081359050611b3281611b0c565b92915050565b600080600060608486031215611b5157611b50611adb565b5b6000611b5f86828701611af7565b9350506020611b7086828701611af7565b9250506040611b8186828701611b23565b9150509250925092565b600060208284031215611ba157611ba0611adb565b5b6000611baf84828501611b23565b91505092915050565b611bc181611994565b82525050565b611bd0816119b5565b82525050565b6000604082019050611beb6000830185611bb8565b611bf86020830184611bc7565b9392505050565b60008060408385031215611c1657611c15611adb565b5b6000611c2485828601611af7565b9250506020611c3585828601611b23565b9150509250929050565b60008115159050919050565b611c5481611c3f565b82525050565b6000602082019050611c6f6000830184611c4b565b92915050565b60a082016000820151611c8b60008501826119a6565b506020820151611c9e60208501826119bf565b506040820151611cb160408501826119bf565b506060820151611cc460608501826119a6565b506080820151611cd760808501826119bf565b50505050565b600060a082019050611cf26000830184611c75565b92915050565b600080600060608486031215611d1157611d10611adb565b5b6000611d1f86828701611af7565b9350506020611d3086828701611b23565b9250506040611d4186828701611b23565b9150509250925092565b600060a082019050611d606000830188611bb8565b611d6d6020830187611bc7565b611d7a6040830186611bc7565b611d876060830185611bb8565b611d946080830184611bc7565b9695505050505050565b7f4e487b7100000000000000000000000000000000000000000000000000000000600052604160045260246000fd5b7f4e487b7100000000000000000000000000000000000000000000000000000000600052603260045260246000fd5b6000606082019050611e116000830186611bb8565b611e1e6020830185611bb8565b611e2b6040830184611bc7565b949350505050565b611e3c81611c3f565b8114611e4757600080fd5b50565b600081519050611e5981611e33565b92915050565b600060208284031215611e7557611e74611adb565b5b6000611e8384828501611e4a565b91505092915050565b6000602082019050611ea16000830184611bc7565b92915050565b600081519050611eb681611ae0565b92915050565b600060208284031215611ed257611ed1611adb565b5b6000611ee084828501611ea7565b91505092915050565b6000604082019050611efe6000830185611bb8565b611f0b6020830184611c4b565b939250505056fea264697066735822122007acaa551300a78923675fd5fdcb1bdcea084fb65c6f0c7e983ca37ef8e9034364736f6c63430008180033",
  "linkReferences": {},
  "deployedLinkReferences": {}
}