{
  "_format": "hh-sol-artifact-1",
  "contractName": "MyNFT",
  "sourceName": "contracts/MyNFT.sol",
  "abi": [
    {
      "inputs": [],
      "stateMutability": "nonpayable",
      "type": "constructor"
    },
    {
      "anonymous": false,
      "inputs": [
        {
          "indexed": true,
          "internalType": "address",
          "name": "owner",
          "type": "address"
        },
        {
          "indexed": true,
          "internalType": "address",
          "name": "approved",
          "type": "address"
        },
        {
          "indexed": true,
          "internalType": "uint256",
          "name": "tokenId",
          "type": "uint256"
        }
      ],
      "name": "Approval",
      "type": "event"
    },
    {
      "anonymous": false,
      "inputs": [
        {
          "indexed": true,
          "internalType": "address",
          "name": "owner",
          "type": "address"
        },
        {
          "indexed": true,
          "internalType": "address",
          "name": "operator",
          "type": "address"
        },
        {
          "indexed": false,
          "internalType": "bool",
          "name": "approved",
          "type": "bool"
        }
      ],
      "name": "ApprovalForAll",
      "type": "event"
    },
    {
      "anonymous": false,
      "inputs": [
        {
          "indexed": false,
          "internalType": "uint256",
          "name": "_fromTokenId",
          "type": "uint256"
        },
        {
          "indexed": false,
          "internalType": "uint256",
          "name": "_toTokenId",
          "type": "uint256"
        }
      ],
      "name": "BatchMetadataUpdate",
      "type": "event"
    },
    {
      "anonymous": false,
      "inputs": [
        {
          "indexed": false,
          "internalType": "uint256",
          "name": "_tokenId",
          "type": "uint256"
        }
      ],
      "name": "MetadataUpdate",
      "type": "event"
    },
    {
      "anonymous": false,
      "inputs": [
        {
          "indexed": true,
          "internalType": "address",
          "name": "from",
          "type": "address"
        },
        {
          "indexed": true,
          "internalType": "address",
          "name": "to",
          "type": "address"
        },
        {
          "indexed": true,
          "internalType": "uint256",
          "name": "tokenId",
          "type": "uint256"
        }
      ],
      "name": "Transfer",
      "type": "event"
    },
    {
      "inputs": [
        {
          "internalType": "address",
          "name": "to",
          "type": "address"
        },
        {
          "internalType": "uint256",
          "name": "tokenId",
          "type": "uint256"
        }
      ],
      "name": "approve",
      "outputs": [],
      "stateMutability": "nonpayable",
      "type": "function"
    },
    {
      "inputs": [
        {
          "internalType": "address",
          "name": "owner",
          "type": "address"
        }
      ],
      "name": "balanceOf",
      "outputs": [
        {
          "internalType": "uint256",
          "name": "",
          "type": "uint256"
        }
      ],
      "stateMutability": "view",
      "type": "function"
    },
    {
      "inputs": [
        {
          "internalType": "uint256",
          "name": "tokenId",
          "type": "uint256"
        }
      ],
      "name": "getApproved",
      "outputs": [
        {
          "internalType": "address",
          "name": "",
          "type": "address"
        }
      ],
      "stateMutability": "view",
      "type": "function"
    },
    {
      "inputs": [
        {
          "internalType": "address",
          "name": "owner",
          "type": "address"
        },
        {
          "internalType": "address",
          "name": "operator",
          "type": "address"
        }
      ],
      "name": "isApprovedForAll",
      "outputs": [
        {
          "internalType": "bool",
          "name": "",
          "type": "bool"
        }
      ],
      "stateMutability": "view",
      "type": "function"
    },
    {
      "inputs": [
        {
          "internalType": "address",
          "name": "_recipient",
          "type": "address"
        },
        {
          "internalType": "string",
          "name": "_tokenURI",
          "type": "string"
        }
      ],
      "name": "mintNFT",
      "outputs": [
        {
          "internalType": "uint256",
          "name": "",
          "type": "uint256"
        }
      ],
      "stateMutability": "nonpayable",
      "type": "function"
    },
    {
      "inputs": [],
      "name": "name",
      "outputs": [
        {
          "internalType": "string",
          "name": "",
          "type": "string"
        }
      ],
      "stateMutability": "view",
      "type": "function"
    },
    {
      "inputs": [],
      "name": "nextTokenId",
      "outputs": [
        {
          "internalType": "uint256",
          "name": "",
          "type": "uint256"
        }
      ],
      "stateMutability": "view",
      "type": "function"
    },
    {
      "inputs": [
        {
          "internalType": "uint256",
          "name": "tokenId",
          "type": "uint256"
        }
      ],
      "name": "ownerOf",
      "outputs": [
        {
          "internalType": "address",
          "name": "",
          "type": "address"
        }
      ],
      "stateMutability": "view",
      "type": "function"
    },
    {
      "inputs": [
        {
          "internalType": "address",
          "name": "from",
          "type": "address"
        },
        {
          "internalType": "address",
          "name": "to",
          "type": "address"
        },
        {
          "internalType": "uint256",
          "name": "tokenId",
          "type": "uint256"
        }
      ],
      "name": "safeTransferFrom",
      "outputs": [],
      "stateMutability": "nonpayable",
      "type": "function"
    },
    {
      "inputs": [
        {
          "internalType": "address",
          "name": "from",
          "type": "address"
        },
        {
          "internalType": "address",
          "name": "to",
          "type": "address"
        },
        {
          "internalType": "uint256",
          "name": "tokenId",
          "type": "uint256"
        },
        {
          "internalType": "bytes",
          "name": "data",
          "type": "bytes"
        }
      ],
      "name": "safeTransferFrom",
      "outputs": [],
      "stateMutability": "nonpayable",
      "type": "function"
    },
    {
      "inputs": [
        {
          "internalType": "address",
          "name": "operator",
          "type": "address"
        },
        {
          "internalType": "bool",
          "name": "approved",
          "type": "bool"
        }
      ],
      "name": "setApprovalForAll",
      "outputs": [],
      "stateMutability": "nonpayable",
      "type": "function"
    },
    {
      "inputs": [
        {
          "internalType": "bytes4",
          "name": "interfaceId",
          "type": "bytes4"
        }
      ],
      "name": "supportsInterface",
      "outputs": [
        {
          "internalType": "bool",
          "name": "",
          "type": "bool"
        }
      ],
      "stateMutability": "view",
      "type": "function"
    },
    {
      "inputs": [],
      "name": "symbol",
      "outputs": [
        {
          "internalType": "string",
          "name": "",
          "type": "string"
        }
      ],
      "stateMutability": "view",
      "type": "function"
    },
    {
      "inputs": [
        {
          "internalType": "uint256",
          "name": "tokenId",
          "type": "uint256"
        }
      ],
      "name": "tokenURI",
      "outputs": [
        {
          "internalType": "string",
          "name": "",
          "type": "string"
        }
      ],
      "stateMutability": "view",
      "type": "function"
    },
    {
      "inputs": [
        {
          "internalType": "address",
          "name": "from",
          "type": "address"
        },
        {
          "internalType": "address",
          "name": "to",
          "type": "address"
        },
        {
          "internalType": "uint256",
          "name": "tokenId",
          "type": "uint256"
        }
      ],
      "name": "transferFrom",
      "outputs": [],
      "stateMutability": "nonpayable",
      "type": "function"
    }
  ],
  "bytecode": "0x60806040523480156200001157600080fd5b5060405180604001604052806005815260200164135e53919560da1b815250604051806040016040528060048152602001631353919560e21b81525081600090816200005e91906200011d565b5060016200006d82826200011d565b505050620001e9565b634e487b7160e01b600052604160045260246000fd5b600181811c90821680620000a157607f821691505b602082108103620000c257634e487b7160e01b600052602260045260246000fd5b50919050565b601f82111562000118576000816000526020600020601f850160051c81016020861015620000f35750805b601f850160051c820191505b818110156200011457828155600101620000ff565b5050505b505050565b81516001600160401b0381111562000139576200013962000076565b62000151816200014a84546200008c565b84620000c8565b602080601f831160018114620001895760008415620001705750858301515b600019600386901b1c1916600185901b17855562000114565b600085815260208120601f198616915b82811015620001ba5788860151825594840194600190910190840162000199565b5085821015620001d95787850151600019600388901b60f8161c191681555b5050505050600190811b01905550565b61187980620001f96000396000f3fe608060405234801561001057600080fd5b50600436106100f55760003560e01c806370a0823111610097578063b88d4fde11610066578063b88d4fde146101f5578063c87b56dd14610208578063e985e9c51461021b578063eacabe141461025757600080fd5b806370a08231146101b057806375794a3c146101d157806395d89b41146101da578063a22cb465146101e257600080fd5b8063095ea7b3116100d3578063095ea7b31461016257806323b872dd1461017757806342842e0e1461018a5780636352211e1461019d57600080fd5b806301ffc9a7146100fa57806306fdde0314610122578063081812fc14610137575b600080fd5b61010d61010836600461133b565b61026a565b60405190151581526020015b60405180910390f35b61012a6102ae565b60405161011991906113a8565b61014a6101453660046113bb565b610340565b6040516001600160a01b039091168152602001610119565b6101756101703660046113f0565b610367565b005b61017561018536600461141a565b61049d565b61017561019836600461141a565b610514565b61014a6101ab3660046113bb565b61052f565b6101c36101be366004611456565b610594565b604051908152602001610119565b6101c360075481565b61012a61062e565b6101756101f0366004611471565b61063d565b610175610203366004611539565b61064c565b61012a6102163660046113bb565b6106ca565b61010d6102293660046115b5565b6001600160a01b03918216600090815260056020908152604080832093909416825291909152205460ff1690565b6101c36102653660046115e8565b6107da565b60006001600160e01b031982167f490649060000000000000000000000000000000000000000000000000000000014806102a857506102a88261080f565b92915050565b6060600080546102bd9061164a565b80601f01602080910402602001604051908101604052809291908181526020018280546102e99061164a565b80156103365780601f1061030b57610100808354040283529160200191610336565b820191906000526020600020905b81548152906001019060200180831161031957829003601f168201915b5050505050905090565b600061034b826108aa565b506000908152600460205260409020546001600160a01b031690565b60006103728261052f565b9050806001600160a01b0316836001600160a01b0316036104005760405162461bcd60e51b815260206004820152602160248201527f4552433732313a20617070726f76616c20746f2063757272656e74206f776e6560448201527f720000000000000000000000000000000000000000000000000000000000000060648201526084015b60405180910390fd5b336001600160a01b038216148061041c575061041c8133610229565b61048e5760405162461bcd60e51b815260206004820152603d60248201527f4552433732313a20617070726f76652063616c6c6572206973206e6f7420746f60448201527f6b656e206f776e6572206f7220617070726f76656420666f7220616c6c00000060648201526084016103f7565b6104988383610911565b505050565b6104a7338261098c565b6105095760405162461bcd60e51b815260206004820152602d60248201527f4552433732313a2063616c6c6572206973206e6f7420746f6b656e206f776e6560448201526c1c881bdc88185c1c1c9bdd9959609a1b60648201526084016103f7565b610498838383610a0a565b6104988383836040518060200160405280600081525061064c565b6000818152600260205260408120546001600160a01b0316806102a85760405162461bcd60e51b815260206004820152601860248201527f4552433732313a20696e76616c696420746f6b656e204944000000000000000060448201526064016103f7565b60006001600160a01b0382166106125760405162461bcd60e51b815260206004820152602960248201527f4552433732313a2061646472657373207a65726f206973206e6f74206120766160448201527f6c6964206f776e6572000000000000000000000000000000000000000000000060648201526084016103f7565b506001600160a01b031660009081526003602052604090205490565b6060600180546102bd9061164a565b610648338383610c10565b5050565b610656338361098c565b6106b85760405162461bcd60e51b815260206004820152602d60248201527f4552433732313a2063616c6c6572206973206e6f7420746f6b656e206f776e6560448201526c1c881bdc88185c1c1c9bdd9959609a1b60648201526084016103f7565b6106c484848484610cde565b50505050565b60606106d5826108aa565b600082815260066020526040812080546106ee9061164a565b80601f016020809104026020016040519081016040528092919081815260200182805461071a9061164a565b80156107675780601f1061073c57610100808354040283529160200191610767565b820191906000526020600020905b81548152906001019060200180831161074a57829003601f168201915b50505050509050600061078560408051602081019091526000815290565b90508051600003610797575092915050565b8151156107c95780826040516020016107b1929190611684565b60405160208183030381529060405292505050919050565b6107d284610d67565b949350505050565b60078054600091829190826107ee836116b3565b9190505590506107fe8482610dda565b6108088184610f72565b9392505050565b60006001600160e01b031982167f80ac58cd00000000000000000000000000000000000000000000000000000000148061087257506001600160e01b031982167f5b5e139f00000000000000000000000000000000000000000000000000000000145b806102a857507f01ffc9a7000000000000000000000000000000000000000000000000000000006001600160e01b03198316146102a8565b6000818152600260205260409020546001600160a01b031661090e5760405162461bcd60e51b815260206004820152601860248201527f4552433732313a20696e76616c696420746f6b656e204944000000000000000060448201526064016103f7565b50565b6000818152600460205260409020805473ffffffffffffffffffffffffffffffffffffffff19166001600160a01b03841690811790915581906109538261052f565b6001600160a01b03167f8c5be1e5ebec7d5bd14f71427d1e84f3dd0314c0f7b2291e5b200ac8c7c3b92560405160405180910390a45050565b6000806109988361052f565b9050806001600160a01b0316846001600160a01b031614806109df57506001600160a01b0380821660009081526005602090815260408083209388168352929052205460ff165b806107d25750836001600160a01b03166109f884610340565b6001600160a01b031614949350505050565b826001600160a01b0316610a1d8261052f565b6001600160a01b031614610a815760405162461bcd60e51b815260206004820152602560248201527f4552433732313a207472616e736665722066726f6d20696e636f72726563742060448201526437bbb732b960d91b60648201526084016103f7565b6001600160a01b038216610afc5760405162461bcd60e51b8152602060048201526024808201527f4552433732313a207472616e7366657220746f20746865207a65726f2061646460448201527f726573730000000000000000000000000000000000000000000000000000000060648201526084016103f7565b826001600160a01b0316610b0f8261052f565b6001600160a01b031614610b735760405162461bcd60e51b815260206004820152602560248201527f4552433732313a207472616e736665722066726f6d20696e636f72726563742060448201526437bbb732b960d91b60648201526084016103f7565b6000818152600460209081526040808320805473ffffffffffffffffffffffffffffffffffffffff199081169091556001600160a01b0387811680865260038552838620805460001901905590871680865283862080546001019055868652600290945282852080549092168417909155905184937fddf252ad1be2c89b69c2b068fc378daa952ba7f163c4a11628f55a4df523b3ef91a4505050565b816001600160a01b0316836001600160a01b031603610c715760405162461bcd60e51b815260206004820152601960248201527f4552433732313a20617070726f766520746f2063616c6c65720000000000000060448201526064016103f7565b6001600160a01b03838116600081815260056020908152604080832094871680845294825291829020805460ff191686151590811790915591519182527f17307eab39ab6107e8899845ad3d59bd9653f200f220920489ca2b5937696c31910160405180910390a3505050565b610ce9848484610a0a565b610cf58484848461104c565b6106c45760405162461bcd60e51b815260206004820152603260248201527f4552433732313a207472616e7366657220746f206e6f6e20455243373231526560448201527f63656976657220696d706c656d656e746572000000000000000000000000000060648201526084016103f7565b6060610d72826108aa565b6000610d8960408051602081019091526000815290565b90506000815111610da95760405180602001604052806000815250610808565b80610db3846111a3565b604051602001610dc4929190611684565b6040516020818303038152906040529392505050565b6001600160a01b038216610e305760405162461bcd60e51b815260206004820181905260248201527f4552433732313a206d696e7420746f20746865207a65726f206164647265737360448201526064016103f7565b6000818152600260205260409020546001600160a01b031615610e955760405162461bcd60e51b815260206004820152601c60248201527f4552433732313a20746f6b656e20616c7265616479206d696e7465640000000060448201526064016103f7565b6000818152600260205260409020546001600160a01b031615610efa5760405162461bcd60e51b815260206004820152601c60248201527f4552433732313a20746f6b656e20616c7265616479206d696e7465640000000060448201526064016103f7565b6001600160a01b0382166000818152600360209081526040808320805460010190558483526002909152808220805473ffffffffffffffffffffffffffffffffffffffff19168417905551839291907fddf252ad1be2c89b69c2b068fc378daa952ba7f163c4a11628f55a4df523b3ef908290a45050565b6000828152600260205260409020546001600160a01b0316610ffc5760405162461bcd60e51b815260206004820152602e60248201527f45524337323155524953746f726167653a2055524920736574206f66206e6f6e60448201527f6578697374656e7420746f6b656e00000000000000000000000000000000000060648201526084016103f7565b6000828152600660205260409020611014828261172a565b506040518281527ff8e1a15aba9398e019f0b49df1a4fde98ee17ae345cb5f6b5e2c27f5033e8ce79060200160405180910390a15050565b60006001600160a01b0384163b1561119857604051630a85bd0160e11b81526001600160a01b0385169063150b7a02906110909033908990889088906004016117ea565b6020604051808303816000875af19250505080156110cb575060408051601f3d908101601f191682019092526110c891810190611826565b60015b61117e573d8080156110f9576040519150601f19603f3d011682016040523d82523d6000602084013e6110fe565b606091505b5080516000036111765760405162461bcd60e51b815260206004820152603260248201527f4552433732313a207472616e7366657220746f206e6f6e20455243373231526560448201527f63656976657220696d706c656d656e746572000000000000000000000000000060648201526084016103f7565b805181602001fd5b6001600160e01b031916630a85bd0160e11b1490506107d2565b506001949350505050565b606060006111b083611243565b600101905060008167ffffffffffffffff8111156111d0576111d06114ad565b6040519080825280601f01601f1916602001820160405280156111fa576020820181803683370190505b5090508181016020015b600019017f3031323334353637383961626364656600000000000000000000000000000000600a86061a8153600a850494508461120457509392505050565b6000807a184f03e93ff9f4daa797ed6e38ed64bf6a1f010000000000000000831061128c577a184f03e93ff9f4daa797ed6e38ed64bf6a1f010000000000000000830492506040015b6d04ee2d6d415b85acef810000000083106112b8576d04ee2d6d415b85acef8100000000830492506020015b662386f26fc1000083106112d657662386f26fc10000830492506010015b6305f5e10083106112ee576305f5e100830492506008015b612710831061130257612710830492506004015b60648310611314576064830492506002015b600a83106102a85760010192915050565b6001600160e01b03198116811461090e57600080fd5b60006020828403121561134d57600080fd5b813561080881611325565b60005b8381101561137357818101518382015260200161135b565b50506000910152565b60008151808452611394816020860160208601611358565b601f01601f19169290920160200192915050565b602081526000610808602083018461137c565b6000602082840312156113cd57600080fd5b5035919050565b80356001600160a01b03811681146113eb57600080fd5b919050565b6000806040838503121561140357600080fd5b61140c836113d4565b946020939093013593505050565b60008060006060848603121561142f57600080fd5b611438846113d4565b9250611446602085016113d4565b9150604084013590509250925092565b60006020828403121561146857600080fd5b610808826113d4565b6000806040838503121561148457600080fd5b61148d836113d4565b9150602083013580151581146114a257600080fd5b809150509250929050565b634e487b7160e01b600052604160045260246000fd5b600067ffffffffffffffff808411156114de576114de6114ad565b604051601f8501601f19908116603f01168101908282118183101715611506576115066114ad565b8160405280935085815286868601111561151f57600080fd5b858560208301376000602087830101525050509392505050565b6000806000806080858703121561154f57600080fd5b611558856113d4565b9350611566602086016113d4565b925060408501359150606085013567ffffffffffffffff81111561158957600080fd5b8501601f8101871361159a57600080fd5b6115a9878235602084016114c3565b91505092959194509250565b600080604083850312156115c857600080fd5b6115d1836113d4565b91506115df602084016113d4565b90509250929050565b600080604083850312156115fb57600080fd5b611604836113d4565b9150602083013567ffffffffffffffff81111561162057600080fd5b8301601f8101851361163157600080fd5b611640858235602084016114c3565b9150509250929050565b600181811c9082168061165e57607f821691505b60208210810361167e57634e487b7160e01b600052602260045260246000fd5b50919050565b60008351611696818460208801611358565b8351908301906116aa818360208801611358565b01949350505050565b6000600182016116d357634e487b7160e01b600052601160045260246000fd5b5060010190565b601f821115610498576000816000526020600020601f850160051c810160208610156117035750805b601f850160051c820191505b818110156117225782815560010161170f565b505050505050565b815167ffffffffffffffff811115611744576117446114ad565b61175881611752845461164a565b846116da565b602080601f83116001811461178d57600084156117755750858301515b600019600386901b1c1916600185901b178555611722565b600085815260208120601f198616915b828110156117bc5788860151825594840194600190910190840161179d565b50858210156117da5787850151600019600388901b60f8161c191681555b5050505050600190811b01905550565b60006001600160a01b0380871683528086166020840152508360408301526080606083015261181c608083018461137c565b9695505050505050565b60006020828403121561183857600080fd5b81516108088161132556fea2646970667358221220ed304514ea2b358a59b628620bc22817de4168392f0183c18201cb39bd36a95464736f6c63430008180033",
  "linkReferences": {},
  "deployedLinkReferences": {}
}