{
  "_format": "hh-sol-artifact-1",
  "contractName": "NFTMarket",
  "sourceName": "contracts/NFTMarket.sol",
  "abi": [
    {
      "inputs": [
        {
          "internalType": "address",
          "name": "_paymentToken",
          "type": "address"
        }
      ],
      "stateMutability": "nonpayable",
      "type": "constructor"
    },
    {
      "anonymous": false,
      "inputs": [
        {
          "indexed": true,
          "internalType": "address",
          "name": "nftAddress",
          "type": "address"
        },
        {
          "indexed": true,
          "internalType": "uint256",
          "name": "tokenId",
          "type": "uint256"
        },
        {
          "indexed": false,
          "internalType": "address",
          "name": "buyer",
          "type": "address"
        },
        {
          "indexed": false,
          "internalType": "uint256",
          "name": "price",
          "type": "uint256"
        }
      ],
      "name": "NFTBought",
      "type": "event"
    },
    {
      "anonymous": false,
      "inputs": [
        {
          "indexed": true,
          "internalType": "address",
          "name": "nftAddress",
          "type": "address"
        },
        {
          "indexed": true,
          "internalType": "uint256",
          "name": "tokenId",
          "type": "uint256"
        },
        {
          "indexed": false,
          "internalType": "address",
          "name": "seller",
          "type": "address"
        },
        {
          "indexed": false,
          "internalType": "uint256",
          "name": "price",
          "type": "uint256"
        }
      ],
      "name": "NFTListed",
      "type": "event"
    },
    {
      "anonymous": false,
      "inputs": [
        {
          "indexed": true,
          "internalType": "address",
          "name": "nftAddress",
          "type": "address"
        },
        {
          "indexed": true,
          "internalType": "uint256",
          "name": "tokenId",
          "type": "uint256"
        },
        {
          "indexed": false,
          "internalType": "address",
          "name": "seller",
          "type": "address"
        },
        {
          "indexed": false,
          "internalType": "bool",
          "name": "onSale",
          "type": "bool"
        }
      ],
      "name": "NFTStatusChanged",
      "type": "event"
    },
    {
      "inputs": [
        {
          "internalType": "uint256",
          "name": "",
          "type": "uint256"
        }
      ],
      "name": "allListings",
      "outputs": [
        {
          "internalType": "address",
          "name": "nftAddress",
          "type": "address"
        },
        {
          "internalType": "uint256",
          "name": "tokenId",
          "type": "uint256"
        },
        {
          "internalType": "address",
          "name": "seller",
          "type": "address"
        },
        {
          "internalType": "uint256",
          "name": "price",
          "type": "uint256"
        },
        {
          "internalType": "uint256",
          "name": "saleTime",
          "type": "uint256"
        },
        {
          "internalType": "bool",
          "name": "onSale",
          "type": "bool"
        }
      ],
      "stateMutability": "view",
      "type": "function"
    },
    {
      "inputs": [
        {
          "internalType": "uint256",
          "name": "_index",
          "type": "uint256"
        }
      ],
      "name": "buyItem",
      "outputs": [],
      "stateMutability": "nonpayable",
      "type": "function"
    },
    {
      "inputs": [],
      "name": "getAllListings",
      "outputs": [
        {
          "components": [
            {
              "internalType": "address",
              "name": "nftAddress",
              "type": "address"
            },
            {
              "internalType": "uint256",
              "name": "tokenId",
              "type": "uint256"
            },
            {
              "internalType": "address",
              "name": "seller",
              "type": "address"
            },
            {
              "internalType": "uint256",
              "name": "price",
              "type": "uint256"
            },
            {
              "internalType": "uint256",
              "name": "saleTime",
              "type": "uint256"
            },
            {
              "internalType": "bool",
              "name": "onSale",
              "type": "bool"
            }
          ],
          "internalType": "struct NFTMarket.Listing[]",
          "name": "",
          "type": "tuple[]"
        }
      ],
      "stateMutability": "view",
      "type": "function"
    },
    {
      "inputs": [
        {
          "internalType": "address",
          "name": "_nftAddress",
          "type": "address"
        },
        {
          "internalType": "uint256",
          "name": "_tokenId",
          "type": "uint256"
        },
        {
          "internalType": "uint256",
          "name": "_price",
          "type": "uint256"
        }
      ],
      "name": "listItem",
      "outputs": [],
      "stateMutability": "nonpayable",
      "type": "function"
    },
    {
      "inputs": [],
      "name": "paymentToken",
      "outputs": [
        {
          "internalType": "contract IERC20",
          "name": "",
          "type": "address"
        }
      ],
      "stateMutability": "view",
      "type": "function"
    },
    {
      "inputs": [
        {
          "internalType": "uint256",
          "name": "_index",
          "type": "uint256"
        },
        {
          "internalType": "bool",
          "name": "_onSale",
          "type": "bool"
        }
      ],
      "name": "updateItemStatus",
      "outputs": [],
      "stateMutability": "nonpayable",
      "type": "function"
    }
  ],
  "bytecode": "0x608060405234801561001057600080fd5b50604051610d5e380380610d5e83398101604081905261002f91610059565b6001600055600280546001600160a01b0319166001600160a01b0392909216919091179055610089565b60006020828403121561006b57600080fd5b81516001600160a01b038116811461008257600080fd5b9392505050565b610cc6806100986000396000f3fe608060405234801561001057600080fd5b50600436106100725760003560e01c8063aa4e3b1311610050578063aa4e3b131461010d578063ae73ccec14610120578063e7fb74c71461013557600080fd5b80630eeaa2ef146100775780633013ce29146100cd57806389bfd38f146100f8575b600080fd5b61008a610085366004610ad5565b610148565b604080516001600160a01b039788168152602081019690965293909516928401929092526060830152608082015290151560a082015260c0015b60405180910390f35b6002546100e0906001600160a01b031681565b6040516001600160a01b0390911681526020016100c4565b61010b610106366004610b03565b61019f565b005b61010b61011b366004610b46565b6104f4565b6101286105db565b6040516100c49190610b76565b61010b610143366004610ad5565b610683565b6001818154811061015857600080fd5b60009182526020909120600690910201805460018201546002830154600384015460048501546005909501546001600160a01b039485169650929491909316929160ff1686565b6040517f6352211e00000000000000000000000000000000000000000000000000000000815260048101839052839033906001600160a01b03831690636352211e90602401602060405180830381865afa158015610201573d6000803e3d6000fd5b505050506040513d601f19601f820116820180604052508101906102259190610bfc565b6001600160a01b0316146102705760405162461bcd60e51b815260206004820152600d60248201526c2737ba103a34329037bbb732b960991b60448201526064015b60405180910390fd5b6040517fe985e9c50000000000000000000000000000000000000000000000000000000081523360048201523060248201526001600160a01b0382169063e985e9c590604401602060405180830381865afa1580156102d3573d6000803e3d6000fd5b505050506040513d601f19601f820116820180604052508101906102f79190610c20565b6103435760405162461bcd60e51b815260206004820152600b60248201527f4e6f20617070726f76616c0000000000000000000000000000000000000000006044820152606401610267565b6040805160c0810182526001600160a01b03868116808352602080840188815233858701818152606087018a81524260808901908152600160a08a01818152815480830183556000929092528a5160069092027fb10e2d527612073b26eecdfd717e6a320cf44b4afac2b0732d9fcbe2b7fa0cf681018054938c1673ffffffffffffffffffffffffffffffffffffffff1994851617905596517fb10e2d527612073b26eecdfd717e6a320cf44b4afac2b0732d9fcbe2b7fa0cf788015593517fb10e2d527612073b26eecdfd717e6a320cf44b4afac2b0732d9fcbe2b7fa0cf88701805491909a16911617909755517fb10e2d527612073b26eecdfd717e6a320cf44b4afac2b0732d9fcbe2b7fa0cf984015594517fb10e2d527612073b26eecdfd717e6a320cf44b4afac2b0732d9fcbe2b7fa0cfa83015593517fb10e2d527612073b26eecdfd717e6a320cf44b4afac2b0732d9fcbe2b7fa0cfb909101805491151560ff199092169190911790558451928352820186905291928692917f392a0f172cb29479635d0b2219b2f96ef24f74dfdf328cb09f1496efe6cfddbe910160405180910390a35050505050565b60006001838154811061050957610509610c3d565b600091825260209091206002600690920201908101549091506001600160a01b031633146105695760405162461bcd60e51b815260206004820152600d60248201526c2737ba103a34329037bbb732b960991b6044820152606401610267565b60058101805460ff19168315801591909117909155610589574260048201555b600181015481546040805133815285151560208201526001600160a01b03909216917f6503ecdcb6316f05e722788e82a6e42efc6ae7ae17d696450654888006c4cd8b910160405180910390a3505050565b60606001805480602002602001604051908101604052809291908181526020016000905b8282101561067a5760008481526020908190206040805160c0810182526006860290920180546001600160a01b0390811684526001808301548587015260028301549091169284019290925260038101546060840152600481015460808401526005015460ff16151560a083015290835290920191016105ff565b50505050905090565b61068b610a7c565b6000600182815481106106a0576106a0610c3d565b60009182526020918290206040805160c081018252600690930290910180546001600160a01b0390811684526001820154948401949094526002810154909316908201819052600383015460608301526004830154608083015260059092015460ff16151560a082015291506107585760405162461bcd60e51b815260206004820152600a60248201527f4e6f74206c6973746564000000000000000000000000000000000000000000006044820152606401610267565b8060a001516107a95760405162461bcd60e51b815260206004820152600c60248201527f4e6f7420666f722073616c6500000000000000000000000000000000000000006044820152606401610267565b600254604082810151606084015191517f23b872dd0000000000000000000000000000000000000000000000000000000081523360048201526001600160a01b0391821660248201526044810192909252909116906323b872dd906064016020604051808303816000875af1158015610826573d6000803e3d6000fd5b505050506040513d601f19601f8201168201806040525081019061084a9190610c20565b508051604080830151602084015191517f42842e0e0000000000000000000000000000000000000000000000000000000081526001600160a01b0391821660048201523360248201526044810192909252909116906342842e0e90606401600060405180830381600087803b1580156108c257600080fd5b505af11580156108d6573d6000803e3d6000fd5b5050600180549092506108eb91508290610c53565b815481106108fb576108fb610c3d565b90600052602060002090600602016001838154811061091c5761091c610c3d565b600091825260209091208254600690920201805473ffffffffffffffffffffffffffffffffffffffff199081166001600160a01b03938416178255600180850154818401556002808601549084018054909316941693909317905560038084015490820155600480840154908201556005928301549201805460ff909316151560ff19909316929092179091558054806109b8576109b8610c7a565b6000828152602080822060066000199490940193840201805473ffffffffffffffffffffffffffffffffffffffff1990811682556001820184905560028201805490911690556003810183905560048101929092556005909101805460ff1916905591558181015182516060840151604080513381529485019190915291926001600160a01b03909116917fd049e2a63bc594b795843dbd138be07951c1fd96ef29b25ab85e74fc10f15085910160405180910390a350610a796001600055565b50565b600260005403610ace5760405162461bcd60e51b815260206004820152601f60248201527f5265656e7472616e637947756172643a207265656e7472616e742063616c6c006044820152606401610267565b6002600055565b600060208284031215610ae757600080fd5b5035919050565b6001600160a01b0381168114610a7957600080fd5b600080600060608486031215610b1857600080fd5b8335610b2381610aee565b95602085013595506040909401359392505050565b8015158114610a7957600080fd5b60008060408385031215610b5957600080fd5b823591506020830135610b6b81610b38565b809150509250929050565b602080825282518282018190526000919060409081850190868401855b82811015610bef57815180516001600160a01b0390811686528782015188870152868201511686860152606080820151908601526080808201519086015260a09081015115159085015260c09093019290850190600101610b93565b5091979650505050505050565b600060208284031215610c0e57600080fd5b8151610c1981610aee565b9392505050565b600060208284031215610c3257600080fd5b8151610c1981610b38565b634e487b7160e01b600052603260045260246000fd5b81810381811115610c7457634e487b7160e01b600052601160045260246000fd5b92915050565b634e487b7160e01b600052603160045260246000fdfea2646970667358221220792565e79e6cc9ff7df90e66cf8ec6634e4d3077b984c6cbb1d2e78116ef851664736f6c63430008180033",
  "linkReferences": {},
  "deployedLinkReferences": {}
}