{
  "address": "0x69BAe672c5d8504005c08d90Fbf322a97CcFab8b",
  "abi": [
    {
      "inputs": [
        {
          "internalType": "address",
          "name": "initialOwner",
          "type": "address"
        }
      ],
      "stateMutability": "nonpayable",
      "type": "constructor"
    },
    {
      "inputs": [],
      "name": "ERC721EnumerableForbiddenBatchMint",
      "type": "error"
    },
    {
      "inputs": [
        {
          "internalType": "address",
          "name": "sender",
          "type": "address"
        },
        {
          "internalType": "uint256",
          "name": "tokenId",
          "type": "uint256"
        },
        {
          "internalType": "address",
          "name": "owner",
          "type": "address"
        }
      ],
      "name": "ERC721IncorrectOwner",
      "type": "error"
    },
    {
      "inputs": [
        {
          "internalType": "address",
          "name": "operator",
          "type": "address"
        },
        {
          "internalType": "uint256",
          "name": "tokenId",
          "type": "uint256"
        }
      ],
      "name": "ERC721InsufficientApproval",
      "type": "error"
    },
    {
      "inputs": [
        {
          "internalType": "address",
          "name": "approver",
          "type": "address"
        }
      ],
      "name": "ERC721InvalidApprover",
      "type": "error"
    },
    {
      "inputs": [
        {
          "internalType": "address",
          "name": "operator",
          "type": "address"
        }
      ],
      "name": "ERC721InvalidOperator",
      "type": "error"
    },
    {
      "inputs": [
        {
          "internalType": "address",
          "name": "owner",
          "type": "address"
        }
      ],
      "name": "ERC721InvalidOwner",
      "type": "error"
    },
    {
      "inputs": [
        {
          "internalType": "address",
          "name": "receiver",
          "type": "address"
        }
      ],
      "name": "ERC721InvalidReceiver",
      "type": "error"
    },
    {
      "inputs": [
        {
          "internalType": "address",
          "name": "sender",
          "type": "address"
        }
      ],
      "name": "ERC721InvalidSender",
      "type": "error"
    },
    {
      "inputs": [
        {
          "internalType": "uint256",
          "name": "tokenId",
          "type": "uint256"
        }
      ],
      "name": "ERC721NonexistentToken",
      "type": "error"
    },
    {
      "inputs": [
        {
          "internalType": "address",
          "name": "owner",
          "type": "address"
        },
        {
          "internalType": "uint256",
          "name": "index",
          "type": "uint256"
        }
      ],
      "name": "ERC721OutOfBoundsIndex",
      "type": "error"
    },
    {
      "inputs": [
        {
          "internalType": "address",
          "name": "owner",
          "type": "address"
        }
      ],
      "name": "OwnableInvalidOwner",
      "type": "error"
    },
    {
      "inputs": [
        {
          "internalType": "address",
          "name": "account",
          "type": "address"
        }
      ],
      "name": "OwnableUnauthorizedAccount",
      "type": "error"
    },
    {
      "anonymous": false,
      "inputs": [
        {
          "indexed": true,
          "internalType": "address",
          "name": "owner",
          "type": "address"
        },
        {
          "indexed": true,
          "internalType": "address",
          "name": "approved",
          "type": "address"
        },
        {
          "indexed": true,
          "internalType": "uint256",
          "name": "tokenId",
          "type": "uint256"
        }
      ],
      "name": "Approval",
      "type": "event"
    },
    {
      "anonymous": false,
      "inputs": [
        {
          "indexed": true,
          "internalType": "address",
          "name": "owner",
          "type": "address"
        },
        {
          "indexed": true,
          "internalType": "address",
          "name": "operator",
          "type": "address"
        },
        {
          "indexed": false,
          "internalType": "bool",
          "name": "approved",
          "type": "bool"
        }
      ],
      "name": "ApprovalForAll",
      "type": "event"
    },
    {
      "anonymous": false,
      "inputs": [
        {
          "indexed": false,
          "internalType": "uint256",
          "name": "_fromTokenId",
          "type": "uint256"
        },
        {
          "indexed": false,
          "internalType": "uint256",
          "name": "_toTokenId",
          "type": "uint256"
        }
      ],
      "name": "BatchMetadataUpdate",
      "type": "event"
    },
    {
      "anonymous": false,
      "inputs": [
        {
          "indexed": false,
          "internalType": "string",
          "name": "message",
          "type": "string"
        }
      ],
      "name": "Debug",
      "type": "event"
    },
    {
      "anonymous": false,
      "inputs": [
        {
          "indexed": false,
          "internalType": "uint256",
          "name": "_tokenId",
          "type": "uint256"
        }
      ],
      "name": "MetadataUpdate",
      "type": "event"
    },
    {
      "anonymous": false,
      "inputs": [
        {
          "indexed": true,
          "internalType": "address",
          "name": "previousOwner",
          "type": "address"
        },
        {
          "indexed": true,
          "internalType": "address",
          "name": "newOwner",
          "type": "address"
        }
      ],
      "name": "OwnershipTransferred",
      "type": "event"
    },
    {
      "anonymous": false,
      "inputs": [
        {
          "indexed": true,
          "internalType": "address",
          "name": "from",
          "type": "address"
        },
        {
          "indexed": true,
          "internalType": "address",
          "name": "to",
          "type": "address"
        },
        {
          "indexed": true,
          "internalType": "uint256",
          "name": "tokenId",
          "type": "uint256"
        }
      ],
      "name": "Transfer",
      "type": "event"
    },
    {
      "inputs": [
        {
          "internalType": "address",
          "name": "to",
          "type": "address"
        },
        {
          "internalType": "uint256",
          "name": "tokenId",
          "type": "uint256"
        }
      ],
      "name": "approve",
      "outputs": [],
      "stateMutability": "nonpayable",
      "type": "function"
    },
    {
      "inputs": [
        {
          "internalType": "address",
          "name": "owner",
          "type": "address"
        }
      ],
      "name": "balanceOf",
      "outputs": [
        {
          "internalType": "uint256",
          "name": "",
          "type": "uint256"
        }
      ],
      "stateMutability": "view",
      "type": "function"
    },
    {
      "inputs": [
        {
          "internalType": "uint256",
          "name": "tokenId",
          "type": "uint256"
        }
      ],
      "name": "burn",
      "outputs": [],
      "stateMutability": "nonpayable",
      "type": "function"
    },
    {
      "inputs": [
        {
          "internalType": "uint256",
          "name": "tokenId",
          "type": "uint256"
        }
      ],
      "name": "getApproved",
      "outputs": [
        {
          "internalType": "address",
          "name": "",
          "type": "address"
        }
      ],
      "stateMutability": "view",
      "type": "function"
    },
    {
      "inputs": [
        {
          "internalType": "address",
          "name": "owner",
          "type": "address"
        },
        {
          "internalType": "address",
          "name": "operator",
          "type": "address"
        }
      ],
      "name": "isApprovedForAll",
      "outputs": [
        {
          "internalType": "bool",
          "name": "",
          "type": "bool"
        }
      ],
      "stateMutability": "view",
      "type": "function"
    },
    {
      "inputs": [],
      "name": "name",
      "outputs": [
        {
          "internalType": "string",
          "name": "",
          "type": "string"
        }
      ],
      "stateMutability": "view",
      "type": "function"
    },
    {
      "inputs": [],
      "name": "owner",
      "outputs": [
        {
          "internalType": "address",
          "name": "",
          "type": "address"
        }
      ],
      "stateMutability": "view",
      "type": "function"
    },
    {
      "inputs": [
        {
          "internalType": "uint256",
          "name": "tokenId",
          "type": "uint256"
        }
      ],
      "name": "ownerOf",
      "outputs": [
        {
          "internalType": "address",
          "name": "",
          "type": "address"
        }
      ],
      "stateMutability": "view",
      "type": "function"
    },
    {
      "inputs": [],
      "name": "renounceOwnership",
      "outputs": [],
      "stateMutability": "nonpayable",
      "type": "function"
    },
    {
      "inputs": [
        {
          "internalType": "address",
          "name": "to",
          "type": "address"
        },
        {
          "internalType": "uint256",
          "name": "tokenId",
          "type": "uint256"
        },
        {
          "internalType": "string",
          "name": "uri",
          "type": "string"
        }
      ],
      "name": "safeMint",
      "outputs": [],
      "stateMutability": "nonpayable",
      "type": "function"
    },
    {
      "inputs": [
        {
          "internalType": "address",
          "name": "from",
          "type": "address"
        },
        {
          "internalType": "address",
          "name": "to",
          "type": "address"
        },
        {
          "internalType": "uint256",
          "name": "tokenId",
          "type": "uint256"
        }
      ],
      "name": "safeTransferFrom",
      "outputs": [],
      "stateMutability": "nonpayable",
      "type": "function"
    },
    {
      "inputs": [
        {
          "internalType": "address",
          "name": "from",
          "type": "address"
        },
        {
          "internalType": "address",
          "name": "to",
          "type": "address"
        },
        {
          "internalType": "uint256",
          "name": "tokenId",
          "type": "uint256"
        },
        {
          "internalType": "bytes",
          "name": "data",
          "type": "bytes"
        }
      ],
      "name": "safeTransferFrom",
      "outputs": [],
      "stateMutability": "nonpayable",
      "type": "function"
    },
    {
      "inputs": [
        {
          "internalType": "address",
          "name": "operator",
          "type": "address"
        },
        {
          "internalType": "bool",
          "name": "approved",
          "type": "bool"
        }
      ],
      "name": "setApprovalForAll",
      "outputs": [],
      "stateMutability": "nonpayable",
      "type": "function"
    },
    {
      "inputs": [
        {
          "internalType": "bytes4",
          "name": "interfaceId",
          "type": "bytes4"
        }
      ],
      "name": "supportsInterface",
      "outputs": [
        {
          "internalType": "bool",
          "name": "",
          "type": "bool"
        }
      ],
      "stateMutability": "view",
      "type": "function"
    },
    {
      "inputs": [],
      "name": "symbol",
      "outputs": [
        {
          "internalType": "string",
          "name": "",
          "type": "string"
        }
      ],
      "stateMutability": "view",
      "type": "function"
    },
    {
      "inputs": [],
      "name": "testDebug",
      "outputs": [],
      "stateMutability": "nonpayable",
      "type": "function"
    },
    {
      "inputs": [
        {
          "internalType": "uint256",
          "name": "index",
          "type": "uint256"
        }
      ],
      "name": "tokenByIndex",
      "outputs": [
        {
          "internalType": "uint256",
          "name": "",
          "type": "uint256"
        }
      ],
      "stateMutability": "view",
      "type": "function"
    },
    {
      "inputs": [
        {
          "internalType": "address",
          "name": "owner",
          "type": "address"
        },
        {
          "internalType": "uint256",
          "name": "index",
          "type": "uint256"
        }
      ],
      "name": "tokenOfOwnerByIndex",
      "outputs": [
        {
          "internalType": "uint256",
          "name": "",
          "type": "uint256"
        }
      ],
      "stateMutability": "view",
      "type": "function"
    },
    {
      "inputs": [
        {
          "internalType": "uint256",
          "name": "tokenId",
          "type": "uint256"
        }
      ],
      "name": "tokenURI",
      "outputs": [
        {
          "internalType": "string",
          "name": "",
          "type": "string"
        }
      ],
      "stateMutability": "view",
      "type": "function"
    },
    {
      "inputs": [],
      "name": "totalSupply",
      "outputs": [
        {
          "internalType": "uint256",
          "name": "",
          "type": "uint256"
        }
      ],
      "stateMutability": "view",
      "type": "function"
    },
    {
      "inputs": [
        {
          "internalType": "address",
          "name": "from",
          "type": "address"
        },
        {
          "internalType": "address",
          "name": "to",
          "type": "address"
        },
        {
          "internalType": "uint256",
          "name": "tokenId",
          "type": "uint256"
        }
      ],
      "name": "transferFrom",
      "outputs": [],
      "stateMutability": "nonpayable",
      "type": "function"
    },
    {
      "inputs": [
        {
          "internalType": "address",
          "name": "newOwner",
          "type": "address"
        }
      ],
      "name": "transferOwnership",
      "outputs": [],
      "stateMutability": "nonpayable",
      "type": "function"
    }
  ],
  "transactionHash": "0x7b024e77644ad37a840564653dfeb2fe905f0e6dc3f63e939606633d794c4f88",
  "args": [
    "0x3A2cd4d3E44C1baBd071c3C487a131F61a91A802"
  ],
  "numDeployments": 1,
  "solcInputHash": "10682a00081a7f3e068211f6fe357833",
  "bytecode": "0x60806040523480156200001157600080fd5b5060405162001b6738038062001b6783398101604081905262000034916200012f565b806040518060400160405280600981526020016813d31255914813919560ba1b8152506040518060400160405280600881526020016713d312559153919560c21b815250816000908162000089919062000206565b50600162000098828262000206565b5050506001600160a01b038116620000ca57604051631e4fbdf760e01b81526000600482015260240160405180910390fd5b620000d581620000dd565b5050620002d2565b600b80546001600160a01b038381166001600160a01b0319831681179093556040519116919082907f8be0079c531659141344cd1fd0a4f28419497f9722a3daafe3b4186f6b6457e090600090a35050565b6000602082840312156200014257600080fd5b81516001600160a01b03811681146200015a57600080fd5b9392505050565b634e487b7160e01b600052604160045260246000fd5b600181811c908216806200018c57607f821691505b602082108103620001ad57634e487b7160e01b600052602260045260246000fd5b50919050565b601f8211156200020157600081815260208120601f850160051c81016020861015620001dc5750805b601f850160051c820191505b81811015620001fd57828155600101620001e8565b5050505b505050565b81516001600160401b0381111562000222576200022262000161565b6200023a8162000233845462000177565b84620001b3565b602080601f831160018114620002725760008415620002595750858301515b600019600386901b1c1916600185901b178555620001fd565b600085815260208120601f198616915b82811015620002a35788860151825594840194600190910190840162000282565b5085821015620002c25787850151600019600388901b60f8161c191681555b5050505050600190811b01905550565b61188580620002e26000396000f3fe608060405234801561001057600080fd5b50600436106101425760003560e01c80636352211e116100b8578063a22cb4651161007c578063a22cb46514610284578063b88d4fde14610297578063c87b56dd146102aa578063cd279c7c146102bd578063e985e9c5146102d0578063f2fde38b146102e357600080fd5b80636352211e1461023d57806370a0823114610250578063715018a6146102635780638da5cb5b1461026b57806395d89b411461027c57600080fd5b806318160ddd1161010a57806318160ddd146101cc57806323b872dd146101de5780632f745c59146101f157806342842e0e1461020457806342966c68146102175780634f6ccce71461022a57600080fd5b806301ffc9a71461014757806306fdde031461016f578063076d30a414610184578063081812fc1461018e578063095ea7b3146101b9575b600080fd5b61015a610155366004611319565b6102f6565b60405190151581526020015b60405180910390f35b610177610307565b6040516101669190611386565b61018c610399565b005b6101a161019c366004611399565b6103f8565b6040516001600160a01b039091168152602001610166565b61018c6101c73660046113ce565b610421565b6009545b604051908152602001610166565b61018c6101ec3660046113f8565b610430565b6101d06101ff3660046113ce565b6104c0565b61018c6102123660046113f8565b610525565b61018c610225366004611399565b610545565b6101d0610238366004611399565b610551565b6101a161024b366004611399565b6105aa565b6101d061025e366004611434565b6105b5565b61018c6105fd565b600b546001600160a01b03166101a1565b610177610611565b61018c61029236600461144f565b610620565b61018c6102a5366004611517565b61062b565b6101776102b8366004611399565b610642565b61018c6102cb366004611593565b61064d565b61015a6102de3660046115fe565b610669565b61018c6102f1366004611434565b610697565b6000610301826106d5565b92915050565b60606000805461031690611631565b80601f016020809104026020016040519081016040528092919081815260200182805461034290611631565b801561038f5780601f106103645761010080835404028352916020019161038f565b820191906000526020600020905b81548152906001019060200180831161037257829003601f168201915b5050505050905090565b6103a16106fa565b7f7cdb51e9dbbc205231228146c3246e7f914aa6d4a33170e43ecc8e3593481d1a6040516103ee906020808252600b908201526a1a195b1b1bc81ddbdc9b1960aa1b604082015260600190565b60405180910390a1565b600061040382610727565b506000828152600460205260409020546001600160a01b0316610301565b61042c828233610760565b5050565b6001600160a01b03821661045f57604051633250574960e11b8152600060048201526024015b60405180910390fd5b600061046c83833361076d565b9050836001600160a01b0316816001600160a01b0316146104ba576040516364283d7b60e01b81526001600160a01b0380861660048301526024820184905282166044820152606401610456565b50505050565b60006104cb836105b5565b82106104fc5760405163295f44f760e21b81526001600160a01b038416600482015260248101839052604401610456565b506001600160a01b03919091166000908152600760209081526040808320938352929052205490565b6105408383836040518060200160405280600081525061062b565b505050565b61042c6000823361076d565b600061055c60095490565b82106105855760405163295f44f760e21b81526000600482015260248101839052604401610456565b600982815481106105985761059861166b565b90600052602060002001549050919050565b600061030182610727565b60006001600160a01b0382166105e1576040516322718ad960e21b815260006004820152602401610456565b506001600160a01b031660009081526003602052604090205490565b6106056106fa565b61060f6000610782565b565b60606001805461031690611631565b61042c3383836107d4565b610636848484610430565b6104ba84848484610873565b60606103018261099c565b6106556106fa565b61065f8383610aa5565b6105408282610abf565b6001600160a01b03918216600090815260056020908152604080832093909416825291909152205460ff1690565b61069f6106fa565b6001600160a01b0381166106c957604051631e4fbdf760e01b815260006004820152602401610456565b6106d281610782565b50565b60006001600160e01b0319821663780e9d6360e01b1480610301575061030182610b0f565b600b546001600160a01b0316331461060f5760405163118cdaa760e01b8152336004820152602401610456565b6000818152600260205260408120546001600160a01b03168061030157604051637e27328960e01b815260048101849052602401610456565b6105408383836001610b34565b600061077a848484610c3a565b949350505050565b600b80546001600160a01b038381166001600160a01b0319831681179093556040519116919082907f8be0079c531659141344cd1fd0a4f28419497f9722a3daafe3b4186f6b6457e090600090a35050565b6001600160a01b03821661080657604051630b61174360e31b81526001600160a01b0383166004820152602401610456565b6001600160a01b03838116600081815260056020908152604080832094871680845294825291829020805460ff191686151590811790915591519182527f17307eab39ab6107e8899845ad3d59bd9653f200f220920489ca2b5937696c31910160405180910390a3505050565b6001600160a01b0383163b156104ba57604051630a85bd0160e11b81526001600160a01b0384169063150b7a02906108b5903390889087908790600401611681565b6020604051808303816000875af19250505080156108f0575060408051601f3d908101601f191682019092526108ed918101906116be565b60015b610959573d80801561091e576040519150601f19603f3d011682016040523d82523d6000602084013e610923565b606091505b50805160000361095157604051633250574960e11b81526001600160a01b0385166004820152602401610456565b805181602001fd5b6001600160e01b03198116630a85bd0160e11b1461099557604051633250574960e11b81526001600160a01b0385166004820152602401610456565b5050505050565b60606109a782610727565b50600082815260066020526040812080546109c190611631565b80601f01602080910402602001604051908101604052809291908181526020018280546109ed90611631565b8015610a3a5780601f10610a0f57610100808354040283529160200191610a3a565b820191906000526020600020905b815481529060010190602001808311610a1d57829003601f168201915b505050505090506000610a5860408051602081019091526000815290565b90508051600003610a6a575092915050565b815115610a9c578082604051602001610a849291906116db565b60405160208183030381529060405292505050919050565b61077a84610d07565b61042c828260405180602001604052806000815250610d7c565b6000828152600660205260409020610ad78282611758565b506040518281527ff8e1a15aba9398e019f0b49df1a4fde98ee17ae345cb5f6b5e2c27f5033e8ce79060200160405180910390a15050565b60006001600160e01b03198216632483248360e11b1480610301575061030182610d93565b8080610b4857506001600160a01b03821615155b15610c0a576000610b5884610727565b90506001600160a01b03831615801590610b845750826001600160a01b0316816001600160a01b031614155b8015610b975750610b958184610669565b155b15610bc05760405163a9fbf51f60e01b81526001600160a01b0384166004820152602401610456565b8115610c085783856001600160a01b0316826001600160a01b03167f8c5be1e5ebec7d5bd14f71427d1e84f3dd0314c0f7b2291e5b200ac8c7c3b92560405160405180910390a45b505b5050600090815260046020526040902080546001600160a01b0319166001600160a01b0392909216919091179055565b600080610c48858585610de3565b90506001600160a01b038116610ca557610ca084600980546000838152600a60205260408120829055600182018355919091527f6e1540171b6c0c960b71a7020d9f60077f6af931a8bbf590da0223dacf75c7af0155565b610cc8565b846001600160a01b0316816001600160a01b031614610cc857610cc88185610edc565b6001600160a01b038516610ce457610cdf84610f6d565b61077a565b846001600160a01b0316816001600160a01b03161461077a5761077a858561101c565b6060610d1282610727565b506000610d2a60408051602081019091526000815290565b90506000815111610d4a5760405180602001604052806000815250610d75565b80610d548461106c565b604051602001610d659291906116db565b6040516020818303038152906040525b9392505050565b610d8683836110ff565b6105406000848484610873565b60006001600160e01b031982166380ac58cd60e01b1480610dc457506001600160e01b03198216635b5e139f60e01b145b8061030157506301ffc9a760e01b6001600160e01b0319831614610301565b6000828152600260205260408120546001600160a01b0390811690831615610e1057610e10818486611164565b6001600160a01b03811615610e4e57610e2d600085600080610b34565b6001600160a01b038116600090815260036020526040902080546000190190555b6001600160a01b03851615610e7d576001600160a01b0385166000908152600360205260409020805460010190555b60008481526002602052604080822080546001600160a01b0319166001600160a01b0389811691821790925591518793918516917fddf252ad1be2c89b69c2b068fc378daa952ba7f163c4a11628f55a4df523b3ef91a4949350505050565b6000610ee7836105b5565b600083815260086020526040902054909150808214610f3a576001600160a01b03841660009081526007602090815260408083208584528252808320548484528184208190558352600890915290208190555b5060009182526008602090815260408084208490556001600160a01b039094168352600781528383209183525290812055565b600954600090610f7f90600190611818565b6000838152600a602052604081205460098054939450909284908110610fa757610fa761166b565b906000526020600020015490508060098381548110610fc857610fc861166b565b6000918252602080832090910192909255828152600a9091526040808220849055858252812055600980548061100057611000611839565b6001900381819060005260206000200160009055905550505050565b60006001611029846105b5565b6110339190611818565b6001600160a01b039093166000908152600760209081526040808320868452825280832085905593825260089052919091209190915550565b60606000611079836111c8565b600101905060008167ffffffffffffffff8111156110995761109961148b565b6040519080825280601f01601f1916602001820160405280156110c3576020820181803683370190505b5090508181016020015b600019016f181899199a1a9b1b9c1cb0b131b232b360811b600a86061a8153600a85049450846110cd57509392505050565b6001600160a01b03821661112957604051633250574960e11b815260006004820152602401610456565b60006111378383600061076d565b90506001600160a01b03811615610540576040516339e3563760e11b815260006004820152602401610456565b61116f8383836112a0565b610540576001600160a01b03831661119d57604051637e27328960e01b815260048101829052602401610456565b60405163177e802f60e01b81526001600160a01b038316600482015260248101829052604401610456565b60008072184f03e93ff9f4daa797ed6e38ed64bf6a1f0160401b83106112075772184f03e93ff9f4daa797ed6e38ed64bf6a1f0160401b830492506040015b6d04ee2d6d415b85acef81000000008310611233576d04ee2d6d415b85acef8100000000830492506020015b662386f26fc10000831061125157662386f26fc10000830492506010015b6305f5e1008310611269576305f5e100830492506008015b612710831061127d57612710830492506004015b6064831061128f576064830492506002015b600a83106103015760010192915050565b60006001600160a01b0383161580159061077a5750826001600160a01b0316846001600160a01b031614806112da57506112da8484610669565b8061077a5750506000908152600460205260409020546001600160a01b03908116911614919050565b6001600160e01b0319811681146106d257600080fd5b60006020828403121561132b57600080fd5b8135610d7581611303565b60005b83811015611351578181015183820152602001611339565b50506000910152565b60008151808452611372816020860160208601611336565b601f01601f19169290920160200192915050565b602081526000610d75602083018461135a565b6000602082840312156113ab57600080fd5b5035919050565b80356001600160a01b03811681146113c957600080fd5b919050565b600080604083850312156113e157600080fd5b6113ea836113b2565b946020939093013593505050565b60008060006060848603121561140d57600080fd5b611416846113b2565b9250611424602085016113b2565b9150604084013590509250925092565b60006020828403121561144657600080fd5b610d75826113b2565b6000806040838503121561146257600080fd5b61146b836113b2565b91506020830135801515811461148057600080fd5b809150509250929050565b634e487b7160e01b600052604160045260246000fd5b600067ffffffffffffffff808411156114bc576114bc61148b565b604051601f8501601f19908116603f011681019082821181831017156114e4576114e461148b565b816040528093508581528686860111156114fd57600080fd5b858560208301376000602087830101525050509392505050565b6000806000806080858703121561152d57600080fd5b611536856113b2565b9350611544602086016113b2565b925060408501359150606085013567ffffffffffffffff81111561156757600080fd5b8501601f8101871361157857600080fd5b611587878235602084016114a1565b91505092959194509250565b6000806000606084860312156115a857600080fd5b6115b1846113b2565b925060208401359150604084013567ffffffffffffffff8111156115d457600080fd5b8401601f810186136115e557600080fd5b6115f4868235602084016114a1565b9150509250925092565b6000806040838503121561161157600080fd5b61161a836113b2565b9150611628602084016113b2565b90509250929050565b600181811c9082168061164557607f821691505b60208210810361166557634e487b7160e01b600052602260045260246000fd5b50919050565b634e487b7160e01b600052603260045260246000fd5b6001600160a01b03858116825284166020820152604081018390526080606082018190526000906116b49083018461135a565b9695505050505050565b6000602082840312156116d057600080fd5b8151610d7581611303565b600083516116ed818460208801611336565b835190830190611701818360208801611336565b01949350505050565b601f82111561054057600081815260208120601f850160051c810160208610156117315750805b601f850160051c820191505b818110156117505782815560010161173d565b505050505050565b815167ffffffffffffffff8111156117725761177261148b565b611786816117808454611631565b8461170a565b602080601f8311600181146117bb57600084156117a35750858301515b600019600386901b1c1916600185901b178555611750565b600085815260208120601f198616915b828110156117ea578886015182559484019460019091019084016117cb565b50858210156118085787850151600019600388901b60f8161c191681555b5050505050600190811b01905550565b8181038181111561030157634e487b7160e01b600052601160045260246000fd5b634e487b7160e01b600052603160045260246000fdfea2646970667358221220d4bc7002ea3851a24309c8e68244546ea43449d5aca153aa9b60880a3a331ffe64736f6c63430008140033",
  "devdoc": {
    "errors": {
      "ERC721EnumerableForbiddenBatchMint()": [
        {
          "details": "Batch mint is not allowed."
        }
      ],
      "ERC721IncorrectOwner(address,uint256,address)": [
        {
          "details": "Indicates an error related to the ownership over a particular token. Used in transfers.",
          "params": {
            "owner": "Address of the current owner of a token.",
            "sender": "Address whose tokens are being transferred.",
            "tokenId": "Identifier number of a token."
          }
        }
      ],
      "ERC721InsufficientApproval(address,uint256)": [
        {
          "details": "Indicates a failure with the `operator`s approval. Used in transfers.",
          "params": {
            "operator": "Address that may be allowed to operate on tokens without being their owner.",
            "tokenId": "Identifier number of a token."
          }
        }
      ],
      "ERC721InvalidApprover(address)": [
        {
          "details": "Indicates a failure with the `approver` of a token to be approved. Used in approvals.",
          "params": {
            "approver": "Address initiating an approval operation."
          }
        }
      ],
      "ERC721InvalidOperator(address)": [
        {
          "details": "Indicates a failure with the `operator` to be approved. Used in approvals.",
          "params": {
            "operator": "Address that may be allowed to operate on tokens without being their owner."
          }
        }
      ],
      "ERC721InvalidOwner(address)": [
        {
          "details": "Indicates that an address can't be an owner. For example, `address(0)` is a forbidden owner in EIP-20. Used in balance queries.",
          "params": {
            "owner": "Address of the current owner of a token."
          }
        }
      ],
      "ERC721InvalidReceiver(address)": [
        {
          "details": "Indicates a failure with the token `receiver`. Used in transfers.",
          "params": {
            "receiver": "Address to which tokens are being transferred."
          }
        }
      ],
      "ERC721InvalidSender(address)": [
        {
          "details": "Indicates a failure with the token `sender`. Used in transfers.",
          "params": {
            "sender": "Address whose tokens are being transferred."
          }
        }
      ],
      "ERC721NonexistentToken(uint256)": [
        {
          "details": "Indicates a `tokenId` whose `owner` is the zero address.",
          "params": {
            "tokenId": "Identifier number of a token."
          }
        }
      ],
      "ERC721OutOfBoundsIndex(address,uint256)": [
        {
          "details": "An `owner`'s token query was out of bounds for `index`. NOTE: The owner being `address(0)` indicates a global out of bounds index."
        }
      ],
      "OwnableInvalidOwner(address)": [
        {
          "details": "The owner is not a valid owner account. (eg. `address(0)`)"
        }
      ],
      "OwnableUnauthorizedAccount(address)": [
        {
          "details": "The caller account is not authorized to perform an operation."
        }
      ]
    },
    "events": {
      "Approval(address,address,uint256)": {
        "details": "Emitted when `owner` enables `approved` to manage the `tokenId` token."
      },
      "ApprovalForAll(address,address,bool)": {
        "details": "Emitted when `owner` enables or disables (`approved`) `operator` to manage all of its assets."
      },
      "BatchMetadataUpdate(uint256,uint256)": {
        "details": "This event emits when the metadata of a range of tokens is changed. So that the third-party platforms such as NFT market could timely update the images and related attributes of the NFTs."
      },
      "MetadataUpdate(uint256)": {
        "details": "This event emits when the metadata of a token is changed. So that the third-party platforms such as NFT market could timely update the images and related attributes of the NFT."
      },
      "Transfer(address,address,uint256)": {
        "details": "Emitted when `tokenId` token is transferred from `from` to `to`."
      }
    },
    "kind": "dev",
    "methods": {
      "approve(address,uint256)": {
        "details": "See {IERC721-approve}."
      },
      "balanceOf(address)": {
        "details": "See {IERC721-balanceOf}."
      },
      "burn(uint256)": {
        "details": "Burns `tokenId`. See {ERC721-_burn}. Requirements: - The caller must own `tokenId` or be an approved operator."
      },
      "getApproved(uint256)": {
        "details": "See {IERC721-getApproved}."
      },
      "isApprovedForAll(address,address)": {
        "details": "See {IERC721-isApprovedForAll}."
      },
      "name()": {
        "details": "See {IERC721Metadata-name}."
      },
      "owner()": {
        "details": "Returns the address of the current owner."
      },
      "ownerOf(uint256)": {
        "details": "See {IERC721-ownerOf}."
      },
      "renounceOwnership()": {
        "details": "Leaves the contract without owner. It will not be possible to call `onlyOwner` functions. Can only be called by the current owner. NOTE: Renouncing ownership will leave the contract without an owner, thereby disabling any functionality that is only available to the owner."
      },
      "safeTransferFrom(address,address,uint256)": {
        "details": "See {IERC721-safeTransferFrom}."
      },
      "safeTransferFrom(address,address,uint256,bytes)": {
        "details": "See {IERC721-safeTransferFrom}."
      },
      "setApprovalForAll(address,bool)": {
        "details": "See {IERC721-setApprovalForAll}."
      },
      "symbol()": {
        "details": "See {IERC721Metadata-symbol}."
      },
      "tokenByIndex(uint256)": {
        "details": "See {IERC721Enumerable-tokenByIndex}."
      },
      "tokenOfOwnerByIndex(address,uint256)": {
        "details": "See {IERC721Enumerable-tokenOfOwnerByIndex}."
      },
      "totalSupply()": {
        "details": "See {IERC721Enumerable-totalSupply}."
      },
      "transferFrom(address,address,uint256)": {
        "details": "See {IERC721-transferFrom}."
      },
      "transferOwnership(address)": {
        "details": "Transfers ownership of the contract to a new account (`newOwner`). Can only be called by the current owner."
      }
    },
    "version": 1
  },
  "userdoc": {
    "kind": "user",
    "methods": {},
    "version": 1
  },
  "storageLayout": {
    "storage": [
      {
        "astId": 968,
        "contract": "contracts/ERC721Token.sol:ERC721Token",
        "label": "_name",
        "offset": 0,
        "slot": "0",
        "type": "t_string_storage"
      },
      {
        "astId": 970,
        "contract": "contracts/ERC721Token.sol:ERC721Token",
        "label": "_symbol",
        "offset": 0,
        "slot": "1",
        "type": "t_string_storage"
      },
      {
        "astId": 974,
        "contract": "contracts/ERC721Token.sol:ERC721Token",
        "label": "_owners",
        "offset": 0,
        "slot": "2",
        "type": "t_mapping(t_uint256,t_address)"
      },
      {
        "astId": 978,
        "contract": "contracts/ERC721Token.sol:ERC721Token",
        "label": "_balances",
        "offset": 0,
        "slot": "3",
        "type": "t_mapping(t_address,t_uint256)"
      },
      {
        "astId": 982,
        "contract": "contracts/ERC721Token.sol:ERC721Token",
        "label": "_tokenApprovals",
        "offset": 0,
        "slot": "4",
        "type": "t_mapping(t_uint256,t_address)"
      },
      {
        "astId": 988,
        "contract": "contracts/ERC721Token.sol:ERC721Token",
        "label": "_operatorApprovals",
        "offset": 0,
        "slot": "5",
        "type": "t_mapping(t_address,t_mapping(t_address,t_bool))"
      },
      {
        "astId": 2520,
        "contract": "contracts/ERC721Token.sol:ERC721Token",
        "label": "_tokenURIs",
        "offset": 0,
        "slot": "6",
        "type": "t_mapping(t_uint256,t_string_storage)"
      },
      {
        "astId": 2127,
        "contract": "contracts/ERC721Token.sol:ERC721Token",
        "label": "_ownedTokens",
        "offset": 0,
        "slot": "7",
        "type": "t_mapping(t_address,t_mapping(t_uint256,t_uint256))"
      },
      {
        "astId": 2131,
        "contract": "contracts/ERC721Token.sol:ERC721Token",
        "label": "_ownedTokensIndex",
        "offset": 0,
        "slot": "8",
        "type": "t_mapping(t_uint256,t_uint256)"
      },
      {
        "astId": 2134,
        "contract": "contracts/ERC721Token.sol:ERC721Token",
        "label": "_allTokens",
        "offset": 0,
        "slot": "9",
        "type": "t_array(t_uint256)dyn_storage"
      },
      {
        "astId": 2138,
        "contract": "contracts/ERC721Token.sol:ERC721Token",
        "label": "_allTokensIndex",
        "offset": 0,
        "slot": "10",
        "type": "t_mapping(t_uint256,t_uint256)"
      },
      {
        "astId": 8,
        "contract": "contracts/ERC721Token.sol:ERC721Token",
        "label": "_owner",
        "offset": 0,
        "slot": "11",
        "type": "t_address"
      }
    ],
    "types": {
      "t_address": {
        "encoding": "inplace",
        "label": "address",
        "numberOfBytes": "20"
      },
      "t_array(t_uint256)dyn_storage": {
        "base": "t_uint256",
        "encoding": "dynamic_array",
        "label": "uint256[]",
        "numberOfBytes": "32"
      },
      "t_bool": {
        "encoding": "inplace",
        "label": "bool",
        "numberOfBytes": "1"
      },
      "t_mapping(t_address,t_bool)": {
        "encoding": "mapping",
        "key": "t_address",
        "label": "mapping(address => bool)",
        "numberOfBytes": "32",
        "value": "t_bool"
      },
      "t_mapping(t_address,t_mapping(t_address,t_bool))": {
        "encoding": "mapping",
        "key": "t_address",
        "label": "mapping(address => mapping(address => bool))",
        "numberOfBytes": "32",
        "value": "t_mapping(t_address,t_bool)"
      },
      "t_mapping(t_address,t_mapping(t_uint256,t_uint256))": {
        "encoding": "mapping",
        "key": "t_address",
        "label": "mapping(address => mapping(uint256 => uint256))",
        "numberOfBytes": "32",
        "value": "t_mapping(t_uint256,t_uint256)"
      },
      "t_mapping(t_address,t_uint256)": {
        "encoding": "mapping",
        "key": "t_address",
        "label": "mapping(address => uint256)",
        "numberOfBytes": "32",
        "value": "t_uint256"
      },
      "t_mapping(t_uint256,t_address)": {
        "encoding": "mapping",
        "key": "t_uint256",
        "label": "mapping(uint256 => address)",
        "numberOfBytes": "32",
        "value": "t_address"
      },
      "t_mapping(t_uint256,t_string_storage)": {
        "encoding": "mapping",
        "key": "t_uint256",
        "label": "mapping(uint256 => string)",
        "numberOfBytes": "32",
        "value": "t_string_storage"
      },
      "t_mapping(t_uint256,t_uint256)": {
        "encoding": "mapping",
        "key": "t_uint256",
        "label": "mapping(uint256 => uint256)",
        "numberOfBytes": "32",
        "value": "t_uint256"
      },
      "t_string_storage": {
        "encoding": "bytes",
        "label": "string",
        "numberOfBytes": "32"
      },
      "t_uint256": {
        "encoding": "inplace",
        "label": "uint256",
        "numberOfBytes": "32"
      }
    }
  }
}