{
  "_format": "hh-sol-artifact-1",
  "contractName": "NFTMarket",
  "sourceName": "contracts/NFTMarket.sol",
  "abi": [
    {
      "inputs": [
        {
          "internalType": "address",
          "name": "_tokenContractAddress",
          "type": "address"
        },
        {
          "internalType": "address",
          "name": "_nftContractAddress",
          "type": "address"
        }
      ],
      "stateMutability": "nonpayable",
      "type": "constructor"
    },
    {
      "anonymous": false,
      "inputs": [
        {
          "indexed": true,
          "internalType": "uint256",
          "name": "listingId",
          "type": "uint256"
        },
        {
          "indexed": true,
          "internalType": "address",
          "name": "seller",
          "type": "address"
        },
        {
          "indexed": true,
          "internalType": "address",
          "name": "nftContract",
          "type": "address"
        },
        {
          "indexed": false,
          "internalType": "uint256",
          "name": "tokenId",
          "type": "uint256"
        },
        {
          "indexed": false,
          "internalType": "uint256",
          "name": "price",
          "type": "uint256"
        }
      ],
      "name": "NFTListed",
      "type": "event"
    },
    {
      "anonymous": false,
      "inputs": [
        {
          "indexed": true,
          "internalType": "uint256",
          "name": "listingId",
          "type": "uint256"
        },
        {
          "indexed": true,
          "internalType": "address",
          "name": "buyer",
          "type": "address"
        },
        {
          "indexed": true,
          "internalType": "address",
          "name": "seller",
          "type": "address"
        },
        {
          "indexed": false,
          "internalType": "address",
          "name": "nftContract",
          "type": "address"
        },
        {
          "indexed": false,
          "internalType": "uint256",
          "name": "tokenId",
          "type": "uint256"
        },
        {
          "indexed": false,
          "internalType": "uint256",
          "name": "price",
          "type": "uint256"
        }
      ],
      "name": "NFTSold",
      "type": "event"
    },
    {
      "inputs": [
        {
          "internalType": "uint256",
          "name": "_listingId",
          "type": "uint256"
        }
      ],
      "name": "buyNFT",
      "outputs": [],
      "stateMutability": "nonpayable",
      "type": "function"
    },
    {
      "inputs": [
        {
          "internalType": "address",
          "name": "_nftContract",
          "type": "address"
        },
        {
          "internalType": "uint256",
          "name": "_tokenId",
          "type": "uint256"
        },
        {
          "internalType": "uint256",
          "name": "_price",
          "type": "uint256"
        }
      ],
      "name": "listNFT",
      "outputs": [],
      "stateMutability": "nonpayable",
      "type": "function"
    },
    {
      "inputs": [
        {
          "internalType": "uint256",
          "name": "",
          "type": "uint256"
        }
      ],
      "name": "listings",
      "outputs": [
        {
          "internalType": "address",
          "name": "seller",
          "type": "address"
        },
        {
          "internalType": "address",
          "name": "nftContract",
          "type": "address"
        },
        {
          "internalType": "uint256",
          "name": "tokenId",
          "type": "uint256"
        },
        {
          "internalType": "uint256",
          "name": "price",
          "type": "uint256"
        },
        {
          "internalType": "bool",
          "name": "active",
          "type": "bool"
        }
      ],
      "stateMutability": "view",
      "type": "function"
    },
    {
      "inputs": [],
      "name": "nftContract",
      "outputs": [
        {
          "internalType": "contract ERC721Token",
          "name": "",
          "type": "address"
        }
      ],
      "stateMutability": "view",
      "type": "function"
    },
    {
      "inputs": [],
      "name": "tokenContract",
      "outputs": [
        {
          "internalType": "contract ERC20Token",
          "name": "",
          "type": "address"
        }
      ],
      "stateMutability": "view",
      "type": "function"
    }
  ],
  "bytecode": "0x60806040523480156200001157600080fd5b50604051620010b3380380620010b383398181016040528101906200003791906200012a565b816000806101000a81548173ffffffffffffffffffffffffffffffffffffffff021916908373ffffffffffffffffffffffffffffffffffffffff16021790555080600160006101000a81548173ffffffffffffffffffffffffffffffffffffffff021916908373ffffffffffffffffffffffffffffffffffffffff160217905550505062000171565b600080fd5b600073ffffffffffffffffffffffffffffffffffffffff82169050919050565b6000620000f282620000c5565b9050919050565b6200010481620000e5565b81146200011057600080fd5b50565b6000815190506200012481620000f9565b92915050565b60008060408385031215620001445762000143620000c0565b5b6000620001548582860162000113565b9250506020620001678582860162000113565b9150509250929050565b610f3280620001816000396000f3fe608060405234801561001057600080fd5b50600436106100575760003560e01c806351ed82881461005c57806355a373d614610078578063ad05f1b414610096578063d56d229d146100b2578063de74e57b146100d0575b600080fd5b610076600480360381019061007191906108df565b610104565b005b6100806104b8565b60405161008d919061098b565b60405180910390f35b6100b060048036038101906100ab91906109e4565b6104dc565b005b6100ba6107eb565b6040516100c79190610a58565b60405180910390f35b6100ea60048036038101906100e591906108df565b610811565b6040516100fb959493929190610aac565b60405180910390f35b60006002828154811061011a57610119610aff565b5b906000526020600020906005020190508060040160009054906101000a900460ff1661017b576040517f08c379a000000000000000000000000000000000000000000000000000000000815260040161017290610b8b565b60405180910390fd5b806003015460008054906101000a900473ffffffffffffffffffffffffffffffffffffffff1673ffffffffffffffffffffffffffffffffffffffff166370a08231336040518263ffffffff1660e01b81526004016101d99190610bab565b602060405180830381865afa1580156101f6573d6000803e3d6000fd5b505050506040513d601f19601f8201168201806040525081019061021a9190610bdb565b101561025b576040517f08c379a000000000000000000000000000000000000000000000000000000000815260040161025290610c54565b60405180910390fd5b60008054906101000a900473ffffffffffffffffffffffffffffffffffffffff1673ffffffffffffffffffffffffffffffffffffffff166323b872dd338360000160009054906101000a900473ffffffffffffffffffffffffffffffffffffffff1684600301546040518463ffffffff1660e01b81526004016102e093929190610c74565b6020604051808303816000875af11580156102ff573d6000803e3d6000fd5b505050506040513d601f19601f820116820180604052508101906103239190610cd7565b50600160009054906101000a900473ffffffffffffffffffffffffffffffffffffffff1673ffffffffffffffffffffffffffffffffffffffff166323b872dd8260000160009054906101000a900473ffffffffffffffffffffffffffffffffffffffff163384600201546040518463ffffffff1660e01b81526004016103ab93929190610c74565b600060405180830381600087803b1580156103c557600080fd5b505af11580156103d9573d6000803e3d6000fd5b5050505060008160040160006101000a81548160ff0219169083151502179055508060000160009054906101000a900473ffffffffffffffffffffffffffffffffffffffff1673ffffffffffffffffffffffffffffffffffffffff163373ffffffffffffffffffffffffffffffffffffffff16837f88f63fa89cb6cf4da421a869453f09e48f4a2e670eb9dac1f4cd89afa53333728460010160009054906101000a900473ffffffffffffffffffffffffffffffffffffffff16856002015486600301546040516104ac93929190610d04565b60405180910390a45050565b60008054906101000a900473ffffffffffffffffffffffffffffffffffffffff1681565b3373ffffffffffffffffffffffffffffffffffffffff16600160009054906101000a900473ffffffffffffffffffffffffffffffffffffffff1673ffffffffffffffffffffffffffffffffffffffff16636352211e846040518263ffffffff1660e01b815260040161054e9190610d3b565b602060405180830381865afa15801561056b573d6000803e3d6000fd5b505050506040513d601f19601f8201168201806040525081019061058f9190610d6b565b73ffffffffffffffffffffffffffffffffffffffff16146105e5576040517f08c379a00000000000000000000000000000000000000000000000000000000081526004016105dc90610de4565b60405180910390fd5b60008111610628576040517f08c379a000000000000000000000000000000000000000000000000000000000815260040161061f90610e50565b60405180910390fd5b60026040518060a001604052803373ffffffffffffffffffffffffffffffffffffffff1681526020018573ffffffffffffffffffffffffffffffffffffffff16815260200184815260200183815260200160011515815250908060018154018082558091505060019003906000526020600020906005020160009091909190915060008201518160000160006101000a81548173ffffffffffffffffffffffffffffffffffffffff021916908373ffffffffffffffffffffffffffffffffffffffff16021790555060208201518160010160006101000a81548173ffffffffffffffffffffffffffffffffffffffff021916908373ffffffffffffffffffffffffffffffffffffffff160217905550604082015181600201556060820151816003015560808201518160040160006101000a81548160ff02191690831515021790555050508273ffffffffffffffffffffffffffffffffffffffff163373ffffffffffffffffffffffffffffffffffffffff1660016002805490506107ad9190610e9f565b7fb0fe4922ac99799c17a4130d5c045ba2ecdf6e15b75b9ea84aaf0dc28724a42b85856040516107de929190610ed3565b60405180910390a4505050565b600160009054906101000a900473ffffffffffffffffffffffffffffffffffffffff1681565b6002818154811061082157600080fd5b90600052602060002090600502016000915090508060000160009054906101000a900473ffffffffffffffffffffffffffffffffffffffff16908060010160009054906101000a900473ffffffffffffffffffffffffffffffffffffffff16908060020154908060030154908060040160009054906101000a900460ff16905085565b600080fd5b6000819050919050565b6108bc816108a9565b81146108c757600080fd5b50565b6000813590506108d9816108b3565b92915050565b6000602082840312156108f5576108f46108a4565b5b6000610903848285016108ca565b91505092915050565b600073ffffffffffffffffffffffffffffffffffffffff82169050919050565b6000819050919050565b600061095161094c6109478461090c565b61092c565b61090c565b9050919050565b600061096382610936565b9050919050565b600061097582610958565b9050919050565b6109858161096a565b82525050565b60006020820190506109a0600083018461097c565b92915050565b60006109b18261090c565b9050919050565b6109c1816109a6565b81146109cc57600080fd5b50565b6000813590506109de816109b8565b92915050565b6000806000606084860312156109fd576109fc6108a4565b5b6000610a0b868287016109cf565b9350506020610a1c868287016108ca565b9250506040610a2d868287016108ca565b9150509250925092565b6000610a4282610958565b9050919050565b610a5281610a37565b82525050565b6000602082019050610a6d6000830184610a49565b92915050565b610a7c816109a6565b82525050565b610a8b816108a9565b82525050565b60008115159050919050565b610aa681610a91565b82525050565b600060a082019050610ac16000830188610a73565b610ace6020830187610a73565b610adb6040830186610a82565b610ae86060830185610a82565b610af56080830184610a9d565b9695505050505050565b7f4e487b7100000000000000000000000000000000000000000000000000000000600052603260045260246000fd5b600082825260208201905092915050565b7f4c697374696e67206e6f74206163746976650000000000000000000000000000600082015250565b6000610b75601283610b2e565b9150610b8082610b3f565b602082019050919050565b60006020820190508181036000830152610ba481610b68565b9050919050565b6000602082019050610bc06000830184610a73565b92915050565b600081519050610bd5816108b3565b92915050565b600060208284031215610bf157610bf06108a4565b5b6000610bff84828501610bc6565b91505092915050565b7f496e73756666696369656e742062616c616e6365000000000000000000000000600082015250565b6000610c3e601483610b2e565b9150610c4982610c08565b602082019050919050565b60006020820190508181036000830152610c6d81610c31565b9050919050565b6000606082019050610c896000830186610a73565b610c966020830185610a73565b610ca36040830184610a82565b949350505050565b610cb481610a91565b8114610cbf57600080fd5b50565b600081519050610cd181610cab565b92915050565b600060208284031215610ced57610cec6108a4565b5b6000610cfb84828501610cc2565b91505092915050565b6000606082019050610d196000830186610a73565b610d266020830185610a82565b610d336040830184610a82565b949350505050565b6000602082019050610d506000830184610a82565b92915050565b600081519050610d65816109b8565b92915050565b600060208284031215610d8157610d806108a4565b5b6000610d8f84828501610d56565b91505092915050565b7f4e6f7420746f6b656e206f776e65720000000000000000000000000000000000600082015250565b6000610dce600f83610b2e565b9150610dd982610d98565b602082019050919050565b60006020820190508181036000830152610dfd81610dc1565b9050919050565b7f5072696365206d7573742062652067726561746572207468616e207a65726f00600082015250565b6000610e3a601f83610b2e565b9150610e4582610e04565b602082019050919050565b60006020820190508181036000830152610e6981610e2d565b9050919050565b7f4e487b7100000000000000000000000000000000000000000000000000000000600052601160045260246000fd5b6000610eaa826108a9565b9150610eb5836108a9565b9250828203905081811115610ecd57610ecc610e70565b5b92915050565b6000604082019050610ee86000830185610a82565b610ef56020830184610a82565b939250505056fea26469706673582212203f0a9528094764121505c6e6ccf588592f3a92172ae53eb0cce07dfc45c6bd5664736f6c63430008180033",
  "linkReferences": {},
  "deployedLinkReferences": {}
}