{
  "contractName": "NFTMarket",
  "abi": [
    {
      "inputs": [
        {
          "internalType": "address",
          "name": "_paymentToken",
          "type": "address"
        }
      ],
      "stateMutability": "nonpayable",
      "type": "constructor"
    },
    {
      "anonymous": false,
      "inputs": [
        {
          "indexed": false,
          "internalType": "address",
          "name": "buyer",
          "type": "address"
        },
        {
          "indexed": false,
          "internalType": "address",
          "name": "nftContract",
          "type": "address"
        },
        {
          "indexed": false,
          "internalType": "uint256",
          "name": "tokenId",
          "type": "uint256"
        },
        {
          "indexed": false,
          "internalType": "uint256",
          "name": "price",
          "type": "uint256"
        }
      ],
      "name": "NFTBought",
      "type": "event"
    },
    {
      "anonymous": false,
      "inputs": [
        {
          "indexed": false,
          "internalType": "address",
          "name": "seller",
          "type": "address"
        },
        {
          "indexed": false,
          "internalType": "address",
          "name": "nftContract",
          "type": "address"
        },
        {
          "indexed": false,
          "internalType": "uint256",
          "name": "tokenId",
          "type": "uint256"
        },
        {
          "indexed": false,
          "internalType": "uint256",
          "name": "price",
          "type": "uint256"
        }
      ],
      "name": "NFTListed",
      "type": "event"
    },
    {
      "inputs": [
        {
          "internalType": "uint256",
          "name": "",
          "type": "uint256"
        }
      ],
      "name": "listings",
      "outputs": [
        {
          "internalType": "address",
          "name": "seller",
          "type": "address"
        },
        {
          "internalType": "address",
          "name": "nftContract",
          "type": "address"
        },
        {
          "internalType": "uint256",
          "name": "tokenId",
          "type": "uint256"
        },
        {
          "internalType": "uint256",
          "name": "price",
          "type": "uint256"
        }
      ],
      "stateMutability": "view",
      "type": "function"
    },
    {
      "inputs": [],
      "name": "paymentToken",
      "outputs": [
        {
          "internalType": "contract IERC20",
          "name": "",
          "type": "address"
        }
      ],
      "stateMutability": "view",
      "type": "function"
    },
    {
      "inputs": [
        {
          "internalType": "address",
          "name": "_nftContract",
          "type": "address"
        },
        {
          "internalType": "uint256",
          "name": "_tokenId",
          "type": "uint256"
        },
        {
          "internalType": "uint256",
          "name": "_price",
          "type": "uint256"
        }
      ],
      "name": "listNFT",
      "outputs": [],
      "stateMutability": "nonpayable",
      "type": "function"
    },
    {
      "inputs": [
        {
          "internalType": "uint256",
          "name": "_listingId",
          "type": "uint256"
        }
      ],
      "name": "buyNFT",
      "outputs": [],
      "stateMutability": "nonpayable",
      "type": "function"
    },
    {
      "inputs": [],
      "name": "getListings",
      "outputs": [
        {
          "components": [
            {
              "internalType": "address",
              "name": "seller",
              "type": "address"
            },
            {
              "internalType": "address",
              "name": "nftContract",
              "type": "address"
            },
            {
              "internalType": "uint256",
              "name": "tokenId",
              "type": "uint256"
            },
            {
              "internalType": "uint256",
              "name": "price",
              "type": "uint256"
            }
          ],
          "internalType": "struct NFTMarket.Listing[]",
          "name": "",
          "type": "tuple[]"
        }
      ],
      "stateMutability": "view",
      "type": "function"
    }
  ],
  "bytecode": "0x608060405234801562000010575f80fd5b506040516200117d3803806200117d8339818101604052810190620000369190620000e1565b805f806101000a81548173ffffffffffffffffffffffffffffffffffffffff021916908373ffffffffffffffffffffffffffffffffffffffff1602179055505062000111565b5f80fd5b5f73ffffffffffffffffffffffffffffffffffffffff82169050919050565b5f620000ab8262000080565b9050919050565b620000bd816200009f565b8114620000c8575f80fd5b50565b5f81519050620000db81620000b2565b92915050565b5f60208284031215620000f957620000f86200007c565b5b5f6200010884828501620000cb565b91505092915050565b61105e806200011f5f395ff3fe608060405234801561000f575f80fd5b5060043610610055575f3560e01c80633013ce291461005957806351ed828814610077578063ad05f1b414610093578063de74e57b146100af578063f1b2d6a3146100e2575b5f80fd5b610061610100565b60405161006e9190610a99565b60405180910390f35b610091600480360381019061008c9190610ae9565b610123565b005b6100ad60048036038101906100a89190610b4f565b610567565b005b6100c960048036038101906100c49190610ae9565b61088d565b6040516100d99493929190610bbd565b60405180910390f35b6100ea610906565b6040516100f79190610d19565b60405180910390f35b5f8054906101000a900473ffffffffffffffffffffffffffffffffffffffff1681565b5f6001828154811061013857610137610d39565b5b905f5260205f2090600402016040518060800160405290815f82015f9054906101000a900473ffffffffffffffffffffffffffffffffffffffff1673ffffffffffffffffffffffffffffffffffffffff1673ffffffffffffffffffffffffffffffffffffffff168152602001600182015f9054906101000a900473ffffffffffffffffffffffffffffffffffffffff1673ffffffffffffffffffffffffffffffffffffffff1673ffffffffffffffffffffffffffffffffffffffff1681526020016002820154815260200160038201548152505090505f8054906101000a900473ffffffffffffffffffffffffffffffffffffffff1673ffffffffffffffffffffffffffffffffffffffff166323b872dd33835f015184606001516040518463ffffffff1660e01b815260040161027193929190610d66565b6020604051808303815f875af115801561028d573d5f803e3d5ffd5b505050506040513d601f19601f820116820180604052508101906102b19190610dd0565b6102f0576040517f08c379a00000000000000000000000000000000000000000000000000000000081526004016102e790610e55565b60405180910390fd5b5f816020015190508073ffffffffffffffffffffffffffffffffffffffff166342842e0e835f01513385604001516040518463ffffffff1660e01b815260040161033c93929190610d66565b5f604051808303815f87803b158015610353575f80fd5b505af1158015610365573d5f803e3d5ffd5b505050507f5a55b2d970d079d39ce4c5dc9ec6de52ebfc2bbcfc7466d62eea534ee8736673338360200151846040015185606001516040516103aa9493929190610bbd565b60405180910390a160018080805490506103c49190610ea0565b815481106103d5576103d4610d39565b5b905f5260205f209060040201600184815481106103f5576103f4610d39565b5b905f5260205f2090600402015f82015f9054906101000a900473ffffffffffffffffffffffffffffffffffffffff16815f015f6101000a81548173ffffffffffffffffffffffffffffffffffffffff021916908373ffffffffffffffffffffffffffffffffffffffff160217905550600182015f9054906101000a900473ffffffffffffffffffffffffffffffffffffffff16816001015f6101000a81548173ffffffffffffffffffffffffffffffffffffffff021916908373ffffffffffffffffffffffffffffffffffffffff160217905550600282015481600201556003820154816003015590505060018054806104f2576104f1610ed3565b5b600190038181905f5260205f2090600402015f8082015f6101000a81549073ffffffffffffffffffffffffffffffffffffffff0219169055600182015f6101000a81549073ffffffffffffffffffffffffffffffffffffffff0219169055600282015f9055600382015f905550509055505050565b5f8390503373ffffffffffffffffffffffffffffffffffffffff168173ffffffffffffffffffffffffffffffffffffffff16636352211e856040518263ffffffff1660e01b81526004016105bb9190610f00565b602060405180830381865afa1580156105d6573d5f803e3d5ffd5b505050506040513d601f19601f820116820180604052508101906105fa9190610f2d565b73ffffffffffffffffffffffffffffffffffffffff1614610650576040517f08c379a000000000000000000000000000000000000000000000000000000000815260040161064790610fa2565b60405180910390fd5b3073ffffffffffffffffffffffffffffffffffffffff168173ffffffffffffffffffffffffffffffffffffffff1663081812fc856040518263ffffffff1660e01b81526004016106a09190610f00565b602060405180830381865afa1580156106bb573d5f803e3d5ffd5b505050506040513d601f19601f820116820180604052508101906106df9190610f2d565b73ffffffffffffffffffffffffffffffffffffffff1614610735576040517f08c379a000000000000000000000000000000000000000000000000000000000815260040161072c9061100a565b60405180910390fd5b600160405180608001604052803373ffffffffffffffffffffffffffffffffffffffff1681526020018673ffffffffffffffffffffffffffffffffffffffff16815260200185815260200184815250908060018154018082558091505060019003905f5260205f2090600402015f909190919091505f820151815f015f6101000a81548173ffffffffffffffffffffffffffffffffffffffff021916908373ffffffffffffffffffffffffffffffffffffffff1602179055506020820151816001015f6101000a81548173ffffffffffffffffffffffffffffffffffffffff021916908373ffffffffffffffffffffffffffffffffffffffff160217905550604082015181600201556060820151816003015550507fbeab3a2bb824b124a8a1eb465eec003338d61b414db132d37e9b3a984fdcf0103385858560405161087f9493929190610bbd565b60405180910390a150505050565b6001818154811061089c575f80fd5b905f5260205f2090600402015f91509050805f015f9054906101000a900473ffffffffffffffffffffffffffffffffffffffff1690806001015f9054906101000a900473ffffffffffffffffffffffffffffffffffffffff16908060020154908060030154905084565b60606001805480602002602001604051908101604052809291908181526020015f905b82821015610a16578382905f5260205f2090600402016040518060800160405290815f82015f9054906101000a900473ffffffffffffffffffffffffffffffffffffffff1673ffffffffffffffffffffffffffffffffffffffff1673ffffffffffffffffffffffffffffffffffffffff168152602001600182015f9054906101000a900473ffffffffffffffffffffffffffffffffffffffff1673ffffffffffffffffffffffffffffffffffffffff1673ffffffffffffffffffffffffffffffffffffffff1681526020016002820154815260200160038201548152505081526020019060010190610929565b50505050905090565b5f73ffffffffffffffffffffffffffffffffffffffff82169050919050565b5f819050919050565b5f610a61610a5c610a5784610a1f565b610a3e565b610a1f565b9050919050565b5f610a7282610a47565b9050919050565b5f610a8382610a68565b9050919050565b610a9381610a79565b82525050565b5f602082019050610aac5f830184610a8a565b92915050565b5f80fd5b5f819050919050565b610ac881610ab6565b8114610ad2575f80fd5b50565b5f81359050610ae381610abf565b92915050565b5f60208284031215610afe57610afd610ab2565b5b5f610b0b84828501610ad5565b91505092915050565b5f610b1e82610a1f565b9050919050565b610b2e81610b14565b8114610b38575f80fd5b50565b5f81359050610b4981610b25565b92915050565b5f805f60608486031215610b6657610b65610ab2565b5b5f610b7386828701610b3b565b9350506020610b8486828701610ad5565b9250506040610b9586828701610ad5565b9150509250925092565b610ba881610b14565b82525050565b610bb781610ab6565b82525050565b5f608082019050610bd05f830187610b9f565b610bdd6020830186610b9f565b610bea6040830185610bae565b610bf76060830184610bae565b95945050505050565b5f81519050919050565b5f82825260208201905092915050565b5f819050602082019050919050565b610c3281610b14565b82525050565b610c4181610ab6565b82525050565b608082015f820151610c5b5f850182610c29565b506020820151610c6e6020850182610c29565b506040820151610c816040850182610c38565b506060820151610c946060850182610c38565b50505050565b5f610ca58383610c47565b60808301905092915050565b5f602082019050919050565b5f610cc782610c00565b610cd18185610c0a565b9350610cdc83610c1a565b805f5b83811015610d0c578151610cf38882610c9a565b9750610cfe83610cb1565b925050600181019050610cdf565b5085935050505092915050565b5f6020820190508181035f830152610d318184610cbd565b905092915050565b7f4e487b71000000000000000000000000000000000000000000000000000000005f52603260045260245ffd5b5f606082019050610d795f830186610b9f565b610d866020830185610b9f565b610d936040830184610bae565b949350505050565b5f8115159050919050565b610daf81610d9b565b8114610db9575f80fd5b50565b5f81519050610dca81610da6565b92915050565b5f60208284031215610de557610de4610ab2565b5b5f610df284828501610dbc565b91505092915050565b5f82825260208201905092915050565b7f5061796d656e74206661696c65640000000000000000000000000000000000005f82015250565b5f610e3f600e83610dfb565b9150610e4a82610e0b565b602082019050919050565b5f6020820190508181035f830152610e6c81610e33565b9050919050565b7f4e487b71000000000000000000000000000000000000000000000000000000005f52601160045260245ffd5b5f610eaa82610ab6565b9150610eb583610ab6565b9250828203905081811115610ecd57610ecc610e73565b5b92915050565b7f4e487b71000000000000000000000000000000000000000000000000000000005f52603160045260245ffd5b5f602082019050610f135f830184610bae565b92915050565b5f81519050610f2781610b25565b92915050565b5f60208284031215610f4257610f41610ab2565b5b5f610f4f84828501610f19565b91505092915050565b7f596f7520646f206e6f74206f776e2074686973204e46540000000000000000005f82015250565b5f610f8c601783610dfb565b9150610f9782610f58565b602082019050919050565b5f6020820190508181035f830152610fb981610f80565b9050919050565b7f4d61726b6574206973206e6f7420617070726f766564000000000000000000005f82015250565b5f610ff4601683610dfb565b9150610fff82610fc0565b602082019050919050565b5f6020820190508181035f83015261102181610fe8565b905091905056fea26469706673582212208cba0e38ae2d9bc1230a57f4deafd47876c662348e99f1cb00c210d71390201764736f6c63430008150033",
  "immutableReferences": {},
  "source": "// SPDX-License-Identifier: MIT\npragma solidity ^0.8.0;\n\nimport \"@openzeppelin/contracts/token/ERC721/IERC721.sol\";\nimport \"@openzeppelin/contracts/token/ERC20/IERC20.sol\";\n\ncontract NFTMarket {\n    struct Listing {\n        address seller;\n        address nftContract;\n        uint256 tokenId;\n        uint256 price;\n    }\n\n    IERC20 public paymentToken;\n    Listing[] public listings;\n\n    event NFTListed(\n        address seller,\n        address nftContract,\n        uint256 tokenId,\n        uint256 price\n    );\n    event NFTBought(\n        address buyer,\n        address nftContract,\n        uint256 tokenId,\n        uint256 price\n    );\n\n    constructor(address _paymentToken) {\n        paymentToken = IERC20(_paymentToken);\n    }\n\n    function listNFT(\n        address _nftContract,\n        uint256 _tokenId,\n        uint256 _price\n    ) public {\n        IERC721 nft = IERC721(_nftContract);\n        require(nft.ownerOf(_tokenId) == msg.sender, \"You do not own this NFT\");\n        require(\n            nft.getApproved(_tokenId) == address(this),\n            \"Market is not approved\"\n        );\n\n        listings.push(Listing(msg.sender, _nftContract, _tokenId, _price));\n\n        emit NFTListed(msg.sender, _nftContract, _tokenId, _price);\n    }\n\n    function buyNFT(uint256 _listingId) public {\n        Listing memory listing = listings[_listingId];\n        require(\n            paymentToken.transferFrom(\n                msg.sender,\n                listing.seller,\n                listing.price\n            ),\n            \"Payment failed\"\n        );\n\n        IERC721 nft = IERC721(listing.nftContract);\n        nft.safeTransferFrom(listing.seller, msg.sender, listing.tokenId);\n\n        emit NFTBought(\n            msg.sender,\n            listing.nftContract,\n            listing.tokenId,\n            listing.price\n        );\n\n        // Remove listing\n        listings[_listingId] = listings[listings.length - 1];\n        listings.pop();\n    }\n\n    function getListings() public view returns (Listing[] memory) {\n        return listings;\n    }\n}\n",
  "sourcePath": "/Users/coco/project/my/Web3-Frontend-Bootcamp/members/xiangnuans/task3/contracts/bftMarket.sol",
  "compiler": {
    "name": "solc",
    "version": "0.8.21+commit.d9974bed.Emscripten.clang"
  },
  "schemaVersion": "3.4.16",
  "updatedAt": "2024-06-15T12:27:17.305Z",
  "devdoc": {
    "kind": "dev",
    "methods": {},
    "version": 1
  },
  "userdoc": {
    "kind": "user",
    "methods": {},
    "version": 1
  }
}