{
  "_format": "hh-sol-artifact-1",
  "contractName": "HoraceNFT",
  "sourceName": "contracts/HoraceNFT.sol",
  "abi": [
    {
      "inputs": [
        {
          "internalType": "string",
          "name": "name_",
          "type": "string"
        },
        {
          "internalType": "string",
          "name": "symbol_",
          "type": "string"
        }
      ],
      "stateMutability": "nonpayable",
      "type": "constructor"
    },
    {
      "inputs": [
        {
          "internalType": "address",
          "name": "sender",
          "type": "address"
        },
        {
          "internalType": "uint256",
          "name": "tokenId",
          "type": "uint256"
        },
        {
          "internalType": "address",
          "name": "owner",
          "type": "address"
        }
      ],
      "name": "ERC721IncorrectOwner",
      "type": "error"
    },
    {
      "inputs": [
        {
          "internalType": "address",
          "name": "operator",
          "type": "address"
        },
        {
          "internalType": "uint256",
          "name": "tokenId",
          "type": "uint256"
        }
      ],
      "name": "ERC721InsufficientApproval",
      "type": "error"
    },
    {
      "inputs": [
        {
          "internalType": "address",
          "name": "approver",
          "type": "address"
        }
      ],
      "name": "ERC721InvalidApprover",
      "type": "error"
    },
    {
      "inputs": [
        {
          "internalType": "address",
          "name": "operator",
          "type": "address"
        }
      ],
      "name": "ERC721InvalidOperator",
      "type": "error"
    },
    {
      "inputs": [
        {
          "internalType": "address",
          "name": "owner",
          "type": "address"
        }
      ],
      "name": "ERC721InvalidOwner",
      "type": "error"
    },
    {
      "inputs": [
        {
          "internalType": "address",
          "name": "receiver",
          "type": "address"
        }
      ],
      "name": "ERC721InvalidReceiver",
      "type": "error"
    },
    {
      "inputs": [
        {
          "internalType": "address",
          "name": "sender",
          "type": "address"
        }
      ],
      "name": "ERC721InvalidSender",
      "type": "error"
    },
    {
      "inputs": [
        {
          "internalType": "uint256",
          "name": "tokenId",
          "type": "uint256"
        }
      ],
      "name": "ERC721NonexistentToken",
      "type": "error"
    },
    {
      "inputs": [
        {
          "internalType": "address",
          "name": "owner",
          "type": "address"
        }
      ],
      "name": "OwnableInvalidOwner",
      "type": "error"
    },
    {
      "inputs": [
        {
          "internalType": "address",
          "name": "account",
          "type": "address"
        }
      ],
      "name": "OwnableUnauthorizedAccount",
      "type": "error"
    },
    {
      "anonymous": false,
      "inputs": [
        {
          "indexed": true,
          "internalType": "address",
          "name": "owner",
          "type": "address"
        },
        {
          "indexed": true,
          "internalType": "address",
          "name": "approved",
          "type": "address"
        },
        {
          "indexed": true,
          "internalType": "uint256",
          "name": "tokenId",
          "type": "uint256"
        }
      ],
      "name": "Approval",
      "type": "event"
    },
    {
      "anonymous": false,
      "inputs": [
        {
          "indexed": true,
          "internalType": "address",
          "name": "owner",
          "type": "address"
        },
        {
          "indexed": true,
          "internalType": "address",
          "name": "operator",
          "type": "address"
        },
        {
          "indexed": false,
          "internalType": "bool",
          "name": "approved",
          "type": "bool"
        }
      ],
      "name": "ApprovalForAll",
      "type": "event"
    },
    {
      "anonymous": false,
      "inputs": [
        {
          "indexed": true,
          "internalType": "address",
          "name": "previousOwner",
          "type": "address"
        },
        {
          "indexed": true,
          "internalType": "address",
          "name": "newOwner",
          "type": "address"
        }
      ],
      "name": "OwnershipTransferred",
      "type": "event"
    },
    {
      "anonymous": false,
      "inputs": [
        {
          "indexed": true,
          "internalType": "address",
          "name": "from",
          "type": "address"
        },
        {
          "indexed": true,
          "internalType": "address",
          "name": "to",
          "type": "address"
        },
        {
          "indexed": true,
          "internalType": "uint256",
          "name": "tokenId",
          "type": "uint256"
        }
      ],
      "name": "Transfer",
      "type": "event"
    },
    {
      "inputs": [
        {
          "internalType": "address",
          "name": "to",
          "type": "address"
        },
        {
          "internalType": "uint256",
          "name": "tokenId",
          "type": "uint256"
        }
      ],
      "name": "approve",
      "outputs": [],
      "stateMutability": "nonpayable",
      "type": "function"
    },
    {
      "inputs": [
        {
          "internalType": "address",
          "name": "owner",
          "type": "address"
        }
      ],
      "name": "balanceOf",
      "outputs": [
        {
          "internalType": "uint256",
          "name": "",
          "type": "uint256"
        }
      ],
      "stateMutability": "view",
      "type": "function"
    },
    {
      "inputs": [
        {
          "internalType": "uint256",
          "name": "tokenId",
          "type": "uint256"
        }
      ],
      "name": "getApproved",
      "outputs": [
        {
          "internalType": "address",
          "name": "",
          "type": "address"
        }
      ],
      "stateMutability": "view",
      "type": "function"
    },
    {
      "inputs": [],
      "name": "getTokenCounter",
      "outputs": [
        {
          "internalType": "uint256",
          "name": "",
          "type": "uint256"
        }
      ],
      "stateMutability": "view",
      "type": "function"
    },
    {
      "inputs": [],
      "name": "houseOne",
      "outputs": [
        {
          "internalType": "string",
          "name": "",
          "type": "string"
        }
      ],
      "stateMutability": "view",
      "type": "function"
    },
    {
      "inputs": [],
      "name": "houseTwo",
      "outputs": [
        {
          "internalType": "string",
          "name": "",
          "type": "string"
        }
      ],
      "stateMutability": "view",
      "type": "function"
    },
    {
      "inputs": [
        {
          "internalType": "address",
          "name": "owner",
          "type": "address"
        },
        {
          "internalType": "address",
          "name": "operator",
          "type": "address"
        }
      ],
      "name": "isApprovedForAll",
      "outputs": [
        {
          "internalType": "bool",
          "name": "",
          "type": "bool"
        }
      ],
      "stateMutability": "view",
      "type": "function"
    },
    {
      "inputs": [],
      "name": "mintNft",
      "outputs": [],
      "stateMutability": "nonpayable",
      "type": "function"
    },
    {
      "inputs": [],
      "name": "name",
      "outputs": [
        {
          "internalType": "string",
          "name": "",
          "type": "string"
        }
      ],
      "stateMutability": "view",
      "type": "function"
    },
    {
      "inputs": [],
      "name": "owner",
      "outputs": [
        {
          "internalType": "address",
          "name": "",
          "type": "address"
        }
      ],
      "stateMutability": "view",
      "type": "function"
    },
    {
      "inputs": [
        {
          "internalType": "uint256",
          "name": "tokenId",
          "type": "uint256"
        }
      ],
      "name": "ownerOf",
      "outputs": [
        {
          "internalType": "address",
          "name": "",
          "type": "address"
        }
      ],
      "stateMutability": "view",
      "type": "function"
    },
    {
      "inputs": [],
      "name": "renounceOwnership",
      "outputs": [],
      "stateMutability": "nonpayable",
      "type": "function"
    },
    {
      "inputs": [
        {
          "internalType": "address",
          "name": "from",
          "type": "address"
        },
        {
          "internalType": "address",
          "name": "to",
          "type": "address"
        },
        {
          "internalType": "uint256",
          "name": "tokenId",
          "type": "uint256"
        }
      ],
      "name": "safeTransferFrom",
      "outputs": [],
      "stateMutability": "nonpayable",
      "type": "function"
    },
    {
      "inputs": [
        {
          "internalType": "address",
          "name": "from",
          "type": "address"
        },
        {
          "internalType": "address",
          "name": "to",
          "type": "address"
        },
        {
          "internalType": "uint256",
          "name": "tokenId",
          "type": "uint256"
        },
        {
          "internalType": "bytes",
          "name": "data",
          "type": "bytes"
        }
      ],
      "name": "safeTransferFrom",
      "outputs": [],
      "stateMutability": "nonpayable",
      "type": "function"
    },
    {
      "inputs": [
        {
          "internalType": "address",
          "name": "operator",
          "type": "address"
        },
        {
          "internalType": "bool",
          "name": "approved",
          "type": "bool"
        }
      ],
      "name": "setApprovalForAll",
      "outputs": [],
      "stateMutability": "nonpayable",
      "type": "function"
    },
    {
      "inputs": [
        {
          "internalType": "bytes4",
          "name": "interfaceId",
          "type": "bytes4"
        }
      ],
      "name": "supportsInterface",
      "outputs": [
        {
          "internalType": "bool",
          "name": "",
          "type": "bool"
        }
      ],
      "stateMutability": "view",
      "type": "function"
    },
    {
      "inputs": [],
      "name": "symbol",
      "outputs": [
        {
          "internalType": "string",
          "name": "",
          "type": "string"
        }
      ],
      "stateMutability": "view",
      "type": "function"
    },
    {
      "inputs": [
        {
          "internalType": "uint256",
          "name": "tokenId",
          "type": "uint256"
        }
      ],
      "name": "tokenURI",
      "outputs": [
        {
          "internalType": "string",
          "name": "",
          "type": "string"
        }
      ],
      "stateMutability": "view",
      "type": "function"
    },
    {
      "inputs": [
        {
          "internalType": "address",
          "name": "from",
          "type": "address"
        },
        {
          "internalType": "address",
          "name": "to",
          "type": "address"
        },
        {
          "internalType": "uint256",
          "name": "tokenId",
          "type": "uint256"
        }
      ],
      "name": "transferFrom",
      "outputs": [],
      "stateMutability": "nonpayable",
      "type": "function"
    },
    {
      "inputs": [
        {
          "internalType": "address",
          "name": "newOwner",
          "type": "address"
        }
      ],
      "name": "transferOwnership",
      "outputs": [],
      "stateMutability": "nonpayable",
      "type": "function"
    }
  ],
  "bytecode": "0x60806040523480156200001157600080fd5b506040516200272f3803806200272f833981810160405281019062000037919062000350565b33828281600090816200004b919062000620565b5080600190816200005d919062000620565b505050600073ffffffffffffffffffffffffffffffffffffffff168173ffffffffffffffffffffffffffffffffffffffff1603620000d55760006040517f1e4fbdf7000000000000000000000000000000000000000000000000000000008152600401620000cc91906200074c565b60405180910390fd5b620000e681620000f760201b60201c565b506000600781905550505062000769565b6000600660009054906101000a900473ffffffffffffffffffffffffffffffffffffffff16905081600660006101000a81548173ffffffffffffffffffffffffffffffffffffffff021916908373ffffffffffffffffffffffffffffffffffffffff1602179055508173ffffffffffffffffffffffffffffffffffffffff168173ffffffffffffffffffffffffffffffffffffffff167f8be0079c531659141344cd1fd0a4f28419497f9722a3daafe3b4186f6b6457e060405160405180910390a35050565b6000604051905090565b600080fd5b600080fd5b600080fd5b600080fd5b6000601f19601f8301169050919050565b7f4e487b7100000000000000000000000000000000000000000000000000000000600052604160045260246000fd5b6200022682620001db565b810181811067ffffffffffffffff82111715620002485762000247620001ec565b5b80604052505050565b60006200025d620001bd565b90506200026b82826200021b565b919050565b600067ffffffffffffffff8211156200028e576200028d620001ec565b5b6200029982620001db565b9050602081019050919050565b60005b83811015620002c6578082015181840152602081019050620002a9565b60008484015250505050565b6000620002e9620002e38462000270565b62000251565b905082815260208101848484011115620003085762000307620001d6565b5b62000315848285620002a6565b509392505050565b600082601f830112620003355762000334620001d1565b5b815162000347848260208601620002d2565b91505092915050565b600080604083850312156200036a5762000369620001c7565b5b600083015167ffffffffffffffff8111156200038b576200038a620001cc565b5b62000399858286016200031d565b925050602083015167ffffffffffffffff811115620003bd57620003bc620001cc565b5b620003cb858286016200031d565b9150509250929050565b600081519050919050565b7f4e487b7100000000000000000000000000000000000000000000000000000000600052602260045260246000fd5b600060028204905060018216806200042857607f821691505b6020821081036200043e576200043d620003e0565b5b50919050565b60008190508160005260206000209050919050565b60006020601f8301049050919050565b600082821b905092915050565b600060088302620004a87fffffffffffffffffffffffffffffffffffffffffffffffffffffffffffffffff8262000469565b620004b4868362000469565b95508019841693508086168417925050509392505050565b6000819050919050565b6000819050919050565b600062000501620004fb620004f584620004cc565b620004d6565b620004cc565b9050919050565b6000819050919050565b6200051d83620004e0565b620005356200052c8262000508565b84845462000476565b825550505050565b600090565b6200054c6200053d565b6200055981848462000512565b505050565b5b8181101562000581576200057560008262000542565b6001810190506200055f565b5050565b601f821115620005d0576200059a8162000444565b620005a58462000459565b81016020851015620005b5578190505b620005cd620005c48562000459565b8301826200055e565b50505b505050565b600082821c905092915050565b6000620005f560001984600802620005d5565b1980831691505092915050565b6000620006108383620005e2565b9150826002028217905092915050565b6200062b82620003d5565b67ffffffffffffffff811115620006475762000646620001ec565b5b6200065382546200040f565b6200066082828562000585565b600060209050601f83116001811462000698576000841562000683578287015190505b6200068f858262000602565b865550620006ff565b601f198416620006a88662000444565b60005b82811015620006d257848901518255600182019150602085019450602081019050620006ab565b86831015620006f25784890151620006ee601f891682620005e2565b8355505b6001600288020188555050505b505050505050565b600073ffffffffffffffffffffffffffffffffffffffff82169050919050565b6000620007348262000707565b9050919050565b620007468162000727565b82525050565b60006020820190506200076360008301846200073b565b92915050565b611fb680620007796000396000f3fe608060405234801561001057600080fd5b506004361061012c5760003560e01c8063715018a6116100ad578063b88d4fde11610071578063b88d4fde1461031f578063c2229fea1461033b578063c87b56dd14610345578063e985e9c514610375578063f2fde38b146103a55761012c565b8063715018a61461029f5780638da5cb5b146102a957806395d89b41146102c7578063a22cb465146102e5578063b3b64b6b146103015761012c565b806323b872dd116100f457806323b872dd146101e957806342842e0e146102055780636352211e146102215780636e02007d1461025157806370a082311461026f5761012c565b806301ffc9a71461013157806306fdde0314610161578063081812fc1461017f578063095ea7b3146101af578063238066b8146101cb575b600080fd5b61014b60048036038101906101469190611734565b6103c1565b604051610158919061177c565b60405180910390f35b6101696104a3565b6040516101769190611827565b60405180910390f35b6101996004803603810190610194919061187f565b610535565b6040516101a691906118ed565b60405180910390f35b6101c960048036038101906101c49190611934565b610551565b005b6101d3610567565b6040516101e09190611827565b60405180910390f35b61020360048036038101906101fe9190611974565b610583565b005b61021f600480360381019061021a9190611974565b610685565b005b61023b6004803603810190610236919061187f565b6106a5565b60405161024891906118ed565b60405180910390f35b6102596106b7565b60405161026691906119d6565b60405180910390f35b610289600480360381019061028491906119f1565b6106c1565b60405161029691906119d6565b60405180910390f35b6102a761077b565b005b6102b161078f565b6040516102be91906118ed565b60405180910390f35b6102cf6107b9565b6040516102dc9190611827565b60405180910390f35b6102ff60048036038101906102fa9190611a4a565b61084b565b005b610309610861565b6040516103169190611827565b60405180910390f35b61033960048036038101906103349190611bbf565b61087d565b005b61034361089a565b005b61035f600480360381019061035a919061187f565b6108bd565b60405161036c9190611827565b60405180910390f35b61038f600480360381019061038a9190611c42565b61091e565b60405161039c919061177c565b60405180910390f35b6103bf60048036038101906103ba91906119f1565b6109b2565b005b60007f80ac58cd000000000000000000000000000000000000000000000000000000007bffffffffffffffffffffffffffffffffffffffffffffffffffffffff1916827bffffffffffffffffffffffffffffffffffffffffffffffffffffffff1916148061048c57507f5b5e139f000000000000000000000000000000000000000000000000000000007bffffffffffffffffffffffffffffffffffffffffffffffffffffffff1916827bffffffffffffffffffffffffffffffffffffffffffffffffffffffff1916145b8061049c575061049b82610a38565b5b9050919050565b6060600080546104b290611cb1565b80601f01602080910402602001604051908101604052809291908181526020018280546104de90611cb1565b801561052b5780601f106105005761010080835404028352916020019161052b565b820191906000526020600020905b81548152906001019060200180831161050e57829003601f168201915b5050505050905090565b600061054082610aa2565b5061054a82610b2a565b9050919050565b610563828261055e610b67565b610b6f565b5050565b6040518060800160405280604c8152602001611f35604c913981565b600073ffffffffffffffffffffffffffffffffffffffff168273ffffffffffffffffffffffffffffffffffffffff16036105f55760006040517f64a0ae920000000000000000000000000000000000000000000000000000000081526004016105ec91906118ed565b60405180910390fd5b60006106098383610604610b67565b610b81565b90508373ffffffffffffffffffffffffffffffffffffffff168173ffffffffffffffffffffffffffffffffffffffff161461067f578382826040517f64283d7b00000000000000000000000000000000000000000000000000000000815260040161067693929190611ce2565b60405180910390fd5b50505050565b6106a08383836040518060200160405280600081525061087d565b505050565b60006106b082610aa2565b9050919050565b6000600754905090565b60008073ffffffffffffffffffffffffffffffffffffffff168273ffffffffffffffffffffffffffffffffffffffff16036107345760006040517f89c62b6400000000000000000000000000000000000000000000000000000000815260040161072b91906118ed565b60405180910390fd5b600360008373ffffffffffffffffffffffffffffffffffffffff1673ffffffffffffffffffffffffffffffffffffffff168152602001908152602001600020549050919050565b610783610d9b565b61078d6000610e22565b565b6000600660009054906101000a900473ffffffffffffffffffffffffffffffffffffffff16905090565b6060600180546107c890611cb1565b80601f01602080910402602001604051908101604052809291908181526020018280546107f490611cb1565b80156108415780601f1061081657610100808354040283529160200191610841565b820191906000526020600020905b81548152906001019060200180831161082457829003601f168201915b5050505050905090565b61085d610856610b67565b8383610ee8565b5050565b6040518060800160405280604c8152602001611ee9604c913981565b610888848484610583565b61089484848484611057565b50505050565b6108a63360075461120e565b60016007546108b59190611d48565b600781905550565b60606108c882610aa2565b5060006002836108d89190611dab565b036108fd576040518060800160405280604c8152602001611ee9604c91399050610919565b6040518060800160405280604c8152602001611f35604c913990505b919050565b6000600560008473ffffffffffffffffffffffffffffffffffffffff1673ffffffffffffffffffffffffffffffffffffffff16815260200190815260200160002060008373ffffffffffffffffffffffffffffffffffffffff1673ffffffffffffffffffffffffffffffffffffffff16815260200190815260200160002060009054906101000a900460ff16905092915050565b6109ba610d9b565b600073ffffffffffffffffffffffffffffffffffffffff168173ffffffffffffffffffffffffffffffffffffffff1603610a2c5760006040517f1e4fbdf7000000000000000000000000000000000000000000000000000000008152600401610a2391906118ed565b60405180910390fd5b610a3581610e22565b50565b60007f01ffc9a7000000000000000000000000000000000000000000000000000000007bffffffffffffffffffffffffffffffffffffffffffffffffffffffff1916827bffffffffffffffffffffffffffffffffffffffffffffffffffffffff1916149050919050565b600080610aae8361122c565b9050600073ffffffffffffffffffffffffffffffffffffffff168173ffffffffffffffffffffffffffffffffffffffff1603610b2157826040517f7e273289000000000000000000000000000000000000000000000000000000008152600401610b1891906119d6565b60405180910390fd5b80915050919050565b60006004600083815260200190815260200160002060009054906101000a900473ffffffffffffffffffffffffffffffffffffffff169050919050565b600033905090565b610b7c8383836001611269565b505050565b600080610b8d8461122c565b9050600073ffffffffffffffffffffffffffffffffffffffff168373ffffffffffffffffffffffffffffffffffffffff1614610bcf57610bce81848661142e565b5b600073ffffffffffffffffffffffffffffffffffffffff168173ffffffffffffffffffffffffffffffffffffffff1614610c6057610c11600085600080611269565b6001600360008373ffffffffffffffffffffffffffffffffffffffff1673ffffffffffffffffffffffffffffffffffffffff168152602001908152602001600020600082825403925050819055505b600073ffffffffffffffffffffffffffffffffffffffff168573ffffffffffffffffffffffffffffffffffffffff1614610ce3576001600360008773ffffffffffffffffffffffffffffffffffffffff1673ffffffffffffffffffffffffffffffffffffffff168152602001908152602001600020600082825401925050819055505b846002600086815260200190815260200160002060006101000a81548173ffffffffffffffffffffffffffffffffffffffff021916908373ffffffffffffffffffffffffffffffffffffffff160217905550838573ffffffffffffffffffffffffffffffffffffffff168273ffffffffffffffffffffffffffffffffffffffff167fddf252ad1be2c89b69c2b068fc378daa952ba7f163c4a11628f55a4df523b3ef60405160405180910390a4809150509392505050565b610da3610b67565b73ffffffffffffffffffffffffffffffffffffffff16610dc161078f565b73ffffffffffffffffffffffffffffffffffffffff1614610e2057610de4610b67565b6040517f118cdaa7000000000000000000000000000000000000000000000000000000008152600401610e1791906118ed565b60405180910390fd5b565b6000600660009054906101000a900473ffffffffffffffffffffffffffffffffffffffff16905081600660006101000a81548173ffffffffffffffffffffffffffffffffffffffff021916908373ffffffffffffffffffffffffffffffffffffffff1602179055508173ffffffffffffffffffffffffffffffffffffffff168173ffffffffffffffffffffffffffffffffffffffff167f8be0079c531659141344cd1fd0a4f28419497f9722a3daafe3b4186f6b6457e060405160405180910390a35050565b600073ffffffffffffffffffffffffffffffffffffffff168273ffffffffffffffffffffffffffffffffffffffff1603610f5957816040517f5b08ba18000000000000000000000000000000000000000000000000000000008152600401610f5091906118ed565b60405180910390fd5b80600560008573ffffffffffffffffffffffffffffffffffffffff1673ffffffffffffffffffffffffffffffffffffffff16815260200190815260200160002060008473ffffffffffffffffffffffffffffffffffffffff1673ffffffffffffffffffffffffffffffffffffffff16815260200190815260200160002060006101000a81548160ff0219169083151502179055508173ffffffffffffffffffffffffffffffffffffffff168373ffffffffffffffffffffffffffffffffffffffff167f17307eab39ab6107e8899845ad3d59bd9653f200f220920489ca2b5937696c318360405161104a919061177c565b60405180910390a3505050565b60008373ffffffffffffffffffffffffffffffffffffffff163b1115611208578273ffffffffffffffffffffffffffffffffffffffff1663150b7a0261109b610b67565b8685856040518563ffffffff1660e01b81526004016110bd9493929190611e31565b6020604051808303816000875af19250505080156110f957506040513d601f19601f820116820180604052508101906110f69190611e92565b60015b61117d573d8060008114611129576040519150601f19603f3d011682016040523d82523d6000602084013e61112e565b606091505b50600081510361117557836040517f64a0ae9200000000000000000000000000000000000000000000000000000000815260040161116c91906118ed565b60405180910390fd5b805181602001fd5b63150b7a0260e01b7bffffffffffffffffffffffffffffffffffffffffffffffffffffffff1916817bffffffffffffffffffffffffffffffffffffffffffffffffffffffff19161461120657836040517f64a0ae920000000000000000000000000000000000000000000000000000000081526004016111fd91906118ed565b60405180910390fd5b505b50505050565b6112288282604051806020016040528060008152506114f2565b5050565b60006002600083815260200190815260200160002060009054906101000a900473ffffffffffffffffffffffffffffffffffffffff169050919050565b80806112a25750600073ffffffffffffffffffffffffffffffffffffffff168273ffffffffffffffffffffffffffffffffffffffff1614155b156113d65760006112b284610aa2565b9050600073ffffffffffffffffffffffffffffffffffffffff168373ffffffffffffffffffffffffffffffffffffffff161415801561131d57508273ffffffffffffffffffffffffffffffffffffffff168173ffffffffffffffffffffffffffffffffffffffff1614155b8015611330575061132e818461091e565b155b1561137257826040517fa9fbf51f00000000000000000000000000000000000000000000000000000000815260040161136991906118ed565b60405180910390fd5b81156113d457838573ffffffffffffffffffffffffffffffffffffffff168273ffffffffffffffffffffffffffffffffffffffff167f8c5be1e5ebec7d5bd14f71427d1e84f3dd0314c0f7b2291e5b200ac8c7c3b92560405160405180910390a45b505b836004600085815260200190815260200160002060006101000a81548173ffffffffffffffffffffffffffffffffffffffff021916908373ffffffffffffffffffffffffffffffffffffffff16021790555050505050565b61143983838361150e565b6114ed57600073ffffffffffffffffffffffffffffffffffffffff168373ffffffffffffffffffffffffffffffffffffffff16036114ae57806040517f7e2732890000000000000000000000000000000000000000000000000000000081526004016114a591906119d6565b60405180910390fd5b81816040517f177e802f0000000000000000000000000000000000000000000000000000000081526004016114e4929190611ebf565b60405180910390fd5b505050565b6114fc83836115cf565b6115096000848484611057565b505050565b60008073ffffffffffffffffffffffffffffffffffffffff168373ffffffffffffffffffffffffffffffffffffffff16141580156115c657508273ffffffffffffffffffffffffffffffffffffffff168473ffffffffffffffffffffffffffffffffffffffff1614806115875750611586848461091e565b5b806115c557508273ffffffffffffffffffffffffffffffffffffffff166115ad83610b2a565b73ffffffffffffffffffffffffffffffffffffffff16145b5b90509392505050565b600073ffffffffffffffffffffffffffffffffffffffff168273ffffffffffffffffffffffffffffffffffffffff16036116415760006040517f64a0ae9200000000000000000000000000000000000000000000000000000000815260040161163891906118ed565b60405180910390fd5b600061164f83836000610b81565b9050600073ffffffffffffffffffffffffffffffffffffffff168173ffffffffffffffffffffffffffffffffffffffff16146116c35760006040517f73c6ac6e0000000000000000000000000000000000000000000000000000000081526004016116ba91906118ed565b60405180910390fd5b505050565b6000604051905090565b600080fd5b600080fd5b60007fffffffff0000000000000000000000000000000000000000000000000000000082169050919050565b611711816116dc565b811461171c57600080fd5b50565b60008135905061172e81611708565b92915050565b60006020828403121561174a576117496116d2565b5b60006117588482850161171f565b91505092915050565b60008115159050919050565b61177681611761565b82525050565b6000602082019050611791600083018461176d565b92915050565b600081519050919050565b600082825260208201905092915050565b60005b838110156117d15780820151818401526020810190506117b6565b60008484015250505050565b6000601f19601f8301169050919050565b60006117f982611797565b61180381856117a2565b93506118138185602086016117b3565b61181c816117dd565b840191505092915050565b6000602082019050818103600083015261184181846117ee565b905092915050565b6000819050919050565b61185c81611849565b811461186757600080fd5b50565b60008135905061187981611853565b92915050565b600060208284031215611895576118946116d2565b5b60006118a38482850161186a565b91505092915050565b600073ffffffffffffffffffffffffffffffffffffffff82169050919050565b60006118d7826118ac565b9050919050565b6118e7816118cc565b82525050565b600060208201905061190260008301846118de565b92915050565b611911816118cc565b811461191c57600080fd5b50565b60008135905061192e81611908565b92915050565b6000806040838503121561194b5761194a6116d2565b5b60006119598582860161191f565b925050602061196a8582860161186a565b9150509250929050565b60008060006060848603121561198d5761198c6116d2565b5b600061199b8682870161191f565b93505060206119ac8682870161191f565b92505060406119bd8682870161186a565b9150509250925092565b6119d081611849565b82525050565b60006020820190506119eb60008301846119c7565b92915050565b600060208284031215611a0757611a066116d2565b5b6000611a158482850161191f565b91505092915050565b611a2781611761565b8114611a3257600080fd5b50565b600081359050611a4481611a1e565b92915050565b60008060408385031215611a6157611a606116d2565b5b6000611a6f8582860161191f565b9250506020611a8085828601611a35565b9150509250929050565b600080fd5b600080fd5b7f4e487b7100000000000000000000000000000000000000000000000000000000600052604160045260246000fd5b611acc826117dd565b810181811067ffffffffffffffff82111715611aeb57611aea611a94565b5b80604052505050565b6000611afe6116c8565b9050611b0a8282611ac3565b919050565b600067ffffffffffffffff821115611b2a57611b29611a94565b5b611b33826117dd565b9050602081019050919050565b82818337600083830152505050565b6000611b62611b5d84611b0f565b611af4565b905082815260208101848484011115611b7e57611b7d611a8f565b5b611b89848285611b40565b509392505050565b600082601f830112611ba657611ba5611a8a565b5b8135611bb6848260208601611b4f565b91505092915050565b60008060008060808587031215611bd957611bd86116d2565b5b6000611be78782880161191f565b9450506020611bf88782880161191f565b9350506040611c098782880161186a565b925050606085013567ffffffffffffffff811115611c2a57611c296116d7565b5b611c3687828801611b91565b91505092959194509250565b60008060408385031215611c5957611c586116d2565b5b6000611c678582860161191f565b9250506020611c788582860161191f565b9150509250929050565b7f4e487b7100000000000000000000000000000000000000000000000000000000600052602260045260246000fd5b60006002820490506001821680611cc957607f821691505b602082108103611cdc57611cdb611c82565b5b50919050565b6000606082019050611cf760008301866118de565b611d0460208301856119c7565b611d1160408301846118de565b949350505050565b7f4e487b7100000000000000000000000000000000000000000000000000000000600052601160045260246000fd5b6000611d5382611849565b9150611d5e83611849565b9250828201905080821115611d7657611d75611d19565b5b92915050565b7f4e487b7100000000000000000000000000000000000000000000000000000000600052601260045260246000fd5b6000611db682611849565b9150611dc183611849565b925082611dd157611dd0611d7c565b5b828206905092915050565b600081519050919050565b600082825260208201905092915050565b6000611e0382611ddc565b611e0d8185611de7565b9350611e1d8185602086016117b3565b611e26816117dd565b840191505092915050565b6000608082019050611e4660008301876118de565b611e5360208301866118de565b611e6060408301856119c7565b8181036060830152611e728184611df8565b905095945050505050565b600081519050611e8c81611708565b92915050565b600060208284031215611ea857611ea76116d2565b5b6000611eb684828501611e7d565b91505092915050565b6000604082019050611ed460008301856118de565b611ee160208301846119c7565b939250505056fe68747470733a2f2f697066732e66696c65626173652e696f2f697066732f516d634c5731586977314e575646594b7a53773846555a3879766266747665777738724b724e56356d56464e557068747470733a2f2f697066732e66696c65626173652e696f2f697066732f516d5a63554a33314b42716b54575948584657464e5873695a4a547a4264326a43344645614b74436b5856393543a2646970667358221220059aa505730aeeab0f7abd253823b3690cc28012b274f9d1e6a47d2f767e9cb964736f6c63430008180033",
  "linkReferences": {},
  "deployedLinkReferences": {}
}