{
  "_format": "hh-sol-artifact-1",
  "contractName": "NFTMarket",
  "sourceName": "contracts/NFTMarket.sol",
  "abi": [
    {
      "inputs": [
        {
          "internalType": "address",
          "name": "token",
          "type": "address"
        }
      ],
      "stateMutability": "nonpayable",
      "type": "constructor"
    },
    {
      "inputs": [
        {
          "internalType": "address",
          "name": "nftAddress",
          "type": "address"
        },
        {
          "internalType": "uint256",
          "name": "tokenId",
          "type": "uint256"
        }
      ],
      "name": "ErrorNFTHasListed",
      "type": "error"
    },
    {
      "inputs": [
        {
          "internalType": "address",
          "name": "nftAddress",
          "type": "address"
        },
        {
          "internalType": "uint256",
          "name": "tokenId",
          "type": "uint256"
        }
      ],
      "name": "ErrorNFTHasNotListed",
      "type": "error"
    },
    {
      "inputs": [
        {
          "internalType": "address",
          "name": "owner",
          "type": "address"
        }
      ],
      "name": "ErrorNFTInvalidOwner",
      "type": "error"
    },
    {
      "inputs": [],
      "name": "ErrorNFTInvalidPrice",
      "type": "error"
    },
    {
      "inputs": [
        {
          "internalType": "address",
          "name": "nftAddress",
          "type": "address"
        },
        {
          "internalType": "uint256",
          "name": "tokenId",
          "type": "uint256"
        }
      ],
      "name": "ErrorNFTNotApproved",
      "type": "error"
    },
    {
      "inputs": [],
      "name": "ErrorNoProceed",
      "type": "error"
    },
    {
      "inputs": [],
      "name": "ReentrancyGuardReentrantCall",
      "type": "error"
    },
    {
      "anonymous": false,
      "inputs": [
        {
          "indexed": true,
          "internalType": "address",
          "name": "buyer",
          "type": "address"
        },
        {
          "indexed": true,
          "internalType": "address",
          "name": "nftAddress",
          "type": "address"
        },
        {
          "indexed": true,
          "internalType": "uint256",
          "name": "tokenId",
          "type": "uint256"
        },
        {
          "indexed": false,
          "internalType": "uint256",
          "name": "price",
          "type": "uint256"
        }
      ],
      "name": "BuyNFT",
      "type": "event"
    },
    {
      "anonymous": false,
      "inputs": [
        {
          "indexed": true,
          "internalType": "address",
          "name": "seller",
          "type": "address"
        },
        {
          "indexed": true,
          "internalType": "address",
          "name": "nftAddress",
          "type": "address"
        },
        {
          "indexed": true,
          "internalType": "uint256",
          "name": "tokenId",
          "type": "uint256"
        }
      ],
      "name": "CancelListing",
      "type": "event"
    },
    {
      "anonymous": false,
      "inputs": [
        {
          "indexed": true,
          "internalType": "address",
          "name": "seller",
          "type": "address"
        },
        {
          "indexed": true,
          "internalType": "address",
          "name": "nftAddress",
          "type": "address"
        },
        {
          "indexed": true,
          "internalType": "uint256",
          "name": "tokenId",
          "type": "uint256"
        },
        {
          "indexed": false,
          "internalType": "uint256",
          "name": "price",
          "type": "uint256"
        },
        {
          "indexed": false,
          "internalType": "uint256",
          "name": "old_price",
          "type": "uint256"
        }
      ],
      "name": "NftListed",
      "type": "event"
    },
    {
      "inputs": [],
      "name": "_owner",
      "outputs": [
        {
          "internalType": "address",
          "name": "",
          "type": "address"
        }
      ],
      "stateMutability": "view",
      "type": "function"
    },
    {
      "inputs": [],
      "name": "_token",
      "outputs": [
        {
          "internalType": "address",
          "name": "",
          "type": "address"
        }
      ],
      "stateMutability": "view",
      "type": "function"
    },
    {
      "inputs": [
        {
          "internalType": "address",
          "name": "nftAddress",
          "type": "address"
        },
        {
          "internalType": "uint256",
          "name": "tokenId",
          "type": "uint256"
        }
      ],
      "name": "buy",
      "outputs": [],
      "stateMutability": "payable",
      "type": "function"
    },
    {
      "inputs": [
        {
          "internalType": "address",
          "name": "nftAddress",
          "type": "address"
        },
        {
          "internalType": "uint256",
          "name": "tokenId",
          "type": "uint256"
        }
      ],
      "name": "cancel",
      "outputs": [],
      "stateMutability": "nonpayable",
      "type": "function"
    },
    {
      "inputs": [
        {
          "internalType": "address",
          "name": "nftAddress",
          "type": "address"
        },
        {
          "internalType": "uint256",
          "name": "tokenId",
          "type": "uint256"
        }
      ],
      "name": "getListing",
      "outputs": [
        {
          "components": [
            {
              "internalType": "uint256",
              "name": "price",
              "type": "uint256"
            },
            {
              "internalType": "address",
              "name": "seller",
              "type": "address"
            }
          ],
          "internalType": "struct NFTMarket.Listing",
          "name": "",
          "type": "tuple"
        }
      ],
      "stateMutability": "view",
      "type": "function"
    },
    {
      "inputs": [
        {
          "internalType": "address",
          "name": "nftAddress",
          "type": "address"
        },
        {
          "internalType": "uint256",
          "name": "price",
          "type": "uint256"
        },
        {
          "internalType": "uint256",
          "name": "tokenId",
          "type": "uint256"
        }
      ],
      "name": "list",
      "outputs": [],
      "stateMutability": "nonpayable",
      "type": "function"
    },
    {
      "inputs": [
        {
          "internalType": "address",
          "name": "nftAddress",
          "type": "address"
        },
        {
          "internalType": "uint256",
          "name": "tokenId",
          "type": "uint256"
        },
        {
          "internalType": "uint256",
          "name": "amount",
          "type": "uint256"
        },
        {
          "internalType": "uint256",
          "name": "deadline",
          "type": "uint256"
        },
        {
          "internalType": "bytes",
          "name": "signature",
          "type": "bytes"
        }
      ],
      "name": "permitBuy",
      "outputs": [],
      "stateMutability": "payable",
      "type": "function"
    },
    {
      "inputs": [
        {
          "internalType": "address",
          "name": "nftAddress",
          "type": "address"
        },
        {
          "internalType": "uint256",
          "name": "tokenId",
          "type": "uint256"
        },
        {
          "internalType": "uint256",
          "name": "newPrice",
          "type": "uint256"
        }
      ],
      "name": "update",
      "outputs": [],
      "stateMutability": "nonpayable",
      "type": "function"
    }
  ],
  "bytecode": "0x60c06040523480156200001157600080fd5b5060405162001f8138038062001f81833981810160405281019062000037919062000118565b60016000819055508073ffffffffffffffffffffffffffffffffffffffff1660a08173ffffffffffffffffffffffffffffffffffffffff16815250503373ffffffffffffffffffffffffffffffffffffffff1660808173ffffffffffffffffffffffffffffffffffffffff1681525050506200014a565b600080fd5b600073ffffffffffffffffffffffffffffffffffffffff82169050919050565b6000620000e082620000b3565b9050919050565b620000f281620000d3565b8114620000fe57600080fd5b50565b6000815190506200011281620000e7565b92915050565b600060208284031215620001315762000130620000ae565b5b6000620001418482850162000101565b91505092915050565b60805160a051611dfc62000185600039600081816102d80152818161036f01528181610ba001526115bd0152600061096c0152611dfc6000f3fe60806040526004361061007b5760003560e01c8063cce7ec131161004e578063cce7ec131461012d578063d09b6d4314610149578063dda342bb14610172578063ecd0c0c31461019b5761007b565b806371a121ab1461008057806388700d1c1461009c57806398590ef9146100d9578063b2bdfa7b14610102575b600080fd5b61009a600480360381019061009591906118b5565b6101c6565b005b3480156100a857600080fd5b506100c360048036038101906100be919061194c565b6105ba565b6040516100d091906119d9565b60405180910390f35b3480156100e557600080fd5b5061010060048036038101906100fb919061194c565b610685565b005b34801561010e57600080fd5b5061011761096a565b6040516101249190611a03565b60405180910390f35b6101476004803603810190610142919061194c565b61098e565b005b34801561015557600080fd5b50610170600480360381019061016b9190611a1e565b610df4565b005b34801561017e57600080fd5b5061019960048036038101906101949190611a1e565b611152565b005b3480156101a757600080fd5b506101b06115bb565b6040516101bd9190611a03565b60405180910390f35b60008060006101d4846115df565b9250925092506000600160008a73ffffffffffffffffffffffffffffffffffffffff1673ffffffffffffffffffffffffffffffffffffffff1681526020019081526020016000206000898152602001908152602001600020604051806040016040529081600082015481526020016001820160009054906101000a900473ffffffffffffffffffffffffffffffffffffffff1673ffffffffffffffffffffffffffffffffffffffff1673ffffffffffffffffffffffffffffffffffffffff16815250509050868160000151146102d6576040517f7aed528900000000000000000000000000000000000000000000000000000000815260040160405180910390fd5b7f000000000000000000000000000000000000000000000000000000000000000073ffffffffffffffffffffffffffffffffffffffff1663d505accf33308a8a8989896040518863ffffffff1660e01b815260040161033b9796959493929190611ab5565b600060405180830381600087803b15801561035557600080fd5b505af1158015610369573d6000803e3d6000fd5b505050507f000000000000000000000000000000000000000000000000000000000000000073ffffffffffffffffffffffffffffffffffffffff166323b872dd3383602001518a6040518463ffffffff1660e01b81526004016103ce93929190611b24565b6020604051808303816000875af11580156103ed573d6000803e3d6000fd5b505050506040513d601f19601f820116820180604052508101906104119190611b93565b610450576040517f08c379a000000000000000000000000000000000000000000000000000000000815260040161044790611c1d565b60405180910390fd5b600160008a73ffffffffffffffffffffffffffffffffffffffff1673ffffffffffffffffffffffffffffffffffffffff16815260200190815260200160002060008981526020019081526020016000206000808201600090556001820160006101000a81549073ffffffffffffffffffffffffffffffffffffffff021916905550508873ffffffffffffffffffffffffffffffffffffffff166342842e0e8260200151338b6040518463ffffffff1660e01b815260040161051393929190611b24565b600060405180830381600087803b15801561052d57600080fd5b505af1158015610541573d6000803e3d6000fd5b50505050878973ffffffffffffffffffffffffffffffffffffffff163373ffffffffffffffffffffffffffffffffffffffff167fe35677743c6b7abf01cca38cf0f4b986386e50105ec5fd3f42daeea57acf57a984600001516040516105a79190611c3d565b60405180910390a4505050505050505050565b6105c2611697565b600160008473ffffffffffffffffffffffffffffffffffffffff1673ffffffffffffffffffffffffffffffffffffffff1681526020019081526020016000206000838152602001908152602001600020604051806040016040529081600082015481526020016001820160009054906101000a900473ffffffffffffffffffffffffffffffffffffffff1673ffffffffffffffffffffffffffffffffffffffff1673ffffffffffffffffffffffffffffffffffffffff1681525050905092915050565b81813360008390508173ffffffffffffffffffffffffffffffffffffffff168173ffffffffffffffffffffffffffffffffffffffff16636352211e856040518263ffffffff1660e01b81526004016106dd9190611c3d565b602060405180830381865afa1580156106fa573d6000803e3d6000fd5b505050506040513d601f19601f8201168201806040525081019061071e9190611c6d565b73ffffffffffffffffffffffffffffffffffffffff161461077657816040517f58a42bf000000000000000000000000000000000000000000000000000000000815260040161076d9190611a03565b60405180910390fd5b85856000600160008473ffffffffffffffffffffffffffffffffffffffff1673ffffffffffffffffffffffffffffffffffffffff1681526020019081526020016000206000838152602001908152602001600020604051806040016040529081600082015481526020016001820160009054906101000a900473ffffffffffffffffffffffffffffffffffffffff1673ffffffffffffffffffffffffffffffffffffffff1673ffffffffffffffffffffffffffffffffffffffff1681525050905060008160000151116108825782826040517ff7fe6337000000000000000000000000000000000000000000000000000000008152600401610879929190611c9a565b60405180910390fd5b600160008a73ffffffffffffffffffffffffffffffffffffffff1673ffffffffffffffffffffffffffffffffffffffff16815260200190815260200160002060008981526020019081526020016000206000808201600090556001820160006101000a81549073ffffffffffffffffffffffffffffffffffffffff02191690555050878973ffffffffffffffffffffffffffffffffffffffff163373ffffffffffffffffffffffffffffffffffffffff167f061e64e10e5e57615a6fe38b48c81926f6999a2f5304d3e5e6b0d3cfac4865a560405160405180910390a4505050505050505050565b7f000000000000000000000000000000000000000000000000000000000000000081565b81816000600160008473ffffffffffffffffffffffffffffffffffffffff1673ffffffffffffffffffffffffffffffffffffffff1681526020019081526020016000206000838152602001908152602001600020604051806040016040529081600082015481526020016001820160009054906101000a900473ffffffffffffffffffffffffffffffffffffffff1673ffffffffffffffffffffffffffffffffffffffff1673ffffffffffffffffffffffffffffffffffffffff168152505090506000816000015111610a9a5782826040517ff7fe6337000000000000000000000000000000000000000000000000000000008152600401610a91929190611c9a565b60405180910390fd5b610aa2611647565b6000600160008773ffffffffffffffffffffffffffffffffffffffff1673ffffffffffffffffffffffffffffffffffffffff1681526020019081526020016000206000868152602001908152602001600020604051806040016040529081600082015481526020016001820160009054906101000a900473ffffffffffffffffffffffffffffffffffffffff1673ffffffffffffffffffffffffffffffffffffffff1673ffffffffffffffffffffffffffffffffffffffff1681525050905034816000015114610b9e576040517f7aed528900000000000000000000000000000000000000000000000000000000815260040160405180910390fd5b7f000000000000000000000000000000000000000000000000000000000000000073ffffffffffffffffffffffffffffffffffffffff166323b872dd33836020015184600001516040518463ffffffff1660e01b8152600401610c0393929190611b24565b6020604051808303816000875af1158015610c22573d6000803e3d6000fd5b505050506040513d601f19601f82011682018060405250810190610c469190611b93565b610c85576040517f08c379a0000000000000000000000000000000000000000000000000000000008152600401610c7c90611c1d565b60405180910390fd5b600160008773ffffffffffffffffffffffffffffffffffffffff1673ffffffffffffffffffffffffffffffffffffffff16815260200190815260200160002060008681526020019081526020016000206000808201600090556001820160006101000a81549073ffffffffffffffffffffffffffffffffffffffff021916905550508573ffffffffffffffffffffffffffffffffffffffff166342842e0e826020015133886040518463ffffffff1660e01b8152600401610d4893929190611b24565b600060405180830381600087803b158015610d6257600080fd5b505af1158015610d76573d6000803e3d6000fd5b50505050848673ffffffffffffffffffffffffffffffffffffffff163373ffffffffffffffffffffffffffffffffffffffff167fe35677743c6b7abf01cca38cf0f4b986386e50105ec5fd3f42daeea57acf57a98460000151604051610ddc9190611c3d565b60405180910390a450610ded61168d565b5050505050565b82823360008390508173ffffffffffffffffffffffffffffffffffffffff168173ffffffffffffffffffffffffffffffffffffffff16636352211e856040518263ffffffff1660e01b8152600401610e4c9190611c3d565b602060405180830381865afa158015610e69573d6000803e3d6000fd5b505050506040513d601f19601f82011682018060405250810190610e8d9190611c6d565b73ffffffffffffffffffffffffffffffffffffffff1614610ee557816040517f58a42bf0000000000000000000000000000000000000000000000000000000008152600401610edc9190611a03565b60405180910390fd5b86866000600160008473ffffffffffffffffffffffffffffffffffffffff1673ffffffffffffffffffffffffffffffffffffffff1681526020019081526020016000206000838152602001908152602001600020604051806040016040529081600082015481526020016001820160009054906101000a900473ffffffffffffffffffffffffffffffffffffffff1673ffffffffffffffffffffffffffffffffffffffff1673ffffffffffffffffffffffffffffffffffffffff168152505090506000816000015111610ff15782826040517ff7fe6337000000000000000000000000000000000000000000000000000000008152600401610fe8929190611c9a565b60405180910390fd5b876000811161102c576040517f7aed528900000000000000000000000000000000000000000000000000000000815260040160405180910390fd5b6000600160008d73ffffffffffffffffffffffffffffffffffffffff1673ffffffffffffffffffffffffffffffffffffffff16815260200190815260200160002060008c815260200190815260200160002060000154905089600160008e73ffffffffffffffffffffffffffffffffffffffff1673ffffffffffffffffffffffffffffffffffffffff16815260200190815260200160002060008d8152602001908152602001600020600001819055508a8c73ffffffffffffffffffffffffffffffffffffffff163373ffffffffffffffffffffffffffffffffffffffff167f9990c878e0fcb8aad5c24109a215405fe250d314b641abe27429eb62c0b417568d8560405161113c929190611cc3565b60405180910390a4505050505050505050505050565b82816000600160008473ffffffffffffffffffffffffffffffffffffffff1673ffffffffffffffffffffffffffffffffffffffff1681526020019081526020016000206000838152602001908152602001600020604051806040016040529081600082015481526020016001820160009054906101000a900473ffffffffffffffffffffffffffffffffffffffff1673ffffffffffffffffffffffffffffffffffffffff1673ffffffffffffffffffffffffffffffffffffffff1681525050905060008160000151111561125f5782826040517fa7432da2000000000000000000000000000000000000000000000000000000008152600401611256929190611c9a565b60405180910390fd5b85843360008390508173ffffffffffffffffffffffffffffffffffffffff168173ffffffffffffffffffffffffffffffffffffffff16636352211e856040518263ffffffff1660e01b81526004016112b79190611c3d565b602060405180830381865afa1580156112d4573d6000803e3d6000fd5b505050506040513d601f19601f820116820180604052508101906112f89190611c6d565b73ffffffffffffffffffffffffffffffffffffffff161461135057816040517f58a42bf00000000000000000000000000000000000000000000000000000000081526004016113479190611a03565b60405180910390fd5b886000811161138b576040517f7aed528900000000000000000000000000000000000000000000000000000000815260040160405180910390fd5b3073ffffffffffffffffffffffffffffffffffffffff168b73ffffffffffffffffffffffffffffffffffffffff1663081812fc8b6040518263ffffffff1660e01b81526004016113db9190611c3d565b602060405180830381865afa1580156113f8573d6000803e3d6000fd5b505050506040513d601f19601f8201168201806040525081019061141c9190611c6d565b73ffffffffffffffffffffffffffffffffffffffff1614611476578a896040517fc9a4367100000000000000000000000000000000000000000000000000000000815260040161146d929190611c9a565b60405180910390fd5b60405180604001604052808b81526020013373ffffffffffffffffffffffffffffffffffffffff16815250600160008d73ffffffffffffffffffffffffffffffffffffffff1673ffffffffffffffffffffffffffffffffffffffff16815260200190815260200160002060008b81526020019081526020016000206000820151816000015560208201518160010160006101000a81548173ffffffffffffffffffffffffffffffffffffffff021916908373ffffffffffffffffffffffffffffffffffffffff160217905550905050888b73ffffffffffffffffffffffffffffffffffffffff163373ffffffffffffffffffffffffffffffffffffffff167f9990c878e0fcb8aad5c24109a215405fe250d314b641abe27429eb62c0b417568d60006040516115a6929190611d31565b60405180910390a45050505050505050505050565b7f000000000000000000000000000000000000000000000000000000000000000081565b60008060006041845114611628576040517f08c379a000000000000000000000000000000000000000000000000000000000815260040161161f90611da6565b60405180910390fd5b6020840151915060408401519050606084015160001a92509193909250565b600260005403611683576040517f3ee5aeb500000000000000000000000000000000000000000000000000000000815260040160405180910390fd5b6002600081905550565b6001600081905550565b604051806040016040528060008152602001600073ffffffffffffffffffffffffffffffffffffffff1681525090565b6000604051905090565b600080fd5b600080fd5b600073ffffffffffffffffffffffffffffffffffffffff82169050919050565b6000611706826116db565b9050919050565b611716816116fb565b811461172157600080fd5b50565b6000813590506117338161170d565b92915050565b6000819050919050565b61174c81611739565b811461175757600080fd5b50565b60008135905061176981611743565b92915050565b600080fd5b600080fd5b6000601f19601f8301169050919050565b7f4e487b7100000000000000000000000000000000000000000000000000000000600052604160045260246000fd5b6117c282611779565b810181811067ffffffffffffffff821117156117e1576117e061178a565b5b80604052505050565b60006117f46116c7565b905061180082826117b9565b919050565b600067ffffffffffffffff8211156118205761181f61178a565b5b61182982611779565b9050602081019050919050565b82818337600083830152505050565b600061185861185384611805565b6117ea565b90508281526020810184848401111561187457611873611774565b5b61187f848285611836565b509392505050565b600082601f83011261189c5761189b61176f565b5b81356118ac848260208601611845565b91505092915050565b600080600080600060a086880312156118d1576118d06116d1565b5b60006118df88828901611724565b95505060206118f08882890161175a565b94505060406119018882890161175a565b93505060606119128882890161175a565b925050608086013567ffffffffffffffff811115611933576119326116d6565b5b61193f88828901611887565b9150509295509295909350565b60008060408385031215611963576119626116d1565b5b600061197185828601611724565b92505060206119828582860161175a565b9150509250929050565b61199581611739565b82525050565b6119a4816116fb565b82525050565b6040820160008201516119c0600085018261198c565b5060208201516119d3602085018261199b565b50505050565b60006040820190506119ee60008301846119aa565b92915050565b6119fd816116fb565b82525050565b6000602082019050611a1860008301846119f4565b92915050565b600080600060608486031215611a3757611a366116d1565b5b6000611a4586828701611724565b9350506020611a568682870161175a565b9250506040611a678682870161175a565b9150509250925092565b611a7a81611739565b82525050565b600060ff82169050919050565b611a9681611a80565b82525050565b6000819050919050565b611aaf81611a9c565b82525050565b600060e082019050611aca600083018a6119f4565b611ad760208301896119f4565b611ae46040830188611a71565b611af16060830187611a71565b611afe6080830186611a8d565b611b0b60a0830185611aa6565b611b1860c0830184611aa6565b98975050505050505050565b6000606082019050611b3960008301866119f4565b611b4660208301856119f4565b611b536040830184611a71565b949350505050565b60008115159050919050565b611b7081611b5b565b8114611b7b57600080fd5b50565b600081519050611b8d81611b67565b92915050565b600060208284031215611ba957611ba86116d1565b5b6000611bb784828501611b7e565b91505092915050565b600082825260208201905092915050565b7f5472616e736665722066726f6d206572726f7200000000000000000000000000600082015250565b6000611c07601383611bc0565b9150611c1282611bd1565b602082019050919050565b60006020820190508181036000830152611c3681611bfa565b9050919050565b6000602082019050611c526000830184611a71565b92915050565b600081519050611c678161170d565b92915050565b600060208284031215611c8357611c826116d1565b5b6000611c9184828501611c58565b91505092915050565b6000604082019050611caf60008301856119f4565b611cbc6020830184611a71565b9392505050565b6000604082019050611cd86000830185611a71565b611ce56020830184611a71565b9392505050565b6000819050919050565b6000819050919050565b6000611d1b611d16611d1184611cec565b611cf6565b611739565b9050919050565b611d2b81611d00565b82525050565b6000604082019050611d466000830185611a71565b611d536020830184611d22565b9392505050565b7f696e76616c6964207369676e6174757265206c656e6774680000000000000000600082015250565b6000611d90601883611bc0565b9150611d9b82611d5a565b602082019050919050565b60006020820190508181036000830152611dbf81611d83565b905091905056fea264697066735822122092b70f62b358fa58545295f5c348782a151fda26a7013b88afa7b925431c4fb964736f6c63430008180033",
  "linkReferences": {},
  "deployedLinkReferences": {}
}