{
  "_format": "hh-sol-artifact-1",
  "contractName": "OBToken",
  "sourceName": "contracts/OBToken.sol",
  "abi": [
    {
      "inputs": [],
      "stateMutability": "nonpayable",
      "type": "constructor"
    },
    {
      "inputs": [],
      "name": "ECDSAInvalidSignature",
      "type": "error"
    },
    {
      "inputs": [
        {
          "internalType": "uint256",
          "name": "length",
          "type": "uint256"
        }
      ],
      "name": "ECDSAInvalidSignatureLength",
      "type": "error"
    },
    {
      "inputs": [
        {
          "internalType": "bytes32",
          "name": "s",
          "type": "bytes32"
        }
      ],
      "name": "ECDSAInvalidSignatureS",
      "type": "error"
    },
    {
      "inputs": [
        {
          "internalType": "address",
          "name": "spender",
          "type": "address"
        },
        {
          "internalType": "uint256",
          "name": "allowance",
          "type": "uint256"
        },
        {
          "internalType": "uint256",
          "name": "needed",
          "type": "uint256"
        }
      ],
      "name": "ERC20InsufficientAllowance",
      "type": "error"
    },
    {
      "inputs": [
        {
          "internalType": "address",
          "name": "sender",
          "type": "address"
        },
        {
          "internalType": "uint256",
          "name": "balance",
          "type": "uint256"
        },
        {
          "internalType": "uint256",
          "name": "needed",
          "type": "uint256"
        }
      ],
      "name": "ERC20InsufficientBalance",
      "type": "error"
    },
    {
      "inputs": [
        {
          "internalType": "address",
          "name": "approver",
          "type": "address"
        }
      ],
      "name": "ERC20InvalidApprover",
      "type": "error"
    },
    {
      "inputs": [
        {
          "internalType": "address",
          "name": "receiver",
          "type": "address"
        }
      ],
      "name": "ERC20InvalidReceiver",
      "type": "error"
    },
    {
      "inputs": [
        {
          "internalType": "address",
          "name": "sender",
          "type": "address"
        }
      ],
      "name": "ERC20InvalidSender",
      "type": "error"
    },
    {
      "inputs": [
        {
          "internalType": "address",
          "name": "spender",
          "type": "address"
        }
      ],
      "name": "ERC20InvalidSpender",
      "type": "error"
    },
    {
      "inputs": [
        {
          "internalType": "uint256",
          "name": "deadline",
          "type": "uint256"
        }
      ],
      "name": "ERC2612ExpiredSignature",
      "type": "error"
    },
    {
      "inputs": [
        {
          "internalType": "address",
          "name": "signer",
          "type": "address"
        },
        {
          "internalType": "address",
          "name": "owner",
          "type": "address"
        }
      ],
      "name": "ERC2612InvalidSigner",
      "type": "error"
    },
    {
      "inputs": [
        {
          "internalType": "address",
          "name": "account",
          "type": "address"
        },
        {
          "internalType": "uint256",
          "name": "currentNonce",
          "type": "uint256"
        }
      ],
      "name": "InvalidAccountNonce",
      "type": "error"
    },
    {
      "inputs": [],
      "name": "InvalidShortString",
      "type": "error"
    },
    {
      "inputs": [
        {
          "internalType": "string",
          "name": "str",
          "type": "string"
        }
      ],
      "name": "StringTooLong",
      "type": "error"
    },
    {
      "anonymous": false,
      "inputs": [
        {
          "indexed": true,
          "internalType": "address",
          "name": "owner",
          "type": "address"
        },
        {
          "indexed": true,
          "internalType": "address",
          "name": "spender",
          "type": "address"
        },
        {
          "indexed": false,
          "internalType": "uint256",
          "name": "value",
          "type": "uint256"
        }
      ],
      "name": "Approval",
      "type": "event"
    },
    {
      "anonymous": false,
      "inputs": [],
      "name": "EIP712DomainChanged",
      "type": "event"
    },
    {
      "anonymous": false,
      "inputs": [
        {
          "indexed": true,
          "internalType": "address",
          "name": "from",
          "type": "address"
        },
        {
          "indexed": true,
          "internalType": "address",
          "name": "to",
          "type": "address"
        },
        {
          "indexed": false,
          "internalType": "uint256",
          "name": "value",
          "type": "uint256"
        }
      ],
      "name": "Transfer",
      "type": "event"
    },
    {
      "inputs": [],
      "name": "DOMAIN_SEPARATOR",
      "outputs": [
        {
          "internalType": "bytes32",
          "name": "",
          "type": "bytes32"
        }
      ],
      "stateMutability": "view",
      "type": "function"
    },
    {
      "inputs": [
        {
          "internalType": "address",
          "name": "owner",
          "type": "address"
        },
        {
          "internalType": "address",
          "name": "spender",
          "type": "address"
        }
      ],
      "name": "allowance",
      "outputs": [
        {
          "internalType": "uint256",
          "name": "",
          "type": "uint256"
        }
      ],
      "stateMutability": "view",
      "type": "function"
    },
    {
      "inputs": [
        {
          "internalType": "address",
          "name": "spender",
          "type": "address"
        },
        {
          "internalType": "uint256",
          "name": "value",
          "type": "uint256"
        }
      ],
      "name": "approve",
      "outputs": [
        {
          "internalType": "bool",
          "name": "",
          "type": "bool"
        }
      ],
      "stateMutability": "nonpayable",
      "type": "function"
    },
    {
      "inputs": [
        {
          "internalType": "address",
          "name": "account",
          "type": "address"
        }
      ],
      "name": "balanceOf",
      "outputs": [
        {
          "internalType": "uint256",
          "name": "",
          "type": "uint256"
        }
      ],
      "stateMutability": "view",
      "type": "function"
    },
    {
      "inputs": [],
      "name": "decimals",
      "outputs": [
        {
          "internalType": "uint8",
          "name": "",
          "type": "uint8"
        }
      ],
      "stateMutability": "view",
      "type": "function"
    },
    {
      "inputs": [],
      "name": "eip712Domain",
      "outputs": [
        {
          "internalType": "bytes1",
          "name": "fields",
          "type": "bytes1"
        },
        {
          "internalType": "string",
          "name": "name",
          "type": "string"
        },
        {
          "internalType": "string",
          "name": "version",
          "type": "string"
        },
        {
          "internalType": "uint256",
          "name": "chainId",
          "type": "uint256"
        },
        {
          "internalType": "address",
          "name": "verifyingContract",
          "type": "address"
        },
        {
          "internalType": "bytes32",
          "name": "salt",
          "type": "bytes32"
        },
        {
          "internalType": "uint256[]",
          "name": "extensions",
          "type": "uint256[]"
        }
      ],
      "stateMutability": "view",
      "type": "function"
    },
    {
      "inputs": [],
      "name": "faucet",
      "outputs": [],
      "stateMutability": "nonpayable",
      "type": "function"
    },
    {
      "inputs": [],
      "name": "name",
      "outputs": [
        {
          "internalType": "string",
          "name": "",
          "type": "string"
        }
      ],
      "stateMutability": "view",
      "type": "function"
    },
    {
      "inputs": [
        {
          "internalType": "address",
          "name": "owner",
          "type": "address"
        }
      ],
      "name": "nonces",
      "outputs": [
        {
          "internalType": "uint256",
          "name": "",
          "type": "uint256"
        }
      ],
      "stateMutability": "view",
      "type": "function"
    },
    {
      "inputs": [
        {
          "internalType": "address",
          "name": "owner",
          "type": "address"
        },
        {
          "internalType": "address",
          "name": "spender",
          "type": "address"
        },
        {
          "internalType": "uint256",
          "name": "value",
          "type": "uint256"
        },
        {
          "internalType": "uint256",
          "name": "deadline",
          "type": "uint256"
        },
        {
          "internalType": "uint8",
          "name": "v",
          "type": "uint8"
        },
        {
          "internalType": "bytes32",
          "name": "r",
          "type": "bytes32"
        },
        {
          "internalType": "bytes32",
          "name": "s",
          "type": "bytes32"
        }
      ],
      "name": "permit",
      "outputs": [],
      "stateMutability": "nonpayable",
      "type": "function"
    },
    {
      "inputs": [],
      "name": "symbol",
      "outputs": [
        {
          "internalType": "string",
          "name": "",
          "type": "string"
        }
      ],
      "stateMutability": "view",
      "type": "function"
    },
    {
      "inputs": [],
      "name": "totalSupply",
      "outputs": [
        {
          "internalType": "uint256",
          "name": "",
          "type": "uint256"
        }
      ],
      "stateMutability": "view",
      "type": "function"
    },
    {
      "inputs": [
        {
          "internalType": "address",
          "name": "to",
          "type": "address"
        },
        {
          "internalType": "uint256",
          "name": "value",
          "type": "uint256"
        }
      ],
      "name": "transfer",
      "outputs": [
        {
          "internalType": "bool",
          "name": "",
          "type": "bool"
        }
      ],
      "stateMutability": "nonpayable",
      "type": "function"
    },
    {
      "inputs": [
        {
          "internalType": "address",
          "name": "from",
          "type": "address"
        },
        {
          "internalType": "address",
          "name": "to",
          "type": "address"
        },
        {
          "internalType": "uint256",
          "name": "value",
          "type": "uint256"
        }
      ],
      "name": "transferFrom",
      "outputs": [
        {
          "internalType": "bool",
          "name": "",
          "type": "bool"
        }
      ],
      "stateMutability": "nonpayable",
      "type": "function"
    }
  ],
  "bytecode": "0x61016060405267016345785d8a00006009553480156200001e57600080fd5b506040518060400160405280601081526020017f4f70656e204275696c6420546f6b656e00000000000000000000000000000000815250806040518060400160405280600181526020017f31000000000000000000000000000000000000000000000000000000000000008152506040518060400160405280601081526020017f4f70656e204275696c6420546f6b656e000000000000000000000000000000008152506040518060400160405280600381526020017f4f4254000000000000000000000000000000000000000000000000000000000081525081600390816200010991906200057b565b5080600490816200011b91906200057b565b50505062000134600583620001d560201b90919060201c565b610120818152505062000152600682620001d560201b90919060201c565b6101408181525050818051906020012060e08181525050808051906020012061010081815250504660a08181525050620001916200022d60201b60201c565b608081815250503073ffffffffffffffffffffffffffffffffffffffff1660c08173ffffffffffffffffffffffffffffffffffffffff168152505050505062000885565b6000602083511015620001fb57620001f3836200028a60201b60201c565b905062000227565b826200020d83620002f760201b60201c565b60000190816200021e91906200057b565b5060ff60001b90505b92915050565b60007f8b73c3c69bb8fe3d512ecc4cf759cc79239f7b179b0ffacaa9a75d522b39400f60e0516101005146306040516020016200026f959493929190620006d3565b60405160208183030381529060405280519060200120905090565b600080829050601f81511115620002da57826040517f305a27a9000000000000000000000000000000000000000000000000000000008152600401620002d19190620007bf565b60405180910390fd5b805181620002e89062000815565b60001c1760001b915050919050565b6000819050919050565b600081519050919050565b7f4e487b7100000000000000000000000000000000000000000000000000000000600052604160045260246000fd5b7f4e487b7100000000000000000000000000000000000000000000000000000000600052602260045260246000fd5b600060028204905060018216806200038357607f821691505b6020821081036200039957620003986200033b565b5b50919050565b60008190508160005260206000209050919050565b60006020601f8301049050919050565b600082821b905092915050565b600060088302620004037fffffffffffffffffffffffffffffffffffffffffffffffffffffffffffffffff82620003c4565b6200040f8683620003c4565b95508019841693508086168417925050509392505050565b6000819050919050565b6000819050919050565b60006200045c62000456620004508462000427565b62000431565b62000427565b9050919050565b6000819050919050565b62000478836200043b565b62000490620004878262000463565b848454620003d1565b825550505050565b600090565b620004a762000498565b620004b48184846200046d565b505050565b5b81811015620004dc57620004d06000826200049d565b600181019050620004ba565b5050565b601f8211156200052b57620004f5816200039f565b6200050084620003b4565b8101602085101562000510578190505b620005286200051f85620003b4565b830182620004b9565b50505b505050565b600082821c905092915050565b6000620005506000198460080262000530565b1980831691505092915050565b60006200056b83836200053d565b9150826002028217905092915050565b620005868262000301565b67ffffffffffffffff811115620005a257620005a16200030c565b5b620005ae82546200036a565b620005bb828285620004e0565b600060209050601f831160018114620005f35760008415620005de578287015190505b620005ea85826200055d565b8655506200065a565b601f19841662000603866200039f565b60005b828110156200062d5784890151825560018201915060208501945060208101905062000606565b868310156200064d578489015162000649601f8916826200053d565b8355505b6001600288020188555050505b505050505050565b6000819050919050565b620006778162000662565b82525050565b620006888162000427565b82525050565b600073ffffffffffffffffffffffffffffffffffffffff82169050919050565b6000620006bb826200068e565b9050919050565b620006cd81620006ae565b82525050565b600060a082019050620006ea60008301886200066c565b620006f960208301876200066c565b6200070860408301866200066c565b6200071760608301856200067d565b620007266080830184620006c2565b9695505050505050565b600082825260208201905092915050565b60005b838110156200076157808201518184015260208101905062000744565b60008484015250505050565b6000601f19601f8301169050919050565b60006200078b8262000301565b62000797818562000730565b9350620007a981856020860162000741565b620007b4816200076d565b840191505092915050565b60006020820190508181036000830152620007db81846200077e565b905092915050565b600081519050919050565b6000819050602082019050919050565b60006200080c825162000662565b80915050919050565b60006200082282620007e3565b826200082e84620007ee565b90506200083b81620007fe565b925060208210156200087e57620008797fffffffffffffffffffffffffffffffffffffffffffffffffffffffffffffffff83602003600802620003c4565b831692505b5050919050565b60805160a05160c05160e051610100516101205161014051611dc0620008e06000396000610b4701526000610b0c0152600061105c0152600061103b01526000610a0701526000610a5d01526000610a860152611dc06000f3fe608060405234801561001057600080fd5b50600436106100ea5760003560e01c80637ecebe001161008c578063a9059cbb11610066578063a9059cbb14610269578063d505accf14610299578063dd62ed3e146102b5578063de5f72fd146102e5576100ea565b80637ecebe00146101f757806384b0196e1461022757806395d89b411461024b576100ea565b806323b872dd116100c857806323b872dd1461015b578063313ce5671461018b5780633644e515146101a957806370a08231146101c7576100ea565b806306fdde03146100ef578063095ea7b31461010d57806318160ddd1461013d575b600080fd5b6100f76102ef565b6040516101049190611549565b60405180910390f35b61012760048036038101906101229190611604565b610381565b604051610134919061165f565b60405180910390f35b6101456103a4565b6040516101529190611689565b60405180910390f35b610175600480360381019061017091906116a4565b6103ae565b604051610182919061165f565b60405180910390f35b6101936103dd565b6040516101a09190611713565b60405180910390f35b6101b16103e6565b6040516101be9190611747565b60405180910390f35b6101e160048036038101906101dc9190611762565b6103f5565b6040516101ee9190611689565b60405180910390f35b610211600480360381019061020c9190611762565b61043d565b60405161021e9190611689565b60405180910390f35b61022f61044f565b6040516102429796959493929190611897565b60405180910390f35b6102536104f9565b6040516102609190611549565b60405180910390f35b610283600480360381019061027e9190611604565b61058b565b604051610290919061165f565b60405180910390f35b6102b360048036038101906102ae9190611973565b6105ae565b005b6102cf60048036038101906102ca9190611a15565b6106f6565b6040516102dc9190611689565b60405180910390f35b6102ed61077d565b005b6060600380546102fe90611a84565b80601f016020809104026020016040519081016040528092919081815260200182805461032a90611a84565b80156103775780601f1061034c57610100808354040283529160200191610377565b820191906000526020600020905b81548152906001019060200180831161035a57829003601f168201915b5050505050905090565b60008061038c610861565b9050610399818585610869565b600191505092915050565b6000600254905090565b6000806103b9610861565b90506103c685828561087b565b6103d185858561090f565b60019150509392505050565b60006012905090565b60006103f0610a03565b905090565b60008060008373ffffffffffffffffffffffffffffffffffffffff1673ffffffffffffffffffffffffffffffffffffffff168152602001908152602001600020549050919050565b600061044882610aba565b9050919050565b600060608060008060006060610463610b03565b61046b610b3e565b46306000801b600067ffffffffffffffff81111561048c5761048b611ab5565b5b6040519080825280602002602001820160405280156104ba5781602001602082028036833780820191505090505b507f0f00000000000000000000000000000000000000000000000000000000000000959493929190965096509650965096509650965090919293949596565b60606004805461050890611a84565b80601f016020809104026020016040519081016040528092919081815260200182805461053490611a84565b80156105815780601f1061055657610100808354040283529160200191610581565b820191906000526020600020905b81548152906001019060200180831161056457829003601f168201915b5050505050905090565b600080610596610861565b90506105a381858561090f565b600191505092915050565b834211156105f357836040517f627913020000000000000000000000000000000000000000000000000000000081526004016105ea9190611689565b60405180910390fd5b60007f6e71edae12b1b97f4d1f60370fef10105fa2faae0126114a169c64845d6126c98888886106228c610b79565b8960405160200161063896959493929190611ae4565b604051602081830303815290604052805190602001209050600061065b82610bd0565b9050600061066b82878787610bea565b90508973ffffffffffffffffffffffffffffffffffffffff168173ffffffffffffffffffffffffffffffffffffffff16146106df57808a6040517f4b800e460000000000000000000000000000000000000000000000000000000081526004016106d6929190611b45565b60405180910390fd5b6106ea8a8a8a610869565b50505050505050505050565b6000600160008473ffffffffffffffffffffffffffffffffffffffff1673ffffffffffffffffffffffffffffffffffffffff16815260200190815260200160002060008373ffffffffffffffffffffffffffffffffffffffff1673ffffffffffffffffffffffffffffffffffffffff16815260200190815260200160002054905092915050565b62015180600860003373ffffffffffffffffffffffffffffffffffffffff1673ffffffffffffffffffffffffffffffffffffffff16815260200190815260200160002054426107cc9190611b9d565b101561080d576040517f08c379a000000000000000000000000000000000000000000000000000000000815260040161080490611c1d565b60405180910390fd5b42600860003373ffffffffffffffffffffffffffffffffffffffff1673ffffffffffffffffffffffffffffffffffffffff1681526020019081526020016000208190555061085f600033600954610c1a565b565b600033905090565b6108768383836001610e3f565b505050565b600061088784846106f6565b90507fffffffffffffffffffffffffffffffffffffffffffffffffffffffffffffffff811461090957818110156108f9578281836040517ffb8f41b20000000000000000000000000000000000000000000000000000000081526004016108f093929190611c3d565b60405180910390fd5b61090884848484036000610e3f565b5b50505050565b600073ffffffffffffffffffffffffffffffffffffffff168373ffffffffffffffffffffffffffffffffffffffff16036109815760006040517f96c6fd1e0000000000000000000000000000000000000000000000000000000081526004016109789190611c74565b60405180910390fd5b600073ffffffffffffffffffffffffffffffffffffffff168273ffffffffffffffffffffffffffffffffffffffff16036109f35760006040517fec442f050000000000000000000000000000000000000000000000000000000081526004016109ea9190611c74565b60405180910390fd5b6109fe838383610c1a565b505050565b60007f000000000000000000000000000000000000000000000000000000000000000073ffffffffffffffffffffffffffffffffffffffff163073ffffffffffffffffffffffffffffffffffffffff16148015610a7f57507f000000000000000000000000000000000000000000000000000000000000000046145b15610aac577f00000000000000000000000000000000000000000000000000000000000000009050610ab7565b610ab4611016565b90505b90565b6000600760008373ffffffffffffffffffffffffffffffffffffffff1673ffffffffffffffffffffffffffffffffffffffff168152602001908152602001600020549050919050565b6060610b3960057f00000000000000000000000000000000000000000000000000000000000000006110ac90919063ffffffff16565b905090565b6060610b7460067f00000000000000000000000000000000000000000000000000000000000000006110ac90919063ffffffff16565b905090565b6000600760008373ffffffffffffffffffffffffffffffffffffffff1673ffffffffffffffffffffffffffffffffffffffff1681526020019081526020016000206000815480929190600101919050559050919050565b6000610be3610bdd610a03565b8361115c565b9050919050565b600080600080610bfc8888888861119d565b925092509250610c0c8282611291565b829350505050949350505050565b600073ffffffffffffffffffffffffffffffffffffffff168373ffffffffffffffffffffffffffffffffffffffff1603610c6c578060026000828254610c609190611c8f565b92505081905550610d3f565b60008060008573ffffffffffffffffffffffffffffffffffffffff1673ffffffffffffffffffffffffffffffffffffffff16815260200190815260200160002054905081811015610cf8578381836040517fe450d38c000000000000000000000000000000000000000000000000000000008152600401610cef93929190611c3d565b60405180910390fd5b8181036000808673ffffffffffffffffffffffffffffffffffffffff1673ffffffffffffffffffffffffffffffffffffffff16815260200190815260200160002081905550505b600073ffffffffffffffffffffffffffffffffffffffff168273ffffffffffffffffffffffffffffffffffffffff1603610d885780600260008282540392505081905550610dd5565b806000808473ffffffffffffffffffffffffffffffffffffffff1673ffffffffffffffffffffffffffffffffffffffff168152602001908152602001600020600082825401925050819055505b8173ffffffffffffffffffffffffffffffffffffffff168373ffffffffffffffffffffffffffffffffffffffff167fddf252ad1be2c89b69c2b068fc378daa952ba7f163c4a11628f55a4df523b3ef83604051610e329190611689565b60405180910390a3505050565b600073ffffffffffffffffffffffffffffffffffffffff168473ffffffffffffffffffffffffffffffffffffffff1603610eb15760006040517fe602df05000000000000000000000000000000000000000000000000000000008152600401610ea89190611c74565b60405180910390fd5b600073ffffffffffffffffffffffffffffffffffffffff168373ffffffffffffffffffffffffffffffffffffffff1603610f235760006040517f94280d62000000000000000000000000000000000000000000000000000000008152600401610f1a9190611c74565b60405180910390fd5b81600160008673ffffffffffffffffffffffffffffffffffffffff1673ffffffffffffffffffffffffffffffffffffffff16815260200190815260200160002060008573ffffffffffffffffffffffffffffffffffffffff1673ffffffffffffffffffffffffffffffffffffffff168152602001908152602001600020819055508015611010578273ffffffffffffffffffffffffffffffffffffffff168473ffffffffffffffffffffffffffffffffffffffff167f8c5be1e5ebec7d5bd14f71427d1e84f3dd0314c0f7b2291e5b200ac8c7c3b925846040516110079190611689565b60405180910390a35b50505050565b60007f8b73c3c69bb8fe3d512ecc4cf759cc79239f7b179b0ffacaa9a75d522b39400f7f00000000000000000000000000000000000000000000000000000000000000007f00000000000000000000000000000000000000000000000000000000000000004630604051602001611091959493929190611cc3565b60405160208183030381529060405280519060200120905090565b606060ff60001b83146110c9576110c2836113f5565b9050611156565b8180546110d590611a84565b80601f016020809104026020016040519081016040528092919081815260200182805461110190611a84565b801561114e5780601f106111235761010080835404028352916020019161114e565b820191906000526020600020905b81548152906001019060200180831161113157829003601f168201915b505050505090505b92915050565b60006040517f190100000000000000000000000000000000000000000000000000000000000081528360028201528260228201526042812091505092915050565b60008060007f7fffffffffffffffffffffffffffffff5d576e7357a4501ddfe92f46681b20a08460001c11156111dd576000600385925092509250611287565b6000600188888888604051600081526020016040526040516112029493929190611d16565b6020604051602081039080840390855afa158015611224573d6000803e3d6000fd5b505050602060405103519050600073ffffffffffffffffffffffffffffffffffffffff168173ffffffffffffffffffffffffffffffffffffffff160361127857600060016000801b93509350935050611287565b8060008060001b935093509350505b9450945094915050565b600060038111156112a5576112a4611d5b565b5b8260038111156112b8576112b7611d5b565b5b03156113f157600160038111156112d2576112d1611d5b565b5b8260038111156112e5576112e4611d5b565b5b0361131c576040517ff645eedf00000000000000000000000000000000000000000000000000000000815260040160405180910390fd5b600260038111156113305761132f611d5b565b5b82600381111561134357611342611d5b565b5b03611388578060001c6040517ffce698f700000000000000000000000000000000000000000000000000000000815260040161137f9190611689565b60405180910390fd5b60038081111561139b5761139a611d5b565b5b8260038111156113ae576113ad611d5b565b5b036113f057806040517fd78bce0c0000000000000000000000000000000000000000000000000000000081526004016113e79190611747565b60405180910390fd5b5b5050565b6060600061140283611469565b90506000602067ffffffffffffffff81111561142157611420611ab5565b5b6040519080825280601f01601f1916602001820160405280156114535781602001600182028036833780820191505090505b5090508181528360208201528092505050919050565b60008060ff8360001c169050601f8111156114b0576040517fb3512b0c00000000000000000000000000000000000000000000000000000000815260040160405180910390fd5b80915050919050565b600081519050919050565b600082825260208201905092915050565b60005b838110156114f35780820151818401526020810190506114d8565b60008484015250505050565b6000601f19601f8301169050919050565b600061151b826114b9565b61152581856114c4565b93506115358185602086016114d5565b61153e816114ff565b840191505092915050565b600060208201905081810360008301526115638184611510565b905092915050565b600080fd5b600073ffffffffffffffffffffffffffffffffffffffff82169050919050565b600061159b82611570565b9050919050565b6115ab81611590565b81146115b657600080fd5b50565b6000813590506115c8816115a2565b92915050565b6000819050919050565b6115e1816115ce565b81146115ec57600080fd5b50565b6000813590506115fe816115d8565b92915050565b6000806040838503121561161b5761161a61156b565b5b6000611629858286016115b9565b925050602061163a858286016115ef565b9150509250929050565b60008115159050919050565b61165981611644565b82525050565b60006020820190506116746000830184611650565b92915050565b611683816115ce565b82525050565b600060208201905061169e600083018461167a565b92915050565b6000806000606084860312156116bd576116bc61156b565b5b60006116cb868287016115b9565b93505060206116dc868287016115b9565b92505060406116ed868287016115ef565b9150509250925092565b600060ff82169050919050565b61170d816116f7565b82525050565b60006020820190506117286000830184611704565b92915050565b6000819050919050565b6117418161172e565b82525050565b600060208201905061175c6000830184611738565b92915050565b6000602082840312156117785761177761156b565b5b6000611786848285016115b9565b91505092915050565b60007fff0000000000000000000000000000000000000000000000000000000000000082169050919050565b6117c48161178f565b82525050565b6117d381611590565b82525050565b600081519050919050565b600082825260208201905092915050565b6000819050602082019050919050565b61180e816115ce565b82525050565b60006118208383611805565b60208301905092915050565b6000602082019050919050565b6000611844826117d9565b61184e81856117e4565b9350611859836117f5565b8060005b8381101561188a5781516118718882611814565b975061187c8361182c565b92505060018101905061185d565b5085935050505092915050565b600060e0820190506118ac600083018a6117bb565b81810360208301526118be8189611510565b905081810360408301526118d28188611510565b90506118e1606083018761167a565b6118ee60808301866117ca565b6118fb60a0830185611738565b81810360c083015261190d8184611839565b905098975050505050505050565b611924816116f7565b811461192f57600080fd5b50565b6000813590506119418161191b565b92915050565b6119508161172e565b811461195b57600080fd5b50565b60008135905061196d81611947565b92915050565b600080600080600080600060e0888a0312156119925761199161156b565b5b60006119a08a828b016115b9565b97505060206119b18a828b016115b9565b96505060406119c28a828b016115ef565b95505060606119d38a828b016115ef565b94505060806119e48a828b01611932565b93505060a06119f58a828b0161195e565b92505060c0611a068a828b0161195e565b91505092959891949750929550565b60008060408385031215611a2c57611a2b61156b565b5b6000611a3a858286016115b9565b9250506020611a4b858286016115b9565b9150509250929050565b7f4e487b7100000000000000000000000000000000000000000000000000000000600052602260045260246000fd5b60006002820490506001821680611a9c57607f821691505b602082108103611aaf57611aae611a55565b5b50919050565b7f4e487b7100000000000000000000000000000000000000000000000000000000600052604160045260246000fd5b600060c082019050611af96000830189611738565b611b0660208301886117ca565b611b1360408301876117ca565b611b20606083018661167a565b611b2d608083018561167a565b611b3a60a083018461167a565b979650505050505050565b6000604082019050611b5a60008301856117ca565b611b6760208301846117ca565b9392505050565b7f4e487b7100000000000000000000000000000000000000000000000000000000600052601160045260246000fd5b6000611ba8826115ce565b9150611bb3836115ce565b9250828203905081811115611bcb57611bca611b6e565b5b92915050565b7f636c61696d656400000000000000000000000000000000000000000000000000600082015250565b6000611c076007836114c4565b9150611c1282611bd1565b602082019050919050565b60006020820190508181036000830152611c3681611bfa565b9050919050565b6000606082019050611c5260008301866117ca565b611c5f602083018561167a565b611c6c604083018461167a565b949350505050565b6000602082019050611c8960008301846117ca565b92915050565b6000611c9a826115ce565b9150611ca5836115ce565b9250828201905080821115611cbd57611cbc611b6e565b5b92915050565b600060a082019050611cd86000830188611738565b611ce56020830187611738565b611cf26040830186611738565b611cff606083018561167a565b611d0c60808301846117ca565b9695505050505050565b6000608082019050611d2b6000830187611738565b611d386020830186611704565b611d456040830185611738565b611d526060830184611738565b95945050505050565b7f4e487b7100000000000000000000000000000000000000000000000000000000600052602160045260246000fdfea264697066735822122073dba32ababdd936cf1f2e53a1f14f6836f91a1a538de80b39354d9439fd2f9664736f6c63430008180033",
  "linkReferences": {},
  "deployedLinkReferences": {}
}