{
  "_format": "hh-sol-artifact-1",
  "contractName": "ZZNFTMarket",
  "sourceName": "contracts/ZZNFTMarket.sol",
  "abi": [
    {
      "inputs": [
        {
          "internalType": "address",
          "name": "_erc20Token",
          "type": "address"
        }
      ],
      "stateMutability": "nonpayable",
      "type": "constructor"
    },
    {
      "inputs": [],
      "name": "ReentrancyGuardReentrantCall",
      "type": "error"
    },
    {
      "anonymous": false,
      "inputs": [
        {
          "indexed": false,
          "internalType": "uint256",
          "name": "listingId",
          "type": "uint256"
        },
        {
          "indexed": true,
          "internalType": "address",
          "name": "seller",
          "type": "address"
        },
        {
          "indexed": true,
          "internalType": "address",
          "name": "nftContract",
          "type": "address"
        },
        {
          "indexed": true,
          "internalType": "uint256",
          "name": "tokenId",
          "type": "uint256"
        },
        {
          "indexed": false,
          "internalType": "uint256",
          "name": "price",
          "type": "uint256"
        }
      ],
      "name": "NFTListed",
      "type": "event"
    },
    {
      "anonymous": false,
      "inputs": [
        {
          "indexed": false,
          "internalType": "uint256",
          "name": "listingId",
          "type": "uint256"
        },
        {
          "indexed": true,
          "internalType": "address",
          "name": "buyer",
          "type": "address"
        },
        {
          "indexed": true,
          "internalType": "address",
          "name": "seller",
          "type": "address"
        },
        {
          "indexed": true,
          "internalType": "address",
          "name": "nftContract",
          "type": "address"
        },
        {
          "indexed": false,
          "internalType": "uint256",
          "name": "tokenId",
          "type": "uint256"
        },
        {
          "indexed": false,
          "internalType": "uint256",
          "name": "price",
          "type": "uint256"
        }
      ],
      "name": "NFTPurchased",
      "type": "event"
    },
    {
      "inputs": [
        {
          "internalType": "uint256",
          "name": "_listingId",
          "type": "uint256"
        }
      ],
      "name": "buyNFT",
      "outputs": [],
      "stateMutability": "nonpayable",
      "type": "function"
    },
    {
      "inputs": [],
      "name": "erc20Token",
      "outputs": [
        {
          "internalType": "contract IERC20",
          "name": "",
          "type": "address"
        }
      ],
      "stateMutability": "view",
      "type": "function"
    },
    {
      "inputs": [
        {
          "internalType": "address",
          "name": "_nftContract",
          "type": "address"
        },
        {
          "internalType": "uint256",
          "name": "_tokenId",
          "type": "uint256"
        },
        {
          "internalType": "uint256",
          "name": "_price",
          "type": "uint256"
        }
      ],
      "name": "listNFT",
      "outputs": [],
      "stateMutability": "nonpayable",
      "type": "function"
    },
    {
      "inputs": [
        {
          "internalType": "uint256",
          "name": "",
          "type": "uint256"
        }
      ],
      "name": "listings",
      "outputs": [
        {
          "internalType": "address",
          "name": "seller",
          "type": "address"
        },
        {
          "internalType": "address",
          "name": "nftContract",
          "type": "address"
        },
        {
          "internalType": "uint256",
          "name": "tokenId",
          "type": "uint256"
        },
        {
          "internalType": "uint256",
          "name": "price",
          "type": "uint256"
        },
        {
          "internalType": "bool",
          "name": "isActive",
          "type": "bool"
        }
      ],
      "stateMutability": "view",
      "type": "function"
    }
  ],
  "bytecode": "0x60806040523480156200001157600080fd5b5060405162001141380380620011418339818101604052810190620000379190620000f1565b600160008190555080600360006101000a81548173ffffffffffffffffffffffffffffffffffffffff021916908373ffffffffffffffffffffffffffffffffffffffff1602179055505062000123565b600080fd5b600073ffffffffffffffffffffffffffffffffffffffff82169050919050565b6000620000b9826200008c565b9050919050565b620000cb81620000ac565b8114620000d757600080fd5b50565b600081519050620000eb81620000c0565b92915050565b6000602082840312156200010a576200010962000087565b5b60006200011a84828501620000da565b91505092915050565b61100e80620001336000396000f3fe608060405234801561001057600080fd5b506004361061004c5760003560e01c806351ed8288146100515780638a13eea71461006d578063ad05f1b41461008b578063de74e57b146100a7575b600080fd5b61006b6004803603810190610066919061097d565b6100db565b005b6100756104ea565b6040516100829190610a29565b60405180910390f35b6100a560048036038101906100a09190610a82565b610510565b005b6100c160048036038101906100bc919061097d565b61086f565b6040516100d2959493929190610b0e565b60405180910390f35b6100e36108f2565b60006001600083815260200190815260200160002090508060040160009054906101000a900460ff1661014b576040517f08c379a000000000000000000000000000000000000000000000000000000000815260040161014290610bbe565b60405180910390fd5b8060030154600360009054906101000a900473ffffffffffffffffffffffffffffffffffffffff1673ffffffffffffffffffffffffffffffffffffffff166370a08231336040518263ffffffff1660e01b81526004016101ab9190610bde565b602060405180830381865afa1580156101c8573d6000803e3d6000fd5b505050506040513d601f19601f820116820180604052508101906101ec9190610c0e565b101561022d576040517f08c379a000000000000000000000000000000000000000000000000000000000815260040161022490610c87565b60405180910390fd5b60008160040160006101000a81548160ff021916908315150217905550600360009054906101000a900473ffffffffffffffffffffffffffffffffffffffff1673ffffffffffffffffffffffffffffffffffffffff166323b872dd338360000160009054906101000a900473ffffffffffffffffffffffffffffffffffffffff1684600301546040518463ffffffff1660e01b81526004016102d193929190610ca7565b6020604051808303816000875af11580156102f0573d6000803e3d6000fd5b505050506040513d601f19601f820116820180604052508101906103149190610d0a565b610353576040517f08c379a000000000000000000000000000000000000000000000000000000000815260040161034a90610d83565b60405180910390fd5b8060010160009054906101000a900473ffffffffffffffffffffffffffffffffffffffff1673ffffffffffffffffffffffffffffffffffffffff166342842e0e8260000160009054906101000a900473ffffffffffffffffffffffffffffffffffffffff163384600201546040518463ffffffff1660e01b81526004016103dc93929190610ca7565b600060405180830381600087803b1580156103f657600080fd5b505af115801561040a573d6000803e3d6000fd5b505050508060010160009054906101000a900473ffffffffffffffffffffffffffffffffffffffff1673ffffffffffffffffffffffffffffffffffffffff168160000160009054906101000a900473ffffffffffffffffffffffffffffffffffffffff1673ffffffffffffffffffffffffffffffffffffffff163373ffffffffffffffffffffffffffffffffffffffff167f9914309e25d6d82061babe2d2e05eaec297cd1450e418b0af263f9ffa90b2bd385856002015486600301546040516104d693929190610da3565b60405180910390a4506104e7610938565b50565b600360009054906101000a900473ffffffffffffffffffffffffffffffffffffffff1681565b60008390503373ffffffffffffffffffffffffffffffffffffffff168173ffffffffffffffffffffffffffffffffffffffff16636352211e856040518263ffffffff1660e01b81526004016105659190610dda565b602060405180830381865afa158015610582573d6000803e3d6000fd5b505050506040513d601f19601f820116820180604052508101906105a69190610e0a565b73ffffffffffffffffffffffffffffffffffffffff16146105fc576040517f08c379a00000000000000000000000000000000000000000000000000000000081526004016105f390610e83565b60405180910390fd5b8073ffffffffffffffffffffffffffffffffffffffff1663e985e9c533306040518363ffffffff1660e01b8152600401610637929190610ea3565b602060405180830381865afa158015610654573d6000803e3d6000fd5b505050506040513d601f19601f820116820180604052508101906106789190610d0a565b6106b7576040517f08c379a00000000000000000000000000000000000000000000000000000000081526004016106ae90610f18565b60405180910390fd5b600260008154809291906106ca90610f67565b91905055506040518060a001604052803373ffffffffffffffffffffffffffffffffffffffff1681526020018573ffffffffffffffffffffffffffffffffffffffff1681526020018481526020018381526020016001151581525060016000600254815260200190815260200160002060008201518160000160006101000a81548173ffffffffffffffffffffffffffffffffffffffff021916908373ffffffffffffffffffffffffffffffffffffffff16021790555060208201518160010160006101000a81548173ffffffffffffffffffffffffffffffffffffffff021916908373ffffffffffffffffffffffffffffffffffffffff160217905550604082015181600201556060820151816003015560808201518160040160006101000a81548160ff021916908315150217905550905050828473ffffffffffffffffffffffffffffffffffffffff163373ffffffffffffffffffffffffffffffffffffffff167fb0fe4922ac99799c17a4130d5c045ba2ecdf6e15b75b9ea84aaf0dc28724a42b60025486604051610861929190610faf565b60405180910390a450505050565b60016020528060005260406000206000915090508060000160009054906101000a900473ffffffffffffffffffffffffffffffffffffffff16908060010160009054906101000a900473ffffffffffffffffffffffffffffffffffffffff16908060020154908060030154908060040160009054906101000a900460ff16905085565b60026000540361092e576040517f3ee5aeb500000000000000000000000000000000000000000000000000000000815260040160405180910390fd5b6002600081905550565b6001600081905550565b600080fd5b6000819050919050565b61095a81610947565b811461096557600080fd5b50565b60008135905061097781610951565b92915050565b60006020828403121561099357610992610942565b5b60006109a184828501610968565b91505092915050565b600073ffffffffffffffffffffffffffffffffffffffff82169050919050565b6000819050919050565b60006109ef6109ea6109e5846109aa565b6109ca565b6109aa565b9050919050565b6000610a01826109d4565b9050919050565b6000610a13826109f6565b9050919050565b610a2381610a08565b82525050565b6000602082019050610a3e6000830184610a1a565b92915050565b6000610a4f826109aa565b9050919050565b610a5f81610a44565b8114610a6a57600080fd5b50565b600081359050610a7c81610a56565b92915050565b600080600060608486031215610a9b57610a9a610942565b5b6000610aa986828701610a6d565b9350506020610aba86828701610968565b9250506040610acb86828701610968565b9150509250925092565b610ade81610a44565b82525050565b610aed81610947565b82525050565b60008115159050919050565b610b0881610af3565b82525050565b600060a082019050610b236000830188610ad5565b610b306020830187610ad5565b610b3d6040830186610ae4565b610b4a6060830185610ae4565b610b576080830184610aff565b9695505050505050565b600082825260208201905092915050565b7f4c697374696e67206973206e6f74206163746976650000000000000000000000600082015250565b6000610ba8601583610b61565b9150610bb382610b72565b602082019050919050565b60006020820190508181036000830152610bd781610b9b565b9050919050565b6000602082019050610bf36000830184610ad5565b92915050565b600081519050610c0881610951565b92915050565b600060208284031215610c2457610c23610942565b5b6000610c3284828501610bf9565b91505092915050565b7f496e73756666696369656e742062616c616e6365000000000000000000000000600082015250565b6000610c71601483610b61565b9150610c7c82610c3b565b602082019050919050565b60006020820190508181036000830152610ca081610c64565b9050919050565b6000606082019050610cbc6000830186610ad5565b610cc96020830185610ad5565b610cd66040830184610ae4565b949350505050565b610ce781610af3565b8114610cf257600080fd5b50565b600081519050610d0481610cde565b92915050565b600060208284031215610d2057610d1f610942565b5b6000610d2e84828501610cf5565b91505092915050565b7f546f6b656e207472616e73666572206661696c65640000000000000000000000600082015250565b6000610d6d601583610b61565b9150610d7882610d37565b602082019050919050565b60006020820190508181036000830152610d9c81610d60565b9050919050565b6000606082019050610db86000830186610ae4565b610dc56020830185610ae4565b610dd26040830184610ae4565b949350505050565b6000602082019050610def6000830184610ae4565b92915050565b600081519050610e0481610a56565b92915050565b600060208284031215610e2057610e1f610942565b5b6000610e2e84828501610df5565b91505092915050565b7f596f7520646f6e2774206f776e2074686973204e465400000000000000000000600082015250565b6000610e6d601683610b61565b9150610e7882610e37565b602082019050919050565b60006020820190508181036000830152610e9c81610e60565b9050919050565b6000604082019050610eb86000830185610ad5565b610ec56020830184610ad5565b9392505050565b7f436f6e7472616374206973206e6f7420617070726f7665640000000000000000600082015250565b6000610f02601883610b61565b9150610f0d82610ecc565b602082019050919050565b60006020820190508181036000830152610f3181610ef5565b9050919050565b7f4e487b7100000000000000000000000000000000000000000000000000000000600052601160045260246000fd5b6000610f7282610947565b91507fffffffffffffffffffffffffffffffffffffffffffffffffffffffffffffffff8203610fa457610fa3610f38565b5b600182019050919050565b6000604082019050610fc46000830185610ae4565b610fd16020830184610ae4565b939250505056fea2646970667358221220f9a9e5a46485ffb32b9d6b22ba7653e6f6223a68f9d485c7ccd4d93cb758e3fe64736f6c63430008180033",
  "linkReferences": {},
  "deployedLinkReferences": {}
}