{
  "_format": "hh-sol-artifact-1",
  "contractName": "MILKNT",
  "sourceName": "contracts/ERC721Token.sol",
  "abi": [
    {
      "inputs": [],
      "stateMutability": "nonpayable",
      "type": "constructor"
    },
    {
      "inputs": [
        {
          "internalType": "address",
          "name": "sender",
          "type": "address"
        },
        {
          "internalType": "uint256",
          "name": "tokenId",
          "type": "uint256"
        },
        {
          "internalType": "address",
          "name": "owner",
          "type": "address"
        }
      ],
      "name": "ERC721IncorrectOwner",
      "type": "error"
    },
    {
      "inputs": [
        {
          "internalType": "address",
          "name": "operator",
          "type": "address"
        },
        {
          "internalType": "uint256",
          "name": "tokenId",
          "type": "uint256"
        }
      ],
      "name": "ERC721InsufficientApproval",
      "type": "error"
    },
    {
      "inputs": [
        {
          "internalType": "address",
          "name": "approver",
          "type": "address"
        }
      ],
      "name": "ERC721InvalidApprover",
      "type": "error"
    },
    {
      "inputs": [
        {
          "internalType": "address",
          "name": "operator",
          "type": "address"
        }
      ],
      "name": "ERC721InvalidOperator",
      "type": "error"
    },
    {
      "inputs": [
        {
          "internalType": "address",
          "name": "owner",
          "type": "address"
        }
      ],
      "name": "ERC721InvalidOwner",
      "type": "error"
    },
    {
      "inputs": [
        {
          "internalType": "address",
          "name": "receiver",
          "type": "address"
        }
      ],
      "name": "ERC721InvalidReceiver",
      "type": "error"
    },
    {
      "inputs": [
        {
          "internalType": "address",
          "name": "sender",
          "type": "address"
        }
      ],
      "name": "ERC721InvalidSender",
      "type": "error"
    },
    {
      "inputs": [
        {
          "internalType": "uint256",
          "name": "tokenId",
          "type": "uint256"
        }
      ],
      "name": "ERC721NonexistentToken",
      "type": "error"
    },
    {
      "anonymous": false,
      "inputs": [
        {
          "indexed": true,
          "internalType": "address",
          "name": "owner",
          "type": "address"
        },
        {
          "indexed": true,
          "internalType": "address",
          "name": "approved",
          "type": "address"
        },
        {
          "indexed": true,
          "internalType": "uint256",
          "name": "tokenId",
          "type": "uint256"
        }
      ],
      "name": "Approval",
      "type": "event"
    },
    {
      "anonymous": false,
      "inputs": [
        {
          "indexed": true,
          "internalType": "address",
          "name": "owner",
          "type": "address"
        },
        {
          "indexed": true,
          "internalType": "address",
          "name": "operator",
          "type": "address"
        },
        {
          "indexed": false,
          "internalType": "bool",
          "name": "approved",
          "type": "bool"
        }
      ],
      "name": "ApprovalForAll",
      "type": "event"
    },
    {
      "anonymous": false,
      "inputs": [
        {
          "indexed": true,
          "internalType": "address",
          "name": "from",
          "type": "address"
        },
        {
          "indexed": true,
          "internalType": "address",
          "name": "to",
          "type": "address"
        },
        {
          "indexed": true,
          "internalType": "uint256",
          "name": "tokenId",
          "type": "uint256"
        }
      ],
      "name": "Transfer",
      "type": "event"
    },
    {
      "inputs": [
        {
          "internalType": "address",
          "name": "to",
          "type": "address"
        },
        {
          "internalType": "uint256",
          "name": "tokenId",
          "type": "uint256"
        }
      ],
      "name": "approve",
      "outputs": [],
      "stateMutability": "nonpayable",
      "type": "function"
    },
    {
      "inputs": [
        {
          "internalType": "address",
          "name": "owner",
          "type": "address"
        }
      ],
      "name": "balanceOf",
      "outputs": [
        {
          "internalType": "uint256",
          "name": "",
          "type": "uint256"
        }
      ],
      "stateMutability": "view",
      "type": "function"
    },
    {
      "inputs": [
        {
          "internalType": "uint256",
          "name": "tokenId",
          "type": "uint256"
        }
      ],
      "name": "getApproved",
      "outputs": [
        {
          "internalType": "address",
          "name": "",
          "type": "address"
        }
      ],
      "stateMutability": "view",
      "type": "function"
    },
    {
      "inputs": [
        {
          "internalType": "address",
          "name": "owner",
          "type": "address"
        },
        {
          "internalType": "address",
          "name": "operator",
          "type": "address"
        }
      ],
      "name": "isApprovedForAll",
      "outputs": [
        {
          "internalType": "bool",
          "name": "",
          "type": "bool"
        }
      ],
      "stateMutability": "view",
      "type": "function"
    },
    {
      "inputs": [],
      "name": "name",
      "outputs": [
        {
          "internalType": "string",
          "name": "",
          "type": "string"
        }
      ],
      "stateMutability": "view",
      "type": "function"
    },
    {
      "inputs": [
        {
          "internalType": "uint256",
          "name": "tokenId",
          "type": "uint256"
        }
      ],
      "name": "ownerOf",
      "outputs": [
        {
          "internalType": "address",
          "name": "",
          "type": "address"
        }
      ],
      "stateMutability": "view",
      "type": "function"
    },
    {
      "inputs": [
        {
          "internalType": "address",
          "name": "from",
          "type": "address"
        },
        {
          "internalType": "address",
          "name": "to",
          "type": "address"
        },
        {
          "internalType": "uint256",
          "name": "tokenId",
          "type": "uint256"
        }
      ],
      "name": "safeTransferFrom",
      "outputs": [],
      "stateMutability": "nonpayable",
      "type": "function"
    },
    {
      "inputs": [
        {
          "internalType": "address",
          "name": "from",
          "type": "address"
        },
        {
          "internalType": "address",
          "name": "to",
          "type": "address"
        },
        {
          "internalType": "uint256",
          "name": "tokenId",
          "type": "uint256"
        },
        {
          "internalType": "bytes",
          "name": "data",
          "type": "bytes"
        }
      ],
      "name": "safeTransferFrom",
      "outputs": [],
      "stateMutability": "nonpayable",
      "type": "function"
    },
    {
      "inputs": [
        {
          "internalType": "address",
          "name": "to",
          "type": "address"
        }
      ],
      "name": "saftMint",
      "outputs": [],
      "stateMutability": "nonpayable",
      "type": "function"
    },
    {
      "inputs": [
        {
          "internalType": "address",
          "name": "operator",
          "type": "address"
        },
        {
          "internalType": "bool",
          "name": "approved",
          "type": "bool"
        }
      ],
      "name": "setApprovalForAll",
      "outputs": [],
      "stateMutability": "nonpayable",
      "type": "function"
    },
    {
      "inputs": [
        {
          "internalType": "bytes4",
          "name": "interfaceId",
          "type": "bytes4"
        }
      ],
      "name": "supportsInterface",
      "outputs": [
        {
          "internalType": "bool",
          "name": "",
          "type": "bool"
        }
      ],
      "stateMutability": "view",
      "type": "function"
    },
    {
      "inputs": [],
      "name": "symbol",
      "outputs": [
        {
          "internalType": "string",
          "name": "",
          "type": "string"
        }
      ],
      "stateMutability": "view",
      "type": "function"
    },
    {
      "inputs": [
        {
          "internalType": "uint256",
          "name": "tokenId",
          "type": "uint256"
        }
      ],
      "name": "tokenURI",
      "outputs": [
        {
          "internalType": "string",
          "name": "",
          "type": "string"
        }
      ],
      "stateMutability": "view",
      "type": "function"
    },
    {
      "inputs": [
        {
          "internalType": "address",
          "name": "from",
          "type": "address"
        },
        {
          "internalType": "address",
          "name": "to",
          "type": "address"
        },
        {
          "internalType": "uint256",
          "name": "tokenId",
          "type": "uint256"
        }
      ],
      "name": "transferFrom",
      "outputs": [],
      "stateMutability": "nonpayable",
      "type": "function"
    }
  ],
  "bytecode": "0x60806040523480156200001157600080fd5b506040518060400160405280600781526020017f4d494c4b4e4654000000000000000000000000000000000000000000000000008152506040518060400160405280600681526020017f4d494c4b4e54000000000000000000000000000000000000000000000000000081525081600090816200008f919062000324565b508060019081620000a1919062000324565b5050506200040b565b600081519050919050565b7f4e487b7100000000000000000000000000000000000000000000000000000000600052604160045260246000fd5b7f4e487b7100000000000000000000000000000000000000000000000000000000600052602260045260246000fd5b600060028204905060018216806200012c57607f821691505b602082108103620001425762000141620000e4565b5b50919050565b60008190508160005260206000209050919050565b60006020601f8301049050919050565b600082821b905092915050565b600060088302620001ac7fffffffffffffffffffffffffffffffffffffffffffffffffffffffffffffffff826200016d565b620001b886836200016d565b95508019841693508086168417925050509392505050565b6000819050919050565b6000819050919050565b600062000205620001ff620001f984620001d0565b620001da565b620001d0565b9050919050565b6000819050919050565b6200022183620001e4565b6200023962000230826200020c565b8484546200017a565b825550505050565b600090565b6200025062000241565b6200025d81848462000216565b505050565b5b8181101562000285576200027960008262000246565b60018101905062000263565b5050565b601f821115620002d4576200029e8162000148565b620002a9846200015d565b81016020851015620002b9578190505b620002d1620002c8856200015d565b83018262000262565b50505b505050565b600082821c905092915050565b6000620002f960001984600802620002d9565b1980831691505092915050565b6000620003148383620002e6565b9150826002028217905092915050565b6200032f82620000aa565b67ffffffffffffffff8111156200034b576200034a620000b5565b5b62000357825462000113565b6200036482828562000289565b600060209050601f8311600181146200039c576000841562000387578287015190505b62000393858262000306565b86555062000403565b601f198416620003ac8662000148565b60005b82811015620003d657848901518255600182019150602085019450602081019050620003af565b86831015620003f65784890151620003f2601f891682620002e6565b8355505b6001600288020188555050505b505050505050565b611e86806200041b6000396000f3fe608060405234801561001057600080fd5b50600436106100ea5760003560e01c806370a082311161008c578063b88d4fde11610066578063b88d4fde1461025b578063bbfebd1d14610277578063c87b56dd14610293578063e985e9c5146102c3576100ea565b806370a08231146101f157806395d89b4114610221578063a22cb4651461023f576100ea565b8063095ea7b3116100c8578063095ea7b31461016d57806323b872dd1461018957806342842e0e146101a55780636352211e146101c1576100ea565b806301ffc9a7146100ef57806306fdde031461011f578063081812fc1461013d575b600080fd5b61010960048036038101906101049190611659565b6102f3565b60405161011691906116a1565b60405180910390f35b6101276103d5565b604051610134919061174c565b60405180910390f35b610157600480360381019061015291906117a4565b610467565b6040516101649190611812565b60405180910390f35b61018760048036038101906101829190611859565b610483565b005b6101a3600480360381019061019e9190611899565b610499565b005b6101bf60048036038101906101ba9190611899565b61059b565b005b6101db60048036038101906101d691906117a4565b6105bb565b6040516101e89190611812565b60405180910390f35b61020b600480360381019061020691906118ec565b6105cd565b6040516102189190611928565b60405180910390f35b610229610687565b604051610236919061174c565b60405180910390f35b6102596004803603810190610254919061196f565b610719565b005b61027560048036038101906102709190611ae4565b61072f565b005b610291600480360381019061028c91906118ec565b61074c565b005b6102ad60048036038101906102a891906117a4565b610775565b6040516102ba919061174c565b60405180910390f35b6102dd60048036038101906102d89190611b67565b6107de565b6040516102ea91906116a1565b60405180910390f35b60007f80ac58cd000000000000000000000000000000000000000000000000000000007bffffffffffffffffffffffffffffffffffffffffffffffffffffffff1916827bffffffffffffffffffffffffffffffffffffffffffffffffffffffff191614806103be57507f5b5e139f000000000000000000000000000000000000000000000000000000007bffffffffffffffffffffffffffffffffffffffffffffffffffffffff1916827bffffffffffffffffffffffffffffffffffffffffffffffffffffffff1916145b806103ce57506103cd82610872565b5b9050919050565b6060600080546103e490611bd6565b80601f016020809104026020016040519081016040528092919081815260200182805461041090611bd6565b801561045d5780601f106104325761010080835404028352916020019161045d565b820191906000526020600020905b81548152906001019060200180831161044057829003601f168201915b5050505050905090565b6000610472826108dc565b5061047c82610964565b9050919050565b61049582826104906109a1565b6109a9565b5050565b600073ffffffffffffffffffffffffffffffffffffffff168273ffffffffffffffffffffffffffffffffffffffff160361050b5760006040517f64a0ae920000000000000000000000000000000000000000000000000000000081526004016105029190611812565b60405180910390fd5b600061051f838361051a6109a1565b6109bb565b90508373ffffffffffffffffffffffffffffffffffffffff168173ffffffffffffffffffffffffffffffffffffffff1614610595578382826040517f64283d7b00000000000000000000000000000000000000000000000000000000815260040161058c93929190611c07565b60405180910390fd5b50505050565b6105b68383836040518060200160405280600081525061072f565b505050565b60006105c6826108dc565b9050919050565b60008073ffffffffffffffffffffffffffffffffffffffff168273ffffffffffffffffffffffffffffffffffffffff16036106405760006040517f89c62b640000000000000000000000000000000000000000000000000000000081526004016106379190611812565b60405180910390fd5b600360008373ffffffffffffffffffffffffffffffffffffffff1673ffffffffffffffffffffffffffffffffffffffff168152602001908152602001600020549050919050565b60606001805461069690611bd6565b80601f01602080910402602001604051908101604052809291908181526020018280546106c290611bd6565b801561070f5780601f106106e45761010080835404028352916020019161070f565b820191906000526020600020905b8154815290600101906020018083116106f257829003601f168201915b5050505050905090565b61072b6107246109a1565b8383610bd5565b5050565b61073a848484610499565b61074684848484610d44565b50505050565b60006006600081548092919061076190611c6d565b9190505590506107718282610efb565b5050565b6060610780826108dc565b50600061078b610f19565b905060008151116107ab57604051806020016040528060008152506107d6565b806107b584610f30565b6040516020016107c6929190611cf1565b6040516020818303038152906040525b915050919050565b6000600560008473ffffffffffffffffffffffffffffffffffffffff1673ffffffffffffffffffffffffffffffffffffffff16815260200190815260200160002060008373ffffffffffffffffffffffffffffffffffffffff1673ffffffffffffffffffffffffffffffffffffffff16815260200190815260200160002060009054906101000a900460ff16905092915050565b60007f01ffc9a7000000000000000000000000000000000000000000000000000000007bffffffffffffffffffffffffffffffffffffffffffffffffffffffff1916827bffffffffffffffffffffffffffffffffffffffffffffffffffffffff1916149050919050565b6000806108e883610ffe565b9050600073ffffffffffffffffffffffffffffffffffffffff168173ffffffffffffffffffffffffffffffffffffffff160361095b57826040517f7e2732890000000000000000000000000000000000000000000000000000000081526004016109529190611928565b60405180910390fd5b80915050919050565b60006004600083815260200190815260200160002060009054906101000a900473ffffffffffffffffffffffffffffffffffffffff169050919050565b600033905090565b6109b6838383600161103b565b505050565b6000806109c784610ffe565b9050600073ffffffffffffffffffffffffffffffffffffffff168373ffffffffffffffffffffffffffffffffffffffff1614610a0957610a08818486611200565b5b600073ffffffffffffffffffffffffffffffffffffffff168173ffffffffffffffffffffffffffffffffffffffff1614610a9a57610a4b60008560008061103b565b6001600360008373ffffffffffffffffffffffffffffffffffffffff1673ffffffffffffffffffffffffffffffffffffffff168152602001908152602001600020600082825403925050819055505b600073ffffffffffffffffffffffffffffffffffffffff168573ffffffffffffffffffffffffffffffffffffffff1614610b1d576001600360008773ffffffffffffffffffffffffffffffffffffffff1673ffffffffffffffffffffffffffffffffffffffff168152602001908152602001600020600082825401925050819055505b846002600086815260200190815260200160002060006101000a81548173ffffffffffffffffffffffffffffffffffffffff021916908373ffffffffffffffffffffffffffffffffffffffff160217905550838573ffffffffffffffffffffffffffffffffffffffff168273ffffffffffffffffffffffffffffffffffffffff167fddf252ad1be2c89b69c2b068fc378daa952ba7f163c4a11628f55a4df523b3ef60405160405180910390a4809150509392505050565b600073ffffffffffffffffffffffffffffffffffffffff168273ffffffffffffffffffffffffffffffffffffffff1603610c4657816040517f5b08ba18000000000000000000000000000000000000000000000000000000008152600401610c3d9190611812565b60405180910390fd5b80600560008573ffffffffffffffffffffffffffffffffffffffff1673ffffffffffffffffffffffffffffffffffffffff16815260200190815260200160002060008473ffffffffffffffffffffffffffffffffffffffff1673ffffffffffffffffffffffffffffffffffffffff16815260200190815260200160002060006101000a81548160ff0219169083151502179055508173ffffffffffffffffffffffffffffffffffffffff168373ffffffffffffffffffffffffffffffffffffffff167f17307eab39ab6107e8899845ad3d59bd9653f200f220920489ca2b5937696c3183604051610d3791906116a1565b60405180910390a3505050565b60008373ffffffffffffffffffffffffffffffffffffffff163b1115610ef5578273ffffffffffffffffffffffffffffffffffffffff1663150b7a02610d886109a1565b8685856040518563ffffffff1660e01b8152600401610daa9493929190611d6a565b6020604051808303816000875af1925050508015610de657506040513d601f19601f82011682018060405250810190610de39190611dcb565b60015b610e6a573d8060008114610e16576040519150601f19603f3d011682016040523d82523d6000602084013e610e1b565b606091505b506000815103610e6257836040517f64a0ae92000000000000000000000000000000000000000000000000000000008152600401610e599190611812565b60405180910390fd5b805181602001fd5b63150b7a0260e01b7bffffffffffffffffffffffffffffffffffffffffffffffffffffffff1916817bffffffffffffffffffffffffffffffffffffffffffffffffffffffff191614610ef357836040517f64a0ae92000000000000000000000000000000000000000000000000000000008152600401610eea9190611812565b60405180910390fd5b505b50505050565b610f158282604051806020016040528060008152506112c4565b5050565b606060405180602001604052806000815250905090565b606060006001610f3f846112e0565b01905060008167ffffffffffffffff811115610f5e57610f5d6119b9565b5b6040519080825280601f01601f191660200182016040528015610f905781602001600182028036833780820191505090505b509050600082602001820190505b600115610ff3578080600190039150507f3031323334353637383961626364656600000000000000000000000000000000600a86061a8153600a8581610fe757610fe6611df8565b5b04945060008503610f9e575b819350505050919050565b60006002600083815260200190815260200160002060009054906101000a900473ffffffffffffffffffffffffffffffffffffffff169050919050565b80806110745750600073ffffffffffffffffffffffffffffffffffffffff168273ffffffffffffffffffffffffffffffffffffffff1614155b156111a8576000611084846108dc565b9050600073ffffffffffffffffffffffffffffffffffffffff168373ffffffffffffffffffffffffffffffffffffffff16141580156110ef57508273ffffffffffffffffffffffffffffffffffffffff168173ffffffffffffffffffffffffffffffffffffffff1614155b8015611102575061110081846107de565b155b1561114457826040517fa9fbf51f00000000000000000000000000000000000000000000000000000000815260040161113b9190611812565b60405180910390fd5b81156111a657838573ffffffffffffffffffffffffffffffffffffffff168273ffffffffffffffffffffffffffffffffffffffff167f8c5be1e5ebec7d5bd14f71427d1e84f3dd0314c0f7b2291e5b200ac8c7c3b92560405160405180910390a45b505b836004600085815260200190815260200160002060006101000a81548173ffffffffffffffffffffffffffffffffffffffff021916908373ffffffffffffffffffffffffffffffffffffffff16021790555050505050565b61120b838383611433565b6112bf57600073ffffffffffffffffffffffffffffffffffffffff168373ffffffffffffffffffffffffffffffffffffffff160361128057806040517f7e2732890000000000000000000000000000000000000000000000000000000081526004016112779190611928565b60405180910390fd5b81816040517f177e802f0000000000000000000000000000000000000000000000000000000081526004016112b6929190611e27565b60405180910390fd5b505050565b6112ce83836114f4565b6112db6000848484610d44565b505050565b600080600090507a184f03e93ff9f4daa797ed6e38ed64bf6a1f010000000000000000831061133e577a184f03e93ff9f4daa797ed6e38ed64bf6a1f010000000000000000838161133457611333611df8565b5b0492506040810190505b6d04ee2d6d415b85acef8100000000831061137b576d04ee2d6d415b85acef8100000000838161137157611370611df8565b5b0492506020810190505b662386f26fc1000083106113aa57662386f26fc1000083816113a05761139f611df8565b5b0492506010810190505b6305f5e10083106113d3576305f5e10083816113c9576113c8611df8565b5b0492506008810190505b61271083106113f85761271083816113ee576113ed611df8565b5b0492506004810190505b6064831061141b576064838161141157611410611df8565b5b0492506002810190505b600a831061142a576001810190505b80915050919050565b60008073ffffffffffffffffffffffffffffffffffffffff168373ffffffffffffffffffffffffffffffffffffffff16141580156114eb57508273ffffffffffffffffffffffffffffffffffffffff168473ffffffffffffffffffffffffffffffffffffffff1614806114ac57506114ab84846107de565b5b806114ea57508273ffffffffffffffffffffffffffffffffffffffff166114d283610964565b73ffffffffffffffffffffffffffffffffffffffff16145b5b90509392505050565b600073ffffffffffffffffffffffffffffffffffffffff168273ffffffffffffffffffffffffffffffffffffffff16036115665760006040517f64a0ae9200000000000000000000000000000000000000000000000000000000815260040161155d9190611812565b60405180910390fd5b6000611574838360006109bb565b9050600073ffffffffffffffffffffffffffffffffffffffff168173ffffffffffffffffffffffffffffffffffffffff16146115e85760006040517f73c6ac6e0000000000000000000000000000000000000000000000000000000081526004016115df9190611812565b60405180910390fd5b505050565b6000604051905090565b600080fd5b600080fd5b60007fffffffff0000000000000000000000000000000000000000000000000000000082169050919050565b61163681611601565b811461164157600080fd5b50565b6000813590506116538161162d565b92915050565b60006020828403121561166f5761166e6115f7565b5b600061167d84828501611644565b91505092915050565b60008115159050919050565b61169b81611686565b82525050565b60006020820190506116b66000830184611692565b92915050565b600081519050919050565b600082825260208201905092915050565b60005b838110156116f65780820151818401526020810190506116db565b60008484015250505050565b6000601f19601f8301169050919050565b600061171e826116bc565b61172881856116c7565b93506117388185602086016116d8565b61174181611702565b840191505092915050565b600060208201905081810360008301526117668184611713565b905092915050565b6000819050919050565b6117818161176e565b811461178c57600080fd5b50565b60008135905061179e81611778565b92915050565b6000602082840312156117ba576117b96115f7565b5b60006117c88482850161178f565b91505092915050565b600073ffffffffffffffffffffffffffffffffffffffff82169050919050565b60006117fc826117d1565b9050919050565b61180c816117f1565b82525050565b60006020820190506118276000830184611803565b92915050565b611836816117f1565b811461184157600080fd5b50565b6000813590506118538161182d565b92915050565b600080604083850312156118705761186f6115f7565b5b600061187e85828601611844565b925050602061188f8582860161178f565b9150509250929050565b6000806000606084860312156118b2576118b16115f7565b5b60006118c086828701611844565b93505060206118d186828701611844565b92505060406118e28682870161178f565b9150509250925092565b600060208284031215611902576119016115f7565b5b600061191084828501611844565b91505092915050565b6119228161176e565b82525050565b600060208201905061193d6000830184611919565b92915050565b61194c81611686565b811461195757600080fd5b50565b60008135905061196981611943565b92915050565b60008060408385031215611986576119856115f7565b5b600061199485828601611844565b92505060206119a58582860161195a565b9150509250929050565b600080fd5b600080fd5b7f4e487b7100000000000000000000000000000000000000000000000000000000600052604160045260246000fd5b6119f182611702565b810181811067ffffffffffffffff82111715611a1057611a0f6119b9565b5b80604052505050565b6000611a236115ed565b9050611a2f82826119e8565b919050565b600067ffffffffffffffff821115611a4f57611a4e6119b9565b5b611a5882611702565b9050602081019050919050565b82818337600083830152505050565b6000611a87611a8284611a34565b611a19565b905082815260208101848484011115611aa357611aa26119b4565b5b611aae848285611a65565b509392505050565b600082601f830112611acb57611aca6119af565b5b8135611adb848260208601611a74565b91505092915050565b60008060008060808587031215611afe57611afd6115f7565b5b6000611b0c87828801611844565b9450506020611b1d87828801611844565b9350506040611b2e8782880161178f565b925050606085013567ffffffffffffffff811115611b4f57611b4e6115fc565b5b611b5b87828801611ab6565b91505092959194509250565b60008060408385031215611b7e57611b7d6115f7565b5b6000611b8c85828601611844565b9250506020611b9d85828601611844565b9150509250929050565b7f4e487b7100000000000000000000000000000000000000000000000000000000600052602260045260246000fd5b60006002820490506001821680611bee57607f821691505b602082108103611c0157611c00611ba7565b5b50919050565b6000606082019050611c1c6000830186611803565b611c296020830185611919565b611c366040830184611803565b949350505050565b7f4e487b7100000000000000000000000000000000000000000000000000000000600052601160045260246000fd5b6000611c788261176e565b91507fffffffffffffffffffffffffffffffffffffffffffffffffffffffffffffffff8203611caa57611ca9611c3e565b5b600182019050919050565b600081905092915050565b6000611ccb826116bc565b611cd58185611cb5565b9350611ce58185602086016116d8565b80840191505092915050565b6000611cfd8285611cc0565b9150611d098284611cc0565b91508190509392505050565b600081519050919050565b600082825260208201905092915050565b6000611d3c82611d15565b611d468185611d20565b9350611d568185602086016116d8565b611d5f81611702565b840191505092915050565b6000608082019050611d7f6000830187611803565b611d8c6020830186611803565b611d996040830185611919565b8181036060830152611dab8184611d31565b905095945050505050565b600081519050611dc58161162d565b92915050565b600060208284031215611de157611de06115f7565b5b6000611def84828501611db6565b91505092915050565b7f4e487b7100000000000000000000000000000000000000000000000000000000600052601260045260246000fd5b6000604082019050611e3c6000830185611803565b611e496020830184611919565b939250505056fea2646970667358221220285bccb98523c46a572ce9577debd71779b6ec3d2b16efa558a67b0560c1f85164736f6c63430008180033",
  "linkReferences": {},
  "deployedLinkReferences": {}
}