{
  "_format": "hh-sol-artifact-1",
  "contractName": "NFTM",
  "sourceName": "src/backend/contracts/NFTM.sol",
  "abi": [
    {
      "inputs": [],
      "stateMutability": "nonpayable",
      "type": "constructor"
    },
    {
      "anonymous": false,
      "inputs": [
        {
          "indexed": true,
          "internalType": "address",
          "name": "owner",
          "type": "address"
        },
        {
          "indexed": true,
          "internalType": "address",
          "name": "approved",
          "type": "address"
        },
        {
          "indexed": true,
          "internalType": "uint256",
          "name": "tokenId",
          "type": "uint256"
        }
      ],
      "name": "Approval",
      "type": "event"
    },
    {
      "anonymous": false,
      "inputs": [
        {
          "indexed": true,
          "internalType": "address",
          "name": "owner",
          "type": "address"
        },
        {
          "indexed": true,
          "internalType": "address",
          "name": "operator",
          "type": "address"
        },
        {
          "indexed": false,
          "internalType": "bool",
          "name": "approved",
          "type": "bool"
        }
      ],
      "name": "ApprovalForAll",
      "type": "event"
    },
    {
      "anonymous": false,
      "inputs": [
        {
          "indexed": false,
          "internalType": "uint256",
          "name": "_fromTokenId",
          "type": "uint256"
        },
        {
          "indexed": false,
          "internalType": "uint256",
          "name": "_toTokenId",
          "type": "uint256"
        }
      ],
      "name": "BatchMetadataUpdate",
      "type": "event"
    },
    {
      "anonymous": false,
      "inputs": [
        {
          "indexed": false,
          "internalType": "uint256",
          "name": "_tokenId",
          "type": "uint256"
        }
      ],
      "name": "MetadataUpdate",
      "type": "event"
    },
    {
      "anonymous": false,
      "inputs": [
        {
          "indexed": true,
          "internalType": "address",
          "name": "previousOwner",
          "type": "address"
        },
        {
          "indexed": true,
          "internalType": "address",
          "name": "newOwner",
          "type": "address"
        }
      ],
      "name": "OwnershipTransferred",
      "type": "event"
    },
    {
      "anonymous": false,
      "inputs": [
        {
          "indexed": true,
          "internalType": "address",
          "name": "from",
          "type": "address"
        },
        {
          "indexed": true,
          "internalType": "address",
          "name": "to",
          "type": "address"
        },
        {
          "indexed": true,
          "internalType": "uint256",
          "name": "tokenId",
          "type": "uint256"
        }
      ],
      "name": "Transfer",
      "type": "event"
    },
    {
      "inputs": [
        {
          "internalType": "address",
          "name": "to",
          "type": "address"
        },
        {
          "internalType": "uint256",
          "name": "tokenId",
          "type": "uint256"
        }
      ],
      "name": "approve",
      "outputs": [],
      "stateMutability": "nonpayable",
      "type": "function"
    },
    {
      "inputs": [
        {
          "internalType": "address",
          "name": "owner",
          "type": "address"
        }
      ],
      "name": "balanceOf",
      "outputs": [
        {
          "internalType": "uint256",
          "name": "",
          "type": "uint256"
        }
      ],
      "stateMutability": "view",
      "type": "function"
    },
    {
      "inputs": [
        {
          "internalType": "uint256",
          "name": "tokenId",
          "type": "uint256"
        }
      ],
      "name": "burn",
      "outputs": [],
      "stateMutability": "nonpayable",
      "type": "function"
    },
    {
      "inputs": [
        {
          "internalType": "uint256",
          "name": "tokenId",
          "type": "uint256"
        }
      ],
      "name": "getApproved",
      "outputs": [
        {
          "internalType": "address",
          "name": "",
          "type": "address"
        }
      ],
      "stateMutability": "view",
      "type": "function"
    },
    {
      "inputs": [
        {
          "internalType": "address",
          "name": "owner",
          "type": "address"
        },
        {
          "internalType": "address",
          "name": "operator",
          "type": "address"
        }
      ],
      "name": "isApprovedForAll",
      "outputs": [
        {
          "internalType": "bool",
          "name": "",
          "type": "bool"
        }
      ],
      "stateMutability": "view",
      "type": "function"
    },
    {
      "inputs": [],
      "name": "name",
      "outputs": [
        {
          "internalType": "string",
          "name": "",
          "type": "string"
        }
      ],
      "stateMutability": "view",
      "type": "function"
    },
    {
      "inputs": [],
      "name": "owner",
      "outputs": [
        {
          "internalType": "address",
          "name": "",
          "type": "address"
        }
      ],
      "stateMutability": "view",
      "type": "function"
    },
    {
      "inputs": [
        {
          "internalType": "uint256",
          "name": "tokenId",
          "type": "uint256"
        }
      ],
      "name": "ownerOf",
      "outputs": [
        {
          "internalType": "address",
          "name": "",
          "type": "address"
        }
      ],
      "stateMutability": "view",
      "type": "function"
    },
    {
      "inputs": [],
      "name": "renounceOwnership",
      "outputs": [],
      "stateMutability": "nonpayable",
      "type": "function"
    },
    {
      "inputs": [
        {
          "internalType": "string",
          "name": "uri",
          "type": "string"
        }
      ],
      "name": "safeMint",
      "outputs": [],
      "stateMutability": "nonpayable",
      "type": "function"
    },
    {
      "inputs": [
        {
          "internalType": "address",
          "name": "from",
          "type": "address"
        },
        {
          "internalType": "address",
          "name": "to",
          "type": "address"
        },
        {
          "internalType": "uint256",
          "name": "tokenId",
          "type": "uint256"
        }
      ],
      "name": "safeTransferFrom",
      "outputs": [],
      "stateMutability": "nonpayable",
      "type": "function"
    },
    {
      "inputs": [
        {
          "internalType": "address",
          "name": "from",
          "type": "address"
        },
        {
          "internalType": "address",
          "name": "to",
          "type": "address"
        },
        {
          "internalType": "uint256",
          "name": "tokenId",
          "type": "uint256"
        },
        {
          "internalType": "bytes",
          "name": "data",
          "type": "bytes"
        }
      ],
      "name": "safeTransferFrom",
      "outputs": [],
      "stateMutability": "nonpayable",
      "type": "function"
    },
    {
      "inputs": [
        {
          "internalType": "address",
          "name": "operator",
          "type": "address"
        },
        {
          "internalType": "bool",
          "name": "approved",
          "type": "bool"
        }
      ],
      "name": "setApprovalForAll",
      "outputs": [],
      "stateMutability": "nonpayable",
      "type": "function"
    },
    {
      "inputs": [
        {
          "internalType": "bytes4",
          "name": "interfaceId",
          "type": "bytes4"
        }
      ],
      "name": "supportsInterface",
      "outputs": [
        {
          "internalType": "bool",
          "name": "",
          "type": "bool"
        }
      ],
      "stateMutability": "view",
      "type": "function"
    },
    {
      "inputs": [],
      "name": "symbol",
      "outputs": [
        {
          "internalType": "string",
          "name": "",
          "type": "string"
        }
      ],
      "stateMutability": "view",
      "type": "function"
    },
    {
      "inputs": [
        {
          "internalType": "uint256",
          "name": "tokenId",
          "type": "uint256"
        }
      ],
      "name": "tokenURI",
      "outputs": [
        {
          "internalType": "string",
          "name": "",
          "type": "string"
        }
      ],
      "stateMutability": "view",
      "type": "function"
    },
    {
      "inputs": [
        {
          "internalType": "address",
          "name": "from",
          "type": "address"
        },
        {
          "internalType": "address",
          "name": "to",
          "type": "address"
        },
        {
          "internalType": "uint256",
          "name": "tokenId",
          "type": "uint256"
        }
      ],
      "name": "transferFrom",
      "outputs": [],
      "stateMutability": "nonpayable",
      "type": "function"
    },
    {
      "inputs": [
        {
          "internalType": "address",
          "name": "newOwner",
          "type": "address"
        }
      ],
      "name": "transferOwnership",
      "outputs": [],
      "stateMutability": "nonpayable",
      "type": "function"
    }
  ],
  "bytecode": "0x60806040523480156200001157600080fd5b506040518060400160405280600a81526020017f6c696e2773204e46544d000000000000000000000000000000000000000000008152506040518060400160405280600381526020017f4e4654000000000000000000000000000000000000000000000000000000000081525081600090816200008f919062000412565b508060019081620000a1919062000412565b505050620000c4620000b8620000ca60201b60201c565b620000d260201b60201c565b620004f9565b600033905090565b6000600760009054906101000a900473ffffffffffffffffffffffffffffffffffffffff16905081600760006101000a81548173ffffffffffffffffffffffffffffffffffffffff021916908373ffffffffffffffffffffffffffffffffffffffff1602179055508173ffffffffffffffffffffffffffffffffffffffff168173ffffffffffffffffffffffffffffffffffffffff167f8be0079c531659141344cd1fd0a4f28419497f9722a3daafe3b4186f6b6457e060405160405180910390a35050565b600081519050919050565b7f4e487b7100000000000000000000000000000000000000000000000000000000600052604160045260246000fd5b7f4e487b7100000000000000000000000000000000000000000000000000000000600052602260045260246000fd5b600060028204905060018216806200021a57607f821691505b60208210810362000230576200022f620001d2565b5b50919050565b60008190508160005260206000209050919050565b60006020601f8301049050919050565b600082821b905092915050565b6000600883026200029a7fffffffffffffffffffffffffffffffffffffffffffffffffffffffffffffffff826200025b565b620002a686836200025b565b95508019841693508086168417925050509392505050565b6000819050919050565b6000819050919050565b6000620002f3620002ed620002e784620002be565b620002c8565b620002be565b9050919050565b6000819050919050565b6200030f83620002d2565b620003276200031e82620002fa565b84845462000268565b825550505050565b600090565b6200033e6200032f565b6200034b81848462000304565b505050565b5b8181101562000373576200036760008262000334565b60018101905062000351565b5050565b601f821115620003c2576200038c8162000236565b62000397846200024b565b81016020851015620003a7578190505b620003bf620003b6856200024b565b83018262000350565b50505b505050565b600082821c905092915050565b6000620003e760001984600802620003c7565b1980831691505092915050565b6000620004028383620003d4565b9150826002028217905092915050565b6200041d8262000198565b67ffffffffffffffff811115620004395762000438620001a3565b5b62000445825462000201565b6200045282828562000377565b600060209050601f8311600181146200048a576000841562000475578287015190505b620004818582620003f4565b865550620004f1565b601f1984166200049a8662000236565b60005b82811015620004c4578489015182556001820191506020850194506020810190506200049d565b86831015620004e45784890151620004e0601f891682620003d4565b8355505b6001600288020188555050505b505050505050565b61314b80620005096000396000f3fe608060405234801561001057600080fd5b50600436106101165760003560e01c806370a08231116100a2578063a22cb46511610071578063a22cb465146102cb578063b88d4fde146102e7578063c87b56dd14610303578063e985e9c514610333578063f2fde38b1461036357610116565b806370a0823114610255578063715018a6146102855780638da5cb5b1461028f57806395d89b41146102ad57610116565b806323b872dd116100e957806323b872dd146101b557806342842e0e146101d157806342966c68146101ed5780636352211e14610209578063695850fb1461023957610116565b806301ffc9a71461011b57806306fdde031461014b578063081812fc14610169578063095ea7b314610199575b600080fd5b61013560048036038101906101309190611f4f565b61037f565b6040516101429190611f97565b60405180910390f35b610153610391565b6040516101609190612042565b60405180910390f35b610183600480360381019061017e919061209a565b610423565b6040516101909190612108565b60405180910390f35b6101b360048036038101906101ae919061214f565b610469565b005b6101cf60048036038101906101ca919061218f565b610580565b005b6101eb60048036038101906101e6919061218f565b6105e0565b005b6102076004803603810190610202919061209a565b610600565b005b610223600480360381019061021e919061209a565b61065c565b6040516102309190612108565b60405180910390f35b610253600480360381019061024e9190612317565b6106e2565b005b61026f600480360381019061026a9190612360565b61071a565b60405161027c919061239c565b60405180910390f35b61028d6107d1565b005b6102976107e5565b6040516102a49190612108565b60405180910390f35b6102b561080f565b6040516102c29190612042565b60405180910390f35b6102e560048036038101906102e091906123e3565b6108a1565b005b61030160048036038101906102fc91906124c4565b6108b7565b005b61031d6004803603810190610318919061209a565b610919565b60405161032a9190612042565b60405180910390f35b61034d60048036038101906103489190612547565b61092b565b60405161035a9190611f97565b60405180910390f35b61037d60048036038101906103789190612360565b6109bf565b005b600061038a82610a42565b9050919050565b6060600080546103a0906125b6565b80601f01602080910402602001604051908101604052809291908181526020018280546103cc906125b6565b80156104195780601f106103ee57610100808354040283529160200191610419565b820191906000526020600020905b8154815290600101906020018083116103fc57829003601f168201915b5050505050905090565b600061042e82610aa3565b6004600083815260200190815260200160002060009054906101000a900473ffffffffffffffffffffffffffffffffffffffff169050919050565b60006104748261065c565b90508073ffffffffffffffffffffffffffffffffffffffff168373ffffffffffffffffffffffffffffffffffffffff16036104e4576040517f08c379a00000000000000000000000000000000000000000000000000000000081526004016104db90612659565b60405180910390fd5b8073ffffffffffffffffffffffffffffffffffffffff16610503610aee565b73ffffffffffffffffffffffffffffffffffffffff16148061053257506105318161052c610aee565b61092b565b5b610571576040517f08c379a0000000000000000000000000000000000000000000000000000000008152600401610568906126eb565b60405180910390fd5b61057b8383610af6565b505050565b61059161058b610aee565b82610baf565b6105d0576040517f08c379a00000000000000000000000000000000000000000000000000000000081526004016105c79061277d565b60405180910390fd5b6105db838383610c44565b505050565b6105fb838383604051806020016040528060008152506108b7565b505050565b61061161060b610aee565b82610baf565b610650576040517f08c379a00000000000000000000000000000000000000000000000000000000081526004016106479061277d565b60405180910390fd5b61065981610f3d565b50565b60008061066883610f49565b9050600073ffffffffffffffffffffffffffffffffffffffff168173ffffffffffffffffffffffffffffffffffffffff16036106d9576040517f08c379a00000000000000000000000000000000000000000000000000000000081526004016106d0906127e9565b60405180910390fd5b80915050919050565b6106ea610f86565b60006106f66008611004565b90506107026008611012565b61070c3382611028565b6107168183611046565b5050565b60008073ffffffffffffffffffffffffffffffffffffffff168273ffffffffffffffffffffffffffffffffffffffff160361078a576040517f08c379a00000000000000000000000000000000000000000000000000000000081526004016107819061287b565b60405180910390fd5b600360008373ffffffffffffffffffffffffffffffffffffffff1673ffffffffffffffffffffffffffffffffffffffff168152602001908152602001600020549050919050565b6107d9610f86565b6107e360006110ea565b565b6000600760009054906101000a900473ffffffffffffffffffffffffffffffffffffffff16905090565b60606001805461081e906125b6565b80601f016020809104026020016040519081016040528092919081815260200182805461084a906125b6565b80156108975780601f1061086c57610100808354040283529160200191610897565b820191906000526020600020905b81548152906001019060200180831161087a57829003601f168201915b5050505050905090565b6108b36108ac610aee565b83836111b0565b5050565b6108c86108c2610aee565b83610baf565b610907576040517f08c379a00000000000000000000000000000000000000000000000000000000081526004016108fe9061277d565b60405180910390fd5b6109138484848461131c565b50505050565b606061092482611378565b9050919050565b6000600560008473ffffffffffffffffffffffffffffffffffffffff1673ffffffffffffffffffffffffffffffffffffffff16815260200190815260200160002060008373ffffffffffffffffffffffffffffffffffffffff1673ffffffffffffffffffffffffffffffffffffffff16815260200190815260200160002060009054906101000a900460ff16905092915050565b6109c7610f86565b600073ffffffffffffffffffffffffffffffffffffffff168173ffffffffffffffffffffffffffffffffffffffff1603610a36576040517f08c379a0000000000000000000000000000000000000000000000000000000008152600401610a2d9061290d565b60405180910390fd5b610a3f816110ea565b50565b6000634906490660e01b7bffffffffffffffffffffffffffffffffffffffffffffffffffffffff1916827bffffffffffffffffffffffffffffffffffffffffffffffffffffffff19161480610a9c5750610a9b8261148a565b5b9050919050565b610aac8161156c565b610aeb576040517f08c379a0000000000000000000000000000000000000000000000000000000008152600401610ae2906127e9565b60405180910390fd5b50565b600033905090565b816004600083815260200190815260200160002060006101000a81548173ffffffffffffffffffffffffffffffffffffffff021916908373ffffffffffffffffffffffffffffffffffffffff160217905550808273ffffffffffffffffffffffffffffffffffffffff16610b698361065c565b73ffffffffffffffffffffffffffffffffffffffff167f8c5be1e5ebec7d5bd14f71427d1e84f3dd0314c0f7b2291e5b200ac8c7c3b92560405160405180910390a45050565b600080610bbb8361065c565b90508073ffffffffffffffffffffffffffffffffffffffff168473ffffffffffffffffffffffffffffffffffffffff161480610bfd5750610bfc818561092b565b5b80610c3b57508373ffffffffffffffffffffffffffffffffffffffff16610c2384610423565b73ffffffffffffffffffffffffffffffffffffffff16145b91505092915050565b8273ffffffffffffffffffffffffffffffffffffffff16610c648261065c565b73ffffffffffffffffffffffffffffffffffffffff1614610cba576040517f08c379a0000000000000000000000000000000000000000000000000000000008152600401610cb19061299f565b60405180910390fd5b600073ffffffffffffffffffffffffffffffffffffffff168273ffffffffffffffffffffffffffffffffffffffff1603610d29576040517f08c379a0000000000000000000000000000000000000000000000000000000008152600401610d2090612a31565b60405180910390fd5b610d3683838360016115ad565b8273ffffffffffffffffffffffffffffffffffffffff16610d568261065c565b73ffffffffffffffffffffffffffffffffffffffff1614610dac576040517f08c379a0000000000000000000000000000000000000000000000000000000008152600401610da39061299f565b60405180910390fd5b6004600082815260200190815260200160002060006101000a81549073ffffffffffffffffffffffffffffffffffffffff02191690556001600360008573ffffffffffffffffffffffffffffffffffffffff1673ffffffffffffffffffffffffffffffffffffffff168152602001908152602001600020600082825403925050819055506001600360008473ffffffffffffffffffffffffffffffffffffffff1673ffffffffffffffffffffffffffffffffffffffff16815260200190815260200160002060008282540192505081905550816002600083815260200190815260200160002060006101000a81548173ffffffffffffffffffffffffffffffffffffffff021916908373ffffffffffffffffffffffffffffffffffffffff160217905550808273ffffffffffffffffffffffffffffffffffffffff168473ffffffffffffffffffffffffffffffffffffffff167fddf252ad1be2c89b69c2b068fc378daa952ba7f163c4a11628f55a4df523b3ef60405160405180910390a4610f3883838360016115b3565b505050565b610f46816115b9565b50565b60006002600083815260200190815260200160002060009054906101000a900473ffffffffffffffffffffffffffffffffffffffff169050919050565b610f8e610aee565b73ffffffffffffffffffffffffffffffffffffffff16610fac6107e5565b73ffffffffffffffffffffffffffffffffffffffff1614611002576040517f08c379a0000000000000000000000000000000000000000000000000000000008152600401610ff990612a9d565b60405180910390fd5b565b600081600001549050919050565b6001816000016000828254019250508190555050565b61104282826040518060200160405280600081525061160c565b5050565b61104f8261156c565b61108e576040517f08c379a000000000000000000000000000000000000000000000000000000000815260040161108590612b2f565b60405180910390fd5b806006600084815260200190815260200160002090816110ae9190612cfb565b507ff8e1a15aba9398e019f0b49df1a4fde98ee17ae345cb5f6b5e2c27f5033e8ce7826040516110de919061239c565b60405180910390a15050565b6000600760009054906101000a900473ffffffffffffffffffffffffffffffffffffffff16905081600760006101000a81548173ffffffffffffffffffffffffffffffffffffffff021916908373ffffffffffffffffffffffffffffffffffffffff1602179055508173ffffffffffffffffffffffffffffffffffffffff168173ffffffffffffffffffffffffffffffffffffffff167f8be0079c531659141344cd1fd0a4f28419497f9722a3daafe3b4186f6b6457e060405160405180910390a35050565b8173ffffffffffffffffffffffffffffffffffffffff168373ffffffffffffffffffffffffffffffffffffffff160361121e576040517f08c379a000000000000000000000000000000000000000000000000000000000815260040161121590612e19565b60405180910390fd5b80600560008573ffffffffffffffffffffffffffffffffffffffff1673ffffffffffffffffffffffffffffffffffffffff16815260200190815260200160002060008473ffffffffffffffffffffffffffffffffffffffff1673ffffffffffffffffffffffffffffffffffffffff16815260200190815260200160002060006101000a81548160ff0219169083151502179055508173ffffffffffffffffffffffffffffffffffffffff168373ffffffffffffffffffffffffffffffffffffffff167f17307eab39ab6107e8899845ad3d59bd9653f200f220920489ca2b5937696c318360405161130f9190611f97565b60405180910390a3505050565b611327848484610c44565b61133384848484611667565b611372576040517f08c379a000000000000000000000000000000000000000000000000000000000815260040161136990612eab565b60405180910390fd5b50505050565b606061138382610aa3565b60006006600084815260200190815260200160002080546113a3906125b6565b80601f01602080910402602001604051908101604052809291908181526020018280546113cf906125b6565b801561141c5780601f106113f15761010080835404028352916020019161141c565b820191906000526020600020905b8154815290600101906020018083116113ff57829003601f168201915b50505050509050600061142d6117ee565b90506000815103611442578192505050611485565b60008251111561147757808260405160200161145f929190612f07565b60405160208183030381529060405292505050611485565b61148084611805565b925050505b919050565b60007f80ac58cd000000000000000000000000000000000000000000000000000000007bffffffffffffffffffffffffffffffffffffffffffffffffffffffff1916827bffffffffffffffffffffffffffffffffffffffffffffffffffffffff1916148061155557507f5b5e139f000000000000000000000000000000000000000000000000000000007bffffffffffffffffffffffffffffffffffffffffffffffffffffffff1916827bffffffffffffffffffffffffffffffffffffffffffffffffffffffff1916145b8061156557506115648261186d565b5b9050919050565b60008073ffffffffffffffffffffffffffffffffffffffff1661158e83610f49565b73ffffffffffffffffffffffffffffffffffffffff1614159050919050565b50505050565b50505050565b6115c2816118d7565b60006006600083815260200190815260200160002080546115e2906125b6565b905014611609576006600082815260200190815260200160002060006116089190611e86565b5b50565b6116168383611a25565b6116236000848484611667565b611662576040517f08c379a000000000000000000000000000000000000000000000000000000000815260040161165990612eab565b60405180910390fd5b505050565b60006116888473ffffffffffffffffffffffffffffffffffffffff16611c42565b156117e1578373ffffffffffffffffffffffffffffffffffffffff1663150b7a026116b1610aee565b8786866040518563ffffffff1660e01b81526004016116d39493929190612f80565b6020604051808303816000875af192505050801561170f57506040513d601f19601f8201168201806040525081019061170c9190612fe1565b60015b611791573d806000811461173f576040519150601f19603f3d011682016040523d82523d6000602084013e611744565b606091505b506000815103611789576040517f08c379a000000000000000000000000000000000000000000000000000000000815260040161178090612eab565b60405180910390fd5b805181602001fd5b63150b7a0260e01b7bffffffffffffffffffffffffffffffffffffffffffffffffffffffff1916817bffffffffffffffffffffffffffffffffffffffffffffffffffffffff1916149150506117e6565b600190505b949350505050565b606060405180602001604052806000815250905090565b606061181082610aa3565b600061181a6117ee565b9050600081511161183a5760405180602001604052806000815250611865565b8061184484611c65565b604051602001611855929190612f07565b6040516020818303038152906040525b915050919050565b60007f01ffc9a7000000000000000000000000000000000000000000000000000000007bffffffffffffffffffffffffffffffffffffffffffffffffffffffff1916827bffffffffffffffffffffffffffffffffffffffffffffffffffffffff1916149050919050565b60006118e28261065c565b90506118f28160008460016115ad565b6118fb8261065c565b90506004600083815260200190815260200160002060006101000a81549073ffffffffffffffffffffffffffffffffffffffff02191690556001600360008373ffffffffffffffffffffffffffffffffffffffff1673ffffffffffffffffffffffffffffffffffffffff168152602001908152602001600020600082825403925050819055506002600083815260200190815260200160002060006101000a81549073ffffffffffffffffffffffffffffffffffffffff021916905581600073ffffffffffffffffffffffffffffffffffffffff168273ffffffffffffffffffffffffffffffffffffffff167fddf252ad1be2c89b69c2b068fc378daa952ba7f163c4a11628f55a4df523b3ef60405160405180910390a4611a218160008460016115b3565b5050565b600073ffffffffffffffffffffffffffffffffffffffff168273ffffffffffffffffffffffffffffffffffffffff1603611a94576040517f08c379a0000000000000000000000000000000000000000000000000000000008152600401611a8b9061305a565b60405180910390fd5b611a9d8161156c565b15611add576040517f08c379a0000000000000000000000000000000000000000000000000000000008152600401611ad4906130c6565b60405180910390fd5b611aeb6000838360016115ad565b611af48161156c565b15611b34576040517f08c379a0000000000000000000000000000000000000000000000000000000008152600401611b2b906130c6565b60405180910390fd5b6001600360008473ffffffffffffffffffffffffffffffffffffffff1673ffffffffffffffffffffffffffffffffffffffff16815260200190815260200160002060008282540192505081905550816002600083815260200190815260200160002060006101000a81548173ffffffffffffffffffffffffffffffffffffffff021916908373ffffffffffffffffffffffffffffffffffffffff160217905550808273ffffffffffffffffffffffffffffffffffffffff16600073ffffffffffffffffffffffffffffffffffffffff167fddf252ad1be2c89b69c2b068fc378daa952ba7f163c4a11628f55a4df523b3ef60405160405180910390a4611c3e6000838360016115b3565b5050565b6000808273ffffffffffffffffffffffffffffffffffffffff163b119050919050565b606060006001611c7484611d33565b01905060008167ffffffffffffffff811115611c9357611c926121ec565b5b6040519080825280601f01601f191660200182016040528015611cc55781602001600182028036833780820191505090505b509050600082602001820190505b600115611d28578080600190039150507f3031323334353637383961626364656600000000000000000000000000000000600a86061a8153600a8581611d1c57611d1b6130e6565b5b04945060008503611cd3575b819350505050919050565b600080600090507a184f03e93ff9f4daa797ed6e38ed64bf6a1f0100000000000000008310611d91577a184f03e93ff9f4daa797ed6e38ed64bf6a1f0100000000000000008381611d8757611d866130e6565b5b0492506040810190505b6d04ee2d6d415b85acef81000000008310611dce576d04ee2d6d415b85acef81000000008381611dc457611dc36130e6565b5b0492506020810190505b662386f26fc100008310611dfd57662386f26fc100008381611df357611df26130e6565b5b0492506010810190505b6305f5e1008310611e26576305f5e1008381611e1c57611e1b6130e6565b5b0492506008810190505b6127108310611e4b576127108381611e4157611e406130e6565b5b0492506004810190505b60648310611e6e5760648381611e6457611e636130e6565b5b0492506002810190505b600a8310611e7d576001810190505b80915050919050565b508054611e92906125b6565b6000825580601f10611ea45750611ec3565b601f016020900490600052602060002090810190611ec29190611ec6565b5b50565b5b80821115611edf576000816000905550600101611ec7565b5090565b6000604051905090565b600080fd5b600080fd5b60007fffffffff0000000000000000000000000000000000000000000000000000000082169050919050565b611f2c81611ef7565b8114611f3757600080fd5b50565b600081359050611f4981611f23565b92915050565b600060208284031215611f6557611f64611eed565b5b6000611f7384828501611f3a565b91505092915050565b60008115159050919050565b611f9181611f7c565b82525050565b6000602082019050611fac6000830184611f88565b92915050565b600081519050919050565b600082825260208201905092915050565b60005b83811015611fec578082015181840152602081019050611fd1565b60008484015250505050565b6000601f19601f8301169050919050565b600061201482611fb2565b61201e8185611fbd565b935061202e818560208601611fce565b61203781611ff8565b840191505092915050565b6000602082019050818103600083015261205c8184612009565b905092915050565b6000819050919050565b61207781612064565b811461208257600080fd5b50565b6000813590506120948161206e565b92915050565b6000602082840312156120b0576120af611eed565b5b60006120be84828501612085565b91505092915050565b600073ffffffffffffffffffffffffffffffffffffffff82169050919050565b60006120f2826120c7565b9050919050565b612102816120e7565b82525050565b600060208201905061211d60008301846120f9565b92915050565b61212c816120e7565b811461213757600080fd5b50565b60008135905061214981612123565b92915050565b6000806040838503121561216657612165611eed565b5b60006121748582860161213a565b925050602061218585828601612085565b9150509250929050565b6000806000606084860312156121a8576121a7611eed565b5b60006121b68682870161213a565b93505060206121c78682870161213a565b92505060406121d886828701612085565b9150509250925092565b600080fd5b600080fd5b7f4e487b7100000000000000000000000000000000000000000000000000000000600052604160045260246000fd5b61222482611ff8565b810181811067ffffffffffffffff82111715612243576122426121ec565b5b80604052505050565b6000612256611ee3565b9050612262828261221b565b919050565b600067ffffffffffffffff821115612282576122816121ec565b5b61228b82611ff8565b9050602081019050919050565b82818337600083830152505050565b60006122ba6122b584612267565b61224c565b9050828152602081018484840111156122d6576122d56121e7565b5b6122e1848285612298565b509392505050565b600082601f8301126122fe576122fd6121e2565b5b813561230e8482602086016122a7565b91505092915050565b60006020828403121561232d5761232c611eed565b5b600082013567ffffffffffffffff81111561234b5761234a611ef2565b5b612357848285016122e9565b91505092915050565b60006020828403121561237657612375611eed565b5b60006123848482850161213a565b91505092915050565b61239681612064565b82525050565b60006020820190506123b1600083018461238d565b92915050565b6123c081611f7c565b81146123cb57600080fd5b50565b6000813590506123dd816123b7565b92915050565b600080604083850312156123fa576123f9611eed565b5b60006124088582860161213a565b9250506020612419858286016123ce565b9150509250929050565b600067ffffffffffffffff82111561243e5761243d6121ec565b5b61244782611ff8565b9050602081019050919050565b600061246761246284612423565b61224c565b905082815260208101848484011115612483576124826121e7565b5b61248e848285612298565b509392505050565b600082601f8301126124ab576124aa6121e2565b5b81356124bb848260208601612454565b91505092915050565b600080600080608085870312156124de576124dd611eed565b5b60006124ec8782880161213a565b94505060206124fd8782880161213a565b935050604061250e87828801612085565b925050606085013567ffffffffffffffff81111561252f5761252e611ef2565b5b61253b87828801612496565b91505092959194509250565b6000806040838503121561255e5761255d611eed565b5b600061256c8582860161213a565b925050602061257d8582860161213a565b9150509250929050565b7f4e487b7100000000000000000000000000000000000000000000000000000000600052602260045260246000fd5b600060028204905060018216806125ce57607f821691505b6020821081036125e1576125e0612587565b5b50919050565b7f4552433732313a20617070726f76616c20746f2063757272656e74206f776e6560008201527f7200000000000000000000000000000000000000000000000000000000000000602082015250565b6000612643602183611fbd565b915061264e826125e7565b604082019050919050565b6000602082019050818103600083015261267281612636565b9050919050565b7f4552433732313a20617070726f76652063616c6c6572206973206e6f7420746f60008201527f6b656e206f776e6572206f7220617070726f76656420666f7220616c6c000000602082015250565b60006126d5603d83611fbd565b91506126e082612679565b604082019050919050565b60006020820190508181036000830152612704816126c8565b9050919050565b7f4552433732313a2063616c6c6572206973206e6f7420746f6b656e206f776e6560008201527f72206f7220617070726f76656400000000000000000000000000000000000000602082015250565b6000612767602d83611fbd565b91506127728261270b565b604082019050919050565b600060208201905081810360008301526127968161275a565b9050919050565b7f4552433732313a20696e76616c696420746f6b656e2049440000000000000000600082015250565b60006127d3601883611fbd565b91506127de8261279d565b602082019050919050565b60006020820190508181036000830152612802816127c6565b9050919050565b7f4552433732313a2061646472657373207a65726f206973206e6f74206120766160008201527f6c6964206f776e65720000000000000000000000000000000000000000000000602082015250565b6000612865602983611fbd565b915061287082612809565b604082019050919050565b6000602082019050818103600083015261289481612858565b9050919050565b7f4f776e61626c653a206e6577206f776e657220697320746865207a65726f206160008201527f6464726573730000000000000000000000000000000000000000000000000000602082015250565b60006128f7602683611fbd565b91506129028261289b565b604082019050919050565b60006020820190508181036000830152612926816128ea565b9050919050565b7f4552433732313a207472616e736665722066726f6d20696e636f72726563742060008201527f6f776e6572000000000000000000000000000000000000000000000000000000602082015250565b6000612989602583611fbd565b91506129948261292d565b604082019050919050565b600060208201905081810360008301526129b88161297c565b9050919050565b7f4552433732313a207472616e7366657220746f20746865207a65726f2061646460008201527f7265737300000000000000000000000000000000000000000000000000000000602082015250565b6000612a1b602483611fbd565b9150612a26826129bf565b604082019050919050565b60006020820190508181036000830152612a4a81612a0e565b9050919050565b7f4f776e61626c653a2063616c6c6572206973206e6f7420746865206f776e6572600082015250565b6000612a87602083611fbd565b9150612a9282612a51565b602082019050919050565b60006020820190508181036000830152612ab681612a7a565b9050919050565b7f45524337323155524953746f726167653a2055524920736574206f66206e6f6e60008201527f6578697374656e7420746f6b656e000000000000000000000000000000000000602082015250565b6000612b19602e83611fbd565b9150612b2482612abd565b604082019050919050565b60006020820190508181036000830152612b4881612b0c565b9050919050565b60008190508160005260206000209050919050565b60006020601f8301049050919050565b600082821b905092915050565b600060088302612bb17fffffffffffffffffffffffffffffffffffffffffffffffffffffffffffffffff82612b74565b612bbb8683612b74565b95508019841693508086168417925050509392505050565b6000819050919050565b6000612bf8612bf3612bee84612064565b612bd3565b612064565b9050919050565b6000819050919050565b612c1283612bdd565b612c26612c1e82612bff565b848454612b81565b825550505050565b600090565b612c3b612c2e565b612c46818484612c09565b505050565b5b81811015612c6a57612c5f600082612c33565b600181019050612c4c565b5050565b601f821115612caf57612c8081612b4f565b612c8984612b64565b81016020851015612c98578190505b612cac612ca485612b64565b830182612c4b565b50505b505050565b600082821c905092915050565b6000612cd260001984600802612cb4565b1980831691505092915050565b6000612ceb8383612cc1565b9150826002028217905092915050565b612d0482611fb2565b67ffffffffffffffff811115612d1d57612d1c6121ec565b5b612d2782546125b6565b612d32828285612c6e565b600060209050601f831160018114612d655760008415612d53578287015190505b612d5d8582612cdf565b865550612dc5565b601f198416612d7386612b4f565b60005b82811015612d9b57848901518255600182019150602085019450602081019050612d76565b86831015612db85784890151612db4601f891682612cc1565b8355505b6001600288020188555050505b505050505050565b7f4552433732313a20617070726f766520746f2063616c6c657200000000000000600082015250565b6000612e03601983611fbd565b9150612e0e82612dcd565b602082019050919050565b60006020820190508181036000830152612e3281612df6565b9050919050565b7f4552433732313a207472616e7366657220746f206e6f6e20455243373231526560008201527f63656976657220696d706c656d656e7465720000000000000000000000000000602082015250565b6000612e95603283611fbd565b9150612ea082612e39565b604082019050919050565b60006020820190508181036000830152612ec481612e88565b9050919050565b600081905092915050565b6000612ee182611fb2565b612eeb8185612ecb565b9350612efb818560208601611fce565b80840191505092915050565b6000612f138285612ed6565b9150612f1f8284612ed6565b91508190509392505050565b600081519050919050565b600082825260208201905092915050565b6000612f5282612f2b565b612f5c8185612f36565b9350612f6c818560208601611fce565b612f7581611ff8565b840191505092915050565b6000608082019050612f9560008301876120f9565b612fa260208301866120f9565b612faf604083018561238d565b8181036060830152612fc18184612f47565b905095945050505050565b600081519050612fdb81611f23565b92915050565b600060208284031215612ff757612ff6611eed565b5b600061300584828501612fcc565b91505092915050565b7f4552433732313a206d696e7420746f20746865207a65726f2061646472657373600082015250565b6000613044602083611fbd565b915061304f8261300e565b602082019050919050565b6000602082019050818103600083015261307381613037565b9050919050565b7f4552433732313a20746f6b656e20616c7265616479206d696e74656400000000600082015250565b60006130b0601c83611fbd565b91506130bb8261307a565b602082019050919050565b600060208201905081810360008301526130df816130a3565b9050919050565b7f4e487b7100000000000000000000000000000000000000000000000000000000600052601260045260246000fdfea26469706673582212208a9b738adf533e9358db9553e39a10f925398f388f128914436e11c9360f3f3664736f6c63430008180033",
  "linkReferences": {},
  "deployedLinkReferences": {}
}