{
  "_format": "hh-sol-artifact-1",
  "contractName": "ZeroEgg",
  "sourceName": "src/backend/contracts/SadMonkey.sol",
  "abi": [
    {
      "inputs": [],
      "stateMutability": "nonpayable",
      "type": "constructor"
    },
    {
      "anonymous": false,
      "inputs": [
        {
          "indexed": true,
          "internalType": "address",
          "name": "owner",
          "type": "address"
        },
        {
          "indexed": true,
          "internalType": "address",
          "name": "spender",
          "type": "address"
        },
        {
          "indexed": false,
          "internalType": "uint256",
          "name": "value",
          "type": "uint256"
        }
      ],
      "name": "Approval",
      "type": "event"
    },
    {
      "anonymous": false,
      "inputs": [
        {
          "indexed": true,
          "internalType": "address",
          "name": "previousOwner",
          "type": "address"
        },
        {
          "indexed": true,
          "internalType": "address",
          "name": "newOwner",
          "type": "address"
        }
      ],
      "name": "OwnershipTransferred",
      "type": "event"
    },
    {
      "anonymous": false,
      "inputs": [
        {
          "indexed": true,
          "internalType": "address",
          "name": "from",
          "type": "address"
        },
        {
          "indexed": true,
          "internalType": "address",
          "name": "to",
          "type": "address"
        },
        {
          "indexed": false,
          "internalType": "uint256",
          "name": "value",
          "type": "uint256"
        }
      ],
      "name": "Transfer",
      "type": "event"
    },
    {
      "inputs": [
        {
          "internalType": "address",
          "name": "owner",
          "type": "address"
        },
        {
          "internalType": "address",
          "name": "spender",
          "type": "address"
        }
      ],
      "name": "allowance",
      "outputs": [
        {
          "internalType": "uint256",
          "name": "",
          "type": "uint256"
        }
      ],
      "stateMutability": "view",
      "type": "function"
    },
    {
      "inputs": [
        {
          "internalType": "address",
          "name": "spender",
          "type": "address"
        },
        {
          "internalType": "uint256",
          "name": "amount",
          "type": "uint256"
        }
      ],
      "name": "approve",
      "outputs": [
        {
          "internalType": "bool",
          "name": "",
          "type": "bool"
        }
      ],
      "stateMutability": "nonpayable",
      "type": "function"
    },
    {
      "inputs": [
        {
          "internalType": "address",
          "name": "account",
          "type": "address"
        }
      ],
      "name": "balanceOf",
      "outputs": [
        {
          "internalType": "uint256",
          "name": "",
          "type": "uint256"
        }
      ],
      "stateMutability": "view",
      "type": "function"
    },
    {
      "inputs": [],
      "name": "decimals",
      "outputs": [
        {
          "internalType": "uint8",
          "name": "",
          "type": "uint8"
        }
      ],
      "stateMutability": "view",
      "type": "function"
    },
    {
      "inputs": [
        {
          "internalType": "address",
          "name": "spender",
          "type": "address"
        },
        {
          "internalType": "uint256",
          "name": "subtractedValue",
          "type": "uint256"
        }
      ],
      "name": "decreaseAllowance",
      "outputs": [
        {
          "internalType": "bool",
          "name": "",
          "type": "bool"
        }
      ],
      "stateMutability": "nonpayable",
      "type": "function"
    },
    {
      "inputs": [
        {
          "internalType": "address",
          "name": "spender",
          "type": "address"
        },
        {
          "internalType": "uint256",
          "name": "addedValue",
          "type": "uint256"
        }
      ],
      "name": "increaseAllowance",
      "outputs": [
        {
          "internalType": "bool",
          "name": "",
          "type": "bool"
        }
      ],
      "stateMutability": "nonpayable",
      "type": "function"
    },
    {
      "inputs": [],
      "name": "mint",
      "outputs": [],
      "stateMutability": "nonpayable",
      "type": "function"
    },
    {
      "inputs": [],
      "name": "name",
      "outputs": [
        {
          "internalType": "string",
          "name": "",
          "type": "string"
        }
      ],
      "stateMutability": "view",
      "type": "function"
    },
    {
      "inputs": [],
      "name": "owner",
      "outputs": [
        {
          "internalType": "address",
          "name": "",
          "type": "address"
        }
      ],
      "stateMutability": "view",
      "type": "function"
    },
    {
      "inputs": [],
      "name": "renounceOwnership",
      "outputs": [],
      "stateMutability": "nonpayable",
      "type": "function"
    },
    {
      "inputs": [],
      "name": "symbol",
      "outputs": [
        {
          "internalType": "string",
          "name": "",
          "type": "string"
        }
      ],
      "stateMutability": "view",
      "type": "function"
    },
    {
      "inputs": [],
      "name": "totalSupply",
      "outputs": [
        {
          "internalType": "uint256",
          "name": "",
          "type": "uint256"
        }
      ],
      "stateMutability": "view",
      "type": "function"
    },
    {
      "inputs": [
        {
          "internalType": "address",
          "name": "to",
          "type": "address"
        },
        {
          "internalType": "uint256",
          "name": "amount",
          "type": "uint256"
        }
      ],
      "name": "transfer",
      "outputs": [
        {
          "internalType": "bool",
          "name": "",
          "type": "bool"
        }
      ],
      "stateMutability": "nonpayable",
      "type": "function"
    },
    {
      "inputs": [
        {
          "internalType": "address",
          "name": "from",
          "type": "address"
        },
        {
          "internalType": "address",
          "name": "to",
          "type": "address"
        },
        {
          "internalType": "uint256",
          "name": "amount",
          "type": "uint256"
        }
      ],
      "name": "transferFrom",
      "outputs": [
        {
          "internalType": "bool",
          "name": "",
          "type": "bool"
        }
      ],
      "stateMutability": "nonpayable",
      "type": "function"
    },
    {
      "inputs": [
        {
          "internalType": "address",
          "name": "newOwner",
          "type": "address"
        }
      ],
      "name": "transferOwnership",
      "outputs": [],
      "stateMutability": "nonpayable",
      "type": "function"
    }
  ],
  "bytecode": "0x60806040523480156200001157600080fd5b506040518060400160405280600b81526020017f6c696e27732065726332300000000000000000000000000000000000000000008152506040518060400160405280600781526020017f5a65726f45676700000000000000000000000000000000000000000000000000815250816003908051906020019062000096929190620001a6565b508060049080519060200190620000af929190620001a6565b505050620000d2620000c6620000d860201b60201c565b620000e060201b60201c565b620002bb565b600033905090565b6000600560009054906101000a900473ffffffffffffffffffffffffffffffffffffffff16905081600560006101000a81548173ffffffffffffffffffffffffffffffffffffffff021916908373ffffffffffffffffffffffffffffffffffffffff1602179055508173ffffffffffffffffffffffffffffffffffffffff168173ffffffffffffffffffffffffffffffffffffffff167f8be0079c531659141344cd1fd0a4f28419497f9722a3daafe3b4186f6b6457e060405160405180910390a35050565b828054620001b49062000256565b90600052602060002090601f016020900481019282620001d8576000855562000224565b82601f10620001f357805160ff191683800117855562000224565b8280016001018555821562000224579182015b828111156200022357825182559160200191906001019062000206565b5b50905062000233919062000237565b5090565b5b808211156200025257600081600090555060010162000238565b5090565b600060028204905060018216806200026f57607f821691505b602082108114156200028657620002856200028c565b5b50919050565b7f4e487b7100000000000000000000000000000000000000000000000000000000600052602260045260246000fd5b6119e180620002cb6000396000f3fe608060405234801561001057600080fd5b50600436106100f55760003560e01c806370a0823111610097578063a457c2d711610066578063a457c2d714610264578063a9059cbb14610294578063dd62ed3e146102c4578063f2fde38b146102f4576100f5565b806370a08231146101ee578063715018a61461021e5780638da5cb5b1461022857806395d89b4114610246576100f5565b806318160ddd116100d357806318160ddd1461015257806323b872dd14610170578063313ce567146101a057806339509351146101be576100f5565b806306fdde03146100fa578063095ea7b3146101185780631249c58b14610148575b600080fd5b610102610310565b60405161010f91906111ce565b60405180910390f35b610132600480360381019061012d9190610f89565b6103a2565b60405161013f91906111b3565b60405180910390f35b6101506103c5565b005b61015a6103f9565b6040516101679190611330565b60405180910390f35b61018a60048036038101906101859190610f3a565b610403565b60405161019791906111b3565b60405180910390f35b6101a8610432565b6040516101b5919061134b565b60405180910390f35b6101d860048036038101906101d39190610f89565b61043b565b6040516101e591906111b3565b60405180910390f35b61020860048036038101906102039190610ed5565b610472565b6040516102159190611330565b60405180910390f35b6102266104ba565b005b6102306104ce565b60405161023d9190611198565b60405180910390f35b61024e6104f8565b60405161025b91906111ce565b60405180910390f35b61027e60048036038101906102799190610f89565b61058a565b60405161028b91906111b3565b60405180910390f35b6102ae60048036038101906102a99190610f89565b610601565b6040516102bb91906111b3565b60405180910390f35b6102de60048036038101906102d99190610efe565b610624565b6040516102eb9190611330565b60405180910390f35b61030e60048036038101906103099190610ed5565b6106ab565b005b60606003805461031f9061162b565b80601f016020809104026020016040519081016040528092919081815260200182805461034b9061162b565b80156103985780601f1061036d57610100808354040283529160200191610398565b820191906000526020600020905b81548152906001019060200180831161037b57829003601f168201915b5050505050905090565b6000806103ad61072f565b90506103ba818585610737565b600191505092915050565b6103cd610902565b6103f7336103d9610432565b600a6103e5919061142b565b6103e86103f29190611549565b610980565b565b6000600254905090565b60008061040e61072f565b905061041b858285610ad7565b610426858585610b63565b60019150509392505050565b60006012905090565b60008061044661072f565b90506104678185856104588589610624565b6104629190611382565b610737565b600191505092915050565b60008060008373ffffffffffffffffffffffffffffffffffffffff1673ffffffffffffffffffffffffffffffffffffffff168152602001908152602001600020549050919050565b6104c2610902565b6104cc6000610ddb565b565b6000600560009054906101000a900473ffffffffffffffffffffffffffffffffffffffff16905090565b6060600480546105079061162b565b80601f01602080910402602001604051908101604052809291908181526020018280546105339061162b565b80156105805780601f1061055557610100808354040283529160200191610580565b820191906000526020600020905b81548152906001019060200180831161056357829003601f168201915b5050505050905090565b60008061059561072f565b905060006105a38286610624565b9050838110156105e8576040517f08c379a00000000000000000000000000000000000000000000000000000000081526004016105df906112f0565b60405180910390fd5b6105f58286868403610737565b60019250505092915050565b60008061060c61072f565b9050610619818585610b63565b600191505092915050565b6000600160008473ffffffffffffffffffffffffffffffffffffffff1673ffffffffffffffffffffffffffffffffffffffff16815260200190815260200160002060008373ffffffffffffffffffffffffffffffffffffffff1673ffffffffffffffffffffffffffffffffffffffff16815260200190815260200160002054905092915050565b6106b3610902565b600073ffffffffffffffffffffffffffffffffffffffff168173ffffffffffffffffffffffffffffffffffffffff161415610723576040517f08c379a000000000000000000000000000000000000000000000000000000000815260040161071a90611210565b60405180910390fd5b61072c81610ddb565b50565b600033905090565b600073ffffffffffffffffffffffffffffffffffffffff168373ffffffffffffffffffffffffffffffffffffffff1614156107a7576040517f08c379a000000000000000000000000000000000000000000000000000000000815260040161079e906112d0565b60405180910390fd5b600073ffffffffffffffffffffffffffffffffffffffff168273ffffffffffffffffffffffffffffffffffffffff161415610817576040517f08c379a000000000000000000000000000000000000000000000000000000000815260040161080e90611230565b60405180910390fd5b80600160008573ffffffffffffffffffffffffffffffffffffffff1673ffffffffffffffffffffffffffffffffffffffff16815260200190815260200160002060008473ffffffffffffffffffffffffffffffffffffffff1673ffffffffffffffffffffffffffffffffffffffff168152602001908152602001600020819055508173ffffffffffffffffffffffffffffffffffffffff168373ffffffffffffffffffffffffffffffffffffffff167f8c5be1e5ebec7d5bd14f71427d1e84f3dd0314c0f7b2291e5b200ac8c7c3b925836040516108f59190611330565b60405180910390a3505050565b61090a61072f565b73ffffffffffffffffffffffffffffffffffffffff166109286104ce565b73ffffffffffffffffffffffffffffffffffffffff161461097e576040517f08c379a000000000000000000000000000000000000000000000000000000000815260040161097590611290565b60405180910390fd5b565b600073ffffffffffffffffffffffffffffffffffffffff168273ffffffffffffffffffffffffffffffffffffffff1614156109f0576040517f08c379a00000000000000000000000000000000000000000000000000000000081526004016109e790611310565b60405180910390fd5b6109fc60008383610ea1565b8060026000828254610a0e9190611382565b92505081905550806000808473ffffffffffffffffffffffffffffffffffffffff1673ffffffffffffffffffffffffffffffffffffffff168152602001908152602001600020600082825401925050819055508173ffffffffffffffffffffffffffffffffffffffff16600073ffffffffffffffffffffffffffffffffffffffff167fddf252ad1be2c89b69c2b068fc378daa952ba7f163c4a11628f55a4df523b3ef83604051610abf9190611330565b60405180910390a3610ad360008383610ea6565b5050565b6000610ae38484610624565b90507fffffffffffffffffffffffffffffffffffffffffffffffffffffffffffffffff8114610b5d5781811015610b4f576040517f08c379a0000000000000000000000000000000000000000000000000000000008152600401610b4690611250565b60405180910390fd5b610b5c8484848403610737565b5b50505050565b600073ffffffffffffffffffffffffffffffffffffffff168373ffffffffffffffffffffffffffffffffffffffff161415610bd3576040517f08c379a0000000000000000000000000000000000000000000000000000000008152600401610bca906112b0565b60405180910390fd5b600073ffffffffffffffffffffffffffffffffffffffff168273ffffffffffffffffffffffffffffffffffffffff161415610c43576040517f08c379a0000000000000000000000000000000000000000000000000000000008152600401610c3a906111f0565b60405180910390fd5b610c4e838383610ea1565b60008060008573ffffffffffffffffffffffffffffffffffffffff1673ffffffffffffffffffffffffffffffffffffffff16815260200190815260200160002054905081811015610cd4576040517f08c379a0000000000000000000000000000000000000000000000000000000008152600401610ccb90611270565b60405180910390fd5b8181036000808673ffffffffffffffffffffffffffffffffffffffff1673ffffffffffffffffffffffffffffffffffffffff16815260200190815260200160002081905550816000808573ffffffffffffffffffffffffffffffffffffffff1673ffffffffffffffffffffffffffffffffffffffff168152602001908152602001600020600082825401925050819055508273ffffffffffffffffffffffffffffffffffffffff168473ffffffffffffffffffffffffffffffffffffffff167fddf252ad1be2c89b69c2b068fc378daa952ba7f163c4a11628f55a4df523b3ef84604051610dc29190611330565b60405180910390a3610dd5848484610ea6565b50505050565b6000600560009054906101000a900473ffffffffffffffffffffffffffffffffffffffff16905081600560006101000a81548173ffffffffffffffffffffffffffffffffffffffff021916908373ffffffffffffffffffffffffffffffffffffffff1602179055508173ffffffffffffffffffffffffffffffffffffffff168173ffffffffffffffffffffffffffffffffffffffff167f8be0079c531659141344cd1fd0a4f28419497f9722a3daafe3b4186f6b6457e060405160405180910390a35050565b505050565b505050565b600081359050610eba8161197d565b92915050565b600081359050610ecf81611994565b92915050565b600060208284031215610ee757600080fd5b6000610ef584828501610eab565b91505092915050565b60008060408385031215610f1157600080fd5b6000610f1f85828601610eab565b9250506020610f3085828601610eab565b9150509250929050565b600080600060608486031215610f4f57600080fd5b6000610f5d86828701610eab565b9350506020610f6e86828701610eab565b9250506040610f7f86828701610ec0565b9150509250925092565b60008060408385031215610f9c57600080fd5b6000610faa85828601610eab565b9250506020610fbb85828601610ec0565b9150509250929050565b610fce816115a3565b82525050565b610fdd816115b5565b82525050565b6000610fee82611366565b610ff88185611371565b93506110088185602086016115f8565b611011816116bb565b840191505092915050565b6000611029602383611371565b9150611034826116d9565b604082019050919050565b600061104c602683611371565b915061105782611728565b604082019050919050565b600061106f602283611371565b915061107a82611777565b604082019050919050565b6000611092601d83611371565b915061109d826117c6565b602082019050919050565b60006110b5602683611371565b91506110c0826117ef565b604082019050919050565b60006110d8602083611371565b91506110e38261183e565b602082019050919050565b60006110fb602583611371565b915061110682611867565b604082019050919050565b600061111e602483611371565b9150611129826118b6565b604082019050919050565b6000611141602583611371565b915061114c82611905565b604082019050919050565b6000611164601f83611371565b915061116f82611954565b602082019050919050565b611183816115e1565b82525050565b611192816115eb565b82525050565b60006020820190506111ad6000830184610fc5565b92915050565b60006020820190506111c86000830184610fd4565b92915050565b600060208201905081810360008301526111e88184610fe3565b905092915050565b600060208201905081810360008301526112098161101c565b9050919050565b600060208201905081810360008301526112298161103f565b9050919050565b6000602082019050818103600083015261124981611062565b9050919050565b6000602082019050818103600083015261126981611085565b9050919050565b60006020820190508181036000830152611289816110a8565b9050919050565b600060208201905081810360008301526112a9816110cb565b9050919050565b600060208201905081810360008301526112c9816110ee565b9050919050565b600060208201905081810360008301526112e981611111565b9050919050565b6000602082019050818103600083015261130981611134565b9050919050565b6000602082019050818103600083015261132981611157565b9050919050565b6000602082019050611345600083018461117a565b92915050565b60006020820190506113606000830184611189565b92915050565b600081519050919050565b600082825260208201905092915050565b600061138d826115e1565b9150611398836115e1565b9250827fffffffffffffffffffffffffffffffffffffffffffffffffffffffffffffffff038211156113cd576113cc61165d565b5b828201905092915050565b6000808291508390505b6001851115611422578086048111156113fe576113fd61165d565b5b600185161561140d5780820291505b808102905061141b856116cc565b94506113e2565b94509492505050565b6000611436826115e1565b9150611441836115eb565b925061146e7fffffffffffffffffffffffffffffffffffffffffffffffffffffffffffffffff8484611476565b905092915050565b6000826114865760019050611542565b816114945760009050611542565b81600181146114aa57600281146114b4576114e3565b6001915050611542565b60ff8411156114c6576114c561165d565b5b8360020a9150848211156114dd576114dc61165d565b5b50611542565b5060208310610133831016604e8410600b84101617156115185782820a9050838111156115135761151261165d565b5b611542565b61152584848460016113d8565b9250905081840481111561153c5761153b61165d565b5b81810290505b9392505050565b6000611554826115e1565b915061155f836115e1565b9250817fffffffffffffffffffffffffffffffffffffffffffffffffffffffffffffffff04831182151516156115985761159761165d565b5b828202905092915050565b60006115ae826115c1565b9050919050565b60008115159050919050565b600073ffffffffffffffffffffffffffffffffffffffff82169050919050565b6000819050919050565b600060ff82169050919050565b60005b838110156116165780820151818401526020810190506115fb565b83811115611625576000848401525b50505050565b6000600282049050600182168061164357607f821691505b602082108114156116575761165661168c565b5b50919050565b7f4e487b7100000000000000000000000000000000000000000000000000000000600052601160045260246000fd5b7f4e487b7100000000000000000000000000000000000000000000000000000000600052602260045260246000fd5b6000601f19601f8301169050919050565b60008160011c9050919050565b7f45524332303a207472616e7366657220746f20746865207a65726f206164647260008201527f6573730000000000000000000000000000000000000000000000000000000000602082015250565b7f4f776e61626c653a206e6577206f776e657220697320746865207a65726f206160008201527f6464726573730000000000000000000000000000000000000000000000000000602082015250565b7f45524332303a20617070726f766520746f20746865207a65726f20616464726560008201527f7373000000000000000000000000000000000000000000000000000000000000602082015250565b7f45524332303a20696e73756666696369656e7420616c6c6f77616e6365000000600082015250565b7f45524332303a207472616e7366657220616d6f756e742065786365656473206260008201527f616c616e63650000000000000000000000000000000000000000000000000000602082015250565b7f4f776e61626c653a2063616c6c6572206973206e6f7420746865206f776e6572600082015250565b7f45524332303a207472616e736665722066726f6d20746865207a65726f20616460008201527f6472657373000000000000000000000000000000000000000000000000000000602082015250565b7f45524332303a20617070726f76652066726f6d20746865207a65726f2061646460008201527f7265737300000000000000000000000000000000000000000000000000000000602082015250565b7f45524332303a2064656372656173656420616c6c6f77616e63652062656c6f7760008201527f207a65726f000000000000000000000000000000000000000000000000000000602082015250565b7f45524332303a206d696e7420746f20746865207a65726f206164647265737300600082015250565b611986816115a3565b811461199157600080fd5b50565b61199d816115e1565b81146119a857600080fd5b5056fea264697066735822122004f1ad9c37792f307552b62bdde9e1c3a59d95f7e4dabe8d058d2df246184b4c64736f6c63430008040033",
  "linkReferences": {},
  "deployedLinkReferences": {}
}