{
  "_format": "hh-sol-artifact-1",
  "contractName": "NFTMarket",
  "sourceName": "contracts/NFTMarket.sol",
  "abi": [
    {
      "inputs": [
        {
          "internalType": "contract IERC20",
          "name": "_paymentToken",
          "type": "address"
        }
      ],
      "stateMutability": "nonpayable",
      "type": "constructor"
    },
    {
      "anonymous": false,
      "inputs": [
        {
          "indexed": true,
          "internalType": "address",
          "name": "buyer",
          "type": "address"
        },
        {
          "indexed": true,
          "internalType": "address",
          "name": "nftContract",
          "type": "address"
        },
        {
          "indexed": true,
          "internalType": "uint256",
          "name": "tokenId",
          "type": "uint256"
        },
        {
          "indexed": false,
          "internalType": "uint256",
          "name": "price",
          "type": "uint256"
        }
      ],
      "name": "NFTBought",
      "type": "event"
    },
    {
      "anonymous": false,
      "inputs": [
        {
          "indexed": true,
          "internalType": "address",
          "name": "seller",
          "type": "address"
        },
        {
          "indexed": true,
          "internalType": "address",
          "name": "nftContract",
          "type": "address"
        },
        {
          "indexed": true,
          "internalType": "uint256",
          "name": "tokenId",
          "type": "uint256"
        },
        {
          "indexed": false,
          "internalType": "uint256",
          "name": "price",
          "type": "uint256"
        }
      ],
      "name": "NFTListed",
      "type": "event"
    },
    {
      "inputs": [
        {
          "internalType": "uint256",
          "name": "index",
          "type": "uint256"
        }
      ],
      "name": "buyNFT",
      "outputs": [],
      "stateMutability": "nonpayable",
      "type": "function"
    },
    {
      "inputs": [],
      "name": "getAllListings",
      "outputs": [
        {
          "components": [
            {
              "internalType": "address",
              "name": "seller",
              "type": "address"
            },
            {
              "internalType": "address",
              "name": "nftContract",
              "type": "address"
            },
            {
              "internalType": "uint256",
              "name": "tokenId",
              "type": "uint256"
            },
            {
              "internalType": "uint256",
              "name": "price",
              "type": "uint256"
            }
          ],
          "internalType": "struct NFTMarket.Listing[]",
          "name": "",
          "type": "tuple[]"
        }
      ],
      "stateMutability": "view",
      "type": "function"
    },
    {
      "inputs": [
        {
          "internalType": "address",
          "name": "nftContract",
          "type": "address"
        },
        {
          "internalType": "uint256",
          "name": "tokenId",
          "type": "uint256"
        },
        {
          "internalType": "uint256",
          "name": "price",
          "type": "uint256"
        }
      ],
      "name": "listNFT",
      "outputs": [],
      "stateMutability": "nonpayable",
      "type": "function"
    },
    {
      "inputs": [
        {
          "internalType": "uint256",
          "name": "",
          "type": "uint256"
        }
      ],
      "name": "listings",
      "outputs": [
        {
          "internalType": "address",
          "name": "seller",
          "type": "address"
        },
        {
          "internalType": "address",
          "name": "nftContract",
          "type": "address"
        },
        {
          "internalType": "uint256",
          "name": "tokenId",
          "type": "uint256"
        },
        {
          "internalType": "uint256",
          "name": "price",
          "type": "uint256"
        }
      ],
      "stateMutability": "view",
      "type": "function"
    },
    {
      "inputs": [],
      "name": "paymentToken",
      "outputs": [
        {
          "internalType": "contract IERC20",
          "name": "",
          "type": "address"
        }
      ],
      "stateMutability": "view",
      "type": "function"
    }
  ],
  "bytecode": "0x608060405234801561001057600080fd5b5060405161075138038061075183398101604081905261002f91610054565b600180546001600160a01b0319166001600160a01b0392909216919091179055610084565b60006020828403121561006657600080fd5b81516001600160a01b038116811461007d57600080fd5b9392505050565b6106be806100936000396000f3fe608060405234801561001057600080fd5b50600436106100575760003560e01c80633013ce291461005c57806351ed82881461008c578063ad05f1b4146100a1578063ae73ccec146100b4578063de74e57b146100c9575b600080fd5b60015461006f906001600160a01b031681565b6040516001600160a01b0390911681526020015b60405180910390f35b61009f61009a36600461057f565b610107565b005b61009f6100af366004610598565b610309565b6100bc6104aa565b60405161008391906105d9565b6100dc6100d736600461057f565b610539565b604080516001600160a01b039586168152949093166020850152918301526060820152608001610083565b600080828154811061011b5761011b610649565b9060005260206000209060040201905060008160030154116101765760405162461bcd60e51b815260206004820152601060248201526f4e4654206e6f7420666f722073616c6560801b604482015260640160405180910390fd5b600154815460038301546040516323b872dd60e01b81523360048201526001600160a01b03928316602482015260448101919091529116906323b872dd906064016020604051808303816000875af11580156101d6573d6000803e3d6000fd5b505050506040513d601f19601f820116820180604052508101906101fa919061065f565b50600181015460028201546040516323b872dd60e01b815230600482015233602482015260448101919091526001600160a01b03909116906323b872dd90606401600060405180830381600087803b15801561025557600080fd5b505af1158015610269573d6000803e3d6000fd5b505050506002810154600182015460038301546040519081526001600160a01b039091169033907f5a55b2d970d079d39ce4c5dc9ec6de52ebfc2bbcfc7466d62eea534ee87366739060200160405180910390a4600082815481106102d0576102d0610649565b60009182526020822060049091020180546001600160a01b03199081168255600182018054909116905560028101829055600301555050565b6040516323b872dd60e01b8152336004820152306024820152604481018390526001600160a01b038416906323b872dd90606401600060405180830381600087803b15801561035757600080fd5b505af115801561036b573d6000803e3d6000fd5b505060408051608081018252338082526001600160a01b03888116602084018181528486018a8152606086018a815260008054600181018255908052965160049097027f290decd9548b62a8d60345a988386fc84ba6bc95484008f6362f93160ef3e563810180549887166001600160a01b0319998a1617905592517f290decd9548b62a8d60345a988386fc84ba6bc95484008f6362f93160ef3e564840180549190961697169690961790935591517f290decd9548b62a8d60345a988386fc84ba6bc95484008f6362f93160ef3e56583015592517f290decd9548b62a8d60345a988386fc84ba6bc95484008f6362f93160ef3e5669091015591518694509092507fbeab3a2bb824b124a8a1eb465eec003338d61b414db132d37e9b3a984fdcf0109061049d9086815260200190565b60405180910390a4505050565b60606000805480602002602001604051908101604052809291908181526020016000905b82821015610530576000848152602090819020604080516080810182526004860290920180546001600160a01b0390811684526001808301549091168486015260028201549284019290925260030154606083015290835290920191016104ce565b50505050905090565b6000818154811061054957600080fd5b600091825260209091206004909102018054600182015460028301546003909301546001600160a01b0392831694509116919084565b60006020828403121561059157600080fd5b5035919050565b6000806000606084860312156105ad57600080fd5b83356001600160a01b03811681146105c457600080fd5b95602085013595506040909401359392505050565b602080825282518282018190526000919060409081850190868401855b8281101561063c57815180516001600160a01b039081168652878201511687860152858101518686015260609081015190850152608090930192908501906001016105f6565b5091979650505050505050565b634e487b7160e01b600052603260045260246000fd5b60006020828403121561067157600080fd5b8151801515811461068157600080fd5b939250505056fea26469706673582212209dcfa3e4cd571a03bf5570b89c280e00bed9bf5d1d728cc75272e9be7241e8be64736f6c63430008140033",
  "linkReferences": {},
  "deployedLinkReferences": {}
}