{
  "_format": "hh-sol-artifact-1",
  "contractName": "NFT",
  "sourceName": "contracts/NFT.sol",
  "abi": [
    {
      "inputs": [],
      "stateMutability": "nonpayable",
      "type": "constructor"
    },
    {
      "inputs": [
        {
          "internalType": "address",
          "name": "sender",
          "type": "address"
        },
        {
          "internalType": "uint256",
          "name": "tokenId",
          "type": "uint256"
        },
        {
          "internalType": "address",
          "name": "owner",
          "type": "address"
        }
      ],
      "name": "ERC721IncorrectOwner",
      "type": "error"
    },
    {
      "inputs": [
        {
          "internalType": "address",
          "name": "operator",
          "type": "address"
        },
        {
          "internalType": "uint256",
          "name": "tokenId",
          "type": "uint256"
        }
      ],
      "name": "ERC721InsufficientApproval",
      "type": "error"
    },
    {
      "inputs": [
        {
          "internalType": "address",
          "name": "approver",
          "type": "address"
        }
      ],
      "name": "ERC721InvalidApprover",
      "type": "error"
    },
    {
      "inputs": [
        {
          "internalType": "address",
          "name": "operator",
          "type": "address"
        }
      ],
      "name": "ERC721InvalidOperator",
      "type": "error"
    },
    {
      "inputs": [
        {
          "internalType": "address",
          "name": "owner",
          "type": "address"
        }
      ],
      "name": "ERC721InvalidOwner",
      "type": "error"
    },
    {
      "inputs": [
        {
          "internalType": "address",
          "name": "receiver",
          "type": "address"
        }
      ],
      "name": "ERC721InvalidReceiver",
      "type": "error"
    },
    {
      "inputs": [
        {
          "internalType": "address",
          "name": "sender",
          "type": "address"
        }
      ],
      "name": "ERC721InvalidSender",
      "type": "error"
    },
    {
      "inputs": [
        {
          "internalType": "uint256",
          "name": "tokenId",
          "type": "uint256"
        }
      ],
      "name": "ERC721NonexistentToken",
      "type": "error"
    },
    {
      "inputs": [
        {
          "internalType": "address",
          "name": "owner",
          "type": "address"
        }
      ],
      "name": "OwnableInvalidOwner",
      "type": "error"
    },
    {
      "inputs": [
        {
          "internalType": "address",
          "name": "account",
          "type": "address"
        }
      ],
      "name": "OwnableUnauthorizedAccount",
      "type": "error"
    },
    {
      "anonymous": false,
      "inputs": [
        {
          "indexed": true,
          "internalType": "address",
          "name": "owner",
          "type": "address"
        },
        {
          "indexed": true,
          "internalType": "address",
          "name": "approved",
          "type": "address"
        },
        {
          "indexed": true,
          "internalType": "uint256",
          "name": "tokenId",
          "type": "uint256"
        }
      ],
      "name": "Approval",
      "type": "event"
    },
    {
      "anonymous": false,
      "inputs": [
        {
          "indexed": true,
          "internalType": "address",
          "name": "owner",
          "type": "address"
        },
        {
          "indexed": true,
          "internalType": "address",
          "name": "operator",
          "type": "address"
        },
        {
          "indexed": false,
          "internalType": "bool",
          "name": "approved",
          "type": "bool"
        }
      ],
      "name": "ApprovalForAll",
      "type": "event"
    },
    {
      "anonymous": false,
      "inputs": [
        {
          "indexed": false,
          "internalType": "uint256",
          "name": "_fromTokenId",
          "type": "uint256"
        },
        {
          "indexed": false,
          "internalType": "uint256",
          "name": "_toTokenId",
          "type": "uint256"
        }
      ],
      "name": "BatchMetadataUpdate",
      "type": "event"
    },
    {
      "anonymous": false,
      "inputs": [
        {
          "indexed": false,
          "internalType": "uint256",
          "name": "_tokenId",
          "type": "uint256"
        }
      ],
      "name": "MetadataUpdate",
      "type": "event"
    },
    {
      "anonymous": false,
      "inputs": [
        {
          "indexed": true,
          "internalType": "uint256",
          "name": "tokenId",
          "type": "uint256"
        },
        {
          "indexed": false,
          "internalType": "string",
          "name": "tokenURI",
          "type": "string"
        }
      ],
      "name": "NFTCreated",
      "type": "event"
    },
    {
      "anonymous": false,
      "inputs": [
        {
          "indexed": true,
          "internalType": "address",
          "name": "previousOwner",
          "type": "address"
        },
        {
          "indexed": true,
          "internalType": "address",
          "name": "newOwner",
          "type": "address"
        }
      ],
      "name": "OwnershipTransferred",
      "type": "event"
    },
    {
      "anonymous": false,
      "inputs": [
        {
          "indexed": true,
          "internalType": "address",
          "name": "from",
          "type": "address"
        },
        {
          "indexed": true,
          "internalType": "address",
          "name": "to",
          "type": "address"
        },
        {
          "indexed": true,
          "internalType": "uint256",
          "name": "tokenId",
          "type": "uint256"
        }
      ],
      "name": "Transfer",
      "type": "event"
    },
    {
      "inputs": [
        {
          "internalType": "address",
          "name": "to",
          "type": "address"
        },
        {
          "internalType": "uint256",
          "name": "tokenId",
          "type": "uint256"
        }
      ],
      "name": "approve",
      "outputs": [],
      "stateMutability": "nonpayable",
      "type": "function"
    },
    {
      "inputs": [
        {
          "internalType": "address",
          "name": "owner",
          "type": "address"
        }
      ],
      "name": "balanceOf",
      "outputs": [
        {
          "internalType": "uint256",
          "name": "",
          "type": "uint256"
        }
      ],
      "stateMutability": "view",
      "type": "function"
    },
    {
      "inputs": [
        {
          "internalType": "string",
          "name": "tokenURI",
          "type": "string"
        }
      ],
      "name": "createNFT",
      "outputs": [
        {
          "internalType": "uint256",
          "name": "",
          "type": "uint256"
        }
      ],
      "stateMutability": "nonpayable",
      "type": "function"
    },
    {
      "inputs": [],
      "name": "getAllTokens",
      "outputs": [
        {
          "internalType": "uint256[]",
          "name": "",
          "type": "uint256[]"
        }
      ],
      "stateMutability": "view",
      "type": "function"
    },
    {
      "inputs": [
        {
          "internalType": "uint256",
          "name": "tokenId",
          "type": "uint256"
        }
      ],
      "name": "getApproved",
      "outputs": [
        {
          "internalType": "address",
          "name": "",
          "type": "address"
        }
      ],
      "stateMutability": "view",
      "type": "function"
    },
    {
      "inputs": [
        {
          "internalType": "address",
          "name": "owner",
          "type": "address"
        },
        {
          "internalType": "address",
          "name": "operator",
          "type": "address"
        }
      ],
      "name": "isApprovedForAll",
      "outputs": [
        {
          "internalType": "bool",
          "name": "",
          "type": "bool"
        }
      ],
      "stateMutability": "view",
      "type": "function"
    },
    {
      "inputs": [],
      "name": "name",
      "outputs": [
        {
          "internalType": "string",
          "name": "",
          "type": "string"
        }
      ],
      "stateMutability": "view",
      "type": "function"
    },
    {
      "inputs": [],
      "name": "owner",
      "outputs": [
        {
          "internalType": "address",
          "name": "",
          "type": "address"
        }
      ],
      "stateMutability": "view",
      "type": "function"
    },
    {
      "inputs": [
        {
          "internalType": "uint256",
          "name": "tokenId",
          "type": "uint256"
        }
      ],
      "name": "ownerOf",
      "outputs": [
        {
          "internalType": "address",
          "name": "",
          "type": "address"
        }
      ],
      "stateMutability": "view",
      "type": "function"
    },
    {
      "inputs": [],
      "name": "renounceOwnership",
      "outputs": [],
      "stateMutability": "nonpayable",
      "type": "function"
    },
    {
      "inputs": [
        {
          "internalType": "address",
          "name": "from",
          "type": "address"
        },
        {
          "internalType": "address",
          "name": "to",
          "type": "address"
        },
        {
          "internalType": "uint256",
          "name": "tokenId",
          "type": "uint256"
        }
      ],
      "name": "safeTransferFrom",
      "outputs": [],
      "stateMutability": "nonpayable",
      "type": "function"
    },
    {
      "inputs": [
        {
          "internalType": "address",
          "name": "from",
          "type": "address"
        },
        {
          "internalType": "address",
          "name": "to",
          "type": "address"
        },
        {
          "internalType": "uint256",
          "name": "tokenId",
          "type": "uint256"
        },
        {
          "internalType": "bytes",
          "name": "data",
          "type": "bytes"
        }
      ],
      "name": "safeTransferFrom",
      "outputs": [],
      "stateMutability": "nonpayable",
      "type": "function"
    },
    {
      "inputs": [
        {
          "internalType": "address",
          "name": "operator",
          "type": "address"
        },
        {
          "internalType": "bool",
          "name": "approved",
          "type": "bool"
        }
      ],
      "name": "setApprovalForAll",
      "outputs": [],
      "stateMutability": "nonpayable",
      "type": "function"
    },
    {
      "inputs": [
        {
          "internalType": "bytes4",
          "name": "interfaceId",
          "type": "bytes4"
        }
      ],
      "name": "supportsInterface",
      "outputs": [
        {
          "internalType": "bool",
          "name": "",
          "type": "bool"
        }
      ],
      "stateMutability": "view",
      "type": "function"
    },
    {
      "inputs": [],
      "name": "symbol",
      "outputs": [
        {
          "internalType": "string",
          "name": "",
          "type": "string"
        }
      ],
      "stateMutability": "view",
      "type": "function"
    },
    {
      "inputs": [],
      "name": "tokenCounter",
      "outputs": [
        {
          "internalType": "uint256",
          "name": "",
          "type": "uint256"
        }
      ],
      "stateMutability": "view",
      "type": "function"
    },
    {
      "inputs": [
        {
          "internalType": "uint256",
          "name": "tokenId",
          "type": "uint256"
        }
      ],
      "name": "tokenURI",
      "outputs": [
        {
          "internalType": "string",
          "name": "",
          "type": "string"
        }
      ],
      "stateMutability": "view",
      "type": "function"
    },
    {
      "inputs": [
        {
          "internalType": "address",
          "name": "from",
          "type": "address"
        },
        {
          "internalType": "address",
          "name": "to",
          "type": "address"
        },
        {
          "internalType": "uint256",
          "name": "tokenId",
          "type": "uint256"
        }
      ],
      "name": "transferFrom",
      "outputs": [],
      "stateMutability": "nonpayable",
      "type": "function"
    },
    {
      "inputs": [
        {
          "internalType": "address",
          "name": "newOwner",
          "type": "address"
        }
      ],
      "name": "transferOwnership",
      "outputs": [],
      "stateMutability": "nonpayable",
      "type": "function"
    }
  ],
  "bytecode": "0x60806040523480156200001157600080fd5b50336040518060400160405280600681526020017f4c656d4e465400000000000000000000000000000000000000000000000000008152506040518060400160405280600681526020017f4c454d4e4654000000000000000000000000000000000000000000000000000081525081600090816200009091906200047a565b508060019081620000a291906200047a565b505050600073ffffffffffffffffffffffffffffffffffffffff168173ffffffffffffffffffffffffffffffffffffffff16036200011a5760006040517f1e4fbdf7000000000000000000000000000000000000000000000000000000008152600401620001119190620005a6565b60405180910390fd5b6200012b816200013a60201b60201c565b506000600881905550620005c3565b6000600760009054906101000a900473ffffffffffffffffffffffffffffffffffffffff16905081600760006101000a81548173ffffffffffffffffffffffffffffffffffffffff021916908373ffffffffffffffffffffffffffffffffffffffff1602179055508173ffffffffffffffffffffffffffffffffffffffff168173ffffffffffffffffffffffffffffffffffffffff167f8be0079c531659141344cd1fd0a4f28419497f9722a3daafe3b4186f6b6457e060405160405180910390a35050565b600081519050919050565b7f4e487b7100000000000000000000000000000000000000000000000000000000600052604160045260246000fd5b7f4e487b7100000000000000000000000000000000000000000000000000000000600052602260045260246000fd5b600060028204905060018216806200028257607f821691505b6020821081036200029857620002976200023a565b5b50919050565b60008190508160005260206000209050919050565b60006020601f8301049050919050565b600082821b905092915050565b600060088302620003027fffffffffffffffffffffffffffffffffffffffffffffffffffffffffffffffff82620002c3565b6200030e8683620002c3565b95508019841693508086168417925050509392505050565b6000819050919050565b6000819050919050565b60006200035b620003556200034f8462000326565b62000330565b62000326565b9050919050565b6000819050919050565b62000377836200033a565b6200038f620003868262000362565b848454620002d0565b825550505050565b600090565b620003a662000397565b620003b38184846200036c565b505050565b5b81811015620003db57620003cf6000826200039c565b600181019050620003b9565b5050565b601f8211156200042a57620003f4816200029e565b620003ff84620002b3565b810160208510156200040f578190505b620004276200041e85620002b3565b830182620003b8565b50505b505050565b600082821c905092915050565b60006200044f600019846008026200042f565b1980831691505092915050565b60006200046a83836200043c565b9150826002028217905092915050565b620004858262000200565b67ffffffffffffffff811115620004a157620004a06200020b565b5b620004ad825462000269565b620004ba828285620003df565b600060209050601f831160018114620004f25760008415620004dd578287015190505b620004e985826200045c565b86555062000559565b601f19841662000502866200029e565b60005b828110156200052c5784890151825560018201915060208501945060208101905062000505565b868310156200054c578489015162000548601f8916826200043c565b8355505b6001600288020188555050505b505050505050565b600073ffffffffffffffffffffffffffffffffffffffff82169050919050565b60006200058e8262000561565b9050919050565b620005a08162000581565b82525050565b6000602082019050620005bd600083018462000595565b92915050565b61285680620005d36000396000f3fe608060405234801561001057600080fd5b50600436106101215760003560e01c8063715018a6116100ad578063c87b56dd11610071578063c87b56dd146102f4578063d082e38114610324578063da2ed03e14610342578063e985e9c514610372578063f2fde38b146103a257610121565b8063715018a6146102765780638da5cb5b1461028057806395d89b411461029e578063a22cb465146102bc578063b88d4fde146102d857610121565b806323b872dd116100f457806323b872dd146101c05780632a5c792a146101dc57806342842e0e146101fa5780636352211e1461021657806370a082311461024657610121565b806301ffc9a71461012657806306fdde0314610156578063081812fc14610174578063095ea7b3146101a4575b600080fd5b610140600480360381019061013b9190611be1565b6103be565b60405161014d9190611c29565b60405180910390f35b61015e61041f565b60405161016b9190611cd4565b60405180910390f35b61018e60048036038101906101899190611d2c565b6104b1565b60405161019b9190611d9a565b60405180910390f35b6101be60048036038101906101b99190611de1565b6104cd565b005b6101da60048036038101906101d59190611e21565b6104e3565b005b6101e46105e5565b6040516101f19190611f32565b60405180910390f35b610214600480360381019061020f9190611e21565b61063d565b005b610230600480360381019061022b9190611d2c565b61065d565b60405161023d9190611d9a565b60405180910390f35b610260600480360381019061025b9190611f54565b61066f565b60405161026d9190611f90565b60405180910390f35b61027e610729565b005b61028861073d565b6040516102959190611d9a565b60405180910390f35b6102a6610767565b6040516102b39190611cd4565b60405180910390f35b6102d660048036038101906102d19190611fd7565b6107f9565b005b6102f260048036038101906102ed919061214c565b61080f565b005b61030e60048036038101906103099190611d2c565b61082c565b60405161031b9190611cd4565b60405180910390f35b61032c61093f565b6040516103399190611f90565b60405180910390f35b61035c60048036038101906103579190612270565b610945565b6040516103699190611f90565b60405180910390f35b61038c600480360381019061038791906122b9565b6109ec565b6040516103999190611c29565b60405180910390f35b6103bc60048036038101906103b79190611f54565b610a80565b005b6000634906490660e01b7bffffffffffffffffffffffffffffffffffffffffffffffffffffffff1916827bffffffffffffffffffffffffffffffffffffffffffffffffffffffff19161480610418575061041782610b06565b5b9050919050565b60606000805461042e90612328565b80601f016020809104026020016040519081016040528092919081815260200182805461045a90612328565b80156104a75780601f1061047c576101008083540402835291602001916104a7565b820191906000526020600020905b81548152906001019060200180831161048a57829003601f168201915b5050505050905090565b60006104bc82610be8565b506104c682610c70565b9050919050565b6104df82826104da610cad565b610cb5565b5050565b600073ffffffffffffffffffffffffffffffffffffffff168273ffffffffffffffffffffffffffffffffffffffff16036105555760006040517f64a0ae9200000000000000000000000000000000000000000000000000000000815260040161054c9190611d9a565b60405180910390fd5b60006105698383610564610cad565b610cc7565b90508373ffffffffffffffffffffffffffffffffffffffff168173ffffffffffffffffffffffffffffffffffffffff16146105df578382826040517f64283d7b0000000000000000000000000000000000000000000000000000000081526004016105d693929190612359565b60405180910390fd5b50505050565b6060600980548060200260200160405190810160405280929190818152602001828054801561063357602002820191906000526020600020905b81548152602001906001019080831161061f575b5050505050905090565b6106588383836040518060200160405280600081525061080f565b505050565b600061066882610be8565b9050919050565b60008073ffffffffffffffffffffffffffffffffffffffff168273ffffffffffffffffffffffffffffffffffffffff16036106e25760006040517f89c62b640000000000000000000000000000000000000000000000000000000081526004016106d99190611d9a565b60405180910390fd5b600360008373ffffffffffffffffffffffffffffffffffffffff1673ffffffffffffffffffffffffffffffffffffffff168152602001908152602001600020549050919050565b610731610ee1565b61073b6000610f68565b565b6000600760009054906101000a900473ffffffffffffffffffffffffffffffffffffffff16905090565b60606001805461077690612328565b80601f01602080910402602001604051908101604052809291908181526020018280546107a290612328565b80156107ef5780601f106107c4576101008083540402835291602001916107ef565b820191906000526020600020905b8154815290600101906020018083116107d257829003601f168201915b5050505050905090565b61080b610804610cad565b838361102e565b5050565b61081a8484846104e3565b6108268484848461119d565b50505050565b606061083782610be8565b50600060066000848152602001908152602001600020805461085890612328565b80601f016020809104026020016040519081016040528092919081815260200182805461088490612328565b80156108d15780601f106108a6576101008083540402835291602001916108d1565b820191906000526020600020905b8154815290600101906020018083116108b457829003601f168201915b5050505050905060006108e2611354565b905060008151036108f757819250505061093a565b60008251111561092c5780826040516020016109149291906123cc565b6040516020818303038152906040529250505061093a565b6109358461136b565b925050505b919050565b60085481565b600061094f610ee1565b6000600854905061096033826113d4565b61096a81846113f2565b6009819080600181540180825580915050600190039060005260206000200160009091909190915055807fe883eeefa7f620d513eac93479fc9f54ce03f9f4a72c0d818311a9d19556e879846040516109c39190611cd4565b60405180910390a2600860008154809291906109de9061241f565b919050555080915050919050565b6000600560008473ffffffffffffffffffffffffffffffffffffffff1673ffffffffffffffffffffffffffffffffffffffff16815260200190815260200160002060008373ffffffffffffffffffffffffffffffffffffffff1673ffffffffffffffffffffffffffffffffffffffff16815260200190815260200160002060009054906101000a900460ff16905092915050565b610a88610ee1565b600073ffffffffffffffffffffffffffffffffffffffff168173ffffffffffffffffffffffffffffffffffffffff1603610afa5760006040517f1e4fbdf7000000000000000000000000000000000000000000000000000000008152600401610af19190611d9a565b60405180910390fd5b610b0381610f68565b50565b60007f80ac58cd000000000000000000000000000000000000000000000000000000007bffffffffffffffffffffffffffffffffffffffffffffffffffffffff1916827bffffffffffffffffffffffffffffffffffffffffffffffffffffffff19161480610bd157507f5b5e139f000000000000000000000000000000000000000000000000000000007bffffffffffffffffffffffffffffffffffffffffffffffffffffffff1916827bffffffffffffffffffffffffffffffffffffffffffffffffffffffff1916145b80610be15750610be08261144e565b5b9050919050565b600080610bf4836114b8565b9050600073ffffffffffffffffffffffffffffffffffffffff168173ffffffffffffffffffffffffffffffffffffffff1603610c6757826040517f7e273289000000000000000000000000000000000000000000000000000000008152600401610c5e9190611f90565b60405180910390fd5b80915050919050565b60006004600083815260200190815260200160002060009054906101000a900473ffffffffffffffffffffffffffffffffffffffff169050919050565b600033905090565b610cc283838360016114f5565b505050565b600080610cd3846114b8565b9050600073ffffffffffffffffffffffffffffffffffffffff168373ffffffffffffffffffffffffffffffffffffffff1614610d1557610d148184866116ba565b5b600073ffffffffffffffffffffffffffffffffffffffff168173ffffffffffffffffffffffffffffffffffffffff1614610da657610d576000856000806114f5565b6001600360008373ffffffffffffffffffffffffffffffffffffffff1673ffffffffffffffffffffffffffffffffffffffff168152602001908152602001600020600082825403925050819055505b600073ffffffffffffffffffffffffffffffffffffffff168573ffffffffffffffffffffffffffffffffffffffff1614610e29576001600360008773ffffffffffffffffffffffffffffffffffffffff1673ffffffffffffffffffffffffffffffffffffffff168152602001908152602001600020600082825401925050819055505b846002600086815260200190815260200160002060006101000a81548173ffffffffffffffffffffffffffffffffffffffff021916908373ffffffffffffffffffffffffffffffffffffffff160217905550838573ffffffffffffffffffffffffffffffffffffffff168273ffffffffffffffffffffffffffffffffffffffff167fddf252ad1be2c89b69c2b068fc378daa952ba7f163c4a11628f55a4df523b3ef60405160405180910390a4809150509392505050565b610ee9610cad565b73ffffffffffffffffffffffffffffffffffffffff16610f0761073d565b73ffffffffffffffffffffffffffffffffffffffff1614610f6657610f2a610cad565b6040517f118cdaa7000000000000000000000000000000000000000000000000000000008152600401610f5d9190611d9a565b60405180910390fd5b565b6000600760009054906101000a900473ffffffffffffffffffffffffffffffffffffffff16905081600760006101000a81548173ffffffffffffffffffffffffffffffffffffffff021916908373ffffffffffffffffffffffffffffffffffffffff1602179055508173ffffffffffffffffffffffffffffffffffffffff168173ffffffffffffffffffffffffffffffffffffffff167f8be0079c531659141344cd1fd0a4f28419497f9722a3daafe3b4186f6b6457e060405160405180910390a35050565b600073ffffffffffffffffffffffffffffffffffffffff168273ffffffffffffffffffffffffffffffffffffffff160361109f57816040517f5b08ba180000000000000000000000000000000000000000000000000000000081526004016110969190611d9a565b60405180910390fd5b80600560008573ffffffffffffffffffffffffffffffffffffffff1673ffffffffffffffffffffffffffffffffffffffff16815260200190815260200160002060008473ffffffffffffffffffffffffffffffffffffffff1673ffffffffffffffffffffffffffffffffffffffff16815260200190815260200160002060006101000a81548160ff0219169083151502179055508173ffffffffffffffffffffffffffffffffffffffff168373ffffffffffffffffffffffffffffffffffffffff167f17307eab39ab6107e8899845ad3d59bd9653f200f220920489ca2b5937696c31836040516111909190611c29565b60405180910390a3505050565b60008373ffffffffffffffffffffffffffffffffffffffff163b111561134e578273ffffffffffffffffffffffffffffffffffffffff1663150b7a026111e1610cad565b8685856040518563ffffffff1660e01b815260040161120394939291906124bc565b6020604051808303816000875af192505050801561123f57506040513d601f19601f8201168201806040525081019061123c919061251d565b60015b6112c3573d806000811461126f576040519150601f19603f3d011682016040523d82523d6000602084013e611274565b606091505b5060008151036112bb57836040517f64a0ae920000000000000000000000000000000000000000000000000000000081526004016112b29190611d9a565b60405180910390fd5b805181602001fd5b63150b7a0260e01b7bffffffffffffffffffffffffffffffffffffffffffffffffffffffff1916817bffffffffffffffffffffffffffffffffffffffffffffffffffffffff19161461134c57836040517f64a0ae920000000000000000000000000000000000000000000000000000000081526004016113439190611d9a565b60405180910390fd5b505b50505050565b606060405180602001604052806000815250905090565b606061137682610be8565b506000611381611354565b905060008151116113a157604051806020016040528060008152506113cc565b806113ab8461177e565b6040516020016113bc9291906123cc565b6040516020818303038152906040525b915050919050565b6113ee82826040518060200160405280600081525061184c565b5050565b8060066000848152602001908152602001600020908161141291906126f6565b507ff8e1a15aba9398e019f0b49df1a4fde98ee17ae345cb5f6b5e2c27f5033e8ce7826040516114429190611f90565b60405180910390a15050565b60007f01ffc9a7000000000000000000000000000000000000000000000000000000007bffffffffffffffffffffffffffffffffffffffffffffffffffffffff1916827bffffffffffffffffffffffffffffffffffffffffffffffffffffffff1916149050919050565b60006002600083815260200190815260200160002060009054906101000a900473ffffffffffffffffffffffffffffffffffffffff169050919050565b808061152e5750600073ffffffffffffffffffffffffffffffffffffffff168273ffffffffffffffffffffffffffffffffffffffff1614155b1561166257600061153e84610be8565b9050600073ffffffffffffffffffffffffffffffffffffffff168373ffffffffffffffffffffffffffffffffffffffff16141580156115a957508273ffffffffffffffffffffffffffffffffffffffff168173ffffffffffffffffffffffffffffffffffffffff1614155b80156115bc57506115ba81846109ec565b155b156115fe57826040517fa9fbf51f0000000000000000000000000000000000000000000000000000000081526004016115f59190611d9a565b60405180910390fd5b811561166057838573ffffffffffffffffffffffffffffffffffffffff168273ffffffffffffffffffffffffffffffffffffffff167f8c5be1e5ebec7d5bd14f71427d1e84f3dd0314c0f7b2291e5b200ac8c7c3b92560405160405180910390a45b505b836004600085815260200190815260200160002060006101000a81548173ffffffffffffffffffffffffffffffffffffffff021916908373ffffffffffffffffffffffffffffffffffffffff16021790555050505050565b6116c5838383611868565b61177957600073ffffffffffffffffffffffffffffffffffffffff168373ffffffffffffffffffffffffffffffffffffffff160361173a57806040517f7e2732890000000000000000000000000000000000000000000000000000000081526004016117319190611f90565b60405180910390fd5b81816040517f177e802f0000000000000000000000000000000000000000000000000000000081526004016117709291906127c8565b60405180910390fd5b505050565b60606000600161178d84611929565b01905060008167ffffffffffffffff8111156117ac576117ab612021565b5b6040519080825280601f01601f1916602001820160405280156117de5781602001600182028036833780820191505090505b509050600082602001820190505b600115611841578080600190039150507f3031323334353637383961626364656600000000000000000000000000000000600a86061a8153600a8581611835576118346127f1565b5b049450600085036117ec575b819350505050919050565b6118568383611a7c565b611863600084848461119d565b505050565b60008073ffffffffffffffffffffffffffffffffffffffff168373ffffffffffffffffffffffffffffffffffffffff161415801561192057508273ffffffffffffffffffffffffffffffffffffffff168473ffffffffffffffffffffffffffffffffffffffff1614806118e157506118e084846109ec565b5b8061191f57508273ffffffffffffffffffffffffffffffffffffffff1661190783610c70565b73ffffffffffffffffffffffffffffffffffffffff16145b5b90509392505050565b600080600090507a184f03e93ff9f4daa797ed6e38ed64bf6a1f0100000000000000008310611987577a184f03e93ff9f4daa797ed6e38ed64bf6a1f010000000000000000838161197d5761197c6127f1565b5b0492506040810190505b6d04ee2d6d415b85acef810000000083106119c4576d04ee2d6d415b85acef810000000083816119ba576119b96127f1565b5b0492506020810190505b662386f26fc1000083106119f357662386f26fc1000083816119e9576119e86127f1565b5b0492506010810190505b6305f5e1008310611a1c576305f5e1008381611a1257611a116127f1565b5b0492506008810190505b6127108310611a41576127108381611a3757611a366127f1565b5b0492506004810190505b60648310611a645760648381611a5a57611a596127f1565b5b0492506002810190505b600a8310611a73576001810190505b80915050919050565b600073ffffffffffffffffffffffffffffffffffffffff168273ffffffffffffffffffffffffffffffffffffffff1603611aee5760006040517f64a0ae92000000000000000000000000000000000000000000000000000000008152600401611ae59190611d9a565b60405180910390fd5b6000611afc83836000610cc7565b9050600073ffffffffffffffffffffffffffffffffffffffff168173ffffffffffffffffffffffffffffffffffffffff1614611b705760006040517f73c6ac6e000000000000000000000000000000000000000000000000000000008152600401611b679190611d9a565b60405180910390fd5b505050565b6000604051905090565b600080fd5b600080fd5b60007fffffffff0000000000000000000000000000000000000000000000000000000082169050919050565b611bbe81611b89565b8114611bc957600080fd5b50565b600081359050611bdb81611bb5565b92915050565b600060208284031215611bf757611bf6611b7f565b5b6000611c0584828501611bcc565b91505092915050565b60008115159050919050565b611c2381611c0e565b82525050565b6000602082019050611c3e6000830184611c1a565b92915050565b600081519050919050565b600082825260208201905092915050565b60005b83811015611c7e578082015181840152602081019050611c63565b60008484015250505050565b6000601f19601f8301169050919050565b6000611ca682611c44565b611cb08185611c4f565b9350611cc0818560208601611c60565b611cc981611c8a565b840191505092915050565b60006020820190508181036000830152611cee8184611c9b565b905092915050565b6000819050919050565b611d0981611cf6565b8114611d1457600080fd5b50565b600081359050611d2681611d00565b92915050565b600060208284031215611d4257611d41611b7f565b5b6000611d5084828501611d17565b91505092915050565b600073ffffffffffffffffffffffffffffffffffffffff82169050919050565b6000611d8482611d59565b9050919050565b611d9481611d79565b82525050565b6000602082019050611daf6000830184611d8b565b92915050565b611dbe81611d79565b8114611dc957600080fd5b50565b600081359050611ddb81611db5565b92915050565b60008060408385031215611df857611df7611b7f565b5b6000611e0685828601611dcc565b9250506020611e1785828601611d17565b9150509250929050565b600080600060608486031215611e3a57611e39611b7f565b5b6000611e4886828701611dcc565b9350506020611e5986828701611dcc565b9250506040611e6a86828701611d17565b9150509250925092565b600081519050919050565b600082825260208201905092915050565b6000819050602082019050919050565b611ea981611cf6565b82525050565b6000611ebb8383611ea0565b60208301905092915050565b6000602082019050919050565b6000611edf82611e74565b611ee98185611e7f565b9350611ef483611e90565b8060005b83811015611f25578151611f0c8882611eaf565b9750611f1783611ec7565b925050600181019050611ef8565b5085935050505092915050565b60006020820190508181036000830152611f4c8184611ed4565b905092915050565b600060208284031215611f6a57611f69611b7f565b5b6000611f7884828501611dcc565b91505092915050565b611f8a81611cf6565b82525050565b6000602082019050611fa56000830184611f81565b92915050565b611fb481611c0e565b8114611fbf57600080fd5b50565b600081359050611fd181611fab565b92915050565b60008060408385031215611fee57611fed611b7f565b5b6000611ffc85828601611dcc565b925050602061200d85828601611fc2565b9150509250929050565b600080fd5b600080fd5b7f4e487b7100000000000000000000000000000000000000000000000000000000600052604160045260246000fd5b61205982611c8a565b810181811067ffffffffffffffff8211171561207857612077612021565b5b80604052505050565b600061208b611b75565b90506120978282612050565b919050565b600067ffffffffffffffff8211156120b7576120b6612021565b5b6120c082611c8a565b9050602081019050919050565b82818337600083830152505050565b60006120ef6120ea8461209c565b612081565b90508281526020810184848401111561210b5761210a61201c565b5b6121168482856120cd565b509392505050565b600082601f83011261213357612132612017565b5b81356121438482602086016120dc565b91505092915050565b6000806000806080858703121561216657612165611b7f565b5b600061217487828801611dcc565b945050602061218587828801611dcc565b935050604061219687828801611d17565b925050606085013567ffffffffffffffff8111156121b7576121b6611b84565b5b6121c38782880161211e565b91505092959194509250565b600067ffffffffffffffff8211156121ea576121e9612021565b5b6121f382611c8a565b9050602081019050919050565b600061221361220e846121cf565b612081565b90508281526020810184848401111561222f5761222e61201c565b5b61223a8482856120cd565b509392505050565b600082601f83011261225757612256612017565b5b8135612267848260208601612200565b91505092915050565b60006020828403121561228657612285611b7f565b5b600082013567ffffffffffffffff8111156122a4576122a3611b84565b5b6122b084828501612242565b91505092915050565b600080604083850312156122d0576122cf611b7f565b5b60006122de85828601611dcc565b92505060206122ef85828601611dcc565b9150509250929050565b7f4e487b7100000000000000000000000000000000000000000000000000000000600052602260045260246000fd5b6000600282049050600182168061234057607f821691505b602082108103612353576123526122f9565b5b50919050565b600060608201905061236e6000830186611d8b565b61237b6020830185611f81565b6123886040830184611d8b565b949350505050565b600081905092915050565b60006123a682611c44565b6123b08185612390565b93506123c0818560208601611c60565b80840191505092915050565b60006123d8828561239b565b91506123e4828461239b565b91508190509392505050565b7f4e487b7100000000000000000000000000000000000000000000000000000000600052601160045260246000fd5b600061242a82611cf6565b91507fffffffffffffffffffffffffffffffffffffffffffffffffffffffffffffffff820361245c5761245b6123f0565b5b600182019050919050565b600081519050919050565b600082825260208201905092915050565b600061248e82612467565b6124988185612472565b93506124a8818560208601611c60565b6124b181611c8a565b840191505092915050565b60006080820190506124d16000830187611d8b565b6124de6020830186611d8b565b6124eb6040830185611f81565b81810360608301526124fd8184612483565b905095945050505050565b60008151905061251781611bb5565b92915050565b60006020828403121561253357612532611b7f565b5b600061254184828501612508565b91505092915050565b60008190508160005260206000209050919050565b60006020601f8301049050919050565b600082821b905092915050565b6000600883026125ac7fffffffffffffffffffffffffffffffffffffffffffffffffffffffffffffffff8261256f565b6125b6868361256f565b95508019841693508086168417925050509392505050565b6000819050919050565b60006125f36125ee6125e984611cf6565b6125ce565b611cf6565b9050919050565b6000819050919050565b61260d836125d8565b612621612619826125fa565b84845461257c565b825550505050565b600090565b612636612629565b612641818484612604565b505050565b5b818110156126655761265a60008261262e565b600181019050612647565b5050565b601f8211156126aa5761267b8161254a565b6126848461255f565b81016020851015612693578190505b6126a761269f8561255f565b830182612646565b50505b505050565b600082821c905092915050565b60006126cd600019846008026126af565b1980831691505092915050565b60006126e683836126bc565b9150826002028217905092915050565b6126ff82611c44565b67ffffffffffffffff81111561271857612717612021565b5b6127228254612328565b61272d828285612669565b600060209050601f831160018114612760576000841561274e578287015190505b61275885826126da565b8655506127c0565b601f19841661276e8661254a565b60005b8281101561279657848901518255600182019150602085019450602081019050612771565b868310156127b357848901516127af601f8916826126bc565b8355505b6001600288020188555050505b505050505050565b60006040820190506127dd6000830185611d8b565b6127ea6020830184611f81565b9392505050565b7f4e487b7100000000000000000000000000000000000000000000000000000000600052601260045260246000fdfea26469706673582212202049e402c668beb47c7e296dba41655939849ccfd08c8a1232604e8f257d3cb164736f6c63430008180033",
  "linkReferences": {},
  "deployedLinkReferences": {}
}