{
  "_format": "hh-sol-artifact-1",
  "contractName": "NFTMarket",
  "sourceName": "contracts/NFTMarket.sol",
  "abi": [
    {
      "inputs": [
        {
          "internalType": "contract IERC20",
          "name": "_paymentToken",
          "type": "address"
        }
      ],
      "stateMutability": "nonpayable",
      "type": "constructor"
    },
    {
      "anonymous": false,
      "inputs": [
        {
          "indexed": true,
          "internalType": "address",
          "name": "buyer",
          "type": "address"
        },
        {
          "indexed": true,
          "internalType": "address",
          "name": "nftContract",
          "type": "address"
        },
        {
          "indexed": true,
          "internalType": "uint256",
          "name": "tokenId",
          "type": "uint256"
        },
        {
          "indexed": false,
          "internalType": "uint256",
          "name": "price",
          "type": "uint256"
        },
        {
          "indexed": false,
          "internalType": "string",
          "name": "tokenURI",
          "type": "string"
        }
      ],
      "name": "NFTBought",
      "type": "event"
    },
    {
      "anonymous": false,
      "inputs": [
        {
          "indexed": true,
          "internalType": "address",
          "name": "seller",
          "type": "address"
        },
        {
          "indexed": true,
          "internalType": "address",
          "name": "nftContract",
          "type": "address"
        },
        {
          "indexed": true,
          "internalType": "uint256",
          "name": "tokenId",
          "type": "uint256"
        },
        {
          "indexed": false,
          "internalType": "uint256",
          "name": "price",
          "type": "uint256"
        },
        {
          "indexed": false,
          "internalType": "uint256",
          "name": "listingTime",
          "type": "uint256"
        },
        {
          "indexed": false,
          "internalType": "uint256",
          "name": "delistingTime",
          "type": "uint256"
        },
        {
          "indexed": false,
          "internalType": "string",
          "name": "tokenURI",
          "type": "string"
        },
        {
          "indexed": false,
          "internalType": "bool",
          "name": "isActive",
          "type": "bool"
        }
      ],
      "name": "NFTDelisted",
      "type": "event"
    },
    {
      "anonymous": false,
      "inputs": [
        {
          "indexed": true,
          "internalType": "address",
          "name": "seller",
          "type": "address"
        },
        {
          "indexed": true,
          "internalType": "address",
          "name": "nftContract",
          "type": "address"
        },
        {
          "indexed": true,
          "internalType": "uint256",
          "name": "tokenId",
          "type": "uint256"
        },
        {
          "indexed": false,
          "internalType": "uint256",
          "name": "price",
          "type": "uint256"
        },
        {
          "indexed": false,
          "internalType": "bool",
          "name": "isActive",
          "type": "bool"
        },
        {
          "indexed": false,
          "internalType": "uint256",
          "name": "listingTime",
          "type": "uint256"
        },
        {
          "indexed": false,
          "internalType": "string",
          "name": "tokenURI",
          "type": "string"
        }
      ],
      "name": "NFTListed",
      "type": "event"
    },
    {
      "inputs": [
        {
          "internalType": "address",
          "name": "_nftContract",
          "type": "address"
        },
        {
          "internalType": "uint256",
          "name": "_tokenId",
          "type": "uint256"
        }
      ],
      "name": "buyNFT",
      "outputs": [],
      "stateMutability": "nonpayable",
      "type": "function"
    },
    {
      "inputs": [
        {
          "internalType": "address",
          "name": "_nftContract",
          "type": "address"
        },
        {
          "internalType": "uint256",
          "name": "_tokenId",
          "type": "uint256"
        }
      ],
      "name": "delistNFT",
      "outputs": [],
      "stateMutability": "nonpayable",
      "type": "function"
    },
    {
      "inputs": [],
      "name": "getAllDelisted",
      "outputs": [
        {
          "components": [
            {
              "internalType": "address",
              "name": "seller",
              "type": "address"
            },
            {
              "internalType": "address",
              "name": "nftContract",
              "type": "address"
            },
            {
              "internalType": "uint256",
              "name": "tokenId",
              "type": "uint256"
            },
            {
              "internalType": "uint256",
              "name": "price",
              "type": "uint256"
            },
            {
              "internalType": "bool",
              "name": "isActive",
              "type": "bool"
            },
            {
              "internalType": "uint256",
              "name": "listingTime",
              "type": "uint256"
            },
            {
              "internalType": "uint256",
              "name": "delistingTime",
              "type": "uint256"
            },
            {
              "internalType": "string",
              "name": "tokenURI",
              "type": "string"
            }
          ],
          "internalType": "struct NFTMarket.Listing[]",
          "name": "",
          "type": "tuple[]"
        }
      ],
      "stateMutability": "view",
      "type": "function"
    },
    {
      "inputs": [],
      "name": "getAllListings",
      "outputs": [
        {
          "components": [
            {
              "internalType": "address",
              "name": "seller",
              "type": "address"
            },
            {
              "internalType": "address",
              "name": "nftContract",
              "type": "address"
            },
            {
              "internalType": "uint256",
              "name": "tokenId",
              "type": "uint256"
            },
            {
              "internalType": "uint256",
              "name": "price",
              "type": "uint256"
            },
            {
              "internalType": "bool",
              "name": "isActive",
              "type": "bool"
            },
            {
              "internalType": "uint256",
              "name": "listingTime",
              "type": "uint256"
            },
            {
              "internalType": "uint256",
              "name": "delistingTime",
              "type": "uint256"
            },
            {
              "internalType": "string",
              "name": "tokenURI",
              "type": "string"
            }
          ],
          "internalType": "struct NFTMarket.Listing[]",
          "name": "",
          "type": "tuple[]"
        }
      ],
      "stateMutability": "view",
      "type": "function"
    },
    {
      "inputs": [],
      "name": "getAllSold",
      "outputs": [
        {
          "components": [
            {
              "internalType": "address",
              "name": "seller",
              "type": "address"
            },
            {
              "internalType": "address",
              "name": "nftContract",
              "type": "address"
            },
            {
              "internalType": "uint256",
              "name": "tokenId",
              "type": "uint256"
            },
            {
              "internalType": "uint256",
              "name": "price",
              "type": "uint256"
            },
            {
              "internalType": "bool",
              "name": "isActive",
              "type": "bool"
            },
            {
              "internalType": "uint256",
              "name": "listingTime",
              "type": "uint256"
            },
            {
              "internalType": "uint256",
              "name": "delistingTime",
              "type": "uint256"
            },
            {
              "internalType": "string",
              "name": "tokenURI",
              "type": "string"
            }
          ],
          "internalType": "struct NFTMarket.Listing[]",
          "name": "",
          "type": "tuple[]"
        }
      ],
      "stateMutability": "view",
      "type": "function"
    },
    {
      "inputs": [
        {
          "internalType": "address",
          "name": "_nftContract",
          "type": "address"
        },
        {
          "internalType": "uint256",
          "name": "_tokenId",
          "type": "uint256"
        },
        {
          "internalType": "uint256",
          "name": "_price",
          "type": "uint256"
        }
      ],
      "name": "listNFT",
      "outputs": [],
      "stateMutability": "nonpayable",
      "type": "function"
    },
    {
      "inputs": [
        {
          "internalType": "address",
          "name": "",
          "type": "address"
        },
        {
          "internalType": "uint256",
          "name": "",
          "type": "uint256"
        }
      ],
      "name": "listings",
      "outputs": [
        {
          "internalType": "address",
          "name": "seller",
          "type": "address"
        },
        {
          "internalType": "address",
          "name": "nftContract",
          "type": "address"
        },
        {
          "internalType": "uint256",
          "name": "tokenId",
          "type": "uint256"
        },
        {
          "internalType": "uint256",
          "name": "price",
          "type": "uint256"
        },
        {
          "internalType": "bool",
          "name": "isActive",
          "type": "bool"
        },
        {
          "internalType": "uint256",
          "name": "listingTime",
          "type": "uint256"
        },
        {
          "internalType": "uint256",
          "name": "delistingTime",
          "type": "uint256"
        },
        {
          "internalType": "string",
          "name": "tokenURI",
          "type": "string"
        }
      ],
      "stateMutability": "view",
      "type": "function"
    },
    {
      "inputs": [
        {
          "internalType": "uint256",
          "name": "",
          "type": "uint256"
        }
      ],
      "name": "nftContracts",
      "outputs": [
        {
          "internalType": "address",
          "name": "",
          "type": "address"
        }
      ],
      "stateMutability": "view",
      "type": "function"
    },
    {
      "inputs": [],
      "name": "paymentToken",
      "outputs": [
        {
          "internalType": "contract IERC20",
          "name": "",
          "type": "address"
        }
      ],
      "stateMutability": "view",
      "type": "function"
    }
  ],
  "bytecode": "0x608060405234801561001057600080fd5b506040516119a43803806119a483398101604081905261002f91610054565b600180546001600160a01b0319166001600160a01b0392909216919091179055610084565b60006020828403121561006657600080fd5b81516001600160a01b038116811461007d57600080fd5b9392505050565b611911806100936000396000f3fe608060405234801561001057600080fd5b50600436106100925760003560e01c80637d522dfd116100665780637d522dfd1461011a578063a17a709414610122578063a82ba76f14610137578063ad05f1b41461014a578063ae73ccec1461015d57600080fd5b806207df30146100975780630bb4d82a146100c757806314ce8967146100f25780633013ce2914610107575b600080fd5b6100aa6100a5366004611361565b610165565b6040516100be9897969594939291906113dd565b60405180910390f35b6100da6100d5366004611438565b61024c565b6040516001600160a01b0390911681526020016100be565b6100fa610276565b6040516100be9190611451565b6001546100da906001600160a01b031681565b6100fa6105b2565b610135610130366004611361565b6108e3565b005b610135610145366004611361565b610a1e565b610135610158366004611513565b610c1f565b6100fa61101d565b6000602081815292815260408082209093529081522080546001820154600283015460038401546004850154600586015460068701546007880180546001600160a01b039889169998909716979596949560ff90941694929391926101c990611548565b80601f01602080910402602001604051908101604052809291908181526020018280546101f590611548565b80156102425780601f1061021757610100808354040283529160200191610242565b820191906000526020600020905b81548152906001019060200180831161022557829003601f168201915b5050505050905088565b6002818154811061025c57600080fd5b6000918252602090912001546001600160a01b0316905081565b60606000805b60025481101561034d5760006002828154811061029b5761029b611582565b60009182526020822001546001600160a01b031691505b6064811015610338576001600160a01b03821660009081526020818152604080832084845290915290206004015460ff1615801561031357506001600160a01b03821660009081526020818152604080832084845290915290206006015415155b15610326578361032281611598565b9450505b8061033081611598565b9150506102b2565b5050808061034590611598565b91505061027c565b5060008167ffffffffffffffff811115610369576103696115bf565b6040519080825280602002602001820160405280156103a257816020015b61038f6112f0565b8152602001906001900390816103875790505b5090506000805b6002548110156105a9576000600282815481106103c8576103c8611582565b60009182526020822001546001600160a01b031691505b6064811015610594576001600160a01b03821660009081526020818152604080832084845290915290206004015460ff1615801561044057506001600160a01b03821660009081526020818152604080832084845290915290206006015415155b15610582576001600160a01b0380831660009081526020818152604080832085845282529182902082516101008101845281548516815260018201549094169184019190915260028101549183019190915260038101546060830152600481015460ff1615156080830152600581015460a0830152600681015460c083015260078101805460e0840191906104d490611548565b80601f016020809104026020016040519081016040528092919081815260200182805461050090611548565b801561054d5780601f106105225761010080835404028352916020019161054d565b820191906000526020600020905b81548152906001019060200180831161053057829003601f168201915b50505050508152505085858151811061056857610568611582565b6020026020010181905250838061057e90611598565b9450505b8061058c81611598565b9150506103df565b505080806105a190611598565b9150506103a9565b50909392505050565b60606000805b600254811015610688576000600282815481106105d7576105d7611582565b60009182526020822001546001600160a01b031691505b6064811015610673576001600160a01b03821660009081526020818152604080832084845290915290206004015460ff1615801561064e57506001600160a01b038216600090815260208181526040808320848452909152902060060154155b15610661578361065d81611598565b9450505b8061066b81611598565b9150506105ee565b5050808061068090611598565b9150506105b8565b5060008167ffffffffffffffff8111156106a4576106a46115bf565b6040519080825280602002602001820160405280156106dd57816020015b6106ca6112f0565b8152602001906001900390816106c25790505b5090506000805b6002548110156105a95760006002828154811061070357610703611582565b60009182526020822001546001600160a01b031691505b60648110156108ce576001600160a01b03821660009081526020818152604080832084845290915290206004015460ff1615801561077a57506001600160a01b038216600090815260208181526040808320848452909152902060060154155b156108bc576001600160a01b0380831660009081526020818152604080832085845282529182902082516101008101845281548516815260018201549094169184019190915260028101549183019190915260038101546060830152600481015460ff1615156080830152600581015460a0830152600681015460c083015260078101805460e08401919061080e90611548565b80601f016020809104026020016040519081016040528092919081815260200182805461083a90611548565b80156108875780601f1061085c57610100808354040283529160200191610887565b820191906000526020600020905b81548152906001019060200180831161086a57829003601f168201915b5050505050815250508585815181106108a2576108a2611582565b602002602001018190525083806108b890611598565b9450505b806108c681611598565b91505061071a565b505080806108db90611598565b9150506106e4565b6001600160a01b0380831660009081526020818152604080832085845290915290208054909116331461094e5760405162461bcd60e51b815260206004820152600e60248201526d2737ba103a34329039b2b63632b960911b60448201526064015b60405180910390fd5b600481015460ff166109ad5760405162461bcd60e51b815260206004820152602260248201527f4e4654206e6f74206c6973746564206f7220616c72656164792064656c697374604482015261195960f21b6064820152608401610945565b60048101805460ff1916905542600682018190556003820154600583015460405185936001600160a01b0388169333937f85a3aff4038d07422ac388900d60bc8795136a85595e4b77153556467775a8b593610a11939060078a0190600090611652565b60405180910390a4505050565b6001600160a01b0382166000908152602081815260408083208484529091529020600481015460ff16610a865760405162461bcd60e51b815260206004820152601060248201526f4e4654206e6f7420666f722073616c6560801b6044820152606401610945565b600154815460038301546040516323b872dd60e01b81523360048201526001600160a01b0392831660248201526044810191909152859291909116906323b872dd906064016020604051808303816000875af1158015610aea573d6000803e3d6000fd5b505050506040513d601f19601f82011682018060405250810190610b0e919061168b565b610b4b5760405162461bcd60e51b815260206004820152600e60248201526d14185e5b595b9d0819985a5b195960921b6044820152606401610945565b8154604051632142170760e11b81526001600160a01b03918216600482015233602482015260448101859052908216906342842e0e90606401600060405180830381600087803b158015610b9e57600080fd5b505af1158015610bb2573d6000803e3d6000fd5b50505060048301805460ff191690555060006006830155600382015460405184916001600160a01b0387169133917f38723f9ba891c4b52ef012016b588a76db8d67415cc2cfda638de86cc889d22391610c11919060078901906116b4565b60405180910390a450505050565b6040516331a9108f60e11b8152600481018390528390819033906001600160a01b03831690636352211e90602401602060405180830381865afa158015610c6a573d6000803e3d6000fd5b505050506040513d601f19601f82011682018060405250810190610c8e91906116d5565b6001600160a01b031614610ce45760405162461bcd60e51b815260206004820152601860248201527f4e6f7420746865206f776e6572206f6620746865204e465400000000000000006044820152606401610945565b60405163e985e9c560e01b81523360048201523060248201526001600160a01b0383169063e985e9c590604401602060405180830381865afa158015610d2e573d6000803e3d6000fd5b505050506040513d601f19601f82011682018060405250810190610d52919061168b565b610d8c5760405162461bcd60e51b815260206004820152600b60248201526a139bc8185c1c1c9bdd985b60aa1b6044820152606401610945565b60405163c87b56dd60e01b8152600481018590526000906001600160a01b0383169063c87b56dd90602401600060405180830381865afa158015610dd4573d6000803e3d6000fd5b505050506040513d6000823e601f3d908101601f19168201604052610dfc91908101906116f2565b9050604051806101000160405280336001600160a01b03168152602001876001600160a01b031681526020018681526020018581526020016001151581526020014281526020016000815260200182815250600080886001600160a01b03166001600160a01b03168152602001908152602001600020600087815260200190815260200160002060008201518160000160006101000a8154816001600160a01b0302191690836001600160a01b0316021790555060208201518160010160006101000a8154816001600160a01b0302191690836001600160a01b03160217905550604082015181600201556060820151816003015560808201518160040160006101000a81548160ff02191690831515021790555060a0820151816005015560c0820151816006015560e0820151816007019081610f3a91906117ea565b5090505084866001600160a01b0316336001600160a01b03167f66a9e30dab651f7c6f5244d137b3fdbce8504ed7d2cca7fb32c909ac36e663c88760014287604051610f8994939291906118aa565b60405180910390a46001600160a01b03861660009081526003602052604090205460ff16611015576002805460018082019092557f405787fa12a823e0f2b7631cc41b3ba8828b3321ca811111fa75cd3aa3bb5ace0180546001600160a01b0319166001600160a01b0389169081179091556000908152600360205260409020805460ff191690911790555b505050505050565b60606000805b6002548110156110c45760006002828154811061104257611042611582565b60009182526020822001546001600160a01b031691505b60648110156110af576001600160a01b03821660009081526020818152604080832084845290915290206004015460ff161561109d578361109981611598565b9450505b806110a781611598565b915050611059565b505080806110bc90611598565b915050611023565b5060008167ffffffffffffffff8111156110e0576110e06115bf565b60405190808252806020026020018201604052801561111957816020015b6111066112f0565b8152602001906001900390816110fe5790505b5090506000805b6002548110156105a95760006002828154811061113f5761113f611582565b60009182526020822001546001600160a01b031691505b60648110156112db576001600160a01b03821660009081526020818152604080832084845290915290206004015460ff16156112c9576001600160a01b0380831660009081526020818152604080832085845282529182902082516101008101845281548516815260018201549094169184019190915260028101549183019190915260038101546060830152600481015460ff1615156080830152600581015460a0830152600681015460c083015260078101805460e08401919061121b90611548565b80601f016020809104026020016040519081016040528092919081815260200182805461124790611548565b80156112945780601f1061126957610100808354040283529160200191611294565b820191906000526020600020905b81548152906001019060200180831161127757829003601f168201915b5050505050815250508585815181106112af576112af611582565b602002602001018190525083806112c590611598565b9450505b806112d381611598565b915050611156565b505080806112e890611598565b915050611120565b60405180610100016040528060006001600160a01b0316815260200160006001600160a01b0316815260200160008152602001600081526020016000151581526020016000815260200160008152602001606081525090565b6001600160a01b038116811461135e57600080fd5b50565b6000806040838503121561137457600080fd5b823561137f81611349565b946020939093013593505050565b60005b838110156113a8578181015183820152602001611390565b50506000910152565b600081518084526113c981602086016020860161138d565b601f01601f19169290920160200192915050565b600061010060018060a01b03808c168452808b1660208501525088604084015287606084015286151560808401528560a08401528460c08401528060e0840152611429818401856113b1565b9b9a5050505050505050505050565b60006020828403121561144a57600080fd5b5035919050565b60006020808301818452808551808352604092508286019150828160051b87010184880160005b8381101561150557888303603f19018552815180516001600160a01b03908116855288820151168885015286810151878501526060808201519085015260808082015115159085015260a0808201519085015260c0808201519085015260e090810151610100918501829052906114f1818601836113b1565b968901969450505090860190600101611478565b509098975050505050505050565b60008060006060848603121561152857600080fd5b833561153381611349565b95602085013595506040909401359392505050565b600181811c9082168061155c57607f821691505b60208210810361157c57634e487b7160e01b600052602260045260246000fd5b50919050565b634e487b7160e01b600052603260045260246000fd5b6000600182016115b857634e487b7160e01b600052601160045260246000fd5b5060010190565b634e487b7160e01b600052604160045260246000fd5b600081546115e281611548565b8085526020600183811680156115ff576001811461161957611647565b60ff1985168884015283151560051b880183019550611647565b866000528260002060005b8581101561163f5781548a8201860152908301908401611624565b890184019650505b505050505092915050565b85815284602082015283604082015260a06060820152600061167760a08301856115d5565b905082151560808301529695505050505050565b60006020828403121561169d57600080fd5b815180151581146116ad57600080fd5b9392505050565b8281526040602082015260006116cd60408301846115d5565b949350505050565b6000602082840312156116e757600080fd5b81516116ad81611349565b60006020828403121561170457600080fd5b815167ffffffffffffffff8082111561171c57600080fd5b818401915084601f83011261173057600080fd5b815181811115611742576117426115bf565b604051601f8201601f19908116603f0116810190838211818310171561176a5761176a6115bf565b8160405282815287602084870101111561178357600080fd5b61179483602083016020880161138d565b979650505050505050565b601f8211156117e557600081815260208120601f850160051c810160208610156117c65750805b601f850160051c820191505b81811015611015578281556001016117d2565b505050565b815167ffffffffffffffff811115611804576118046115bf565b611818816118128454611548565b8461179f565b602080601f83116001811461184d57600084156118355750858301515b600019600386901b1c1916600185901b178555611015565b600085815260208120601f198616915b8281101561187c5788860151825594840194600190910190840161185d565b508582101561189a5787850151600019600388901b60f8161c191681555b5050505050600190811b01905550565b84815283151560208201528260408201526080606082015260006118d160808301846113b1565b969550505050505056fea2646970667358221220ff955bab3aec10f71f18ab30f799a6b87959fe7aedfb9adeb01fcf12c74ad62164736f6c63430008140033",
  "linkReferences": {},
  "deployedLinkReferences": {}
}