{
  "_format": "hh-sol-artifact-1",
  "contractName": "NFTMarket",
  "sourceName": "contracts/NFTMarket.sol",
  "abi": [
    {
      "inputs": [
        {
          "internalType": "address",
          "name": "_paymentToken",
          "type": "address"
        }
      ],
      "stateMutability": "nonpayable",
      "type": "constructor"
    },
    {
      "anonymous": false,
      "inputs": [
        {
          "indexed": true,
          "internalType": "address",
          "name": "nftAddress",
          "type": "address"
        },
        {
          "indexed": true,
          "internalType": "uint256",
          "name": "tokenId",
          "type": "uint256"
        },
        {
          "indexed": false,
          "internalType": "address",
          "name": "buyer",
          "type": "address"
        },
        {
          "indexed": false,
          "internalType": "uint256",
          "name": "price",
          "type": "uint256"
        }
      ],
      "name": "NFTBought",
      "type": "event"
    },
    {
      "anonymous": false,
      "inputs": [
        {
          "indexed": true,
          "internalType": "address",
          "name": "nftAddress",
          "type": "address"
        },
        {
          "indexed": true,
          "internalType": "uint256",
          "name": "tokenId",
          "type": "uint256"
        },
        {
          "indexed": false,
          "internalType": "address",
          "name": "seller",
          "type": "address"
        },
        {
          "indexed": false,
          "internalType": "uint256",
          "name": "price",
          "type": "uint256"
        }
      ],
      "name": "NFTListed",
      "type": "event"
    },
    {
      "inputs": [
        {
          "internalType": "uint256",
          "name": "",
          "type": "uint256"
        }
      ],
      "name": "allListings",
      "outputs": [
        {
          "internalType": "address",
          "name": "nftAddress",
          "type": "address"
        },
        {
          "internalType": "uint256",
          "name": "tokenId",
          "type": "uint256"
        },
        {
          "internalType": "address",
          "name": "seller",
          "type": "address"
        },
        {
          "internalType": "uint256",
          "name": "price",
          "type": "uint256"
        }
      ],
      "stateMutability": "view",
      "type": "function"
    },
    {
      "inputs": [
        {
          "internalType": "uint256",
          "name": "_index",
          "type": "uint256"
        }
      ],
      "name": "buyItem",
      "outputs": [],
      "stateMutability": "nonpayable",
      "type": "function"
    },
    {
      "inputs": [],
      "name": "getAllListings",
      "outputs": [
        {
          "components": [
            {
              "internalType": "address",
              "name": "nftAddress",
              "type": "address"
            },
            {
              "internalType": "uint256",
              "name": "tokenId",
              "type": "uint256"
            },
            {
              "internalType": "address",
              "name": "seller",
              "type": "address"
            },
            {
              "internalType": "uint256",
              "name": "price",
              "type": "uint256"
            }
          ],
          "internalType": "struct NFTMarket.Listing[]",
          "name": "",
          "type": "tuple[]"
        }
      ],
      "stateMutability": "view",
      "type": "function"
    },
    {
      "inputs": [
        {
          "internalType": "address",
          "name": "_nftAddress",
          "type": "address"
        },
        {
          "internalType": "uint256",
          "name": "_tokenId",
          "type": "uint256"
        },
        {
          "internalType": "uint256",
          "name": "_price",
          "type": "uint256"
        }
      ],
      "name": "listItem",
      "outputs": [],
      "stateMutability": "nonpayable",
      "type": "function"
    },
    {
      "inputs": [],
      "name": "paymentToken",
      "outputs": [
        {
          "internalType": "contract IERC20",
          "name": "",
          "type": "address"
        }
      ],
      "stateMutability": "view",
      "type": "function"
    }
  ],
  "bytecode": "0x608060405234801561001057600080fd5b50604051610ae1380380610ae183398101604081905261002f91610059565b6001600055600280546001600160a01b0319166001600160a01b0392909216919091179055610089565b60006020828403121561006b57600080fd5b81516001600160a01b038116811461008257600080fd5b9392505050565b610a49806100986000396000f3fe608060405234801561001057600080fd5b50600436106100675760003560e01c806389bfd38f1161005057806389bfd38f146100e8578063ae73ccec146100fd578063e7fb74c71461011257600080fd5b80630eeaa2ef1461006c5780633013ce29146100bd575b600080fd5b61007f61007a3660046108a7565b610125565b6040516100b494939291906001600160a01b039485168152602081019390935292166040820152606081019190915260800190565b60405180910390f35b6002546100d0906001600160a01b031681565b6040516001600160a01b0390911681526020016100b4565b6100fb6100f63660046108d5565b61016d565b005b61010561046b565b6040516100b4919061090a565b6100fb6101203660046108a7565b6104fa565b6001818154811061013557600080fd5b600091825260209091206004909102018054600182015460028301546003909301546001600160a01b03928316945090929091169084565b6040517f6352211e00000000000000000000000000000000000000000000000000000000815260048101839052839033906001600160a01b03831690636352211e90602401602060405180830381865afa1580156101cf573d6000803e3d6000fd5b505050506040513d601f19601f820116820180604052508101906101f3919061097a565b6001600160a01b03161461024e5760405162461bcd60e51b815260206004820152600d60248201527f4e6f7420746865206f776e65720000000000000000000000000000000000000060448201526064015b60405180910390fd5b6040517fe985e9c50000000000000000000000000000000000000000000000000000000081523360048201523060248201526001600160a01b0382169063e985e9c590604401602060405180830381865afa1580156102b1573d6000803e3d6000fd5b505050506040513d601f19601f820116820180604052508101906102d5919061099e565b6103215760405162461bcd60e51b815260206004820152600b60248201527f4e6f20617070726f76616c0000000000000000000000000000000000000000006044820152606401610245565b604080516080810182526001600160a01b03868116808352602080840188815233858701818152606087018a8152600180548082018255600091909152885160049091027fb10e2d527612073b26eecdfd717e6a320cf44b4afac2b0732d9fcbe2b7fa0cf681018054928a1673ffffffffffffffffffffffffffffffffffffffff1993841617905594517fb10e2d527612073b26eecdfd717e6a320cf44b4afac2b0732d9fcbe2b7fa0cf786015591517fb10e2d527612073b26eecdfd717e6a320cf44b4afac2b0732d9fcbe2b7fa0cf8850180549190981692169190911790955593517fb10e2d527612073b26eecdfd717e6a320cf44b4afac2b0732d9fcbe2b7fa0cf9909101558451928352820186905291928692917f392a0f172cb29479635d0b2219b2f96ef24f74dfdf328cb09f1496efe6cfddbe910160405180910390a35050505050565b60606001805480602002602001604051908101604052809291908181526020016000905b828210156104f1576000848152602090819020604080516080810182526004860290920180546001600160a01b03908116845260018083015485870152600283015490911692840192909252600301546060830152908352909201910161048f565b50505050905090565b61050261084e565b600060018281548110610517576105176109c0565b600091825260209182902060408051608081018252600490930290910180546001600160a01b0390811684526001820154948401949094526002810154909316908201819052600390920154606082015291506105b65760405162461bcd60e51b815260206004820152600a60248201527f4e6f74206c6973746564000000000000000000000000000000000000000000006044820152606401610245565b600254604082810151606084015191517f23b872dd0000000000000000000000000000000000000000000000000000000081523360048201526001600160a01b0391821660248201526044810192909252909116906323b872dd906064016020604051808303816000875af1158015610633573d6000803e3d6000fd5b505050506040513d601f19601f82011682018060405250810190610657919061099e565b508051604080830151602084015191517f42842e0e0000000000000000000000000000000000000000000000000000000081526001600160a01b0391821660048201523360248201526044810192909252909116906342842e0e90606401600060405180830381600087803b1580156106cf57600080fd5b505af11580156106e3573d6000803e3d6000fd5b5050600180549092506106f8915082906109d6565b81548110610708576107086109c0565b906000526020600020906004020160018381548110610729576107296109c0565b600091825260209091208254600490920201805473ffffffffffffffffffffffffffffffffffffffff199081166001600160a01b03938416178255600180850154818401556002808601549084018054909316941693909317905560039283015492019190915580548061079f5761079f6109fd565b6000828152602080822060046000199490940193840201805473ffffffffffffffffffffffffffffffffffffffff1990811682556001820184905560028201805490911690556003019190915591558181015182516060840151604080513381529485019190915291926001600160a01b03909116917fd049e2a63bc594b795843dbd138be07951c1fd96ef29b25ab85e74fc10f15085910160405180910390a35061084b6001600055565b50565b6002600054036108a05760405162461bcd60e51b815260206004820152601f60248201527f5265656e7472616e637947756172643a207265656e7472616e742063616c6c006044820152606401610245565b6002600055565b6000602082840312156108b957600080fd5b5035919050565b6001600160a01b038116811461084b57600080fd5b6000806000606084860312156108ea57600080fd5b83356108f5816108c0565b95602085013595506040909401359392505050565b602080825282518282018190526000919060409081850190868401855b8281101561096d57815180516001600160a01b03908116865287820151888701528682015116868601526060908101519085015260809093019290850190600101610927565b5091979650505050505050565b60006020828403121561098c57600080fd5b8151610997816108c0565b9392505050565b6000602082840312156109b057600080fd5b8151801515811461099757600080fd5b634e487b7160e01b600052603260045260246000fd5b818103818111156109f757634e487b7160e01b600052601160045260246000fd5b92915050565b634e487b7160e01b600052603160045260246000fdfea2646970667358221220ac34ebd4e038a63a75b11ba80bce4ff4c8de27bbaf6280c10433fac94144ea2464736f6c63430008180033",
  "linkReferences": {},
  "deployedLinkReferences": {}
}