{
  "_format": "hh-sol-artifact-1",
  "contractName": "MyNFT",
  "sourceName": "contracts/myNFT.sol",
  "abi": [
    {
      "inputs": [],
      "stateMutability": "nonpayable",
      "type": "constructor"
    },
    {
      "inputs": [
        {
          "internalType": "address",
          "name": "sender",
          "type": "address"
        },
        {
          "internalType": "uint256",
          "name": "tokenId",
          "type": "uint256"
        },
        {
          "internalType": "address",
          "name": "owner",
          "type": "address"
        }
      ],
      "name": "ERC721IncorrectOwner",
      "type": "error"
    },
    {
      "inputs": [
        {
          "internalType": "address",
          "name": "operator",
          "type": "address"
        },
        {
          "internalType": "uint256",
          "name": "tokenId",
          "type": "uint256"
        }
      ],
      "name": "ERC721InsufficientApproval",
      "type": "error"
    },
    {
      "inputs": [
        {
          "internalType": "address",
          "name": "approver",
          "type": "address"
        }
      ],
      "name": "ERC721InvalidApprover",
      "type": "error"
    },
    {
      "inputs": [
        {
          "internalType": "address",
          "name": "operator",
          "type": "address"
        }
      ],
      "name": "ERC721InvalidOperator",
      "type": "error"
    },
    {
      "inputs": [
        {
          "internalType": "address",
          "name": "owner",
          "type": "address"
        }
      ],
      "name": "ERC721InvalidOwner",
      "type": "error"
    },
    {
      "inputs": [
        {
          "internalType": "address",
          "name": "receiver",
          "type": "address"
        }
      ],
      "name": "ERC721InvalidReceiver",
      "type": "error"
    },
    {
      "inputs": [
        {
          "internalType": "address",
          "name": "sender",
          "type": "address"
        }
      ],
      "name": "ERC721InvalidSender",
      "type": "error"
    },
    {
      "inputs": [
        {
          "internalType": "uint256",
          "name": "tokenId",
          "type": "uint256"
        }
      ],
      "name": "ERC721NonexistentToken",
      "type": "error"
    },
    {
      "anonymous": false,
      "inputs": [
        {
          "indexed": true,
          "internalType": "address",
          "name": "owner",
          "type": "address"
        },
        {
          "indexed": true,
          "internalType": "address",
          "name": "approved",
          "type": "address"
        },
        {
          "indexed": true,
          "internalType": "uint256",
          "name": "tokenId",
          "type": "uint256"
        }
      ],
      "name": "Approval",
      "type": "event"
    },
    {
      "anonymous": false,
      "inputs": [
        {
          "indexed": true,
          "internalType": "address",
          "name": "owner",
          "type": "address"
        },
        {
          "indexed": true,
          "internalType": "address",
          "name": "operator",
          "type": "address"
        },
        {
          "indexed": false,
          "internalType": "bool",
          "name": "approved",
          "type": "bool"
        }
      ],
      "name": "ApprovalForAll",
      "type": "event"
    },
    {
      "anonymous": false,
      "inputs": [
        {
          "indexed": false,
          "internalType": "uint256",
          "name": "_fromTokenId",
          "type": "uint256"
        },
        {
          "indexed": false,
          "internalType": "uint256",
          "name": "_toTokenId",
          "type": "uint256"
        }
      ],
      "name": "BatchMetadataUpdate",
      "type": "event"
    },
    {
      "anonymous": false,
      "inputs": [
        {
          "indexed": false,
          "internalType": "uint256",
          "name": "_tokenId",
          "type": "uint256"
        }
      ],
      "name": "MetadataUpdate",
      "type": "event"
    },
    {
      "anonymous": false,
      "inputs": [
        {
          "indexed": true,
          "internalType": "address",
          "name": "from",
          "type": "address"
        },
        {
          "indexed": true,
          "internalType": "address",
          "name": "to",
          "type": "address"
        },
        {
          "indexed": true,
          "internalType": "uint256",
          "name": "tokenId",
          "type": "uint256"
        }
      ],
      "name": "Transfer",
      "type": "event"
    },
    {
      "inputs": [
        {
          "internalType": "address",
          "name": "to",
          "type": "address"
        },
        {
          "internalType": "uint256",
          "name": "tokenId",
          "type": "uint256"
        }
      ],
      "name": "approve",
      "outputs": [],
      "stateMutability": "nonpayable",
      "type": "function"
    },
    {
      "inputs": [
        {
          "internalType": "address",
          "name": "owner",
          "type": "address"
        }
      ],
      "name": "balanceOf",
      "outputs": [
        {
          "internalType": "uint256",
          "name": "",
          "type": "uint256"
        }
      ],
      "stateMutability": "view",
      "type": "function"
    },
    {
      "inputs": [
        {
          "internalType": "uint256",
          "name": "tokenId",
          "type": "uint256"
        }
      ],
      "name": "getApproved",
      "outputs": [
        {
          "internalType": "address",
          "name": "",
          "type": "address"
        }
      ],
      "stateMutability": "view",
      "type": "function"
    },
    {
      "inputs": [],
      "name": "getMintedButNotListedTokens",
      "outputs": [
        {
          "internalType": "uint256[]",
          "name": "",
          "type": "uint256[]"
        }
      ],
      "stateMutability": "view",
      "type": "function"
    },
    {
      "inputs": [
        {
          "internalType": "address",
          "name": "owner",
          "type": "address"
        },
        {
          "internalType": "address",
          "name": "operator",
          "type": "address"
        }
      ],
      "name": "isApprovedForAll",
      "outputs": [
        {
          "internalType": "bool",
          "name": "",
          "type": "bool"
        }
      ],
      "stateMutability": "view",
      "type": "function"
    },
    {
      "inputs": [
        {
          "internalType": "address",
          "name": "recipient",
          "type": "address"
        },
        {
          "internalType": "string",
          "name": "tokenURI",
          "type": "string"
        }
      ],
      "name": "mint",
      "outputs": [
        {
          "internalType": "uint256",
          "name": "",
          "type": "uint256"
        }
      ],
      "stateMutability": "nonpayable",
      "type": "function"
    },
    {
      "inputs": [
        {
          "internalType": "uint256",
          "name": "",
          "type": "uint256"
        }
      ],
      "name": "mintedTokens",
      "outputs": [
        {
          "internalType": "bool",
          "name": "",
          "type": "bool"
        }
      ],
      "stateMutability": "view",
      "type": "function"
    },
    {
      "inputs": [],
      "name": "name",
      "outputs": [
        {
          "internalType": "string",
          "name": "",
          "type": "string"
        }
      ],
      "stateMutability": "view",
      "type": "function"
    },
    {
      "inputs": [
        {
          "internalType": "uint256",
          "name": "tokenId",
          "type": "uint256"
        }
      ],
      "name": "ownerOf",
      "outputs": [
        {
          "internalType": "address",
          "name": "",
          "type": "address"
        }
      ],
      "stateMutability": "view",
      "type": "function"
    },
    {
      "inputs": [
        {
          "internalType": "address",
          "name": "from",
          "type": "address"
        },
        {
          "internalType": "address",
          "name": "to",
          "type": "address"
        },
        {
          "internalType": "uint256",
          "name": "tokenId",
          "type": "uint256"
        }
      ],
      "name": "safeTransferFrom",
      "outputs": [],
      "stateMutability": "nonpayable",
      "type": "function"
    },
    {
      "inputs": [
        {
          "internalType": "address",
          "name": "from",
          "type": "address"
        },
        {
          "internalType": "address",
          "name": "to",
          "type": "address"
        },
        {
          "internalType": "uint256",
          "name": "tokenId",
          "type": "uint256"
        },
        {
          "internalType": "bytes",
          "name": "data",
          "type": "bytes"
        }
      ],
      "name": "safeTransferFrom",
      "outputs": [],
      "stateMutability": "nonpayable",
      "type": "function"
    },
    {
      "inputs": [
        {
          "internalType": "address",
          "name": "operator",
          "type": "address"
        },
        {
          "internalType": "bool",
          "name": "approved",
          "type": "bool"
        }
      ],
      "name": "setApprovalForAll",
      "outputs": [],
      "stateMutability": "nonpayable",
      "type": "function"
    },
    {
      "inputs": [
        {
          "internalType": "bytes4",
          "name": "interfaceId",
          "type": "bytes4"
        }
      ],
      "name": "supportsInterface",
      "outputs": [
        {
          "internalType": "bool",
          "name": "",
          "type": "bool"
        }
      ],
      "stateMutability": "view",
      "type": "function"
    },
    {
      "inputs": [],
      "name": "symbol",
      "outputs": [
        {
          "internalType": "string",
          "name": "",
          "type": "string"
        }
      ],
      "stateMutability": "view",
      "type": "function"
    },
    {
      "inputs": [
        {
          "internalType": "uint256",
          "name": "tokenId",
          "type": "uint256"
        }
      ],
      "name": "tokenURI",
      "outputs": [
        {
          "internalType": "string",
          "name": "",
          "type": "string"
        }
      ],
      "stateMutability": "view",
      "type": "function"
    },
    {
      "inputs": [
        {
          "internalType": "address",
          "name": "from",
          "type": "address"
        },
        {
          "internalType": "address",
          "name": "to",
          "type": "address"
        },
        {
          "internalType": "uint256",
          "name": "tokenId",
          "type": "uint256"
        }
      ],
      "name": "transferFrom",
      "outputs": [],
      "stateMutability": "nonpayable",
      "type": "function"
    }
  ],
  "bytecode": "0x60806040523480156200001157600080fd5b5060405180604001604052806005815260200164135e53919560da1b815250604051806040016040528060048152602001631353919560e21b81525081600090816200005e91906200011b565b5060016200006d82826200011b565b505050620001e7565b634e487b7160e01b600052604160045260246000fd5b600181811c90821680620000a157607f821691505b602082108103620000c257634e487b7160e01b600052602260045260246000fd5b50919050565b601f8211156200011657600081815260208120601f850160051c81016020861015620000f15750805b601f850160051c820191505b818110156200011257828155600101620000fd565b5050505b505050565b81516001600160401b0381111562000137576200013762000076565b6200014f816200014884546200008c565b84620000c8565b602080601f8311600181146200018757600084156200016e5750858301515b600019600386901b1c1916600185901b17855562000112565b600085815260208120601f198616915b82811015620001b85788860151825594840194600190910190840162000197565b5085821015620001d75787850151600019600388901b60f8161c191681555b5050505050600190811b01905550565b61143480620001f76000396000f3fe608060405234801561001057600080fd5b50600436106101005760003560e01c806373085f6011610097578063b88d4fde11610066578063b88d4fde1461022f578063c87b56dd14610242578063d0def52114610255578063e985e9c51461026857600080fd5b806373085f60146101dc5780637ef758d4146101f157806395d89b4114610214578063a22cb4651461021c57600080fd5b806323b872dd116100d357806323b872dd1461018257806342842e0e146101955780636352211e146101a857806370a08231146101bb57600080fd5b806301ffc9a71461010557806306fdde031461012d578063081812fc14610142578063095ea7b31461016d575b600080fd5b610118610113366004610e9d565b61027b565b60405190151581526020015b60405180910390f35b6101356102a6565b6040516101249190610f0a565b610155610150366004610f1d565b610338565b6040516001600160a01b039091168152602001610124565b61018061017b366004610f52565b610361565b005b610180610190366004610f7c565b610370565b6101806101a3366004610f7c565b610400565b6101556101b6366004610f1d565b610420565b6101ce6101c9366004610fb8565b61042b565b604051908152602001610124565b6101e4610473565b6040516101249190610fd3565b6101186101ff366004610f1d565b60086020526000908152604090205460ff1681565b610135610528565b61018061022a366004611017565b610537565b61018061023d3660046110df565b610542565b610135610250366004610f1d565b610559565b6101ce61026336600461115b565b61066a565b6101186102763660046111bd565b61069e565b60006001600160e01b03198216632483248360e11b14806102a057506102a0826106cc565b92915050565b6060600080546102b5906111f0565b80601f01602080910402602001604051908101604052809291908181526020018280546102e1906111f0565b801561032e5780601f106103035761010080835404028352916020019161032e565b820191906000526020600020905b81548152906001019060200180831161031157829003601f168201915b5050505050905090565b60006103438261071c565b506000828152600460205260409020546001600160a01b03166102a0565b61036c828233610755565b5050565b6001600160a01b03821661039f57604051633250574960e11b8152600060048201526024015b60405180910390fd5b60006103ac838333610762565b9050836001600160a01b0316816001600160a01b0316146103fa576040516364283d7b60e01b81526001600160a01b0380861660048301526024820184905282166044820152606401610396565b50505050565b61041b83838360405180602001604052806000815250610542565b505050565b60006102a08261071c565b60006001600160a01b038216610457576040516322718ad960e21b815260006004820152602401610396565b506001600160a01b031660009081526003602052604090205490565b6060600060075467ffffffffffffffff81111561049257610492611053565b6040519080825280602002602001820160405280156104bb578160200160208202803683370190505b509050600060015b60075481116105205760008181526008602052604090205460ff1661050e57808383815181106104f5576104f561122a565b60209081029190910101528161050a81611240565b9250505b8061051881611240565b9150506104c3565b508152919050565b6060600180546102b5906111f0565b61036c33838361085b565b61054d848484610370565b6103fa848484846108fa565b60606105648261071c565b506000828152600660205260408120805461057e906111f0565b80601f01602080910402602001604051908101604052809291908181526020018280546105aa906111f0565b80156105f75780601f106105cc576101008083540402835291602001916105f7565b820191906000526020600020905b8154815290600101906020018083116105da57829003601f168201915b50505050509050600061061560408051602081019091526000815290565b90508051600003610627575092915050565b815115610659578082604051602001610641929190611267565b60405160208183030381529060405292505050919050565b61066284610a23565b949350505050565b600780546000918261067b83611240565b909155505060075461068d8482610a97565b6106978184610afc565b9392505050565b6001600160a01b03918216600090815260056020908152604080832093909416825291909152205460ff1690565b60006001600160e01b031982166380ac58cd60e01b14806106fd57506001600160e01b03198216635b5e139f60e01b145b806102a057506301ffc9a760e01b6001600160e01b03198316146102a0565b6000818152600260205260408120546001600160a01b0316806102a057604051637e27328960e01b815260048101849052602401610396565b61041b8383836001610b4c565b6000828152600260205260408120546001600160a01b039081169083161561078f5761078f818486610c52565b6001600160a01b038116156107cd576107ac600085600080610b4c565b6001600160a01b038116600090815260036020526040902080546000190190555b6001600160a01b038516156107fc576001600160a01b0385166000908152600360205260409020805460010190555b60008481526002602052604080822080546001600160a01b0319166001600160a01b0389811691821790925591518793918516917fddf252ad1be2c89b69c2b068fc378daa952ba7f163c4a11628f55a4df523b3ef91a4949350505050565b6001600160a01b03821661088d57604051630b61174360e31b81526001600160a01b0383166004820152602401610396565b6001600160a01b03838116600081815260056020908152604080832094871680845294825291829020805460ff191686151590811790915591519182527f17307eab39ab6107e8899845ad3d59bd9653f200f220920489ca2b5937696c31910160405180910390a3505050565b6001600160a01b0383163b156103fa57604051630a85bd0160e11b81526001600160a01b0384169063150b7a029061093c903390889087908790600401611296565b6020604051808303816000875af1925050508015610977575060408051601f3d908101601f19168201909252610974918101906112d3565b60015b6109e0573d8080156109a5576040519150601f19603f3d011682016040523d82523d6000602084013e6109aa565b606091505b5080516000036109d857604051633250574960e11b81526001600160a01b0385166004820152602401610396565b805181602001fd5b6001600160e01b03198116630a85bd0160e11b14610a1c57604051633250574960e11b81526001600160a01b0385166004820152602401610396565b5050505050565b6060610a2e8261071c565b506000610a4660408051602081019091526000815290565b90506000815111610a665760405180602001604052806000815250610697565b80610a7084610cb6565b604051602001610a81929190611267565b6040516020818303038152906040529392505050565b6001600160a01b038216610ac157604051633250574960e11b815260006004820152602401610396565b6000610acf83836000610762565b90506001600160a01b0381161561041b576040516339e3563760e11b815260006004820152602401610396565b6000828152600660205260409020610b14828261133e565b506040518281527ff8e1a15aba9398e019f0b49df1a4fde98ee17ae345cb5f6b5e2c27f5033e8ce79060200160405180910390a15050565b8080610b6057506001600160a01b03821615155b15610c22576000610b708461071c565b90506001600160a01b03831615801590610b9c5750826001600160a01b0316816001600160a01b031614155b8015610baf5750610bad818461069e565b155b15610bd85760405163a9fbf51f60e01b81526001600160a01b0384166004820152602401610396565b8115610c205783856001600160a01b0316826001600160a01b03167f8c5be1e5ebec7d5bd14f71427d1e84f3dd0314c0f7b2291e5b200ac8c7c3b92560405160405180910390a45b505b5050600090815260046020526040902080546001600160a01b0319166001600160a01b0392909216919091179055565b610c5d838383610d49565b61041b576001600160a01b038316610c8b57604051637e27328960e01b815260048101829052602401610396565b60405163177e802f60e01b81526001600160a01b038316600482015260248101829052604401610396565b60606000610cc383610dac565b600101905060008167ffffffffffffffff811115610ce357610ce3611053565b6040519080825280601f01601f191660200182016040528015610d0d576020820181803683370190505b5090508181016020015b600019016f181899199a1a9b1b9c1cb0b131b232b360811b600a86061a8153600a8504945084610d1757509392505050565b60006001600160a01b038316158015906106625750826001600160a01b0316846001600160a01b03161480610d835750610d83848461069e565b806106625750506000908152600460205260409020546001600160a01b03908116911614919050565b60008072184f03e93ff9f4daa797ed6e38ed64bf6a1f0160401b8310610deb5772184f03e93ff9f4daa797ed6e38ed64bf6a1f0160401b830492506040015b6d04ee2d6d415b85acef81000000008310610e17576d04ee2d6d415b85acef8100000000830492506020015b662386f26fc100008310610e3557662386f26fc10000830492506010015b6305f5e1008310610e4d576305f5e100830492506008015b6127108310610e6157612710830492506004015b60648310610e73576064830492506002015b600a83106102a05760010192915050565b6001600160e01b031981168114610e9a57600080fd5b50565b600060208284031215610eaf57600080fd5b813561069781610e84565b60005b83811015610ed5578181015183820152602001610ebd565b50506000910152565b60008151808452610ef6816020860160208601610eba565b601f01601f19169290920160200192915050565b6020815260006106976020830184610ede565b600060208284031215610f2f57600080fd5b5035919050565b80356001600160a01b0381168114610f4d57600080fd5b919050565b60008060408385031215610f6557600080fd5b610f6e83610f36565b946020939093013593505050565b600080600060608486031215610f9157600080fd5b610f9a84610f36565b9250610fa860208501610f36565b9150604084013590509250925092565b600060208284031215610fca57600080fd5b61069782610f36565b6020808252825182820181905260009190848201906040850190845b8181101561100b57835183529284019291840191600101610fef565b50909695505050505050565b6000806040838503121561102a57600080fd5b61103383610f36565b91506020830135801515811461104857600080fd5b809150509250929050565b634e487b7160e01b600052604160045260246000fd5b600067ffffffffffffffff8084111561108457611084611053565b604051601f8501601f19908116603f011681019082821181831017156110ac576110ac611053565b816040528093508581528686860111156110c557600080fd5b858560208301376000602087830101525050509392505050565b600080600080608085870312156110f557600080fd5b6110fe85610f36565b935061110c60208601610f36565b925060408501359150606085013567ffffffffffffffff81111561112f57600080fd5b8501601f8101871361114057600080fd5b61114f87823560208401611069565b91505092959194509250565b6000806040838503121561116e57600080fd5b61117783610f36565b9150602083013567ffffffffffffffff81111561119357600080fd5b8301601f810185136111a457600080fd5b6111b385823560208401611069565b9150509250929050565b600080604083850312156111d057600080fd5b6111d983610f36565b91506111e760208401610f36565b90509250929050565b600181811c9082168061120457607f821691505b60208210810361122457634e487b7160e01b600052602260045260246000fd5b50919050565b634e487b7160e01b600052603260045260246000fd5b60006001820161126057634e487b7160e01b600052601160045260246000fd5b5060010190565b60008351611279818460208801610eba565b83519083019061128d818360208801610eba565b01949350505050565b6001600160a01b03858116825284166020820152604081018390526080606082018190526000906112c990830184610ede565b9695505050505050565b6000602082840312156112e557600080fd5b815161069781610e84565b601f82111561041b57600081815260208120601f850160051c810160208610156113175750805b601f850160051c820191505b8181101561133657828155600101611323565b505050505050565b815167ffffffffffffffff81111561135857611358611053565b61136c8161136684546111f0565b846112f0565b602080601f8311600181146113a157600084156113895750858301515b600019600386901b1c1916600185901b178555611336565b600085815260208120601f198616915b828110156113d0578886015182559484019460019091019084016113b1565b50858210156113ee5787850151600019600388901b60f8161c191681555b5050505050600190811b0190555056fea264697066735822122007e9d524887455f243bc662d08acd84a65d2b1ebeae9731922b115d6fb0adc3264736f6c63430008140033",
  "linkReferences": {},
  "deployedLinkReferences": {}
}