{
  "address": "0xe7f1725E7734CE288F8367e1Bb143E90bb3F0512",
  "abi": [
    {
      "inputs": [
        {
          "internalType": "address",
          "name": "_paymentToken",
          "type": "address"
        }
      ],
      "stateMutability": "nonpayable",
      "type": "constructor"
    },
    {
      "inputs": [
        {
          "internalType": "string",
          "name": "message",
          "type": "string"
        }
      ],
      "name": "NftMarket__NotActive",
      "type": "error"
    },
    {
      "inputs": [
        {
          "internalType": "string",
          "name": "message",
          "type": "string"
        }
      ],
      "name": "NftMarket__NotApproved",
      "type": "error"
    },
    {
      "inputs": [
        {
          "internalType": "string",
          "name": "message",
          "type": "string"
        }
      ],
      "name": "NftMarket__NotOwnerOf",
      "type": "error"
    },
    {
      "inputs": [
        {
          "internalType": "string",
          "name": "message",
          "type": "string"
        }
      ],
      "name": "NftMarket__PaymentFailed",
      "type": "error"
    },
    {
      "anonymous": false,
      "inputs": [
        {
          "indexed": true,
          "internalType": "address",
          "name": "seller",
          "type": "address"
        },
        {
          "indexed": true,
          "internalType": "uint256",
          "name": "tokenId",
          "type": "uint256"
        },
        {
          "indexed": true,
          "internalType": "address",
          "name": "nftContract",
          "type": "address"
        },
        {
          "indexed": false,
          "internalType": "uint256",
          "name": "price",
          "type": "uint256"
        }
      ],
      "name": "NftListed",
      "type": "event"
    },
    {
      "anonymous": false,
      "inputs": [
        {
          "indexed": true,
          "internalType": "address",
          "name": "buyer",
          "type": "address"
        },
        {
          "indexed": true,
          "internalType": "uint256",
          "name": "tokenId",
          "type": "uint256"
        },
        {
          "indexed": true,
          "internalType": "address",
          "name": "nftContract",
          "type": "address"
        },
        {
          "indexed": false,
          "internalType": "uint256",
          "name": "price",
          "type": "uint256"
        }
      ],
      "name": "NftPurchased",
      "type": "event"
    },
    {
      "inputs": [
        {
          "internalType": "address",
          "name": "_nftContract",
          "type": "address"
        },
        {
          "internalType": "uint256",
          "name": "_tokenId",
          "type": "uint256"
        }
      ],
      "name": "buyNft",
      "outputs": [],
      "stateMutability": "nonpayable",
      "type": "function"
    },
    {
      "inputs": [],
      "name": "getListsArray",
      "outputs": [
        {
          "components": [
            {
              "internalType": "address",
              "name": "seller",
              "type": "address"
            },
            {
              "internalType": "address",
              "name": "nftContract",
              "type": "address"
            },
            {
              "internalType": "uint256",
              "name": "tokenId",
              "type": "uint256"
            },
            {
              "internalType": "uint256",
              "name": "price",
              "type": "uint256"
            },
            {
              "internalType": "bool",
              "name": "isActive",
              "type": "bool"
            }
          ],
          "internalType": "struct NftMarket.Listing[]",
          "name": "",
          "type": "tuple[]"
        }
      ],
      "stateMutability": "view",
      "type": "function"
    },
    {
      "inputs": [],
      "name": "i_paymentToken",
      "outputs": [
        {
          "internalType": "contract IERC20",
          "name": "",
          "type": "address"
        }
      ],
      "stateMutability": "view",
      "type": "function"
    },
    {
      "inputs": [
        {
          "internalType": "address",
          "name": "_nftContract",
          "type": "address"
        },
        {
          "internalType": "uint256",
          "name": "tokenId",
          "type": "uint256"
        },
        {
          "internalType": "uint256",
          "name": "price",
          "type": "uint256"
        }
      ],
      "name": "listNft",
      "outputs": [],
      "stateMutability": "nonpayable",
      "type": "function"
    },
    {
      "inputs": [
        {
          "internalType": "address",
          "name": "",
          "type": "address"
        },
        {
          "internalType": "uint256",
          "name": "",
          "type": "uint256"
        }
      ],
      "name": "s_listings",
      "outputs": [
        {
          "internalType": "address",
          "name": "seller",
          "type": "address"
        },
        {
          "internalType": "address",
          "name": "nftContract",
          "type": "address"
        },
        {
          "internalType": "uint256",
          "name": "tokenId",
          "type": "uint256"
        },
        {
          "internalType": "uint256",
          "name": "price",
          "type": "uint256"
        },
        {
          "internalType": "bool",
          "name": "isActive",
          "type": "bool"
        }
      ],
      "stateMutability": "view",
      "type": "function"
    }
  ],
  "transactionHash": "0x8bfa8df4685d4e67df9f76d2641ac3b7702cf5fefdc4453b8fe170b6fb8c60db",
  "args": [
    "0x5FbDB2315678afecb367f032d93F642f64180aa3"
  ],
  "numDeployments": 1,
  "solcInputHash": "783b419ba32410806b37ad78d6b4c00c",
  "bytecode": "0x60a06040523480156200001157600080fd5b5060405162001215380380620012158339818101604052810190620000379190620000e4565b60016000819055508073ffffffffffffffffffffffffffffffffffffffff1660808173ffffffffffffffffffffffffffffffffffffffff16815250505062000116565b600080fd5b600073ffffffffffffffffffffffffffffffffffffffff82169050919050565b6000620000ac826200007f565b9050919050565b620000be816200009f565b8114620000ca57600080fd5b50565b600081519050620000de81620000b3565b92915050565b600060208284031215620000fd57620000fc6200007a565b5b60006200010d84828501620000cd565b91505092915050565b6080516110dc62000139600039600081816102ea0152610a1501526110dc6000f3fe608060405234801561001057600080fd5b50600436106100575760003560e01c80630f7a7a8d1461005c5780634ddf4f8f1461007a578063a0b5a2ee14610096578063c922b17c146100ca578063cd2ae956146100e6575b600080fd5b610064610104565b6040516100719190610bc3565b60405180910390f35b610094600480360381019061008f9190610c42565b61023e565b005b6100b060048036038101906100ab9190610c42565b61050f565b6040516100c1959493929190610caf565b60405180910390f35b6100e460048036038101906100df9190610d02565b61059f565b005b6100ee610a13565b6040516100fb9190610db4565b60405180910390f35b60606002805480602002602001604051908101604052809291908181526020016000905b8282101561023557838290600052602060002090600502016040518060a00160405290816000820160009054906101000a900473ffffffffffffffffffffffffffffffffffffffff1673ffffffffffffffffffffffffffffffffffffffff1673ffffffffffffffffffffffffffffffffffffffff1681526020016001820160009054906101000a900473ffffffffffffffffffffffffffffffffffffffff1673ffffffffffffffffffffffffffffffffffffffff1673ffffffffffffffffffffffffffffffffffffffff16815260200160028201548152602001600382015481526020016004820160009054906101000a900460ff16151515158152505081526020019060010190610128565b50505050905090565b6000600160008473ffffffffffffffffffffffffffffffffffffffff1673ffffffffffffffffffffffffffffffffffffffff168152602001908152602001600020600083815260200190815260200160002090508060040160009054906101000a900460ff166102e3576040517fbe5d99180000000000000000000000000000000000000000000000000000000081526004016102da90610e2c565b60405180910390fd5b60008390507f000000000000000000000000000000000000000000000000000000000000000073ffffffffffffffffffffffffffffffffffffffff166323b872dd338460000160009054906101000a900473ffffffffffffffffffffffffffffffffffffffff1685600301546040518463ffffffff1660e01b815260040161036d93929190610e4c565b6020604051808303816000875af115801561038c573d6000803e3d6000fd5b505050506040513d601f19601f820116820180604052508101906103b09190610eaf565b6103ef576040517f9593b4810000000000000000000000000000000000000000000000000000000081526004016103e690610f28565b60405180910390fd5b8073ffffffffffffffffffffffffffffffffffffffff166342842e0e8360000160009054906101000a900473ffffffffffffffffffffffffffffffffffffffff1633866040518463ffffffff1660e01b815260040161045093929190610e4c565b600060405180830381600087803b15801561046a57600080fd5b505af115801561047e573d6000803e3d6000fd5b5050505060008260040160006101000a81548160ff0219169083151502179055508373ffffffffffffffffffffffffffffffffffffffff16833373ffffffffffffffffffffffffffffffffffffffff167f2fc5eefad2c7abf3de243dfce9d7ad1f31475139e163e1c8cef1ba87cb10fefd85600301546040516105019190610f48565b60405180910390a450505050565b6001602052816000526040600020602052806000526040600020600091509150508060000160009054906101000a900473ffffffffffffffffffffffffffffffffffffffff16908060010160009054906101000a900473ffffffffffffffffffffffffffffffffffffffff16908060020154908060030154908060040160009054906101000a900460ff16905085565b60008390503373ffffffffffffffffffffffffffffffffffffffff168173ffffffffffffffffffffffffffffffffffffffff16636352211e856040518263ffffffff1660e01b81526004016105f49190610f48565b602060405180830381865afa158015610611573d6000803e3d6000fd5b505050506040513d601f19601f820116820180604052508101906106359190610f78565b73ffffffffffffffffffffffffffffffffffffffff161461068b576040517f1901c65900000000000000000000000000000000000000000000000000000000815260040161068290610ff1565b60405180910390fd5b8073ffffffffffffffffffffffffffffffffffffffff1663e985e9c533306040518363ffffffff1660e01b81526004016106c6929190611011565b602060405180830381865afa1580156106e3573d6000803e3d6000fd5b505050506040513d601f19601f820116820180604052508101906107079190610eaf565b610746576040517fb85efa4500000000000000000000000000000000000000000000000000000000815260040161073d90611086565b60405180910390fd5b60006040518060a001604052803373ffffffffffffffffffffffffffffffffffffffff1681526020018673ffffffffffffffffffffffffffffffffffffffff16815260200185815260200184815260200160011515815250905080600160008773ffffffffffffffffffffffffffffffffffffffff1673ffffffffffffffffffffffffffffffffffffffff168152602001908152602001600020600086815260200190815260200160002060008201518160000160006101000a81548173ffffffffffffffffffffffffffffffffffffffff021916908373ffffffffffffffffffffffffffffffffffffffff16021790555060208201518160010160006101000a81548173ffffffffffffffffffffffffffffffffffffffff021916908373ffffffffffffffffffffffffffffffffffffffff160217905550604082015181600201556060820151816003015560808201518160040160006101000a81548160ff021916908315150217905550905050600281908060018154018082558091505060019003906000526020600020906005020160009091909190915060008201518160000160006101000a81548173ffffffffffffffffffffffffffffffffffffffff021916908373ffffffffffffffffffffffffffffffffffffffff16021790555060208201518160010160006101000a81548173ffffffffffffffffffffffffffffffffffffffff021916908373ffffffffffffffffffffffffffffffffffffffff160217905550604082015181600201556060820151816003015560808201518160040160006101000a81548160ff02191690831515021790555050508473ffffffffffffffffffffffffffffffffffffffff16843373ffffffffffffffffffffffffffffffffffffffff167fe77c968bf19b7719db31a77b3b1392ff896ba9e80d49e57381106452c9d7cc2686604051610a049190610f48565b60405180910390a45050505050565b7f000000000000000000000000000000000000000000000000000000000000000081565b600081519050919050565b600082825260208201905092915050565b6000819050602082019050919050565b600073ffffffffffffffffffffffffffffffffffffffff82169050919050565b6000610a8e82610a63565b9050919050565b610a9e81610a83565b82525050565b6000819050919050565b610ab781610aa4565b82525050565b60008115159050919050565b610ad281610abd565b82525050565b60a082016000820151610aee6000850182610a95565b506020820151610b016020850182610a95565b506040820151610b146040850182610aae565b506060820151610b276060850182610aae565b506080820151610b3a6080850182610ac9565b50505050565b6000610b4c8383610ad8565b60a08301905092915050565b6000602082019050919050565b6000610b7082610a37565b610b7a8185610a42565b9350610b8583610a53565b8060005b83811015610bb6578151610b9d8882610b40565b9750610ba883610b58565b925050600181019050610b89565b5085935050505092915050565b60006020820190508181036000830152610bdd8184610b65565b905092915050565b600080fd5b610bf381610a83565b8114610bfe57600080fd5b50565b600081359050610c1081610bea565b92915050565b610c1f81610aa4565b8114610c2a57600080fd5b50565b600081359050610c3c81610c16565b92915050565b60008060408385031215610c5957610c58610be5565b5b6000610c6785828601610c01565b9250506020610c7885828601610c2d565b9150509250929050565b610c8b81610a83565b82525050565b610c9a81610aa4565b82525050565b610ca981610abd565b82525050565b600060a082019050610cc46000830188610c82565b610cd16020830187610c82565b610cde6040830186610c91565b610ceb6060830185610c91565b610cf86080830184610ca0565b9695505050505050565b600080600060608486031215610d1b57610d1a610be5565b5b6000610d2986828701610c01565b9350506020610d3a86828701610c2d565b9250506040610d4b86828701610c2d565b9150509250925092565b6000819050919050565b6000610d7a610d75610d7084610a63565b610d55565b610a63565b9050919050565b6000610d8c82610d5f565b9050919050565b6000610d9e82610d81565b9050919050565b610dae81610d93565b82525050565b6000602082019050610dc96000830184610da5565b92915050565b600082825260208201905092915050565b7f4e4654206e6f7420616374697665000000000000000000000000000000000000600082015250565b6000610e16600e83610dcf565b9150610e2182610de0565b602082019050919050565b60006020820190508181036000830152610e4581610e09565b9050919050565b6000606082019050610e616000830186610c82565b610e6e6020830185610c82565b610e7b6040830184610c91565b949350505050565b610e8c81610abd565b8114610e9757600080fd5b50565b600081519050610ea981610e83565b92915050565b600060208284031215610ec557610ec4610be5565b5b6000610ed384828501610e9a565b91505092915050565b7f7061796d656e74206661696c6564000000000000000000000000000000000000600082015250565b6000610f12600e83610dcf565b9150610f1d82610edc565b602082019050919050565b60006020820190508181036000830152610f4181610f05565b9050919050565b6000602082019050610f5d6000830184610c91565b92915050565b600081519050610f7281610bea565b92915050565b600060208284031215610f8e57610f8d610be5565b5b6000610f9c84828501610f63565b91505092915050565b7f6e6f7420746865206f776e6572206f6620746865204e46540000000000000000600082015250565b6000610fdb601883610dcf565b9150610fe682610fa5565b602082019050919050565b6000602082019050818103600083015261100a81610fce565b9050919050565b60006040820190506110266000830185610c82565b6110336020830184610c82565b9392505050565b7f6e6f7420617070726f7665640000000000000000000000000000000000000000600082015250565b6000611070600c83610dcf565b915061107b8261103a565b602082019050919050565b6000602082019050818103600083015261109f81611063565b905091905056fea26469706673582212200870aee182d7a210517e3b0c3ebdfbddc204b177e3f779245f3d0db5b7ec622564736f6c63430008140033",
  "devdoc": {
    "kind": "dev",
    "methods": {},
    "version": 1
  },
  "userdoc": {
    "kind": "user",
    "methods": {},
    "version": 1
  },
  "storageLayout": {
    "storage": [
      {
        "astId": 10,
        "contract": "contracts/NftMarket.sol:NftMarket",
        "label": "_status",
        "offset": 0,
        "slot": "0",
        "type": "t_uint256"
      },
      {
        "astId": 2941,
        "contract": "contracts/NftMarket.sol:NftMarket",
        "label": "s_listings",
        "offset": 0,
        "slot": "1",
        "type": "t_mapping(t_address,t_mapping(t_uint256,t_struct(Listing)2934_storage))"
      },
      {
        "astId": 2945,
        "contract": "contracts/NftMarket.sol:NftMarket",
        "label": "s_listsArray",
        "offset": 0,
        "slot": "2",
        "type": "t_array(t_struct(Listing)2934_storage)dyn_storage"
      }
    ],
    "types": {
      "t_address": {
        "encoding": "inplace",
        "label": "address",
        "numberOfBytes": "20"
      },
      "t_array(t_struct(Listing)2934_storage)dyn_storage": {
        "base": "t_struct(Listing)2934_storage",
        "encoding": "dynamic_array",
        "label": "struct NftMarket.Listing[]",
        "numberOfBytes": "32"
      },
      "t_bool": {
        "encoding": "inplace",
        "label": "bool",
        "numberOfBytes": "1"
      },
      "t_mapping(t_address,t_mapping(t_uint256,t_struct(Listing)2934_storage))": {
        "encoding": "mapping",
        "key": "t_address",
        "label": "mapping(address => mapping(uint256 => struct NftMarket.Listing))",
        "numberOfBytes": "32",
        "value": "t_mapping(t_uint256,t_struct(Listing)2934_storage)"
      },
      "t_mapping(t_uint256,t_struct(Listing)2934_storage)": {
        "encoding": "mapping",
        "key": "t_uint256",
        "label": "mapping(uint256 => struct NftMarket.Listing)",
        "numberOfBytes": "32",
        "value": "t_struct(Listing)2934_storage"
      },
      "t_struct(Listing)2934_storage": {
        "encoding": "inplace",
        "label": "struct NftMarket.Listing",
        "members": [
          {
            "astId": 2925,
            "contract": "contracts/NftMarket.sol:NftMarket",
            "label": "seller",
            "offset": 0,
            "slot": "0",
            "type": "t_address"
          },
          {
            "astId": 2927,
            "contract": "contracts/NftMarket.sol:NftMarket",
            "label": "nftContract",
            "offset": 0,
            "slot": "1",
            "type": "t_address"
          },
          {
            "astId": 2929,
            "contract": "contracts/NftMarket.sol:NftMarket",
            "label": "tokenId",
            "offset": 0,
            "slot": "2",
            "type": "t_uint256"
          },
          {
            "astId": 2931,
            "contract": "contracts/NftMarket.sol:NftMarket",
            "label": "price",
            "offset": 0,
            "slot": "3",
            "type": "t_uint256"
          },
          {
            "astId": 2933,
            "contract": "contracts/NftMarket.sol:NftMarket",
            "label": "isActive",
            "offset": 0,
            "slot": "4",
            "type": "t_bool"
          }
        ],
        "numberOfBytes": "160"
      },
      "t_uint256": {
        "encoding": "inplace",
        "label": "uint256",
        "numberOfBytes": "32"
      }
    }
  }
}