{
  "address": "0xDc64a140Aa3E981100a9becA4E685f962f0cF6C9",
  "abi": [
    {
      "inputs": [],
      "stateMutability": "nonpayable",
      "type": "constructor"
    },
    {
      "anonymous": false,
      "inputs": [
        {
          "indexed": true,
          "internalType": "address",
          "name": "owner",
          "type": "address"
        },
        {
          "indexed": true,
          "internalType": "address",
          "name": "approved",
          "type": "address"
        },
        {
          "indexed": true,
          "internalType": "uint256",
          "name": "tokenId",
          "type": "uint256"
        }
      ],
      "name": "Approval",
      "type": "event"
    },
    {
      "anonymous": false,
      "inputs": [
        {
          "indexed": true,
          "internalType": "address",
          "name": "owner",
          "type": "address"
        },
        {
          "indexed": true,
          "internalType": "address",
          "name": "operator",
          "type": "address"
        },
        {
          "indexed": false,
          "internalType": "bool",
          "name": "approved",
          "type": "bool"
        }
      ],
      "name": "ApprovalForAll",
      "type": "event"
    },
    {
      "anonymous": false,
      "inputs": [
        {
          "indexed": true,
          "internalType": "address",
          "name": "from",
          "type": "address"
        },
        {
          "indexed": true,
          "internalType": "address",
          "name": "to",
          "type": "address"
        },
        {
          "indexed": true,
          "internalType": "uint256",
          "name": "tokenId",
          "type": "uint256"
        }
      ],
      "name": "Transfer",
      "type": "event"
    },
    {
      "inputs": [
        {
          "internalType": "address",
          "name": "to",
          "type": "address"
        },
        {
          "internalType": "uint256",
          "name": "tokenId",
          "type": "uint256"
        }
      ],
      "name": "approve",
      "outputs": [],
      "stateMutability": "nonpayable",
      "type": "function"
    },
    {
      "inputs": [
        {
          "internalType": "address",
          "name": "owner",
          "type": "address"
        }
      ],
      "name": "balanceOf",
      "outputs": [
        {
          "internalType": "uint256",
          "name": "",
          "type": "uint256"
        }
      ],
      "stateMutability": "view",
      "type": "function"
    },
    {
      "inputs": [
        {
          "internalType": "uint256",
          "name": "tokenId",
          "type": "uint256"
        }
      ],
      "name": "getApproved",
      "outputs": [
        {
          "internalType": "address",
          "name": "",
          "type": "address"
        }
      ],
      "stateMutability": "view",
      "type": "function"
    },
    {
      "inputs": [
        {
          "internalType": "address",
          "name": "owner",
          "type": "address"
        },
        {
          "internalType": "address",
          "name": "operator",
          "type": "address"
        }
      ],
      "name": "isApprovedForAll",
      "outputs": [
        {
          "internalType": "bool",
          "name": "",
          "type": "bool"
        }
      ],
      "stateMutability": "view",
      "type": "function"
    },
    {
      "inputs": [
        {
          "internalType": "address",
          "name": "to",
          "type": "address"
        }
      ],
      "name": "mint",
      "outputs": [],
      "stateMutability": "nonpayable",
      "type": "function"
    },
    {
      "inputs": [],
      "name": "name",
      "outputs": [
        {
          "internalType": "string",
          "name": "",
          "type": "string"
        }
      ],
      "stateMutability": "view",
      "type": "function"
    },
    {
      "inputs": [
        {
          "internalType": "uint256",
          "name": "tokenId",
          "type": "uint256"
        }
      ],
      "name": "ownerOf",
      "outputs": [
        {
          "internalType": "address",
          "name": "",
          "type": "address"
        }
      ],
      "stateMutability": "view",
      "type": "function"
    },
    {
      "inputs": [
        {
          "internalType": "address",
          "name": "from",
          "type": "address"
        },
        {
          "internalType": "address",
          "name": "to",
          "type": "address"
        },
        {
          "internalType": "uint256",
          "name": "tokenId",
          "type": "uint256"
        }
      ],
      "name": "safeTransferFrom",
      "outputs": [],
      "stateMutability": "nonpayable",
      "type": "function"
    },
    {
      "inputs": [
        {
          "internalType": "address",
          "name": "from",
          "type": "address"
        },
        {
          "internalType": "address",
          "name": "to",
          "type": "address"
        },
        {
          "internalType": "uint256",
          "name": "tokenId",
          "type": "uint256"
        },
        {
          "internalType": "bytes",
          "name": "data",
          "type": "bytes"
        }
      ],
      "name": "safeTransferFrom",
      "outputs": [],
      "stateMutability": "nonpayable",
      "type": "function"
    },
    {
      "inputs": [
        {
          "internalType": "address",
          "name": "operator",
          "type": "address"
        },
        {
          "internalType": "bool",
          "name": "approved",
          "type": "bool"
        }
      ],
      "name": "setApprovalForAll",
      "outputs": [],
      "stateMutability": "nonpayable",
      "type": "function"
    },
    {
      "inputs": [
        {
          "internalType": "bytes4",
          "name": "interfaceId",
          "type": "bytes4"
        }
      ],
      "name": "supportsInterface",
      "outputs": [
        {
          "internalType": "bool",
          "name": "",
          "type": "bool"
        }
      ],
      "stateMutability": "view",
      "type": "function"
    },
    {
      "inputs": [],
      "name": "symbol",
      "outputs": [
        {
          "internalType": "string",
          "name": "",
          "type": "string"
        }
      ],
      "stateMutability": "view",
      "type": "function"
    },
    {
      "inputs": [
        {
          "internalType": "uint256",
          "name": "",
          "type": "uint256"
        }
      ],
      "name": "tokenIdOwners",
      "outputs": [
        {
          "internalType": "address",
          "name": "",
          "type": "address"
        }
      ],
      "stateMutability": "view",
      "type": "function"
    },
    {
      "inputs": [
        {
          "internalType": "uint256",
          "name": "tokenId",
          "type": "uint256"
        }
      ],
      "name": "tokenURI",
      "outputs": [
        {
          "internalType": "string",
          "name": "",
          "type": "string"
        }
      ],
      "stateMutability": "view",
      "type": "function"
    },
    {
      "inputs": [
        {
          "internalType": "address",
          "name": "from",
          "type": "address"
        },
        {
          "internalType": "address",
          "name": "to",
          "type": "address"
        },
        {
          "internalType": "uint256",
          "name": "tokenId",
          "type": "uint256"
        }
      ],
      "name": "transferFrom",
      "outputs": [],
      "stateMutability": "nonpayable",
      "type": "function"
    }
  ],
  "transactionHash": "0x1896a3e1c07a67da44b90330492ccb2f397a2794e176d1752abd5c638d401236",
  "args": [],
  "numDeployments": 2,
  "solcInputHash": "394ffbba7c866b67453d99ab3d3f3589",
  "bytecode": "0x60806040523480156200001157600080fd5b506040518060400160405280600881526020017f4e6674546f6b656e0000000000000000000000000000000000000000000000008152506040518060400160405280600281526020017f4e5400000000000000000000000000000000000000000000000000000000000081525081600090816200008f91906200034c565b508060019081620000a191906200034c565b505050620000b66006620000bc60201b60201c565b62000433565b6001816000016000828254019250508190555050565b600081519050919050565b7f4e487b7100000000000000000000000000000000000000000000000000000000600052604160045260246000fd5b7f4e487b7100000000000000000000000000000000000000000000000000000000600052602260045260246000fd5b600060028204905060018216806200015457607f821691505b6020821081036200016a57620001696200010c565b5b50919050565b60008190508160005260206000209050919050565b60006020601f8301049050919050565b600082821b905092915050565b600060088302620001d47fffffffffffffffffffffffffffffffffffffffffffffffffffffffffffffffff8262000195565b620001e0868362000195565b95508019841693508086168417925050509392505050565b6000819050919050565b6000819050919050565b60006200022d620002276200022184620001f8565b62000202565b620001f8565b9050919050565b6000819050919050565b62000249836200020c565b62000261620002588262000234565b848454620001a2565b825550505050565b600090565b6200027862000269565b620002858184846200023e565b505050565b5b81811015620002ad57620002a16000826200026e565b6001810190506200028b565b5050565b601f821115620002fc57620002c68162000170565b620002d18462000185565b81016020851015620002e1578190505b620002f9620002f08562000185565b8301826200028a565b50505b505050565b600082821c905092915050565b6000620003216000198460080262000301565b1980831691505092915050565b60006200033c83836200030e565b9150826002028217905092915050565b6200035782620000d2565b67ffffffffffffffff811115620003735762000372620000dd565b5b6200037f82546200013b565b6200038c828285620002b1565b600060209050601f831160018114620003c45760008415620003af578287015190505b620003bb85826200032e565b8655506200042b565b601f198416620003d48662000170565b60005b82811015620003fe57848901518255600182019150602085019450602081019050620003d7565b868310156200041e57848901516200041a601f8916826200030e565b8355505b6001600288020188555050505b505050505050565b61260c80620004436000396000f3fe608060405234801561001057600080fd5b50600436106100f55760003560e01c80636352211e11610097578063a22cb46511610066578063a22cb46514610296578063b88d4fde146102b2578063c87b56dd146102ce578063e985e9c5146102fe576100f5565b80636352211e146101fc5780636a6278421461022c57806370a082311461024857806395d89b4114610278576100f5565b8063095ea7b3116100d3578063095ea7b31461017857806323b872dd1461019457806342842e0e146101b05780634884254a146101cc576100f5565b806301ffc9a7146100fa57806306fdde031461012a578063081812fc14610148575b600080fd5b610114600480360381019061010f91906118d4565b61032e565b604051610121919061191c565b60405180910390f35b610132610410565b60405161013f91906119c7565b60405180910390f35b610162600480360381019061015d9190611a1f565b6104a2565b60405161016f9190611a8d565b60405180910390f35b610192600480360381019061018d9190611ad4565b6104e8565b005b6101ae60048036038101906101a99190611b14565b6105ff565b005b6101ca60048036038101906101c59190611b14565b61065f565b005b6101e660048036038101906101e19190611a1f565b61067f565b6040516101f39190611a8d565b60405180910390f35b61021660048036038101906102119190611a1f565b6106b2565b6040516102239190611a8d565b60405180910390f35b61024660048036038101906102419190611b67565b610738565b005b610262600480360381019061025d9190611b67565b6107b0565b60405161026f9190611ba3565b60405180910390f35b610280610867565b60405161028d91906119c7565b60405180910390f35b6102b060048036038101906102ab9190611bea565b6108f9565b005b6102cc60048036038101906102c79190611d5f565b61090f565b005b6102e860048036038101906102e39190611a1f565b610971565b6040516102f591906119c7565b60405180910390f35b61031860048036038101906103139190611de2565b6109d9565b604051610325919061191c565b60405180910390f35b60007f80ac58cd000000000000000000000000000000000000000000000000000000007bffffffffffffffffffffffffffffffffffffffffffffffffffffffff1916827bffffffffffffffffffffffffffffffffffffffffffffffffffffffff191614806103f957507f5b5e139f000000000000000000000000000000000000000000000000000000007bffffffffffffffffffffffffffffffffffffffffffffffffffffffff1916827bffffffffffffffffffffffffffffffffffffffffffffffffffffffff1916145b80610409575061040882610a6d565b5b9050919050565b60606000805461041f90611e51565b80601f016020809104026020016040519081016040528092919081815260200182805461044b90611e51565b80156104985780601f1061046d57610100808354040283529160200191610498565b820191906000526020600020905b81548152906001019060200180831161047b57829003601f168201915b5050505050905090565b60006104ad82610ad7565b6004600083815260200190815260200160002060009054906101000a900473ffffffffffffffffffffffffffffffffffffffff169050919050565b60006104f3826106b2565b90508073ffffffffffffffffffffffffffffffffffffffff168373ffffffffffffffffffffffffffffffffffffffff1603610563576040517f08c379a000000000000000000000000000000000000000000000000000000000815260040161055a90611ef4565b60405180910390fd5b8073ffffffffffffffffffffffffffffffffffffffff16610582610b22565b73ffffffffffffffffffffffffffffffffffffffff1614806105b157506105b0816105ab610b22565b6109d9565b5b6105f0576040517f08c379a00000000000000000000000000000000000000000000000000000000081526004016105e790611f86565b60405180910390fd5b6105fa8383610b2a565b505050565b61061061060a610b22565b82610be3565b61064f576040517f08c379a000000000000000000000000000000000000000000000000000000000815260040161064690612018565b60405180910390fd5b61065a838383610c78565b505050565b61067a8383836040518060200160405280600081525061090f565b505050565b60076020528060005260406000206000915054906101000a900473ffffffffffffffffffffffffffffffffffffffff1681565b6000806106be83610f71565b9050600073ffffffffffffffffffffffffffffffffffffffff168173ffffffffffffffffffffffffffffffffffffffff160361072f576040517f08c379a000000000000000000000000000000000000000000000000000000000815260040161072690612084565b60405180910390fd5b80915050919050565b60006107446006610fae565b90506107506006610fbc565b61075a8282610fd2565b816007600083815260200190815260200160002060006101000a81548173ffffffffffffffffffffffffffffffffffffffff021916908373ffffffffffffffffffffffffffffffffffffffff1602179055505050565b60008073ffffffffffffffffffffffffffffffffffffffff168273ffffffffffffffffffffffffffffffffffffffff1603610820576040517f08c379a000000000000000000000000000000000000000000000000000000000815260040161081790612116565b60405180910390fd5b600360008373ffffffffffffffffffffffffffffffffffffffff1673ffffffffffffffffffffffffffffffffffffffff168152602001908152602001600020549050919050565b60606001805461087690611e51565b80601f01602080910402602001604051908101604052809291908181526020018280546108a290611e51565b80156108ef5780601f106108c4576101008083540402835291602001916108ef565b820191906000526020600020905b8154815290600101906020018083116108d257829003601f168201915b5050505050905090565b61090b610904610b22565b8383610ff0565b5050565b61092061091a610b22565b83610be3565b61095f576040517f08c379a000000000000000000000000000000000000000000000000000000000815260040161095690612018565b60405180910390fd5b61096b8484848461115c565b50505050565b606061097c82610ad7565b60006109866111b8565b905060008151116109a657604051806020016040528060008152506109d1565b806109b0846111d8565b6040516020016109c1929190612172565b6040516020818303038152906040525b915050919050565b6000600560008473ffffffffffffffffffffffffffffffffffffffff1673ffffffffffffffffffffffffffffffffffffffff16815260200190815260200160002060008373ffffffffffffffffffffffffffffffffffffffff1673ffffffffffffffffffffffffffffffffffffffff16815260200190815260200160002060009054906101000a900460ff16905092915050565b60007f01ffc9a7000000000000000000000000000000000000000000000000000000007bffffffffffffffffffffffffffffffffffffffffffffffffffffffff1916827bffffffffffffffffffffffffffffffffffffffffffffffffffffffff1916149050919050565b610ae0816112a6565b610b1f576040517f08c379a0000000000000000000000000000000000000000000000000000000008152600401610b1690612084565b60405180910390fd5b50565b600033905090565b816004600083815260200190815260200160002060006101000a81548173ffffffffffffffffffffffffffffffffffffffff021916908373ffffffffffffffffffffffffffffffffffffffff160217905550808273ffffffffffffffffffffffffffffffffffffffff16610b9d836106b2565b73ffffffffffffffffffffffffffffffffffffffff167f8c5be1e5ebec7d5bd14f71427d1e84f3dd0314c0f7b2291e5b200ac8c7c3b92560405160405180910390a45050565b600080610bef836106b2565b90508073ffffffffffffffffffffffffffffffffffffffff168473ffffffffffffffffffffffffffffffffffffffff161480610c315750610c3081856109d9565b5b80610c6f57508373ffffffffffffffffffffffffffffffffffffffff16610c57846104a2565b73ffffffffffffffffffffffffffffffffffffffff16145b91505092915050565b8273ffffffffffffffffffffffffffffffffffffffff16610c98826106b2565b73ffffffffffffffffffffffffffffffffffffffff1614610cee576040517f08c379a0000000000000000000000000000000000000000000000000000000008152600401610ce590612208565b60405180910390fd5b600073ffffffffffffffffffffffffffffffffffffffff168273ffffffffffffffffffffffffffffffffffffffff1603610d5d576040517f08c379a0000000000000000000000000000000000000000000000000000000008152600401610d549061229a565b60405180910390fd5b610d6a83838360016112e7565b8273ffffffffffffffffffffffffffffffffffffffff16610d8a826106b2565b73ffffffffffffffffffffffffffffffffffffffff1614610de0576040517f08c379a0000000000000000000000000000000000000000000000000000000008152600401610dd790612208565b60405180910390fd5b6004600082815260200190815260200160002060006101000a81549073ffffffffffffffffffffffffffffffffffffffff02191690556001600360008573ffffffffffffffffffffffffffffffffffffffff1673ffffffffffffffffffffffffffffffffffffffff168152602001908152602001600020600082825403925050819055506001600360008473ffffffffffffffffffffffffffffffffffffffff1673ffffffffffffffffffffffffffffffffffffffff16815260200190815260200160002060008282540192505081905550816002600083815260200190815260200160002060006101000a81548173ffffffffffffffffffffffffffffffffffffffff021916908373ffffffffffffffffffffffffffffffffffffffff160217905550808273ffffffffffffffffffffffffffffffffffffffff168473ffffffffffffffffffffffffffffffffffffffff167fddf252ad1be2c89b69c2b068fc378daa952ba7f163c4a11628f55a4df523b3ef60405160405180910390a4610f6c83838360016112ed565b505050565b60006002600083815260200190815260200160002060009054906101000a900473ffffffffffffffffffffffffffffffffffffffff169050919050565b600081600001549050919050565b6001816000016000828254019250508190555050565b610fec8282604051806020016040528060008152506112f3565b5050565b8173ffffffffffffffffffffffffffffffffffffffff168373ffffffffffffffffffffffffffffffffffffffff160361105e576040517f08c379a000000000000000000000000000000000000000000000000000000000815260040161105590612306565b60405180910390fd5b80600560008573ffffffffffffffffffffffffffffffffffffffff1673ffffffffffffffffffffffffffffffffffffffff16815260200190815260200160002060008473ffffffffffffffffffffffffffffffffffffffff1673ffffffffffffffffffffffffffffffffffffffff16815260200190815260200160002060006101000a81548160ff0219169083151502179055508173ffffffffffffffffffffffffffffffffffffffff168373ffffffffffffffffffffffffffffffffffffffff167f17307eab39ab6107e8899845ad3d59bd9653f200f220920489ca2b5937696c318360405161114f919061191c565b60405180910390a3505050565b611167848484610c78565b6111738484848461134e565b6111b2576040517f08c379a00000000000000000000000000000000000000000000000000000000081526004016111a990612398565b60405180910390fd5b50505050565b60606040518060600160405280603481526020016125a360349139905090565b6060600060016111e7846114d5565b01905060008167ffffffffffffffff81111561120657611205611c34565b5b6040519080825280601f01601f1916602001820160405280156112385781602001600182028036833780820191505090505b509050600082602001820190505b60011561129b578080600190039150507f3031323334353637383961626364656600000000000000000000000000000000600a86061a8153600a858161128f5761128e6123b8565b5b04945060008503611246575b819350505050919050565b60008073ffffffffffffffffffffffffffffffffffffffff166112c883610f71565b73ffffffffffffffffffffffffffffffffffffffff1614159050919050565b50505050565b50505050565b6112fd8383611628565b61130a600084848461134e565b611349576040517f08c379a000000000000000000000000000000000000000000000000000000000815260040161134090612398565b60405180910390fd5b505050565b600061136f8473ffffffffffffffffffffffffffffffffffffffff16611845565b156114c8578373ffffffffffffffffffffffffffffffffffffffff1663150b7a02611398610b22565b8786866040518563ffffffff1660e01b81526004016113ba949392919061243c565b6020604051808303816000875af19250505080156113f657506040513d601f19601f820116820180604052508101906113f3919061249d565b60015b611478573d8060008114611426576040519150601f19603f3d011682016040523d82523d6000602084013e61142b565b606091505b506000815103611470576040517f08c379a000000000000000000000000000000000000000000000000000000000815260040161146790612398565b60405180910390fd5b805181602001fd5b63150b7a0260e01b7bffffffffffffffffffffffffffffffffffffffffffffffffffffffff1916817bffffffffffffffffffffffffffffffffffffffffffffffffffffffff1916149150506114cd565b600190505b949350505050565b600080600090507a184f03e93ff9f4daa797ed6e38ed64bf6a1f0100000000000000008310611533577a184f03e93ff9f4daa797ed6e38ed64bf6a1f0100000000000000008381611529576115286123b8565b5b0492506040810190505b6d04ee2d6d415b85acef81000000008310611570576d04ee2d6d415b85acef81000000008381611566576115656123b8565b5b0492506020810190505b662386f26fc10000831061159f57662386f26fc100008381611595576115946123b8565b5b0492506010810190505b6305f5e10083106115c8576305f5e10083816115be576115bd6123b8565b5b0492506008810190505b61271083106115ed5761271083816115e3576115e26123b8565b5b0492506004810190505b606483106116105760648381611606576116056123b8565b5b0492506002810190505b600a831061161f576001810190505b80915050919050565b600073ffffffffffffffffffffffffffffffffffffffff168273ffffffffffffffffffffffffffffffffffffffff1603611697576040517f08c379a000000000000000000000000000000000000000000000000000000000815260040161168e90612516565b60405180910390fd5b6116a0816112a6565b156116e0576040517f08c379a00000000000000000000000000000000000000000000000000000000081526004016116d790612582565b60405180910390fd5b6116ee6000838360016112e7565b6116f7816112a6565b15611737576040517f08c379a000000000000000000000000000000000000000000000000000000000815260040161172e90612582565b60405180910390fd5b6001600360008473ffffffffffffffffffffffffffffffffffffffff1673ffffffffffffffffffffffffffffffffffffffff16815260200190815260200160002060008282540192505081905550816002600083815260200190815260200160002060006101000a81548173ffffffffffffffffffffffffffffffffffffffff021916908373ffffffffffffffffffffffffffffffffffffffff160217905550808273ffffffffffffffffffffffffffffffffffffffff16600073ffffffffffffffffffffffffffffffffffffffff167fddf252ad1be2c89b69c2b068fc378daa952ba7f163c4a11628f55a4df523b3ef60405160405180910390a46118416000838360016112ed565b5050565b6000808273ffffffffffffffffffffffffffffffffffffffff163b119050919050565b6000604051905090565b600080fd5b600080fd5b60007fffffffff0000000000000000000000000000000000000000000000000000000082169050919050565b6118b18161187c565b81146118bc57600080fd5b50565b6000813590506118ce816118a8565b92915050565b6000602082840312156118ea576118e9611872565b5b60006118f8848285016118bf565b91505092915050565b60008115159050919050565b61191681611901565b82525050565b6000602082019050611931600083018461190d565b92915050565b600081519050919050565b600082825260208201905092915050565b60005b83811015611971578082015181840152602081019050611956565b60008484015250505050565b6000601f19601f8301169050919050565b600061199982611937565b6119a38185611942565b93506119b3818560208601611953565b6119bc8161197d565b840191505092915050565b600060208201905081810360008301526119e1818461198e565b905092915050565b6000819050919050565b6119fc816119e9565b8114611a0757600080fd5b50565b600081359050611a19816119f3565b92915050565b600060208284031215611a3557611a34611872565b5b6000611a4384828501611a0a565b91505092915050565b600073ffffffffffffffffffffffffffffffffffffffff82169050919050565b6000611a7782611a4c565b9050919050565b611a8781611a6c565b82525050565b6000602082019050611aa26000830184611a7e565b92915050565b611ab181611a6c565b8114611abc57600080fd5b50565b600081359050611ace81611aa8565b92915050565b60008060408385031215611aeb57611aea611872565b5b6000611af985828601611abf565b9250506020611b0a85828601611a0a565b9150509250929050565b600080600060608486031215611b2d57611b2c611872565b5b6000611b3b86828701611abf565b9350506020611b4c86828701611abf565b9250506040611b5d86828701611a0a565b9150509250925092565b600060208284031215611b7d57611b7c611872565b5b6000611b8b84828501611abf565b91505092915050565b611b9d816119e9565b82525050565b6000602082019050611bb86000830184611b94565b92915050565b611bc781611901565b8114611bd257600080fd5b50565b600081359050611be481611bbe565b92915050565b60008060408385031215611c0157611c00611872565b5b6000611c0f85828601611abf565b9250506020611c2085828601611bd5565b9150509250929050565b600080fd5b600080fd5b7f4e487b7100000000000000000000000000000000000000000000000000000000600052604160045260246000fd5b611c6c8261197d565b810181811067ffffffffffffffff82111715611c8b57611c8a611c34565b5b80604052505050565b6000611c9e611868565b9050611caa8282611c63565b919050565b600067ffffffffffffffff821115611cca57611cc9611c34565b5b611cd38261197d565b9050602081019050919050565b82818337600083830152505050565b6000611d02611cfd84611caf565b611c94565b905082815260208101848484011115611d1e57611d1d611c2f565b5b611d29848285611ce0565b509392505050565b600082601f830112611d4657611d45611c2a565b5b8135611d56848260208601611cef565b91505092915050565b60008060008060808587031215611d7957611d78611872565b5b6000611d8787828801611abf565b9450506020611d9887828801611abf565b9350506040611da987828801611a0a565b925050606085013567ffffffffffffffff811115611dca57611dc9611877565b5b611dd687828801611d31565b91505092959194509250565b60008060408385031215611df957611df8611872565b5b6000611e0785828601611abf565b9250506020611e1885828601611abf565b9150509250929050565b7f4e487b7100000000000000000000000000000000000000000000000000000000600052602260045260246000fd5b60006002820490506001821680611e6957607f821691505b602082108103611e7c57611e7b611e22565b5b50919050565b7f4552433732313a20617070726f76616c20746f2063757272656e74206f776e6560008201527f7200000000000000000000000000000000000000000000000000000000000000602082015250565b6000611ede602183611942565b9150611ee982611e82565b604082019050919050565b60006020820190508181036000830152611f0d81611ed1565b9050919050565b7f4552433732313a20617070726f76652063616c6c6572206973206e6f7420746f60008201527f6b656e206f776e6572206f7220617070726f76656420666f7220616c6c000000602082015250565b6000611f70603d83611942565b9150611f7b82611f14565b604082019050919050565b60006020820190508181036000830152611f9f81611f63565b9050919050565b7f4552433732313a2063616c6c6572206973206e6f7420746f6b656e206f776e6560008201527f72206f7220617070726f76656400000000000000000000000000000000000000602082015250565b6000612002602d83611942565b915061200d82611fa6565b604082019050919050565b6000602082019050818103600083015261203181611ff5565b9050919050565b7f4552433732313a20696e76616c696420746f6b656e2049440000000000000000600082015250565b600061206e601883611942565b915061207982612038565b602082019050919050565b6000602082019050818103600083015261209d81612061565b9050919050565b7f4552433732313a2061646472657373207a65726f206973206e6f74206120766160008201527f6c6964206f776e65720000000000000000000000000000000000000000000000602082015250565b6000612100602983611942565b915061210b826120a4565b604082019050919050565b6000602082019050818103600083015261212f816120f3565b9050919050565b600081905092915050565b600061214c82611937565b6121568185612136565b9350612166818560208601611953565b80840191505092915050565b600061217e8285612141565b915061218a8284612141565b91508190509392505050565b7f4552433732313a207472616e736665722066726f6d20696e636f72726563742060008201527f6f776e6572000000000000000000000000000000000000000000000000000000602082015250565b60006121f2602583611942565b91506121fd82612196565b604082019050919050565b60006020820190508181036000830152612221816121e5565b9050919050565b7f4552433732313a207472616e7366657220746f20746865207a65726f2061646460008201527f7265737300000000000000000000000000000000000000000000000000000000602082015250565b6000612284602483611942565b915061228f82612228565b604082019050919050565b600060208201905081810360008301526122b381612277565b9050919050565b7f4552433732313a20617070726f766520746f2063616c6c657200000000000000600082015250565b60006122f0601983611942565b91506122fb826122ba565b602082019050919050565b6000602082019050818103600083015261231f816122e3565b9050919050565b7f4552433732313a207472616e7366657220746f206e6f6e20455243373231526560008201527f63656976657220696d706c656d656e7465720000000000000000000000000000602082015250565b6000612382603283611942565b915061238d82612326565b604082019050919050565b600060208201905081810360008301526123b181612375565b9050919050565b7f4e487b7100000000000000000000000000000000000000000000000000000000600052601260045260246000fd5b600081519050919050565b600082825260208201905092915050565b600061240e826123e7565b61241881856123f2565b9350612428818560208601611953565b6124318161197d565b840191505092915050565b60006080820190506124516000830187611a7e565b61245e6020830186611a7e565b61246b6040830185611b94565b818103606083015261247d8184612403565b905095945050505050565b600081519050612497816118a8565b92915050565b6000602082840312156124b3576124b2611872565b5b60006124c184828501612488565b91505092915050565b7f4552433732313a206d696e7420746f20746865207a65726f2061646472657373600082015250565b6000612500602083611942565b915061250b826124ca565b602082019050919050565b6000602082019050818103600083015261252f816124f3565b9050919050565b7f4552433732313a20746f6b656e20616c7265616479206d696e74656400000000600082015250565b600061256c601c83611942565b915061257782612536565b602082019050919050565b6000602082019050818103600083015261259b8161255f565b905091905056fe68747470733a2f2f617661746172732e67697468756275736572636f6e74656e742e636f6d2f752f32343433323736333f763d34a2646970667358221220c594240e229d9d23d8336945d1ba135b5daea5c4ba84f27b702aaa745193cc7564736f6c63430008140033",
  "devdoc": {
    "events": {
      "Approval(address,address,uint256)": {
        "details": "Emitted when `owner` enables `approved` to manage the `tokenId` token."
      },
      "ApprovalForAll(address,address,bool)": {
        "details": "Emitted when `owner` enables or disables (`approved`) `operator` to manage all of its assets."
      },
      "Transfer(address,address,uint256)": {
        "details": "Emitted when `tokenId` token is transferred from `from` to `to`."
      }
    },
    "kind": "dev",
    "methods": {
      "approve(address,uint256)": {
        "details": "See {IERC721-approve}."
      },
      "balanceOf(address)": {
        "details": "See {IERC721-balanceOf}."
      },
      "getApproved(uint256)": {
        "details": "See {IERC721-getApproved}."
      },
      "isApprovedForAll(address,address)": {
        "details": "See {IERC721-isApprovedForAll}."
      },
      "name()": {
        "details": "See {IERC721Metadata-name}."
      },
      "ownerOf(uint256)": {
        "details": "See {IERC721-ownerOf}."
      },
      "safeTransferFrom(address,address,uint256)": {
        "details": "See {IERC721-safeTransferFrom}."
      },
      "safeTransferFrom(address,address,uint256,bytes)": {
        "details": "See {IERC721-safeTransferFrom}."
      },
      "setApprovalForAll(address,bool)": {
        "details": "See {IERC721-setApprovalForAll}."
      },
      "supportsInterface(bytes4)": {
        "details": "See {IERC165-supportsInterface}."
      },
      "symbol()": {
        "details": "See {IERC721Metadata-symbol}."
      },
      "tokenURI(uint256)": {
        "details": "See {IERC721Metadata-tokenURI}."
      },
      "transferFrom(address,address,uint256)": {
        "details": "See {IERC721-transferFrom}."
      }
    },
    "version": 1
  },
  "userdoc": {
    "kind": "user",
    "methods": {},
    "version": 1
  },
  "storageLayout": {
    "storage": [
      {
        "astId": 168,
        "contract": "contracts/NftToken.sol:NftToken",
        "label": "_name",
        "offset": 0,
        "slot": "0",
        "type": "t_string_storage"
      },
      {
        "astId": 170,
        "contract": "contracts/NftToken.sol:NftToken",
        "label": "_symbol",
        "offset": 0,
        "slot": "1",
        "type": "t_string_storage"
      },
      {
        "astId": 174,
        "contract": "contracts/NftToken.sol:NftToken",
        "label": "_owners",
        "offset": 0,
        "slot": "2",
        "type": "t_mapping(t_uint256,t_address)"
      },
      {
        "astId": 178,
        "contract": "contracts/NftToken.sol:NftToken",
        "label": "_balances",
        "offset": 0,
        "slot": "3",
        "type": "t_mapping(t_address,t_uint256)"
      },
      {
        "astId": 182,
        "contract": "contracts/NftToken.sol:NftToken",
        "label": "_tokenApprovals",
        "offset": 0,
        "slot": "4",
        "type": "t_mapping(t_uint256,t_address)"
      },
      {
        "astId": 188,
        "contract": "contracts/NftToken.sol:NftToken",
        "label": "_operatorApprovals",
        "offset": 0,
        "slot": "5",
        "type": "t_mapping(t_address,t_mapping(t_address,t_bool))"
      },
      {
        "astId": 3133,
        "contract": "contracts/NftToken.sol:NftToken",
        "label": "_tokenIdCounter",
        "offset": 0,
        "slot": "6",
        "type": "t_struct(Counter)1596_storage"
      },
      {
        "astId": 3137,
        "contract": "contracts/NftToken.sol:NftToken",
        "label": "tokenIdOwners",
        "offset": 0,
        "slot": "7",
        "type": "t_mapping(t_uint256,t_address)"
      }
    ],
    "types": {
      "t_address": {
        "encoding": "inplace",
        "label": "address",
        "numberOfBytes": "20"
      },
      "t_bool": {
        "encoding": "inplace",
        "label": "bool",
        "numberOfBytes": "1"
      },
      "t_mapping(t_address,t_bool)": {
        "encoding": "mapping",
        "key": "t_address",
        "label": "mapping(address => bool)",
        "numberOfBytes": "32",
        "value": "t_bool"
      },
      "t_mapping(t_address,t_mapping(t_address,t_bool))": {
        "encoding": "mapping",
        "key": "t_address",
        "label": "mapping(address => mapping(address => bool))",
        "numberOfBytes": "32",
        "value": "t_mapping(t_address,t_bool)"
      },
      "t_mapping(t_address,t_uint256)": {
        "encoding": "mapping",
        "key": "t_address",
        "label": "mapping(address => uint256)",
        "numberOfBytes": "32",
        "value": "t_uint256"
      },
      "t_mapping(t_uint256,t_address)": {
        "encoding": "mapping",
        "key": "t_uint256",
        "label": "mapping(uint256 => address)",
        "numberOfBytes": "32",
        "value": "t_address"
      },
      "t_string_storage": {
        "encoding": "bytes",
        "label": "string",
        "numberOfBytes": "32"
      },
      "t_struct(Counter)1596_storage": {
        "encoding": "inplace",
        "label": "struct Counters.Counter",
        "members": [
          {
            "astId": 1595,
            "contract": "contracts/NftToken.sol:NftToken",
            "label": "_value",
            "offset": 0,
            "slot": "0",
            "type": "t_uint256"
          }
        ],
        "numberOfBytes": "32"
      },
      "t_uint256": {
        "encoding": "inplace",
        "label": "uint256",
        "numberOfBytes": "32"
      }
    }
  }
}