{
	"members/xiangnuans/task3/contracts/NFTMarket.sol": {
		"NFTMarket": {
			"abi": [
				{
					"inputs": [
						{
							"internalType": "contract IERC20",
							"name": "_paymentToken",
							"type": "address"
						}
					],
					"stateMutability": "nonpayable",
					"type": "constructor"
				},
				{
					"anonymous": false,
					"inputs": [
						{
							"indexed": true,
							"internalType": "address",
							"name": "buyer",
							"type": "address"
						},
						{
							"indexed": true,
							"internalType": "address",
							"name": "nftContract",
							"type": "address"
						},
						{
							"indexed": true,
							"internalType": "uint256",
							"name": "tokenId",
							"type": "uint256"
						},
						{
							"indexed": false,
							"internalType": "uint256",
							"name": "price",
							"type": "uint256"
						}
					],
					"name": "NFTBought",
					"type": "event"
				},
				{
					"anonymous": false,
					"inputs": [
						{
							"indexed": true,
							"internalType": "address",
							"name": "seller",
							"type": "address"
						},
						{
							"indexed": true,
							"internalType": "address",
							"name": "nftContract",
							"type": "address"
						},
						{
							"indexed": true,
							"internalType": "uint256",
							"name": "tokenId",
							"type": "uint256"
						},
						{
							"indexed": false,
							"internalType": "uint256",
							"name": "price",
							"type": "uint256"
						}
					],
					"name": "NFTListed",
					"type": "event"
				},
				{
					"inputs": [
						{
							"internalType": "address",
							"name": "_nftContract",
							"type": "address"
						},
						{
							"internalType": "uint256",
							"name": "_tokenId",
							"type": "uint256"
						}
					],
					"name": "buyNFT",
					"outputs": [],
					"stateMutability": "nonpayable",
					"type": "function"
				},
				{
					"inputs": [
						{
							"internalType": "address",
							"name": "_nftContract",
							"type": "address"
						},
						{
							"internalType": "uint256",
							"name": "_tokenId",
							"type": "uint256"
						},
						{
							"internalType": "uint256",
							"name": "_price",
							"type": "uint256"
						}
					],
					"name": "listNFT",
					"outputs": [],
					"stateMutability": "nonpayable",
					"type": "function"
				},
				{
					"inputs": [
						{
							"internalType": "address",
							"name": "",
							"type": "address"
						},
						{
							"internalType": "uint256",
							"name": "",
							"type": "uint256"
						}
					],
					"name": "listings",
					"outputs": [
						{
							"internalType": "address",
							"name": "seller",
							"type": "address"
						},
						{
							"internalType": "address",
							"name": "nftContract",
							"type": "address"
						},
						{
							"internalType": "uint256",
							"name": "tokenId",
							"type": "uint256"
						},
						{
							"internalType": "uint256",
							"name": "price",
							"type": "uint256"
						},
						{
							"internalType": "bool",
							"name": "isActive",
							"type": "bool"
						}
					],
					"stateMutability": "view",
					"type": "function"
				},
				{
					"inputs": [],
					"name": "paymentToken",
					"outputs": [
						{
							"internalType": "contract IERC20",
							"name": "",
							"type": "address"
						}
					],
					"stateMutability": "view",
					"type": "function"
				}
			],
			"devdoc": {
				"kind": "dev",
				"methods": {},
				"version": 1
			},
			"evm": {
				"assembly": "    /* \"members/xiangnuans/task3/contracts/NFTMarket.sol\":175:2129  contract NFTMarket {... */\n  mstore(0x40, 0x80)\n    /* \"members/xiangnuans/task3/contracts/NFTMarket.sol\":758:845  constructor(IERC20 _paymentToken) {... */\n  callvalue\n  dup1\n  iszero\n  tag_1\n  jumpi\n  0x00\n  dup1\n  revert\ntag_1:\n  pop\n  mload(0x40)\n  sub(codesize, bytecodeSize)\n  dup1\n  bytecodeSize\n  dup4\n  codecopy\n  dup2\n  dup2\n  add\n  0x40\n  mstore\n  dup2\n  add\n  swap1\n  tag_2\n  swap2\n  swap1\n  tag_3\n  jump\t// in\ntag_2:\n    /* \"members/xiangnuans/task3/contracts/NFTMarket.sol\":824:837  _paymentToken */\n  dup1\n    /* \"members/xiangnuans/task3/contracts/NFTMarket.sol\":802:814  paymentToken */\n  0x01\n  0x00\n    /* \"members/xiangnuans/task3/contracts/NFTMarket.sol\":802:838  paymentToken = IERC20(_paymentToken) */\n  0x0100\n  exp\n  dup2\n  sload\n  dup2\n  0xffffffffffffffffffffffffffffffffffffffff\n  mul\n  not\n  and\n  swap1\n  dup4\n  0xffffffffffffffffffffffffffffffffffffffff\n  and\n  mul\n  or\n  swap1\n  sstore\n  pop\n    /* \"members/xiangnuans/task3/contracts/NFTMarket.sol\":758:845  constructor(IERC20 _paymentToken) {... */\n  pop\n    /* \"members/xiangnuans/task3/contracts/NFTMarket.sol\":175:2129  contract NFTMarket {... */\n  jump(tag_6)\n    /* \"#utility.yul\":88:205   */\ntag_8:\n    /* \"#utility.yul\":197:198   */\n  0x00\n    /* \"#utility.yul\":194:195   */\n  dup1\n    /* \"#utility.yul\":187:199   */\n  revert\n    /* \"#utility.yul\":334:460   */\ntag_10:\n    /* \"#utility.yul\":371:378   */\n  0x00\n    /* \"#utility.yul\":411:453   */\n  0xffffffffffffffffffffffffffffffffffffffff\n    /* \"#utility.yul\":404:409   */\n  dup3\n    /* \"#utility.yul\":400:454   */\n  and\n    /* \"#utility.yul\":389:454   */\n  swap1\n  pop\n    /* \"#utility.yul\":334:460   */\n  swap2\n  swap1\n  pop\n  jump\t// out\n    /* \"#utility.yul\":466:562   */\ntag_11:\n    /* \"#utility.yul\":503:510   */\n  0x00\n    /* \"#utility.yul\":532:556   */\n  tag_21\n    /* \"#utility.yul\":550:555   */\n  dup3\n    /* \"#utility.yul\":532:556   */\n  tag_10\n  jump\t// in\ntag_21:\n    /* \"#utility.yul\":521:556   */\n  swap1\n  pop\n    /* \"#utility.yul\":466:562   */\n  swap2\n  swap1\n  pop\n  jump\t// out\n    /* \"#utility.yul\":568:677   */\ntag_12:\n    /* \"#utility.yul\":618:625   */\n  0x00\n    /* \"#utility.yul\":647:671   */\n  tag_23\n    /* \"#utility.yul\":665:670   */\n  dup3\n    /* \"#utility.yul\":647:671   */\n  tag_11\n  jump\t// in\ntag_23:\n    /* \"#utility.yul\":636:671   */\n  swap1\n  pop\n    /* \"#utility.yul\":568:677   */\n  swap2\n  swap1\n  pop\n  jump\t// out\n    /* \"#utility.yul\":683:831   */\ntag_13:\n    /* \"#utility.yul\":769:806   */\n  tag_25\n    /* \"#utility.yul\":800:805   */\n  dup2\n    /* \"#utility.yul\":769:806   */\n  tag_12\n  jump\t// in\ntag_25:\n    /* \"#utility.yul\":762:767   */\n  dup2\n    /* \"#utility.yul\":759:807   */\n  eq\n    /* \"#utility.yul\":749:825   */\n  tag_26\n  jumpi\n    /* \"#utility.yul\":821:822   */\n  0x00\n    /* \"#utility.yul\":818:819   */\n  dup1\n    /* \"#utility.yul\":811:823   */\n  revert\n    /* \"#utility.yul\":749:825   */\ntag_26:\n    /* \"#utility.yul\":683:831   */\n  pop\n  jump\t// out\n    /* \"#utility.yul\":837:1006   */\ntag_14:\n    /* \"#utility.yul\":907:912   */\n  0x00\n    /* \"#utility.yul\":938:944   */\n  dup2\n    /* \"#utility.yul\":932:945   */\n  mload\n    /* \"#utility.yul\":923:945   */\n  swap1\n  pop\n    /* \"#utility.yul\":954:1000   */\n  tag_28\n    /* \"#utility.yul\":994:999   */\n  dup2\n    /* \"#utility.yul\":954:1000   */\n  tag_13\n  jump\t// in\ntag_28:\n    /* \"#utility.yul\":837:1006   */\n  swap3\n  swap2\n  pop\n  pop\n  jump\t// out\n    /* \"#utility.yul\":1012:1389   */\ntag_3:\n    /* \"#utility.yul\":1095:1101   */\n  0x00\n    /* \"#utility.yul\":1144:1146   */\n  0x20\n    /* \"#utility.yul\":1132:1141   */\n  dup3\n    /* \"#utility.yul\":1123:1130   */\n  dup5\n    /* \"#utility.yul\":1119:1142   */\n  sub\n    /* \"#utility.yul\":1115:1147   */\n  slt\n    /* \"#utility.yul\":1112:1231   */\n  iszero\n  tag_30\n  jumpi\n    /* \"#utility.yul\":1150:1229   */\n  tag_31\n  tag_8\n  jump\t// in\ntag_31:\n    /* \"#utility.yul\":1112:1231   */\ntag_30:\n    /* \"#utility.yul\":1270:1271   */\n  0x00\n    /* \"#utility.yul\":1295:1372   */\n  tag_32\n    /* \"#utility.yul\":1364:1371   */\n  dup5\n    /* \"#utility.yul\":1355:1361   */\n  dup3\n    /* \"#utility.yul\":1344:1353   */\n  dup6\n    /* \"#utility.yul\":1340:1362   */\n  add\n    /* \"#utility.yul\":1295:1372   */\n  tag_14\n  jump\t// in\ntag_32:\n    /* \"#utility.yul\":1285:1372   */\n  swap2\n  pop\n    /* \"#utility.yul\":1241:1382   */\n  pop\n    /* \"#utility.yul\":1012:1389   */\n  swap3\n  swap2\n  pop\n  pop\n  jump\t// out\n    /* \"members/xiangnuans/task3/contracts/NFTMarket.sol\":175:2129  contract NFTMarket {... */\ntag_6:\n  dataSize(sub_0)\n  dup1\n  dataOffset(sub_0)\n  0x00\n  codecopy\n  0x00\n  return\nstop\n\nsub_0: assembly {\n        /* \"members/xiangnuans/task3/contracts/NFTMarket.sol\":175:2129  contract NFTMarket {... */\n      mstore(0x40, 0x80)\n      callvalue\n      dup1\n      iszero\n      tag_1\n      jumpi\n      0x00\n      dup1\n      revert\n    tag_1:\n      pop\n      jumpi(tag_2, lt(calldatasize, 0x04))\n      shr(0xe0, calldataload(0x00))\n      dup1\n      0x07df30\n      eq\n      tag_3\n      jumpi\n      dup1\n      0x3013ce29\n      eq\n      tag_4\n      jumpi\n      dup1\n      0xa82ba76f\n      eq\n      tag_5\n      jumpi\n      dup1\n      0xad05f1b4\n      eq\n      tag_6\n      jumpi\n    tag_2:\n      0x00\n      dup1\n      revert\n        /* \"members/xiangnuans/task3/contracts/NFTMarket.sol\":352:415  mapping(address => mapping(uint256 => Listing)) public listings */\n    tag_3:\n      tag_7\n      0x04\n      dup1\n      calldatasize\n      sub\n      dup2\n      add\n      swap1\n      tag_8\n      swap2\n      swap1\n      tag_9\n      jump\t// in\n    tag_8:\n      tag_10\n      jump\t// in\n    tag_7:\n      mload(0x40)\n      tag_11\n      swap6\n      swap5\n      swap4\n      swap3\n      swap2\n      swap1\n      tag_12\n      jump\t// in\n    tag_11:\n      mload(0x40)\n      dup1\n      swap2\n      sub\n      swap1\n      return\n        /* \"members/xiangnuans/task3/contracts/NFTMarket.sol\":421:447  IERC20 public paymentToken */\n    tag_4:\n      tag_13\n      tag_14\n      jump\t// in\n    tag_13:\n      mload(0x40)\n      tag_15\n      swap2\n      swap1\n      tag_16\n      jump\t// in\n    tag_15:\n      mload(0x40)\n      dup1\n      swap2\n      sub\n      swap1\n      return\n        /* \"members/xiangnuans/task3/contracts/NFTMarket.sol\":1503:2127  function buyNFT(address _nftContract, uint256 _tokenId) external {... */\n    tag_5:\n      tag_17\n      0x04\n      dup1\n      calldatasize\n      sub\n      dup2\n      add\n      swap1\n      tag_18\n      swap2\n      swap1\n      tag_9\n      jump\t// in\n    tag_18:\n      tag_19\n      jump\t// in\n    tag_17:\n      stop\n        /* \"members/xiangnuans/task3/contracts/NFTMarket.sol\":851:1497  function listNFT(... */\n    tag_6:\n      tag_20\n      0x04\n      dup1\n      calldatasize\n      sub\n      dup2\n      add\n      swap1\n      tag_21\n      swap2\n      swap1\n      tag_22\n      jump\t// in\n    tag_21:\n      tag_23\n      jump\t// in\n    tag_20:\n      stop\n        /* \"members/xiangnuans/task3/contracts/NFTMarket.sol\":352:415  mapping(address => mapping(uint256 => Listing)) public listings */\n    tag_10:\n      mstore(0x20, 0x00)\n      dup2\n      0x00\n      mstore\n      mstore(0x20, keccak256(0x00, 0x40))\n      dup1\n      0x00\n      mstore\n      keccak256(0x00, 0x40)\n      0x00\n      swap2\n      pop\n      swap2\n      pop\n      pop\n      dup1\n      0x00\n      add\n      0x00\n      swap1\n      sload\n      swap1\n      0x0100\n      exp\n      swap1\n      div\n      0xffffffffffffffffffffffffffffffffffffffff\n      and\n      swap1\n      dup1\n      0x01\n      add\n      0x00\n      swap1\n      sload\n      swap1\n      0x0100\n      exp\n      swap1\n      div\n      0xffffffffffffffffffffffffffffffffffffffff\n      and\n      swap1\n      dup1\n      0x02\n      add\n      sload\n      swap1\n      dup1\n      0x03\n      add\n      sload\n      swap1\n      dup1\n      0x04\n      add\n      0x00\n      swap1\n      sload\n      swap1\n      0x0100\n      exp\n      swap1\n      div\n      0xff\n      and\n      swap1\n      pop\n      dup6\n      jump\t// out\n        /* \"members/xiangnuans/task3/contracts/NFTMarket.sol\":421:447  IERC20 public paymentToken */\n    tag_14:\n      0x01\n      0x00\n      swap1\n      sload\n      swap1\n      0x0100\n      exp\n      swap1\n      div\n      0xffffffffffffffffffffffffffffffffffffffff\n      and\n      dup2\n      jump\t// out\n        /* \"members/xiangnuans/task3/contracts/NFTMarket.sol\":1503:2127  function buyNFT(address _nftContract, uint256 _tokenId) external {... */\n    tag_19:\n        /* \"members/xiangnuans/task3/contracts/NFTMarket.sol\":1578:1601  Listing storage listing */\n      0x00\n        /* \"members/xiangnuans/task3/contracts/NFTMarket.sol\":1604:1612  listings */\n      dup1\n        /* \"members/xiangnuans/task3/contracts/NFTMarket.sol\":1604:1626  listings[_nftContract] */\n      0x00\n        /* \"members/xiangnuans/task3/contracts/NFTMarket.sol\":1613:1625  _nftContract */\n      dup5\n        /* \"members/xiangnuans/task3/contracts/NFTMarket.sol\":1604:1626  listings[_nftContract] */\n      0xffffffffffffffffffffffffffffffffffffffff\n      and\n      0xffffffffffffffffffffffffffffffffffffffff\n      and\n      dup2\n      mstore\n      0x20\n      add\n      swap1\n      dup2\n      mstore\n      0x20\n      add\n      0x00\n      keccak256\n        /* \"members/xiangnuans/task3/contracts/NFTMarket.sol\":1604:1636  listings[_nftContract][_tokenId] */\n      0x00\n        /* \"members/xiangnuans/task3/contracts/NFTMarket.sol\":1627:1635  _tokenId */\n      dup4\n        /* \"members/xiangnuans/task3/contracts/NFTMarket.sol\":1604:1636  listings[_nftContract][_tokenId] */\n      dup2\n      mstore\n      0x20\n      add\n      swap1\n      dup2\n      mstore\n      0x20\n      add\n      0x00\n      keccak256\n        /* \"members/xiangnuans/task3/contracts/NFTMarket.sol\":1578:1636  Listing storage listing = listings[_nftContract][_tokenId] */\n      swap1\n      pop\n        /* \"members/xiangnuans/task3/contracts/NFTMarket.sol\":1654:1661  listing */\n      dup1\n        /* \"members/xiangnuans/task3/contracts/NFTMarket.sol\":1654:1670  listing.isActive */\n      0x04\n      add\n      0x00\n      swap1\n      sload\n      swap1\n      0x0100\n      exp\n      swap1\n      div\n      0xff\n      and\n        /* \"members/xiangnuans/task3/contracts/NFTMarket.sol\":1646:1698  require(listing.isActive, \"Not not listed for sale\") */\n      tag_25\n      jumpi\n      mload(0x40)\n      0x08c379a000000000000000000000000000000000000000000000000000000000\n      dup2\n      mstore\n      0x04\n      add\n      tag_26\n      swap1\n      tag_27\n      jump\t// in\n    tag_26:\n      mload(0x40)\n      dup1\n      swap2\n      sub\n      swap1\n      revert\n    tag_25:\n        /* \"members/xiangnuans/task3/contracts/NFTMarket.sol\":1709:1720  IERC721 nft */\n      0x00\n        /* \"members/xiangnuans/task3/contracts/NFTMarket.sol\":1731:1743  _nftContract */\n      dup4\n        /* \"members/xiangnuans/task3/contracts/NFTMarket.sol\":1709:1744  IERC721 nft = IERC721(_nftContract) */\n      swap1\n      pop\n        /* \"members/xiangnuans/task3/contracts/NFTMarket.sol\":1775:1787  paymentToken */\n      0x01\n      0x00\n      swap1\n      sload\n      swap1\n      0x0100\n      exp\n      swap1\n      div\n      0xffffffffffffffffffffffffffffffffffffffff\n      and\n        /* \"members/xiangnuans/task3/contracts/NFTMarket.sol\":1775:1800  paymentToken.transferFrom */\n      0xffffffffffffffffffffffffffffffffffffffff\n      and\n      0x23b872dd\n        /* \"members/xiangnuans/task3/contracts/NFTMarket.sol\":1818:1828  msg.sender */\n      caller\n        /* \"members/xiangnuans/task3/contracts/NFTMarket.sol\":1846:1853  listing */\n      dup5\n        /* \"members/xiangnuans/task3/contracts/NFTMarket.sol\":1846:1860  listing.seller */\n      0x00\n      add\n      0x00\n      swap1\n      sload\n      swap1\n      0x0100\n      exp\n      swap1\n      div\n      0xffffffffffffffffffffffffffffffffffffffff\n      and\n        /* \"members/xiangnuans/task3/contracts/NFTMarket.sol\":1878:1885  listing */\n      dup6\n        /* \"members/xiangnuans/task3/contracts/NFTMarket.sol\":1878:1891  listing.price */\n      0x03\n      add\n      sload\n        /* \"members/xiangnuans/task3/contracts/NFTMarket.sol\":1775:1905  paymentToken.transferFrom(... */\n      mload(0x40)\n      dup5\n      0xffffffff\n      and\n      0xe0\n      shl\n      dup2\n      mstore\n      0x04\n      add\n      tag_28\n      swap4\n      swap3\n      swap2\n      swap1\n      tag_29\n      jump\t// in\n    tag_28:\n      0x20\n      mload(0x40)\n      dup1\n      dup4\n      sub\n      dup2\n      0x00\n      dup8\n      gas\n      call\n      iszero\n      dup1\n      iszero\n      tag_31\n      jumpi\n      returndatasize\n      0x00\n      dup1\n      returndatacopy\n      revert(0x00, returndatasize)\n    tag_31:\n      pop\n      pop\n      pop\n      pop\n      mload(0x40)\n      returndatasize\n      not(0x1f)\n      0x1f\n      dup3\n      add\n      and\n      dup3\n      add\n      dup1\n      0x40\n      mstore\n      pop\n      dup2\n      add\n      swap1\n      tag_32\n      swap2\n      swap1\n      tag_33\n      jump\t// in\n    tag_32:\n        /* \"members/xiangnuans/task3/contracts/NFTMarket.sol\":1754:1945  require(... */\n      tag_34\n      jumpi\n      mload(0x40)\n      0x08c379a000000000000000000000000000000000000000000000000000000000\n      dup2\n      mstore\n      0x04\n      add\n      tag_35\n      swap1\n      tag_36\n      jump\t// in\n    tag_35:\n      mload(0x40)\n      dup1\n      swap2\n      sub\n      swap1\n      revert\n    tag_34:\n        /* \"members/xiangnuans/task3/contracts/NFTMarket.sol\":1956:1959  nft */\n      dup1\n        /* \"members/xiangnuans/task3/contracts/NFTMarket.sol\":1956:1972  nft.transferFrom */\n      0xffffffffffffffffffffffffffffffffffffffff\n      and\n      0x23b872dd\n        /* \"members/xiangnuans/task3/contracts/NFTMarket.sol\":1973:1980  listing */\n      dup4\n        /* \"members/xiangnuans/task3/contracts/NFTMarket.sol\":1973:1987  listing.seller */\n      0x00\n      add\n      0x00\n      swap1\n      sload\n      swap1\n      0x0100\n      exp\n      swap1\n      div\n      0xffffffffffffffffffffffffffffffffffffffff\n      and\n        /* \"members/xiangnuans/task3/contracts/NFTMarket.sol\":1989:1999  msg.sender */\n      caller\n        /* \"members/xiangnuans/task3/contracts/NFTMarket.sol\":2001:2009  _tokenId */\n      dup7\n        /* \"members/xiangnuans/task3/contracts/NFTMarket.sol\":1956:2010  nft.transferFrom(listing.seller, msg.sender, _tokenId) */\n      mload(0x40)\n      dup5\n      0xffffffff\n      and\n      0xe0\n      shl\n      dup2\n      mstore\n      0x04\n      add\n      tag_37\n      swap4\n      swap3\n      swap2\n      swap1\n      tag_29\n      jump\t// in\n    tag_37:\n      0x00\n      mload(0x40)\n      dup1\n      dup4\n      sub\n      dup2\n      0x00\n      dup8\n      dup1\n      extcodesize\n      iszero\n      dup1\n      iszero\n      tag_38\n      jumpi\n      0x00\n      dup1\n      revert\n    tag_38:\n      pop\n      gas\n      call\n      iszero\n      dup1\n      iszero\n      tag_40\n      jumpi\n      returndatasize\n      0x00\n      dup1\n      returndatacopy\n      revert(0x00, returndatasize)\n    tag_40:\n      pop\n      pop\n      pop\n      pop\n        /* \"members/xiangnuans/task3/contracts/NFTMarket.sol\":2039:2044  false */\n      0x00\n        /* \"members/xiangnuans/task3/contracts/NFTMarket.sol\":2020:2027  listing */\n      dup3\n        /* \"members/xiangnuans/task3/contracts/NFTMarket.sol\":2020:2036  listing.isActive */\n      0x04\n      add\n      0x00\n        /* \"members/xiangnuans/task3/contracts/NFTMarket.sol\":2020:2044  listing.isActive = false */\n      0x0100\n      exp\n      dup2\n      sload\n      dup2\n      0xff\n      mul\n      not\n      and\n      swap1\n      dup4\n      iszero\n      iszero\n      mul\n      or\n      swap1\n      sstore\n      pop\n        /* \"members/xiangnuans/task3/contracts/NFTMarket.sol\":2096:2104  _tokenId */\n      dup3\n        /* \"members/xiangnuans/task3/contracts/NFTMarket.sol\":2082:2094  _nftContract */\n      dup5\n        /* \"members/xiangnuans/task3/contracts/NFTMarket.sol\":2060:2120  NFTBought(msg.sender, _nftContract, _tokenId, listing.price) */\n      0xffffffffffffffffffffffffffffffffffffffff\n      and\n        /* \"members/xiangnuans/task3/contracts/NFTMarket.sol\":2070:2080  msg.sender */\n      caller\n        /* \"members/xiangnuans/task3/contracts/NFTMarket.sol\":2060:2120  NFTBought(msg.sender, _nftContract, _tokenId, listing.price) */\n      0xffffffffffffffffffffffffffffffffffffffff\n      and\n      0x5a55b2d970d079d39ce4c5dc9ec6de52ebfc2bbcfc7466d62eea534ee8736673\n        /* \"members/xiangnuans/task3/contracts/NFTMarket.sol\":2106:2113  listing */\n      dup6\n        /* \"members/xiangnuans/task3/contracts/NFTMarket.sol\":2106:2119  listing.price */\n      0x03\n      add\n      sload\n        /* \"members/xiangnuans/task3/contracts/NFTMarket.sol\":2060:2120  NFTBought(msg.sender, _nftContract, _tokenId, listing.price) */\n      mload(0x40)\n      tag_41\n      swap2\n      swap1\n      tag_42\n      jump\t// in\n    tag_41:\n      mload(0x40)\n      dup1\n      swap2\n      sub\n      swap1\n      log4\n        /* \"members/xiangnuans/task3/contracts/NFTMarket.sol\":1568:2127  {... */\n      pop\n      pop\n        /* \"members/xiangnuans/task3/contracts/NFTMarket.sol\":1503:2127  function buyNFT(address _nftContract, uint256 _tokenId) external {... */\n      pop\n      pop\n      jump\t// out\n        /* \"members/xiangnuans/task3/contracts/NFTMarket.sol\":851:1497  function listNFT(... */\n    tag_23:\n        /* \"members/xiangnuans/task3/contracts/NFTMarket.sol\":973:984  IERC721 nft */\n      0x00\n        /* \"members/xiangnuans/task3/contracts/NFTMarket.sol\":995:1007  _nftContract */\n      dup4\n        /* \"members/xiangnuans/task3/contracts/NFTMarket.sol\":973:1008  IERC721 nft = IERC721(_nftContract) */\n      swap1\n      pop\n        /* \"members/xiangnuans/task3/contracts/NFTMarket.sol\":1064:1074  msg.sender */\n      caller\n        /* \"members/xiangnuans/task3/contracts/NFTMarket.sol\":1039:1074  nft.ownerOf(_tokenId) == msg.sender */\n      0xffffffffffffffffffffffffffffffffffffffff\n      and\n        /* \"members/xiangnuans/task3/contracts/NFTMarket.sol\":1039:1042  nft */\n      dup2\n        /* \"members/xiangnuans/task3/contracts/NFTMarket.sol\":1039:1050  nft.ownerOf */\n      0xffffffffffffffffffffffffffffffffffffffff\n      and\n      0x6352211e\n        /* \"members/xiangnuans/task3/contracts/NFTMarket.sol\":1051:1059  _tokenId */\n      dup6\n        /* \"members/xiangnuans/task3/contracts/NFTMarket.sol\":1039:1060  nft.ownerOf(_tokenId) */\n      mload(0x40)\n      dup3\n      0xffffffff\n      and\n      0xe0\n      shl\n      dup2\n      mstore\n      0x04\n      add\n      tag_44\n      swap2\n      swap1\n      tag_42\n      jump\t// in\n    tag_44:\n      0x20\n      mload(0x40)\n      dup1\n      dup4\n      sub\n      dup2\n      dup7\n      gas\n      staticcall\n      iszero\n      dup1\n      iszero\n      tag_46\n      jumpi\n      returndatasize\n      0x00\n      dup1\n      returndatacopy\n      revert(0x00, returndatasize)\n    tag_46:\n      pop\n      pop\n      pop\n      pop\n      mload(0x40)\n      returndatasize\n      not(0x1f)\n      0x1f\n      dup3\n      add\n      and\n      dup3\n      add\n      dup1\n      0x40\n      mstore\n      pop\n      dup2\n      add\n      swap1\n      tag_47\n      swap2\n      swap1\n      tag_48\n      jump\t// in\n    tag_47:\n        /* \"members/xiangnuans/task3/contracts/NFTMarket.sol\":1039:1074  nft.ownerOf(_tokenId) == msg.sender */\n      0xffffffffffffffffffffffffffffffffffffffff\n      and\n      eq\n        /* \"members/xiangnuans/task3/contracts/NFTMarket.sol\":1018:1124  require(... */\n      tag_49\n      jumpi\n      mload(0x40)\n      0x08c379a000000000000000000000000000000000000000000000000000000000\n      dup2\n      mstore\n      0x04\n      add\n      tag_50\n      swap1\n      tag_51\n      jump\t// in\n    tag_50:\n      mload(0x40)\n      dup1\n      swap2\n      sub\n      swap1\n      revert\n    tag_49:\n        /* \"members/xiangnuans/task3/contracts/NFTMarket.sol\":1155:1158  nft */\n      dup1\n        /* \"members/xiangnuans/task3/contracts/NFTMarket.sol\":1155:1175  nft.isApprovedForAll */\n      0xffffffffffffffffffffffffffffffffffffffff\n      and\n      0xe985e9c5\n        /* \"members/xiangnuans/task3/contracts/NFTMarket.sol\":1176:1186  msg.sender */\n      caller\n        /* \"members/xiangnuans/task3/contracts/NFTMarket.sol\":1196:1200  this */\n      address\n        /* \"members/xiangnuans/task3/contracts/NFTMarket.sol\":1155:1202  nft.isApprovedForAll(msg.sender, address(this)) */\n      mload(0x40)\n      dup4\n      0xffffffff\n      and\n      0xe0\n      shl\n      dup2\n      mstore\n      0x04\n      add\n      tag_52\n      swap3\n      swap2\n      swap1\n      tag_53\n      jump\t// in\n    tag_52:\n      0x20\n      mload(0x40)\n      dup1\n      dup4\n      sub\n      dup2\n      dup7\n      gas\n      staticcall\n      iszero\n      dup1\n      iszero\n      tag_55\n      jumpi\n      returndatasize\n      0x00\n      dup1\n      returndatacopy\n      revert(0x00, returndatasize)\n    tag_55:\n      pop\n      pop\n      pop\n      pop\n      mload(0x40)\n      returndatasize\n      not(0x1f)\n      0x1f\n      dup3\n      add\n      and\n      dup3\n      add\n      dup1\n      0x40\n      mstore\n      pop\n      dup2\n      add\n      swap1\n      tag_56\n      swap2\n      swap1\n      tag_33\n      jump\t// in\n    tag_56:\n        /* \"members/xiangnuans/task3/contracts/NFTMarket.sol\":1134:1249  require(... */\n      tag_57\n      jumpi\n      mload(0x40)\n      0x08c379a000000000000000000000000000000000000000000000000000000000\n      dup2\n      mstore\n      0x04\n      add\n      tag_58\n      swap1\n      tag_59\n      jump\t// in\n    tag_58:\n      mload(0x40)\n      dup1\n      swap2\n      sub\n      swap1\n      revert\n    tag_57:\n        /* \"members/xiangnuans/task3/contracts/NFTMarket.sol\":1295:1422  Listing(... */\n      mload(0x40)\n      dup1\n      0xa0\n      add\n      0x40\n      mstore\n      dup1\n        /* \"members/xiangnuans/task3/contracts/NFTMarket.sol\":1316:1326  msg.sender */\n      caller\n        /* \"members/xiangnuans/task3/contracts/NFTMarket.sol\":1295:1422  Listing(... */\n      0xffffffffffffffffffffffffffffffffffffffff\n      and\n      dup2\n      mstore\n      0x20\n      add\n        /* \"members/xiangnuans/task3/contracts/NFTMarket.sol\":1340:1352  _nftContract */\n      dup6\n        /* \"members/xiangnuans/task3/contracts/NFTMarket.sol\":1295:1422  Listing(... */\n      0xffffffffffffffffffffffffffffffffffffffff\n      and\n      dup2\n      mstore\n      0x20\n      add\n        /* \"members/xiangnuans/task3/contracts/NFTMarket.sol\":1366:1374  _tokenId */\n      dup5\n        /* \"members/xiangnuans/task3/contracts/NFTMarket.sol\":1295:1422  Listing(... */\n      dup2\n      mstore\n      0x20\n      add\n        /* \"members/xiangnuans/task3/contracts/NFTMarket.sol\":1388:1394  _price */\n      dup4\n        /* \"members/xiangnuans/task3/contracts/NFTMarket.sol\":1295:1422  Listing(... */\n      dup2\n      mstore\n      0x20\n      add\n        /* \"members/xiangnuans/task3/contracts/NFTMarket.sol\":1408:1412  true */\n      0x01\n        /* \"members/xiangnuans/task3/contracts/NFTMarket.sol\":1295:1422  Listing(... */\n      iszero\n      iszero\n      dup2\n      mstore\n      pop\n        /* \"members/xiangnuans/task3/contracts/NFTMarket.sol\":1260:1268  listings */\n      0x00\n        /* \"members/xiangnuans/task3/contracts/NFTMarket.sol\":1260:1282  listings[_nftContract] */\n      dup1\n        /* \"members/xiangnuans/task3/contracts/NFTMarket.sol\":1269:1281  _nftContract */\n      dup7\n        /* \"members/xiangnuans/task3/contracts/NFTMarket.sol\":1260:1282  listings[_nftContract] */\n      0xffffffffffffffffffffffffffffffffffffffff\n      and\n      0xffffffffffffffffffffffffffffffffffffffff\n      and\n      dup2\n      mstore\n      0x20\n      add\n      swap1\n      dup2\n      mstore\n      0x20\n      add\n      0x00\n      keccak256\n        /* \"members/xiangnuans/task3/contracts/NFTMarket.sol\":1260:1292  listings[_nftContract][_tokenId] */\n      0x00\n        /* \"members/xiangnuans/task3/contracts/NFTMarket.sol\":1283:1291  _tokenId */\n      dup6\n        /* \"members/xiangnuans/task3/contracts/NFTMarket.sol\":1260:1292  listings[_nftContract][_tokenId] */\n      dup2\n      mstore\n      0x20\n      add\n      swap1\n      dup2\n      mstore\n      0x20\n      add\n      0x00\n      keccak256\n        /* \"members/xiangnuans/task3/contracts/NFTMarket.sol\":1260:1422  listings[_nftContract][_tokenId] = Listing(... */\n      0x00\n      dup3\n      add\n      mload\n      dup2\n      0x00\n      add\n      exp(0x0100, 0x00)\n      dup2\n      sload\n      dup2\n      0xffffffffffffffffffffffffffffffffffffffff\n      mul\n      not\n      and\n      swap1\n      dup4\n      0xffffffffffffffffffffffffffffffffffffffff\n      and\n      mul\n      or\n      swap1\n      sstore\n      pop\n      0x20\n      dup3\n      add\n      mload\n      dup2\n      0x01\n      add\n      exp(0x0100, 0x00)\n      dup2\n      sload\n      dup2\n      0xffffffffffffffffffffffffffffffffffffffff\n      mul\n      not\n      and\n      swap1\n      dup4\n      0xffffffffffffffffffffffffffffffffffffffff\n      and\n      mul\n      or\n      swap1\n      sstore\n      pop\n      0x40\n      dup3\n      add\n      mload\n      dup2\n      0x02\n      add\n      sstore\n      0x60\n      dup3\n      add\n      mload\n      dup2\n      0x03\n      add\n      sstore\n      0x80\n      dup3\n      add\n      mload\n      dup2\n      0x04\n      add\n      exp(0x0100, 0x00)\n      dup2\n      sload\n      dup2\n      0xff\n      mul\n      not\n      and\n      swap1\n      dup4\n      iszero\n      iszero\n      mul\n      or\n      swap1\n      sstore\n      pop\n      swap1\n      pop\n      pop\n        /* \"members/xiangnuans/task3/contracts/NFTMarket.sol\":1473:1481  _tokenId */\n      dup3\n        /* \"members/xiangnuans/task3/contracts/NFTMarket.sol\":1459:1471  _nftContract */\n      dup5\n        /* \"members/xiangnuans/task3/contracts/NFTMarket.sol\":1437:1490  NFTListed(msg.sender, _nftContract, _tokenId, _price) */\n      0xffffffffffffffffffffffffffffffffffffffff\n      and\n        /* \"members/xiangnuans/task3/contracts/NFTMarket.sol\":1447:1457  msg.sender */\n      caller\n        /* \"members/xiangnuans/task3/contracts/NFTMarket.sol\":1437:1490  NFTListed(msg.sender, _nftContract, _tokenId, _price) */\n      0xffffffffffffffffffffffffffffffffffffffff\n      and\n      0xbeab3a2bb824b124a8a1eb465eec003338d61b414db132d37e9b3a984fdcf010\n        /* \"members/xiangnuans/task3/contracts/NFTMarket.sol\":1483:1489  _price */\n      dup6\n        /* \"members/xiangnuans/task3/contracts/NFTMarket.sol\":1437:1490  NFTListed(msg.sender, _nftContract, _tokenId, _price) */\n      mload(0x40)\n      tag_60\n      swap2\n      swap1\n      tag_42\n      jump\t// in\n    tag_60:\n      mload(0x40)\n      dup1\n      swap2\n      sub\n      swap1\n      log4\n        /* \"members/xiangnuans/task3/contracts/NFTMarket.sol\":963:1497  {... */\n      pop\n        /* \"members/xiangnuans/task3/contracts/NFTMarket.sol\":851:1497  function listNFT(... */\n      pop\n      pop\n      pop\n      jump\t// out\n        /* \"#utility.yul\":88:205   */\n    tag_62:\n        /* \"#utility.yul\":197:198   */\n      0x00\n        /* \"#utility.yul\":194:195   */\n      dup1\n        /* \"#utility.yul\":187:199   */\n      revert\n        /* \"#utility.yul\":334:460   */\n    tag_64:\n        /* \"#utility.yul\":371:378   */\n      0x00\n        /* \"#utility.yul\":411:453   */\n      0xffffffffffffffffffffffffffffffffffffffff\n        /* \"#utility.yul\":404:409   */\n      dup3\n        /* \"#utility.yul\":400:454   */\n      and\n        /* \"#utility.yul\":389:454   */\n      swap1\n      pop\n        /* \"#utility.yul\":334:460   */\n      swap2\n      swap1\n      pop\n      jump\t// out\n        /* \"#utility.yul\":466:562   */\n    tag_65:\n        /* \"#utility.yul\":503:510   */\n      0x00\n        /* \"#utility.yul\":532:556   */\n      tag_98\n        /* \"#utility.yul\":550:555   */\n      dup3\n        /* \"#utility.yul\":532:556   */\n      tag_64\n      jump\t// in\n    tag_98:\n        /* \"#utility.yul\":521:556   */\n      swap1\n      pop\n        /* \"#utility.yul\":466:562   */\n      swap2\n      swap1\n      pop\n      jump\t// out\n        /* \"#utility.yul\":568:690   */\n    tag_66:\n        /* \"#utility.yul\":641:665   */\n      tag_100\n        /* \"#utility.yul\":659:664   */\n      dup2\n        /* \"#utility.yul\":641:665   */\n      tag_65\n      jump\t// in\n    tag_100:\n        /* \"#utility.yul\":634:639   */\n      dup2\n        /* \"#utility.yul\":631:666   */\n      eq\n        /* \"#utility.yul\":621:684   */\n      tag_101\n      jumpi\n        /* \"#utility.yul\":680:681   */\n      0x00\n        /* \"#utility.yul\":677:678   */\n      dup1\n        /* \"#utility.yul\":670:682   */\n      revert\n        /* \"#utility.yul\":621:684   */\n    tag_101:\n        /* \"#utility.yul\":568:690   */\n      pop\n      jump\t// out\n        /* \"#utility.yul\":696:835   */\n    tag_67:\n        /* \"#utility.yul\":742:747   */\n      0x00\n        /* \"#utility.yul\":780:786   */\n      dup2\n        /* \"#utility.yul\":767:787   */\n      calldataload\n        /* \"#utility.yul\":758:787   */\n      swap1\n      pop\n        /* \"#utility.yul\":796:829   */\n      tag_103\n        /* \"#utility.yul\":823:828   */\n      dup2\n        /* \"#utility.yul\":796:829   */\n      tag_66\n      jump\t// in\n    tag_103:\n        /* \"#utility.yul\":696:835   */\n      swap3\n      swap2\n      pop\n      pop\n      jump\t// out\n        /* \"#utility.yul\":841:918   */\n    tag_68:\n        /* \"#utility.yul\":878:885   */\n      0x00\n        /* \"#utility.yul\":907:912   */\n      dup2\n        /* \"#utility.yul\":896:912   */\n      swap1\n      pop\n        /* \"#utility.yul\":841:918   */\n      swap2\n      swap1\n      pop\n      jump\t// out\n        /* \"#utility.yul\":924:1046   */\n    tag_69:\n        /* \"#utility.yul\":997:1021   */\n      tag_106\n        /* \"#utility.yul\":1015:1020   */\n      dup2\n        /* \"#utility.yul\":997:1021   */\n      tag_68\n      jump\t// in\n    tag_106:\n        /* \"#utility.yul\":990:995   */\n      dup2\n        /* \"#utility.yul\":987:1022   */\n      eq\n        /* \"#utility.yul\":977:1040   */\n      tag_107\n      jumpi\n        /* \"#utility.yul\":1036:1037   */\n      0x00\n        /* \"#utility.yul\":1033:1034   */\n      dup1\n        /* \"#utility.yul\":1026:1038   */\n      revert\n        /* \"#utility.yul\":977:1040   */\n    tag_107:\n        /* \"#utility.yul\":924:1046   */\n      pop\n      jump\t// out\n        /* \"#utility.yul\":1052:1191   */\n    tag_70:\n        /* \"#utility.yul\":1098:1103   */\n      0x00\n        /* \"#utility.yul\":1136:1142   */\n      dup2\n        /* \"#utility.yul\":1123:1143   */\n      calldataload\n        /* \"#utility.yul\":1114:1143   */\n      swap1\n      pop\n        /* \"#utility.yul\":1152:1185   */\n      tag_109\n        /* \"#utility.yul\":1179:1184   */\n      dup2\n        /* \"#utility.yul\":1152:1185   */\n      tag_69\n      jump\t// in\n    tag_109:\n        /* \"#utility.yul\":1052:1191   */\n      swap3\n      swap2\n      pop\n      pop\n      jump\t// out\n        /* \"#utility.yul\":1197:1671   */\n    tag_9:\n        /* \"#utility.yul\":1265:1271   */\n      0x00\n        /* \"#utility.yul\":1273:1279   */\n      dup1\n        /* \"#utility.yul\":1322:1324   */\n      0x40\n        /* \"#utility.yul\":1310:1319   */\n      dup4\n        /* \"#utility.yul\":1301:1308   */\n      dup6\n        /* \"#utility.yul\":1297:1320   */\n      sub\n        /* \"#utility.yul\":1293:1325   */\n      slt\n        /* \"#utility.yul\":1290:1409   */\n      iszero\n      tag_111\n      jumpi\n        /* \"#utility.yul\":1328:1407   */\n      tag_112\n      tag_62\n      jump\t// in\n    tag_112:\n        /* \"#utility.yul\":1290:1409   */\n    tag_111:\n        /* \"#utility.yul\":1448:1449   */\n      0x00\n        /* \"#utility.yul\":1473:1526   */\n      tag_113\n        /* \"#utility.yul\":1518:1525   */\n      dup6\n        /* \"#utility.yul\":1509:1515   */\n      dup3\n        /* \"#utility.yul\":1498:1507   */\n      dup7\n        /* \"#utility.yul\":1494:1516   */\n      add\n        /* \"#utility.yul\":1473:1526   */\n      tag_67\n      jump\t// in\n    tag_113:\n        /* \"#utility.yul\":1463:1526   */\n      swap3\n      pop\n        /* \"#utility.yul\":1419:1536   */\n      pop\n        /* \"#utility.yul\":1575:1577   */\n      0x20\n        /* \"#utility.yul\":1601:1654   */\n      tag_114\n        /* \"#utility.yul\":1646:1653   */\n      dup6\n        /* \"#utility.yul\":1637:1643   */\n      dup3\n        /* \"#utility.yul\":1626:1635   */\n      dup7\n        /* \"#utility.yul\":1622:1644   */\n      add\n        /* \"#utility.yul\":1601:1654   */\n      tag_70\n      jump\t// in\n    tag_114:\n        /* \"#utility.yul\":1591:1654   */\n      swap2\n      pop\n        /* \"#utility.yul\":1546:1664   */\n      pop\n        /* \"#utility.yul\":1197:1671   */\n      swap3\n      pop\n      swap3\n      swap1\n      pop\n      jump\t// out\n        /* \"#utility.yul\":1677:1795   */\n    tag_71:\n        /* \"#utility.yul\":1764:1788   */\n      tag_116\n        /* \"#utility.yul\":1782:1787   */\n      dup2\n        /* \"#utility.yul\":1764:1788   */\n      tag_65\n      jump\t// in\n    tag_116:\n        /* \"#utility.yul\":1759:1762   */\n      dup3\n        /* \"#utility.yul\":1752:1789   */\n      mstore\n        /* \"#utility.yul\":1677:1795   */\n      pop\n      pop\n      jump\t// out\n        /* \"#utility.yul\":1801:1919   */\n    tag_72:\n        /* \"#utility.yul\":1888:1912   */\n      tag_118\n        /* \"#utility.yul\":1906:1911   */\n      dup2\n        /* \"#utility.yul\":1888:1912   */\n      tag_68\n      jump\t// in\n    tag_118:\n        /* \"#utility.yul\":1883:1886   */\n      dup3\n        /* \"#utility.yul\":1876:1913   */\n      mstore\n        /* \"#utility.yul\":1801:1919   */\n      pop\n      pop\n      jump\t// out\n        /* \"#utility.yul\":1925:2015   */\n    tag_73:\n        /* \"#utility.yul\":1959:1966   */\n      0x00\n        /* \"#utility.yul\":2002:2007   */\n      dup2\n        /* \"#utility.yul\":1995:2008   */\n      iszero\n        /* \"#utility.yul\":1988:2009   */\n      iszero\n        /* \"#utility.yul\":1977:2009   */\n      swap1\n      pop\n        /* \"#utility.yul\":1925:2015   */\n      swap2\n      swap1\n      pop\n      jump\t// out\n        /* \"#utility.yul\":2021:2130   */\n    tag_74:\n        /* \"#utility.yul\":2102:2123   */\n      tag_121\n        /* \"#utility.yul\":2117:2122   */\n      dup2\n        /* \"#utility.yul\":2102:2123   */\n      tag_73\n      jump\t// in\n    tag_121:\n        /* \"#utility.yul\":2097:2100   */\n      dup3\n        /* \"#utility.yul\":2090:2124   */\n      mstore\n        /* \"#utility.yul\":2021:2130   */\n      pop\n      pop\n      jump\t// out\n        /* \"#utility.yul\":2136:2788   */\n    tag_12:\n        /* \"#utility.yul\":2335:2339   */\n      0x00\n        /* \"#utility.yul\":2373:2376   */\n      0xa0\n        /* \"#utility.yul\":2362:2371   */\n      dup3\n        /* \"#utility.yul\":2358:2377   */\n      add\n        /* \"#utility.yul\":2350:2377   */\n      swap1\n      pop\n        /* \"#utility.yul\":2387:2458   */\n      tag_123\n        /* \"#utility.yul\":2455:2456   */\n      0x00\n        /* \"#utility.yul\":2444:2453   */\n      dup4\n        /* \"#utility.yul\":2440:2457   */\n      add\n        /* \"#utility.yul\":2431:2437   */\n      dup9\n        /* \"#utility.yul\":2387:2458   */\n      tag_71\n      jump\t// in\n    tag_123:\n        /* \"#utility.yul\":2468:2540   */\n      tag_124\n        /* \"#utility.yul\":2536:2538   */\n      0x20\n        /* \"#utility.yul\":2525:2534   */\n      dup4\n        /* \"#utility.yul\":2521:2539   */\n      add\n        /* \"#utility.yul\":2512:2518   */\n      dup8\n        /* \"#utility.yul\":2468:2540   */\n      tag_71\n      jump\t// in\n    tag_124:\n        /* \"#utility.yul\":2550:2622   */\n      tag_125\n        /* \"#utility.yul\":2618:2620   */\n      0x40\n        /* \"#utility.yul\":2607:2616   */\n      dup4\n        /* \"#utility.yul\":2603:2621   */\n      add\n        /* \"#utility.yul\":2594:2600   */\n      dup7\n        /* \"#utility.yul\":2550:2622   */\n      tag_72\n      jump\t// in\n    tag_125:\n        /* \"#utility.yul\":2632:2704   */\n      tag_126\n        /* \"#utility.yul\":2700:2702   */\n      0x60\n        /* \"#utility.yul\":2689:2698   */\n      dup4\n        /* \"#utility.yul\":2685:2703   */\n      add\n        /* \"#utility.yul\":2676:2682   */\n      dup6\n        /* \"#utility.yul\":2632:2704   */\n      tag_72\n      jump\t// in\n    tag_126:\n        /* \"#utility.yul\":2714:2781   */\n      tag_127\n        /* \"#utility.yul\":2776:2779   */\n      0x80\n        /* \"#utility.yul\":2765:2774   */\n      dup4\n        /* \"#utility.yul\":2761:2780   */\n      add\n        /* \"#utility.yul\":2752:2758   */\n      dup5\n        /* \"#utility.yul\":2714:2781   */\n      tag_74\n      jump\t// in\n    tag_127:\n        /* \"#utility.yul\":2136:2788   */\n      swap7\n      swap6\n      pop\n      pop\n      pop\n      pop\n      pop\n      pop\n      jump\t// out\n        /* \"#utility.yul\":2794:2854   */\n    tag_75:\n        /* \"#utility.yul\":2822:2825   */\n      0x00\n        /* \"#utility.yul\":2843:2848   */\n      dup2\n        /* \"#utility.yul\":2836:2848   */\n      swap1\n      pop\n        /* \"#utility.yul\":2794:2854   */\n      swap2\n      swap1\n      pop\n      jump\t// out\n        /* \"#utility.yul\":2860:3002   */\n    tag_76:\n        /* \"#utility.yul\":2910:2919   */\n      0x00\n        /* \"#utility.yul\":2943:2996   */\n      tag_130\n        /* \"#utility.yul\":2961:2995   */\n      tag_131\n        /* \"#utility.yul\":2970:2994   */\n      tag_132\n        /* \"#utility.yul\":2988:2993   */\n      dup5\n        /* \"#utility.yul\":2970:2994   */\n      tag_64\n      jump\t// in\n    tag_132:\n        /* \"#utility.yul\":2961:2995   */\n      tag_75\n      jump\t// in\n    tag_131:\n        /* \"#utility.yul\":2943:2996   */\n      tag_64\n      jump\t// in\n    tag_130:\n        /* \"#utility.yul\":2930:2996   */\n      swap1\n      pop\n        /* \"#utility.yul\":2860:3002   */\n      swap2\n      swap1\n      pop\n      jump\t// out\n        /* \"#utility.yul\":3008:3134   */\n    tag_77:\n        /* \"#utility.yul\":3058:3067   */\n      0x00\n        /* \"#utility.yul\":3091:3128   */\n      tag_134\n        /* \"#utility.yul\":3122:3127   */\n      dup3\n        /* \"#utility.yul\":3091:3128   */\n      tag_76\n      jump\t// in\n    tag_134:\n        /* \"#utility.yul\":3078:3128   */\n      swap1\n      pop\n        /* \"#utility.yul\":3008:3134   */\n      swap2\n      swap1\n      pop\n      jump\t// out\n        /* \"#utility.yul\":3140:3279   */\n    tag_78:\n        /* \"#utility.yul\":3203:3212   */\n      0x00\n        /* \"#utility.yul\":3236:3273   */\n      tag_136\n        /* \"#utility.yul\":3267:3272   */\n      dup3\n        /* \"#utility.yul\":3236:3273   */\n      tag_77\n      jump\t// in\n    tag_136:\n        /* \"#utility.yul\":3223:3273   */\n      swap1\n      pop\n        /* \"#utility.yul\":3140:3279   */\n      swap2\n      swap1\n      pop\n      jump\t// out\n        /* \"#utility.yul\":3285:3442   */\n    tag_79:\n        /* \"#utility.yul\":3385:3435   */\n      tag_138\n        /* \"#utility.yul\":3429:3434   */\n      dup2\n        /* \"#utility.yul\":3385:3435   */\n      tag_78\n      jump\t// in\n    tag_138:\n        /* \"#utility.yul\":3380:3383   */\n      dup3\n        /* \"#utility.yul\":3373:3436   */\n      mstore\n        /* \"#utility.yul\":3285:3442   */\n      pop\n      pop\n      jump\t// out\n        /* \"#utility.yul\":3448:3696   */\n    tag_16:\n        /* \"#utility.yul\":3554:3558   */\n      0x00\n        /* \"#utility.yul\":3592:3594   */\n      0x20\n        /* \"#utility.yul\":3581:3590   */\n      dup3\n        /* \"#utility.yul\":3577:3595   */\n      add\n        /* \"#utility.yul\":3569:3595   */\n      swap1\n      pop\n        /* \"#utility.yul\":3605:3689   */\n      tag_140\n        /* \"#utility.yul\":3686:3687   */\n      0x00\n        /* \"#utility.yul\":3675:3684   */\n      dup4\n        /* \"#utility.yul\":3671:3688   */\n      add\n        /* \"#utility.yul\":3662:3668   */\n      dup5\n        /* \"#utility.yul\":3605:3689   */\n      tag_79\n      jump\t// in\n    tag_140:\n        /* \"#utility.yul\":3448:3696   */\n      swap3\n      swap2\n      pop\n      pop\n      jump\t// out\n        /* \"#utility.yul\":3702:4321   */\n    tag_22:\n        /* \"#utility.yul\":3779:3785   */\n      0x00\n        /* \"#utility.yul\":3787:3793   */\n      dup1\n        /* \"#utility.yul\":3795:3801   */\n      0x00\n        /* \"#utility.yul\":3844:3846   */\n      0x60\n        /* \"#utility.yul\":3832:3841   */\n      dup5\n        /* \"#utility.yul\":3823:3830   */\n      dup7\n        /* \"#utility.yul\":3819:3842   */\n      sub\n        /* \"#utility.yul\":3815:3847   */\n      slt\n        /* \"#utility.yul\":3812:3931   */\n      iszero\n      tag_142\n      jumpi\n        /* \"#utility.yul\":3850:3929   */\n      tag_143\n      tag_62\n      jump\t// in\n    tag_143:\n        /* \"#utility.yul\":3812:3931   */\n    tag_142:\n        /* \"#utility.yul\":3970:3971   */\n      0x00\n        /* \"#utility.yul\":3995:4048   */\n      tag_144\n        /* \"#utility.yul\":4040:4047   */\n      dup7\n        /* \"#utility.yul\":4031:4037   */\n      dup3\n        /* \"#utility.yul\":4020:4029   */\n      dup8\n        /* \"#utility.yul\":4016:4038   */\n      add\n        /* \"#utility.yul\":3995:4048   */\n      tag_67\n      jump\t// in\n    tag_144:\n        /* \"#utility.yul\":3985:4048   */\n      swap4\n      pop\n        /* \"#utility.yul\":3941:4058   */\n      pop\n        /* \"#utility.yul\":4097:4099   */\n      0x20\n        /* \"#utility.yul\":4123:4176   */\n      tag_145\n        /* \"#utility.yul\":4168:4175   */\n      dup7\n        /* \"#utility.yul\":4159:4165   */\n      dup3\n        /* \"#utility.yul\":4148:4157   */\n      dup8\n        /* \"#utility.yul\":4144:4166   */\n      add\n        /* \"#utility.yul\":4123:4176   */\n      tag_70\n      jump\t// in\n    tag_145:\n        /* \"#utility.yul\":4113:4176   */\n      swap3\n      pop\n        /* \"#utility.yul\":4068:4186   */\n      pop\n        /* \"#utility.yul\":4225:4227   */\n      0x40\n        /* \"#utility.yul\":4251:4304   */\n      tag_146\n        /* \"#utility.yul\":4296:4303   */\n      dup7\n        /* \"#utility.yul\":4287:4293   */\n      dup3\n        /* \"#utility.yul\":4276:4285   */\n      dup8\n        /* \"#utility.yul\":4272:4294   */\n      add\n        /* \"#utility.yul\":4251:4304   */\n      tag_70\n      jump\t// in\n    tag_146:\n        /* \"#utility.yul\":4241:4304   */\n      swap2\n      pop\n        /* \"#utility.yul\":4196:4314   */\n      pop\n        /* \"#utility.yul\":3702:4321   */\n      swap3\n      pop\n      swap3\n      pop\n      swap3\n      jump\t// out\n        /* \"#utility.yul\":4327:4496   */\n    tag_80:\n        /* \"#utility.yul\":4411:4422   */\n      0x00\n        /* \"#utility.yul\":4445:4451   */\n      dup3\n        /* \"#utility.yul\":4440:4443   */\n      dup3\n        /* \"#utility.yul\":4433:4452   */\n      mstore\n        /* \"#utility.yul\":4485:4489   */\n      0x20\n        /* \"#utility.yul\":4480:4483   */\n      dup3\n        /* \"#utility.yul\":4476:4490   */\n      add\n        /* \"#utility.yul\":4461:4490   */\n      swap1\n      pop\n        /* \"#utility.yul\":4327:4496   */\n      swap3\n      swap2\n      pop\n      pop\n      jump\t// out\n        /* \"#utility.yul\":4502:4675   */\n    tag_81:\n        /* \"#utility.yul\":4642:4667   */\n      0x4e6f74206e6f74206c697374656420666f722073616c65000000000000000000\n        /* \"#utility.yul\":4638:4639   */\n      0x00\n        /* \"#utility.yul\":4630:4636   */\n      dup3\n        /* \"#utility.yul\":4626:4640   */\n      add\n        /* \"#utility.yul\":4619:4668   */\n      mstore\n        /* \"#utility.yul\":4502:4675   */\n      pop\n      jump\t// out\n        /* \"#utility.yul\":4681:5047   */\n    tag_82:\n        /* \"#utility.yul\":4823:4826   */\n      0x00\n        /* \"#utility.yul\":4844:4911   */\n      tag_150\n        /* \"#utility.yul\":4908:4910   */\n      0x17\n        /* \"#utility.yul\":4903:4906   */\n      dup4\n        /* \"#utility.yul\":4844:4911   */\n      tag_80\n      jump\t// in\n    tag_150:\n        /* \"#utility.yul\":4837:4911   */\n      swap2\n      pop\n        /* \"#utility.yul\":4920:5013   */\n      tag_151\n        /* \"#utility.yul\":5009:5012   */\n      dup3\n        /* \"#utility.yul\":4920:5013   */\n      tag_81\n      jump\t// in\n    tag_151:\n        /* \"#utility.yul\":5038:5040   */\n      0x20\n        /* \"#utility.yul\":5033:5036   */\n      dup3\n        /* \"#utility.yul\":5029:5041   */\n      add\n        /* \"#utility.yul\":5022:5041   */\n      swap1\n      pop\n        /* \"#utility.yul\":4681:5047   */\n      swap2\n      swap1\n      pop\n      jump\t// out\n        /* \"#utility.yul\":5053:5472   */\n    tag_27:\n        /* \"#utility.yul\":5219:5223   */\n      0x00\n        /* \"#utility.yul\":5257:5259   */\n      0x20\n        /* \"#utility.yul\":5246:5255   */\n      dup3\n        /* \"#utility.yul\":5242:5260   */\n      add\n        /* \"#utility.yul\":5234:5260   */\n      swap1\n      pop\n        /* \"#utility.yul\":5306:5315   */\n      dup2\n        /* \"#utility.yul\":5300:5304   */\n      dup2\n        /* \"#utility.yul\":5296:5316   */\n      sub\n        /* \"#utility.yul\":5292:5293   */\n      0x00\n        /* \"#utility.yul\":5281:5290   */\n      dup4\n        /* \"#utility.yul\":5277:5294   */\n      add\n        /* \"#utility.yul\":5270:5317   */\n      mstore\n        /* \"#utility.yul\":5334:5465   */\n      tag_153\n        /* \"#utility.yul\":5460:5464   */\n      dup2\n        /* \"#utility.yul\":5334:5465   */\n      tag_82\n      jump\t// in\n    tag_153:\n        /* \"#utility.yul\":5326:5465   */\n      swap1\n      pop\n        /* \"#utility.yul\":5053:5472   */\n      swap2\n      swap1\n      pop\n      jump\t// out\n        /* \"#utility.yul\":5478:5920   */\n    tag_29:\n        /* \"#utility.yul\":5627:5631   */\n      0x00\n        /* \"#utility.yul\":5665:5667   */\n      0x60\n        /* \"#utility.yul\":5654:5663   */\n      dup3\n        /* \"#utility.yul\":5650:5668   */\n      add\n        /* \"#utility.yul\":5642:5668   */\n      swap1\n      pop\n        /* \"#utility.yul\":5678:5749   */\n      tag_155\n        /* \"#utility.yul\":5746:5747   */\n      0x00\n        /* \"#utility.yul\":5735:5744   */\n      dup4\n        /* \"#utility.yul\":5731:5748   */\n      add\n        /* \"#utility.yul\":5722:5728   */\n      dup7\n        /* \"#utility.yul\":5678:5749   */\n      tag_71\n      jump\t// in\n    tag_155:\n        /* \"#utility.yul\":5759:5831   */\n      tag_156\n        /* \"#utility.yul\":5827:5829   */\n      0x20\n        /* \"#utility.yul\":5816:5825   */\n      dup4\n        /* \"#utility.yul\":5812:5830   */\n      add\n        /* \"#utility.yul\":5803:5809   */\n      dup6\n        /* \"#utility.yul\":5759:5831   */\n      tag_71\n      jump\t// in\n    tag_156:\n        /* \"#utility.yul\":5841:5913   */\n      tag_157\n        /* \"#utility.yul\":5909:5911   */\n      0x40\n        /* \"#utility.yul\":5898:5907   */\n      dup4\n        /* \"#utility.yul\":5894:5912   */\n      add\n        /* \"#utility.yul\":5885:5891   */\n      dup5\n        /* \"#utility.yul\":5841:5913   */\n      tag_72\n      jump\t// in\n    tag_157:\n        /* \"#utility.yul\":5478:5920   */\n      swap5\n      swap4\n      pop\n      pop\n      pop\n      pop\n      jump\t// out\n        /* \"#utility.yul\":5926:6042   */\n    tag_83:\n        /* \"#utility.yul\":5996:6017   */\n      tag_159\n        /* \"#utility.yul\":6011:6016   */\n      dup2\n        /* \"#utility.yul\":5996:6017   */\n      tag_73\n      jump\t// in\n    tag_159:\n        /* \"#utility.yul\":5989:5994   */\n      dup2\n        /* \"#utility.yul\":5986:6018   */\n      eq\n        /* \"#utility.yul\":5976:6036   */\n      tag_160\n      jumpi\n        /* \"#utility.yul\":6032:6033   */\n      0x00\n        /* \"#utility.yul\":6029:6030   */\n      dup1\n        /* \"#utility.yul\":6022:6034   */\n      revert\n        /* \"#utility.yul\":5976:6036   */\n    tag_160:\n        /* \"#utility.yul\":5926:6042   */\n      pop\n      jump\t// out\n        /* \"#utility.yul\":6048:6185   */\n    tag_84:\n        /* \"#utility.yul\":6102:6107   */\n      0x00\n        /* \"#utility.yul\":6133:6139   */\n      dup2\n        /* \"#utility.yul\":6127:6140   */\n      mload\n        /* \"#utility.yul\":6118:6140   */\n      swap1\n      pop\n        /* \"#utility.yul\":6149:6179   */\n      tag_162\n        /* \"#utility.yul\":6173:6178   */\n      dup2\n        /* \"#utility.yul\":6149:6179   */\n      tag_83\n      jump\t// in\n    tag_162:\n        /* \"#utility.yul\":6048:6185   */\n      swap3\n      swap2\n      pop\n      pop\n      jump\t// out\n        /* \"#utility.yul\":6191:6536   */\n    tag_33:\n        /* \"#utility.yul\":6258:6264   */\n      0x00\n        /* \"#utility.yul\":6307:6309   */\n      0x20\n        /* \"#utility.yul\":6295:6304   */\n      dup3\n        /* \"#utility.yul\":6286:6293   */\n      dup5\n        /* \"#utility.yul\":6282:6305   */\n      sub\n        /* \"#utility.yul\":6278:6310   */\n      slt\n        /* \"#utility.yul\":6275:6394   */\n      iszero\n      tag_164\n      jumpi\n        /* \"#utility.yul\":6313:6392   */\n      tag_165\n      tag_62\n      jump\t// in\n    tag_165:\n        /* \"#utility.yul\":6275:6394   */\n    tag_164:\n        /* \"#utility.yul\":6433:6434   */\n      0x00\n        /* \"#utility.yul\":6458:6519   */\n      tag_166\n        /* \"#utility.yul\":6511:6518   */\n      dup5\n        /* \"#utility.yul\":6502:6508   */\n      dup3\n        /* \"#utility.yul\":6491:6500   */\n      dup6\n        /* \"#utility.yul\":6487:6509   */\n      add\n        /* \"#utility.yul\":6458:6519   */\n      tag_84\n      jump\t// in\n    tag_166:\n        /* \"#utility.yul\":6448:6519   */\n      swap2\n      pop\n        /* \"#utility.yul\":6404:6529   */\n      pop\n        /* \"#utility.yul\":6191:6536   */\n      swap3\n      swap2\n      pop\n      pop\n      jump\t// out\n        /* \"#utility.yul\":6542:6706   */\n    tag_85:\n        /* \"#utility.yul\":6682:6698   */\n      0x5061796d656e74206661696c6564000000000000000000000000000000000000\n        /* \"#utility.yul\":6678:6679   */\n      0x00\n        /* \"#utility.yul\":6670:6676   */\n      dup3\n        /* \"#utility.yul\":6666:6680   */\n      add\n        /* \"#utility.yul\":6659:6699   */\n      mstore\n        /* \"#utility.yul\":6542:6706   */\n      pop\n      jump\t// out\n        /* \"#utility.yul\":6712:7078   */\n    tag_86:\n        /* \"#utility.yul\":6854:6857   */\n      0x00\n        /* \"#utility.yul\":6875:6942   */\n      tag_169\n        /* \"#utility.yul\":6939:6941   */\n      0x0e\n        /* \"#utility.yul\":6934:6937   */\n      dup4\n        /* \"#utility.yul\":6875:6942   */\n      tag_80\n      jump\t// in\n    tag_169:\n        /* \"#utility.yul\":6868:6942   */\n      swap2\n      pop\n        /* \"#utility.yul\":6951:7044   */\n      tag_170\n        /* \"#utility.yul\":7040:7043   */\n      dup3\n        /* \"#utility.yul\":6951:7044   */\n      tag_85\n      jump\t// in\n    tag_170:\n        /* \"#utility.yul\":7069:7071   */\n      0x20\n        /* \"#utility.yul\":7064:7067   */\n      dup3\n        /* \"#utility.yul\":7060:7072   */\n      add\n        /* \"#utility.yul\":7053:7072   */\n      swap1\n      pop\n        /* \"#utility.yul\":6712:7078   */\n      swap2\n      swap1\n      pop\n      jump\t// out\n        /* \"#utility.yul\":7084:7503   */\n    tag_36:\n        /* \"#utility.yul\":7250:7254   */\n      0x00\n        /* \"#utility.yul\":7288:7290   */\n      0x20\n        /* \"#utility.yul\":7277:7286   */\n      dup3\n        /* \"#utility.yul\":7273:7291   */\n      add\n        /* \"#utility.yul\":7265:7291   */\n      swap1\n      pop\n        /* \"#utility.yul\":7337:7346   */\n      dup2\n        /* \"#utility.yul\":7331:7335   */\n      dup2\n        /* \"#utility.yul\":7327:7347   */\n      sub\n        /* \"#utility.yul\":7323:7324   */\n      0x00\n        /* \"#utility.yul\":7312:7321   */\n      dup4\n        /* \"#utility.yul\":7308:7325   */\n      add\n        /* \"#utility.yul\":7301:7348   */\n      mstore\n        /* \"#utility.yul\":7365:7496   */\n      tag_172\n        /* \"#utility.yul\":7491:7495   */\n      dup2\n        /* \"#utility.yul\":7365:7496   */\n      tag_86\n      jump\t// in\n    tag_172:\n        /* \"#utility.yul\":7357:7496   */\n      swap1\n      pop\n        /* \"#utility.yul\":7084:7503   */\n      swap2\n      swap1\n      pop\n      jump\t// out\n        /* \"#utility.yul\":7509:7731   */\n    tag_42:\n        /* \"#utility.yul\":7602:7606   */\n      0x00\n        /* \"#utility.yul\":7640:7642   */\n      0x20\n        /* \"#utility.yul\":7629:7638   */\n      dup3\n        /* \"#utility.yul\":7625:7643   */\n      add\n        /* \"#utility.yul\":7617:7643   */\n      swap1\n      pop\n        /* \"#utility.yul\":7653:7724   */\n      tag_174\n        /* \"#utility.yul\":7721:7722   */\n      0x00\n        /* \"#utility.yul\":7710:7719   */\n      dup4\n        /* \"#utility.yul\":7706:7723   */\n      add\n        /* \"#utility.yul\":7697:7703   */\n      dup5\n        /* \"#utility.yul\":7653:7724   */\n      tag_72\n      jump\t// in\n    tag_174:\n        /* \"#utility.yul\":7509:7731   */\n      swap3\n      swap2\n      pop\n      pop\n      jump\t// out\n        /* \"#utility.yul\":7737:7880   */\n    tag_87:\n        /* \"#utility.yul\":7794:7799   */\n      0x00\n        /* \"#utility.yul\":7825:7831   */\n      dup2\n        /* \"#utility.yul\":7819:7832   */\n      mload\n        /* \"#utility.yul\":7810:7832   */\n      swap1\n      pop\n        /* \"#utility.yul\":7841:7874   */\n      tag_176\n        /* \"#utility.yul\":7868:7873   */\n      dup2\n        /* \"#utility.yul\":7841:7874   */\n      tag_66\n      jump\t// in\n    tag_176:\n        /* \"#utility.yul\":7737:7880   */\n      swap3\n      swap2\n      pop\n      pop\n      jump\t// out\n        /* \"#utility.yul\":7886:8237   */\n    tag_48:\n        /* \"#utility.yul\":7956:7962   */\n      0x00\n        /* \"#utility.yul\":8005:8007   */\n      0x20\n        /* \"#utility.yul\":7993:8002   */\n      dup3\n        /* \"#utility.yul\":7984:7991   */\n      dup5\n        /* \"#utility.yul\":7980:8003   */\n      sub\n        /* \"#utility.yul\":7976:8008   */\n      slt\n        /* \"#utility.yul\":7973:8092   */\n      iszero\n      tag_178\n      jumpi\n        /* \"#utility.yul\":8011:8090   */\n      tag_179\n      tag_62\n      jump\t// in\n    tag_179:\n        /* \"#utility.yul\":7973:8092   */\n    tag_178:\n        /* \"#utility.yul\":8131:8132   */\n      0x00\n        /* \"#utility.yul\":8156:8220   */\n      tag_180\n        /* \"#utility.yul\":8212:8219   */\n      dup5\n        /* \"#utility.yul\":8203:8209   */\n      dup3\n        /* \"#utility.yul\":8192:8201   */\n      dup6\n        /* \"#utility.yul\":8188:8210   */\n      add\n        /* \"#utility.yul\":8156:8220   */\n      tag_87\n      jump\t// in\n    tag_180:\n        /* \"#utility.yul\":8146:8220   */\n      swap2\n      pop\n        /* \"#utility.yul\":8102:8230   */\n      pop\n        /* \"#utility.yul\":7886:8237   */\n      swap3\n      swap2\n      pop\n      pop\n      jump\t// out\n        /* \"#utility.yul\":8243:8417   */\n    tag_88:\n        /* \"#utility.yul\":8383:8409   */\n      0x4e6f7420746865206f776e6572206f6620746865204e46540000000000000000\n        /* \"#utility.yul\":8379:8380   */\n      0x00\n        /* \"#utility.yul\":8371:8377   */\n      dup3\n        /* \"#utility.yul\":8367:8381   */\n      add\n        /* \"#utility.yul\":8360:8410   */\n      mstore\n        /* \"#utility.yul\":8243:8417   */\n      pop\n      jump\t// out\n        /* \"#utility.yul\":8423:8789   */\n    tag_89:\n        /* \"#utility.yul\":8565:8568   */\n      0x00\n        /* \"#utility.yul\":8586:8653   */\n      tag_183\n        /* \"#utility.yul\":8650:8652   */\n      0x18\n        /* \"#utility.yul\":8645:8648   */\n      dup4\n        /* \"#utility.yul\":8586:8653   */\n      tag_80\n      jump\t// in\n    tag_183:\n        /* \"#utility.yul\":8579:8653   */\n      swap2\n      pop\n        /* \"#utility.yul\":8662:8755   */\n      tag_184\n        /* \"#utility.yul\":8751:8754   */\n      dup3\n        /* \"#utility.yul\":8662:8755   */\n      tag_88\n      jump\t// in\n    tag_184:\n        /* \"#utility.yul\":8780:8782   */\n      0x20\n        /* \"#utility.yul\":8775:8778   */\n      dup3\n        /* \"#utility.yul\":8771:8783   */\n      add\n        /* \"#utility.yul\":8764:8783   */\n      swap1\n      pop\n        /* \"#utility.yul\":8423:8789   */\n      swap2\n      swap1\n      pop\n      jump\t// out\n        /* \"#utility.yul\":8795:9214   */\n    tag_51:\n        /* \"#utility.yul\":8961:8965   */\n      0x00\n        /* \"#utility.yul\":8999:9001   */\n      0x20\n        /* \"#utility.yul\":8988:8997   */\n      dup3\n        /* \"#utility.yul\":8984:9002   */\n      add\n        /* \"#utility.yul\":8976:9002   */\n      swap1\n      pop\n        /* \"#utility.yul\":9048:9057   */\n      dup2\n        /* \"#utility.yul\":9042:9046   */\n      dup2\n        /* \"#utility.yul\":9038:9058   */\n      sub\n        /* \"#utility.yul\":9034:9035   */\n      0x00\n        /* \"#utility.yul\":9023:9032   */\n      dup4\n        /* \"#utility.yul\":9019:9036   */\n      add\n        /* \"#utility.yul\":9012:9059   */\n      mstore\n        /* \"#utility.yul\":9076:9207   */\n      tag_186\n        /* \"#utility.yul\":9202:9206   */\n      dup2\n        /* \"#utility.yul\":9076:9207   */\n      tag_89\n      jump\t// in\n    tag_186:\n        /* \"#utility.yul\":9068:9207   */\n      swap1\n      pop\n        /* \"#utility.yul\":8795:9214   */\n      swap2\n      swap1\n      pop\n      jump\t// out\n        /* \"#utility.yul\":9220:9552   */\n    tag_53:\n        /* \"#utility.yul\":9341:9345   */\n      0x00\n        /* \"#utility.yul\":9379:9381   */\n      0x40\n        /* \"#utility.yul\":9368:9377   */\n      dup3\n        /* \"#utility.yul\":9364:9382   */\n      add\n        /* \"#utility.yul\":9356:9382   */\n      swap1\n      pop\n        /* \"#utility.yul\":9392:9463   */\n      tag_188\n        /* \"#utility.yul\":9460:9461   */\n      0x00\n        /* \"#utility.yul\":9449:9458   */\n      dup4\n        /* \"#utility.yul\":9445:9462   */\n      add\n        /* \"#utility.yul\":9436:9442   */\n      dup6\n        /* \"#utility.yul\":9392:9463   */\n      tag_71\n      jump\t// in\n    tag_188:\n        /* \"#utility.yul\":9473:9545   */\n      tag_189\n        /* \"#utility.yul\":9541:9543   */\n      0x20\n        /* \"#utility.yul\":9530:9539   */\n      dup4\n        /* \"#utility.yul\":9526:9544   */\n      add\n        /* \"#utility.yul\":9517:9523   */\n      dup5\n        /* \"#utility.yul\":9473:9545   */\n      tag_71\n      jump\t// in\n    tag_189:\n        /* \"#utility.yul\":9220:9552   */\n      swap4\n      swap3\n      pop\n      pop\n      pop\n      jump\t// out\n        /* \"#utility.yul\":9558:9729   */\n    tag_90:\n        /* \"#utility.yul\":9698:9721   */\n      0x436f6e7472616374206e6f7420617070726f7665640000000000000000000000\n        /* \"#utility.yul\":9694:9695   */\n      0x00\n        /* \"#utility.yul\":9686:9692   */\n      dup3\n        /* \"#utility.yul\":9682:9696   */\n      add\n        /* \"#utility.yul\":9675:9722   */\n      mstore\n        /* \"#utility.yul\":9558:9729   */\n      pop\n      jump\t// out\n        /* \"#utility.yul\":9735:10101   */\n    tag_91:\n        /* \"#utility.yul\":9877:9880   */\n      0x00\n        /* \"#utility.yul\":9898:9965   */\n      tag_192\n        /* \"#utility.yul\":9962:9964   */\n      0x15\n        /* \"#utility.yul\":9957:9960   */\n      dup4\n        /* \"#utility.yul\":9898:9965   */\n      tag_80\n      jump\t// in\n    tag_192:\n        /* \"#utility.yul\":9891:9965   */\n      swap2\n      pop\n        /* \"#utility.yul\":9974:10067   */\n      tag_193\n        /* \"#utility.yul\":10063:10066   */\n      dup3\n        /* \"#utility.yul\":9974:10067   */\n      tag_90\n      jump\t// in\n    tag_193:\n        /* \"#utility.yul\":10092:10094   */\n      0x20\n        /* \"#utility.yul\":10087:10090   */\n      dup3\n        /* \"#utility.yul\":10083:10095   */\n      add\n        /* \"#utility.yul\":10076:10095   */\n      swap1\n      pop\n        /* \"#utility.yul\":9735:10101   */\n      swap2\n      swap1\n      pop\n      jump\t// out\n        /* \"#utility.yul\":10107:10526   */\n    tag_59:\n        /* \"#utility.yul\":10273:10277   */\n      0x00\n        /* \"#utility.yul\":10311:10313   */\n      0x20\n        /* \"#utility.yul\":10300:10309   */\n      dup3\n        /* \"#utility.yul\":10296:10314   */\n      add\n        /* \"#utility.yul\":10288:10314   */\n      swap1\n      pop\n        /* \"#utility.yul\":10360:10369   */\n      dup2\n        /* \"#utility.yul\":10354:10358   */\n      dup2\n        /* \"#utility.yul\":10350:10370   */\n      sub\n        /* \"#utility.yul\":10346:10347   */\n      0x00\n        /* \"#utility.yul\":10335:10344   */\n      dup4\n        /* \"#utility.yul\":10331:10348   */\n      add\n        /* \"#utility.yul\":10324:10371   */\n      mstore\n        /* \"#utility.yul\":10388:10519   */\n      tag_195\n        /* \"#utility.yul\":10514:10518   */\n      dup2\n        /* \"#utility.yul\":10388:10519   */\n      tag_91\n      jump\t// in\n    tag_195:\n        /* \"#utility.yul\":10380:10519   */\n      swap1\n      pop\n        /* \"#utility.yul\":10107:10526   */\n      swap2\n      swap1\n      pop\n      jump\t// out\n\n    auxdata: 0xa264697066735822122044d98acc5354c269c7a5c55bdc6affe891ebade8ba438324303ef17cdac7cf6564736f6c63430008180033\n}\n",
				"bytecode": {
					"linkReferences": {},
					"object": "608060405234801561000f575f80fd5b50604051610dd6380380610dd6833981810160405281019061003191906100e6565b8060015f6101000a81548173ffffffffffffffffffffffffffffffffffffffff021916908373ffffffffffffffffffffffffffffffffffffffff16021790555050610111565b5f80fd5b5f73ffffffffffffffffffffffffffffffffffffffff82169050919050565b5f6100a48261007b565b9050919050565b5f6100b58261009a565b9050919050565b6100c5816100ab565b81146100cf575f80fd5b50565b5f815190506100e0816100bc565b92915050565b5f602082840312156100fb576100fa610077565b5b5f610108848285016100d2565b91505092915050565b610cb88061011e5f395ff3fe608060405234801561000f575f80fd5b5060043610610049575f3560e01c806207df301461004d5780633013ce2914610081578063a82ba76f1461009f578063ad05f1b4146100bb575b5f80fd5b6100676004803603810190610062919061083e565b6100d7565b6040516100789594939291906108b4565b60405180910390f35b61008961015d565b6040516100969190610960565b60405180910390f35b6100b960048036038101906100b4919061083e565b610182565b005b6100d560048036038101906100d09190610979565b61043e565b005b5f602052815f5260405f20602052805f5260405f205f9150915050805f015f9054906101000a900473ffffffffffffffffffffffffffffffffffffffff1690806001015f9054906101000a900473ffffffffffffffffffffffffffffffffffffffff1690806002015490806003015490806004015f9054906101000a900460ff16905085565b60015f9054906101000a900473ffffffffffffffffffffffffffffffffffffffff1681565b5f805f8473ffffffffffffffffffffffffffffffffffffffff1673ffffffffffffffffffffffffffffffffffffffff1681526020019081526020015f205f8381526020019081526020015f209050806004015f9054906101000a900460ff16610220576040517f08c379a000000000000000000000000000000000000000000000000000000000815260040161021790610a23565b60405180910390fd5b5f83905060015f9054906101000a900473ffffffffffffffffffffffffffffffffffffffff1673ffffffffffffffffffffffffffffffffffffffff166323b872dd33845f015f9054906101000a900473ffffffffffffffffffffffffffffffffffffffff1685600301546040518463ffffffff1660e01b81526004016102a893929190610a41565b6020604051808303815f875af11580156102c4573d5f803e3d5ffd5b505050506040513d601f19601f820116820180604052508101906102e89190610aa0565b610327576040517f08c379a000000000000000000000000000000000000000000000000000000000815260040161031e90610b15565b60405180910390fd5b8073ffffffffffffffffffffffffffffffffffffffff166323b872dd835f015f9054906101000a900473ffffffffffffffffffffffffffffffffffffffff1633866040518463ffffffff1660e01b815260040161038693929190610a41565b5f604051808303815f87803b15801561039d575f80fd5b505af11580156103af573d5f803e3d5ffd5b505050505f826004015f6101000a81548160ff021916908315150217905550828473ffffffffffffffffffffffffffffffffffffffff163373ffffffffffffffffffffffffffffffffffffffff167f5a55b2d970d079d39ce4c5dc9ec6de52ebfc2bbcfc7466d62eea534ee873667385600301546040516104309190610b33565b60405180910390a450505050565b5f8390503373ffffffffffffffffffffffffffffffffffffffff168173ffffffffffffffffffffffffffffffffffffffff16636352211e856040518263ffffffff1660e01b81526004016104929190610b33565b602060405180830381865afa1580156104ad573d5f803e3d5ffd5b505050506040513d601f19601f820116820180604052508101906104d19190610b60565b73ffffffffffffffffffffffffffffffffffffffff1614610527576040517f08c379a000000000000000000000000000000000000000000000000000000000815260040161051e90610bd5565b60405180910390fd5b8073ffffffffffffffffffffffffffffffffffffffff1663e985e9c533306040518363ffffffff1660e01b8152600401610562929190610bf3565b602060405180830381865afa15801561057d573d5f803e3d5ffd5b505050506040513d601f19601f820116820180604052508101906105a19190610aa0565b6105e0576040517f08c379a00000000000000000000000000000000000000000000000000000000081526004016105d790610c64565b60405180910390fd5b6040518060a001604052803373ffffffffffffffffffffffffffffffffffffffff1681526020018573ffffffffffffffffffffffffffffffffffffffff168152602001848152602001838152602001600115158152505f808673ffffffffffffffffffffffffffffffffffffffff1673ffffffffffffffffffffffffffffffffffffffff1681526020019081526020015f205f8581526020019081526020015f205f820151815f015f6101000a81548173ffffffffffffffffffffffffffffffffffffffff021916908373ffffffffffffffffffffffffffffffffffffffff1602179055506020820151816001015f6101000a81548173ffffffffffffffffffffffffffffffffffffffff021916908373ffffffffffffffffffffffffffffffffffffffff16021790555060408201518160020155606082015181600301556080820151816004015f6101000a81548160ff021916908315150217905550905050828473ffffffffffffffffffffffffffffffffffffffff163373ffffffffffffffffffffffffffffffffffffffff167fbeab3a2bb824b124a8a1eb465eec003338d61b414db132d37e9b3a984fdcf0108560405161079f9190610b33565b60405180910390a450505050565b5f80fd5b5f73ffffffffffffffffffffffffffffffffffffffff82169050919050565b5f6107da826107b1565b9050919050565b6107ea816107d0565b81146107f4575f80fd5b50565b5f81359050610805816107e1565b92915050565b5f819050919050565b61081d8161080b565b8114610827575f80fd5b50565b5f8135905061083881610814565b92915050565b5f8060408385031215610854576108536107ad565b5b5f610861858286016107f7565b92505060206108728582860161082a565b9150509250929050565b610885816107d0565b82525050565b6108948161080b565b82525050565b5f8115159050919050565b6108ae8161089a565b82525050565b5f60a0820190506108c75f83018861087c565b6108d4602083018761087c565b6108e1604083018661088b565b6108ee606083018561088b565b6108fb60808301846108a5565b9695505050505050565b5f819050919050565b5f61092861092361091e846107b1565b610905565b6107b1565b9050919050565b5f6109398261090e565b9050919050565b5f61094a8261092f565b9050919050565b61095a81610940565b82525050565b5f6020820190506109735f830184610951565b92915050565b5f805f606084860312156109905761098f6107ad565b5b5f61099d868287016107f7565b93505060206109ae8682870161082a565b92505060406109bf8682870161082a565b9150509250925092565b5f82825260208201905092915050565b7f4e6f74206e6f74206c697374656420666f722073616c650000000000000000005f82015250565b5f610a0d6017836109c9565b9150610a18826109d9565b602082019050919050565b5f6020820190508181035f830152610a3a81610a01565b9050919050565b5f606082019050610a545f83018661087c565b610a61602083018561087c565b610a6e604083018461088b565b949350505050565b610a7f8161089a565b8114610a89575f80fd5b50565b5f81519050610a9a81610a76565b92915050565b5f60208284031215610ab557610ab46107ad565b5b5f610ac284828501610a8c565b91505092915050565b7f5061796d656e74206661696c65640000000000000000000000000000000000005f82015250565b5f610aff600e836109c9565b9150610b0a82610acb565b602082019050919050565b5f6020820190508181035f830152610b2c81610af3565b9050919050565b5f602082019050610b465f83018461088b565b92915050565b5f81519050610b5a816107e1565b92915050565b5f60208284031215610b7557610b746107ad565b5b5f610b8284828501610b4c565b91505092915050565b7f4e6f7420746865206f776e6572206f6620746865204e465400000000000000005f82015250565b5f610bbf6018836109c9565b9150610bca82610b8b565b602082019050919050565b5f6020820190508181035f830152610bec81610bb3565b9050919050565b5f604082019050610c065f83018561087c565b610c13602083018461087c565b9392505050565b7f436f6e7472616374206e6f7420617070726f76656400000000000000000000005f82015250565b5f610c4e6015836109c9565b9150610c5982610c1a565b602082019050919050565b5f6020820190508181035f830152610c7b81610c42565b905091905056fea264697066735822122044d98acc5354c269c7a5c55bdc6affe891ebade8ba438324303ef17cdac7cf6564736f6c63430008180033",
					"opcodes": "PUSH1 0x80 PUSH1 0x40 MSTORE CALLVALUE DUP1 ISZERO PUSH2 0xF JUMPI PUSH0 DUP1 REVERT JUMPDEST POP PUSH1 0x40 MLOAD PUSH2 0xDD6 CODESIZE SUB DUP1 PUSH2 0xDD6 DUP4 CODECOPY DUP2 DUP2 ADD PUSH1 0x40 MSTORE DUP2 ADD SWAP1 PUSH2 0x31 SWAP2 SWAP1 PUSH2 0xE6 JUMP JUMPDEST DUP1 PUSH1 0x1 PUSH0 PUSH2 0x100 EXP DUP2 SLOAD DUP2 PUSH20 0xFFFFFFFFFFFFFFFFFFFFFFFFFFFFFFFFFFFFFFFF MUL NOT AND SWAP1 DUP4 PUSH20 0xFFFFFFFFFFFFFFFFFFFFFFFFFFFFFFFFFFFFFFFF AND MUL OR SWAP1 SSTORE POP POP PUSH2 0x111 JUMP JUMPDEST PUSH0 DUP1 REVERT JUMPDEST PUSH0 PUSH20 0xFFFFFFFFFFFFFFFFFFFFFFFFFFFFFFFFFFFFFFFF DUP3 AND SWAP1 POP SWAP2 SWAP1 POP JUMP JUMPDEST PUSH0 PUSH2 0xA4 DUP3 PUSH2 0x7B JUMP JUMPDEST SWAP1 POP SWAP2 SWAP1 POP JUMP JUMPDEST PUSH0 PUSH2 0xB5 DUP3 PUSH2 0x9A JUMP JUMPDEST SWAP1 POP SWAP2 SWAP1 POP JUMP JUMPDEST PUSH2 0xC5 DUP2 PUSH2 0xAB JUMP JUMPDEST DUP2 EQ PUSH2 0xCF JUMPI PUSH0 DUP1 REVERT JUMPDEST POP JUMP JUMPDEST PUSH0 DUP2 MLOAD SWAP1 POP PUSH2 0xE0 DUP2 PUSH2 0xBC JUMP JUMPDEST SWAP3 SWAP2 POP POP JUMP JUMPDEST PUSH0 PUSH1 0x20 DUP3 DUP5 SUB SLT ISZERO PUSH2 0xFB JUMPI PUSH2 0xFA PUSH2 0x77 JUMP JUMPDEST JUMPDEST PUSH0 PUSH2 0x108 DUP5 DUP3 DUP6 ADD PUSH2 0xD2 JUMP JUMPDEST SWAP2 POP POP SWAP3 SWAP2 POP POP JUMP JUMPDEST PUSH2 0xCB8 DUP1 PUSH2 0x11E PUSH0 CODECOPY PUSH0 RETURN INVALID PUSH1 0x80 PUSH1 0x40 MSTORE CALLVALUE DUP1 ISZERO PUSH2 0xF JUMPI PUSH0 DUP1 REVERT JUMPDEST POP PUSH1 0x4 CALLDATASIZE LT PUSH2 0x49 JUMPI PUSH0 CALLDATALOAD PUSH1 0xE0 SHR DUP1 PUSH3 0x7DF30 EQ PUSH2 0x4D JUMPI DUP1 PUSH4 0x3013CE29 EQ PUSH2 0x81 JUMPI DUP1 PUSH4 0xA82BA76F EQ PUSH2 0x9F JUMPI DUP1 PUSH4 0xAD05F1B4 EQ PUSH2 0xBB JUMPI JUMPDEST PUSH0 DUP1 REVERT JUMPDEST PUSH2 0x67 PUSH1 0x4 DUP1 CALLDATASIZE SUB DUP2 ADD SWAP1 PUSH2 0x62 SWAP2 SWAP1 PUSH2 0x83E JUMP JUMPDEST PUSH2 0xD7 JUMP JUMPDEST PUSH1 0x40 MLOAD PUSH2 0x78 SWAP6 SWAP5 SWAP4 SWAP3 SWAP2 SWAP1 PUSH2 0x8B4 JUMP JUMPDEST PUSH1 0x40 MLOAD DUP1 SWAP2 SUB SWAP1 RETURN JUMPDEST PUSH2 0x89 PUSH2 0x15D JUMP JUMPDEST PUSH1 0x40 MLOAD PUSH2 0x96 SWAP2 SWAP1 PUSH2 0x960 JUMP JUMPDEST PUSH1 0x40 MLOAD DUP1 SWAP2 SUB SWAP1 RETURN JUMPDEST PUSH2 0xB9 PUSH1 0x4 DUP1 CALLDATASIZE SUB DUP2 ADD SWAP1 PUSH2 0xB4 SWAP2 SWAP1 PUSH2 0x83E JUMP JUMPDEST PUSH2 0x182 JUMP JUMPDEST STOP JUMPDEST PUSH2 0xD5 PUSH1 0x4 DUP1 CALLDATASIZE SUB DUP2 ADD SWAP1 PUSH2 0xD0 SWAP2 SWAP1 PUSH2 0x979 JUMP JUMPDEST PUSH2 0x43E JUMP JUMPDEST STOP JUMPDEST PUSH0 PUSH1 0x20 MSTORE DUP2 PUSH0 MSTORE PUSH1 0x40 PUSH0 KECCAK256 PUSH1 0x20 MSTORE DUP1 PUSH0 MSTORE PUSH1 0x40 PUSH0 KECCAK256 PUSH0 SWAP2 POP SWAP2 POP POP DUP1 PUSH0 ADD PUSH0 SWAP1 SLOAD SWAP1 PUSH2 0x100 EXP SWAP1 DIV PUSH20 0xFFFFFFFFFFFFFFFFFFFFFFFFFFFFFFFFFFFFFFFF AND SWAP1 DUP1 PUSH1 0x1 ADD PUSH0 SWAP1 SLOAD SWAP1 PUSH2 0x100 EXP SWAP1 DIV PUSH20 0xFFFFFFFFFFFFFFFFFFFFFFFFFFFFFFFFFFFFFFFF AND SWAP1 DUP1 PUSH1 0x2 ADD SLOAD SWAP1 DUP1 PUSH1 0x3 ADD SLOAD SWAP1 DUP1 PUSH1 0x4 ADD PUSH0 SWAP1 SLOAD SWAP1 PUSH2 0x100 EXP SWAP1 DIV PUSH1 0xFF AND SWAP1 POP DUP6 JUMP JUMPDEST PUSH1 0x1 PUSH0 SWAP1 SLOAD SWAP1 PUSH2 0x100 EXP SWAP1 DIV PUSH20 0xFFFFFFFFFFFFFFFFFFFFFFFFFFFFFFFFFFFFFFFF AND DUP2 JUMP JUMPDEST PUSH0 DUP1 PUSH0 DUP5 PUSH20 0xFFFFFFFFFFFFFFFFFFFFFFFFFFFFFFFFFFFFFFFF AND PUSH20 0xFFFFFFFFFFFFFFFFFFFFFFFFFFFFFFFFFFFFFFFF AND DUP2 MSTORE PUSH1 0x20 ADD SWAP1 DUP2 MSTORE PUSH1 0x20 ADD PUSH0 KECCAK256 PUSH0 DUP4 DUP2 MSTORE PUSH1 0x20 ADD SWAP1 DUP2 MSTORE PUSH1 0x20 ADD PUSH0 KECCAK256 SWAP1 POP DUP1 PUSH1 0x4 ADD PUSH0 SWAP1 SLOAD SWAP1 PUSH2 0x100 EXP SWAP1 DIV PUSH1 0xFF AND PUSH2 0x220 JUMPI PUSH1 0x40 MLOAD PUSH32 0x8C379A000000000000000000000000000000000000000000000000000000000 DUP2 MSTORE PUSH1 0x4 ADD PUSH2 0x217 SWAP1 PUSH2 0xA23 JUMP JUMPDEST PUSH1 0x40 MLOAD DUP1 SWAP2 SUB SWAP1 REVERT JUMPDEST PUSH0 DUP4 SWAP1 POP PUSH1 0x1 PUSH0 SWAP1 SLOAD SWAP1 PUSH2 0x100 EXP SWAP1 DIV PUSH20 0xFFFFFFFFFFFFFFFFFFFFFFFFFFFFFFFFFFFFFFFF AND PUSH20 0xFFFFFFFFFFFFFFFFFFFFFFFFFFFFFFFFFFFFFFFF AND PUSH4 0x23B872DD CALLER DUP5 PUSH0 ADD PUSH0 SWAP1 SLOAD SWAP1 PUSH2 0x100 EXP SWAP1 DIV PUSH20 0xFFFFFFFFFFFFFFFFFFFFFFFFFFFFFFFFFFFFFFFF AND DUP6 PUSH1 0x3 ADD SLOAD PUSH1 0x40 MLOAD DUP5 PUSH4 0xFFFFFFFF AND PUSH1 0xE0 SHL DUP2 MSTORE PUSH1 0x4 ADD PUSH2 0x2A8 SWAP4 SWAP3 SWAP2 SWAP1 PUSH2 0xA41 JUMP JUMPDEST PUSH1 0x20 PUSH1 0x40 MLOAD DUP1 DUP4 SUB DUP2 PUSH0 DUP8 GAS CALL ISZERO DUP1 ISZERO PUSH2 0x2C4 JUMPI RETURNDATASIZE PUSH0 DUP1 RETURNDATACOPY RETURNDATASIZE PUSH0 REVERT JUMPDEST POP POP POP POP PUSH1 0x40 MLOAD RETURNDATASIZE PUSH1 0x1F NOT PUSH1 0x1F DUP3 ADD AND DUP3 ADD DUP1 PUSH1 0x40 MSTORE POP DUP2 ADD SWAP1 PUSH2 0x2E8 SWAP2 SWAP1 PUSH2 0xAA0 JUMP JUMPDEST PUSH2 0x327 JUMPI PUSH1 0x40 MLOAD PUSH32 0x8C379A000000000000000000000000000000000000000000000000000000000 DUP2 MSTORE PUSH1 0x4 ADD PUSH2 0x31E SWAP1 PUSH2 0xB15 JUMP JUMPDEST PUSH1 0x40 MLOAD DUP1 SWAP2 SUB SWAP1 REVERT JUMPDEST DUP1 PUSH20 0xFFFFFFFFFFFFFFFFFFFFFFFFFFFFFFFFFFFFFFFF AND PUSH4 0x23B872DD DUP4 PUSH0 ADD PUSH0 SWAP1 SLOAD SWAP1 PUSH2 0x100 EXP SWAP1 DIV PUSH20 0xFFFFFFFFFFFFFFFFFFFFFFFFFFFFFFFFFFFFFFFF AND CALLER DUP7 PUSH1 0x40 MLOAD DUP5 PUSH4 0xFFFFFFFF AND PUSH1 0xE0 SHL DUP2 MSTORE PUSH1 0x4 ADD PUSH2 0x386 SWAP4 SWAP3 SWAP2 SWAP1 PUSH2 0xA41 JUMP JUMPDEST PUSH0 PUSH1 0x40 MLOAD DUP1 DUP4 SUB DUP2 PUSH0 DUP8 DUP1 EXTCODESIZE ISZERO DUP1 ISZERO PUSH2 0x39D JUMPI PUSH0 DUP1 REVERT JUMPDEST POP GAS CALL ISZERO DUP1 ISZERO PUSH2 0x3AF JUMPI RETURNDATASIZE PUSH0 DUP1 RETURNDATACOPY RETURNDATASIZE PUSH0 REVERT JUMPDEST POP POP POP POP PUSH0 DUP3 PUSH1 0x4 ADD PUSH0 PUSH2 0x100 EXP DUP2 SLOAD DUP2 PUSH1 0xFF MUL NOT AND SWAP1 DUP4 ISZERO ISZERO MUL OR SWAP1 SSTORE POP DUP3 DUP5 PUSH20 0xFFFFFFFFFFFFFFFFFFFFFFFFFFFFFFFFFFFFFFFF AND CALLER PUSH20 0xFFFFFFFFFFFFFFFFFFFFFFFFFFFFFFFFFFFFFFFF AND PUSH32 0x5A55B2D970D079D39CE4C5DC9EC6DE52EBFC2BBCFC7466D62EEA534EE8736673 DUP6 PUSH1 0x3 ADD SLOAD PUSH1 0x40 MLOAD PUSH2 0x430 SWAP2 SWAP1 PUSH2 0xB33 JUMP JUMPDEST PUSH1 0x40 MLOAD DUP1 SWAP2 SUB SWAP1 LOG4 POP POP POP POP JUMP JUMPDEST PUSH0 DUP4 SWAP1 POP CALLER PUSH20 0xFFFFFFFFFFFFFFFFFFFFFFFFFFFFFFFFFFFFFFFF AND DUP2 PUSH20 0xFFFFFFFFFFFFFFFFFFFFFFFFFFFFFFFFFFFFFFFF AND PUSH4 0x6352211E DUP6 PUSH1 0x40 MLOAD DUP3 PUSH4 0xFFFFFFFF AND PUSH1 0xE0 SHL DUP2 MSTORE PUSH1 0x4 ADD PUSH2 0x492 SWAP2 SWAP1 PUSH2 0xB33 JUMP JUMPDEST PUSH1 0x20 PUSH1 0x40 MLOAD DUP1 DUP4 SUB DUP2 DUP7 GAS STATICCALL ISZERO DUP1 ISZERO PUSH2 0x4AD JUMPI RETURNDATASIZE PUSH0 DUP1 RETURNDATACOPY RETURNDATASIZE PUSH0 REVERT JUMPDEST POP POP POP POP PUSH1 0x40 MLOAD RETURNDATASIZE PUSH1 0x1F NOT PUSH1 0x1F DUP3 ADD AND DUP3 ADD DUP1 PUSH1 0x40 MSTORE POP DUP2 ADD SWAP1 PUSH2 0x4D1 SWAP2 SWAP1 PUSH2 0xB60 JUMP JUMPDEST PUSH20 0xFFFFFFFFFFFFFFFFFFFFFFFFFFFFFFFFFFFFFFFF AND EQ PUSH2 0x527 JUMPI PUSH1 0x40 MLOAD PUSH32 0x8C379A000000000000000000000000000000000000000000000000000000000 DUP2 MSTORE PUSH1 0x4 ADD PUSH2 0x51E SWAP1 PUSH2 0xBD5 JUMP JUMPDEST PUSH1 0x40 MLOAD DUP1 SWAP2 SUB SWAP1 REVERT JUMPDEST DUP1 PUSH20 0xFFFFFFFFFFFFFFFFFFFFFFFFFFFFFFFFFFFFFFFF AND PUSH4 0xE985E9C5 CALLER ADDRESS PUSH1 0x40 MLOAD DUP4 PUSH4 0xFFFFFFFF AND PUSH1 0xE0 SHL DUP2 MSTORE PUSH1 0x4 ADD PUSH2 0x562 SWAP3 SWAP2 SWAP1 PUSH2 0xBF3 JUMP JUMPDEST PUSH1 0x20 PUSH1 0x40 MLOAD DUP1 DUP4 SUB DUP2 DUP7 GAS STATICCALL ISZERO DUP1 ISZERO PUSH2 0x57D JUMPI RETURNDATASIZE PUSH0 DUP1 RETURNDATACOPY RETURNDATASIZE PUSH0 REVERT JUMPDEST POP POP POP POP PUSH1 0x40 MLOAD RETURNDATASIZE PUSH1 0x1F NOT PUSH1 0x1F DUP3 ADD AND DUP3 ADD DUP1 PUSH1 0x40 MSTORE POP DUP2 ADD SWAP1 PUSH2 0x5A1 SWAP2 SWAP1 PUSH2 0xAA0 JUMP JUMPDEST PUSH2 0x5E0 JUMPI PUSH1 0x40 MLOAD PUSH32 0x8C379A000000000000000000000000000000000000000000000000000000000 DUP2 MSTORE PUSH1 0x4 ADD PUSH2 0x5D7 SWAP1 PUSH2 0xC64 JUMP JUMPDEST PUSH1 0x40 MLOAD DUP1 SWAP2 SUB SWAP1 REVERT JUMPDEST PUSH1 0x40 MLOAD DUP1 PUSH1 0xA0 ADD PUSH1 0x40 MSTORE DUP1 CALLER PUSH20 0xFFFFFFFFFFFFFFFFFFFFFFFFFFFFFFFFFFFFFFFF AND DUP2 MSTORE PUSH1 0x20 ADD DUP6 PUSH20 0xFFFFFFFFFFFFFFFFFFFFFFFFFFFFFFFFFFFFFFFF AND DUP2 MSTORE PUSH1 0x20 ADD DUP5 DUP2 MSTORE PUSH1 0x20 ADD DUP4 DUP2 MSTORE PUSH1 0x20 ADD PUSH1 0x1 ISZERO ISZERO DUP2 MSTORE POP PUSH0 DUP1 DUP7 PUSH20 0xFFFFFFFFFFFFFFFFFFFFFFFFFFFFFFFFFFFFFFFF AND PUSH20 0xFFFFFFFFFFFFFFFFFFFFFFFFFFFFFFFFFFFFFFFF AND DUP2 MSTORE PUSH1 0x20 ADD SWAP1 DUP2 MSTORE PUSH1 0x20 ADD PUSH0 KECCAK256 PUSH0 DUP6 DUP2 MSTORE PUSH1 0x20 ADD SWAP1 DUP2 MSTORE PUSH1 0x20 ADD PUSH0 KECCAK256 PUSH0 DUP3 ADD MLOAD DUP2 PUSH0 ADD PUSH0 PUSH2 0x100 EXP DUP2 SLOAD DUP2 PUSH20 0xFFFFFFFFFFFFFFFFFFFFFFFFFFFFFFFFFFFFFFFF MUL NOT AND SWAP1 DUP4 PUSH20 0xFFFFFFFFFFFFFFFFFFFFFFFFFFFFFFFFFFFFFFFF AND MUL OR SWAP1 SSTORE POP PUSH1 0x20 DUP3 ADD MLOAD DUP2 PUSH1 0x1 ADD PUSH0 PUSH2 0x100 EXP DUP2 SLOAD DUP2 PUSH20 0xFFFFFFFFFFFFFFFFFFFFFFFFFFFFFFFFFFFFFFFF MUL NOT AND SWAP1 DUP4 PUSH20 0xFFFFFFFFFFFFFFFFFFFFFFFFFFFFFFFFFFFFFFFF AND MUL OR SWAP1 SSTORE POP PUSH1 0x40 DUP3 ADD MLOAD DUP2 PUSH1 0x2 ADD SSTORE PUSH1 0x60 DUP3 ADD MLOAD DUP2 PUSH1 0x3 ADD SSTORE PUSH1 0x80 DUP3 ADD MLOAD DUP2 PUSH1 0x4 ADD PUSH0 PUSH2 0x100 EXP DUP2 SLOAD DUP2 PUSH1 0xFF MUL NOT AND SWAP1 DUP4 ISZERO ISZERO MUL OR SWAP1 SSTORE POP SWAP1 POP POP DUP3 DUP5 PUSH20 0xFFFFFFFFFFFFFFFFFFFFFFFFFFFFFFFFFFFFFFFF AND CALLER PUSH20 0xFFFFFFFFFFFFFFFFFFFFFFFFFFFFFFFFFFFFFFFF AND PUSH32 0xBEAB3A2BB824B124A8A1EB465EEC003338D61B414DB132D37E9B3A984FDCF010 DUP6 PUSH1 0x40 MLOAD PUSH2 0x79F SWAP2 SWAP1 PUSH2 0xB33 JUMP JUMPDEST PUSH1 0x40 MLOAD DUP1 SWAP2 SUB SWAP1 LOG4 POP POP POP POP JUMP JUMPDEST PUSH0 DUP1 REVERT JUMPDEST PUSH0 PUSH20 0xFFFFFFFFFFFFFFFFFFFFFFFFFFFFFFFFFFFFFFFF DUP3 AND SWAP1 POP SWAP2 SWAP1 POP JUMP JUMPDEST PUSH0 PUSH2 0x7DA DUP3 PUSH2 0x7B1 JUMP JUMPDEST SWAP1 POP SWAP2 SWAP1 POP JUMP JUMPDEST PUSH2 0x7EA DUP2 PUSH2 0x7D0 JUMP JUMPDEST DUP2 EQ PUSH2 0x7F4 JUMPI PUSH0 DUP1 REVERT JUMPDEST POP JUMP JUMPDEST PUSH0 DUP2 CALLDATALOAD SWAP1 POP PUSH2 0x805 DUP2 PUSH2 0x7E1 JUMP JUMPDEST SWAP3 SWAP2 POP POP JUMP JUMPDEST PUSH0 DUP2 SWAP1 POP SWAP2 SWAP1 POP JUMP JUMPDEST PUSH2 0x81D DUP2 PUSH2 0x80B JUMP JUMPDEST DUP2 EQ PUSH2 0x827 JUMPI PUSH0 DUP1 REVERT JUMPDEST POP JUMP JUMPDEST PUSH0 DUP2 CALLDATALOAD SWAP1 POP PUSH2 0x838 DUP2 PUSH2 0x814 JUMP JUMPDEST SWAP3 SWAP2 POP POP JUMP JUMPDEST PUSH0 DUP1 PUSH1 0x40 DUP4 DUP6 SUB SLT ISZERO PUSH2 0x854 JUMPI PUSH2 0x853 PUSH2 0x7AD JUMP JUMPDEST JUMPDEST PUSH0 PUSH2 0x861 DUP6 DUP3 DUP7 ADD PUSH2 0x7F7 JUMP JUMPDEST SWAP3 POP POP PUSH1 0x20 PUSH2 0x872 DUP6 DUP3 DUP7 ADD PUSH2 0x82A JUMP JUMPDEST SWAP2 POP POP SWAP3 POP SWAP3 SWAP1 POP JUMP JUMPDEST PUSH2 0x885 DUP2 PUSH2 0x7D0 JUMP JUMPDEST DUP3 MSTORE POP POP JUMP JUMPDEST PUSH2 0x894 DUP2 PUSH2 0x80B JUMP JUMPDEST DUP3 MSTORE POP POP JUMP JUMPDEST PUSH0 DUP2 ISZERO ISZERO SWAP1 POP SWAP2 SWAP1 POP JUMP JUMPDEST PUSH2 0x8AE DUP2 PUSH2 0x89A JUMP JUMPDEST DUP3 MSTORE POP POP JUMP JUMPDEST PUSH0 PUSH1 0xA0 DUP3 ADD SWAP1 POP PUSH2 0x8C7 PUSH0 DUP4 ADD DUP9 PUSH2 0x87C JUMP JUMPDEST PUSH2 0x8D4 PUSH1 0x20 DUP4 ADD DUP8 PUSH2 0x87C JUMP JUMPDEST PUSH2 0x8E1 PUSH1 0x40 DUP4 ADD DUP7 PUSH2 0x88B JUMP JUMPDEST PUSH2 0x8EE PUSH1 0x60 DUP4 ADD DUP6 PUSH2 0x88B JUMP JUMPDEST PUSH2 0x8FB PUSH1 0x80 DUP4 ADD DUP5 PUSH2 0x8A5 JUMP JUMPDEST SWAP7 SWAP6 POP POP POP POP POP POP JUMP JUMPDEST PUSH0 DUP2 SWAP1 POP SWAP2 SWAP1 POP JUMP JUMPDEST PUSH0 PUSH2 0x928 PUSH2 0x923 PUSH2 0x91E DUP5 PUSH2 0x7B1 JUMP JUMPDEST PUSH2 0x905 JUMP JUMPDEST PUSH2 0x7B1 JUMP JUMPDEST SWAP1 POP SWAP2 SWAP1 POP JUMP JUMPDEST PUSH0 PUSH2 0x939 DUP3 PUSH2 0x90E JUMP JUMPDEST SWAP1 POP SWAP2 SWAP1 POP JUMP JUMPDEST PUSH0 PUSH2 0x94A DUP3 PUSH2 0x92F JUMP JUMPDEST SWAP1 POP SWAP2 SWAP1 POP JUMP JUMPDEST PUSH2 0x95A DUP2 PUSH2 0x940 JUMP JUMPDEST DUP3 MSTORE POP POP JUMP JUMPDEST PUSH0 PUSH1 0x20 DUP3 ADD SWAP1 POP PUSH2 0x973 PUSH0 DUP4 ADD DUP5 PUSH2 0x951 JUMP JUMPDEST SWAP3 SWAP2 POP POP JUMP JUMPDEST PUSH0 DUP1 PUSH0 PUSH1 0x60 DUP5 DUP7 SUB SLT ISZERO PUSH2 0x990 JUMPI PUSH2 0x98F PUSH2 0x7AD JUMP JUMPDEST JUMPDEST PUSH0 PUSH2 0x99D DUP7 DUP3 DUP8 ADD PUSH2 0x7F7 JUMP JUMPDEST SWAP4 POP POP PUSH1 0x20 PUSH2 0x9AE DUP7 DUP3 DUP8 ADD PUSH2 0x82A JUMP JUMPDEST SWAP3 POP POP PUSH1 0x40 PUSH2 0x9BF DUP7 DUP3 DUP8 ADD PUSH2 0x82A JUMP JUMPDEST SWAP2 POP POP SWAP3 POP SWAP3 POP SWAP3 JUMP JUMPDEST PUSH0 DUP3 DUP3 MSTORE PUSH1 0x20 DUP3 ADD SWAP1 POP SWAP3 SWAP2 POP POP JUMP JUMPDEST PUSH32 0x4E6F74206E6F74206C697374656420666F722073616C65000000000000000000 PUSH0 DUP3 ADD MSTORE POP JUMP JUMPDEST PUSH0 PUSH2 0xA0D PUSH1 0x17 DUP4 PUSH2 0x9C9 JUMP JUMPDEST SWAP2 POP PUSH2 0xA18 DUP3 PUSH2 0x9D9 JUMP JUMPDEST PUSH1 0x20 DUP3 ADD SWAP1 POP SWAP2 SWAP1 POP JUMP JUMPDEST PUSH0 PUSH1 0x20 DUP3 ADD SWAP1 POP DUP2 DUP2 SUB PUSH0 DUP4 ADD MSTORE PUSH2 0xA3A DUP2 PUSH2 0xA01 JUMP JUMPDEST SWAP1 POP SWAP2 SWAP1 POP JUMP JUMPDEST PUSH0 PUSH1 0x60 DUP3 ADD SWAP1 POP PUSH2 0xA54 PUSH0 DUP4 ADD DUP7 PUSH2 0x87C JUMP JUMPDEST PUSH2 0xA61 PUSH1 0x20 DUP4 ADD DUP6 PUSH2 0x87C JUMP JUMPDEST PUSH2 0xA6E PUSH1 0x40 DUP4 ADD DUP5 PUSH2 0x88B JUMP JUMPDEST SWAP5 SWAP4 POP POP POP POP JUMP JUMPDEST PUSH2 0xA7F DUP2 PUSH2 0x89A JUMP JUMPDEST DUP2 EQ PUSH2 0xA89 JUMPI PUSH0 DUP1 REVERT JUMPDEST POP JUMP JUMPDEST PUSH0 DUP2 MLOAD SWAP1 POP PUSH2 0xA9A DUP2 PUSH2 0xA76 JUMP JUMPDEST SWAP3 SWAP2 POP POP JUMP JUMPDEST PUSH0 PUSH1 0x20 DUP3 DUP5 SUB SLT ISZERO PUSH2 0xAB5 JUMPI PUSH2 0xAB4 PUSH2 0x7AD JUMP JUMPDEST JUMPDEST PUSH0 PUSH2 0xAC2 DUP5 DUP3 DUP6 ADD PUSH2 0xA8C JUMP JUMPDEST SWAP2 POP POP SWAP3 SWAP2 POP POP JUMP JUMPDEST PUSH32 0x5061796D656E74206661696C6564000000000000000000000000000000000000 PUSH0 DUP3 ADD MSTORE POP JUMP JUMPDEST PUSH0 PUSH2 0xAFF PUSH1 0xE DUP4 PUSH2 0x9C9 JUMP JUMPDEST SWAP2 POP PUSH2 0xB0A DUP3 PUSH2 0xACB JUMP JUMPDEST PUSH1 0x20 DUP3 ADD SWAP1 POP SWAP2 SWAP1 POP JUMP JUMPDEST PUSH0 PUSH1 0x20 DUP3 ADD SWAP1 POP DUP2 DUP2 SUB PUSH0 DUP4 ADD MSTORE PUSH2 0xB2C DUP2 PUSH2 0xAF3 JUMP JUMPDEST SWAP1 POP SWAP2 SWAP1 POP JUMP JUMPDEST PUSH0 PUSH1 0x20 DUP3 ADD SWAP1 POP PUSH2 0xB46 PUSH0 DUP4 ADD DUP5 PUSH2 0x88B JUMP JUMPDEST SWAP3 SWAP2 POP POP JUMP JUMPDEST PUSH0 DUP2 MLOAD SWAP1 POP PUSH2 0xB5A DUP2 PUSH2 0x7E1 JUMP JUMPDEST SWAP3 SWAP2 POP POP JUMP JUMPDEST PUSH0 PUSH1 0x20 DUP3 DUP5 SUB SLT ISZERO PUSH2 0xB75 JUMPI PUSH2 0xB74 PUSH2 0x7AD JUMP JUMPDEST JUMPDEST PUSH0 PUSH2 0xB82 DUP5 DUP3 DUP6 ADD PUSH2 0xB4C JUMP JUMPDEST SWAP2 POP POP SWAP3 SWAP2 POP POP JUMP JUMPDEST PUSH32 0x4E6F7420746865206F776E6572206F6620746865204E46540000000000000000 PUSH0 DUP3 ADD MSTORE POP JUMP JUMPDEST PUSH0 PUSH2 0xBBF PUSH1 0x18 DUP4 PUSH2 0x9C9 JUMP JUMPDEST SWAP2 POP PUSH2 0xBCA DUP3 PUSH2 0xB8B JUMP JUMPDEST PUSH1 0x20 DUP3 ADD SWAP1 POP SWAP2 SWAP1 POP JUMP JUMPDEST PUSH0 PUSH1 0x20 DUP3 ADD SWAP1 POP DUP2 DUP2 SUB PUSH0 DUP4 ADD MSTORE PUSH2 0xBEC DUP2 PUSH2 0xBB3 JUMP JUMPDEST SWAP1 POP SWAP2 SWAP1 POP JUMP JUMPDEST PUSH0 PUSH1 0x40 DUP3 ADD SWAP1 POP PUSH2 0xC06 PUSH0 DUP4 ADD DUP6 PUSH2 0x87C JUMP JUMPDEST PUSH2 0xC13 PUSH1 0x20 DUP4 ADD DUP5 PUSH2 0x87C JUMP JUMPDEST SWAP4 SWAP3 POP POP POP JUMP JUMPDEST PUSH32 0x436F6E7472616374206E6F7420617070726F7665640000000000000000000000 PUSH0 DUP3 ADD MSTORE POP JUMP JUMPDEST PUSH0 PUSH2 0xC4E PUSH1 0x15 DUP4 PUSH2 0x9C9 JUMP JUMPDEST SWAP2 POP PUSH2 0xC59 DUP3 PUSH2 0xC1A JUMP JUMPDEST PUSH1 0x20 DUP3 ADD SWAP1 POP SWAP2 SWAP1 POP JUMP JUMPDEST PUSH0 PUSH1 0x20 DUP3 ADD SWAP1 POP DUP2 DUP2 SUB PUSH0 DUP4 ADD MSTORE PUSH2 0xC7B DUP2 PUSH2 0xC42 JUMP JUMPDEST SWAP1 POP SWAP2 SWAP1 POP JUMP INVALID LOG2 PUSH5 0x6970667358 0x22 SLT KECCAK256 PREVRANDAO 0xD9 DUP11 0xCC MSTORE8 SLOAD 0xC2 PUSH10 0xC7A5C55BDC6AFFE891EB 0xAD 0xE8 0xBA NUMBER DUP4 0x24 ADDRESS RETURNDATACOPY CALL PUSH29 0xDAC7CF6564736F6C634300081800330000000000000000000000000000 "
				},
				"gasEstimates": {
					"creation": {
						"codeDepositCost": "651200",
						"executionCost": "infinite",
						"totalCost": "infinite"
					},
					"external": {
						"buyNFT(address,uint256)": "infinite",
						"listNFT(address,uint256,uint256)": "infinite",
						"listings(address,uint256)": "infinite",
						"paymentToken()": "infinite"
					}
				},
				"methodIdentifiers": {
					"buyNFT(address,uint256)": "a82ba76f",
					"listNFT(address,uint256,uint256)": "ad05f1b4",
					"listings(address,uint256)": "0007df30",
					"paymentToken()": "3013ce29"
				}
			},
			"storageLayout": {
				"storage": [
					{
						"astId": 228,
						"contract": "members/xiangnuans/task3/contracts/NFTMarket.sol:NFTMarket",
						"label": "listings",
						"offset": 0,
						"slot": "0",
						"type": "t_mapping(t_address,t_mapping(t_uint256,t_struct(Listing)221_storage))"
					},
					{
						"astId": 231,
						"contract": "members/xiangnuans/task3/contracts/NFTMarket.sol:NFTMarket",
						"label": "paymentToken",
						"offset": 0,
						"slot": "1",
						"type": "t_contract(IERC20)77"
					}
				],
				"types": {
					"t_address": {
						"encoding": "inplace",
						"label": "address",
						"numberOfBytes": "20"
					},
					"t_bool": {
						"encoding": "inplace",
						"label": "bool",
						"numberOfBytes": "1"
					},
					"t_contract(IERC20)77": {
						"encoding": "inplace",
						"label": "contract IERC20",
						"numberOfBytes": "20"
					},
					"t_mapping(t_address,t_mapping(t_uint256,t_struct(Listing)221_storage))": {
						"encoding": "mapping",
						"key": "t_address",
						"label": "mapping(address => mapping(uint256 => struct NFTMarket.Listing))",
						"numberOfBytes": "32",
						"value": "t_mapping(t_uint256,t_struct(Listing)221_storage)"
					},
					"t_mapping(t_uint256,t_struct(Listing)221_storage)": {
						"encoding": "mapping",
						"key": "t_uint256",
						"label": "mapping(uint256 => struct NFTMarket.Listing)",
						"numberOfBytes": "32",
						"value": "t_struct(Listing)221_storage"
					},
					"t_struct(Listing)221_storage": {
						"encoding": "inplace",
						"label": "struct NFTMarket.Listing",
						"members": [
							{
								"astId": 212,
								"contract": "members/xiangnuans/task3/contracts/NFTMarket.sol:NFTMarket",
								"label": "seller",
								"offset": 0,
								"slot": "0",
								"type": "t_address"
							},
							{
								"astId": 214,
								"contract": "members/xiangnuans/task3/contracts/NFTMarket.sol:NFTMarket",
								"label": "nftContract",
								"offset": 0,
								"slot": "1",
								"type": "t_address"
							},
							{
								"astId": 216,
								"contract": "members/xiangnuans/task3/contracts/NFTMarket.sol:NFTMarket",
								"label": "tokenId",
								"offset": 0,
								"slot": "2",
								"type": "t_uint256"
							},
							{
								"astId": 218,
								"contract": "members/xiangnuans/task3/contracts/NFTMarket.sol:NFTMarket",
								"label": "price",
								"offset": 0,
								"slot": "3",
								"type": "t_uint256"
							},
							{
								"astId": 220,
								"contract": "members/xiangnuans/task3/contracts/NFTMarket.sol:NFTMarket",
								"label": "isActive",
								"offset": 0,
								"slot": "4",
								"type": "t_bool"
							}
						],
						"numberOfBytes": "160"
					},
					"t_uint256": {
						"encoding": "inplace",
						"label": "uint256",
						"numberOfBytes": "32"
					}
				}
			},
			"userdoc": {
				"kind": "user",
				"methods": {},
				"version": 1
			}
		}
	}
}