{
  "_format": "hh-sol-artifact-1",
  "contractName": "Market",
  "sourceName": "src/backend/contracts/Market.sol",
  "abi": [
    {
      "inputs": [
        {
          "internalType": "address",
          "name": "_nftContract",
          "type": "address"
        },
        {
          "internalType": "address",
          "name": "_acceptedTokenAddress",
          "type": "address"
        }
      ],
      "stateMutability": "nonpayable",
      "type": "constructor"
    },
    {
      "anonymous": false,
      "inputs": [
        {
          "indexed": true,
          "internalType": "uint256",
          "name": "itemId",
          "type": "uint256"
        },
        {
          "indexed": true,
          "internalType": "uint256",
          "name": "tokenId",
          "type": "uint256"
        },
        {
          "indexed": false,
          "internalType": "address",
          "name": "seller",
          "type": "address"
        },
        {
          "indexed": false,
          "internalType": "address",
          "name": "owner",
          "type": "address"
        },
        {
          "indexed": false,
          "internalType": "uint256",
          "name": "price",
          "type": "uint256"
        }
      ],
      "name": "MarketItemCreated",
      "type": "event"
    },
    {
      "anonymous": false,
      "inputs": [
        {
          "indexed": true,
          "internalType": "uint256",
          "name": "itemId",
          "type": "uint256"
        },
        {
          "indexed": true,
          "internalType": "uint256",
          "name": "tokenId",
          "type": "uint256"
        },
        {
          "indexed": false,
          "internalType": "address",
          "name": "seller",
          "type": "address"
        },
        {
          "indexed": false,
          "internalType": "address",
          "name": "owner",
          "type": "address"
        },
        {
          "indexed": false,
          "internalType": "uint256",
          "name": "price",
          "type": "uint256"
        }
      ],
      "name": "MarketItemUpForSale",
      "type": "event"
    },
    {
      "anonymous": false,
      "inputs": [
        {
          "indexed": true,
          "internalType": "uint256",
          "name": "itemId",
          "type": "uint256"
        },
        {
          "indexed": true,
          "internalType": "uint256",
          "name": "tokenId",
          "type": "uint256"
        },
        {
          "indexed": false,
          "internalType": "address",
          "name": "seller",
          "type": "address"
        },
        {
          "indexed": false,
          "internalType": "address",
          "name": "owner",
          "type": "address"
        },
        {
          "indexed": false,
          "internalType": "uint256",
          "name": "price",
          "type": "uint256"
        }
      ],
      "name": "MarketItemUpNotForSale",
      "type": "event"
    },
    {
      "anonymous": false,
      "inputs": [
        {
          "indexed": true,
          "internalType": "address",
          "name": "previousOwner",
          "type": "address"
        },
        {
          "indexed": true,
          "internalType": "address",
          "name": "newOwner",
          "type": "address"
        }
      ],
      "name": "OwnershipTransferred",
      "type": "event"
    },
    {
      "inputs": [],
      "name": "acceptedTokenAddress",
      "outputs": [
        {
          "internalType": "address",
          "name": "",
          "type": "address"
        }
      ],
      "stateMutability": "view",
      "type": "function"
    },
    {
      "inputs": [
        {
          "internalType": "uint256",
          "name": "tokenId",
          "type": "uint256"
        },
        {
          "internalType": "uint256",
          "name": "price",
          "type": "uint256"
        }
      ],
      "name": "addItemToMarket",
      "outputs": [],
      "stateMutability": "nonpayable",
      "type": "function"
    },
    {
      "inputs": [
        {
          "internalType": "uint256",
          "name": "itemId",
          "type": "uint256"
        },
        {
          "internalType": "uint256",
          "name": "itemPrice",
          "type": "uint256"
        }
      ],
      "name": "buyItem",
      "outputs": [],
      "stateMutability": "nonpayable",
      "type": "function"
    },
    {
      "inputs": [
        {
          "internalType": "uint256",
          "name": "itemId",
          "type": "uint256"
        },
        {
          "internalType": "bool",
          "name": "changePrice",
          "type": "bool"
        },
        {
          "internalType": "uint256",
          "name": "newPrice",
          "type": "uint256"
        }
      ],
      "name": "createSale",
      "outputs": [],
      "stateMutability": "nonpayable",
      "type": "function"
    },
    {
      "inputs": [],
      "name": "getAllMarketItems",
      "outputs": [
        {
          "components": [
            {
              "internalType": "uint256",
              "name": "itemId",
              "type": "uint256"
            },
            {
              "internalType": "uint256",
              "name": "tokenId",
              "type": "uint256"
            },
            {
              "internalType": "address",
              "name": "seller",
              "type": "address"
            },
            {
              "internalType": "address",
              "name": "owner",
              "type": "address"
            },
            {
              "internalType": "uint256",
              "name": "price",
              "type": "uint256"
            },
            {
              "internalType": "bool",
              "name": "isSold",
              "type": "bool"
            },
            {
              "internalType": "bool",
              "name": "isUpForSale",
              "type": "bool"
            },
            {
              "internalType": "bool",
              "name": "exists",
              "type": "bool"
            },
            {
              "internalType": "uint256",
              "name": "createdTimestamp",
              "type": "uint256"
            },
            {
              "internalType": "uint256",
              "name": "listingTimestamp",
              "type": "uint256"
            }
          ],
          "internalType": "struct Market.MarketItem[]",
          "name": "",
          "type": "tuple[]"
        }
      ],
      "stateMutability": "view",
      "type": "function"
    },
    {
      "inputs": [
        {
          "internalType": "uint256",
          "name": "marketItemId",
          "type": "uint256"
        }
      ],
      "name": "getMarketItemById",
      "outputs": [
        {
          "components": [
            {
              "internalType": "uint256",
              "name": "itemId",
              "type": "uint256"
            },
            {
              "internalType": "uint256",
              "name": "tokenId",
              "type": "uint256"
            },
            {
              "internalType": "address",
              "name": "seller",
              "type": "address"
            },
            {
              "internalType": "address",
              "name": "owner",
              "type": "address"
            },
            {
              "internalType": "uint256",
              "name": "price",
              "type": "uint256"
            },
            {
              "internalType": "bool",
              "name": "isSold",
              "type": "bool"
            },
            {
              "internalType": "bool",
              "name": "isUpForSale",
              "type": "bool"
            },
            {
              "internalType": "bool",
              "name": "exists",
              "type": "bool"
            },
            {
              "internalType": "uint256",
              "name": "createdTimestamp",
              "type": "uint256"
            },
            {
              "internalType": "uint256",
              "name": "listingTimestamp",
              "type": "uint256"
            }
          ],
          "internalType": "struct Market.MarketItem",
          "name": "",
          "type": "tuple"
        }
      ],
      "stateMutability": "view",
      "type": "function"
    },
    {
      "inputs": [
        {
          "internalType": "uint256",
          "name": "tokenId",
          "type": "uint256"
        }
      ],
      "name": "getMarketItemByTokenId",
      "outputs": [
        {
          "components": [
            {
              "internalType": "uint256",
              "name": "itemId",
              "type": "uint256"
            },
            {
              "internalType": "uint256",
              "name": "tokenId",
              "type": "uint256"
            },
            {
              "internalType": "address",
              "name": "seller",
              "type": "address"
            },
            {
              "internalType": "address",
              "name": "owner",
              "type": "address"
            },
            {
              "internalType": "uint256",
              "name": "price",
              "type": "uint256"
            },
            {
              "internalType": "bool",
              "name": "isSold",
              "type": "bool"
            },
            {
              "internalType": "bool",
              "name": "isUpForSale",
              "type": "bool"
            },
            {
              "internalType": "bool",
              "name": "exists",
              "type": "bool"
            },
            {
              "internalType": "uint256",
              "name": "createdTimestamp",
              "type": "uint256"
            },
            {
              "internalType": "uint256",
              "name": "listingTimestamp",
              "type": "uint256"
            }
          ],
          "internalType": "struct Market.MarketItem",
          "name": "",
          "type": "tuple"
        }
      ],
      "stateMutability": "view",
      "type": "function"
    },
    {
      "inputs": [],
      "name": "getUnsoldItems",
      "outputs": [
        {
          "components": [
            {
              "internalType": "uint256",
              "name": "itemId",
              "type": "uint256"
            },
            {
              "internalType": "uint256",
              "name": "tokenId",
              "type": "uint256"
            },
            {
              "internalType": "address",
              "name": "seller",
              "type": "address"
            },
            {
              "internalType": "address",
              "name": "owner",
              "type": "address"
            },
            {
              "internalType": "uint256",
              "name": "price",
              "type": "uint256"
            },
            {
              "internalType": "bool",
              "name": "isSold",
              "type": "bool"
            },
            {
              "internalType": "bool",
              "name": "isUpForSale",
              "type": "bool"
            },
            {
              "internalType": "bool",
              "name": "exists",
              "type": "bool"
            },
            {
              "internalType": "uint256",
              "name": "createdTimestamp",
              "type": "uint256"
            },
            {
              "internalType": "uint256",
              "name": "listingTimestamp",
              "type": "uint256"
            }
          ],
          "internalType": "struct Market.MarketItem[]",
          "name": "",
          "type": "tuple[]"
        }
      ],
      "stateMutability": "view",
      "type": "function"
    },
    {
      "inputs": [
        {
          "internalType": "uint256",
          "name": "",
          "type": "uint256"
        }
      ],
      "name": "idToMarketItem",
      "outputs": [
        {
          "internalType": "uint256",
          "name": "itemId",
          "type": "uint256"
        },
        {
          "internalType": "uint256",
          "name": "tokenId",
          "type": "uint256"
        },
        {
          "internalType": "address",
          "name": "seller",
          "type": "address"
        },
        {
          "internalType": "address",
          "name": "owner",
          "type": "address"
        },
        {
          "internalType": "uint256",
          "name": "price",
          "type": "uint256"
        },
        {
          "internalType": "bool",
          "name": "isSold",
          "type": "bool"
        },
        {
          "internalType": "bool",
          "name": "isUpForSale",
          "type": "bool"
        },
        {
          "internalType": "bool",
          "name": "exists",
          "type": "bool"
        },
        {
          "internalType": "uint256",
          "name": "createdTimestamp",
          "type": "uint256"
        },
        {
          "internalType": "uint256",
          "name": "listingTimestamp",
          "type": "uint256"
        }
      ],
      "stateMutability": "view",
      "type": "function"
    },
    {
      "inputs": [],
      "name": "listingPrice",
      "outputs": [
        {
          "internalType": "uint256",
          "name": "",
          "type": "uint256"
        }
      ],
      "stateMutability": "view",
      "type": "function"
    },
    {
      "inputs": [],
      "name": "nftContract",
      "outputs": [
        {
          "internalType": "address",
          "name": "",
          "type": "address"
        }
      ],
      "stateMutability": "view",
      "type": "function"
    },
    {
      "inputs": [
        {
          "internalType": "address",
          "name": "operator",
          "type": "address"
        },
        {
          "internalType": "address",
          "name": "from",
          "type": "address"
        },
        {
          "internalType": "uint256",
          "name": "tokenId",
          "type": "uint256"
        },
        {
          "internalType": "bytes",
          "name": "data",
          "type": "bytes"
        }
      ],
      "name": "onERC721Received",
      "outputs": [
        {
          "internalType": "bytes4",
          "name": "",
          "type": "bytes4"
        }
      ],
      "stateMutability": "nonpayable",
      "type": "function"
    },
    {
      "inputs": [],
      "name": "owner",
      "outputs": [
        {
          "internalType": "address",
          "name": "",
          "type": "address"
        }
      ],
      "stateMutability": "view",
      "type": "function"
    },
    {
      "inputs": [],
      "name": "renounceOwnership",
      "outputs": [],
      "stateMutability": "nonpayable",
      "type": "function"
    },
    {
      "inputs": [
        {
          "internalType": "address",
          "name": "newOwner",
          "type": "address"
        }
      ],
      "name": "transferOwnership",
      "outputs": [],
      "stateMutability": "nonpayable",
      "type": "function"
    },
    {
      "inputs": [
        {
          "internalType": "uint256",
          "name": "itemId",
          "type": "uint256"
        }
      ],
      "name": "unlistNFT",
      "outputs": [],
      "stateMutability": "nonpayable",
      "type": "function"
    }
  ],
  "bytecode": "0x608060405260016006553480156200001657600080fd5b50604051620029303803806200293083398181016040528101906200003c919062000223565b6200005c62000050620000ed60201b60201c565b620000f560201b60201c565b6001808190555081600460006101000a81548173ffffffffffffffffffffffffffffffffffffffff021916908373ffffffffffffffffffffffffffffffffffffffff16021790555080600560006101000a81548173ffffffffffffffffffffffffffffffffffffffff021916908373ffffffffffffffffffffffffffffffffffffffff16021790555050506200026a565b600033905090565b60008060009054906101000a900473ffffffffffffffffffffffffffffffffffffffff169050816000806101000a81548173ffffffffffffffffffffffffffffffffffffffff021916908373ffffffffffffffffffffffffffffffffffffffff1602179055508173ffffffffffffffffffffffffffffffffffffffff168173ffffffffffffffffffffffffffffffffffffffff167f8be0079c531659141344cd1fd0a4f28419497f9722a3daafe3b4186f6b6457e060405160405180910390a35050565b600080fd5b600073ffffffffffffffffffffffffffffffffffffffff82169050919050565b6000620001eb82620001be565b9050919050565b620001fd81620001de565b81146200020957600080fd5b50565b6000815190506200021d81620001f2565b92915050565b600080604083850312156200023d576200023c620001b9565b5b60006200024d858286016200020c565b925050602062000260858286016200020c565b9150509250929050565b6126b6806200027a6000396000f3fe608060405234801561001057600080fd5b50600436106101005760003560e01c80639979c00911610097578063d56d229d11610066578063d56d229d14610287578063e61a70c0146102a5578063f16d376c146102de578063f2fde38b146102fc57610100565b80639979c009146101ff5780639abf42171461021b5780639b8bc1271461024b578063c78f19f91461026957610100565b8063889e2cd5116100d3578063889e2cd51461018b5780638da5cb5b146101a957806391066da8146101c7578063961f0944146101e357610100565b8063150b7a02146101055780631b00a8db1461013557806353dbceb114610151578063715018a614610181575b600080fd5b61011f600480360381019061011a9190611c0c565b610318565b60405161012c9190611ccf565b60405180910390f35b61014f600480360381019061014a9190611d22565b61032d565b005b61016b60048036038101906101669190611d75565b6105a7565b6040516101789190611e9b565b60405180910390f35b61018961070a565b005b61019361071e565b6040516101a09190611ec6565b60405180910390f35b6101b1610744565b6040516101be9190611ec6565b60405180910390f35b6101e160048036038101906101dc9190611ee1565b61076d565b005b6101fd60048036038101906101f89190611d75565b610b1d565b005b61021960048036038101906102149190611ee1565b610d58565b005b61023560048036038101906102309190611d75565b6110f4565b6040516102429190611e9b565b60405180910390f35b6102536112c0565b604051610260919061209d565b60405180910390f35b610271611536565b60405161027e91906120ce565b60405180910390f35b61028f61153c565b60405161029c9190611ec6565b60405180910390f35b6102bf60048036038101906102ba9190611d75565b611562565b6040516102d59a999897969594939291906120f8565b60405180910390f35b6102e661161d565b6040516102f3919061209d565b60405180910390f35b61031660048036038101906103119190612194565b61183b565b005b600063150b7a0260e01b905095945050505050565b6103356118be565b6000600860008581526020019081526020016000206040518061014001604052908160008201548152602001600182015481526020016002820160009054906101000a900473ffffffffffffffffffffffffffffffffffffffff1673ffffffffffffffffffffffffffffffffffffffff1673ffffffffffffffffffffffffffffffffffffffff1681526020016003820160009054906101000a900473ffffffffffffffffffffffffffffffffffffffff1673ffffffffffffffffffffffffffffffffffffffff1673ffffffffffffffffffffffffffffffffffffffff168152602001600482015481526020016005820160009054906101000a900460ff161515151581526020016005820160019054906101000a900460ff161515151581526020016005820160029054906101000a900460ff16151515158152602001600682015481526020016007820154815250509050600115158160e001511515146104d2576040517f08c379a00000000000000000000000000000000000000000000000000000000081526004016104c99061221e565b60405180910390fd5b60016008600086815260200190815260200160002060050160016101000a81548160ff021916908315150217905550426008600086815260200190815260200160002060070181905550821561053e578160086000868152602001908152602001600020600401819055505b8060200151847f0b59dfc56db79c6259bcd97a3fc890ab90008a8b5781d89dd763e01651bc7bc8338460400151600860008a8152602001908152602001600020600401546040516105919392919061223e565b60405180910390a3506105a261190d565b505050565b6105af611a84565b6000600860008481526020019081526020016000206040518061014001604052908160008201548152602001600182015481526020016002820160009054906101000a900473ffffffffffffffffffffffffffffffffffffffff1673ffffffffffffffffffffffffffffffffffffffff1673ffffffffffffffffffffffffffffffffffffffff1681526020016003820160009054906101000a900473ffffffffffffffffffffffffffffffffffffffff1673ffffffffffffffffffffffffffffffffffffffff1673ffffffffffffffffffffffffffffffffffffffff168152602001600482015481526020016005820160009054906101000a900460ff161515151581526020016005820160019054906101000a900460ff161515151581526020016005820160029054906101000a900460ff1615151515815260200160068201548152602001600782015481525050905080915050919050565b610712611916565b61071c6000611994565b565b600560009054906101000a900473ffffffffffffffffffffffffffffffffffffffff1681565b60008060009054906101000a900473ffffffffffffffffffffffffffffffffffffffff16905090565b6107756118be565b6006548110156107ba576040517f08c379a00000000000000000000000000000000000000000000000000000000081526004016107b1906122e7565b60405180910390fd5b6107c46002611a58565b60006107d06002611a6e565b90506040518061014001604052808281526020018481526020013373ffffffffffffffffffffffffffffffffffffffff1681526020013073ffffffffffffffffffffffffffffffffffffffff1681526020018381526020016000151581526020016000151581526020016001151581526020014281526020014281525060086000838152602001908152602001600020600082015181600001556020820151816001015560408201518160020160006101000a81548173ffffffffffffffffffffffffffffffffffffffff021916908373ffffffffffffffffffffffffffffffffffffffff16021790555060608201518160030160006101000a81548173ffffffffffffffffffffffffffffffffffffffff021916908373ffffffffffffffffffffffffffffffffffffffff1602179055506080820151816004015560a08201518160050160006101000a81548160ff02191690831515021790555060c08201518160050160016101000a81548160ff02191690831515021790555060e08201518160050160026101000a81548160ff02191690831515021790555061010082015181600601556101208201518160070155905050600560009054906101000a900473ffffffffffffffffffffffffffffffffffffffff1673ffffffffffffffffffffffffffffffffffffffff166323b872dd3330856040518463ffffffff1660e01b81526004016109e49392919061223e565b6020604051808303816000875af1158015610a03573d6000803e3d6000fd5b505050506040513d601f19601f82011682018060405250810190610a27919061231c565b50600460009054906101000a900473ffffffffffffffffffffffffffffffffffffffff1673ffffffffffffffffffffffffffffffffffffffff166342842e0e3330866040518463ffffffff1660e01b8152600401610a879392919061223e565b600060405180830381600087803b158015610aa157600080fd5b505af1158015610ab5573d6000803e3d6000fd5b505050508160076000828254610acb9190612378565b9250508190555082817f38690a554ffbc44eb6a75016e47d517d0db8e6c37494adc68d6d0b2c66f0ab2133600086604051610b089392919061223e565b60405180910390a350610b1961190d565b5050565b610b256118be565b6000600860008381526020019081526020016000206040518061014001604052908160008201548152602001600182015481526020016002820160009054906101000a900473ffffffffffffffffffffffffffffffffffffffff1673ffffffffffffffffffffffffffffffffffffffff1673ffffffffffffffffffffffffffffffffffffffff1681526020016003820160009054906101000a900473ffffffffffffffffffffffffffffffffffffffff1673ffffffffffffffffffffffffffffffffffffffff1673ffffffffffffffffffffffffffffffffffffffff168152602001600482015481526020016005820160009054906101000a900460ff161515151581526020016005820160019054906101000a900460ff161515151581526020016005820160029054906101000a900460ff16151515158152602001600682015481526020016007820154815250509050600115158160e00151151514610cc2576040517f08c379a0000000000000000000000000000000000000000000000000000000008152600401610cb99061221e565b60405180910390fd5b60006008600084815260200190815260200160002060050160016101000a81548160ff0219169083151502179055508060200151827ff2e9080a1a9d5380dfbc3a166de3fdbde0dc2550e7fc238b793ec0b1979204753384604001516008600088815260200190815260200160002060040154604051610d449392919061223e565b60405180910390a350610d5561190d565b50565b610d606118be565b60006008600084815260200190815260200160002060040154905060006008600085815260200190815260200160002060010154905060006008600086815260200190815260200160002060050160019054906101000a900460ff16905082841015610e01576040517f08c379a0000000000000000000000000000000000000000000000000000000008152600401610df8906123f8565b60405180910390fd5b6001151581151514610e48576040517f08c379a0000000000000000000000000000000000000000000000000000000008152600401610e3f90612464565b60405180910390fd5b60006008600087815260200190815260200160002060030160009054906101000a900473ffffffffffffffffffffffffffffffffffffffff169050846008600088815260200190815260200160002060040181905550336008600088815260200190815260200160002060030160006101000a81548173ffffffffffffffffffffffffffffffffffffffff021916908373ffffffffffffffffffffffffffffffffffffffff160217905550336008600088815260200190815260200160002060020160006101000a81548173ffffffffffffffffffffffffffffffffffffffff021916908373ffffffffffffffffffffffffffffffffffffffff16021790555060016008600088815260200190815260200160002060050160006101000a81548160ff02191690831515021790555060006008600088815260200190815260200160002060050160016101000a81548160ff021916908315150217905550600460009054906101000a900473ffffffffffffffffffffffffffffffffffffffff1673ffffffffffffffffffffffffffffffffffffffff166342842e0e8233866040518463ffffffff1660e01b81526004016110059392919061223e565b600060405180830381600087803b15801561101f57600080fd5b505af1158015611033573d6000803e3d6000fd5b50505050600560009054906101000a900473ffffffffffffffffffffffffffffffffffffffff1673ffffffffffffffffffffffffffffffffffffffff166323b872dd3383886040518463ffffffff1660e01b81526004016110969392919061223e565b6020604051808303816000875af11580156110b5573d6000803e3d6000fd5b505050506040513d601f19601f820116820180604052508101906110d9919061231c565b506110e46003611a58565b505050506110f061190d565b5050565b6110fc611a84565b611104611a84565b60006111106002611a6e565b90506000805b828110156112b457600060018261112d9190612378565b9050866008600083815260200190815260200160002060010154036112a657600860008281526020019081526020016000206040518061014001604052908160008201548152602001600182015481526020016002820160009054906101000a900473ffffffffffffffffffffffffffffffffffffffff1673ffffffffffffffffffffffffffffffffffffffff1673ffffffffffffffffffffffffffffffffffffffff1681526020016003820160009054906101000a900473ffffffffffffffffffffffffffffffffffffffff1673ffffffffffffffffffffffffffffffffffffffff1673ffffffffffffffffffffffffffffffffffffffff168152602001600482015481526020016005820160009054906101000a900460ff161515151581526020016005820160019054906101000a900460ff161515151581526020016005820160029054906101000a900460ff1615151515815260200160068201548152602001600782015481525050945060019250506112b4565b508080600101915050611116565b50829350505050919050565b606060006112ce6002611a6e565b905060006112dc6003611a6e565b6112e66002611a6e565b6112f09190612484565b90506000808267ffffffffffffffff81111561130f5761130e6124b8565b5b60405190808252806020026020018201604052801561134857816020015b611335611a84565b81526020019060019003908161132d5790505b50905060005b8481101561152b57600860006001836113679190612378565b815260200190815260200160002060050160009054906101000a900460ff1661151e5760006001826113999190612378565b90506000600860008381526020019081526020016000206040518061014001604052908160008201548152602001600182015481526020016002820160009054906101000a900473ffffffffffffffffffffffffffffffffffffffff1673ffffffffffffffffffffffffffffffffffffffff1673ffffffffffffffffffffffffffffffffffffffff1681526020016003820160009054906101000a900473ffffffffffffffffffffffffffffffffffffffff1673ffffffffffffffffffffffffffffffffffffffff1673ffffffffffffffffffffffffffffffffffffffff168152602001600482015481526020016005820160009054906101000a900460ff161515151581526020016005820160019054906101000a900460ff161515151581526020016005820160029054906101000a900460ff1615151515815260200160068201548152602001600782015481525050905080848681518110611501576115006124e7565b5b60200260200101819052506001856115199190612378565b945050505b808060010191505061134e565b508094505050505090565b60065481565b600460009054906101000a900473ffffffffffffffffffffffffffffffffffffffff1681565b60086020528060005260406000206000915090508060000154908060010154908060020160009054906101000a900473ffffffffffffffffffffffffffffffffffffffff16908060030160009054906101000a900473ffffffffffffffffffffffffffffffffffffffff16908060040154908060050160009054906101000a900460ff16908060050160019054906101000a900460ff16908060050160029054906101000a900460ff1690806006015490806007015490508a565b6060600061162b6002611a6e565b905060008167ffffffffffffffff811115611649576116486124b8565b5b60405190808252806020026020018201604052801561168257816020015b61166f611a84565b8152602001906001900390816116675790505b5090506000805b838110156118315760006001826116a09190612378565b90506000600860008381526020019081526020016000206040518061014001604052908160008201548152602001600182015481526020016002820160009054906101000a900473ffffffffffffffffffffffffffffffffffffffff1673ffffffffffffffffffffffffffffffffffffffff1673ffffffffffffffffffffffffffffffffffffffff1681526020016003820160009054906101000a900473ffffffffffffffffffffffffffffffffffffffff1673ffffffffffffffffffffffffffffffffffffffff1673ffffffffffffffffffffffffffffffffffffffff168152602001600482015481526020016005820160009054906101000a900460ff161515151581526020016005820160019054906101000a900460ff161515151581526020016005820160029054906101000a900460ff1615151515815260200160068201548152602001600782015481525050905080858581518110611808576118076124e7565b5b60200260200101819052506001846118209190612378565b935050508080600101915050611689565b5081935050505090565b611843611916565b600073ffffffffffffffffffffffffffffffffffffffff168173ffffffffffffffffffffffffffffffffffffffff16036118b2576040517f08c379a00000000000000000000000000000000000000000000000000000000081526004016118a990612588565b60405180910390fd5b6118bb81611994565b50565b600260015403611903576040517f08c379a00000000000000000000000000000000000000000000000000000000081526004016118fa906125f4565b60405180910390fd5b6002600181905550565b60018081905550565b61191e611a7c565b73ffffffffffffffffffffffffffffffffffffffff1661193c610744565b73ffffffffffffffffffffffffffffffffffffffff1614611992576040517f08c379a000000000000000000000000000000000000000000000000000000000815260040161198990612660565b60405180910390fd5b565b60008060009054906101000a900473ffffffffffffffffffffffffffffffffffffffff169050816000806101000a81548173ffffffffffffffffffffffffffffffffffffffff021916908373ffffffffffffffffffffffffffffffffffffffff1602179055508173ffffffffffffffffffffffffffffffffffffffff168173ffffffffffffffffffffffffffffffffffffffff167f8be0079c531659141344cd1fd0a4f28419497f9722a3daafe3b4186f6b6457e060405160405180910390a35050565b6001816000016000828254019250508190555050565b600081600001549050919050565b600033905090565b6040518061014001604052806000815260200160008152602001600073ffffffffffffffffffffffffffffffffffffffff168152602001600073ffffffffffffffffffffffffffffffffffffffff1681526020016000815260200160001515815260200160001515815260200160001515815260200160008152602001600081525090565b600080fd5b600080fd5b600073ffffffffffffffffffffffffffffffffffffffff82169050919050565b6000611b3e82611b13565b9050919050565b611b4e81611b33565b8114611b5957600080fd5b50565b600081359050611b6b81611b45565b92915050565b6000819050919050565b611b8481611b71565b8114611b8f57600080fd5b50565b600081359050611ba181611b7b565b92915050565b600080fd5b600080fd5b600080fd5b60008083601f840112611bcc57611bcb611ba7565b5b8235905067ffffffffffffffff811115611be957611be8611bac565b5b602083019150836001820283011115611c0557611c04611bb1565b5b9250929050565b600080600080600060808688031215611c2857611c27611b09565b5b6000611c3688828901611b5c565b9550506020611c4788828901611b5c565b9450506040611c5888828901611b92565b935050606086013567ffffffffffffffff811115611c7957611c78611b0e565b5b611c8588828901611bb6565b92509250509295509295909350565b60007fffffffff0000000000000000000000000000000000000000000000000000000082169050919050565b611cc981611c94565b82525050565b6000602082019050611ce46000830184611cc0565b92915050565b60008115159050919050565b611cff81611cea565b8114611d0a57600080fd5b50565b600081359050611d1c81611cf6565b92915050565b600080600060608486031215611d3b57611d3a611b09565b5b6000611d4986828701611b92565b9350506020611d5a86828701611d0d565b9250506040611d6b86828701611b92565b9150509250925092565b600060208284031215611d8b57611d8a611b09565b5b6000611d9984828501611b92565b91505092915050565b611dab81611b71565b82525050565b611dba81611b33565b82525050565b611dc981611cea565b82525050565b61014082016000820151611de66000850182611da2565b506020820151611df96020850182611da2565b506040820151611e0c6040850182611db1565b506060820151611e1f6060850182611db1565b506080820151611e326080850182611da2565b5060a0820151611e4560a0850182611dc0565b5060c0820151611e5860c0850182611dc0565b5060e0820151611e6b60e0850182611dc0565b50610100820151611e80610100850182611da2565b50610120820151611e95610120850182611da2565b50505050565b600061014082019050611eb16000830184611dcf565b92915050565b611ec081611b33565b82525050565b6000602082019050611edb6000830184611eb7565b92915050565b60008060408385031215611ef857611ef7611b09565b5b6000611f0685828601611b92565b9250506020611f1785828601611b92565b9150509250929050565b600081519050919050565b600082825260208201905092915050565b6000819050602082019050919050565b61014082016000820151611f646000850182611da2565b506020820151611f776020850182611da2565b506040820151611f8a6040850182611db1565b506060820151611f9d6060850182611db1565b506080820151611fb06080850182611da2565b5060a0820151611fc360a0850182611dc0565b5060c0820151611fd660c0850182611dc0565b5060e0820151611fe960e0850182611dc0565b50610100820151611ffe610100850182611da2565b50610120820151612013610120850182611da2565b50505050565b60006120258383611f4d565b6101408301905092915050565b6000602082019050919050565b600061204a82611f21565b6120548185611f2c565b935061205f83611f3d565b8060005b838110156120905781516120778882612019565b975061208283612032565b925050600181019050612063565b5085935050505092915050565b600060208201905081810360008301526120b7818461203f565b905092915050565b6120c881611b71565b82525050565b60006020820190506120e360008301846120bf565b92915050565b6120f281611cea565b82525050565b60006101408201905061210e600083018d6120bf565b61211b602083018c6120bf565b612128604083018b611eb7565b612135606083018a611eb7565b61214260808301896120bf565b61214f60a08301886120e9565b61215c60c08301876120e9565b61216960e08301866120e9565b6121776101008301856120bf565b6121856101208301846120bf565b9b9a5050505050505050505050565b6000602082840312156121aa576121a9611b09565b5b60006121b884828501611b5c565b91505092915050565b600082825260208201905092915050565b7f4974656d20646f6573206e6f742065786973742e000000000000000000000000600082015250565b60006122086014836121c1565b9150612213826121d2565b602082019050919050565b60006020820190508181036000830152612237816121fb565b9050919050565b60006060820190506122536000830186611eb7565b6122606020830185611eb7565b61226d60408301846120bf565b949350505050565b7f50726963652073686f756c64206265206174206c656173742073616d6520617360008201527f206c697374696e67207072696365000000000000000000000000000000000000602082015250565b60006122d1602e836121c1565b91506122dc82612275565b604082019050919050565b60006020820190508181036000830152612300816122c4565b9050919050565b60008151905061231681611cf6565b92915050565b60006020828403121561233257612331611b09565b5b600061234084828501612307565b91505092915050565b7f4e487b7100000000000000000000000000000000000000000000000000000000600052601160045260246000fd5b600061238382611b71565b915061238e83611b71565b92508282019050808211156123a6576123a5612349565b5b92915050565b7f41736b696e67205072696365206e6f7420736174697366696564210000000000600082015250565b60006123e2601b836121c1565b91506123ed826123ac565b602082019050919050565b60006020820190508181036000830152612411816123d5565b9050919050565b7f4e4654206e6f7420666f722073616c652e000000000000000000000000000000600082015250565b600061244e6011836121c1565b915061245982612418565b602082019050919050565b6000602082019050818103600083015261247d81612441565b9050919050565b600061248f82611b71565b915061249a83611b71565b92508282039050818111156124b2576124b1612349565b5b92915050565b7f4e487b7100000000000000000000000000000000000000000000000000000000600052604160045260246000fd5b7f4e487b7100000000000000000000000000000000000000000000000000000000600052603260045260246000fd5b7f4f776e61626c653a206e6577206f776e657220697320746865207a65726f206160008201527f6464726573730000000000000000000000000000000000000000000000000000602082015250565b60006125726026836121c1565b915061257d82612516565b604082019050919050565b600060208201905081810360008301526125a181612565565b9050919050565b7f5265656e7472616e637947756172643a207265656e7472616e742063616c6c00600082015250565b60006125de601f836121c1565b91506125e9826125a8565b602082019050919050565b6000602082019050818103600083015261260d816125d1565b9050919050565b7f4f776e61626c653a2063616c6c6572206973206e6f7420746865206f776e6572600082015250565b600061264a6020836121c1565b915061265582612614565b602082019050919050565b600060208201905081810360008301526126798161263d565b905091905056fea26469706673582212208b1ed6094c46242b44d4e55821d7ed557e98820a4ed084760916269d99f6f6f864736f6c63430008180033",
  "linkReferences": {},
  "deployedLinkReferences": {}
}