{
  "_format": "hh-sol-artifact-1",
  "contractName": "NFTM",
  "sourceName": "src/backend/contracts/NFTM.sol",
  "abi": [
    {
      "inputs": [],
      "stateMutability": "nonpayable",
      "type": "constructor"
    },
    {
      "anonymous": false,
      "inputs": [
        {
          "indexed": true,
          "internalType": "address",
          "name": "owner",
          "type": "address"
        },
        {
          "indexed": true,
          "internalType": "address",
          "name": "approved",
          "type": "address"
        },
        {
          "indexed": true,
          "internalType": "uint256",
          "name": "tokenId",
          "type": "uint256"
        }
      ],
      "name": "Approval",
      "type": "event"
    },
    {
      "anonymous": false,
      "inputs": [
        {
          "indexed": true,
          "internalType": "address",
          "name": "owner",
          "type": "address"
        },
        {
          "indexed": true,
          "internalType": "address",
          "name": "operator",
          "type": "address"
        },
        {
          "indexed": false,
          "internalType": "bool",
          "name": "approved",
          "type": "bool"
        }
      ],
      "name": "ApprovalForAll",
      "type": "event"
    },
    {
      "anonymous": false,
      "inputs": [
        {
          "indexed": false,
          "internalType": "uint256",
          "name": "_fromTokenId",
          "type": "uint256"
        },
        {
          "indexed": false,
          "internalType": "uint256",
          "name": "_toTokenId",
          "type": "uint256"
        }
      ],
      "name": "BatchMetadataUpdate",
      "type": "event"
    },
    {
      "anonymous": false,
      "inputs": [
        {
          "indexed": false,
          "internalType": "uint256",
          "name": "_tokenId",
          "type": "uint256"
        }
      ],
      "name": "MetadataUpdate",
      "type": "event"
    },
    {
      "anonymous": false,
      "inputs": [
        {
          "indexed": true,
          "internalType": "address",
          "name": "previousOwner",
          "type": "address"
        },
        {
          "indexed": true,
          "internalType": "address",
          "name": "newOwner",
          "type": "address"
        }
      ],
      "name": "OwnershipTransferred",
      "type": "event"
    },
    {
      "anonymous": false,
      "inputs": [
        {
          "indexed": true,
          "internalType": "address",
          "name": "from",
          "type": "address"
        },
        {
          "indexed": true,
          "internalType": "address",
          "name": "to",
          "type": "address"
        },
        {
          "indexed": true,
          "internalType": "uint256",
          "name": "tokenId",
          "type": "uint256"
        }
      ],
      "name": "Transfer",
      "type": "event"
    },
    {
      "inputs": [
        {
          "internalType": "address",
          "name": "to",
          "type": "address"
        },
        {
          "internalType": "uint256",
          "name": "tokenId",
          "type": "uint256"
        }
      ],
      "name": "approve",
      "outputs": [],
      "stateMutability": "nonpayable",
      "type": "function"
    },
    {
      "inputs": [
        {
          "internalType": "address",
          "name": "owner",
          "type": "address"
        }
      ],
      "name": "balanceOf",
      "outputs": [
        {
          "internalType": "uint256",
          "name": "",
          "type": "uint256"
        }
      ],
      "stateMutability": "view",
      "type": "function"
    },
    {
      "inputs": [
        {
          "internalType": "uint256",
          "name": "tokenId",
          "type": "uint256"
        }
      ],
      "name": "burn",
      "outputs": [],
      "stateMutability": "nonpayable",
      "type": "function"
    },
    {
      "inputs": [
        {
          "internalType": "uint256",
          "name": "tokenId",
          "type": "uint256"
        }
      ],
      "name": "getApproved",
      "outputs": [
        {
          "internalType": "address",
          "name": "",
          "type": "address"
        }
      ],
      "stateMutability": "view",
      "type": "function"
    },
    {
      "inputs": [
        {
          "internalType": "address",
          "name": "owner",
          "type": "address"
        },
        {
          "internalType": "address",
          "name": "operator",
          "type": "address"
        }
      ],
      "name": "isApprovedForAll",
      "outputs": [
        {
          "internalType": "bool",
          "name": "",
          "type": "bool"
        }
      ],
      "stateMutability": "view",
      "type": "function"
    },
    {
      "inputs": [],
      "name": "name",
      "outputs": [
        {
          "internalType": "string",
          "name": "",
          "type": "string"
        }
      ],
      "stateMutability": "view",
      "type": "function"
    },
    {
      "inputs": [],
      "name": "owner",
      "outputs": [
        {
          "internalType": "address",
          "name": "",
          "type": "address"
        }
      ],
      "stateMutability": "view",
      "type": "function"
    },
    {
      "inputs": [
        {
          "internalType": "uint256",
          "name": "tokenId",
          "type": "uint256"
        }
      ],
      "name": "ownerOf",
      "outputs": [
        {
          "internalType": "address",
          "name": "",
          "type": "address"
        }
      ],
      "stateMutability": "view",
      "type": "function"
    },
    {
      "inputs": [],
      "name": "renounceOwnership",
      "outputs": [],
      "stateMutability": "nonpayable",
      "type": "function"
    },
    {
      "inputs": [
        {
          "internalType": "string",
          "name": "uri",
          "type": "string"
        }
      ],
      "name": "safeMint",
      "outputs": [],
      "stateMutability": "nonpayable",
      "type": "function"
    },
    {
      "inputs": [
        {
          "internalType": "address",
          "name": "from",
          "type": "address"
        },
        {
          "internalType": "address",
          "name": "to",
          "type": "address"
        },
        {
          "internalType": "uint256",
          "name": "tokenId",
          "type": "uint256"
        }
      ],
      "name": "safeTransferFrom",
      "outputs": [],
      "stateMutability": "nonpayable",
      "type": "function"
    },
    {
      "inputs": [
        {
          "internalType": "address",
          "name": "from",
          "type": "address"
        },
        {
          "internalType": "address",
          "name": "to",
          "type": "address"
        },
        {
          "internalType": "uint256",
          "name": "tokenId",
          "type": "uint256"
        },
        {
          "internalType": "bytes",
          "name": "data",
          "type": "bytes"
        }
      ],
      "name": "safeTransferFrom",
      "outputs": [],
      "stateMutability": "nonpayable",
      "type": "function"
    },
    {
      "inputs": [
        {
          "internalType": "address",
          "name": "operator",
          "type": "address"
        },
        {
          "internalType": "bool",
          "name": "approved",
          "type": "bool"
        }
      ],
      "name": "setApprovalForAll",
      "outputs": [],
      "stateMutability": "nonpayable",
      "type": "function"
    },
    {
      "inputs": [
        {
          "internalType": "bytes4",
          "name": "interfaceId",
          "type": "bytes4"
        }
      ],
      "name": "supportsInterface",
      "outputs": [
        {
          "internalType": "bool",
          "name": "",
          "type": "bool"
        }
      ],
      "stateMutability": "view",
      "type": "function"
    },
    {
      "inputs": [],
      "name": "symbol",
      "outputs": [
        {
          "internalType": "string",
          "name": "",
          "type": "string"
        }
      ],
      "stateMutability": "view",
      "type": "function"
    },
    {
      "inputs": [
        {
          "internalType": "uint256",
          "name": "tokenId",
          "type": "uint256"
        }
      ],
      "name": "tokenURI",
      "outputs": [
        {
          "internalType": "string",
          "name": "",
          "type": "string"
        }
      ],
      "stateMutability": "view",
      "type": "function"
    },
    {
      "inputs": [
        {
          "internalType": "address",
          "name": "from",
          "type": "address"
        },
        {
          "internalType": "address",
          "name": "to",
          "type": "address"
        },
        {
          "internalType": "uint256",
          "name": "tokenId",
          "type": "uint256"
        }
      ],
      "name": "transferFrom",
      "outputs": [],
      "stateMutability": "nonpayable",
      "type": "function"
    },
    {
      "inputs": [
        {
          "internalType": "address",
          "name": "newOwner",
          "type": "address"
        }
      ],
      "name": "transferOwnership",
      "outputs": [],
      "stateMutability": "nonpayable",
      "type": "function"
    }
  ],
  "bytecode": "0x60806040523480156200001157600080fd5b506040518060400160405280600a81526020017f6c696e2773204e46544d000000000000000000000000000000000000000000008152506040518060400160405280600381526020017f4e46540000000000000000000000000000000000000000000000000000000000815250816000908051906020019062000096929190620001a6565b508060019080519060200190620000af929190620001a6565b505050620000d2620000c6620000d860201b60201c565b620000e060201b60201c565b620002bb565b600033905090565b6000600760009054906101000a900473ffffffffffffffffffffffffffffffffffffffff16905081600760006101000a81548173ffffffffffffffffffffffffffffffffffffffff021916908373ffffffffffffffffffffffffffffffffffffffff1602179055508173ffffffffffffffffffffffffffffffffffffffff168173ffffffffffffffffffffffffffffffffffffffff167f8be0079c531659141344cd1fd0a4f28419497f9722a3daafe3b4186f6b6457e060405160405180910390a35050565b828054620001b49062000256565b90600052602060002090601f016020900481019282620001d8576000855562000224565b82601f10620001f357805160ff191683800117855562000224565b8280016001018555821562000224579182015b828111156200022357825182559160200191906001019062000206565b5b50905062000233919062000237565b5090565b5b808211156200025257600081600090555060010162000238565b5090565b600060028204905060018216806200026f57607f821691505b602082108114156200028657620002856200028c565b5b50919050565b7f4e487b7100000000000000000000000000000000000000000000000000000000600052602260045260246000fd5b61303380620002cb6000396000f3fe608060405234801561001057600080fd5b50600436106101165760003560e01c806370a08231116100a2578063a22cb46511610071578063a22cb465146102cb578063b88d4fde146102e7578063c87b56dd14610303578063e985e9c514610333578063f2fde38b1461036357610116565b806370a0823114610255578063715018a6146102855780638da5cb5b1461028f57806395d89b41146102ad57610116565b806323b872dd116100e957806323b872dd146101b557806342842e0e146101d157806342966c68146101ed5780636352211e14610209578063695850fb1461023957610116565b806301ffc9a71461011b57806306fdde031461014b578063081812fc14610169578063095ea7b314610199575b600080fd5b610135600480360381019061013091906123a2565b61037f565b60405161014291906127a3565b60405180910390f35b610153610391565b60405161016091906127be565b60405180910390f35b610183600480360381019061017e9190612435565b610423565b604051610190919061273c565b60405180910390f35b6101b360048036038101906101ae9190612366565b610469565b005b6101cf60048036038101906101ca9190612260565b610581565b005b6101eb60048036038101906101e69190612260565b6105e1565b005b61020760048036038101906102029190612435565b610601565b005b610223600480360381019061021e9190612435565b61065d565b604051610230919061273c565b60405180910390f35b610253600480360381019061024e91906123f4565b6106e4565b005b61026f600480360381019061026a91906121fb565b61071c565b60405161027c91906129a0565b60405180910390f35b61028d6107d4565b005b6102976107e8565b6040516102a4919061273c565b60405180910390f35b6102b5610812565b6040516102c291906127be565b60405180910390f35b6102e560048036038101906102e0919061232a565b6108a4565b005b61030160048036038101906102fc91906122af565b6108ba565b005b61031d60048036038101906103189190612435565b61091c565b60405161032a91906127be565b60405180910390f35b61034d60048036038101906103489190612224565b61092e565b60405161035a91906127a3565b60405180910390f35b61037d600480360381019061037891906121fb565b6109c2565b005b600061038a82610a46565b9050919050565b6060600080546103a090612b3b565b80601f01602080910402602001604051908101604052809291908181526020018280546103cc90612b3b565b80156104195780601f106103ee57610100808354040283529160200191610419565b820191906000526020600020905b8154815290600101906020018083116103fc57829003601f168201915b5050505050905090565b600061042e82610aa7565b6004600083815260200190815260200160002060009054906101000a900473ffffffffffffffffffffffffffffffffffffffff169050919050565b60006104748261065d565b90508073ffffffffffffffffffffffffffffffffffffffff168373ffffffffffffffffffffffffffffffffffffffff1614156104e5576040517f08c379a00000000000000000000000000000000000000000000000000000000081526004016104dc90612960565b60405180910390fd5b8073ffffffffffffffffffffffffffffffffffffffff16610504610af2565b73ffffffffffffffffffffffffffffffffffffffff16148061053357506105328161052d610af2565b61092e565b5b610572576040517f08c379a000000000000000000000000000000000000000000000000000000000815260040161056990612980565b60405180910390fd5b61057c8383610afa565b505050565b61059261058c610af2565b82610bb3565b6105d1576040517f08c379a00000000000000000000000000000000000000000000000000000000081526004016105c8906127e0565b60405180910390fd5b6105dc838383610c48565b505050565b6105fc838383604051806020016040528060008152506108ba565b505050565b61061261060c610af2565b82610bb3565b610651576040517f08c379a0000000000000000000000000000000000000000000000000000000008152600401610648906127e0565b60405180910390fd5b61065a81610f42565b50565b60008061066983610f4e565b9050600073ffffffffffffffffffffffffffffffffffffffff168173ffffffffffffffffffffffffffffffffffffffff1614156106db576040517f08c379a00000000000000000000000000000000000000000000000000000000081526004016106d290612940565b60405180910390fd5b80915050919050565b6106ec610f8b565b60006106f86008611009565b90506107046008611017565b61070e338261102d565b610718818361104b565b5050565b60008073ffffffffffffffffffffffffffffffffffffffff168273ffffffffffffffffffffffffffffffffffffffff16141561078d576040517f08c379a0000000000000000000000000000000000000000000000000000000008152600401610784906128c0565b60405180910390fd5b600360008373ffffffffffffffffffffffffffffffffffffffff1673ffffffffffffffffffffffffffffffffffffffff168152602001908152602001600020549050919050565b6107dc610f8b565b6107e660006110f6565b565b6000600760009054906101000a900473ffffffffffffffffffffffffffffffffffffffff16905090565b60606001805461082190612b3b565b80601f016020809104026020016040519081016040528092919081815260200182805461084d90612b3b565b801561089a5780601f1061086f5761010080835404028352916020019161089a565b820191906000526020600020905b81548152906001019060200180831161087d57829003601f168201915b5050505050905090565b6108b66108af610af2565b83836111bc565b5050565b6108cb6108c5610af2565b83610bb3565b61090a576040517f08c379a0000000000000000000000000000000000000000000000000000000008152600401610901906127e0565b60405180910390fd5b61091684848484611329565b50505050565b606061092782611385565b9050919050565b6000600560008473ffffffffffffffffffffffffffffffffffffffff1673ffffffffffffffffffffffffffffffffffffffff16815260200190815260200160002060008373ffffffffffffffffffffffffffffffffffffffff1673ffffffffffffffffffffffffffffffffffffffff16815260200190815260200160002060009054906101000a900460ff16905092915050565b6109ca610f8b565b600073ffffffffffffffffffffffffffffffffffffffff168173ffffffffffffffffffffffffffffffffffffffff161415610a3a576040517f08c379a0000000000000000000000000000000000000000000000000000000008152600401610a3190612820565b60405180910390fd5b610a43816110f6565b50565b6000634906490660e01b7bffffffffffffffffffffffffffffffffffffffffffffffffffffffff1916827bffffffffffffffffffffffffffffffffffffffffffffffffffffffff19161480610aa05750610a9f82611498565b5b9050919050565b610ab08161157a565b610aef576040517f08c379a0000000000000000000000000000000000000000000000000000000008152600401610ae690612940565b60405180910390fd5b50565b600033905090565b816004600083815260200190815260200160002060006101000a81548173ffffffffffffffffffffffffffffffffffffffff021916908373ffffffffffffffffffffffffffffffffffffffff160217905550808273ffffffffffffffffffffffffffffffffffffffff16610b6d8361065d565b73ffffffffffffffffffffffffffffffffffffffff167f8c5be1e5ebec7d5bd14f71427d1e84f3dd0314c0f7b2291e5b200ac8c7c3b92560405160405180910390a45050565b600080610bbf8361065d565b90508073ffffffffffffffffffffffffffffffffffffffff168473ffffffffffffffffffffffffffffffffffffffff161480610c015750610c00818561092e565b5b80610c3f57508373ffffffffffffffffffffffffffffffffffffffff16610c2784610423565b73ffffffffffffffffffffffffffffffffffffffff16145b91505092915050565b8273ffffffffffffffffffffffffffffffffffffffff16610c688261065d565b73ffffffffffffffffffffffffffffffffffffffff1614610cbe576040517f08c379a0000000000000000000000000000000000000000000000000000000008152600401610cb590612840565b60405180910390fd5b600073ffffffffffffffffffffffffffffffffffffffff168273ffffffffffffffffffffffffffffffffffffffff161415610d2e576040517f08c379a0000000000000000000000000000000000000000000000000000000008152600401610d2590612880565b60405180910390fd5b610d3b83838360016115bb565b8273ffffffffffffffffffffffffffffffffffffffff16610d5b8261065d565b73ffffffffffffffffffffffffffffffffffffffff1614610db1576040517f08c379a0000000000000000000000000000000000000000000000000000000008152600401610da890612840565b60405180910390fd5b6004600082815260200190815260200160002060006101000a81549073ffffffffffffffffffffffffffffffffffffffff02191690556001600360008573ffffffffffffffffffffffffffffffffffffffff1673ffffffffffffffffffffffffffffffffffffffff168152602001908152602001600020600082825403925050819055506001600360008473ffffffffffffffffffffffffffffffffffffffff1673ffffffffffffffffffffffffffffffffffffffff16815260200190815260200160002060008282540192505081905550816002600083815260200190815260200160002060006101000a81548173ffffffffffffffffffffffffffffffffffffffff021916908373ffffffffffffffffffffffffffffffffffffffff160217905550808273ffffffffffffffffffffffffffffffffffffffff168473ffffffffffffffffffffffffffffffffffffffff167fddf252ad1be2c89b69c2b068fc378daa952ba7f163c4a11628f55a4df523b3ef60405160405180910390a4610f3d83838360016115c1565b505050565b610f4b816115c7565b50565b60006002600083815260200190815260200160002060009054906101000a900473ffffffffffffffffffffffffffffffffffffffff169050919050565b610f93610af2565b73ffffffffffffffffffffffffffffffffffffffff16610fb16107e8565b73ffffffffffffffffffffffffffffffffffffffff1614611007576040517f08c379a0000000000000000000000000000000000000000000000000000000008152600401610ffe90612920565b60405180910390fd5b565b600081600001549050919050565b6001816000016000828254019250508190555050565b61104782826040518060200160405280600081525061161a565b5050565b6110548261157a565b611093576040517f08c379a000000000000000000000000000000000000000000000000000000000815260040161108a906128e0565b60405180910390fd5b806006600084815260200190815260200160002090805190602001906110ba929190611fdf565b507ff8e1a15aba9398e019f0b49df1a4fde98ee17ae345cb5f6b5e2c27f5033e8ce7826040516110ea91906129a0565b60405180910390a15050565b6000600760009054906101000a900473ffffffffffffffffffffffffffffffffffffffff16905081600760006101000a81548173ffffffffffffffffffffffffffffffffffffffff021916908373ffffffffffffffffffffffffffffffffffffffff1602179055508173ffffffffffffffffffffffffffffffffffffffff168173ffffffffffffffffffffffffffffffffffffffff167f8be0079c531659141344cd1fd0a4f28419497f9722a3daafe3b4186f6b6457e060405160405180910390a35050565b8173ffffffffffffffffffffffffffffffffffffffff168373ffffffffffffffffffffffffffffffffffffffff16141561122b576040517f08c379a0000000000000000000000000000000000000000000000000000000008152600401611222906128a0565b60405180910390fd5b80600560008573ffffffffffffffffffffffffffffffffffffffff1673ffffffffffffffffffffffffffffffffffffffff16815260200190815260200160002060008473ffffffffffffffffffffffffffffffffffffffff1673ffffffffffffffffffffffffffffffffffffffff16815260200190815260200160002060006101000a81548160ff0219169083151502179055508173ffffffffffffffffffffffffffffffffffffffff168373ffffffffffffffffffffffffffffffffffffffff167f17307eab39ab6107e8899845ad3d59bd9653f200f220920489ca2b5937696c318360405161131c91906127a3565b60405180910390a3505050565b611334848484610c48565b61134084848484611675565b61137f576040517f08c379a000000000000000000000000000000000000000000000000000000000815260040161137690612800565b60405180910390fd5b50505050565b606061139082610aa7565b60006006600084815260200190815260200160002080546113b090612b3b565b80601f01602080910402602001604051908101604052809291908181526020018280546113dc90612b3b565b80156114295780601f106113fe57610100808354040283529160200191611429565b820191906000526020600020905b81548152906001019060200180831161140c57829003601f168201915b50505050509050600061143a61180c565b9050600081511415611450578192505050611493565b60008251111561148557808260405160200161146d929190612718565b60405160208183030381529060405292505050611493565b61148e84611823565b925050505b919050565b60007f80ac58cd000000000000000000000000000000000000000000000000000000007bffffffffffffffffffffffffffffffffffffffffffffffffffffffff1916827bffffffffffffffffffffffffffffffffffffffffffffffffffffffff1916148061156357507f5b5e139f000000000000000000000000000000000000000000000000000000007bffffffffffffffffffffffffffffffffffffffffffffffffffffffff1916827bffffffffffffffffffffffffffffffffffffffffffffffffffffffff1916145b8061157357506115728261188b565b5b9050919050565b60008073ffffffffffffffffffffffffffffffffffffffff1661159c83610f4e565b73ffffffffffffffffffffffffffffffffffffffff1614159050919050565b50505050565b50505050565b6115d0816118f5565b60006006600083815260200190815260200160002080546115f090612b3b565b905014611617576006600082815260200190815260200160002060006116169190612065565b5b50565b6116248383611a43565b6116316000848484611675565b611670576040517f08c379a000000000000000000000000000000000000000000000000000000000815260040161166790612800565b60405180910390fd5b505050565b60006116968473ffffffffffffffffffffffffffffffffffffffff16611c61565b156117ff578373ffffffffffffffffffffffffffffffffffffffff1663150b7a026116bf610af2565b8786866040518563ffffffff1660e01b81526004016116e19493929190612757565b602060405180830381600087803b1580156116fb57600080fd5b505af192505050801561172c57506040513d601f19601f8201168201806040525081019061172991906123cb565b60015b6117af573d806000811461175c576040519150601f19603f3d011682016040523d82523d6000602084013e611761565b606091505b506000815114156117a7576040517f08c379a000000000000000000000000000000000000000000000000000000000815260040161179e90612800565b60405180910390fd5b805181602001fd5b63150b7a0260e01b7bffffffffffffffffffffffffffffffffffffffffffffffffffffffff1916817bffffffffffffffffffffffffffffffffffffffffffffffffffffffff191614915050611804565b600190505b949350505050565b606060405180602001604052806000815250905090565b606061182e82610aa7565b600061183861180c565b905060008151116118585760405180602001604052806000815250611883565b8061186284611c84565b604051602001611873929190612718565b6040516020818303038152906040525b915050919050565b60007f01ffc9a7000000000000000000000000000000000000000000000000000000007bffffffffffffffffffffffffffffffffffffffffffffffffffffffff1916827bffffffffffffffffffffffffffffffffffffffffffffffffffffffff1916149050919050565b60006119008261065d565b90506119108160008460016115bb565b6119198261065d565b90506004600083815260200190815260200160002060006101000a81549073ffffffffffffffffffffffffffffffffffffffff02191690556001600360008373ffffffffffffffffffffffffffffffffffffffff1673ffffffffffffffffffffffffffffffffffffffff168152602001908152602001600020600082825403925050819055506002600083815260200190815260200160002060006101000a81549073ffffffffffffffffffffffffffffffffffffffff021916905581600073ffffffffffffffffffffffffffffffffffffffff168273ffffffffffffffffffffffffffffffffffffffff167fddf252ad1be2c89b69c2b068fc378daa952ba7f163c4a11628f55a4df523b3ef60405160405180910390a4611a3f8160008460016115c1565b5050565b600073ffffffffffffffffffffffffffffffffffffffff168273ffffffffffffffffffffffffffffffffffffffff161415611ab3576040517f08c379a0000000000000000000000000000000000000000000000000000000008152600401611aaa90612900565b60405180910390fd5b611abc8161157a565b15611afc576040517f08c379a0000000000000000000000000000000000000000000000000000000008152600401611af390612860565b60405180910390fd5b611b0a6000838360016115bb565b611b138161157a565b15611b53576040517f08c379a0000000000000000000000000000000000000000000000000000000008152600401611b4a90612860565b60405180910390fd5b6001600360008473ffffffffffffffffffffffffffffffffffffffff1673ffffffffffffffffffffffffffffffffffffffff16815260200190815260200160002060008282540192505081905550816002600083815260200190815260200160002060006101000a81548173ffffffffffffffffffffffffffffffffffffffff021916908373ffffffffffffffffffffffffffffffffffffffff160217905550808273ffffffffffffffffffffffffffffffffffffffff16600073ffffffffffffffffffffffffffffffffffffffff167fddf252ad1be2c89b69c2b068fc378daa952ba7f163c4a11628f55a4df523b3ef60405160405180910390a4611c5d6000838360016115c1565b5050565b6000808273ffffffffffffffffffffffffffffffffffffffff163b119050919050565b606060006001611c9384611da8565b01905060008167ffffffffffffffff811115611cd8577f4e487b7100000000000000000000000000000000000000000000000000000000600052604160045260246000fd5b6040519080825280601f01601f191660200182016040528015611d0a5781602001600182028036833780820191505090505b509050600082602001820190505b600115611d9d578080600190039150507f3031323334353637383961626364656600000000000000000000000000000000600a86061a8153600a8581611d87577f4e487b7100000000000000000000000000000000000000000000000000000000600052601260045260246000fd5b0494506000851415611d9857611d9d565b611d18565b819350505050919050565b600080600090507a184f03e93ff9f4daa797ed6e38ed64bf6a1f0100000000000000008310611e2c577a184f03e93ff9f4daa797ed6e38ed64bf6a1f0100000000000000008381611e22577f4e487b7100000000000000000000000000000000000000000000000000000000600052601260045260246000fd5b0492506040810190505b6d04ee2d6d415b85acef81000000008310611e8f576d04ee2d6d415b85acef81000000008381611e85577f4e487b7100000000000000000000000000000000000000000000000000000000600052601260045260246000fd5b0492506020810190505b662386f26fc100008310611ee457662386f26fc100008381611eda577f4e487b7100000000000000000000000000000000000000000000000000000000600052601260045260246000fd5b0492506010810190505b6305f5e1008310611f33576305f5e1008381611f29577f4e487b7100000000000000000000000000000000000000000000000000000000600052601260045260246000fd5b0492506008810190505b6127108310611f7e576127108381611f74577f4e487b7100000000000000000000000000000000000000000000000000000000600052601260045260246000fd5b0492506004810190505b60648310611fc75760648381611fbd577f4e487b7100000000000000000000000000000000000000000000000000000000600052601260045260246000fd5b0492506002810190505b600a8310611fd6576001810190505b80915050919050565b828054611feb90612b3b565b90600052602060002090601f01602090048101928261200d5760008555612054565b82601f1061202657805160ff1916838001178555612054565b82800160010185558215612054579182015b82811115612053578251825591602001919060010190612038565b5b50905061206191906120a5565b5090565b50805461207190612b3b565b6000825580601f1061208357506120a2565b601f0160209004906000526020600020908101906120a191906120a5565b5b50565b5b808211156120be5760008160009055506001016120a6565b5090565b60006120d56120d0846129e0565b6129bb565b9050828152602081018484840111156120ed57600080fd5b6120f8848285612af9565b509392505050565b600061211361210e84612a11565b6129bb565b90508281526020810184848401111561212b57600080fd5b612136848285612af9565b509392505050565b60008135905061214d81612fa1565b92915050565b60008135905061216281612fb8565b92915050565b60008135905061217781612fcf565b92915050565b60008151905061218c81612fcf565b92915050565b600082601f8301126121a357600080fd5b81356121b38482602086016120c2565b91505092915050565b600082601f8301126121cd57600080fd5b81356121dd848260208601612100565b91505092915050565b6000813590506121f581612fe6565b92915050565b60006020828403121561220d57600080fd5b600061221b8482850161213e565b91505092915050565b6000806040838503121561223757600080fd5b60006122458582860161213e565b92505060206122568582860161213e565b9150509250929050565b60008060006060848603121561227557600080fd5b60006122838682870161213e565b93505060206122948682870161213e565b92505060406122a5868287016121e6565b9150509250925092565b600080600080608085870312156122c557600080fd5b60006122d38782880161213e565b94505060206122e48782880161213e565b93505060406122f5878288016121e6565b925050606085013567ffffffffffffffff81111561231257600080fd5b61231e87828801612192565b91505092959194509250565b6000806040838503121561233d57600080fd5b600061234b8582860161213e565b925050602061235c85828601612153565b9150509250929050565b6000806040838503121561237957600080fd5b60006123878582860161213e565b9250506020612398858286016121e6565b9150509250929050565b6000602082840312156123b457600080fd5b60006123c284828501612168565b91505092915050565b6000602082840312156123dd57600080fd5b60006123eb8482850161217d565b91505092915050565b60006020828403121561240657600080fd5b600082013567ffffffffffffffff81111561242057600080fd5b61242c848285016121bc565b91505092915050565b60006020828403121561244757600080fd5b6000612455848285016121e6565b91505092915050565b61246781612a85565b82525050565b61247681612a97565b82525050565b600061248782612a42565b6124918185612a58565b93506124a1818560208601612b08565b6124aa81612bfc565b840191505092915050565b60006124c082612a4d565b6124ca8185612a69565b93506124da818560208601612b08565b6124e381612bfc565b840191505092915050565b60006124f982612a4d565b6125038185612a7a565b9350612513818560208601612b08565b80840191505092915050565b600061252c602d83612a69565b915061253782612c0d565b604082019050919050565b600061254f603283612a69565b915061255a82612c5c565b604082019050919050565b6000612572602683612a69565b915061257d82612cab565b604082019050919050565b6000612595602583612a69565b91506125a082612cfa565b604082019050919050565b60006125b8601c83612a69565b91506125c382612d49565b602082019050919050565b60006125db602483612a69565b91506125e682612d72565b604082019050919050565b60006125fe601983612a69565b915061260982612dc1565b602082019050919050565b6000612621602983612a69565b915061262c82612dea565b604082019050919050565b6000612644602e83612a69565b915061264f82612e39565b604082019050919050565b6000612667602083612a69565b915061267282612e88565b602082019050919050565b600061268a602083612a69565b915061269582612eb1565b602082019050919050565b60006126ad601883612a69565b91506126b882612eda565b602082019050919050565b60006126d0602183612a69565b91506126db82612f03565b604082019050919050565b60006126f3603d83612a69565b91506126fe82612f52565b604082019050919050565b61271281612aef565b82525050565b600061272482856124ee565b915061273082846124ee565b91508190509392505050565b6000602082019050612751600083018461245e565b92915050565b600060808201905061276c600083018761245e565b612779602083018661245e565b6127866040830185612709565b8181036060830152612798818461247c565b905095945050505050565b60006020820190506127b8600083018461246d565b92915050565b600060208201905081810360008301526127d881846124b5565b905092915050565b600060208201905081810360008301526127f98161251f565b9050919050565b6000602082019050818103600083015261281981612542565b9050919050565b6000602082019050818103600083015261283981612565565b9050919050565b6000602082019050818103600083015261285981612588565b9050919050565b60006020820190508181036000830152612879816125ab565b9050919050565b60006020820190508181036000830152612899816125ce565b9050919050565b600060208201905081810360008301526128b9816125f1565b9050919050565b600060208201905081810360008301526128d981612614565b9050919050565b600060208201905081810360008301526128f981612637565b9050919050565b600060208201905081810360008301526129198161265a565b9050919050565b600060208201905081810360008301526129398161267d565b9050919050565b60006020820190508181036000830152612959816126a0565b9050919050565b60006020820190508181036000830152612979816126c3565b9050919050565b60006020820190508181036000830152612999816126e6565b9050919050565b60006020820190506129b56000830184612709565b92915050565b60006129c56129d6565b90506129d18282612b6d565b919050565b6000604051905090565b600067ffffffffffffffff8211156129fb576129fa612bcd565b5b612a0482612bfc565b9050602081019050919050565b600067ffffffffffffffff821115612a2c57612a2b612bcd565b5b612a3582612bfc565b9050602081019050919050565b600081519050919050565b600081519050919050565b600082825260208201905092915050565b600082825260208201905092915050565b600081905092915050565b6000612a9082612acf565b9050919050565b60008115159050919050565b60007fffffffff0000000000000000000000000000000000000000000000000000000082169050919050565b600073ffffffffffffffffffffffffffffffffffffffff82169050919050565b6000819050919050565b82818337600083830152505050565b60005b83811015612b26578082015181840152602081019050612b0b565b83811115612b35576000848401525b50505050565b60006002820490506001821680612b5357607f821691505b60208210811415612b6757612b66612b9e565b5b50919050565b612b7682612bfc565b810181811067ffffffffffffffff82111715612b9557612b94612bcd565b5b80604052505050565b7f4e487b7100000000000000000000000000000000000000000000000000000000600052602260045260246000fd5b7f4e487b7100000000000000000000000000000000000000000000000000000000600052604160045260246000fd5b6000601f19601f8301169050919050565b7f4552433732313a2063616c6c6572206973206e6f7420746f6b656e206f776e6560008201527f72206f7220617070726f76656400000000000000000000000000000000000000602082015250565b7f4552433732313a207472616e7366657220746f206e6f6e20455243373231526560008201527f63656976657220696d706c656d656e7465720000000000000000000000000000602082015250565b7f4f776e61626c653a206e6577206f776e657220697320746865207a65726f206160008201527f6464726573730000000000000000000000000000000000000000000000000000602082015250565b7f4552433732313a207472616e736665722066726f6d20696e636f72726563742060008201527f6f776e6572000000000000000000000000000000000000000000000000000000602082015250565b7f4552433732313a20746f6b656e20616c7265616479206d696e74656400000000600082015250565b7f4552433732313a207472616e7366657220746f20746865207a65726f2061646460008201527f7265737300000000000000000000000000000000000000000000000000000000602082015250565b7f4552433732313a20617070726f766520746f2063616c6c657200000000000000600082015250565b7f4552433732313a2061646472657373207a65726f206973206e6f74206120766160008201527f6c6964206f776e65720000000000000000000000000000000000000000000000602082015250565b7f45524337323155524953746f726167653a2055524920736574206f66206e6f6e60008201527f6578697374656e7420746f6b656e000000000000000000000000000000000000602082015250565b7f4552433732313a206d696e7420746f20746865207a65726f2061646472657373600082015250565b7f4f776e61626c653a2063616c6c6572206973206e6f7420746865206f776e6572600082015250565b7f4552433732313a20696e76616c696420746f6b656e2049440000000000000000600082015250565b7f4552433732313a20617070726f76616c20746f2063757272656e74206f776e6560008201527f7200000000000000000000000000000000000000000000000000000000000000602082015250565b7f4552433732313a20617070726f76652063616c6c6572206973206e6f7420746f60008201527f6b656e206f776e6572206f7220617070726f76656420666f7220616c6c000000602082015250565b612faa81612a85565b8114612fb557600080fd5b50565b612fc181612a97565b8114612fcc57600080fd5b50565b612fd881612aa3565b8114612fe357600080fd5b50565b612fef81612aef565b8114612ffa57600080fd5b5056fea2646970667358221220a573e17418ac88f2e4dd3b97f35a0494ff806ffea077efd3e1827737d3cd6ee564736f6c63430008040033",
  "linkReferences": {},
  "deployedLinkReferences": {}
}