{
	"contracts/market.sol": {
		"BryanMarket": {
			"abi": [
				{
					"inputs": [
						{
							"internalType": "address",
							"name": "_currency",
							"type": "address"
						}
					],
					"stateMutability": "nonpayable",
					"type": "constructor"
				},
				{
					"anonymous": false,
					"inputs": [
						{
							"indexed": true,
							"internalType": "address",
							"name": "seller",
							"type": "address"
						},
						{
							"indexed": true,
							"internalType": "address",
							"name": "nftContract",
							"type": "address"
						},
						{
							"indexed": true,
							"internalType": "uint256",
							"name": "tokenId",
							"type": "uint256"
						},
						{
							"indexed": false,
							"internalType": "uint256",
							"name": "pricing",
							"type": "uint256"
						}
					],
					"name": "NFTListed",
					"type": "event"
				},
				{
					"anonymous": false,
					"inputs": [
						{
							"indexed": true,
							"internalType": "address",
							"name": "seller",
							"type": "address"
						},
						{
							"indexed": true,
							"internalType": "address",
							"name": "buyer",
							"type": "address"
						},
						{
							"indexed": true,
							"internalType": "address",
							"name": "nftContract",
							"type": "address"
						},
						{
							"indexed": false,
							"internalType": "uint256",
							"name": "tokenId",
							"type": "uint256"
						},
						{
							"indexed": false,
							"internalType": "uint256",
							"name": "pricing",
							"type": "uint256"
						}
					],
					"name": "NFTSold",
					"type": "event"
				},
				{
					"inputs": [
						{
							"internalType": "address",
							"name": "_nft",
							"type": "address"
						},
						{
							"internalType": "uint256",
							"name": "tokenId",
							"type": "uint256"
						}
					],
					"name": "buyNFT",
					"outputs": [],
					"stateMutability": "nonpayable",
					"type": "function"
				},
				{
					"inputs": [],
					"name": "currency",
					"outputs": [
						{
							"internalType": "contract IERC20",
							"name": "",
							"type": "address"
						}
					],
					"stateMutability": "view",
					"type": "function"
				},
				{
					"inputs": [],
					"name": "getAllListings",
					"outputs": [
						{
							"components": [
								{
									"internalType": "address",
									"name": "seller",
									"type": "address"
								},
								{
									"internalType": "address",
									"name": "buyer",
									"type": "address"
								},
								{
									"internalType": "address",
									"name": "nftContract",
									"type": "address"
								},
								{
									"internalType": "uint256",
									"name": "tokenId",
									"type": "uint256"
								},
								{
									"internalType": "uint256",
									"name": "pricing",
									"type": "uint256"
								}
							],
							"internalType": "struct Listing[]",
							"name": "",
							"type": "tuple[]"
						}
					],
					"stateMutability": "view",
					"type": "function"
				},
				{
					"inputs": [
						{
							"internalType": "address",
							"name": "_nft",
							"type": "address"
						},
						{
							"internalType": "uint256",
							"name": "tokenId",
							"type": "uint256"
						},
						{
							"internalType": "uint256",
							"name": "pricing",
							"type": "uint256"
						}
					],
					"name": "listingNFT",
					"outputs": [],
					"stateMutability": "nonpayable",
					"type": "function"
				}
			],
			"devdoc": {
				"kind": "dev",
				"methods": {},
				"version": 1
			},
			"evm": {
				"assembly": "    /* \"contracts/market.sol\":645:2566  contract BryanMarket {... */\n  mstore(0x40, 0xa0)\n    /* \"contracts/market.sol\":797:874  constructor(address _currency) {... */\n  callvalue\n  dup1\n  iszero\n  tag_1\n  jumpi\n  0x00\n  dup1\n  revert\ntag_1:\n  pop\n  mload(0x40)\n  sub(codesize, bytecodeSize)\n  dup1\n  bytecodeSize\n  dup4\n  codecopy\n  dup2\n  dup2\n  add\n  0x40\n  mstore\n  dup2\n  add\n  swap1\n  tag_2\n  swap2\n  swap1\n  tag_3\n  jump\t// in\ntag_2:\n    /* \"contracts/market.sol\":856:865  _currency */\n  dup1\n    /* \"contracts/market.sol\":838:866  currency = IERC20(_currency) */\n  0xffffffffffffffffffffffffffffffffffffffff\n  and\n  0x80\n  dup2\n  0xffffffffffffffffffffffffffffffffffffffff\n  and\n  dup2\n  mstore\n  pop\n  pop\n    /* \"contracts/market.sol\":797:874  constructor(address _currency) {... */\n  pop\n    /* \"contracts/market.sol\":645:2566  contract BryanMarket {... */\n  jump(tag_6)\n    /* \"#utility.yul\":88:205   */\ntag_8:\n    /* \"#utility.yul\":197:198   */\n  0x00\n    /* \"#utility.yul\":194:195   */\n  dup1\n    /* \"#utility.yul\":187:199   */\n  revert\n    /* \"#utility.yul\":334:460   */\ntag_10:\n    /* \"#utility.yul\":371:378   */\n  0x00\n    /* \"#utility.yul\":411:453   */\n  0xffffffffffffffffffffffffffffffffffffffff\n    /* \"#utility.yul\":404:409   */\n  dup3\n    /* \"#utility.yul\":400:454   */\n  and\n    /* \"#utility.yul\":389:454   */\n  swap1\n  pop\n    /* \"#utility.yul\":334:460   */\n  swap2\n  swap1\n  pop\n  jump\t// out\n    /* \"#utility.yul\":466:562   */\ntag_11:\n    /* \"#utility.yul\":503:510   */\n  0x00\n    /* \"#utility.yul\":532:556   */\n  tag_20\n    /* \"#utility.yul\":550:555   */\n  dup3\n    /* \"#utility.yul\":532:556   */\n  tag_10\n  jump\t// in\ntag_20:\n    /* \"#utility.yul\":521:556   */\n  swap1\n  pop\n    /* \"#utility.yul\":466:562   */\n  swap2\n  swap1\n  pop\n  jump\t// out\n    /* \"#utility.yul\":568:690   */\ntag_12:\n    /* \"#utility.yul\":641:665   */\n  tag_22\n    /* \"#utility.yul\":659:664   */\n  dup2\n    /* \"#utility.yul\":641:665   */\n  tag_11\n  jump\t// in\ntag_22:\n    /* \"#utility.yul\":634:639   */\n  dup2\n    /* \"#utility.yul\":631:666   */\n  eq\n    /* \"#utility.yul\":621:684   */\n  tag_23\n  jumpi\n    /* \"#utility.yul\":680:681   */\n  0x00\n    /* \"#utility.yul\":677:678   */\n  dup1\n    /* \"#utility.yul\":670:682   */\n  revert\n    /* \"#utility.yul\":621:684   */\ntag_23:\n    /* \"#utility.yul\":568:690   */\n  pop\n  jump\t// out\n    /* \"#utility.yul\":696:839   */\ntag_13:\n    /* \"#utility.yul\":753:758   */\n  0x00\n    /* \"#utility.yul\":784:790   */\n  dup2\n    /* \"#utility.yul\":778:791   */\n  mload\n    /* \"#utility.yul\":769:791   */\n  swap1\n  pop\n    /* \"#utility.yul\":800:833   */\n  tag_25\n    /* \"#utility.yul\":827:832   */\n  dup2\n    /* \"#utility.yul\":800:833   */\n  tag_12\n  jump\t// in\ntag_25:\n    /* \"#utility.yul\":696:839   */\n  swap3\n  swap2\n  pop\n  pop\n  jump\t// out\n    /* \"#utility.yul\":845:1196   */\ntag_3:\n    /* \"#utility.yul\":915:921   */\n  0x00\n    /* \"#utility.yul\":964:966   */\n  0x20\n    /* \"#utility.yul\":952:961   */\n  dup3\n    /* \"#utility.yul\":943:950   */\n  dup5\n    /* \"#utility.yul\":939:962   */\n  sub\n    /* \"#utility.yul\":935:967   */\n  slt\n    /* \"#utility.yul\":932:1051   */\n  iszero\n  tag_27\n  jumpi\n    /* \"#utility.yul\":970:1049   */\n  tag_28\n  tag_8\n  jump\t// in\ntag_28:\n    /* \"#utility.yul\":932:1051   */\ntag_27:\n    /* \"#utility.yul\":1090:1091   */\n  0x00\n    /* \"#utility.yul\":1115:1179   */\n  tag_29\n    /* \"#utility.yul\":1171:1178   */\n  dup5\n    /* \"#utility.yul\":1162:1168   */\n  dup3\n    /* \"#utility.yul\":1151:1160   */\n  dup6\n    /* \"#utility.yul\":1147:1169   */\n  add\n    /* \"#utility.yul\":1115:1179   */\n  tag_13\n  jump\t// in\ntag_29:\n    /* \"#utility.yul\":1105:1179   */\n  swap2\n  pop\n    /* \"#utility.yul\":1061:1189   */\n  pop\n    /* \"#utility.yul\":845:1196   */\n  swap3\n  swap2\n  pop\n  pop\n  jump\t// out\n    /* \"contracts/market.sol\":645:2566  contract BryanMarket {... */\ntag_6:\n  mload(0x80)\n  codecopy(0x00, dataOffset(sub_0), dataSize(sub_0))\n  0x00\n  assignImmutable(\"0x0bbef0f2e518508eaf82ee7c5d668c950fa7069d0fb71a1d5dc9a7bc212df81d\")\n  return(0x00, dataSize(sub_0))\nstop\n\nsub_0: assembly {\n        /* \"contracts/market.sol\":645:2566  contract BryanMarket {... */\n      mstore(0x40, 0x80)\n      callvalue\n      dup1\n      iszero\n      tag_1\n      jumpi\n      0x00\n      dup1\n      revert\n    tag_1:\n      pop\n      jumpi(tag_2, lt(calldatasize, 0x04))\n      shr(0xe0, calldataload(0x00))\n      dup1\n      0x2ea1a03f\n      eq\n      tag_3\n      jumpi\n      dup1\n      0xa82ba76f\n      eq\n      tag_4\n      jumpi\n      dup1\n      0xae73ccec\n      eq\n      tag_5\n      jumpi\n      dup1\n      0xe5a6b10f\n      eq\n      tag_6\n      jumpi\n    tag_2:\n      0x00\n      dup1\n      revert\n        /* \"contracts/market.sol\":1259:1880  function listingNFT(address _nft, uint tokenId, uint pricing) external {... */\n    tag_3:\n      tag_7\n      0x04\n      dup1\n      calldatasize\n      sub\n      dup2\n      add\n      swap1\n      tag_8\n      swap2\n      swap1\n      tag_9\n      jump\t// in\n    tag_8:\n      tag_10\n      jump\t// in\n    tag_7:\n      stop\n        /* \"contracts/market.sol\":1887:2564  function buyNFT(address _nft, uint tokenId) external {... */\n    tag_4:\n      tag_11\n      0x04\n      dup1\n      calldatasize\n      sub\n      dup2\n      add\n      swap1\n      tag_12\n      swap2\n      swap1\n      tag_13\n      jump\t// in\n    tag_12:\n      tag_14\n      jump\t// in\n    tag_11:\n      stop\n        /* \"contracts/market.sol\":881:1252  function getAllListings() external view returns (Listing[] memory) {... */\n    tag_5:\n      tag_15\n      tag_16\n      jump\t// in\n    tag_15:\n      mload(0x40)\n      tag_17\n      swap2\n      swap1\n      tag_18\n      jump\t// in\n    tag_17:\n      mload(0x40)\n      dup1\n      swap2\n      sub\n      swap1\n      return\n        /* \"contracts/market.sol\":673:705  IERC20 public immutable currency */\n    tag_6:\n      tag_19\n      tag_20\n      jump\t// in\n    tag_19:\n      mload(0x40)\n      tag_21\n      swap2\n      swap1\n      tag_22\n      jump\t// in\n    tag_21:\n      mload(0x40)\n      dup1\n      swap2\n      sub\n      swap1\n      return\n        /* \"contracts/market.sol\":1259:1880  function listingNFT(address _nft, uint tokenId, uint pricing) external {... */\n    tag_10:\n        /* \"contracts/market.sol\":1342:1353  IERC721 nft */\n      0x00\n        /* \"contracts/market.sol\":1364:1368  _nft */\n      dup4\n        /* \"contracts/market.sol\":1342:1369  IERC721 nft = IERC721(_nft) */\n      swap1\n      pop\n        /* \"contracts/market.sol\":1414:1424  msg.sender */\n      caller\n        /* \"contracts/market.sol\":1390:1424  nft.ownerOf(tokenId) == msg.sender */\n      0xffffffffffffffffffffffffffffffffffffffff\n      and\n        /* \"contracts/market.sol\":1390:1393  nft */\n      dup2\n        /* \"contracts/market.sol\":1390:1401  nft.ownerOf */\n      0xffffffffffffffffffffffffffffffffffffffff\n      and\n      0x6352211e\n        /* \"contracts/market.sol\":1402:1409  tokenId */\n      dup6\n        /* \"contracts/market.sol\":1390:1410  nft.ownerOf(tokenId) */\n      mload(0x40)\n      dup3\n      0xffffffff\n      and\n      0xe0\n      shl\n      dup2\n      mstore\n      0x04\n      add\n      tag_24\n      swap2\n      swap1\n      tag_25\n      jump\t// in\n    tag_24:\n      0x20\n      mload(0x40)\n      dup1\n      dup4\n      sub\n      dup2\n      dup7\n      gas\n      staticcall\n      iszero\n      dup1\n      iszero\n      tag_27\n      jumpi\n      returndatasize\n      0x00\n      dup1\n      returndatacopy\n      revert(0x00, returndatasize)\n    tag_27:\n      pop\n      pop\n      pop\n      pop\n      mload(0x40)\n      returndatasize\n      not(0x1f)\n      0x1f\n      dup3\n      add\n      and\n      dup3\n      add\n      dup1\n      0x40\n      mstore\n      pop\n      dup2\n      add\n      swap1\n      tag_28\n      swap2\n      swap1\n      tag_29\n      jump\t// in\n    tag_28:\n        /* \"contracts/market.sol\":1390:1424  nft.ownerOf(tokenId) == msg.sender */\n      0xffffffffffffffffffffffffffffffffffffffff\n      and\n      eq\n        /* \"contracts/market.sol\":1382:1442  require(nft.ownerOf(tokenId) == msg.sender, \"require owner\") */\n      tag_30\n      jumpi\n      mload(0x40)\n      0x08c379a000000000000000000000000000000000000000000000000000000000\n      dup2\n      mstore\n      0x04\n      add\n      tag_31\n      swap1\n      tag_32\n      jump\t// in\n    tag_31:\n      mload(0x40)\n      dup1\n      swap2\n      sub\n      swap1\n      revert\n    tag_30:\n        /* \"contracts/market.sol\":1462:1465  nft */\n      dup1\n        /* \"contracts/market.sol\":1462:1482  nft.isApprovedForAll */\n      0xffffffffffffffffffffffffffffffffffffffff\n      and\n      0xe985e9c5\n        /* \"contracts/market.sol\":1483:1493  msg.sender */\n      caller\n        /* \"contracts/market.sol\":1503:1507  this */\n      address\n        /* \"contracts/market.sol\":1462:1509  nft.isApprovedForAll(msg.sender, address(this)) */\n      mload(0x40)\n      dup4\n      0xffffffff\n      and\n      0xe0\n      shl\n      dup2\n      mstore\n      0x04\n      add\n      tag_33\n      swap3\n      swap2\n      swap1\n      tag_34\n      jump\t// in\n    tag_33:\n      0x20\n      mload(0x40)\n      dup1\n      dup4\n      sub\n      dup2\n      dup7\n      gas\n      staticcall\n      iszero\n      dup1\n      iszero\n      tag_36\n      jumpi\n      returndatasize\n      0x00\n      dup1\n      returndatacopy\n      revert(0x00, returndatasize)\n    tag_36:\n      pop\n      pop\n      pop\n      pop\n      mload(0x40)\n      returndatasize\n      not(0x1f)\n      0x1f\n      dup3\n      add\n      and\n      dup3\n      add\n      dup1\n      0x40\n      mstore\n      pop\n      dup2\n      add\n      swap1\n      tag_37\n      swap2\n      swap1\n      tag_38\n      jump\t// in\n    tag_37:\n        /* \"contracts/market.sol\":1462:1554  nft.isApprovedForAll(msg.sender, address(this)) || nft.getApproved(tokenId) == address(this) */\n      dup1\n      tag_39\n      jumpi\n      pop\n        /* \"contracts/market.sol\":1549:1553  this */\n      address\n        /* \"contracts/market.sol\":1513:1554  nft.getApproved(tokenId) == address(this) */\n      0xffffffffffffffffffffffffffffffffffffffff\n      and\n        /* \"contracts/market.sol\":1513:1516  nft */\n      dup2\n        /* \"contracts/market.sol\":1513:1528  nft.getApproved */\n      0xffffffffffffffffffffffffffffffffffffffff\n      and\n      0x081812fc\n        /* \"contracts/market.sol\":1529:1536  tokenId */\n      dup6\n        /* \"contracts/market.sol\":1513:1537  nft.getApproved(tokenId) */\n      mload(0x40)\n      dup3\n      0xffffffff\n      and\n      0xe0\n      shl\n      dup2\n      mstore\n      0x04\n      add\n      tag_40\n      swap2\n      swap1\n      tag_25\n      jump\t// in\n    tag_40:\n      0x20\n      mload(0x40)\n      dup1\n      dup4\n      sub\n      dup2\n      dup7\n      gas\n      staticcall\n      iszero\n      dup1\n      iszero\n      tag_42\n      jumpi\n      returndatasize\n      0x00\n      dup1\n      returndatacopy\n      revert(0x00, returndatasize)\n    tag_42:\n      pop\n      pop\n      pop\n      pop\n      mload(0x40)\n      returndatasize\n      not(0x1f)\n      0x1f\n      dup3\n      add\n      and\n      dup3\n      add\n      dup1\n      0x40\n      mstore\n      pop\n      dup2\n      add\n      swap1\n      tag_43\n      swap2\n      swap1\n      tag_29\n      jump\t// in\n    tag_43:\n        /* \"contracts/market.sol\":1513:1554  nft.getApproved(tokenId) == address(this) */\n      0xffffffffffffffffffffffffffffffffffffffff\n      and\n      eq\n        /* \"contracts/market.sol\":1462:1554  nft.isApprovedForAll(msg.sender, address(this)) || nft.getApproved(tokenId) == address(this) */\n    tag_39:\n        /* \"contracts/market.sol\":1454:1571  require(nft.isApprovedForAll(msg.sender, address(this)) || nft.getApproved(tokenId) == address(this), \"not approved\") */\n      tag_44\n      jumpi\n      mload(0x40)\n      0x08c379a000000000000000000000000000000000000000000000000000000000\n      dup2\n      mstore\n      0x04\n      add\n      tag_45\n      swap1\n      tag_46\n      jump\t// in\n    tag_45:\n      mload(0x40)\n      dup1\n      swap2\n      sub\n      swap1\n      revert\n    tag_44:\n        /* \"contracts/market.sol\":1620:1762  Listing(... */\n      mload(0x40)\n      dup1\n      0xa0\n      add\n      0x40\n      mstore\n      dup1\n        /* \"contracts/market.sol\":1644:1654  msg.sender */\n      caller\n        /* \"contracts/market.sol\":1620:1762  Listing(... */\n      0xffffffffffffffffffffffffffffffffffffffff\n      and\n      dup2\n      mstore\n      0x20\n      add\n        /* \"contracts/market.sol\":1679:1680  0 */\n      0x00\n        /* \"contracts/market.sol\":1620:1762  Listing(... */\n      0xffffffffffffffffffffffffffffffffffffffff\n      and\n      dup2\n      mstore\n      0x20\n      add\n        /* \"contracts/market.sol\":1698:1702  _nft */\n      dup6\n        /* \"contracts/market.sol\":1620:1762  Listing(... */\n      0xffffffffffffffffffffffffffffffffffffffff\n      and\n      dup2\n      mstore\n      0x20\n      add\n        /* \"contracts/market.sol\":1719:1726  tokenId */\n      dup5\n        /* \"contracts/market.sol\":1620:1762  Listing(... */\n      dup2\n      mstore\n      0x20\n      add\n        /* \"contracts/market.sol\":1743:1750  pricing */\n      dup4\n        /* \"contracts/market.sol\":1620:1762  Listing(... */\n      dup2\n      mstore\n      pop\n        /* \"contracts/market.sol\":1594:1602  listings */\n      0x01\n        /* \"contracts/market.sol\":1594:1608  listings[_nft] */\n      0x00\n        /* \"contracts/market.sol\":1603:1607  _nft */\n      dup7\n        /* \"contracts/market.sol\":1594:1608  listings[_nft] */\n      0xffffffffffffffffffffffffffffffffffffffff\n      and\n      0xffffffffffffffffffffffffffffffffffffffff\n      and\n      dup2\n      mstore\n      0x20\n      add\n      swap1\n      dup2\n      mstore\n      0x20\n      add\n      0x00\n      keccak256\n        /* \"contracts/market.sol\":1594:1617  listings[_nft][tokenId] */\n      0x00\n        /* \"contracts/market.sol\":1609:1616  tokenId */\n      dup6\n        /* \"contracts/market.sol\":1594:1617  listings[_nft][tokenId] */\n      dup2\n      mstore\n      0x20\n      add\n      swap1\n      dup2\n      mstore\n      0x20\n      add\n      0x00\n      keccak256\n        /* \"contracts/market.sol\":1594:1762  listings[_nft][tokenId] = Listing(... */\n      0x00\n      dup3\n      add\n      mload\n      dup2\n      0x00\n      add\n      exp(0x0100, 0x00)\n      dup2\n      sload\n      dup2\n      0xffffffffffffffffffffffffffffffffffffffff\n      mul\n      not\n      and\n      swap1\n      dup4\n      0xffffffffffffffffffffffffffffffffffffffff\n      and\n      mul\n      or\n      swap1\n      sstore\n      pop\n      0x20\n      dup3\n      add\n      mload\n      dup2\n      0x01\n      add\n      exp(0x0100, 0x00)\n      dup2\n      sload\n      dup2\n      0xffffffffffffffffffffffffffffffffffffffff\n      mul\n      not\n      and\n      swap1\n      dup4\n      0xffffffffffffffffffffffffffffffffffffffff\n      and\n      mul\n      or\n      swap1\n      sstore\n      pop\n      0x40\n      dup3\n      add\n      mload\n      dup2\n      0x02\n      add\n      exp(0x0100, 0x00)\n      dup2\n      sload\n      dup2\n      0xffffffffffffffffffffffffffffffffffffffff\n      mul\n      not\n      and\n      swap1\n      dup4\n      0xffffffffffffffffffffffffffffffffffffffff\n      and\n      mul\n      or\n      swap1\n      sstore\n      pop\n      0x60\n      dup3\n      add\n      mload\n      dup2\n      0x03\n      add\n      sstore\n      0x80\n      dup3\n      add\n      mload\n      dup2\n      0x04\n      add\n      sstore\n      swap1\n      pop\n      pop\n        /* \"contracts/market.sol\":1774:1777  all */\n      0x00\n        /* \"contracts/market.sol\":1783:1808  ListingKey(_nft, tokenId) */\n      mload(0x40)\n      dup1\n      0x40\n      add\n      0x40\n      mstore\n      dup1\n        /* \"contracts/market.sol\":1794:1798  _nft */\n      dup7\n        /* \"contracts/market.sol\":1783:1808  ListingKey(_nft, tokenId) */\n      0xffffffffffffffffffffffffffffffffffffffff\n      and\n      dup2\n      mstore\n      0x20\n      add\n        /* \"contracts/market.sol\":1800:1807  tokenId */\n      dup6\n        /* \"contracts/market.sol\":1783:1808  ListingKey(_nft, tokenId) */\n      dup2\n      mstore\n      pop\n        /* \"contracts/market.sol\":1774:1809  all.push(ListingKey(_nft, tokenId)) */\n      swap1\n      dup1\n      0x01\n      dup2\n      sload\n      add\n      dup1\n      dup3\n      sstore\n      dup1\n      swap2\n      pop\n      pop\n      0x01\n      swap1\n      sub\n      swap1\n      0x00\n      mstore\n      keccak256(0x00, 0x20)\n      swap1\n      0x02\n      mul\n      add\n      0x00\n      swap1\n      swap2\n      swap1\n      swap2\n      swap1\n      swap2\n      pop\n      0x00\n      dup3\n      add\n      mload\n      dup2\n      0x00\n      add\n      exp(0x0100, 0x00)\n      dup2\n      sload\n      dup2\n      0xffffffffffffffffffffffffffffffffffffffff\n      mul\n      not\n      and\n      swap1\n      dup4\n      0xffffffffffffffffffffffffffffffffffffffff\n      and\n      mul\n      or\n      swap1\n      sstore\n      pop\n      0x20\n      dup3\n      add\n      mload\n      dup2\n      0x01\n      add\n      sstore\n      pop\n      pop\n        /* \"contracts/market.sol\":1855:1862  tokenId */\n      dup3\n        /* \"contracts/market.sol\":1849:1853  _nft */\n      dup5\n        /* \"contracts/market.sol\":1827:1872  NFTListed(msg.sender, _nft, tokenId, pricing) */\n      0xffffffffffffffffffffffffffffffffffffffff\n      and\n        /* \"contracts/market.sol\":1837:1847  msg.sender */\n      caller\n        /* \"contracts/market.sol\":1827:1872  NFTListed(msg.sender, _nft, tokenId, pricing) */\n      0xffffffffffffffffffffffffffffffffffffffff\n      and\n      0xbeab3a2bb824b124a8a1eb465eec003338d61b414db132d37e9b3a984fdcf010\n        /* \"contracts/market.sol\":1864:1871  pricing */\n      dup6\n        /* \"contracts/market.sol\":1827:1872  NFTListed(msg.sender, _nft, tokenId, pricing) */\n      mload(0x40)\n      tag_48\n      swap2\n      swap1\n      tag_25\n      jump\t// in\n    tag_48:\n      mload(0x40)\n      dup1\n      swap2\n      sub\n      swap1\n      log4\n        /* \"contracts/market.sol\":1330:1880  {... */\n      pop\n        /* \"contracts/market.sol\":1259:1880  function listingNFT(address _nft, uint tokenId, uint pricing) external {... */\n      pop\n      pop\n      pop\n      jump\t// out\n        /* \"contracts/market.sol\":1887:2564  function buyNFT(address _nft, uint tokenId) external {... */\n    tag_14:\n        /* \"contracts/market.sol\":1952:1972  Listing storage item */\n      0x00\n        /* \"contracts/market.sol\":1975:1983  listings */\n      0x01\n        /* \"contracts/market.sol\":1975:1989  listings[_nft] */\n      0x00\n        /* \"contracts/market.sol\":1984:1988  _nft */\n      dup5\n        /* \"contracts/market.sol\":1975:1989  listings[_nft] */\n      0xffffffffffffffffffffffffffffffffffffffff\n      and\n      0xffffffffffffffffffffffffffffffffffffffff\n      and\n      dup2\n      mstore\n      0x20\n      add\n      swap1\n      dup2\n      mstore\n      0x20\n      add\n      0x00\n      keccak256\n        /* \"contracts/market.sol\":1975:1998  listings[_nft][tokenId] */\n      0x00\n        /* \"contracts/market.sol\":1990:1997  tokenId */\n      dup4\n        /* \"contracts/market.sol\":1975:1998  listings[_nft][tokenId] */\n      dup2\n      mstore\n      0x20\n      add\n      swap1\n      dup2\n      mstore\n      0x20\n      add\n      0x00\n      keccak256\n        /* \"contracts/market.sol\":1952:1998  Listing storage item = listings[_nft][tokenId] */\n      swap1\n      pop\n        /* \"contracts/market.sol\":2041:2042  0 */\n      0x00\n        /* \"contracts/market.sol\":2018:2043  item.seller != address(0) */\n      0xffffffffffffffffffffffffffffffffffffffff\n      and\n        /* \"contracts/market.sol\":2018:2022  item */\n      dup2\n        /* \"contracts/market.sol\":2018:2029  item.seller */\n      0x00\n      add\n      0x00\n      swap1\n      sload\n      swap1\n      0x0100\n      exp\n      swap1\n      div\n      0xffffffffffffffffffffffffffffffffffffffff\n      and\n        /* \"contracts/market.sol\":2018:2043  item.seller != address(0) */\n      0xffffffffffffffffffffffffffffffffffffffff\n      and\n      sub\n        /* \"contracts/market.sol\":2010:2075  require(item.seller != address(0), \"required nft does not exist\") */\n      tag_50\n      jumpi\n      mload(0x40)\n      0x08c379a000000000000000000000000000000000000000000000000000000000\n      dup2\n      mstore\n      0x04\n      add\n      tag_51\n      swap1\n      tag_52\n      jump\t// in\n    tag_51:\n      mload(0x40)\n      dup1\n      swap2\n      sub\n      swap1\n      revert\n    tag_50:\n        /* \"contracts/market.sol\":2117:2118  0 */\n      0x00\n        /* \"contracts/market.sol\":2095:2119  item.buyer == address(0) */\n      0xffffffffffffffffffffffffffffffffffffffff\n      and\n        /* \"contracts/market.sol\":2095:2099  item */\n      dup2\n        /* \"contracts/market.sol\":2095:2105  item.buyer */\n      0x01\n      add\n      0x00\n      swap1\n      sload\n      swap1\n      0x0100\n      exp\n      swap1\n      div\n      0xffffffffffffffffffffffffffffffffffffffff\n      and\n        /* \"contracts/market.sol\":2095:2119  item.buyer == address(0) */\n      0xffffffffffffffffffffffffffffffffffffffff\n      and\n      eq\n        /* \"contracts/market.sol\":2087:2136  require(item.buyer == address(0), \"nft sold out\") */\n      tag_53\n      jumpi\n      mload(0x40)\n      0x08c379a000000000000000000000000000000000000000000000000000000000\n      dup2\n      mstore\n      0x04\n      add\n      tag_54\n      swap1\n      tag_55\n      jump\t// in\n    tag_54:\n      mload(0x40)\n      dup1\n      swap2\n      sub\n      swap1\n      revert\n    tag_53:\n        /* \"contracts/market.sol\":2157:2165  currency */\n      immutable(\"0x0bbef0f2e518508eaf82ee7c5d668c950fa7069d0fb71a1d5dc9a7bc212df81d\")\n        /* \"contracts/market.sol\":2157:2178  currency.transferFrom */\n      0xffffffffffffffffffffffffffffffffffffffff\n      and\n      0x23b872dd\n        /* \"contracts/market.sol\":2179:2189  msg.sender */\n      caller\n        /* \"contracts/market.sol\":2191:2195  item */\n      dup4\n        /* \"contracts/market.sol\":2191:2202  item.seller */\n      0x00\n      add\n      0x00\n      swap1\n      sload\n      swap1\n      0x0100\n      exp\n      swap1\n      div\n      0xffffffffffffffffffffffffffffffffffffffff\n      and\n        /* \"contracts/market.sol\":2204:2208  item */\n      dup5\n        /* \"contracts/market.sol\":2204:2216  item.pricing */\n      0x04\n      add\n      sload\n        /* \"contracts/market.sol\":2157:2217  currency.transferFrom(msg.sender, item.seller, item.pricing) */\n      mload(0x40)\n      dup5\n      0xffffffff\n      and\n      0xe0\n      shl\n      dup2\n      mstore\n      0x04\n      add\n      tag_56\n      swap4\n      swap3\n      swap2\n      swap1\n      tag_57\n      jump\t// in\n    tag_56:\n      0x20\n      mload(0x40)\n      dup1\n      dup4\n      sub\n      dup2\n      0x00\n      dup8\n      gas\n      call\n      iszero\n      dup1\n      iszero\n      tag_59\n      jumpi\n      returndatasize\n      0x00\n      dup1\n      returndatacopy\n      revert(0x00, returndatasize)\n    tag_59:\n      pop\n      pop\n      pop\n      pop\n      mload(0x40)\n      returndatasize\n      not(0x1f)\n      0x1f\n      dup3\n      add\n      and\n      dup3\n      add\n      dup1\n      0x40\n      mstore\n      pop\n      dup2\n      add\n      swap1\n      tag_60\n      swap2\n      swap1\n      tag_38\n      jump\t// in\n    tag_60:\n        /* \"contracts/market.sol\":2149:2235  require(currency.transferFrom(msg.sender, item.seller, item.pricing), \"failed to pay\") */\n      tag_61\n      jumpi\n      mload(0x40)\n      0x08c379a000000000000000000000000000000000000000000000000000000000\n      dup2\n      mstore\n      0x04\n      add\n      tag_62\n      swap1\n      tag_63\n      jump\t// in\n    tag_62:\n      mload(0x40)\n      dup1\n      swap2\n      sub\n      swap1\n      revert\n    tag_61:\n        /* \"contracts/market.sol\":2248:2259  IERC721 nft */\n      0x00\n        /* \"contracts/market.sol\":2270:2274  item */\n      dup2\n        /* \"contracts/market.sol\":2270:2286  item.nftContract */\n      0x02\n      add\n      0x00\n      swap1\n      sload\n      swap1\n      0x0100\n      exp\n      swap1\n      div\n      0xffffffffffffffffffffffffffffffffffffffff\n      and\n        /* \"contracts/market.sol\":2248:2287  IERC721 nft = IERC721(item.nftContract) */\n      swap1\n      pop\n        /* \"contracts/market.sol\":2299:2302  nft */\n      dup1\n        /* \"contracts/market.sol\":2299:2319  nft.safeTransferFrom */\n      0xffffffffffffffffffffffffffffffffffffffff\n      and\n      0x42842e0e\n        /* \"contracts/market.sol\":2320:2324  item */\n      dup4\n        /* \"contracts/market.sol\":2320:2331  item.seller */\n      0x00\n      add\n      0x00\n      swap1\n      sload\n      swap1\n      0x0100\n      exp\n      swap1\n      div\n      0xffffffffffffffffffffffffffffffffffffffff\n      and\n        /* \"contracts/market.sol\":2334:2344  msg.sender */\n      caller\n        /* \"contracts/market.sol\":2346:2353  tokenId */\n      dup7\n        /* \"contracts/market.sol\":2299:2354  nft.safeTransferFrom(item.seller , msg.sender, tokenId) */\n      mload(0x40)\n      dup5\n      0xffffffff\n      and\n      0xe0\n      shl\n      dup2\n      mstore\n      0x04\n      add\n      tag_64\n      swap4\n      swap3\n      swap2\n      swap1\n      tag_57\n      jump\t// in\n    tag_64:\n      0x00\n      mload(0x40)\n      dup1\n      dup4\n      sub\n      dup2\n      0x00\n      dup8\n      dup1\n      extcodesize\n      iszero\n      dup1\n      iszero\n      tag_65\n      jumpi\n      0x00\n      dup1\n      revert\n    tag_65:\n      pop\n      gas\n      call\n      iszero\n      dup1\n      iszero\n      tag_67\n      jumpi\n      returndatasize\n      0x00\n      dup1\n      returndatacopy\n      revert(0x00, returndatasize)\n    tag_67:\n      pop\n      pop\n      pop\n      pop\n        /* \"contracts/market.sol\":2379:2389  msg.sender */\n      caller\n        /* \"contracts/market.sol\":2366:2370  item */\n      dup3\n        /* \"contracts/market.sol\":2366:2376  item.buyer */\n      0x01\n      add\n      0x00\n        /* \"contracts/market.sol\":2366:2389  item.buyer = msg.sender */\n      0x0100\n      exp\n      dup2\n      sload\n      dup2\n      0xffffffffffffffffffffffffffffffffffffffff\n      mul\n      not\n      and\n      swap1\n      dup4\n      0xffffffffffffffffffffffffffffffffffffffff\n      and\n      mul\n      or\n      swap1\n      sstore\n      pop\n        /* \"contracts/market.sol\":2487:2491  _nft */\n      dup4\n        /* \"contracts/market.sol\":2407:2556  NFTSold (... */\n      0xffffffffffffffffffffffffffffffffffffffff\n      and\n        /* \"contracts/market.sol\":2460:2470  msg.sender */\n      caller\n        /* \"contracts/market.sol\":2407:2556  NFTSold (... */\n      0xffffffffffffffffffffffffffffffffffffffff\n      and\n        /* \"contracts/market.sol\":2432:2436  item */\n      dup4\n        /* \"contracts/market.sol\":2432:2443  item.seller */\n      0x00\n      add\n      0x00\n      swap1\n      sload\n      swap1\n      0x0100\n      exp\n      swap1\n      div\n      0xffffffffffffffffffffffffffffffffffffffff\n      and\n        /* \"contracts/market.sol\":2407:2556  NFTSold (... */\n      0xffffffffffffffffffffffffffffffffffffffff\n      and\n      0x1b81ea9818518fffa07ee623cfd9ce8af1900f3e0c918f2ca4fcfc9745cdc165\n        /* \"contracts/market.sol\":2508:2515  tokenId */\n      dup7\n        /* \"contracts/market.sol\":2532:2536  item */\n      dup7\n        /* \"contracts/market.sol\":2532:2544  item.pricing */\n      0x04\n      add\n      sload\n        /* \"contracts/market.sol\":2407:2556  NFTSold (... */\n      mload(0x40)\n      tag_68\n      swap3\n      swap2\n      swap1\n      tag_69\n      jump\t// in\n    tag_68:\n      mload(0x40)\n      dup1\n      swap2\n      sub\n      swap1\n      log4\n        /* \"contracts/market.sol\":1940:2564  {... */\n      pop\n      pop\n        /* \"contracts/market.sol\":1887:2564  function buyNFT(address _nft, uint tokenId) external {... */\n      pop\n      pop\n      jump\t// out\n        /* \"contracts/market.sol\":881:1252  function getAllListings() external view returns (Listing[] memory) {... */\n    tag_16:\n        /* \"contracts/market.sol\":930:946  Listing[] memory */\n      0x60\n        /* \"contracts/market.sol\":960:988  Listing[] memory allListings */\n      0x00\n        /* \"contracts/market.sol\":1005:1008  all */\n      dup1\n        /* \"contracts/market.sol\":1005:1015  all.length */\n      dup1\n      sload\n      swap1\n      pop\n        /* \"contracts/market.sol\":991:1016  new Listing[](all.length) */\n      0xffffffffffffffff\n      dup2\n      gt\n      iszero\n      tag_71\n      jumpi\n      tag_72\n      tag_73\n      jump\t// in\n    tag_72:\n    tag_71:\n      mload(0x40)\n      swap1\n      dup1\n      dup3\n      mstore\n      dup1\n      0x20\n      mul\n      0x20\n      add\n      dup3\n      add\n      0x40\n      mstore\n      dup1\n      iszero\n      tag_74\n      jumpi\n      dup2\n      0x20\n      add\n    tag_75:\n      tag_76\n      tag_77\n      jump\t// in\n    tag_76:\n      dup2\n      mstore\n      0x20\n      add\n      swap1\n      0x01\n      swap1\n      sub\n      swap1\n      dup2\n      tag_75\n      jumpi\n      swap1\n      pop\n    tag_74:\n      pop\n        /* \"contracts/market.sol\":960:1016  Listing[] memory allListings = new Listing[](all.length) */\n      swap1\n      pop\n        /* \"contracts/market.sol\":1029:1050  ListingKey memory key */\n      tag_78\n      tag_79\n      jump\t// in\n    tag_78:\n        /* \"contracts/market.sol\":1067:1073  uint i */\n      0x00\n        /* \"contracts/market.sol\":1062:1214  for (uint i = 0; i < all.length; i++) {... */\n    tag_80:\n        /* \"contracts/market.sol\":1083:1086  all */\n      0x00\n        /* \"contracts/market.sol\":1083:1093  all.length */\n      dup1\n      sload\n      swap1\n      pop\n        /* \"contracts/market.sol\":1079:1080  i */\n      dup2\n        /* \"contracts/market.sol\":1079:1093  i < all.length */\n      lt\n        /* \"contracts/market.sol\":1062:1214  for (uint i = 0; i < all.length; i++) {... */\n      iszero\n      tag_81\n      jumpi\n        /* \"contracts/market.sol\":1123:1126  all */\n      0x00\n        /* \"contracts/market.sol\":1127:1128  i */\n      dup2\n        /* \"contracts/market.sol\":1123:1129  all[i] */\n      dup2\n      sload\n      dup2\n      lt\n      tag_83\n      jumpi\n      tag_84\n      tag_85\n      jump\t// in\n    tag_84:\n    tag_83:\n      swap1\n      0x00\n      mstore\n      keccak256(0x00, 0x20)\n      swap1\n      0x02\n      mul\n      add\n        /* \"contracts/market.sol\":1117:1129  key = all[i] */\n      mload(0x40)\n      dup1\n      0x40\n      add\n      0x40\n      mstore\n      swap1\n      dup2\n      0x00\n      dup3\n      add\n      0x00\n      swap1\n      sload\n      swap1\n      0x0100\n      exp\n      swap1\n      div\n      0xffffffffffffffffffffffffffffffffffffffff\n      and\n      0xffffffffffffffffffffffffffffffffffffffff\n      and\n      0xffffffffffffffffffffffffffffffffffffffff\n      and\n      dup2\n      mstore\n      0x20\n      add\n      0x01\n      dup3\n      add\n      sload\n      dup2\n      mstore\n      pop\n      pop\n      swap2\n      pop\n        /* \"contracts/market.sol\":1163:1171  listings */\n      0x01\n        /* \"contracts/market.sol\":1163:1188  listings[key.nftContract] */\n      0x00\n        /* \"contracts/market.sol\":1172:1175  key */\n      dup4\n        /* \"contracts/market.sol\":1172:1187  key.nftContract */\n      0x00\n      add\n      mload\n        /* \"contracts/market.sol\":1163:1188  listings[key.nftContract] */\n      0xffffffffffffffffffffffffffffffffffffffff\n      and\n      0xffffffffffffffffffffffffffffffffffffffff\n      and\n      dup2\n      mstore\n      0x20\n      add\n      swap1\n      dup2\n      mstore\n      0x20\n      add\n      0x00\n      keccak256\n        /* \"contracts/market.sol\":1163:1201  listings[key.nftContract][key.tokenId] */\n      0x00\n        /* \"contracts/market.sol\":1189:1192  key */\n      dup4\n        /* \"contracts/market.sol\":1189:1200  key.tokenId */\n      0x20\n      add\n      mload\n        /* \"contracts/market.sol\":1163:1201  listings[key.nftContract][key.tokenId] */\n      dup2\n      mstore\n      0x20\n      add\n      swap1\n      dup2\n      mstore\n      0x20\n      add\n      0x00\n      keccak256\n        /* \"contracts/market.sol\":1146:1201  allListings[i] = listings[key.nftContract][key.tokenId] */\n      mload(0x40)\n      dup1\n      0xa0\n      add\n      0x40\n      mstore\n      swap1\n      dup2\n      0x00\n      dup3\n      add\n      0x00\n      swap1\n      sload\n      swap1\n      0x0100\n      exp\n      swap1\n      div\n      0xffffffffffffffffffffffffffffffffffffffff\n      and\n      0xffffffffffffffffffffffffffffffffffffffff\n      and\n      0xffffffffffffffffffffffffffffffffffffffff\n      and\n      dup2\n      mstore\n      0x20\n      add\n      0x01\n      dup3\n      add\n      0x00\n      swap1\n      sload\n      swap1\n      0x0100\n      exp\n      swap1\n      div\n      0xffffffffffffffffffffffffffffffffffffffff\n      and\n      0xffffffffffffffffffffffffffffffffffffffff\n      and\n      0xffffffffffffffffffffffffffffffffffffffff\n      and\n      dup2\n      mstore\n      0x20\n      add\n      0x02\n      dup3\n      add\n      0x00\n      swap1\n      sload\n      swap1\n      0x0100\n      exp\n      swap1\n      div\n      0xffffffffffffffffffffffffffffffffffffffff\n      and\n      0xffffffffffffffffffffffffffffffffffffffff\n      and\n      0xffffffffffffffffffffffffffffffffffffffff\n      and\n      dup2\n      mstore\n      0x20\n      add\n      0x03\n      dup3\n      add\n      sload\n      dup2\n      mstore\n      0x20\n      add\n      0x04\n      dup3\n      add\n      sload\n      dup2\n      mstore\n      pop\n      pop\n        /* \"contracts/market.sol\":1146:1157  allListings */\n      dup4\n        /* \"contracts/market.sol\":1158:1159  i */\n      dup3\n        /* \"contracts/market.sol\":1146:1160  allListings[i] */\n      dup2\n      mload\n      dup2\n      lt\n      tag_87\n      jumpi\n      tag_88\n      tag_85\n      jump\t// in\n    tag_88:\n    tag_87:\n      0x20\n      mul\n      0x20\n      add\n      add\n        /* \"contracts/market.sol\":1146:1201  allListings[i] = listings[key.nftContract][key.tokenId] */\n      dup2\n      swap1\n      mstore\n      pop\n        /* \"contracts/market.sol\":1095:1098  i++ */\n      dup1\n      dup1\n      0x01\n      add\n      swap2\n      pop\n      pop\n        /* \"contracts/market.sol\":1062:1214  for (uint i = 0; i < all.length; i++) {... */\n      jump(tag_80)\n    tag_81:\n      pop\n        /* \"contracts/market.sol\":1233:1244  allListings */\n      dup2\n        /* \"contracts/market.sol\":1226:1244  return allListings */\n      swap3\n      pop\n      pop\n      pop\n        /* \"contracts/market.sol\":881:1252  function getAllListings() external view returns (Listing[] memory) {... */\n      swap1\n      jump\t// out\n        /* \"contracts/market.sol\":673:705  IERC20 public immutable currency */\n    tag_20:\n      immutable(\"0x0bbef0f2e518508eaf82ee7c5d668c950fa7069d0fb71a1d5dc9a7bc212df81d\")\n      dup2\n      jump\t// out\n    tag_77:\n      mload(0x40)\n      dup1\n      0xa0\n      add\n      0x40\n      mstore\n      dup1\n      and(0xffffffffffffffffffffffffffffffffffffffff, 0x00)\n      dup2\n      mstore\n      0x20\n      add\n      and(0xffffffffffffffffffffffffffffffffffffffff, 0x00)\n      dup2\n      mstore\n      0x20\n      add\n      and(0xffffffffffffffffffffffffffffffffffffffff, 0x00)\n      dup2\n      mstore\n      0x20\n      add\n      0x00\n      dup2\n      mstore\n      0x20\n      add\n      0x00\n      dup2\n      mstore\n      pop\n      swap1\n      jump\t// out\n    tag_79:\n      mload(0x40)\n      dup1\n      0x40\n      add\n      0x40\n      mstore\n      dup1\n      and(0xffffffffffffffffffffffffffffffffffffffff, 0x00)\n      dup2\n      mstore\n      0x20\n      add\n      0x00\n      dup2\n      mstore\n      pop\n      swap1\n      jump\t// out\n        /* \"#utility.yul\":88:205   */\n    tag_90:\n        /* \"#utility.yul\":197:198   */\n      0x00\n        /* \"#utility.yul\":194:195   */\n      dup1\n        /* \"#utility.yul\":187:199   */\n      revert\n        /* \"#utility.yul\":334:460   */\n    tag_92:\n        /* \"#utility.yul\":371:378   */\n      0x00\n        /* \"#utility.yul\":411:453   */\n      0xffffffffffffffffffffffffffffffffffffffff\n        /* \"#utility.yul\":404:409   */\n      dup3\n        /* \"#utility.yul\":400:454   */\n      and\n        /* \"#utility.yul\":389:454   */\n      swap1\n      pop\n        /* \"#utility.yul\":334:460   */\n      swap2\n      swap1\n      pop\n      jump\t// out\n        /* \"#utility.yul\":466:562   */\n    tag_93:\n        /* \"#utility.yul\":503:510   */\n      0x00\n        /* \"#utility.yul\":532:556   */\n      tag_136\n        /* \"#utility.yul\":550:555   */\n      dup3\n        /* \"#utility.yul\":532:556   */\n      tag_92\n      jump\t// in\n    tag_136:\n        /* \"#utility.yul\":521:556   */\n      swap1\n      pop\n        /* \"#utility.yul\":466:562   */\n      swap2\n      swap1\n      pop\n      jump\t// out\n        /* \"#utility.yul\":568:690   */\n    tag_94:\n        /* \"#utility.yul\":641:665   */\n      tag_138\n        /* \"#utility.yul\":659:664   */\n      dup2\n        /* \"#utility.yul\":641:665   */\n      tag_93\n      jump\t// in\n    tag_138:\n        /* \"#utility.yul\":634:639   */\n      dup2\n        /* \"#utility.yul\":631:666   */\n      eq\n        /* \"#utility.yul\":621:684   */\n      tag_139\n      jumpi\n        /* \"#utility.yul\":680:681   */\n      0x00\n        /* \"#utility.yul\":677:678   */\n      dup1\n        /* \"#utility.yul\":670:682   */\n      revert\n        /* \"#utility.yul\":621:684   */\n    tag_139:\n        /* \"#utility.yul\":568:690   */\n      pop\n      jump\t// out\n        /* \"#utility.yul\":696:835   */\n    tag_95:\n        /* \"#utility.yul\":742:747   */\n      0x00\n        /* \"#utility.yul\":780:786   */\n      dup2\n        /* \"#utility.yul\":767:787   */\n      calldataload\n        /* \"#utility.yul\":758:787   */\n      swap1\n      pop\n        /* \"#utility.yul\":796:829   */\n      tag_141\n        /* \"#utility.yul\":823:828   */\n      dup2\n        /* \"#utility.yul\":796:829   */\n      tag_94\n      jump\t// in\n    tag_141:\n        /* \"#utility.yul\":696:835   */\n      swap3\n      swap2\n      pop\n      pop\n      jump\t// out\n        /* \"#utility.yul\":841:918   */\n    tag_96:\n        /* \"#utility.yul\":878:885   */\n      0x00\n        /* \"#utility.yul\":907:912   */\n      dup2\n        /* \"#utility.yul\":896:912   */\n      swap1\n      pop\n        /* \"#utility.yul\":841:918   */\n      swap2\n      swap1\n      pop\n      jump\t// out\n        /* \"#utility.yul\":924:1046   */\n    tag_97:\n        /* \"#utility.yul\":997:1021   */\n      tag_144\n        /* \"#utility.yul\":1015:1020   */\n      dup2\n        /* \"#utility.yul\":997:1021   */\n      tag_96\n      jump\t// in\n    tag_144:\n        /* \"#utility.yul\":990:995   */\n      dup2\n        /* \"#utility.yul\":987:1022   */\n      eq\n        /* \"#utility.yul\":977:1040   */\n      tag_145\n      jumpi\n        /* \"#utility.yul\":1036:1037   */\n      0x00\n        /* \"#utility.yul\":1033:1034   */\n      dup1\n        /* \"#utility.yul\":1026:1038   */\n      revert\n        /* \"#utility.yul\":977:1040   */\n    tag_145:\n        /* \"#utility.yul\":924:1046   */\n      pop\n      jump\t// out\n        /* \"#utility.yul\":1052:1191   */\n    tag_98:\n        /* \"#utility.yul\":1098:1103   */\n      0x00\n        /* \"#utility.yul\":1136:1142   */\n      dup2\n        /* \"#utility.yul\":1123:1143   */\n      calldataload\n        /* \"#utility.yul\":1114:1143   */\n      swap1\n      pop\n        /* \"#utility.yul\":1152:1185   */\n      tag_147\n        /* \"#utility.yul\":1179:1184   */\n      dup2\n        /* \"#utility.yul\":1152:1185   */\n      tag_97\n      jump\t// in\n    tag_147:\n        /* \"#utility.yul\":1052:1191   */\n      swap3\n      swap2\n      pop\n      pop\n      jump\t// out\n        /* \"#utility.yul\":1197:1816   */\n    tag_9:\n        /* \"#utility.yul\":1274:1280   */\n      0x00\n        /* \"#utility.yul\":1282:1288   */\n      dup1\n        /* \"#utility.yul\":1290:1296   */\n      0x00\n        /* \"#utility.yul\":1339:1341   */\n      0x60\n        /* \"#utility.yul\":1327:1336   */\n      dup5\n        /* \"#utility.yul\":1318:1325   */\n      dup7\n        /* \"#utility.yul\":1314:1337   */\n      sub\n        /* \"#utility.yul\":1310:1342   */\n      slt\n        /* \"#utility.yul\":1307:1426   */\n      iszero\n      tag_149\n      jumpi\n        /* \"#utility.yul\":1345:1424   */\n      tag_150\n      tag_90\n      jump\t// in\n    tag_150:\n        /* \"#utility.yul\":1307:1426   */\n    tag_149:\n        /* \"#utility.yul\":1465:1466   */\n      0x00\n        /* \"#utility.yul\":1490:1543   */\n      tag_151\n        /* \"#utility.yul\":1535:1542   */\n      dup7\n        /* \"#utility.yul\":1526:1532   */\n      dup3\n        /* \"#utility.yul\":1515:1524   */\n      dup8\n        /* \"#utility.yul\":1511:1533   */\n      add\n        /* \"#utility.yul\":1490:1543   */\n      tag_95\n      jump\t// in\n    tag_151:\n        /* \"#utility.yul\":1480:1543   */\n      swap4\n      pop\n        /* \"#utility.yul\":1436:1553   */\n      pop\n        /* \"#utility.yul\":1592:1594   */\n      0x20\n        /* \"#utility.yul\":1618:1671   */\n      tag_152\n        /* \"#utility.yul\":1663:1670   */\n      dup7\n        /* \"#utility.yul\":1654:1660   */\n      dup3\n        /* \"#utility.yul\":1643:1652   */\n      dup8\n        /* \"#utility.yul\":1639:1661   */\n      add\n        /* \"#utility.yul\":1618:1671   */\n      tag_98\n      jump\t// in\n    tag_152:\n        /* \"#utility.yul\":1608:1671   */\n      swap3\n      pop\n        /* \"#utility.yul\":1563:1681   */\n      pop\n        /* \"#utility.yul\":1720:1722   */\n      0x40\n        /* \"#utility.yul\":1746:1799   */\n      tag_153\n        /* \"#utility.yul\":1791:1798   */\n      dup7\n        /* \"#utility.yul\":1782:1788   */\n      dup3\n        /* \"#utility.yul\":1771:1780   */\n      dup8\n        /* \"#utility.yul\":1767:1789   */\n      add\n        /* \"#utility.yul\":1746:1799   */\n      tag_98\n      jump\t// in\n    tag_153:\n        /* \"#utility.yul\":1736:1799   */\n      swap2\n      pop\n        /* \"#utility.yul\":1691:1809   */\n      pop\n        /* \"#utility.yul\":1197:1816   */\n      swap3\n      pop\n      swap3\n      pop\n      swap3\n      jump\t// out\n        /* \"#utility.yul\":1822:2296   */\n    tag_13:\n        /* \"#utility.yul\":1890:1896   */\n      0x00\n        /* \"#utility.yul\":1898:1904   */\n      dup1\n        /* \"#utility.yul\":1947:1949   */\n      0x40\n        /* \"#utility.yul\":1935:1944   */\n      dup4\n        /* \"#utility.yul\":1926:1933   */\n      dup6\n        /* \"#utility.yul\":1922:1945   */\n      sub\n        /* \"#utility.yul\":1918:1950   */\n      slt\n        /* \"#utility.yul\":1915:2034   */\n      iszero\n      tag_155\n      jumpi\n        /* \"#utility.yul\":1953:2032   */\n      tag_156\n      tag_90\n      jump\t// in\n    tag_156:\n        /* \"#utility.yul\":1915:2034   */\n    tag_155:\n        /* \"#utility.yul\":2073:2074   */\n      0x00\n        /* \"#utility.yul\":2098:2151   */\n      tag_157\n        /* \"#utility.yul\":2143:2150   */\n      dup6\n        /* \"#utility.yul\":2134:2140   */\n      dup3\n        /* \"#utility.yul\":2123:2132   */\n      dup7\n        /* \"#utility.yul\":2119:2141   */\n      add\n        /* \"#utility.yul\":2098:2151   */\n      tag_95\n      jump\t// in\n    tag_157:\n        /* \"#utility.yul\":2088:2151   */\n      swap3\n      pop\n        /* \"#utility.yul\":2044:2161   */\n      pop\n        /* \"#utility.yul\":2200:2202   */\n      0x20\n        /* \"#utility.yul\":2226:2279   */\n      tag_158\n        /* \"#utility.yul\":2271:2278   */\n      dup6\n        /* \"#utility.yul\":2262:2268   */\n      dup3\n        /* \"#utility.yul\":2251:2260   */\n      dup7\n        /* \"#utility.yul\":2247:2269   */\n      add\n        /* \"#utility.yul\":2226:2279   */\n      tag_98\n      jump\t// in\n    tag_158:\n        /* \"#utility.yul\":2216:2279   */\n      swap2\n      pop\n        /* \"#utility.yul\":2171:2289   */\n      pop\n        /* \"#utility.yul\":1822:2296   */\n      swap3\n      pop\n      swap3\n      swap1\n      pop\n      jump\t// out\n        /* \"#utility.yul\":2302:2440   */\n    tag_99:\n        /* \"#utility.yul\":2393:2399   */\n      0x00\n        /* \"#utility.yul\":2427:2432   */\n      dup2\n        /* \"#utility.yul\":2421:2433   */\n      mload\n        /* \"#utility.yul\":2411:2433   */\n      swap1\n      pop\n        /* \"#utility.yul\":2302:2440   */\n      swap2\n      swap1\n      pop\n      jump\t// out\n        /* \"#utility.yul\":2446:2654   */\n    tag_100:\n        /* \"#utility.yul\":2569:2580   */\n      0x00\n        /* \"#utility.yul\":2603:2609   */\n      dup3\n        /* \"#utility.yul\":2598:2601   */\n      dup3\n        /* \"#utility.yul\":2591:2610   */\n      mstore\n        /* \"#utility.yul\":2643:2647   */\n      0x20\n        /* \"#utility.yul\":2638:2641   */\n      dup3\n        /* \"#utility.yul\":2634:2648   */\n      add\n        /* \"#utility.yul\":2619:2648   */\n      swap1\n      pop\n        /* \"#utility.yul\":2446:2654   */\n      swap3\n      swap2\n      pop\n      pop\n      jump\t// out\n        /* \"#utility.yul\":2660:2816   */\n    tag_101:\n        /* \"#utility.yul\":2751:2755   */\n      0x00\n        /* \"#utility.yul\":2774:2777   */\n      dup2\n        /* \"#utility.yul\":2766:2777   */\n      swap1\n      pop\n        /* \"#utility.yul\":2804:2808   */\n      0x20\n        /* \"#utility.yul\":2799:2802   */\n      dup3\n        /* \"#utility.yul\":2795:2809   */\n      add\n        /* \"#utility.yul\":2787:2809   */\n      swap1\n      pop\n        /* \"#utility.yul\":2660:2816   */\n      swap2\n      swap1\n      pop\n      jump\t// out\n        /* \"#utility.yul\":2822:2930   */\n    tag_102:\n        /* \"#utility.yul\":2899:2923   */\n      tag_163\n        /* \"#utility.yul\":2917:2922   */\n      dup2\n        /* \"#utility.yul\":2899:2923   */\n      tag_93\n      jump\t// in\n    tag_163:\n        /* \"#utility.yul\":2894:2897   */\n      dup3\n        /* \"#utility.yul\":2887:2924   */\n      mstore\n        /* \"#utility.yul\":2822:2930   */\n      pop\n      pop\n      jump\t// out\n        /* \"#utility.yul\":2936:3044   */\n    tag_103:\n        /* \"#utility.yul\":3013:3037   */\n      tag_165\n        /* \"#utility.yul\":3031:3036   */\n      dup2\n        /* \"#utility.yul\":3013:3037   */\n      tag_96\n      jump\t// in\n    tag_165:\n        /* \"#utility.yul\":3008:3011   */\n      dup3\n        /* \"#utility.yul\":3001:3038   */\n      mstore\n        /* \"#utility.yul\":2936:3044   */\n      pop\n      pop\n      jump\t// out\n        /* \"#utility.yul\":3090:4123   */\n    tag_104:\n        /* \"#utility.yul\":3225:3229   */\n      0xa0\n        /* \"#utility.yul\":3220:3223   */\n      dup3\n        /* \"#utility.yul\":3216:3230   */\n      add\n        /* \"#utility.yul\":3314:3318   */\n      0x00\n        /* \"#utility.yul\":3307:3312   */\n      dup3\n        /* \"#utility.yul\":3303:3319   */\n      add\n        /* \"#utility.yul\":3297:3320   */\n      mload\n        /* \"#utility.yul\":3333:3396   */\n      tag_167\n        /* \"#utility.yul\":3390:3394   */\n      0x00\n        /* \"#utility.yul\":3385:3388   */\n      dup6\n        /* \"#utility.yul\":3381:3395   */\n      add\n        /* \"#utility.yul\":3367:3379   */\n      dup3\n        /* \"#utility.yul\":3333:3396   */\n      tag_102\n      jump\t// in\n    tag_167:\n        /* \"#utility.yul\":3240:3406   */\n      pop\n        /* \"#utility.yul\":3489:3493   */\n      0x20\n        /* \"#utility.yul\":3482:3487   */\n      dup3\n        /* \"#utility.yul\":3478:3494   */\n      add\n        /* \"#utility.yul\":3472:3495   */\n      mload\n        /* \"#utility.yul\":3508:3571   */\n      tag_168\n        /* \"#utility.yul\":3565:3569   */\n      0x20\n        /* \"#utility.yul\":3560:3563   */\n      dup6\n        /* \"#utility.yul\":3556:3570   */\n      add\n        /* \"#utility.yul\":3542:3554   */\n      dup3\n        /* \"#utility.yul\":3508:3571   */\n      tag_102\n      jump\t// in\n    tag_168:\n        /* \"#utility.yul\":3416:3581   */\n      pop\n        /* \"#utility.yul\":3670:3674   */\n      0x40\n        /* \"#utility.yul\":3663:3668   */\n      dup3\n        /* \"#utility.yul\":3659:3675   */\n      add\n        /* \"#utility.yul\":3653:3676   */\n      mload\n        /* \"#utility.yul\":3689:3752   */\n      tag_169\n        /* \"#utility.yul\":3746:3750   */\n      0x40\n        /* \"#utility.yul\":3741:3744   */\n      dup6\n        /* \"#utility.yul\":3737:3751   */\n      add\n        /* \"#utility.yul\":3723:3735   */\n      dup3\n        /* \"#utility.yul\":3689:3752   */\n      tag_102\n      jump\t// in\n    tag_169:\n        /* \"#utility.yul\":3591:3762   */\n      pop\n        /* \"#utility.yul\":3847:3851   */\n      0x60\n        /* \"#utility.yul\":3840:3845   */\n      dup3\n        /* \"#utility.yul\":3836:3852   */\n      add\n        /* \"#utility.yul\":3830:3853   */\n      mload\n        /* \"#utility.yul\":3866:3929   */\n      tag_170\n        /* \"#utility.yul\":3923:3927   */\n      0x60\n        /* \"#utility.yul\":3918:3921   */\n      dup6\n        /* \"#utility.yul\":3914:3928   */\n      add\n        /* \"#utility.yul\":3900:3912   */\n      dup3\n        /* \"#utility.yul\":3866:3929   */\n      tag_103\n      jump\t// in\n    tag_170:\n        /* \"#utility.yul\":3772:3939   */\n      pop\n        /* \"#utility.yul\":4024:4028   */\n      0x80\n        /* \"#utility.yul\":4017:4022   */\n      dup3\n        /* \"#utility.yul\":4013:4029   */\n      add\n        /* \"#utility.yul\":4007:4030   */\n      mload\n        /* \"#utility.yul\":4043:4106   */\n      tag_171\n        /* \"#utility.yul\":4100:4104   */\n      0x80\n        /* \"#utility.yul\":4095:4098   */\n      dup6\n        /* \"#utility.yul\":4091:4105   */\n      add\n        /* \"#utility.yul\":4077:4089   */\n      dup3\n        /* \"#utility.yul\":4043:4106   */\n      tag_103\n      jump\t// in\n    tag_171:\n        /* \"#utility.yul\":3949:4116   */\n      pop\n        /* \"#utility.yul\":3194:4123   */\n      pop\n        /* \"#utility.yul\":3090:4123   */\n      pop\n      pop\n      jump\t// out\n        /* \"#utility.yul\":4129:4404   */\n    tag_105:\n        /* \"#utility.yul\":4246:4256   */\n      0x00\n        /* \"#utility.yul\":4267:4361   */\n      tag_173\n        /* \"#utility.yul\":4357:4360   */\n      dup4\n        /* \"#utility.yul\":4349:4355   */\n      dup4\n        /* \"#utility.yul\":4267:4361   */\n      tag_104\n      jump\t// in\n    tag_173:\n        /* \"#utility.yul\":4393:4397   */\n      0xa0\n        /* \"#utility.yul\":4388:4391   */\n      dup4\n        /* \"#utility.yul\":4384:4398   */\n      add\n        /* \"#utility.yul\":4370:4398   */\n      swap1\n      pop\n        /* \"#utility.yul\":4129:4404   */\n      swap3\n      swap2\n      pop\n      pop\n      jump\t// out\n        /* \"#utility.yul\":4410:4547   */\n    tag_106:\n        /* \"#utility.yul\":4504:4508   */\n      0x00\n        /* \"#utility.yul\":4536:4540   */\n      0x20\n        /* \"#utility.yul\":4531:4534   */\n      dup3\n        /* \"#utility.yul\":4527:4541   */\n      add\n        /* \"#utility.yul\":4519:4541   */\n      swap1\n      pop\n        /* \"#utility.yul\":4410:4547   */\n      swap2\n      swap1\n      pop\n      jump\t// out\n        /* \"#utility.yul\":4597:5521   */\n    tag_107:\n        /* \"#utility.yul\":4764:4767   */\n      0x00\n        /* \"#utility.yul\":4793:4871   */\n      tag_176\n        /* \"#utility.yul\":4865:4870   */\n      dup3\n        /* \"#utility.yul\":4793:4871   */\n      tag_99\n      jump\t// in\n    tag_176:\n        /* \"#utility.yul\":4887:4997   */\n      tag_177\n        /* \"#utility.yul\":4990:4996   */\n      dup2\n        /* \"#utility.yul\":4985:4988   */\n      dup6\n        /* \"#utility.yul\":4887:4997   */\n      tag_100\n      jump\t// in\n    tag_177:\n        /* \"#utility.yul\":4880:4997   */\n      swap4\n      pop\n        /* \"#utility.yul\":5021:5101   */\n      tag_178\n        /* \"#utility.yul\":5095:5100   */\n      dup4\n        /* \"#utility.yul\":5021:5101   */\n      tag_101\n      jump\t// in\n    tag_178:\n        /* \"#utility.yul\":5124:5131   */\n      dup1\n        /* \"#utility.yul\":5155:5156   */\n      0x00\n        /* \"#utility.yul\":5140:5496   */\n    tag_179:\n        /* \"#utility.yul\":5165:5171   */\n      dup4\n        /* \"#utility.yul\":5162:5163   */\n      dup2\n        /* \"#utility.yul\":5159:5172   */\n      lt\n        /* \"#utility.yul\":5140:5496   */\n      iszero\n      tag_181\n      jumpi\n        /* \"#utility.yul\":5241:5247   */\n      dup2\n        /* \"#utility.yul\":5235:5248   */\n      mload\n        /* \"#utility.yul\":5268:5379   */\n      tag_182\n        /* \"#utility.yul\":5375:5378   */\n      dup9\n        /* \"#utility.yul\":5360:5373   */\n      dup3\n        /* \"#utility.yul\":5268:5379   */\n      tag_105\n      jump\t// in\n    tag_182:\n        /* \"#utility.yul\":5261:5379   */\n      swap8\n      pop\n        /* \"#utility.yul\":5402:5486   */\n      tag_183\n        /* \"#utility.yul\":5479:5485   */\n      dup4\n        /* \"#utility.yul\":5402:5486   */\n      tag_106\n      jump\t// in\n    tag_183:\n        /* \"#utility.yul\":5392:5486   */\n      swap3\n      pop\n        /* \"#utility.yul\":5200:5496   */\n      pop\n        /* \"#utility.yul\":5187:5188   */\n      0x01\n        /* \"#utility.yul\":5184:5185   */\n      dup2\n        /* \"#utility.yul\":5180:5189   */\n      add\n        /* \"#utility.yul\":5175:5189   */\n      swap1\n      pop\n        /* \"#utility.yul\":5140:5496   */\n      jump(tag_179)\n    tag_181:\n        /* \"#utility.yul\":5144:5158   */\n      pop\n        /* \"#utility.yul\":5512:5515   */\n      dup6\n        /* \"#utility.yul\":5505:5515   */\n      swap4\n      pop\n        /* \"#utility.yul\":4769:5521   */\n      pop\n      pop\n      pop\n        /* \"#utility.yul\":4597:5521   */\n      swap3\n      swap2\n      pop\n      pop\n      jump\t// out\n        /* \"#utility.yul\":5527:5996   */\n    tag_18:\n        /* \"#utility.yul\":5718:5722   */\n      0x00\n        /* \"#utility.yul\":5756:5758   */\n      0x20\n        /* \"#utility.yul\":5745:5754   */\n      dup3\n        /* \"#utility.yul\":5741:5759   */\n      add\n        /* \"#utility.yul\":5733:5759   */\n      swap1\n      pop\n        /* \"#utility.yul\":5805:5814   */\n      dup2\n        /* \"#utility.yul\":5799:5803   */\n      dup2\n        /* \"#utility.yul\":5795:5815   */\n      sub\n        /* \"#utility.yul\":5791:5792   */\n      0x00\n        /* \"#utility.yul\":5780:5789   */\n      dup4\n        /* \"#utility.yul\":5776:5793   */\n      add\n        /* \"#utility.yul\":5769:5816   */\n      mstore\n        /* \"#utility.yul\":5833:5989   */\n      tag_185\n        /* \"#utility.yul\":5984:5988   */\n      dup2\n        /* \"#utility.yul\":5975:5981   */\n      dup5\n        /* \"#utility.yul\":5833:5989   */\n      tag_107\n      jump\t// in\n    tag_185:\n        /* \"#utility.yul\":5825:5989   */\n      swap1\n      pop\n        /* \"#utility.yul\":5527:5996   */\n      swap3\n      swap2\n      pop\n      pop\n      jump\t// out\n        /* \"#utility.yul\":6002:6062   */\n    tag_108:\n        /* \"#utility.yul\":6030:6033   */\n      0x00\n        /* \"#utility.yul\":6051:6056   */\n      dup2\n        /* \"#utility.yul\":6044:6056   */\n      swap1\n      pop\n        /* \"#utility.yul\":6002:6062   */\n      swap2\n      swap1\n      pop\n      jump\t// out\n        /* \"#utility.yul\":6068:6210   */\n    tag_109:\n        /* \"#utility.yul\":6118:6127   */\n      0x00\n        /* \"#utility.yul\":6151:6204   */\n      tag_188\n        /* \"#utility.yul\":6169:6203   */\n      tag_189\n        /* \"#utility.yul\":6178:6202   */\n      tag_190\n        /* \"#utility.yul\":6196:6201   */\n      dup5\n        /* \"#utility.yul\":6178:6202   */\n      tag_92\n      jump\t// in\n    tag_190:\n        /* \"#utility.yul\":6169:6203   */\n      tag_108\n      jump\t// in\n    tag_189:\n        /* \"#utility.yul\":6151:6204   */\n      tag_92\n      jump\t// in\n    tag_188:\n        /* \"#utility.yul\":6138:6204   */\n      swap1\n      pop\n        /* \"#utility.yul\":6068:6210   */\n      swap2\n      swap1\n      pop\n      jump\t// out\n        /* \"#utility.yul\":6216:6342   */\n    tag_110:\n        /* \"#utility.yul\":6266:6275   */\n      0x00\n        /* \"#utility.yul\":6299:6336   */\n      tag_192\n        /* \"#utility.yul\":6330:6335   */\n      dup3\n        /* \"#utility.yul\":6299:6336   */\n      tag_109\n      jump\t// in\n    tag_192:\n        /* \"#utility.yul\":6286:6336   */\n      swap1\n      pop\n        /* \"#utility.yul\":6216:6342   */\n      swap2\n      swap1\n      pop\n      jump\t// out\n        /* \"#utility.yul\":6348:6487   */\n    tag_111:\n        /* \"#utility.yul\":6411:6420   */\n      0x00\n        /* \"#utility.yul\":6444:6481   */\n      tag_194\n        /* \"#utility.yul\":6475:6480   */\n      dup3\n        /* \"#utility.yul\":6444:6481   */\n      tag_110\n      jump\t// in\n    tag_194:\n        /* \"#utility.yul\":6431:6481   */\n      swap1\n      pop\n        /* \"#utility.yul\":6348:6487   */\n      swap2\n      swap1\n      pop\n      jump\t// out\n        /* \"#utility.yul\":6493:6650   */\n    tag_112:\n        /* \"#utility.yul\":6593:6643   */\n      tag_196\n        /* \"#utility.yul\":6637:6642   */\n      dup2\n        /* \"#utility.yul\":6593:6643   */\n      tag_111\n      jump\t// in\n    tag_196:\n        /* \"#utility.yul\":6588:6591   */\n      dup3\n        /* \"#utility.yul\":6581:6644   */\n      mstore\n        /* \"#utility.yul\":6493:6650   */\n      pop\n      pop\n      jump\t// out\n        /* \"#utility.yul\":6656:6904   */\n    tag_22:\n        /* \"#utility.yul\":6762:6766   */\n      0x00\n        /* \"#utility.yul\":6800:6802   */\n      0x20\n        /* \"#utility.yul\":6789:6798   */\n      dup3\n        /* \"#utility.yul\":6785:6803   */\n      add\n        /* \"#utility.yul\":6777:6803   */\n      swap1\n      pop\n        /* \"#utility.yul\":6813:6897   */\n      tag_198\n        /* \"#utility.yul\":6894:6895   */\n      0x00\n        /* \"#utility.yul\":6883:6892   */\n      dup4\n        /* \"#utility.yul\":6879:6896   */\n      add\n        /* \"#utility.yul\":6870:6876   */\n      dup5\n        /* \"#utility.yul\":6813:6897   */\n      tag_112\n      jump\t// in\n    tag_198:\n        /* \"#utility.yul\":6656:6904   */\n      swap3\n      swap2\n      pop\n      pop\n      jump\t// out\n        /* \"#utility.yul\":6910:7028   */\n    tag_113:\n        /* \"#utility.yul\":6997:7021   */\n      tag_200\n        /* \"#utility.yul\":7015:7020   */\n      dup2\n        /* \"#utility.yul\":6997:7021   */\n      tag_96\n      jump\t// in\n    tag_200:\n        /* \"#utility.yul\":6992:6995   */\n      dup3\n        /* \"#utility.yul\":6985:7022   */\n      mstore\n        /* \"#utility.yul\":6910:7028   */\n      pop\n      pop\n      jump\t// out\n        /* \"#utility.yul\":7034:7256   */\n    tag_25:\n        /* \"#utility.yul\":7127:7131   */\n      0x00\n        /* \"#utility.yul\":7165:7167   */\n      0x20\n        /* \"#utility.yul\":7154:7163   */\n      dup3\n        /* \"#utility.yul\":7150:7168   */\n      add\n        /* \"#utility.yul\":7142:7168   */\n      swap1\n      pop\n        /* \"#utility.yul\":7178:7249   */\n      tag_202\n        /* \"#utility.yul\":7246:7247   */\n      0x00\n        /* \"#utility.yul\":7235:7244   */\n      dup4\n        /* \"#utility.yul\":7231:7248   */\n      add\n        /* \"#utility.yul\":7222:7228   */\n      dup5\n        /* \"#utility.yul\":7178:7249   */\n      tag_113\n      jump\t// in\n    tag_202:\n        /* \"#utility.yul\":7034:7256   */\n      swap3\n      swap2\n      pop\n      pop\n      jump\t// out\n        /* \"#utility.yul\":7262:7405   */\n    tag_114:\n        /* \"#utility.yul\":7319:7324   */\n      0x00\n        /* \"#utility.yul\":7350:7356   */\n      dup2\n        /* \"#utility.yul\":7344:7357   */\n      mload\n        /* \"#utility.yul\":7335:7357   */\n      swap1\n      pop\n        /* \"#utility.yul\":7366:7399   */\n      tag_204\n        /* \"#utility.yul\":7393:7398   */\n      dup2\n        /* \"#utility.yul\":7366:7399   */\n      tag_94\n      jump\t// in\n    tag_204:\n        /* \"#utility.yul\":7262:7405   */\n      swap3\n      swap2\n      pop\n      pop\n      jump\t// out\n        /* \"#utility.yul\":7411:7762   */\n    tag_29:\n        /* \"#utility.yul\":7481:7487   */\n      0x00\n        /* \"#utility.yul\":7530:7532   */\n      0x20\n        /* \"#utility.yul\":7518:7527   */\n      dup3\n        /* \"#utility.yul\":7509:7516   */\n      dup5\n        /* \"#utility.yul\":7505:7528   */\n      sub\n        /* \"#utility.yul\":7501:7533   */\n      slt\n        /* \"#utility.yul\":7498:7617   */\n      iszero\n      tag_206\n      jumpi\n        /* \"#utility.yul\":7536:7615   */\n      tag_207\n      tag_90\n      jump\t// in\n    tag_207:\n        /* \"#utility.yul\":7498:7617   */\n    tag_206:\n        /* \"#utility.yul\":7656:7657   */\n      0x00\n        /* \"#utility.yul\":7681:7745   */\n      tag_208\n        /* \"#utility.yul\":7737:7744   */\n      dup5\n        /* \"#utility.yul\":7728:7734   */\n      dup3\n        /* \"#utility.yul\":7717:7726   */\n      dup6\n        /* \"#utility.yul\":7713:7735   */\n      add\n        /* \"#utility.yul\":7681:7745   */\n      tag_114\n      jump\t// in\n    tag_208:\n        /* \"#utility.yul\":7671:7745   */\n      swap2\n      pop\n        /* \"#utility.yul\":7627:7755   */\n      pop\n        /* \"#utility.yul\":7411:7762   */\n      swap3\n      swap2\n      pop\n      pop\n      jump\t// out\n        /* \"#utility.yul\":7768:7937   */\n    tag_115:\n        /* \"#utility.yul\":7852:7863   */\n      0x00\n        /* \"#utility.yul\":7886:7892   */\n      dup3\n        /* \"#utility.yul\":7881:7884   */\n      dup3\n        /* \"#utility.yul\":7874:7893   */\n      mstore\n        /* \"#utility.yul\":7926:7930   */\n      0x20\n        /* \"#utility.yul\":7921:7924   */\n      dup3\n        /* \"#utility.yul\":7917:7931   */\n      add\n        /* \"#utility.yul\":7902:7931   */\n      swap1\n      pop\n        /* \"#utility.yul\":7768:7937   */\n      swap3\n      swap2\n      pop\n      pop\n      jump\t// out\n        /* \"#utility.yul\":7943:8106   */\n    tag_116:\n        /* \"#utility.yul\":8083:8098   */\n      0x72657175697265206f776e657200000000000000000000000000000000000000\n        /* \"#utility.yul\":8079:8080   */\n      0x00\n        /* \"#utility.yul\":8071:8077   */\n      dup3\n        /* \"#utility.yul\":8067:8081   */\n      add\n        /* \"#utility.yul\":8060:8099   */\n      mstore\n        /* \"#utility.yul\":7943:8106   */\n      pop\n      jump\t// out\n        /* \"#utility.yul\":8112:8478   */\n    tag_117:\n        /* \"#utility.yul\":8254:8257   */\n      0x00\n        /* \"#utility.yul\":8275:8342   */\n      tag_212\n        /* \"#utility.yul\":8339:8341   */\n      0x0d\n        /* \"#utility.yul\":8334:8337   */\n      dup4\n        /* \"#utility.yul\":8275:8342   */\n      tag_115\n      jump\t// in\n    tag_212:\n        /* \"#utility.yul\":8268:8342   */\n      swap2\n      pop\n        /* \"#utility.yul\":8351:8444   */\n      tag_213\n        /* \"#utility.yul\":8440:8443   */\n      dup3\n        /* \"#utility.yul\":8351:8444   */\n      tag_116\n      jump\t// in\n    tag_213:\n        /* \"#utility.yul\":8469:8471   */\n      0x20\n        /* \"#utility.yul\":8464:8467   */\n      dup3\n        /* \"#utility.yul\":8460:8472   */\n      add\n        /* \"#utility.yul\":8453:8472   */\n      swap1\n      pop\n        /* \"#utility.yul\":8112:8478   */\n      swap2\n      swap1\n      pop\n      jump\t// out\n        /* \"#utility.yul\":8484:8903   */\n    tag_32:\n        /* \"#utility.yul\":8650:8654   */\n      0x00\n        /* \"#utility.yul\":8688:8690   */\n      0x20\n        /* \"#utility.yul\":8677:8686   */\n      dup3\n        /* \"#utility.yul\":8673:8691   */\n      add\n        /* \"#utility.yul\":8665:8691   */\n      swap1\n      pop\n        /* \"#utility.yul\":8737:8746   */\n      dup2\n        /* \"#utility.yul\":8731:8735   */\n      dup2\n        /* \"#utility.yul\":8727:8747   */\n      sub\n        /* \"#utility.yul\":8723:8724   */\n      0x00\n        /* \"#utility.yul\":8712:8721   */\n      dup4\n        /* \"#utility.yul\":8708:8725   */\n      add\n        /* \"#utility.yul\":8701:8748   */\n      mstore\n        /* \"#utility.yul\":8765:8896   */\n      tag_215\n        /* \"#utility.yul\":8891:8895   */\n      dup2\n        /* \"#utility.yul\":8765:8896   */\n      tag_117\n      jump\t// in\n    tag_215:\n        /* \"#utility.yul\":8757:8896   */\n      swap1\n      pop\n        /* \"#utility.yul\":8484:8903   */\n      swap2\n      swap1\n      pop\n      jump\t// out\n        /* \"#utility.yul\":8909:9027   */\n    tag_118:\n        /* \"#utility.yul\":8996:9020   */\n      tag_217\n        /* \"#utility.yul\":9014:9019   */\n      dup2\n        /* \"#utility.yul\":8996:9020   */\n      tag_93\n      jump\t// in\n    tag_217:\n        /* \"#utility.yul\":8991:8994   */\n      dup3\n        /* \"#utility.yul\":8984:9021   */\n      mstore\n        /* \"#utility.yul\":8909:9027   */\n      pop\n      pop\n      jump\t// out\n        /* \"#utility.yul\":9033:9365   */\n    tag_34:\n        /* \"#utility.yul\":9154:9158   */\n      0x00\n        /* \"#utility.yul\":9192:9194   */\n      0x40\n        /* \"#utility.yul\":9181:9190   */\n      dup3\n        /* \"#utility.yul\":9177:9195   */\n      add\n        /* \"#utility.yul\":9169:9195   */\n      swap1\n      pop\n        /* \"#utility.yul\":9205:9276   */\n      tag_219\n        /* \"#utility.yul\":9273:9274   */\n      0x00\n        /* \"#utility.yul\":9262:9271   */\n      dup4\n        /* \"#utility.yul\":9258:9275   */\n      add\n        /* \"#utility.yul\":9249:9255   */\n      dup6\n        /* \"#utility.yul\":9205:9276   */\n      tag_118\n      jump\t// in\n    tag_219:\n        /* \"#utility.yul\":9286:9358   */\n      tag_220\n        /* \"#utility.yul\":9354:9356   */\n      0x20\n        /* \"#utility.yul\":9343:9352   */\n      dup4\n        /* \"#utility.yul\":9339:9357   */\n      add\n        /* \"#utility.yul\":9330:9336   */\n      dup5\n        /* \"#utility.yul\":9286:9358   */\n      tag_118\n      jump\t// in\n    tag_220:\n        /* \"#utility.yul\":9033:9365   */\n      swap4\n      swap3\n      pop\n      pop\n      pop\n      jump\t// out\n        /* \"#utility.yul\":9371:9461   */\n    tag_119:\n        /* \"#utility.yul\":9405:9412   */\n      0x00\n        /* \"#utility.yul\":9448:9453   */\n      dup2\n        /* \"#utility.yul\":9441:9454   */\n      iszero\n        /* \"#utility.yul\":9434:9455   */\n      iszero\n        /* \"#utility.yul\":9423:9455   */\n      swap1\n      pop\n        /* \"#utility.yul\":9371:9461   */\n      swap2\n      swap1\n      pop\n      jump\t// out\n        /* \"#utility.yul\":9467:9583   */\n    tag_120:\n        /* \"#utility.yul\":9537:9558   */\n      tag_223\n        /* \"#utility.yul\":9552:9557   */\n      dup2\n        /* \"#utility.yul\":9537:9558   */\n      tag_119\n      jump\t// in\n    tag_223:\n        /* \"#utility.yul\":9530:9535   */\n      dup2\n        /* \"#utility.yul\":9527:9559   */\n      eq\n        /* \"#utility.yul\":9517:9577   */\n      tag_224\n      jumpi\n        /* \"#utility.yul\":9573:9574   */\n      0x00\n        /* \"#utility.yul\":9570:9571   */\n      dup1\n        /* \"#utility.yul\":9563:9575   */\n      revert\n        /* \"#utility.yul\":9517:9577   */\n    tag_224:\n        /* \"#utility.yul\":9467:9583   */\n      pop\n      jump\t// out\n        /* \"#utility.yul\":9589:9726   */\n    tag_121:\n        /* \"#utility.yul\":9643:9648   */\n      0x00\n        /* \"#utility.yul\":9674:9680   */\n      dup2\n        /* \"#utility.yul\":9668:9681   */\n      mload\n        /* \"#utility.yul\":9659:9681   */\n      swap1\n      pop\n        /* \"#utility.yul\":9690:9720   */\n      tag_226\n        /* \"#utility.yul\":9714:9719   */\n      dup2\n        /* \"#utility.yul\":9690:9720   */\n      tag_120\n      jump\t// in\n    tag_226:\n        /* \"#utility.yul\":9589:9726   */\n      swap3\n      swap2\n      pop\n      pop\n      jump\t// out\n        /* \"#utility.yul\":9732:10077   */\n    tag_38:\n        /* \"#utility.yul\":9799:9805   */\n      0x00\n        /* \"#utility.yul\":9848:9850   */\n      0x20\n        /* \"#utility.yul\":9836:9845   */\n      dup3\n        /* \"#utility.yul\":9827:9834   */\n      dup5\n        /* \"#utility.yul\":9823:9846   */\n      sub\n        /* \"#utility.yul\":9819:9851   */\n      slt\n        /* \"#utility.yul\":9816:9935   */\n      iszero\n      tag_228\n      jumpi\n        /* \"#utility.yul\":9854:9933   */\n      tag_229\n      tag_90\n      jump\t// in\n    tag_229:\n        /* \"#utility.yul\":9816:9935   */\n    tag_228:\n        /* \"#utility.yul\":9974:9975   */\n      0x00\n        /* \"#utility.yul\":9999:10060   */\n      tag_230\n        /* \"#utility.yul\":10052:10059   */\n      dup5\n        /* \"#utility.yul\":10043:10049   */\n      dup3\n        /* \"#utility.yul\":10032:10041   */\n      dup6\n        /* \"#utility.yul\":10028:10050   */\n      add\n        /* \"#utility.yul\":9999:10060   */\n      tag_121\n      jump\t// in\n    tag_230:\n        /* \"#utility.yul\":9989:10060   */\n      swap2\n      pop\n        /* \"#utility.yul\":9945:10070   */\n      pop\n        /* \"#utility.yul\":9732:10077   */\n      swap3\n      swap2\n      pop\n      pop\n      jump\t// out\n        /* \"#utility.yul\":10083:10245   */\n    tag_122:\n        /* \"#utility.yul\":10223:10237   */\n      0x6e6f7420617070726f7665640000000000000000000000000000000000000000\n        /* \"#utility.yul\":10219:10220   */\n      0x00\n        /* \"#utility.yul\":10211:10217   */\n      dup3\n        /* \"#utility.yul\":10207:10221   */\n      add\n        /* \"#utility.yul\":10200:10238   */\n      mstore\n        /* \"#utility.yul\":10083:10245   */\n      pop\n      jump\t// out\n        /* \"#utility.yul\":10251:10617   */\n    tag_123:\n        /* \"#utility.yul\":10393:10396   */\n      0x00\n        /* \"#utility.yul\":10414:10481   */\n      tag_233\n        /* \"#utility.yul\":10478:10480   */\n      0x0c\n        /* \"#utility.yul\":10473:10476   */\n      dup4\n        /* \"#utility.yul\":10414:10481   */\n      tag_115\n      jump\t// in\n    tag_233:\n        /* \"#utility.yul\":10407:10481   */\n      swap2\n      pop\n        /* \"#utility.yul\":10490:10583   */\n      tag_234\n        /* \"#utility.yul\":10579:10582   */\n      dup3\n        /* \"#utility.yul\":10490:10583   */\n      tag_122\n      jump\t// in\n    tag_234:\n        /* \"#utility.yul\":10608:10610   */\n      0x20\n        /* \"#utility.yul\":10603:10606   */\n      dup3\n        /* \"#utility.yul\":10599:10611   */\n      add\n        /* \"#utility.yul\":10592:10611   */\n      swap1\n      pop\n        /* \"#utility.yul\":10251:10617   */\n      swap2\n      swap1\n      pop\n      jump\t// out\n        /* \"#utility.yul\":10623:11042   */\n    tag_46:\n        /* \"#utility.yul\":10789:10793   */\n      0x00\n        /* \"#utility.yul\":10827:10829   */\n      0x20\n        /* \"#utility.yul\":10816:10825   */\n      dup3\n        /* \"#utility.yul\":10812:10830   */\n      add\n        /* \"#utility.yul\":10804:10830   */\n      swap1\n      pop\n        /* \"#utility.yul\":10876:10885   */\n      dup2\n        /* \"#utility.yul\":10870:10874   */\n      dup2\n        /* \"#utility.yul\":10866:10886   */\n      sub\n        /* \"#utility.yul\":10862:10863   */\n      0x00\n        /* \"#utility.yul\":10851:10860   */\n      dup4\n        /* \"#utility.yul\":10847:10864   */\n      add\n        /* \"#utility.yul\":10840:10887   */\n      mstore\n        /* \"#utility.yul\":10904:11035   */\n      tag_236\n        /* \"#utility.yul\":11030:11034   */\n      dup2\n        /* \"#utility.yul\":10904:11035   */\n      tag_123\n      jump\t// in\n    tag_236:\n        /* \"#utility.yul\":10896:11035   */\n      swap1\n      pop\n        /* \"#utility.yul\":10623:11042   */\n      swap2\n      swap1\n      pop\n      jump\t// out\n        /* \"#utility.yul\":11048:11225   */\n    tag_124:\n        /* \"#utility.yul\":11188:11217   */\n      0x7265717569726564206e667420646f6573206e6f742065786973740000000000\n        /* \"#utility.yul\":11184:11185   */\n      0x00\n        /* \"#utility.yul\":11176:11182   */\n      dup3\n        /* \"#utility.yul\":11172:11186   */\n      add\n        /* \"#utility.yul\":11165:11218   */\n      mstore\n        /* \"#utility.yul\":11048:11225   */\n      pop\n      jump\t// out\n        /* \"#utility.yul\":11231:11597   */\n    tag_125:\n        /* \"#utility.yul\":11373:11376   */\n      0x00\n        /* \"#utility.yul\":11394:11461   */\n      tag_239\n        /* \"#utility.yul\":11458:11460   */\n      0x1b\n        /* \"#utility.yul\":11453:11456   */\n      dup4\n        /* \"#utility.yul\":11394:11461   */\n      tag_115\n      jump\t// in\n    tag_239:\n        /* \"#utility.yul\":11387:11461   */\n      swap2\n      pop\n        /* \"#utility.yul\":11470:11563   */\n      tag_240\n        /* \"#utility.yul\":11559:11562   */\n      dup3\n        /* \"#utility.yul\":11470:11563   */\n      tag_124\n      jump\t// in\n    tag_240:\n        /* \"#utility.yul\":11588:11590   */\n      0x20\n        /* \"#utility.yul\":11583:11586   */\n      dup3\n        /* \"#utility.yul\":11579:11591   */\n      add\n        /* \"#utility.yul\":11572:11591   */\n      swap1\n      pop\n        /* \"#utility.yul\":11231:11597   */\n      swap2\n      swap1\n      pop\n      jump\t// out\n        /* \"#utility.yul\":11603:12022   */\n    tag_52:\n        /* \"#utility.yul\":11769:11773   */\n      0x00\n        /* \"#utility.yul\":11807:11809   */\n      0x20\n        /* \"#utility.yul\":11796:11805   */\n      dup3\n        /* \"#utility.yul\":11792:11810   */\n      add\n        /* \"#utility.yul\":11784:11810   */\n      swap1\n      pop\n        /* \"#utility.yul\":11856:11865   */\n      dup2\n        /* \"#utility.yul\":11850:11854   */\n      dup2\n        /* \"#utility.yul\":11846:11866   */\n      sub\n        /* \"#utility.yul\":11842:11843   */\n      0x00\n        /* \"#utility.yul\":11831:11840   */\n      dup4\n        /* \"#utility.yul\":11827:11844   */\n      add\n        /* \"#utility.yul\":11820:11867   */\n      mstore\n        /* \"#utility.yul\":11884:12015   */\n      tag_242\n        /* \"#utility.yul\":12010:12014   */\n      dup2\n        /* \"#utility.yul\":11884:12015   */\n      tag_125\n      jump\t// in\n    tag_242:\n        /* \"#utility.yul\":11876:12015   */\n      swap1\n      pop\n        /* \"#utility.yul\":11603:12022   */\n      swap2\n      swap1\n      pop\n      jump\t// out\n        /* \"#utility.yul\":12028:12190   */\n    tag_126:\n        /* \"#utility.yul\":12168:12182   */\n      0x6e667420736f6c64206f75740000000000000000000000000000000000000000\n        /* \"#utility.yul\":12164:12165   */\n      0x00\n        /* \"#utility.yul\":12156:12162   */\n      dup3\n        /* \"#utility.yul\":12152:12166   */\n      add\n        /* \"#utility.yul\":12145:12183   */\n      mstore\n        /* \"#utility.yul\":12028:12190   */\n      pop\n      jump\t// out\n        /* \"#utility.yul\":12196:12562   */\n    tag_127:\n        /* \"#utility.yul\":12338:12341   */\n      0x00\n        /* \"#utility.yul\":12359:12426   */\n      tag_245\n        /* \"#utility.yul\":12423:12425   */\n      0x0c\n        /* \"#utility.yul\":12418:12421   */\n      dup4\n        /* \"#utility.yul\":12359:12426   */\n      tag_115\n      jump\t// in\n    tag_245:\n        /* \"#utility.yul\":12352:12426   */\n      swap2\n      pop\n        /* \"#utility.yul\":12435:12528   */\n      tag_246\n        /* \"#utility.yul\":12524:12527   */\n      dup3\n        /* \"#utility.yul\":12435:12528   */\n      tag_126\n      jump\t// in\n    tag_246:\n        /* \"#utility.yul\":12553:12555   */\n      0x20\n        /* \"#utility.yul\":12548:12551   */\n      dup3\n        /* \"#utility.yul\":12544:12556   */\n      add\n        /* \"#utility.yul\":12537:12556   */\n      swap1\n      pop\n        /* \"#utility.yul\":12196:12562   */\n      swap2\n      swap1\n      pop\n      jump\t// out\n        /* \"#utility.yul\":12568:12987   */\n    tag_55:\n        /* \"#utility.yul\":12734:12738   */\n      0x00\n        /* \"#utility.yul\":12772:12774   */\n      0x20\n        /* \"#utility.yul\":12761:12770   */\n      dup3\n        /* \"#utility.yul\":12757:12775   */\n      add\n        /* \"#utility.yul\":12749:12775   */\n      swap1\n      pop\n        /* \"#utility.yul\":12821:12830   */\n      dup2\n        /* \"#utility.yul\":12815:12819   */\n      dup2\n        /* \"#utility.yul\":12811:12831   */\n      sub\n        /* \"#utility.yul\":12807:12808   */\n      0x00\n        /* \"#utility.yul\":12796:12805   */\n      dup4\n        /* \"#utility.yul\":12792:12809   */\n      add\n        /* \"#utility.yul\":12785:12832   */\n      mstore\n        /* \"#utility.yul\":12849:12980   */\n      tag_248\n        /* \"#utility.yul\":12975:12979   */\n      dup2\n        /* \"#utility.yul\":12849:12980   */\n      tag_127\n      jump\t// in\n    tag_248:\n        /* \"#utility.yul\":12841:12980   */\n      swap1\n      pop\n        /* \"#utility.yul\":12568:12987   */\n      swap2\n      swap1\n      pop\n      jump\t// out\n        /* \"#utility.yul\":12993:13435   */\n    tag_57:\n        /* \"#utility.yul\":13142:13146   */\n      0x00\n        /* \"#utility.yul\":13180:13182   */\n      0x60\n        /* \"#utility.yul\":13169:13178   */\n      dup3\n        /* \"#utility.yul\":13165:13183   */\n      add\n        /* \"#utility.yul\":13157:13183   */\n      swap1\n      pop\n        /* \"#utility.yul\":13193:13264   */\n      tag_250\n        /* \"#utility.yul\":13261:13262   */\n      0x00\n        /* \"#utility.yul\":13250:13259   */\n      dup4\n        /* \"#utility.yul\":13246:13263   */\n      add\n        /* \"#utility.yul\":13237:13243   */\n      dup7\n        /* \"#utility.yul\":13193:13264   */\n      tag_118\n      jump\t// in\n    tag_250:\n        /* \"#utility.yul\":13274:13346   */\n      tag_251\n        /* \"#utility.yul\":13342:13344   */\n      0x20\n        /* \"#utility.yul\":13331:13340   */\n      dup4\n        /* \"#utility.yul\":13327:13345   */\n      add\n        /* \"#utility.yul\":13318:13324   */\n      dup6\n        /* \"#utility.yul\":13274:13346   */\n      tag_118\n      jump\t// in\n    tag_251:\n        /* \"#utility.yul\":13356:13428   */\n      tag_252\n        /* \"#utility.yul\":13424:13426   */\n      0x40\n        /* \"#utility.yul\":13413:13422   */\n      dup4\n        /* \"#utility.yul\":13409:13427   */\n      add\n        /* \"#utility.yul\":13400:13406   */\n      dup5\n        /* \"#utility.yul\":13356:13428   */\n      tag_113\n      jump\t// in\n    tag_252:\n        /* \"#utility.yul\":12993:13435   */\n      swap5\n      swap4\n      pop\n      pop\n      pop\n      pop\n      jump\t// out\n        /* \"#utility.yul\":13441:13604   */\n    tag_128:\n        /* \"#utility.yul\":13581:13596   */\n      0x6661696c656420746f2070617900000000000000000000000000000000000000\n        /* \"#utility.yul\":13577:13578   */\n      0x00\n        /* \"#utility.yul\":13569:13575   */\n      dup3\n        /* \"#utility.yul\":13565:13579   */\n      add\n        /* \"#utility.yul\":13558:13597   */\n      mstore\n        /* \"#utility.yul\":13441:13604   */\n      pop\n      jump\t// out\n        /* \"#utility.yul\":13610:13976   */\n    tag_129:\n        /* \"#utility.yul\":13752:13755   */\n      0x00\n        /* \"#utility.yul\":13773:13840   */\n      tag_255\n        /* \"#utility.yul\":13837:13839   */\n      0x0d\n        /* \"#utility.yul\":13832:13835   */\n      dup4\n        /* \"#utility.yul\":13773:13840   */\n      tag_115\n      jump\t// in\n    tag_255:\n        /* \"#utility.yul\":13766:13840   */\n      swap2\n      pop\n        /* \"#utility.yul\":13849:13942   */\n      tag_256\n        /* \"#utility.yul\":13938:13941   */\n      dup3\n        /* \"#utility.yul\":13849:13942   */\n      tag_128\n      jump\t// in\n    tag_256:\n        /* \"#utility.yul\":13967:13969   */\n      0x20\n        /* \"#utility.yul\":13962:13965   */\n      dup3\n        /* \"#utility.yul\":13958:13970   */\n      add\n        /* \"#utility.yul\":13951:13970   */\n      swap1\n      pop\n        /* \"#utility.yul\":13610:13976   */\n      swap2\n      swap1\n      pop\n      jump\t// out\n        /* \"#utility.yul\":13982:14401   */\n    tag_63:\n        /* \"#utility.yul\":14148:14152   */\n      0x00\n        /* \"#utility.yul\":14186:14188   */\n      0x20\n        /* \"#utility.yul\":14175:14184   */\n      dup3\n        /* \"#utility.yul\":14171:14189   */\n      add\n        /* \"#utility.yul\":14163:14189   */\n      swap1\n      pop\n        /* \"#utility.yul\":14235:14244   */\n      dup2\n        /* \"#utility.yul\":14229:14233   */\n      dup2\n        /* \"#utility.yul\":14225:14245   */\n      sub\n        /* \"#utility.yul\":14221:14222   */\n      0x00\n        /* \"#utility.yul\":14210:14219   */\n      dup4\n        /* \"#utility.yul\":14206:14223   */\n      add\n        /* \"#utility.yul\":14199:14246   */\n      mstore\n        /* \"#utility.yul\":14263:14394   */\n      tag_258\n        /* \"#utility.yul\":14389:14393   */\n      dup2\n        /* \"#utility.yul\":14263:14394   */\n      tag_129\n      jump\t// in\n    tag_258:\n        /* \"#utility.yul\":14255:14394   */\n      swap1\n      pop\n        /* \"#utility.yul\":13982:14401   */\n      swap2\n      swap1\n      pop\n      jump\t// out\n        /* \"#utility.yul\":14407:14739   */\n    tag_69:\n        /* \"#utility.yul\":14528:14532   */\n      0x00\n        /* \"#utility.yul\":14566:14568   */\n      0x40\n        /* \"#utility.yul\":14555:14564   */\n      dup3\n        /* \"#utility.yul\":14551:14569   */\n      add\n        /* \"#utility.yul\":14543:14569   */\n      swap1\n      pop\n        /* \"#utility.yul\":14579:14650   */\n      tag_260\n        /* \"#utility.yul\":14647:14648   */\n      0x00\n        /* \"#utility.yul\":14636:14645   */\n      dup4\n        /* \"#utility.yul\":14632:14649   */\n      add\n        /* \"#utility.yul\":14623:14629   */\n      dup6\n        /* \"#utility.yul\":14579:14650   */\n      tag_113\n      jump\t// in\n    tag_260:\n        /* \"#utility.yul\":14660:14732   */\n      tag_261\n        /* \"#utility.yul\":14728:14730   */\n      0x20\n        /* \"#utility.yul\":14717:14726   */\n      dup4\n        /* \"#utility.yul\":14713:14731   */\n      add\n        /* \"#utility.yul\":14704:14710   */\n      dup5\n        /* \"#utility.yul\":14660:14732   */\n      tag_113\n      jump\t// in\n    tag_261:\n        /* \"#utility.yul\":14407:14739   */\n      swap4\n      swap3\n      pop\n      pop\n      pop\n      jump\t// out\n        /* \"#utility.yul\":14745:14925   */\n    tag_73:\n        /* \"#utility.yul\":14793:14870   */\n      0x4e487b7100000000000000000000000000000000000000000000000000000000\n        /* \"#utility.yul\":14790:14791   */\n      0x00\n        /* \"#utility.yul\":14783:14871   */\n      mstore\n        /* \"#utility.yul\":14890:14894   */\n      0x41\n        /* \"#utility.yul\":14887:14888   */\n      0x04\n        /* \"#utility.yul\":14880:14895   */\n      mstore\n        /* \"#utility.yul\":14914:14918   */\n      0x24\n        /* \"#utility.yul\":14911:14912   */\n      0x00\n        /* \"#utility.yul\":14904:14919   */\n      revert\n        /* \"#utility.yul\":14931:15111   */\n    tag_85:\n        /* \"#utility.yul\":14979:15056   */\n      0x4e487b7100000000000000000000000000000000000000000000000000000000\n        /* \"#utility.yul\":14976:14977   */\n      0x00\n        /* \"#utility.yul\":14969:15057   */\n      mstore\n        /* \"#utility.yul\":15076:15080   */\n      0x32\n        /* \"#utility.yul\":15073:15074   */\n      0x04\n        /* \"#utility.yul\":15066:15081   */\n      mstore\n        /* \"#utility.yul\":15100:15104   */\n      0x24\n        /* \"#utility.yul\":15097:15098   */\n      0x00\n        /* \"#utility.yul\":15090:15105   */\n      revert\n\n    auxdata: 0xa2646970667358221220e615e51048d00334855c5a80d71243b8ee9851148dcac267134283d1e7943ca564736f6c634300081a0033\n}\n",
				"bytecode": {
					"linkReferences": {},
					"object": "60a060405234801561000f575f80fd5b5060405161151e38038061151e833981810160405281019061003191906100c9565b8073ffffffffffffffffffffffffffffffffffffffff1660808173ffffffffffffffffffffffffffffffffffffffff1681525050506100f4565b5f80fd5b5f73ffffffffffffffffffffffffffffffffffffffff82169050919050565b5f6100988261006f565b9050919050565b6100a88161008e565b81146100b2575f80fd5b50565b5f815190506100c38161009f565b92915050565b5f602082840312156100de576100dd61006b565b5b5f6100eb848285016100b5565b91505092915050565b60805161140b6101135f395f818161072d0152610c6f015261140b5ff3fe608060405234801561000f575f80fd5b506004361061004a575f3560e01c80632ea1a03f1461004e578063a82ba76f1461006a578063ae73ccec14610086578063e5a6b10f146100a4575b5f80fd5b61006860048036038101906100639190610dbc565b6100c2565b005b610084600480360381019061007f9190610e0c565b6105bb565b005b61008e6109cc565b60405161009b9190610f76565b60405180910390f35b6100ac610c6d565b6040516100b99190610ff1565b60405180910390f35b5f8390503373ffffffffffffffffffffffffffffffffffffffff168173ffffffffffffffffffffffffffffffffffffffff16636352211e856040518263ffffffff1660e01b81526004016101169190611019565b602060405180830381865afa158015610131573d5f803e3d5ffd5b505050506040513d601f19601f820116820180604052508101906101559190611046565b73ffffffffffffffffffffffffffffffffffffffff16146101ab576040517f08c379a00000000000000000000000000000000000000000000000000000000081526004016101a2906110cb565b60405180910390fd5b8073ffffffffffffffffffffffffffffffffffffffff1663e985e9c533306040518363ffffffff1660e01b81526004016101e69291906110f8565b602060405180830381865afa158015610201573d5f803e3d5ffd5b505050506040513d601f19601f820116820180604052508101906102259190611154565b806102d257503073ffffffffffffffffffffffffffffffffffffffff168173ffffffffffffffffffffffffffffffffffffffff1663081812fc856040518263ffffffff1660e01b815260040161027b9190611019565b602060405180830381865afa158015610296573d5f803e3d5ffd5b505050506040513d601f19601f820116820180604052508101906102ba9190611046565b73ffffffffffffffffffffffffffffffffffffffff16145b610311576040517f08c379a0000000000000000000000000000000000000000000000000000000008152600401610308906111c9565b60405180910390fd5b6040518060a001604052803373ffffffffffffffffffffffffffffffffffffffff1681526020015f73ffffffffffffffffffffffffffffffffffffffff1681526020018573ffffffffffffffffffffffffffffffffffffffff1681526020018481526020018381525060015f8673ffffffffffffffffffffffffffffffffffffffff1673ffffffffffffffffffffffffffffffffffffffff1681526020019081526020015f205f8581526020019081526020015f205f820151815f015f6101000a81548173ffffffffffffffffffffffffffffffffffffffff021916908373ffffffffffffffffffffffffffffffffffffffff1602179055506020820151816001015f6101000a81548173ffffffffffffffffffffffffffffffffffffffff021916908373ffffffffffffffffffffffffffffffffffffffff1602179055506040820151816002015f6101000a81548173ffffffffffffffffffffffffffffffffffffffff021916908373ffffffffffffffffffffffffffffffffffffffff16021790555060608201518160030155608082015181600401559050505f60405180604001604052808673ffffffffffffffffffffffffffffffffffffffff16815260200185815250908060018154018082558091505060019003905f5260205f2090600202015f909190919091505f820151815f015f6101000a81548173ffffffffffffffffffffffffffffffffffffffff021916908373ffffffffffffffffffffffffffffffffffffffff160217905550602082015181600101555050828473ffffffffffffffffffffffffffffffffffffffff163373ffffffffffffffffffffffffffffffffffffffff167fbeab3a2bb824b124a8a1eb465eec003338d61b414db132d37e9b3a984fdcf010856040516105ad9190611019565b60405180910390a450505050565b5f60015f8473ffffffffffffffffffffffffffffffffffffffff1673ffffffffffffffffffffffffffffffffffffffff1681526020019081526020015f205f8381526020019081526020015f2090505f73ffffffffffffffffffffffffffffffffffffffff16815f015f9054906101000a900473ffffffffffffffffffffffffffffffffffffffff1673ffffffffffffffffffffffffffffffffffffffff160361069a576040517f08c379a000000000000000000000000000000000000000000000000000000000815260040161069190611231565b60405180910390fd5b5f73ffffffffffffffffffffffffffffffffffffffff16816001015f9054906101000a900473ffffffffffffffffffffffffffffffffffffffff1673ffffffffffffffffffffffffffffffffffffffff161461072b576040517f08c379a000000000000000000000000000000000000000000000000000000000815260040161072290611299565b60405180910390fd5b7f000000000000000000000000000000000000000000000000000000000000000073ffffffffffffffffffffffffffffffffffffffff166323b872dd33835f015f9054906101000a900473ffffffffffffffffffffffffffffffffffffffff1684600401546040518463ffffffff1660e01b81526004016107ae939291906112b7565b6020604051808303815f875af11580156107ca573d5f803e3d5ffd5b505050506040513d601f19601f820116820180604052508101906107ee9190611154565b61082d576040517f08c379a000000000000000000000000000000000000000000000000000000000815260040161082490611336565b60405180910390fd5b5f816002015f9054906101000a900473ffffffffffffffffffffffffffffffffffffffff1690508073ffffffffffffffffffffffffffffffffffffffff166342842e0e835f015f9054906101000a900473ffffffffffffffffffffffffffffffffffffffff1633866040518463ffffffff1660e01b81526004016108b3939291906112b7565b5f604051808303815f87803b1580156108ca575f80fd5b505af11580156108dc573d5f803e3d5ffd5b5050505033826001015f6101000a81548173ffffffffffffffffffffffffffffffffffffffff021916908373ffffffffffffffffffffffffffffffffffffffff1602179055508373ffffffffffffffffffffffffffffffffffffffff163373ffffffffffffffffffffffffffffffffffffffff16835f015f9054906101000a900473ffffffffffffffffffffffffffffffffffffffff1673ffffffffffffffffffffffffffffffffffffffff167f1b81ea9818518fffa07ee623cfd9ce8af1900f3e0c918f2ca4fcfc9745cdc1658686600401546040516109be929190611354565b60405180910390a450505050565b60605f808054905067ffffffffffffffff8111156109ed576109ec61137b565b5b604051908082528060200260200182016040528015610a2657816020015b610a13610c91565b815260200190600190039081610a0b5790505b509050610a31610cfd565b5f5b5f80549050811015610c64575f8181548110610a5257610a516113a8565b5b905f5260205f2090600202016040518060400160405290815f82015f9054906101000a900473ffffffffffffffffffffffffffffffffffffffff1673ffffffffffffffffffffffffffffffffffffffff1673ffffffffffffffffffffffffffffffffffffffff168152602001600182015481525050915060015f835f015173ffffffffffffffffffffffffffffffffffffffff1673ffffffffffffffffffffffffffffffffffffffff1681526020019081526020015f205f836020015181526020019081526020015f206040518060a00160405290815f82015f9054906101000a900473ffffffffffffffffffffffffffffffffffffffff1673ffffffffffffffffffffffffffffffffffffffff1673ffffffffffffffffffffffffffffffffffffffff168152602001600182015f9054906101000a900473ffffffffffffffffffffffffffffffffffffffff1673ffffffffffffffffffffffffffffffffffffffff1673ffffffffffffffffffffffffffffffffffffffff168152602001600282015f9054906101000a900473ffffffffffffffffffffffffffffffffffffffff1673ffffffffffffffffffffffffffffffffffffffff1673ffffffffffffffffffffffffffffffffffffffff16815260200160038201548152602001600482015481525050838281518110610c4c57610c4b6113a8565b5b60200260200101819052508080600101915050610a33565b50819250505090565b7f000000000000000000000000000000000000000000000000000000000000000081565b6040518060a001604052805f73ffffffffffffffffffffffffffffffffffffffff1681526020015f73ffffffffffffffffffffffffffffffffffffffff1681526020015f73ffffffffffffffffffffffffffffffffffffffff1681526020015f81526020015f81525090565b60405180604001604052805f73ffffffffffffffffffffffffffffffffffffffff1681526020015f81525090565b5f80fd5b5f73ffffffffffffffffffffffffffffffffffffffff82169050919050565b5f610d5882610d2f565b9050919050565b610d6881610d4e565b8114610d72575f80fd5b50565b5f81359050610d8381610d5f565b92915050565b5f819050919050565b610d9b81610d89565b8114610da5575f80fd5b50565b5f81359050610db681610d92565b92915050565b5f805f60608486031215610dd357610dd2610d2b565b5b5f610de086828701610d75565b9350506020610df186828701610da8565b9250506040610e0286828701610da8565b9150509250925092565b5f8060408385031215610e2257610e21610d2b565b5b5f610e2f85828601610d75565b9250506020610e4085828601610da8565b9150509250929050565b5f81519050919050565b5f82825260208201905092915050565b5f819050602082019050919050565b610e7c81610d4e565b82525050565b610e8b81610d89565b82525050565b60a082015f820151610ea55f850182610e73565b506020820151610eb86020850182610e73565b506040820151610ecb6040850182610e73565b506060820151610ede6060850182610e82565b506080820151610ef16080850182610e82565b50505050565b5f610f028383610e91565b60a08301905092915050565b5f602082019050919050565b5f610f2482610e4a565b610f2e8185610e54565b9350610f3983610e64565b805f5b83811015610f69578151610f508882610ef7565b9750610f5b83610f0e565b925050600181019050610f3c565b5085935050505092915050565b5f6020820190508181035f830152610f8e8184610f1a565b905092915050565b5f819050919050565b5f610fb9610fb4610faf84610d2f565b610f96565b610d2f565b9050919050565b5f610fca82610f9f565b9050919050565b5f610fdb82610fc0565b9050919050565b610feb81610fd1565b82525050565b5f6020820190506110045f830184610fe2565b92915050565b61101381610d89565b82525050565b5f60208201905061102c5f83018461100a565b92915050565b5f8151905061104081610d5f565b92915050565b5f6020828403121561105b5761105a610d2b565b5b5f61106884828501611032565b91505092915050565b5f82825260208201905092915050565b7f72657175697265206f776e6572000000000000000000000000000000000000005f82015250565b5f6110b5600d83611071565b91506110c082611081565b602082019050919050565b5f6020820190508181035f8301526110e2816110a9565b9050919050565b6110f281610d4e565b82525050565b5f60408201905061110b5f8301856110e9565b61111860208301846110e9565b9392505050565b5f8115159050919050565b6111338161111f565b811461113d575f80fd5b50565b5f8151905061114e8161112a565b92915050565b5f6020828403121561116957611168610d2b565b5b5f61117684828501611140565b91505092915050565b7f6e6f7420617070726f76656400000000000000000000000000000000000000005f82015250565b5f6111b3600c83611071565b91506111be8261117f565b602082019050919050565b5f6020820190508181035f8301526111e0816111a7565b9050919050565b7f7265717569726564206e667420646f6573206e6f7420657869737400000000005f82015250565b5f61121b601b83611071565b9150611226826111e7565b602082019050919050565b5f6020820190508181035f8301526112488161120f565b9050919050565b7f6e667420736f6c64206f757400000000000000000000000000000000000000005f82015250565b5f611283600c83611071565b915061128e8261124f565b602082019050919050565b5f6020820190508181035f8301526112b081611277565b9050919050565b5f6060820190506112ca5f8301866110e9565b6112d760208301856110e9565b6112e4604083018461100a565b949350505050565b7f6661696c656420746f20706179000000000000000000000000000000000000005f82015250565b5f611320600d83611071565b915061132b826112ec565b602082019050919050565b5f6020820190508181035f83015261134d81611314565b9050919050565b5f6040820190506113675f83018561100a565b611374602083018461100a565b9392505050565b7f4e487b71000000000000000000000000000000000000000000000000000000005f52604160045260245ffd5b7f4e487b71000000000000000000000000000000000000000000000000000000005f52603260045260245ffdfea2646970667358221220e615e51048d00334855c5a80d71243b8ee9851148dcac267134283d1e7943ca564736f6c634300081a0033",
					"opcodes": "PUSH1 0xA0 PUSH1 0x40 MSTORE CALLVALUE DUP1 ISZERO PUSH2 0xF JUMPI PUSH0 DUP1 REVERT JUMPDEST POP PUSH1 0x40 MLOAD PUSH2 0x151E CODESIZE SUB DUP1 PUSH2 0x151E DUP4 CODECOPY DUP2 DUP2 ADD PUSH1 0x40 MSTORE DUP2 ADD SWAP1 PUSH2 0x31 SWAP2 SWAP1 PUSH2 0xC9 JUMP JUMPDEST DUP1 PUSH20 0xFFFFFFFFFFFFFFFFFFFFFFFFFFFFFFFFFFFFFFFF AND PUSH1 0x80 DUP2 PUSH20 0xFFFFFFFFFFFFFFFFFFFFFFFFFFFFFFFFFFFFFFFF AND DUP2 MSTORE POP POP POP PUSH2 0xF4 JUMP JUMPDEST PUSH0 DUP1 REVERT JUMPDEST PUSH0 PUSH20 0xFFFFFFFFFFFFFFFFFFFFFFFFFFFFFFFFFFFFFFFF DUP3 AND SWAP1 POP SWAP2 SWAP1 POP JUMP JUMPDEST PUSH0 PUSH2 0x98 DUP3 PUSH2 0x6F JUMP JUMPDEST SWAP1 POP SWAP2 SWAP1 POP JUMP JUMPDEST PUSH2 0xA8 DUP2 PUSH2 0x8E JUMP JUMPDEST DUP2 EQ PUSH2 0xB2 JUMPI PUSH0 DUP1 REVERT JUMPDEST POP JUMP JUMPDEST PUSH0 DUP2 MLOAD SWAP1 POP PUSH2 0xC3 DUP2 PUSH2 0x9F JUMP JUMPDEST SWAP3 SWAP2 POP POP JUMP JUMPDEST PUSH0 PUSH1 0x20 DUP3 DUP5 SUB SLT ISZERO PUSH2 0xDE JUMPI PUSH2 0xDD PUSH2 0x6B JUMP JUMPDEST JUMPDEST PUSH0 PUSH2 0xEB DUP5 DUP3 DUP6 ADD PUSH2 0xB5 JUMP JUMPDEST SWAP2 POP POP SWAP3 SWAP2 POP POP JUMP JUMPDEST PUSH1 0x80 MLOAD PUSH2 0x140B PUSH2 0x113 PUSH0 CODECOPY PUSH0 DUP2 DUP2 PUSH2 0x72D ADD MSTORE PUSH2 0xC6F ADD MSTORE PUSH2 0x140B PUSH0 RETURN INVALID PUSH1 0x80 PUSH1 0x40 MSTORE CALLVALUE DUP1 ISZERO PUSH2 0xF JUMPI PUSH0 DUP1 REVERT JUMPDEST POP PUSH1 0x4 CALLDATASIZE LT PUSH2 0x4A JUMPI PUSH0 CALLDATALOAD PUSH1 0xE0 SHR DUP1 PUSH4 0x2EA1A03F EQ PUSH2 0x4E JUMPI DUP1 PUSH4 0xA82BA76F EQ PUSH2 0x6A JUMPI DUP1 PUSH4 0xAE73CCEC EQ PUSH2 0x86 JUMPI DUP1 PUSH4 0xE5A6B10F EQ PUSH2 0xA4 JUMPI JUMPDEST PUSH0 DUP1 REVERT JUMPDEST PUSH2 0x68 PUSH1 0x4 DUP1 CALLDATASIZE SUB DUP2 ADD SWAP1 PUSH2 0x63 SWAP2 SWAP1 PUSH2 0xDBC JUMP JUMPDEST PUSH2 0xC2 JUMP JUMPDEST STOP JUMPDEST PUSH2 0x84 PUSH1 0x4 DUP1 CALLDATASIZE SUB DUP2 ADD SWAP1 PUSH2 0x7F SWAP2 SWAP1 PUSH2 0xE0C JUMP JUMPDEST PUSH2 0x5BB JUMP JUMPDEST STOP JUMPDEST PUSH2 0x8E PUSH2 0x9CC JUMP JUMPDEST PUSH1 0x40 MLOAD PUSH2 0x9B SWAP2 SWAP1 PUSH2 0xF76 JUMP JUMPDEST PUSH1 0x40 MLOAD DUP1 SWAP2 SUB SWAP1 RETURN JUMPDEST PUSH2 0xAC PUSH2 0xC6D JUMP JUMPDEST PUSH1 0x40 MLOAD PUSH2 0xB9 SWAP2 SWAP1 PUSH2 0xFF1 JUMP JUMPDEST PUSH1 0x40 MLOAD DUP1 SWAP2 SUB SWAP1 RETURN JUMPDEST PUSH0 DUP4 SWAP1 POP CALLER PUSH20 0xFFFFFFFFFFFFFFFFFFFFFFFFFFFFFFFFFFFFFFFF AND DUP2 PUSH20 0xFFFFFFFFFFFFFFFFFFFFFFFFFFFFFFFFFFFFFFFF AND PUSH4 0x6352211E DUP6 PUSH1 0x40 MLOAD DUP3 PUSH4 0xFFFFFFFF AND PUSH1 0xE0 SHL DUP2 MSTORE PUSH1 0x4 ADD PUSH2 0x116 SWAP2 SWAP1 PUSH2 0x1019 JUMP JUMPDEST PUSH1 0x20 PUSH1 0x40 MLOAD DUP1 DUP4 SUB DUP2 DUP7 GAS STATICCALL ISZERO DUP1 ISZERO PUSH2 0x131 JUMPI RETURNDATASIZE PUSH0 DUP1 RETURNDATACOPY RETURNDATASIZE PUSH0 REVERT JUMPDEST POP POP POP POP PUSH1 0x40 MLOAD RETURNDATASIZE PUSH1 0x1F NOT PUSH1 0x1F DUP3 ADD AND DUP3 ADD DUP1 PUSH1 0x40 MSTORE POP DUP2 ADD SWAP1 PUSH2 0x155 SWAP2 SWAP1 PUSH2 0x1046 JUMP JUMPDEST PUSH20 0xFFFFFFFFFFFFFFFFFFFFFFFFFFFFFFFFFFFFFFFF AND EQ PUSH2 0x1AB JUMPI PUSH1 0x40 MLOAD PUSH32 0x8C379A000000000000000000000000000000000000000000000000000000000 DUP2 MSTORE PUSH1 0x4 ADD PUSH2 0x1A2 SWAP1 PUSH2 0x10CB JUMP JUMPDEST PUSH1 0x40 MLOAD DUP1 SWAP2 SUB SWAP1 REVERT JUMPDEST DUP1 PUSH20 0xFFFFFFFFFFFFFFFFFFFFFFFFFFFFFFFFFFFFFFFF AND PUSH4 0xE985E9C5 CALLER ADDRESS PUSH1 0x40 MLOAD DUP4 PUSH4 0xFFFFFFFF AND PUSH1 0xE0 SHL DUP2 MSTORE PUSH1 0x4 ADD PUSH2 0x1E6 SWAP3 SWAP2 SWAP1 PUSH2 0x10F8 JUMP JUMPDEST PUSH1 0x20 PUSH1 0x40 MLOAD DUP1 DUP4 SUB DUP2 DUP7 GAS STATICCALL ISZERO DUP1 ISZERO PUSH2 0x201 JUMPI RETURNDATASIZE PUSH0 DUP1 RETURNDATACOPY RETURNDATASIZE PUSH0 REVERT JUMPDEST POP POP POP POP PUSH1 0x40 MLOAD RETURNDATASIZE PUSH1 0x1F NOT PUSH1 0x1F DUP3 ADD AND DUP3 ADD DUP1 PUSH1 0x40 MSTORE POP DUP2 ADD SWAP1 PUSH2 0x225 SWAP2 SWAP1 PUSH2 0x1154 JUMP JUMPDEST DUP1 PUSH2 0x2D2 JUMPI POP ADDRESS PUSH20 0xFFFFFFFFFFFFFFFFFFFFFFFFFFFFFFFFFFFFFFFF AND DUP2 PUSH20 0xFFFFFFFFFFFFFFFFFFFFFFFFFFFFFFFFFFFFFFFF AND PUSH4 0x81812FC DUP6 PUSH1 0x40 MLOAD DUP3 PUSH4 0xFFFFFFFF AND PUSH1 0xE0 SHL DUP2 MSTORE PUSH1 0x4 ADD PUSH2 0x27B SWAP2 SWAP1 PUSH2 0x1019 JUMP JUMPDEST PUSH1 0x20 PUSH1 0x40 MLOAD DUP1 DUP4 SUB DUP2 DUP7 GAS STATICCALL ISZERO DUP1 ISZERO PUSH2 0x296 JUMPI RETURNDATASIZE PUSH0 DUP1 RETURNDATACOPY RETURNDATASIZE PUSH0 REVERT JUMPDEST POP POP POP POP PUSH1 0x40 MLOAD RETURNDATASIZE PUSH1 0x1F NOT PUSH1 0x1F DUP3 ADD AND DUP3 ADD DUP1 PUSH1 0x40 MSTORE POP DUP2 ADD SWAP1 PUSH2 0x2BA SWAP2 SWAP1 PUSH2 0x1046 JUMP JUMPDEST PUSH20 0xFFFFFFFFFFFFFFFFFFFFFFFFFFFFFFFFFFFFFFFF AND EQ JUMPDEST PUSH2 0x311 JUMPI PUSH1 0x40 MLOAD PUSH32 0x8C379A000000000000000000000000000000000000000000000000000000000 DUP2 MSTORE PUSH1 0x4 ADD PUSH2 0x308 SWAP1 PUSH2 0x11C9 JUMP JUMPDEST PUSH1 0x40 MLOAD DUP1 SWAP2 SUB SWAP1 REVERT JUMPDEST PUSH1 0x40 MLOAD DUP1 PUSH1 0xA0 ADD PUSH1 0x40 MSTORE DUP1 CALLER PUSH20 0xFFFFFFFFFFFFFFFFFFFFFFFFFFFFFFFFFFFFFFFF AND DUP2 MSTORE PUSH1 0x20 ADD PUSH0 PUSH20 0xFFFFFFFFFFFFFFFFFFFFFFFFFFFFFFFFFFFFFFFF AND DUP2 MSTORE PUSH1 0x20 ADD DUP6 PUSH20 0xFFFFFFFFFFFFFFFFFFFFFFFFFFFFFFFFFFFFFFFF AND DUP2 MSTORE PUSH1 0x20 ADD DUP5 DUP2 MSTORE PUSH1 0x20 ADD DUP4 DUP2 MSTORE POP PUSH1 0x1 PUSH0 DUP7 PUSH20 0xFFFFFFFFFFFFFFFFFFFFFFFFFFFFFFFFFFFFFFFF AND PUSH20 0xFFFFFFFFFFFFFFFFFFFFFFFFFFFFFFFFFFFFFFFF AND DUP2 MSTORE PUSH1 0x20 ADD SWAP1 DUP2 MSTORE PUSH1 0x20 ADD PUSH0 KECCAK256 PUSH0 DUP6 DUP2 MSTORE PUSH1 0x20 ADD SWAP1 DUP2 MSTORE PUSH1 0x20 ADD PUSH0 KECCAK256 PUSH0 DUP3 ADD MLOAD DUP2 PUSH0 ADD PUSH0 PUSH2 0x100 EXP DUP2 SLOAD DUP2 PUSH20 0xFFFFFFFFFFFFFFFFFFFFFFFFFFFFFFFFFFFFFFFF MUL NOT AND SWAP1 DUP4 PUSH20 0xFFFFFFFFFFFFFFFFFFFFFFFFFFFFFFFFFFFFFFFF AND MUL OR SWAP1 SSTORE POP PUSH1 0x20 DUP3 ADD MLOAD DUP2 PUSH1 0x1 ADD PUSH0 PUSH2 0x100 EXP DUP2 SLOAD DUP2 PUSH20 0xFFFFFFFFFFFFFFFFFFFFFFFFFFFFFFFFFFFFFFFF MUL NOT AND SWAP1 DUP4 PUSH20 0xFFFFFFFFFFFFFFFFFFFFFFFFFFFFFFFFFFFFFFFF AND MUL OR SWAP1 SSTORE POP PUSH1 0x40 DUP3 ADD MLOAD DUP2 PUSH1 0x2 ADD PUSH0 PUSH2 0x100 EXP DUP2 SLOAD DUP2 PUSH20 0xFFFFFFFFFFFFFFFFFFFFFFFFFFFFFFFFFFFFFFFF MUL NOT AND SWAP1 DUP4 PUSH20 0xFFFFFFFFFFFFFFFFFFFFFFFFFFFFFFFFFFFFFFFF AND MUL OR SWAP1 SSTORE POP PUSH1 0x60 DUP3 ADD MLOAD DUP2 PUSH1 0x3 ADD SSTORE PUSH1 0x80 DUP3 ADD MLOAD DUP2 PUSH1 0x4 ADD SSTORE SWAP1 POP POP PUSH0 PUSH1 0x40 MLOAD DUP1 PUSH1 0x40 ADD PUSH1 0x40 MSTORE DUP1 DUP7 PUSH20 0xFFFFFFFFFFFFFFFFFFFFFFFFFFFFFFFFFFFFFFFF AND DUP2 MSTORE PUSH1 0x20 ADD DUP6 DUP2 MSTORE POP SWAP1 DUP1 PUSH1 0x1 DUP2 SLOAD ADD DUP1 DUP3 SSTORE DUP1 SWAP2 POP POP PUSH1 0x1 SWAP1 SUB SWAP1 PUSH0 MSTORE PUSH1 0x20 PUSH0 KECCAK256 SWAP1 PUSH1 0x2 MUL ADD PUSH0 SWAP1 SWAP2 SWAP1 SWAP2 SWAP1 SWAP2 POP PUSH0 DUP3 ADD MLOAD DUP2 PUSH0 ADD PUSH0 PUSH2 0x100 EXP DUP2 SLOAD DUP2 PUSH20 0xFFFFFFFFFFFFFFFFFFFFFFFFFFFFFFFFFFFFFFFF MUL NOT AND SWAP1 DUP4 PUSH20 0xFFFFFFFFFFFFFFFFFFFFFFFFFFFFFFFFFFFFFFFF AND MUL OR SWAP1 SSTORE POP PUSH1 0x20 DUP3 ADD MLOAD DUP2 PUSH1 0x1 ADD SSTORE POP POP DUP3 DUP5 PUSH20 0xFFFFFFFFFFFFFFFFFFFFFFFFFFFFFFFFFFFFFFFF AND CALLER PUSH20 0xFFFFFFFFFFFFFFFFFFFFFFFFFFFFFFFFFFFFFFFF AND PUSH32 0xBEAB3A2BB824B124A8A1EB465EEC003338D61B414DB132D37E9B3A984FDCF010 DUP6 PUSH1 0x40 MLOAD PUSH2 0x5AD SWAP2 SWAP1 PUSH2 0x1019 JUMP JUMPDEST PUSH1 0x40 MLOAD DUP1 SWAP2 SUB SWAP1 LOG4 POP POP POP POP JUMP JUMPDEST PUSH0 PUSH1 0x1 PUSH0 DUP5 PUSH20 0xFFFFFFFFFFFFFFFFFFFFFFFFFFFFFFFFFFFFFFFF AND PUSH20 0xFFFFFFFFFFFFFFFFFFFFFFFFFFFFFFFFFFFFFFFF AND DUP2 MSTORE PUSH1 0x20 ADD SWAP1 DUP2 MSTORE PUSH1 0x20 ADD PUSH0 KECCAK256 PUSH0 DUP4 DUP2 MSTORE PUSH1 0x20 ADD SWAP1 DUP2 MSTORE PUSH1 0x20 ADD PUSH0 KECCAK256 SWAP1 POP PUSH0 PUSH20 0xFFFFFFFFFFFFFFFFFFFFFFFFFFFFFFFFFFFFFFFF AND DUP2 PUSH0 ADD PUSH0 SWAP1 SLOAD SWAP1 PUSH2 0x100 EXP SWAP1 DIV PUSH20 0xFFFFFFFFFFFFFFFFFFFFFFFFFFFFFFFFFFFFFFFF AND PUSH20 0xFFFFFFFFFFFFFFFFFFFFFFFFFFFFFFFFFFFFFFFF AND SUB PUSH2 0x69A JUMPI PUSH1 0x40 MLOAD PUSH32 0x8C379A000000000000000000000000000000000000000000000000000000000 DUP2 MSTORE PUSH1 0x4 ADD PUSH2 0x691 SWAP1 PUSH2 0x1231 JUMP JUMPDEST PUSH1 0x40 MLOAD DUP1 SWAP2 SUB SWAP1 REVERT JUMPDEST PUSH0 PUSH20 0xFFFFFFFFFFFFFFFFFFFFFFFFFFFFFFFFFFFFFFFF AND DUP2 PUSH1 0x1 ADD PUSH0 SWAP1 SLOAD SWAP1 PUSH2 0x100 EXP SWAP1 DIV PUSH20 0xFFFFFFFFFFFFFFFFFFFFFFFFFFFFFFFFFFFFFFFF AND PUSH20 0xFFFFFFFFFFFFFFFFFFFFFFFFFFFFFFFFFFFFFFFF AND EQ PUSH2 0x72B JUMPI PUSH1 0x40 MLOAD PUSH32 0x8C379A000000000000000000000000000000000000000000000000000000000 DUP2 MSTORE PUSH1 0x4 ADD PUSH2 0x722 SWAP1 PUSH2 0x1299 JUMP JUMPDEST PUSH1 0x40 MLOAD DUP1 SWAP2 SUB SWAP1 REVERT JUMPDEST PUSH32 0x0 PUSH20 0xFFFFFFFFFFFFFFFFFFFFFFFFFFFFFFFFFFFFFFFF AND PUSH4 0x23B872DD CALLER DUP4 PUSH0 ADD PUSH0 SWAP1 SLOAD SWAP1 PUSH2 0x100 EXP SWAP1 DIV PUSH20 0xFFFFFFFFFFFFFFFFFFFFFFFFFFFFFFFFFFFFFFFF AND DUP5 PUSH1 0x4 ADD SLOAD PUSH1 0x40 MLOAD DUP5 PUSH4 0xFFFFFFFF AND PUSH1 0xE0 SHL DUP2 MSTORE PUSH1 0x4 ADD PUSH2 0x7AE SWAP4 SWAP3 SWAP2 SWAP1 PUSH2 0x12B7 JUMP JUMPDEST PUSH1 0x20 PUSH1 0x40 MLOAD DUP1 DUP4 SUB DUP2 PUSH0 DUP8 GAS CALL ISZERO DUP1 ISZERO PUSH2 0x7CA JUMPI RETURNDATASIZE PUSH0 DUP1 RETURNDATACOPY RETURNDATASIZE PUSH0 REVERT JUMPDEST POP POP POP POP PUSH1 0x40 MLOAD RETURNDATASIZE PUSH1 0x1F NOT PUSH1 0x1F DUP3 ADD AND DUP3 ADD DUP1 PUSH1 0x40 MSTORE POP DUP2 ADD SWAP1 PUSH2 0x7EE SWAP2 SWAP1 PUSH2 0x1154 JUMP JUMPDEST PUSH2 0x82D JUMPI PUSH1 0x40 MLOAD PUSH32 0x8C379A000000000000000000000000000000000000000000000000000000000 DUP2 MSTORE PUSH1 0x4 ADD PUSH2 0x824 SWAP1 PUSH2 0x1336 JUMP JUMPDEST PUSH1 0x40 MLOAD DUP1 SWAP2 SUB SWAP1 REVERT JUMPDEST PUSH0 DUP2 PUSH1 0x2 ADD PUSH0 SWAP1 SLOAD SWAP1 PUSH2 0x100 EXP SWAP1 DIV PUSH20 0xFFFFFFFFFFFFFFFFFFFFFFFFFFFFFFFFFFFFFFFF AND SWAP1 POP DUP1 PUSH20 0xFFFFFFFFFFFFFFFFFFFFFFFFFFFFFFFFFFFFFFFF AND PUSH4 0x42842E0E DUP4 PUSH0 ADD PUSH0 SWAP1 SLOAD SWAP1 PUSH2 0x100 EXP SWAP1 DIV PUSH20 0xFFFFFFFFFFFFFFFFFFFFFFFFFFFFFFFFFFFFFFFF AND CALLER DUP7 PUSH1 0x40 MLOAD DUP5 PUSH4 0xFFFFFFFF AND PUSH1 0xE0 SHL DUP2 MSTORE PUSH1 0x4 ADD PUSH2 0x8B3 SWAP4 SWAP3 SWAP2 SWAP1 PUSH2 0x12B7 JUMP JUMPDEST PUSH0 PUSH1 0x40 MLOAD DUP1 DUP4 SUB DUP2 PUSH0 DUP8 DUP1 EXTCODESIZE ISZERO DUP1 ISZERO PUSH2 0x8CA JUMPI PUSH0 DUP1 REVERT JUMPDEST POP GAS CALL ISZERO DUP1 ISZERO PUSH2 0x8DC JUMPI RETURNDATASIZE PUSH0 DUP1 RETURNDATACOPY RETURNDATASIZE PUSH0 REVERT JUMPDEST POP POP POP POP CALLER DUP3 PUSH1 0x1 ADD PUSH0 PUSH2 0x100 EXP DUP2 SLOAD DUP2 PUSH20 0xFFFFFFFFFFFFFFFFFFFFFFFFFFFFFFFFFFFFFFFF MUL NOT AND SWAP1 DUP4 PUSH20 0xFFFFFFFFFFFFFFFFFFFFFFFFFFFFFFFFFFFFFFFF AND MUL OR SWAP1 SSTORE POP DUP4 PUSH20 0xFFFFFFFFFFFFFFFFFFFFFFFFFFFFFFFFFFFFFFFF AND CALLER PUSH20 0xFFFFFFFFFFFFFFFFFFFFFFFFFFFFFFFFFFFFFFFF AND DUP4 PUSH0 ADD PUSH0 SWAP1 SLOAD SWAP1 PUSH2 0x100 EXP SWAP1 DIV PUSH20 0xFFFFFFFFFFFFFFFFFFFFFFFFFFFFFFFFFFFFFFFF AND PUSH20 0xFFFFFFFFFFFFFFFFFFFFFFFFFFFFFFFFFFFFFFFF AND PUSH32 0x1B81EA9818518FFFA07EE623CFD9CE8AF1900F3E0C918F2CA4FCFC9745CDC165 DUP7 DUP7 PUSH1 0x4 ADD SLOAD PUSH1 0x40 MLOAD PUSH2 0x9BE SWAP3 SWAP2 SWAP1 PUSH2 0x1354 JUMP JUMPDEST PUSH1 0x40 MLOAD DUP1 SWAP2 SUB SWAP1 LOG4 POP POP POP POP JUMP JUMPDEST PUSH1 0x60 PUSH0 DUP1 DUP1 SLOAD SWAP1 POP PUSH8 0xFFFFFFFFFFFFFFFF DUP2 GT ISZERO PUSH2 0x9ED JUMPI PUSH2 0x9EC PUSH2 0x137B JUMP JUMPDEST JUMPDEST PUSH1 0x40 MLOAD SWAP1 DUP1 DUP3 MSTORE DUP1 PUSH1 0x20 MUL PUSH1 0x20 ADD DUP3 ADD PUSH1 0x40 MSTORE DUP1 ISZERO PUSH2 0xA26 JUMPI DUP2 PUSH1 0x20 ADD JUMPDEST PUSH2 0xA13 PUSH2 0xC91 JUMP JUMPDEST DUP2 MSTORE PUSH1 0x20 ADD SWAP1 PUSH1 0x1 SWAP1 SUB SWAP1 DUP2 PUSH2 0xA0B JUMPI SWAP1 POP JUMPDEST POP SWAP1 POP PUSH2 0xA31 PUSH2 0xCFD JUMP JUMPDEST PUSH0 JUMPDEST PUSH0 DUP1 SLOAD SWAP1 POP DUP2 LT ISZERO PUSH2 0xC64 JUMPI PUSH0 DUP2 DUP2 SLOAD DUP2 LT PUSH2 0xA52 JUMPI PUSH2 0xA51 PUSH2 0x13A8 JUMP JUMPDEST JUMPDEST SWAP1 PUSH0 MSTORE PUSH1 0x20 PUSH0 KECCAK256 SWAP1 PUSH1 0x2 MUL ADD PUSH1 0x40 MLOAD DUP1 PUSH1 0x40 ADD PUSH1 0x40 MSTORE SWAP1 DUP2 PUSH0 DUP3 ADD PUSH0 SWAP1 SLOAD SWAP1 PUSH2 0x100 EXP SWAP1 DIV PUSH20 0xFFFFFFFFFFFFFFFFFFFFFFFFFFFFFFFFFFFFFFFF AND PUSH20 0xFFFFFFFFFFFFFFFFFFFFFFFFFFFFFFFFFFFFFFFF AND PUSH20 0xFFFFFFFFFFFFFFFFFFFFFFFFFFFFFFFFFFFFFFFF AND DUP2 MSTORE PUSH1 0x20 ADD PUSH1 0x1 DUP3 ADD SLOAD DUP2 MSTORE POP POP SWAP2 POP PUSH1 0x1 PUSH0 DUP4 PUSH0 ADD MLOAD PUSH20 0xFFFFFFFFFFFFFFFFFFFFFFFFFFFFFFFFFFFFFFFF AND PUSH20 0xFFFFFFFFFFFFFFFFFFFFFFFFFFFFFFFFFFFFFFFF AND DUP2 MSTORE PUSH1 0x20 ADD SWAP1 DUP2 MSTORE PUSH1 0x20 ADD PUSH0 KECCAK256 PUSH0 DUP4 PUSH1 0x20 ADD MLOAD DUP2 MSTORE PUSH1 0x20 ADD SWAP1 DUP2 MSTORE PUSH1 0x20 ADD PUSH0 KECCAK256 PUSH1 0x40 MLOAD DUP1 PUSH1 0xA0 ADD PUSH1 0x40 MSTORE SWAP1 DUP2 PUSH0 DUP3 ADD PUSH0 SWAP1 SLOAD SWAP1 PUSH2 0x100 EXP SWAP1 DIV PUSH20 0xFFFFFFFFFFFFFFFFFFFFFFFFFFFFFFFFFFFFFFFF AND PUSH20 0xFFFFFFFFFFFFFFFFFFFFFFFFFFFFFFFFFFFFFFFF AND PUSH20 0xFFFFFFFFFFFFFFFFFFFFFFFFFFFFFFFFFFFFFFFF AND DUP2 MSTORE PUSH1 0x20 ADD PUSH1 0x1 DUP3 ADD PUSH0 SWAP1 SLOAD SWAP1 PUSH2 0x100 EXP SWAP1 DIV PUSH20 0xFFFFFFFFFFFFFFFFFFFFFFFFFFFFFFFFFFFFFFFF AND PUSH20 0xFFFFFFFFFFFFFFFFFFFFFFFFFFFFFFFFFFFFFFFF AND PUSH20 0xFFFFFFFFFFFFFFFFFFFFFFFFFFFFFFFFFFFFFFFF AND DUP2 MSTORE PUSH1 0x20 ADD PUSH1 0x2 DUP3 ADD PUSH0 SWAP1 SLOAD SWAP1 PUSH2 0x100 EXP SWAP1 DIV PUSH20 0xFFFFFFFFFFFFFFFFFFFFFFFFFFFFFFFFFFFFFFFF AND PUSH20 0xFFFFFFFFFFFFFFFFFFFFFFFFFFFFFFFFFFFFFFFF AND PUSH20 0xFFFFFFFFFFFFFFFFFFFFFFFFFFFFFFFFFFFFFFFF AND DUP2 MSTORE PUSH1 0x20 ADD PUSH1 0x3 DUP3 ADD SLOAD DUP2 MSTORE PUSH1 0x20 ADD PUSH1 0x4 DUP3 ADD SLOAD DUP2 MSTORE POP POP DUP4 DUP3 DUP2 MLOAD DUP2 LT PUSH2 0xC4C JUMPI PUSH2 0xC4B PUSH2 0x13A8 JUMP JUMPDEST JUMPDEST PUSH1 0x20 MUL PUSH1 0x20 ADD ADD DUP2 SWAP1 MSTORE POP DUP1 DUP1 PUSH1 0x1 ADD SWAP2 POP POP PUSH2 0xA33 JUMP JUMPDEST POP DUP2 SWAP3 POP POP POP SWAP1 JUMP JUMPDEST PUSH32 0x0 DUP2 JUMP JUMPDEST PUSH1 0x40 MLOAD DUP1 PUSH1 0xA0 ADD PUSH1 0x40 MSTORE DUP1 PUSH0 PUSH20 0xFFFFFFFFFFFFFFFFFFFFFFFFFFFFFFFFFFFFFFFF AND DUP2 MSTORE PUSH1 0x20 ADD PUSH0 PUSH20 0xFFFFFFFFFFFFFFFFFFFFFFFFFFFFFFFFFFFFFFFF AND DUP2 MSTORE PUSH1 0x20 ADD PUSH0 PUSH20 0xFFFFFFFFFFFFFFFFFFFFFFFFFFFFFFFFFFFFFFFF AND DUP2 MSTORE PUSH1 0x20 ADD PUSH0 DUP2 MSTORE PUSH1 0x20 ADD PUSH0 DUP2 MSTORE POP SWAP1 JUMP JUMPDEST PUSH1 0x40 MLOAD DUP1 PUSH1 0x40 ADD PUSH1 0x40 MSTORE DUP1 PUSH0 PUSH20 0xFFFFFFFFFFFFFFFFFFFFFFFFFFFFFFFFFFFFFFFF AND DUP2 MSTORE PUSH1 0x20 ADD PUSH0 DUP2 MSTORE POP SWAP1 JUMP JUMPDEST PUSH0 DUP1 REVERT JUMPDEST PUSH0 PUSH20 0xFFFFFFFFFFFFFFFFFFFFFFFFFFFFFFFFFFFFFFFF DUP3 AND SWAP1 POP SWAP2 SWAP1 POP JUMP JUMPDEST PUSH0 PUSH2 0xD58 DUP3 PUSH2 0xD2F JUMP JUMPDEST SWAP1 POP SWAP2 SWAP1 POP JUMP JUMPDEST PUSH2 0xD68 DUP2 PUSH2 0xD4E JUMP JUMPDEST DUP2 EQ PUSH2 0xD72 JUMPI PUSH0 DUP1 REVERT JUMPDEST POP JUMP JUMPDEST PUSH0 DUP2 CALLDATALOAD SWAP1 POP PUSH2 0xD83 DUP2 PUSH2 0xD5F JUMP JUMPDEST SWAP3 SWAP2 POP POP JUMP JUMPDEST PUSH0 DUP2 SWAP1 POP SWAP2 SWAP1 POP JUMP JUMPDEST PUSH2 0xD9B DUP2 PUSH2 0xD89 JUMP JUMPDEST DUP2 EQ PUSH2 0xDA5 JUMPI PUSH0 DUP1 REVERT JUMPDEST POP JUMP JUMPDEST PUSH0 DUP2 CALLDATALOAD SWAP1 POP PUSH2 0xDB6 DUP2 PUSH2 0xD92 JUMP JUMPDEST SWAP3 SWAP2 POP POP JUMP JUMPDEST PUSH0 DUP1 PUSH0 PUSH1 0x60 DUP5 DUP7 SUB SLT ISZERO PUSH2 0xDD3 JUMPI PUSH2 0xDD2 PUSH2 0xD2B JUMP JUMPDEST JUMPDEST PUSH0 PUSH2 0xDE0 DUP7 DUP3 DUP8 ADD PUSH2 0xD75 JUMP JUMPDEST SWAP4 POP POP PUSH1 0x20 PUSH2 0xDF1 DUP7 DUP3 DUP8 ADD PUSH2 0xDA8 JUMP JUMPDEST SWAP3 POP POP PUSH1 0x40 PUSH2 0xE02 DUP7 DUP3 DUP8 ADD PUSH2 0xDA8 JUMP JUMPDEST SWAP2 POP POP SWAP3 POP SWAP3 POP SWAP3 JUMP JUMPDEST PUSH0 DUP1 PUSH1 0x40 DUP4 DUP6 SUB SLT ISZERO PUSH2 0xE22 JUMPI PUSH2 0xE21 PUSH2 0xD2B JUMP JUMPDEST JUMPDEST PUSH0 PUSH2 0xE2F DUP6 DUP3 DUP7 ADD PUSH2 0xD75 JUMP JUMPDEST SWAP3 POP POP PUSH1 0x20 PUSH2 0xE40 DUP6 DUP3 DUP7 ADD PUSH2 0xDA8 JUMP JUMPDEST SWAP2 POP POP SWAP3 POP SWAP3 SWAP1 POP JUMP JUMPDEST PUSH0 DUP2 MLOAD SWAP1 POP SWAP2 SWAP1 POP JUMP JUMPDEST PUSH0 DUP3 DUP3 MSTORE PUSH1 0x20 DUP3 ADD SWAP1 POP SWAP3 SWAP2 POP POP JUMP JUMPDEST PUSH0 DUP2 SWAP1 POP PUSH1 0x20 DUP3 ADD SWAP1 POP SWAP2 SWAP1 POP JUMP JUMPDEST PUSH2 0xE7C DUP2 PUSH2 0xD4E JUMP JUMPDEST DUP3 MSTORE POP POP JUMP JUMPDEST PUSH2 0xE8B DUP2 PUSH2 0xD89 JUMP JUMPDEST DUP3 MSTORE POP POP JUMP JUMPDEST PUSH1 0xA0 DUP3 ADD PUSH0 DUP3 ADD MLOAD PUSH2 0xEA5 PUSH0 DUP6 ADD DUP3 PUSH2 0xE73 JUMP JUMPDEST POP PUSH1 0x20 DUP3 ADD MLOAD PUSH2 0xEB8 PUSH1 0x20 DUP6 ADD DUP3 PUSH2 0xE73 JUMP JUMPDEST POP PUSH1 0x40 DUP3 ADD MLOAD PUSH2 0xECB PUSH1 0x40 DUP6 ADD DUP3 PUSH2 0xE73 JUMP JUMPDEST POP PUSH1 0x60 DUP3 ADD MLOAD PUSH2 0xEDE PUSH1 0x60 DUP6 ADD DUP3 PUSH2 0xE82 JUMP JUMPDEST POP PUSH1 0x80 DUP3 ADD MLOAD PUSH2 0xEF1 PUSH1 0x80 DUP6 ADD DUP3 PUSH2 0xE82 JUMP JUMPDEST POP POP POP POP JUMP JUMPDEST PUSH0 PUSH2 0xF02 DUP4 DUP4 PUSH2 0xE91 JUMP JUMPDEST PUSH1 0xA0 DUP4 ADD SWAP1 POP SWAP3 SWAP2 POP POP JUMP JUMPDEST PUSH0 PUSH1 0x20 DUP3 ADD SWAP1 POP SWAP2 SWAP1 POP JUMP JUMPDEST PUSH0 PUSH2 0xF24 DUP3 PUSH2 0xE4A JUMP JUMPDEST PUSH2 0xF2E DUP2 DUP6 PUSH2 0xE54 JUMP JUMPDEST SWAP4 POP PUSH2 0xF39 DUP4 PUSH2 0xE64 JUMP JUMPDEST DUP1 PUSH0 JUMPDEST DUP4 DUP2 LT ISZERO PUSH2 0xF69 JUMPI DUP2 MLOAD PUSH2 0xF50 DUP9 DUP3 PUSH2 0xEF7 JUMP JUMPDEST SWAP8 POP PUSH2 0xF5B DUP4 PUSH2 0xF0E JUMP JUMPDEST SWAP3 POP POP PUSH1 0x1 DUP2 ADD SWAP1 POP PUSH2 0xF3C JUMP JUMPDEST POP DUP6 SWAP4 POP POP POP POP SWAP3 SWAP2 POP POP JUMP JUMPDEST PUSH0 PUSH1 0x20 DUP3 ADD SWAP1 POP DUP2 DUP2 SUB PUSH0 DUP4 ADD MSTORE PUSH2 0xF8E DUP2 DUP5 PUSH2 0xF1A JUMP JUMPDEST SWAP1 POP SWAP3 SWAP2 POP POP JUMP JUMPDEST PUSH0 DUP2 SWAP1 POP SWAP2 SWAP1 POP JUMP JUMPDEST PUSH0 PUSH2 0xFB9 PUSH2 0xFB4 PUSH2 0xFAF DUP5 PUSH2 0xD2F JUMP JUMPDEST PUSH2 0xF96 JUMP JUMPDEST PUSH2 0xD2F JUMP JUMPDEST SWAP1 POP SWAP2 SWAP1 POP JUMP JUMPDEST PUSH0 PUSH2 0xFCA DUP3 PUSH2 0xF9F JUMP JUMPDEST SWAP1 POP SWAP2 SWAP1 POP JUMP JUMPDEST PUSH0 PUSH2 0xFDB DUP3 PUSH2 0xFC0 JUMP JUMPDEST SWAP1 POP SWAP2 SWAP1 POP JUMP JUMPDEST PUSH2 0xFEB DUP2 PUSH2 0xFD1 JUMP JUMPDEST DUP3 MSTORE POP POP JUMP JUMPDEST PUSH0 PUSH1 0x20 DUP3 ADD SWAP1 POP PUSH2 0x1004 PUSH0 DUP4 ADD DUP5 PUSH2 0xFE2 JUMP JUMPDEST SWAP3 SWAP2 POP POP JUMP JUMPDEST PUSH2 0x1013 DUP2 PUSH2 0xD89 JUMP JUMPDEST DUP3 MSTORE POP POP JUMP JUMPDEST PUSH0 PUSH1 0x20 DUP3 ADD SWAP1 POP PUSH2 0x102C PUSH0 DUP4 ADD DUP5 PUSH2 0x100A JUMP JUMPDEST SWAP3 SWAP2 POP POP JUMP JUMPDEST PUSH0 DUP2 MLOAD SWAP1 POP PUSH2 0x1040 DUP2 PUSH2 0xD5F JUMP JUMPDEST SWAP3 SWAP2 POP POP JUMP JUMPDEST PUSH0 PUSH1 0x20 DUP3 DUP5 SUB SLT ISZERO PUSH2 0x105B JUMPI PUSH2 0x105A PUSH2 0xD2B JUMP JUMPDEST JUMPDEST PUSH0 PUSH2 0x1068 DUP5 DUP3 DUP6 ADD PUSH2 0x1032 JUMP JUMPDEST SWAP2 POP POP SWAP3 SWAP2 POP POP JUMP JUMPDEST PUSH0 DUP3 DUP3 MSTORE PUSH1 0x20 DUP3 ADD SWAP1 POP SWAP3 SWAP2 POP POP JUMP JUMPDEST PUSH32 0x72657175697265206F776E657200000000000000000000000000000000000000 PUSH0 DUP3 ADD MSTORE POP JUMP JUMPDEST PUSH0 PUSH2 0x10B5 PUSH1 0xD DUP4 PUSH2 0x1071 JUMP JUMPDEST SWAP2 POP PUSH2 0x10C0 DUP3 PUSH2 0x1081 JUMP JUMPDEST PUSH1 0x20 DUP3 ADD SWAP1 POP SWAP2 SWAP1 POP JUMP JUMPDEST PUSH0 PUSH1 0x20 DUP3 ADD SWAP1 POP DUP2 DUP2 SUB PUSH0 DUP4 ADD MSTORE PUSH2 0x10E2 DUP2 PUSH2 0x10A9 JUMP JUMPDEST SWAP1 POP SWAP2 SWAP1 POP JUMP JUMPDEST PUSH2 0x10F2 DUP2 PUSH2 0xD4E JUMP JUMPDEST DUP3 MSTORE POP POP JUMP JUMPDEST PUSH0 PUSH1 0x40 DUP3 ADD SWAP1 POP PUSH2 0x110B PUSH0 DUP4 ADD DUP6 PUSH2 0x10E9 JUMP JUMPDEST PUSH2 0x1118 PUSH1 0x20 DUP4 ADD DUP5 PUSH2 0x10E9 JUMP JUMPDEST SWAP4 SWAP3 POP POP POP JUMP JUMPDEST PUSH0 DUP2 ISZERO ISZERO SWAP1 POP SWAP2 SWAP1 POP JUMP JUMPDEST PUSH2 0x1133 DUP2 PUSH2 0x111F JUMP JUMPDEST DUP2 EQ PUSH2 0x113D JUMPI PUSH0 DUP1 REVERT JUMPDEST POP JUMP JUMPDEST PUSH0 DUP2 MLOAD SWAP1 POP PUSH2 0x114E DUP2 PUSH2 0x112A JUMP JUMPDEST SWAP3 SWAP2 POP POP JUMP JUMPDEST PUSH0 PUSH1 0x20 DUP3 DUP5 SUB SLT ISZERO PUSH2 0x1169 JUMPI PUSH2 0x1168 PUSH2 0xD2B JUMP JUMPDEST JUMPDEST PUSH0 PUSH2 0x1176 DUP5 DUP3 DUP6 ADD PUSH2 0x1140 JUMP JUMPDEST SWAP2 POP POP SWAP3 SWAP2 POP POP JUMP JUMPDEST PUSH32 0x6E6F7420617070726F7665640000000000000000000000000000000000000000 PUSH0 DUP3 ADD MSTORE POP JUMP JUMPDEST PUSH0 PUSH2 0x11B3 PUSH1 0xC DUP4 PUSH2 0x1071 JUMP JUMPDEST SWAP2 POP PUSH2 0x11BE DUP3 PUSH2 0x117F JUMP JUMPDEST PUSH1 0x20 DUP3 ADD SWAP1 POP SWAP2 SWAP1 POP JUMP JUMPDEST PUSH0 PUSH1 0x20 DUP3 ADD SWAP1 POP DUP2 DUP2 SUB PUSH0 DUP4 ADD MSTORE PUSH2 0x11E0 DUP2 PUSH2 0x11A7 JUMP JUMPDEST SWAP1 POP SWAP2 SWAP1 POP JUMP JUMPDEST PUSH32 0x7265717569726564206E667420646F6573206E6F742065786973740000000000 PUSH0 DUP3 ADD MSTORE POP JUMP JUMPDEST PUSH0 PUSH2 0x121B PUSH1 0x1B DUP4 PUSH2 0x1071 JUMP JUMPDEST SWAP2 POP PUSH2 0x1226 DUP3 PUSH2 0x11E7 JUMP JUMPDEST PUSH1 0x20 DUP3 ADD SWAP1 POP SWAP2 SWAP1 POP JUMP JUMPDEST PUSH0 PUSH1 0x20 DUP3 ADD SWAP1 POP DUP2 DUP2 SUB PUSH0 DUP4 ADD MSTORE PUSH2 0x1248 DUP2 PUSH2 0x120F JUMP JUMPDEST SWAP1 POP SWAP2 SWAP1 POP JUMP JUMPDEST PUSH32 0x6E667420736F6C64206F75740000000000000000000000000000000000000000 PUSH0 DUP3 ADD MSTORE POP JUMP JUMPDEST PUSH0 PUSH2 0x1283 PUSH1 0xC DUP4 PUSH2 0x1071 JUMP JUMPDEST SWAP2 POP PUSH2 0x128E DUP3 PUSH2 0x124F JUMP JUMPDEST PUSH1 0x20 DUP3 ADD SWAP1 POP SWAP2 SWAP1 POP JUMP JUMPDEST PUSH0 PUSH1 0x20 DUP3 ADD SWAP1 POP DUP2 DUP2 SUB PUSH0 DUP4 ADD MSTORE PUSH2 0x12B0 DUP2 PUSH2 0x1277 JUMP JUMPDEST SWAP1 POP SWAP2 SWAP1 POP JUMP JUMPDEST PUSH0 PUSH1 0x60 DUP3 ADD SWAP1 POP PUSH2 0x12CA PUSH0 DUP4 ADD DUP7 PUSH2 0x10E9 JUMP JUMPDEST PUSH2 0x12D7 PUSH1 0x20 DUP4 ADD DUP6 PUSH2 0x10E9 JUMP JUMPDEST PUSH2 0x12E4 PUSH1 0x40 DUP4 ADD DUP5 PUSH2 0x100A JUMP JUMPDEST SWAP5 SWAP4 POP POP POP POP JUMP JUMPDEST PUSH32 0x6661696C656420746F2070617900000000000000000000000000000000000000 PUSH0 DUP3 ADD MSTORE POP JUMP JUMPDEST PUSH0 PUSH2 0x1320 PUSH1 0xD DUP4 PUSH2 0x1071 JUMP JUMPDEST SWAP2 POP PUSH2 0x132B DUP3 PUSH2 0x12EC JUMP JUMPDEST PUSH1 0x20 DUP3 ADD SWAP1 POP SWAP2 SWAP1 POP JUMP JUMPDEST PUSH0 PUSH1 0x20 DUP3 ADD SWAP1 POP DUP2 DUP2 SUB PUSH0 DUP4 ADD MSTORE PUSH2 0x134D DUP2 PUSH2 0x1314 JUMP JUMPDEST SWAP1 POP SWAP2 SWAP1 POP JUMP JUMPDEST PUSH0 PUSH1 0x40 DUP3 ADD SWAP1 POP PUSH2 0x1367 PUSH0 DUP4 ADD DUP6 PUSH2 0x100A JUMP JUMPDEST PUSH2 0x1374 PUSH1 0x20 DUP4 ADD DUP5 PUSH2 0x100A JUMP JUMPDEST SWAP4 SWAP3 POP POP POP JUMP JUMPDEST PUSH32 0x4E487B7100000000000000000000000000000000000000000000000000000000 PUSH0 MSTORE PUSH1 0x41 PUSH1 0x4 MSTORE PUSH1 0x24 PUSH0 REVERT JUMPDEST PUSH32 0x4E487B7100000000000000000000000000000000000000000000000000000000 PUSH0 MSTORE PUSH1 0x32 PUSH1 0x4 MSTORE PUSH1 0x24 PUSH0 REVERT INVALID LOG2 PUSH5 0x6970667358 0x22 SLT KECCAK256 0xE6 ISZERO 0xE5 LT BASEFEE 0xD0 SUB CALLVALUE DUP6 TLOAD GAS DUP1 0xD7 SLT NUMBER 0xB8 0xEE SWAP9 MLOAD EQ DUP14 0xCA 0xC2 PUSH8 0x134283D1E7943CA5 PUSH5 0x736F6C6343 STOP ADDMOD BYTE STOP CALLER "
				},
				"gasEstimates": {
					"creation": {
						"codeDepositCost": "1026200",
						"executionCost": "infinite",
						"totalCost": "infinite"
					},
					"external": {
						"buyNFT(address,uint256)": "infinite",
						"currency()": "infinite",
						"getAllListings()": "infinite",
						"listingNFT(address,uint256,uint256)": "infinite"
					}
				},
				"methodIdentifiers": {
					"buyNFT(address,uint256)": "a82ba76f",
					"currency()": "e5a6b10f",
					"getAllListings()": "ae73ccec",
					"listingNFT(address,uint256,uint256)": "2ea1a03f"
				}
			},
			"storageLayout": {
				"storage": [
					{
						"astId": 255,
						"contract": "contracts/market.sol:BryanMarket",
						"label": "all",
						"offset": 0,
						"slot": "0",
						"type": "t_array(t_struct(ListingKey)226_storage)dyn_storage"
					},
					{
						"astId": 262,
						"contract": "contracts/market.sol:BryanMarket",
						"label": "listings",
						"offset": 0,
						"slot": "1",
						"type": "t_mapping(t_address,t_mapping(t_uint256,t_struct(Listing)221_storage))"
					}
				],
				"types": {
					"t_address": {
						"encoding": "inplace",
						"label": "address",
						"numberOfBytes": "20"
					},
					"t_array(t_struct(ListingKey)226_storage)dyn_storage": {
						"base": "t_struct(ListingKey)226_storage",
						"encoding": "dynamic_array",
						"label": "struct ListingKey[]",
						"numberOfBytes": "32"
					},
					"t_mapping(t_address,t_mapping(t_uint256,t_struct(Listing)221_storage))": {
						"encoding": "mapping",
						"key": "t_address",
						"label": "mapping(address => mapping(uint256 => struct Listing))",
						"numberOfBytes": "32",
						"value": "t_mapping(t_uint256,t_struct(Listing)221_storage)"
					},
					"t_mapping(t_uint256,t_struct(Listing)221_storage)": {
						"encoding": "mapping",
						"key": "t_uint256",
						"label": "mapping(uint256 => struct Listing)",
						"numberOfBytes": "32",
						"value": "t_struct(Listing)221_storage"
					},
					"t_struct(Listing)221_storage": {
						"encoding": "inplace",
						"label": "struct Listing",
						"members": [
							{
								"astId": 212,
								"contract": "contracts/market.sol:BryanMarket",
								"label": "seller",
								"offset": 0,
								"slot": "0",
								"type": "t_address"
							},
							{
								"astId": 214,
								"contract": "contracts/market.sol:BryanMarket",
								"label": "buyer",
								"offset": 0,
								"slot": "1",
								"type": "t_address"
							},
							{
								"astId": 216,
								"contract": "contracts/market.sol:BryanMarket",
								"label": "nftContract",
								"offset": 0,
								"slot": "2",
								"type": "t_address"
							},
							{
								"astId": 218,
								"contract": "contracts/market.sol:BryanMarket",
								"label": "tokenId",
								"offset": 0,
								"slot": "3",
								"type": "t_uint256"
							},
							{
								"astId": 220,
								"contract": "contracts/market.sol:BryanMarket",
								"label": "pricing",
								"offset": 0,
								"slot": "4",
								"type": "t_uint256"
							}
						],
						"numberOfBytes": "160"
					},
					"t_struct(ListingKey)226_storage": {
						"encoding": "inplace",
						"label": "struct ListingKey",
						"members": [
							{
								"astId": 223,
								"contract": "contracts/market.sol:BryanMarket",
								"label": "nftContract",
								"offset": 0,
								"slot": "0",
								"type": "t_address"
							},
							{
								"astId": 225,
								"contract": "contracts/market.sol:BryanMarket",
								"label": "tokenId",
								"offset": 0,
								"slot": "1",
								"type": "t_uint256"
							}
						],
						"numberOfBytes": "64"
					},
					"t_uint256": {
						"encoding": "inplace",
						"label": "uint256",
						"numberOfBytes": "32"
					}
				}
			},
			"userdoc": {
				"kind": "user",
				"methods": {},
				"version": 1
			}
		}
	}
}