{
	"members/zpjayyy/task3/my-contract/src/NftMarket.sol": {
		"NftMarket": {
			"abi": [
				{
					"inputs": [
						{
							"internalType": "address",
							"name": "_myTokenAddress",
							"type": "address"
						}
					],
					"stateMutability": "nonpayable",
					"type": "constructor"
				},
				{
					"anonymous": false,
					"inputs": [
						{
							"indexed": true,
							"internalType": "address",
							"name": "seller",
							"type": "address"
						},
						{
							"indexed": true,
							"internalType": "address",
							"name": "nftAddr",
							"type": "address"
						},
						{
							"indexed": true,
							"internalType": "uint256",
							"name": "tokenId",
							"type": "uint256"
						},
						{
							"indexed": false,
							"internalType": "uint256",
							"name": "price",
							"type": "uint256"
						}
					],
					"name": "List",
					"type": "event"
				},
				{
					"anonymous": false,
					"inputs": [
						{
							"indexed": true,
							"internalType": "address",
							"name": "buyer",
							"type": "address"
						},
						{
							"indexed": true,
							"internalType": "address",
							"name": "nftAddr",
							"type": "address"
						},
						{
							"indexed": true,
							"internalType": "uint256",
							"name": "tokenId",
							"type": "uint256"
						},
						{
							"indexed": false,
							"internalType": "uint256",
							"name": "price",
							"type": "uint256"
						}
					],
					"name": "Purchase",
					"type": "event"
				},
				{
					"inputs": [
						{
							"internalType": "address",
							"name": "_nftAddress",
							"type": "address"
						},
						{
							"internalType": "uint256",
							"name": "_tokenId",
							"type": "uint256"
						},
						{
							"internalType": "uint256",
							"name": "_price",
							"type": "uint256"
						}
					],
					"name": "list",
					"outputs": [],
					"stateMutability": "nonpayable",
					"type": "function"
				},
				{
					"inputs": [
						{
							"internalType": "address",
							"name": "operator",
							"type": "address"
						},
						{
							"internalType": "address",
							"name": "from",
							"type": "address"
						},
						{
							"internalType": "uint256",
							"name": "tokenId",
							"type": "uint256"
						},
						{
							"internalType": "bytes",
							"name": "data",
							"type": "bytes"
						}
					],
					"name": "onERC721Received",
					"outputs": [
						{
							"internalType": "bytes4",
							"name": "",
							"type": "bytes4"
						}
					],
					"stateMutability": "nonpayable",
					"type": "function"
				},
				{
					"inputs": [
						{
							"internalType": "address",
							"name": "",
							"type": "address"
						},
						{
							"internalType": "uint256",
							"name": "",
							"type": "uint256"
						}
					],
					"name": "orderList",
					"outputs": [
						{
							"internalType": "address",
							"name": "owner",
							"type": "address"
						},
						{
							"internalType": "uint256",
							"name": "price",
							"type": "uint256"
						}
					],
					"stateMutability": "view",
					"type": "function"
				},
				{
					"inputs": [
						{
							"internalType": "address",
							"name": "_nftAddress",
							"type": "address"
						},
						{
							"internalType": "uint256",
							"name": "_tokenId",
							"type": "uint256"
						}
					],
					"name": "purchase",
					"outputs": [],
					"stateMutability": "nonpayable",
					"type": "function"
				}
			],
			"devdoc": {
				"kind": "dev",
				"methods": {
					"onERC721Received(address,address,uint256,bytes)": {
						"details": "Whenever an {IERC721} `tokenId` token is transferred to this contract via {IERC721-safeTransferFrom} by `operator` from `from`, this function is called. It must return its Solidity selector to confirm the token transfer. If any other value is returned or the interface is not implemented by the recipient, the transfer will be reverted. The selector can be obtained in Solidity with `IERC721Receiver.onERC721Received.selector`."
					}
				},
				"version": 1
			},
			"evm": {
				"assembly": "    /* \"members/zpjayyy/task3/my-contract/src/NftMarket.sol\":294:2388  contract NftMarket is IERC721Receiver {... */\n  mstore(0x40, 0x80)\n    /* \"members/zpjayyy/task3/my-contract/src/NftMarket.sol\":800:888  constructor(address _myTokenAddress) {... */\n  callvalue\n  dup1\n  iszero\n  tag_1\n  jumpi\n  0x00\n  dup1\n  revert\ntag_1:\n  pop\n  mload(0x40)\n  sub(codesize, bytecodeSize)\n  dup1\n  bytecodeSize\n  dup4\n  codecopy\n  dup2\n  dup2\n  add\n  0x40\n  mstore\n  dup2\n  add\n  swap1\n  tag_2\n  swap2\n  swap1\n  tag_3\n  jump\t// in\ntag_2:\n    /* \"members/zpjayyy/task3/my-contract/src/NftMarket.sol\":865:880  _myTokenAddress */\n  dup1\n    /* \"members/zpjayyy/task3/my-contract/src/NftMarket.sol\":847:855  _myToken */\n  0x01\n  0x00\n    /* \"members/zpjayyy/task3/my-contract/src/NftMarket.sol\":847:881  _myToken = IERC20(_myTokenAddress) */\n  0x0100\n  exp\n  dup2\n  sload\n  dup2\n  0xffffffffffffffffffffffffffffffffffffffff\n  mul\n  not\n  and\n  swap1\n  dup4\n  0xffffffffffffffffffffffffffffffffffffffff\n  and\n  mul\n  or\n  swap1\n  sstore\n  pop\n    /* \"members/zpjayyy/task3/my-contract/src/NftMarket.sol\":800:888  constructor(address _myTokenAddress) {... */\n  pop\n    /* \"members/zpjayyy/task3/my-contract/src/NftMarket.sol\":294:2388  contract NftMarket is IERC721Receiver {... */\n  jump(tag_6)\n    /* \"#utility.yul\":88:205   */\ntag_8:\n    /* \"#utility.yul\":197:198   */\n  0x00\n    /* \"#utility.yul\":194:195   */\n  dup1\n    /* \"#utility.yul\":187:199   */\n  revert\n    /* \"#utility.yul\":334:460   */\ntag_10:\n    /* \"#utility.yul\":371:378   */\n  0x00\n    /* \"#utility.yul\":411:453   */\n  0xffffffffffffffffffffffffffffffffffffffff\n    /* \"#utility.yul\":404:409   */\n  dup3\n    /* \"#utility.yul\":400:454   */\n  and\n    /* \"#utility.yul\":389:454   */\n  swap1\n  pop\n    /* \"#utility.yul\":334:460   */\n  swap2\n  swap1\n  pop\n  jump\t// out\n    /* \"#utility.yul\":466:562   */\ntag_11:\n    /* \"#utility.yul\":503:510   */\n  0x00\n    /* \"#utility.yul\":532:556   */\n  tag_20\n    /* \"#utility.yul\":550:555   */\n  dup3\n    /* \"#utility.yul\":532:556   */\n  tag_10\n  jump\t// in\ntag_20:\n    /* \"#utility.yul\":521:556   */\n  swap1\n  pop\n    /* \"#utility.yul\":466:562   */\n  swap2\n  swap1\n  pop\n  jump\t// out\n    /* \"#utility.yul\":568:690   */\ntag_12:\n    /* \"#utility.yul\":641:665   */\n  tag_22\n    /* \"#utility.yul\":659:664   */\n  dup2\n    /* \"#utility.yul\":641:665   */\n  tag_11\n  jump\t// in\ntag_22:\n    /* \"#utility.yul\":634:639   */\n  dup2\n    /* \"#utility.yul\":631:666   */\n  eq\n    /* \"#utility.yul\":621:684   */\n  tag_23\n  jumpi\n    /* \"#utility.yul\":680:681   */\n  0x00\n    /* \"#utility.yul\":677:678   */\n  dup1\n    /* \"#utility.yul\":670:682   */\n  revert\n    /* \"#utility.yul\":621:684   */\ntag_23:\n    /* \"#utility.yul\":568:690   */\n  pop\n  jump\t// out\n    /* \"#utility.yul\":696:839   */\ntag_13:\n    /* \"#utility.yul\":753:758   */\n  0x00\n    /* \"#utility.yul\":784:790   */\n  dup2\n    /* \"#utility.yul\":778:791   */\n  mload\n    /* \"#utility.yul\":769:791   */\n  swap1\n  pop\n    /* \"#utility.yul\":800:833   */\n  tag_25\n    /* \"#utility.yul\":827:832   */\n  dup2\n    /* \"#utility.yul\":800:833   */\n  tag_12\n  jump\t// in\ntag_25:\n    /* \"#utility.yul\":696:839   */\n  swap3\n  swap2\n  pop\n  pop\n  jump\t// out\n    /* \"#utility.yul\":845:1196   */\ntag_3:\n    /* \"#utility.yul\":915:921   */\n  0x00\n    /* \"#utility.yul\":964:966   */\n  0x20\n    /* \"#utility.yul\":952:961   */\n  dup3\n    /* \"#utility.yul\":943:950   */\n  dup5\n    /* \"#utility.yul\":939:962   */\n  sub\n    /* \"#utility.yul\":935:967   */\n  slt\n    /* \"#utility.yul\":932:1051   */\n  iszero\n  tag_27\n  jumpi\n    /* \"#utility.yul\":970:1049   */\n  tag_28\n  tag_8\n  jump\t// in\ntag_28:\n    /* \"#utility.yul\":932:1051   */\ntag_27:\n    /* \"#utility.yul\":1090:1091   */\n  0x00\n    /* \"#utility.yul\":1115:1179   */\n  tag_29\n    /* \"#utility.yul\":1171:1178   */\n  dup5\n    /* \"#utility.yul\":1162:1168   */\n  dup3\n    /* \"#utility.yul\":1151:1160   */\n  dup6\n    /* \"#utility.yul\":1147:1169   */\n  add\n    /* \"#utility.yul\":1115:1179   */\n  tag_13\n  jump\t// in\ntag_29:\n    /* \"#utility.yul\":1105:1179   */\n  swap2\n  pop\n    /* \"#utility.yul\":1061:1189   */\n  pop\n    /* \"#utility.yul\":845:1196   */\n  swap3\n  swap2\n  pop\n  pop\n  jump\t// out\n    /* \"members/zpjayyy/task3/my-contract/src/NftMarket.sol\":294:2388  contract NftMarket is IERC721Receiver {... */\ntag_6:\n  dataSize(sub_0)\n  dup1\n  dataOffset(sub_0)\n  0x00\n  codecopy\n  0x00\n  return\nstop\n\nsub_0: assembly {\n        /* \"members/zpjayyy/task3/my-contract/src/NftMarket.sol\":294:2388  contract NftMarket is IERC721Receiver {... */\n      mstore(0x40, 0x80)\n      callvalue\n      dup1\n      iszero\n      tag_1\n      jumpi\n      0x00\n      dup1\n      revert\n    tag_1:\n      pop\n      jumpi(tag_2, lt(calldatasize, 0x04))\n      shr(0xe0, calldataload(0x00))\n      dup1\n      0x150b7a02\n      eq\n      tag_3\n      jumpi\n      dup1\n      0x8de93222\n      eq\n      tag_4\n      jumpi\n      dup1\n      0xdda342bb\n      eq\n      tag_5\n      jumpi\n      dup1\n      0xf4fb9b2f\n      eq\n      tag_6\n      jumpi\n    tag_2:\n      0x00\n      dup1\n      revert\n        /* \"members/zpjayyy/task3/my-contract/src/NftMarket.sol\":2152:2386  function onERC721Received(... */\n    tag_3:\n      tag_7\n      0x04\n      dup1\n      calldatasize\n      sub\n      dup2\n      add\n      swap1\n      tag_8\n      swap2\n      swap1\n      tag_9\n      jump\t// in\n    tag_8:\n      tag_10\n      jump\t// in\n    tag_7:\n      mload(0x40)\n      tag_11\n      swap2\n      swap1\n      tag_12\n      jump\t// in\n    tag_11:\n      mload(0x40)\n      dup1\n      swap2\n      sub\n      swap1\n      return\n        /* \"members/zpjayyy/task3/my-contract/src/NftMarket.sol\":1501:2146  function purchase(address _nftAddress, uint256 _tokenId) public {... */\n    tag_4:\n      tag_13\n      0x04\n      dup1\n      calldatasize\n      sub\n      dup2\n      add\n      swap1\n      tag_14\n      swap2\n      swap1\n      tag_15\n      jump\t// in\n    tag_14:\n      tag_16\n      jump\t// in\n    tag_13:\n      stop\n        /* \"members/zpjayyy/task3/my-contract/src/NftMarket.sol\":894:1495  function list(... */\n    tag_5:\n      tag_17\n      0x04\n      dup1\n      calldatasize\n      sub\n      dup2\n      add\n      swap1\n      tag_18\n      swap2\n      swap1\n      tag_19\n      jump\t// in\n    tag_18:\n      tag_20\n      jump\t// in\n    tag_17:\n      stop\n        /* \"members/zpjayyy/task3/my-contract/src/NftMarket.sol\":701:763  mapping(address => mapping(uint256 => Order)) public orderList */\n    tag_6:\n      tag_21\n      0x04\n      dup1\n      calldatasize\n      sub\n      dup2\n      add\n      swap1\n      tag_22\n      swap2\n      swap1\n      tag_15\n      jump\t// in\n    tag_22:\n      tag_23\n      jump\t// in\n    tag_21:\n      mload(0x40)\n      tag_24\n      swap3\n      swap2\n      swap1\n      tag_25\n      jump\t// in\n    tag_24:\n      mload(0x40)\n      dup1\n      swap2\n      sub\n      swap1\n      return\n        /* \"members/zpjayyy/task3/my-contract/src/NftMarket.sol\":2152:2386  function onERC721Received(... */\n    tag_10:\n        /* \"members/zpjayyy/task3/my-contract/src/NftMarket.sol\":2313:2319  bytes4 */\n      0x00\n        /* \"members/zpjayyy/task3/my-contract/src/NftMarket.sol\":2338:2379  IERC721Receiver.onERC721Received.selector */\n      shl(0xe0, 0x150b7a02)\n        /* \"members/zpjayyy/task3/my-contract/src/NftMarket.sol\":2331:2379  return IERC721Receiver.onERC721Received.selector */\n      swap1\n      pop\n        /* \"members/zpjayyy/task3/my-contract/src/NftMarket.sol\":2152:2386  function onERC721Received(... */\n      swap6\n      swap5\n      pop\n      pop\n      pop\n      pop\n      pop\n      jump\t// out\n        /* \"members/zpjayyy/task3/my-contract/src/NftMarket.sol\":1501:2146  function purchase(address _nftAddress, uint256 _tokenId) public {... */\n    tag_16:\n        /* \"members/zpjayyy/task3/my-contract/src/NftMarket.sol\":1575:1595  Order storage _order */\n      0x00\n        /* \"members/zpjayyy/task3/my-contract/src/NftMarket.sol\":1598:1607  orderList */\n      dup1\n        /* \"members/zpjayyy/task3/my-contract/src/NftMarket.sol\":1598:1620  orderList[_nftAddress] */\n      0x00\n        /* \"members/zpjayyy/task3/my-contract/src/NftMarket.sol\":1608:1619  _nftAddress */\n      dup5\n        /* \"members/zpjayyy/task3/my-contract/src/NftMarket.sol\":1598:1620  orderList[_nftAddress] */\n      0xffffffffffffffffffffffffffffffffffffffff\n      and\n      0xffffffffffffffffffffffffffffffffffffffff\n      and\n      dup2\n      mstore\n      0x20\n      add\n      swap1\n      dup2\n      mstore\n      0x20\n      add\n      0x00\n      keccak256\n        /* \"members/zpjayyy/task3/my-contract/src/NftMarket.sol\":1598:1630  orderList[_nftAddress][_tokenId] */\n      0x00\n        /* \"members/zpjayyy/task3/my-contract/src/NftMarket.sol\":1621:1629  _tokenId */\n      dup4\n        /* \"members/zpjayyy/task3/my-contract/src/NftMarket.sol\":1598:1630  orderList[_nftAddress][_tokenId] */\n      dup2\n      mstore\n      0x20\n      add\n      swap1\n      dup2\n      mstore\n      0x20\n      add\n      0x00\n      keccak256\n        /* \"members/zpjayyy/task3/my-contract/src/NftMarket.sol\":1575:1630  Order storage _order = orderList[_nftAddress][_tokenId] */\n      swap1\n      pop\n        /* \"members/zpjayyy/task3/my-contract/src/NftMarket.sol\":1694:1700  _order */\n      dup1\n        /* \"members/zpjayyy/task3/my-contract/src/NftMarket.sol\":1694:1706  _order.price */\n      0x01\n      add\n      sload\n        /* \"members/zpjayyy/task3/my-contract/src/NftMarket.sol\":1661:1669  _myToken */\n      0x01\n      0x00\n      swap1\n      sload\n      swap1\n      0x0100\n      exp\n      swap1\n      div\n      0xffffffffffffffffffffffffffffffffffffffff\n      and\n        /* \"members/zpjayyy/task3/my-contract/src/NftMarket.sol\":1661:1679  _myToken.balanceOf */\n      0xffffffffffffffffffffffffffffffffffffffff\n      and\n      0x70a08231\n        /* \"members/zpjayyy/task3/my-contract/src/NftMarket.sol\":1680:1690  msg.sender */\n      caller\n        /* \"members/zpjayyy/task3/my-contract/src/NftMarket.sol\":1661:1691  _myToken.balanceOf(msg.sender) */\n      mload(0x40)\n      dup3\n      0xffffffff\n      and\n      0xe0\n      shl\n      dup2\n      mstore\n      0x04\n      add\n      tag_28\n      swap2\n      swap1\n      tag_29\n      jump\t// in\n    tag_28:\n      0x20\n      mload(0x40)\n      dup1\n      dup4\n      sub\n      dup2\n      dup7\n      gas\n      staticcall\n      iszero\n      dup1\n      iszero\n      tag_31\n      jumpi\n      returndatasize\n      0x00\n      dup1\n      returndatacopy\n      revert(0x00, returndatasize)\n    tag_31:\n      pop\n      pop\n      pop\n      pop\n      mload(0x40)\n      returndatasize\n      not(0x1f)\n      0x1f\n      dup3\n      add\n      and\n      dup3\n      add\n      dup1\n      0x40\n      mstore\n      pop\n      dup2\n      add\n      swap1\n      tag_32\n      swap2\n      swap1\n      tag_33\n      jump\t// in\n    tag_32:\n        /* \"members/zpjayyy/task3/my-contract/src/NftMarket.sol\":1661:1706  _myToken.balanceOf(msg.sender) > _order.price */\n      gt\n        /* \"members/zpjayyy/task3/my-contract/src/NftMarket.sol\":1640:1755  require(... */\n      tag_34\n      jumpi\n      mload(0x40)\n      0x08c379a000000000000000000000000000000000000000000000000000000000\n      dup2\n      mstore\n      0x04\n      add\n      tag_35\n      swap1\n      tag_36\n      jump\t// in\n    tag_35:\n      mload(0x40)\n      dup1\n      swap2\n      sub\n      swap1\n      revert\n    tag_34:\n        /* \"members/zpjayyy/task3/my-contract/src/NftMarket.sol\":1766:1778  IERC721 _nft */\n      0x00\n        /* \"members/zpjayyy/task3/my-contract/src/NftMarket.sol\":1789:1800  _nftAddress */\n      dup4\n        /* \"members/zpjayyy/task3/my-contract/src/NftMarket.sol\":1766:1801  IERC721 _nft = IERC721(_nftAddress) */\n      swap1\n      pop\n        /* \"members/zpjayyy/task3/my-contract/src/NftMarket.sol\":1853:1857  this */\n      address\n        /* \"members/zpjayyy/task3/my-contract/src/NftMarket.sol\":1819:1858  _nft.ownerOf(_tokenId) == address(this) */\n      0xffffffffffffffffffffffffffffffffffffffff\n      and\n        /* \"members/zpjayyy/task3/my-contract/src/NftMarket.sol\":1819:1823  _nft */\n      dup2\n        /* \"members/zpjayyy/task3/my-contract/src/NftMarket.sol\":1819:1831  _nft.ownerOf */\n      0xffffffffffffffffffffffffffffffffffffffff\n      and\n      0x6352211e\n        /* \"members/zpjayyy/task3/my-contract/src/NftMarket.sol\":1832:1840  _tokenId */\n      dup6\n        /* \"members/zpjayyy/task3/my-contract/src/NftMarket.sol\":1819:1841  _nft.ownerOf(_tokenId) */\n      mload(0x40)\n      dup3\n      0xffffffff\n      and\n      0xe0\n      shl\n      dup2\n      mstore\n      0x04\n      add\n      tag_37\n      swap2\n      swap1\n      tag_38\n      jump\t// in\n    tag_37:\n      0x20\n      mload(0x40)\n      dup1\n      dup4\n      sub\n      dup2\n      dup7\n      gas\n      staticcall\n      iszero\n      dup1\n      iszero\n      tag_40\n      jumpi\n      returndatasize\n      0x00\n      dup1\n      returndatacopy\n      revert(0x00, returndatasize)\n    tag_40:\n      pop\n      pop\n      pop\n      pop\n      mload(0x40)\n      returndatasize\n      not(0x1f)\n      0x1f\n      dup3\n      add\n      and\n      dup3\n      add\n      dup1\n      0x40\n      mstore\n      pop\n      dup2\n      add\n      swap1\n      tag_41\n      swap2\n      swap1\n      tag_42\n      jump\t// in\n    tag_41:\n        /* \"members/zpjayyy/task3/my-contract/src/NftMarket.sol\":1819:1858  _nft.ownerOf(_tokenId) == address(this) */\n      0xffffffffffffffffffffffffffffffffffffffff\n      and\n      eq\n        /* \"members/zpjayyy/task3/my-contract/src/NftMarket.sol\":1811:1876  require(_nft.ownerOf(_tokenId) == address(this), \"invalid order\") */\n      tag_43\n      jumpi\n      mload(0x40)\n      0x08c379a000000000000000000000000000000000000000000000000000000000\n      dup2\n      mstore\n      0x04\n      add\n      tag_44\n      swap1\n      tag_45\n      jump\t// in\n    tag_44:\n      mload(0x40)\n      dup1\n      swap2\n      sub\n      swap1\n      revert\n    tag_43:\n        /* \"members/zpjayyy/task3/my-contract/src/NftMarket.sol\":1887:1891  _nft */\n      dup1\n        /* \"members/zpjayyy/task3/my-contract/src/NftMarket.sol\":1887:1908  _nft.safeTransferFrom */\n      0xffffffffffffffffffffffffffffffffffffffff\n      and\n      0x42842e0e\n        /* \"members/zpjayyy/task3/my-contract/src/NftMarket.sol\":1917:1921  this */\n      address\n        /* \"members/zpjayyy/task3/my-contract/src/NftMarket.sol\":1924:1934  msg.sender */\n      caller\n        /* \"members/zpjayyy/task3/my-contract/src/NftMarket.sol\":1936:1944  _tokenId */\n      dup7\n        /* \"members/zpjayyy/task3/my-contract/src/NftMarket.sol\":1887:1945  _nft.safeTransferFrom(address(this), msg.sender, _tokenId) */\n      mload(0x40)\n      dup5\n      0xffffffff\n      and\n      0xe0\n      shl\n      dup2\n      mstore\n      0x04\n      add\n      tag_46\n      swap4\n      swap3\n      swap2\n      swap1\n      tag_47\n      jump\t// in\n    tag_46:\n      0x00\n      mload(0x40)\n      dup1\n      dup4\n      sub\n      dup2\n      0x00\n      dup8\n      dup1\n      extcodesize\n      iszero\n      dup1\n      iszero\n      tag_48\n      jumpi\n      0x00\n      dup1\n      revert\n    tag_48:\n      pop\n      gas\n      call\n      iszero\n      dup1\n      iszero\n      tag_50\n      jumpi\n      returndatasize\n      0x00\n      dup1\n      returndatacopy\n      revert(0x00, returndatasize)\n    tag_50:\n      pop\n      pop\n      pop\n      pop\n        /* \"members/zpjayyy/task3/my-contract/src/NftMarket.sol\":1955:1963  _myToken */\n      0x01\n      0x00\n      swap1\n      sload\n      swap1\n      0x0100\n      exp\n      swap1\n      div\n      0xffffffffffffffffffffffffffffffffffffffff\n      and\n        /* \"members/zpjayyy/task3/my-contract/src/NftMarket.sol\":1955:1976  _myToken.transferFrom */\n      0xffffffffffffffffffffffffffffffffffffffff\n      and\n      0x23b872dd\n        /* \"members/zpjayyy/task3/my-contract/src/NftMarket.sol\":1977:1987  msg.sender */\n      caller\n        /* \"members/zpjayyy/task3/my-contract/src/NftMarket.sol\":1989:1995  _order */\n      dup5\n        /* \"members/zpjayyy/task3/my-contract/src/NftMarket.sol\":1989:2001  _order.owner */\n      0x00\n      add\n      0x00\n      swap1\n      sload\n      swap1\n      0x0100\n      exp\n      swap1\n      div\n      0xffffffffffffffffffffffffffffffffffffffff\n      and\n        /* \"members/zpjayyy/task3/my-contract/src/NftMarket.sol\":2003:2009  _order */\n      dup6\n        /* \"members/zpjayyy/task3/my-contract/src/NftMarket.sol\":2003:2015  _order.price */\n      0x01\n      add\n      sload\n        /* \"members/zpjayyy/task3/my-contract/src/NftMarket.sol\":1955:2016  _myToken.transferFrom(msg.sender, _order.owner, _order.price) */\n      mload(0x40)\n      dup5\n      0xffffffff\n      and\n      0xe0\n      shl\n      dup2\n      mstore\n      0x04\n      add\n      tag_51\n      swap4\n      swap3\n      swap2\n      swap1\n      tag_47\n      jump\t// in\n    tag_51:\n      0x20\n      mload(0x40)\n      dup1\n      dup4\n      sub\n      dup2\n      0x00\n      dup8\n      gas\n      call\n      iszero\n      dup1\n      iszero\n      tag_53\n      jumpi\n      returndatasize\n      0x00\n      dup1\n      returndatacopy\n      revert(0x00, returndatasize)\n    tag_53:\n      pop\n      pop\n      pop\n      pop\n      mload(0x40)\n      returndatasize\n      not(0x1f)\n      0x1f\n      dup3\n      add\n      and\n      dup3\n      add\n      dup1\n      0x40\n      mstore\n      pop\n      dup2\n      add\n      swap1\n      tag_54\n      swap2\n      swap1\n      tag_55\n      jump\t// in\n    tag_54:\n      pop\n        /* \"members/zpjayyy/task3/my-contract/src/NftMarket.sol\":2034:2043  orderList */\n      0x00\n        /* \"members/zpjayyy/task3/my-contract/src/NftMarket.sol\":2034:2056  orderList[_nftAddress] */\n      dup1\n        /* \"members/zpjayyy/task3/my-contract/src/NftMarket.sol\":2044:2055  _nftAddress */\n      dup6\n        /* \"members/zpjayyy/task3/my-contract/src/NftMarket.sol\":2034:2056  orderList[_nftAddress] */\n      0xffffffffffffffffffffffffffffffffffffffff\n      and\n      0xffffffffffffffffffffffffffffffffffffffff\n      and\n      dup2\n      mstore\n      0x20\n      add\n      swap1\n      dup2\n      mstore\n      0x20\n      add\n      0x00\n      keccak256\n        /* \"members/zpjayyy/task3/my-contract/src/NftMarket.sol\":2034:2066  orderList[_nftAddress][_tokenId] */\n      0x00\n        /* \"members/zpjayyy/task3/my-contract/src/NftMarket.sol\":2057:2065  _tokenId */\n      dup5\n        /* \"members/zpjayyy/task3/my-contract/src/NftMarket.sol\":2034:2066  orderList[_nftAddress][_tokenId] */\n      dup2\n      mstore\n      0x20\n      add\n      swap1\n      dup2\n      mstore\n      0x20\n      add\n      0x00\n      keccak256\n      0x00\n        /* \"members/zpjayyy/task3/my-contract/src/NftMarket.sol\":2027:2066  delete orderList[_nftAddress][_tokenId] */\n      dup1\n      dup3\n      add\n      exp(0x0100, 0x00)\n      dup2\n      sload\n      swap1\n      0xffffffffffffffffffffffffffffffffffffffff\n      mul\n      not\n      and\n      swap1\n      sstore\n      0x01\n      dup3\n      add\n      0x00\n      swap1\n      sstore\n      pop\n      pop\n        /* \"members/zpjayyy/task3/my-contract/src/NftMarket.sol\":2116:2124  _tokenId */\n      dup3\n        /* \"members/zpjayyy/task3/my-contract/src/NftMarket.sol\":2103:2114  _nftAddress */\n      dup5\n        /* \"members/zpjayyy/task3/my-contract/src/NftMarket.sol\":2082:2139  Purchase(msg.sender, _nftAddress, _tokenId, _order.price) */\n      0xffffffffffffffffffffffffffffffffffffffff\n      and\n        /* \"members/zpjayyy/task3/my-contract/src/NftMarket.sol\":2091:2101  msg.sender */\n      caller\n        /* \"members/zpjayyy/task3/my-contract/src/NftMarket.sol\":2082:2139  Purchase(msg.sender, _nftAddress, _tokenId, _order.price) */\n      0xffffffffffffffffffffffffffffffffffffffff\n      and\n      0x46661dab58311a6838247afecbee792192b4f27fc8b3e7168c66bc55ec2e404e\n        /* \"members/zpjayyy/task3/my-contract/src/NftMarket.sol\":2126:2132  _order */\n      dup6\n        /* \"members/zpjayyy/task3/my-contract/src/NftMarket.sol\":2126:2138  _order.price */\n      0x01\n      add\n      sload\n        /* \"members/zpjayyy/task3/my-contract/src/NftMarket.sol\":2082:2139  Purchase(msg.sender, _nftAddress, _tokenId, _order.price) */\n      mload(0x40)\n      tag_56\n      swap2\n      swap1\n      tag_38\n      jump\t// in\n    tag_56:\n      mload(0x40)\n      dup1\n      swap2\n      sub\n      swap1\n      log4\n        /* \"members/zpjayyy/task3/my-contract/src/NftMarket.sol\":1565:2146  {... */\n      pop\n      pop\n        /* \"members/zpjayyy/task3/my-contract/src/NftMarket.sol\":1501:2146  function purchase(address _nftAddress, uint256 _tokenId) public {... */\n      pop\n      pop\n      jump\t// out\n        /* \"members/zpjayyy/task3/my-contract/src/NftMarket.sol\":894:1495  function list(... */\n    tag_20:\n        /* \"members/zpjayyy/task3/my-contract/src/NftMarket.sol\":1010:1022  IERC721 _nft */\n      0x00\n        /* \"members/zpjayyy/task3/my-contract/src/NftMarket.sol\":1033:1044  _nftAddress */\n      dup4\n        /* \"members/zpjayyy/task3/my-contract/src/NftMarket.sol\":1010:1045  IERC721 _nft = IERC721(_nftAddress) */\n      swap1\n      pop\n        /* \"members/zpjayyy/task3/my-contract/src/NftMarket.sol\":1114:1118  this */\n      address\n        /* \"members/zpjayyy/task3/my-contract/src/NftMarket.sol\":1076:1119  _nft.getApproved(_tokenId) == address(this) */\n      0xffffffffffffffffffffffffffffffffffffffff\n      and\n        /* \"members/zpjayyy/task3/my-contract/src/NftMarket.sol\":1076:1080  _nft */\n      dup2\n        /* \"members/zpjayyy/task3/my-contract/src/NftMarket.sol\":1076:1092  _nft.getApproved */\n      0xffffffffffffffffffffffffffffffffffffffff\n      and\n      0x081812fc\n        /* \"members/zpjayyy/task3/my-contract/src/NftMarket.sol\":1093:1101  _tokenId */\n      dup6\n        /* \"members/zpjayyy/task3/my-contract/src/NftMarket.sol\":1076:1102  _nft.getApproved(_tokenId) */\n      mload(0x40)\n      dup3\n      0xffffffff\n      and\n      0xe0\n      shl\n      dup2\n      mstore\n      0x04\n      add\n      tag_58\n      swap2\n      swap1\n      tag_38\n      jump\t// in\n    tag_58:\n      0x20\n      mload(0x40)\n      dup1\n      dup4\n      sub\n      dup2\n      dup7\n      gas\n      staticcall\n      iszero\n      dup1\n      iszero\n      tag_60\n      jumpi\n      returndatasize\n      0x00\n      dup1\n      returndatacopy\n      revert(0x00, returndatasize)\n    tag_60:\n      pop\n      pop\n      pop\n      pop\n      mload(0x40)\n      returndatasize\n      not(0x1f)\n      0x1f\n      dup3\n      add\n      and\n      dup3\n      add\n      dup1\n      0x40\n      mstore\n      pop\n      dup2\n      add\n      swap1\n      tag_61\n      swap2\n      swap1\n      tag_42\n      jump\t// in\n    tag_61:\n        /* \"members/zpjayyy/task3/my-contract/src/NftMarket.sol\":1076:1119  _nft.getApproved(_tokenId) == address(this) */\n      0xffffffffffffffffffffffffffffffffffffffff\n      and\n      eq\n        /* \"members/zpjayyy/task3/my-contract/src/NftMarket.sol\":1055:1167  require(... */\n      tag_62\n      jumpi\n      mload(0x40)\n      0x08c379a000000000000000000000000000000000000000000000000000000000\n      dup2\n      mstore\n      0x04\n      add\n      tag_63\n      swap1\n      tag_64\n      jump\t// in\n    tag_63:\n      mload(0x40)\n      dup1\n      swap2\n      sub\n      swap1\n      revert\n    tag_62:\n        /* \"members/zpjayyy/task3/my-contract/src/NftMarket.sol\":1194:1195  0 */\n      0x00\n        /* \"members/zpjayyy/task3/my-contract/src/NftMarket.sol\":1185:1191  _price */\n      dup3\n        /* \"members/zpjayyy/task3/my-contract/src/NftMarket.sol\":1185:1195  _price > 0 */\n      gt\n        /* \"members/zpjayyy/task3/my-contract/src/NftMarket.sol\":1177:1225  require(_price > 0, \"price need more than zero\") */\n      tag_65\n      jumpi\n      mload(0x40)\n      0x08c379a000000000000000000000000000000000000000000000000000000000\n      dup2\n      mstore\n      0x04\n      add\n      tag_66\n      swap1\n      tag_67\n      jump\t// in\n    tag_66:\n      mload(0x40)\n      dup1\n      swap2\n      sub\n      swap1\n      revert\n    tag_65:\n        /* \"members/zpjayyy/task3/my-contract/src/NftMarket.sol\":1236:1256  Order storage _order */\n      0x00\n        /* \"members/zpjayyy/task3/my-contract/src/NftMarket.sol\":1259:1268  orderList */\n      dup1\n        /* \"members/zpjayyy/task3/my-contract/src/NftMarket.sol\":1259:1281  orderList[_nftAddress] */\n      0x00\n        /* \"members/zpjayyy/task3/my-contract/src/NftMarket.sol\":1269:1280  _nftAddress */\n      dup7\n        /* \"members/zpjayyy/task3/my-contract/src/NftMarket.sol\":1259:1281  orderList[_nftAddress] */\n      0xffffffffffffffffffffffffffffffffffffffff\n      and\n      0xffffffffffffffffffffffffffffffffffffffff\n      and\n      dup2\n      mstore\n      0x20\n      add\n      swap1\n      dup2\n      mstore\n      0x20\n      add\n      0x00\n      keccak256\n        /* \"members/zpjayyy/task3/my-contract/src/NftMarket.sol\":1259:1291  orderList[_nftAddress][_tokenId] */\n      0x00\n        /* \"members/zpjayyy/task3/my-contract/src/NftMarket.sol\":1282:1290  _tokenId */\n      dup6\n        /* \"members/zpjayyy/task3/my-contract/src/NftMarket.sol\":1259:1291  orderList[_nftAddress][_tokenId] */\n      dup2\n      mstore\n      0x20\n      add\n      swap1\n      dup2\n      mstore\n      0x20\n      add\n      0x00\n      keccak256\n        /* \"members/zpjayyy/task3/my-contract/src/NftMarket.sol\":1236:1291  Order storage _order = orderList[_nftAddress][_tokenId] */\n      swap1\n      pop\n        /* \"members/zpjayyy/task3/my-contract/src/NftMarket.sol\":1316:1326  msg.sender */\n      caller\n        /* \"members/zpjayyy/task3/my-contract/src/NftMarket.sol\":1301:1307  _order */\n      dup2\n        /* \"members/zpjayyy/task3/my-contract/src/NftMarket.sol\":1301:1313  _order.owner */\n      0x00\n      add\n      0x00\n        /* \"members/zpjayyy/task3/my-contract/src/NftMarket.sol\":1301:1326  _order.owner = msg.sender */\n      0x0100\n      exp\n      dup2\n      sload\n      dup2\n      0xffffffffffffffffffffffffffffffffffffffff\n      mul\n      not\n      and\n      swap1\n      dup4\n      0xffffffffffffffffffffffffffffffffffffffff\n      and\n      mul\n      or\n      swap1\n      sstore\n      pop\n        /* \"members/zpjayyy/task3/my-contract/src/NftMarket.sol\":1351:1357  _price */\n      dup3\n        /* \"members/zpjayyy/task3/my-contract/src/NftMarket.sol\":1336:1342  _order */\n      dup2\n        /* \"members/zpjayyy/task3/my-contract/src/NftMarket.sol\":1336:1348  _order.price */\n      0x01\n      add\n        /* \"members/zpjayyy/task3/my-contract/src/NftMarket.sol\":1336:1357  _order.price = _price */\n      dup2\n      swap1\n      sstore\n      pop\n        /* \"members/zpjayyy/task3/my-contract/src/NftMarket.sol\":1367:1371  _nft */\n      dup2\n        /* \"members/zpjayyy/task3/my-contract/src/NftMarket.sol\":1367:1388  _nft.safeTransferFrom */\n      0xffffffffffffffffffffffffffffffffffffffff\n      and\n      0x42842e0e\n        /* \"members/zpjayyy/task3/my-contract/src/NftMarket.sol\":1389:1399  msg.sender */\n      caller\n        /* \"members/zpjayyy/task3/my-contract/src/NftMarket.sol\":1409:1413  this */\n      address\n        /* \"members/zpjayyy/task3/my-contract/src/NftMarket.sol\":1416:1424  _tokenId */\n      dup8\n        /* \"members/zpjayyy/task3/my-contract/src/NftMarket.sol\":1367:1425  _nft.safeTransferFrom(msg.sender, address(this), _tokenId) */\n      mload(0x40)\n      dup5\n      0xffffffff\n      and\n      0xe0\n      shl\n      dup2\n      mstore\n      0x04\n      add\n      tag_68\n      swap4\n      swap3\n      swap2\n      swap1\n      tag_47\n      jump\t// in\n    tag_68:\n      0x00\n      mload(0x40)\n      dup1\n      dup4\n      sub\n      dup2\n      0x00\n      dup8\n      dup1\n      extcodesize\n      iszero\n      dup1\n      iszero\n      tag_69\n      jumpi\n      0x00\n      dup1\n      revert\n    tag_69:\n      pop\n      gas\n      call\n      iszero\n      dup1\n      iszero\n      tag_71\n      jumpi\n      returndatasize\n      0x00\n      dup1\n      returndatacopy\n      revert(0x00, returndatasize)\n    tag_71:\n      pop\n      pop\n      pop\n      pop\n        /* \"members/zpjayyy/task3/my-contract/src/NftMarket.sol\":1471:1479  _tokenId */\n      dup4\n        /* \"members/zpjayyy/task3/my-contract/src/NftMarket.sol\":1458:1469  _nftAddress */\n      dup6\n        /* \"members/zpjayyy/task3/my-contract/src/NftMarket.sol\":1441:1488  List(msg.sender, _nftAddress, _tokenId, _price) */\n      0xffffffffffffffffffffffffffffffffffffffff\n      and\n        /* \"members/zpjayyy/task3/my-contract/src/NftMarket.sol\":1446:1456  msg.sender */\n      caller\n        /* \"members/zpjayyy/task3/my-contract/src/NftMarket.sol\":1441:1488  List(msg.sender, _nftAddress, _tokenId, _price) */\n      0xffffffffffffffffffffffffffffffffffffffff\n      and\n      0xedbdf022944a3291f4b30148903a84720506f48e10478ec5812e5caf30e1fab0\n        /* \"members/zpjayyy/task3/my-contract/src/NftMarket.sol\":1481:1487  _price */\n      dup7\n        /* \"members/zpjayyy/task3/my-contract/src/NftMarket.sol\":1441:1488  List(msg.sender, _nftAddress, _tokenId, _price) */\n      mload(0x40)\n      tag_72\n      swap2\n      swap1\n      tag_38\n      jump\t// in\n    tag_72:\n      mload(0x40)\n      dup1\n      swap2\n      sub\n      swap1\n      log4\n        /* \"members/zpjayyy/task3/my-contract/src/NftMarket.sol\":1000:1495  {... */\n      pop\n      pop\n        /* \"members/zpjayyy/task3/my-contract/src/NftMarket.sol\":894:1495  function list(... */\n      pop\n      pop\n      pop\n      jump\t// out\n        /* \"members/zpjayyy/task3/my-contract/src/NftMarket.sol\":701:763  mapping(address => mapping(uint256 => Order)) public orderList */\n    tag_23:\n      mstore(0x20, 0x00)\n      dup2\n      0x00\n      mstore\n      mstore(0x20, keccak256(0x00, 0x40))\n      dup1\n      0x00\n      mstore\n      keccak256(0x00, 0x40)\n      0x00\n      swap2\n      pop\n      swap2\n      pop\n      pop\n      dup1\n      0x00\n      add\n      0x00\n      swap1\n      sload\n      swap1\n      0x0100\n      exp\n      swap1\n      div\n      0xffffffffffffffffffffffffffffffffffffffff\n      and\n      swap1\n      dup1\n      0x01\n      add\n      sload\n      swap1\n      pop\n      dup3\n      jump\t// out\n        /* \"#utility.yul\":88:205   */\n    tag_74:\n        /* \"#utility.yul\":197:198   */\n      0x00\n        /* \"#utility.yul\":194:195   */\n      dup1\n        /* \"#utility.yul\":187:199   */\n      revert\n        /* \"#utility.yul\":211:328   */\n    tag_75:\n        /* \"#utility.yul\":320:321   */\n      0x00\n        /* \"#utility.yul\":317:318   */\n      dup1\n        /* \"#utility.yul\":310:322   */\n      revert\n        /* \"#utility.yul\":334:460   */\n    tag_76:\n        /* \"#utility.yul\":371:378   */\n      0x00\n        /* \"#utility.yul\":411:453   */\n      0xffffffffffffffffffffffffffffffffffffffff\n        /* \"#utility.yul\":404:409   */\n      dup3\n        /* \"#utility.yul\":400:454   */\n      and\n        /* \"#utility.yul\":389:454   */\n      swap1\n      pop\n        /* \"#utility.yul\":334:460   */\n      swap2\n      swap1\n      pop\n      jump\t// out\n        /* \"#utility.yul\":466:562   */\n    tag_77:\n        /* \"#utility.yul\":503:510   */\n      0x00\n        /* \"#utility.yul\":532:556   */\n      tag_111\n        /* \"#utility.yul\":550:555   */\n      dup3\n        /* \"#utility.yul\":532:556   */\n      tag_76\n      jump\t// in\n    tag_111:\n        /* \"#utility.yul\":521:556   */\n      swap1\n      pop\n        /* \"#utility.yul\":466:562   */\n      swap2\n      swap1\n      pop\n      jump\t// out\n        /* \"#utility.yul\":568:690   */\n    tag_78:\n        /* \"#utility.yul\":641:665   */\n      tag_113\n        /* \"#utility.yul\":659:664   */\n      dup2\n        /* \"#utility.yul\":641:665   */\n      tag_77\n      jump\t// in\n    tag_113:\n        /* \"#utility.yul\":634:639   */\n      dup2\n        /* \"#utility.yul\":631:666   */\n      eq\n        /* \"#utility.yul\":621:684   */\n      tag_114\n      jumpi\n        /* \"#utility.yul\":680:681   */\n      0x00\n        /* \"#utility.yul\":677:678   */\n      dup1\n        /* \"#utility.yul\":670:682   */\n      revert\n        /* \"#utility.yul\":621:684   */\n    tag_114:\n        /* \"#utility.yul\":568:690   */\n      pop\n      jump\t// out\n        /* \"#utility.yul\":696:835   */\n    tag_79:\n        /* \"#utility.yul\":742:747   */\n      0x00\n        /* \"#utility.yul\":780:786   */\n      dup2\n        /* \"#utility.yul\":767:787   */\n      calldataload\n        /* \"#utility.yul\":758:787   */\n      swap1\n      pop\n        /* \"#utility.yul\":796:829   */\n      tag_116\n        /* \"#utility.yul\":823:828   */\n      dup2\n        /* \"#utility.yul\":796:829   */\n      tag_78\n      jump\t// in\n    tag_116:\n        /* \"#utility.yul\":696:835   */\n      swap3\n      swap2\n      pop\n      pop\n      jump\t// out\n        /* \"#utility.yul\":841:918   */\n    tag_80:\n        /* \"#utility.yul\":878:885   */\n      0x00\n        /* \"#utility.yul\":907:912   */\n      dup2\n        /* \"#utility.yul\":896:912   */\n      swap1\n      pop\n        /* \"#utility.yul\":841:918   */\n      swap2\n      swap1\n      pop\n      jump\t// out\n        /* \"#utility.yul\":924:1046   */\n    tag_81:\n        /* \"#utility.yul\":997:1021   */\n      tag_119\n        /* \"#utility.yul\":1015:1020   */\n      dup2\n        /* \"#utility.yul\":997:1021   */\n      tag_80\n      jump\t// in\n    tag_119:\n        /* \"#utility.yul\":990:995   */\n      dup2\n        /* \"#utility.yul\":987:1022   */\n      eq\n        /* \"#utility.yul\":977:1040   */\n      tag_120\n      jumpi\n        /* \"#utility.yul\":1036:1037   */\n      0x00\n        /* \"#utility.yul\":1033:1034   */\n      dup1\n        /* \"#utility.yul\":1026:1038   */\n      revert\n        /* \"#utility.yul\":977:1040   */\n    tag_120:\n        /* \"#utility.yul\":924:1046   */\n      pop\n      jump\t// out\n        /* \"#utility.yul\":1052:1191   */\n    tag_82:\n        /* \"#utility.yul\":1098:1103   */\n      0x00\n        /* \"#utility.yul\":1136:1142   */\n      dup2\n        /* \"#utility.yul\":1123:1143   */\n      calldataload\n        /* \"#utility.yul\":1114:1143   */\n      swap1\n      pop\n        /* \"#utility.yul\":1152:1185   */\n      tag_122\n        /* \"#utility.yul\":1179:1184   */\n      dup2\n        /* \"#utility.yul\":1152:1185   */\n      tag_81\n      jump\t// in\n    tag_122:\n        /* \"#utility.yul\":1052:1191   */\n      swap3\n      swap2\n      pop\n      pop\n      jump\t// out\n        /* \"#utility.yul\":1197:1314   */\n    tag_83:\n        /* \"#utility.yul\":1306:1307   */\n      0x00\n        /* \"#utility.yul\":1303:1304   */\n      dup1\n        /* \"#utility.yul\":1296:1308   */\n      revert\n        /* \"#utility.yul\":1320:1437   */\n    tag_84:\n        /* \"#utility.yul\":1429:1430   */\n      0x00\n        /* \"#utility.yul\":1426:1427   */\n      dup1\n        /* \"#utility.yul\":1419:1431   */\n      revert\n        /* \"#utility.yul\":1443:1560   */\n    tag_85:\n        /* \"#utility.yul\":1552:1553   */\n      0x00\n        /* \"#utility.yul\":1549:1550   */\n      dup1\n        /* \"#utility.yul\":1542:1554   */\n      revert\n        /* \"#utility.yul\":1579:2131   */\n    tag_86:\n        /* \"#utility.yul\":1636:1644   */\n      0x00\n        /* \"#utility.yul\":1646:1652   */\n      dup1\n        /* \"#utility.yul\":1696:1699   */\n      dup4\n        /* \"#utility.yul\":1689:1693   */\n      0x1f\n        /* \"#utility.yul\":1681:1687   */\n      dup5\n        /* \"#utility.yul\":1677:1694   */\n      add\n        /* \"#utility.yul\":1673:1700   */\n      slt\n        /* \"#utility.yul\":1663:1785   */\n      tag_127\n      jumpi\n        /* \"#utility.yul\":1704:1783   */\n      tag_128\n      tag_83\n      jump\t// in\n    tag_128:\n        /* \"#utility.yul\":1663:1785   */\n    tag_127:\n        /* \"#utility.yul\":1817:1823   */\n      dup3\n        /* \"#utility.yul\":1804:1824   */\n      calldataload\n        /* \"#utility.yul\":1794:1824   */\n      swap1\n      pop\n        /* \"#utility.yul\":1847:1865   */\n      0xffffffffffffffff\n        /* \"#utility.yul\":1839:1845   */\n      dup2\n        /* \"#utility.yul\":1836:1866   */\n      gt\n        /* \"#utility.yul\":1833:1950   */\n      iszero\n      tag_129\n      jumpi\n        /* \"#utility.yul\":1869:1948   */\n      tag_130\n      tag_84\n      jump\t// in\n    tag_130:\n        /* \"#utility.yul\":1833:1950   */\n    tag_129:\n        /* \"#utility.yul\":1983:1987   */\n      0x20\n        /* \"#utility.yul\":1975:1981   */\n      dup4\n        /* \"#utility.yul\":1971:1988   */\n      add\n        /* \"#utility.yul\":1959:1988   */\n      swap2\n      pop\n        /* \"#utility.yul\":2037:2040   */\n      dup4\n        /* \"#utility.yul\":2029:2033   */\n      0x01\n        /* \"#utility.yul\":2021:2027   */\n      dup3\n        /* \"#utility.yul\":2017:2034   */\n      mul\n        /* \"#utility.yul\":2007:2015   */\n      dup4\n        /* \"#utility.yul\":2003:2035   */\n      add\n        /* \"#utility.yul\":2000:2041   */\n      gt\n        /* \"#utility.yul\":1997:2125   */\n      iszero\n      tag_131\n      jumpi\n        /* \"#utility.yul\":2044:2123   */\n      tag_132\n      tag_85\n      jump\t// in\n    tag_132:\n        /* \"#utility.yul\":1997:2125   */\n    tag_131:\n        /* \"#utility.yul\":1579:2131   */\n      swap3\n      pop\n      swap3\n      swap1\n      pop\n      jump\t// out\n        /* \"#utility.yul\":2137:3100   */\n    tag_9:\n        /* \"#utility.yul\":2234:2240   */\n      0x00\n        /* \"#utility.yul\":2242:2248   */\n      dup1\n        /* \"#utility.yul\":2250:2256   */\n      0x00\n        /* \"#utility.yul\":2258:2264   */\n      dup1\n        /* \"#utility.yul\":2266:2272   */\n      0x00\n        /* \"#utility.yul\":2315:2318   */\n      0x80\n        /* \"#utility.yul\":2303:2312   */\n      dup7\n        /* \"#utility.yul\":2294:2301   */\n      dup9\n        /* \"#utility.yul\":2290:2313   */\n      sub\n        /* \"#utility.yul\":2286:2319   */\n      slt\n        /* \"#utility.yul\":2283:2403   */\n      iszero\n      tag_134\n      jumpi\n        /* \"#utility.yul\":2322:2401   */\n      tag_135\n      tag_74\n      jump\t// in\n    tag_135:\n        /* \"#utility.yul\":2283:2403   */\n    tag_134:\n        /* \"#utility.yul\":2442:2443   */\n      0x00\n        /* \"#utility.yul\":2467:2520   */\n      tag_136\n        /* \"#utility.yul\":2512:2519   */\n      dup9\n        /* \"#utility.yul\":2503:2509   */\n      dup3\n        /* \"#utility.yul\":2492:2501   */\n      dup10\n        /* \"#utility.yul\":2488:2510   */\n      add\n        /* \"#utility.yul\":2467:2520   */\n      tag_79\n      jump\t// in\n    tag_136:\n        /* \"#utility.yul\":2457:2520   */\n      swap6\n      pop\n        /* \"#utility.yul\":2413:2530   */\n      pop\n        /* \"#utility.yul\":2569:2571   */\n      0x20\n        /* \"#utility.yul\":2595:2648   */\n      tag_137\n        /* \"#utility.yul\":2640:2647   */\n      dup9\n        /* \"#utility.yul\":2631:2637   */\n      dup3\n        /* \"#utility.yul\":2620:2629   */\n      dup10\n        /* \"#utility.yul\":2616:2638   */\n      add\n        /* \"#utility.yul\":2595:2648   */\n      tag_79\n      jump\t// in\n    tag_137:\n        /* \"#utility.yul\":2585:2648   */\n      swap5\n      pop\n        /* \"#utility.yul\":2540:2658   */\n      pop\n        /* \"#utility.yul\":2697:2699   */\n      0x40\n        /* \"#utility.yul\":2723:2776   */\n      tag_138\n        /* \"#utility.yul\":2768:2775   */\n      dup9\n        /* \"#utility.yul\":2759:2765   */\n      dup3\n        /* \"#utility.yul\":2748:2757   */\n      dup10\n        /* \"#utility.yul\":2744:2766   */\n      add\n        /* \"#utility.yul\":2723:2776   */\n      tag_82\n      jump\t// in\n    tag_138:\n        /* \"#utility.yul\":2713:2776   */\n      swap4\n      pop\n        /* \"#utility.yul\":2668:2786   */\n      pop\n        /* \"#utility.yul\":2853:2855   */\n      0x60\n        /* \"#utility.yul\":2842:2851   */\n      dup7\n        /* \"#utility.yul\":2838:2856   */\n      add\n        /* \"#utility.yul\":2825:2857   */\n      calldataload\n        /* \"#utility.yul\":2884:2902   */\n      0xffffffffffffffff\n        /* \"#utility.yul\":2876:2882   */\n      dup2\n        /* \"#utility.yul\":2873:2903   */\n      gt\n        /* \"#utility.yul\":2870:2987   */\n      iszero\n      tag_139\n      jumpi\n        /* \"#utility.yul\":2906:2985   */\n      tag_140\n      tag_75\n      jump\t// in\n    tag_140:\n        /* \"#utility.yul\":2870:2987   */\n    tag_139:\n        /* \"#utility.yul\":3019:3083   */\n      tag_141\n        /* \"#utility.yul\":3075:3082   */\n      dup9\n        /* \"#utility.yul\":3066:3072   */\n      dup3\n        /* \"#utility.yul\":3055:3064   */\n      dup10\n        /* \"#utility.yul\":3051:3073   */\n      add\n        /* \"#utility.yul\":3019:3083   */\n      tag_86\n      jump\t// in\n    tag_141:\n        /* \"#utility.yul\":3001:3083   */\n      swap3\n      pop\n      swap3\n      pop\n        /* \"#utility.yul\":2796:3093   */\n      pop\n        /* \"#utility.yul\":2137:3100   */\n      swap3\n      swap6\n      pop\n      swap3\n      swap6\n      swap1\n      swap4\n      pop\n      jump\t// out\n        /* \"#utility.yul\":3106:3255   */\n    tag_87:\n        /* \"#utility.yul\":3142:3149   */\n      0x00\n        /* \"#utility.yul\":3182:3248   */\n      0xffffffff00000000000000000000000000000000000000000000000000000000\n        /* \"#utility.yul\":3175:3180   */\n      dup3\n        /* \"#utility.yul\":3171:3249   */\n      and\n        /* \"#utility.yul\":3160:3249   */\n      swap1\n      pop\n        /* \"#utility.yul\":3106:3255   */\n      swap2\n      swap1\n      pop\n      jump\t// out\n        /* \"#utility.yul\":3261:3376   */\n    tag_88:\n        /* \"#utility.yul\":3346:3369   */\n      tag_144\n        /* \"#utility.yul\":3363:3368   */\n      dup2\n        /* \"#utility.yul\":3346:3369   */\n      tag_87\n      jump\t// in\n    tag_144:\n        /* \"#utility.yul\":3341:3344   */\n      dup3\n        /* \"#utility.yul\":3334:3370   */\n      mstore\n        /* \"#utility.yul\":3261:3376   */\n      pop\n      pop\n      jump\t// out\n        /* \"#utility.yul\":3382:3600   */\n    tag_12:\n        /* \"#utility.yul\":3473:3477   */\n      0x00\n        /* \"#utility.yul\":3511:3513   */\n      0x20\n        /* \"#utility.yul\":3500:3509   */\n      dup3\n        /* \"#utility.yul\":3496:3514   */\n      add\n        /* \"#utility.yul\":3488:3514   */\n      swap1\n      pop\n        /* \"#utility.yul\":3524:3593   */\n      tag_146\n        /* \"#utility.yul\":3590:3591   */\n      0x00\n        /* \"#utility.yul\":3579:3588   */\n      dup4\n        /* \"#utility.yul\":3575:3592   */\n      add\n        /* \"#utility.yul\":3566:3572   */\n      dup5\n        /* \"#utility.yul\":3524:3593   */\n      tag_88\n      jump\t// in\n    tag_146:\n        /* \"#utility.yul\":3382:3600   */\n      swap3\n      swap2\n      pop\n      pop\n      jump\t// out\n        /* \"#utility.yul\":3606:4080   */\n    tag_15:\n        /* \"#utility.yul\":3674:3680   */\n      0x00\n        /* \"#utility.yul\":3682:3688   */\n      dup1\n        /* \"#utility.yul\":3731:3733   */\n      0x40\n        /* \"#utility.yul\":3719:3728   */\n      dup4\n        /* \"#utility.yul\":3710:3717   */\n      dup6\n        /* \"#utility.yul\":3706:3729   */\n      sub\n        /* \"#utility.yul\":3702:3734   */\n      slt\n        /* \"#utility.yul\":3699:3818   */\n      iszero\n      tag_148\n      jumpi\n        /* \"#utility.yul\":3737:3816   */\n      tag_149\n      tag_74\n      jump\t// in\n    tag_149:\n        /* \"#utility.yul\":3699:3818   */\n    tag_148:\n        /* \"#utility.yul\":3857:3858   */\n      0x00\n        /* \"#utility.yul\":3882:3935   */\n      tag_150\n        /* \"#utility.yul\":3927:3934   */\n      dup6\n        /* \"#utility.yul\":3918:3924   */\n      dup3\n        /* \"#utility.yul\":3907:3916   */\n      dup7\n        /* \"#utility.yul\":3903:3925   */\n      add\n        /* \"#utility.yul\":3882:3935   */\n      tag_79\n      jump\t// in\n    tag_150:\n        /* \"#utility.yul\":3872:3935   */\n      swap3\n      pop\n        /* \"#utility.yul\":3828:3945   */\n      pop\n        /* \"#utility.yul\":3984:3986   */\n      0x20\n        /* \"#utility.yul\":4010:4063   */\n      tag_151\n        /* \"#utility.yul\":4055:4062   */\n      dup6\n        /* \"#utility.yul\":4046:4052   */\n      dup3\n        /* \"#utility.yul\":4035:4044   */\n      dup7\n        /* \"#utility.yul\":4031:4053   */\n      add\n        /* \"#utility.yul\":4010:4063   */\n      tag_82\n      jump\t// in\n    tag_151:\n        /* \"#utility.yul\":4000:4063   */\n      swap2\n      pop\n        /* \"#utility.yul\":3955:4073   */\n      pop\n        /* \"#utility.yul\":3606:4080   */\n      swap3\n      pop\n      swap3\n      swap1\n      pop\n      jump\t// out\n        /* \"#utility.yul\":4086:4705   */\n    tag_19:\n        /* \"#utility.yul\":4163:4169   */\n      0x00\n        /* \"#utility.yul\":4171:4177   */\n      dup1\n        /* \"#utility.yul\":4179:4185   */\n      0x00\n        /* \"#utility.yul\":4228:4230   */\n      0x60\n        /* \"#utility.yul\":4216:4225   */\n      dup5\n        /* \"#utility.yul\":4207:4214   */\n      dup7\n        /* \"#utility.yul\":4203:4226   */\n      sub\n        /* \"#utility.yul\":4199:4231   */\n      slt\n        /* \"#utility.yul\":4196:4315   */\n      iszero\n      tag_153\n      jumpi\n        /* \"#utility.yul\":4234:4313   */\n      tag_154\n      tag_74\n      jump\t// in\n    tag_154:\n        /* \"#utility.yul\":4196:4315   */\n    tag_153:\n        /* \"#utility.yul\":4354:4355   */\n      0x00\n        /* \"#utility.yul\":4379:4432   */\n      tag_155\n        /* \"#utility.yul\":4424:4431   */\n      dup7\n        /* \"#utility.yul\":4415:4421   */\n      dup3\n        /* \"#utility.yul\":4404:4413   */\n      dup8\n        /* \"#utility.yul\":4400:4422   */\n      add\n        /* \"#utility.yul\":4379:4432   */\n      tag_79\n      jump\t// in\n    tag_155:\n        /* \"#utility.yul\":4369:4432   */\n      swap4\n      pop\n        /* \"#utility.yul\":4325:4442   */\n      pop\n        /* \"#utility.yul\":4481:4483   */\n      0x20\n        /* \"#utility.yul\":4507:4560   */\n      tag_156\n        /* \"#utility.yul\":4552:4559   */\n      dup7\n        /* \"#utility.yul\":4543:4549   */\n      dup3\n        /* \"#utility.yul\":4532:4541   */\n      dup8\n        /* \"#utility.yul\":4528:4550   */\n      add\n        /* \"#utility.yul\":4507:4560   */\n      tag_82\n      jump\t// in\n    tag_156:\n        /* \"#utility.yul\":4497:4560   */\n      swap3\n      pop\n        /* \"#utility.yul\":4452:4570   */\n      pop\n        /* \"#utility.yul\":4609:4611   */\n      0x40\n        /* \"#utility.yul\":4635:4688   */\n      tag_157\n        /* \"#utility.yul\":4680:4687   */\n      dup7\n        /* \"#utility.yul\":4671:4677   */\n      dup3\n        /* \"#utility.yul\":4660:4669   */\n      dup8\n        /* \"#utility.yul\":4656:4678   */\n      add\n        /* \"#utility.yul\":4635:4688   */\n      tag_82\n      jump\t// in\n    tag_157:\n        /* \"#utility.yul\":4625:4688   */\n      swap2\n      pop\n        /* \"#utility.yul\":4580:4698   */\n      pop\n        /* \"#utility.yul\":4086:4705   */\n      swap3\n      pop\n      swap3\n      pop\n      swap3\n      jump\t// out\n        /* \"#utility.yul\":4711:4829   */\n    tag_89:\n        /* \"#utility.yul\":4798:4822   */\n      tag_159\n        /* \"#utility.yul\":4816:4821   */\n      dup2\n        /* \"#utility.yul\":4798:4822   */\n      tag_77\n      jump\t// in\n    tag_159:\n        /* \"#utility.yul\":4793:4796   */\n      dup3\n        /* \"#utility.yul\":4786:4823   */\n      mstore\n        /* \"#utility.yul\":4711:4829   */\n      pop\n      pop\n      jump\t// out\n        /* \"#utility.yul\":4835:4953   */\n    tag_90:\n        /* \"#utility.yul\":4922:4946   */\n      tag_161\n        /* \"#utility.yul\":4940:4945   */\n      dup2\n        /* \"#utility.yul\":4922:4946   */\n      tag_80\n      jump\t// in\n    tag_161:\n        /* \"#utility.yul\":4917:4920   */\n      dup3\n        /* \"#utility.yul\":4910:4947   */\n      mstore\n        /* \"#utility.yul\":4835:4953   */\n      pop\n      pop\n      jump\t// out\n        /* \"#utility.yul\":4959:5291   */\n    tag_25:\n        /* \"#utility.yul\":5080:5084   */\n      0x00\n        /* \"#utility.yul\":5118:5120   */\n      0x40\n        /* \"#utility.yul\":5107:5116   */\n      dup3\n        /* \"#utility.yul\":5103:5121   */\n      add\n        /* \"#utility.yul\":5095:5121   */\n      swap1\n      pop\n        /* \"#utility.yul\":5131:5202   */\n      tag_163\n        /* \"#utility.yul\":5199:5200   */\n      0x00\n        /* \"#utility.yul\":5188:5197   */\n      dup4\n        /* \"#utility.yul\":5184:5201   */\n      add\n        /* \"#utility.yul\":5175:5181   */\n      dup6\n        /* \"#utility.yul\":5131:5202   */\n      tag_89\n      jump\t// in\n    tag_163:\n        /* \"#utility.yul\":5212:5284   */\n      tag_164\n        /* \"#utility.yul\":5280:5282   */\n      0x20\n        /* \"#utility.yul\":5269:5278   */\n      dup4\n        /* \"#utility.yul\":5265:5283   */\n      add\n        /* \"#utility.yul\":5256:5262   */\n      dup5\n        /* \"#utility.yul\":5212:5284   */\n      tag_90\n      jump\t// in\n    tag_164:\n        /* \"#utility.yul\":4959:5291   */\n      swap4\n      swap3\n      pop\n      pop\n      pop\n      jump\t// out\n        /* \"#utility.yul\":5297:5519   */\n    tag_29:\n        /* \"#utility.yul\":5390:5394   */\n      0x00\n        /* \"#utility.yul\":5428:5430   */\n      0x20\n        /* \"#utility.yul\":5417:5426   */\n      dup3\n        /* \"#utility.yul\":5413:5431   */\n      add\n        /* \"#utility.yul\":5405:5431   */\n      swap1\n      pop\n        /* \"#utility.yul\":5441:5512   */\n      tag_166\n        /* \"#utility.yul\":5509:5510   */\n      0x00\n        /* \"#utility.yul\":5498:5507   */\n      dup4\n        /* \"#utility.yul\":5494:5511   */\n      add\n        /* \"#utility.yul\":5485:5491   */\n      dup5\n        /* \"#utility.yul\":5441:5512   */\n      tag_89\n      jump\t// in\n    tag_166:\n        /* \"#utility.yul\":5297:5519   */\n      swap3\n      swap2\n      pop\n      pop\n      jump\t// out\n        /* \"#utility.yul\":5525:5668   */\n    tag_91:\n        /* \"#utility.yul\":5582:5587   */\n      0x00\n        /* \"#utility.yul\":5613:5619   */\n      dup2\n        /* \"#utility.yul\":5607:5620   */\n      mload\n        /* \"#utility.yul\":5598:5620   */\n      swap1\n      pop\n        /* \"#utility.yul\":5629:5662   */\n      tag_168\n        /* \"#utility.yul\":5656:5661   */\n      dup2\n        /* \"#utility.yul\":5629:5662   */\n      tag_81\n      jump\t// in\n    tag_168:\n        /* \"#utility.yul\":5525:5668   */\n      swap3\n      swap2\n      pop\n      pop\n      jump\t// out\n        /* \"#utility.yul\":5674:6025   */\n    tag_33:\n        /* \"#utility.yul\":5744:5750   */\n      0x00\n        /* \"#utility.yul\":5793:5795   */\n      0x20\n        /* \"#utility.yul\":5781:5790   */\n      dup3\n        /* \"#utility.yul\":5772:5779   */\n      dup5\n        /* \"#utility.yul\":5768:5791   */\n      sub\n        /* \"#utility.yul\":5764:5796   */\n      slt\n        /* \"#utility.yul\":5761:5880   */\n      iszero\n      tag_170\n      jumpi\n        /* \"#utility.yul\":5799:5878   */\n      tag_171\n      tag_74\n      jump\t// in\n    tag_171:\n        /* \"#utility.yul\":5761:5880   */\n    tag_170:\n        /* \"#utility.yul\":5919:5920   */\n      0x00\n        /* \"#utility.yul\":5944:6008   */\n      tag_172\n        /* \"#utility.yul\":6000:6007   */\n      dup5\n        /* \"#utility.yul\":5991:5997   */\n      dup3\n        /* \"#utility.yul\":5980:5989   */\n      dup6\n        /* \"#utility.yul\":5976:5998   */\n      add\n        /* \"#utility.yul\":5944:6008   */\n      tag_91\n      jump\t// in\n    tag_172:\n        /* \"#utility.yul\":5934:6008   */\n      swap2\n      pop\n        /* \"#utility.yul\":5890:6018   */\n      pop\n        /* \"#utility.yul\":5674:6025   */\n      swap3\n      swap2\n      pop\n      pop\n      jump\t// out\n        /* \"#utility.yul\":6031:6200   */\n    tag_92:\n        /* \"#utility.yul\":6115:6126   */\n      0x00\n        /* \"#utility.yul\":6149:6155   */\n      dup3\n        /* \"#utility.yul\":6144:6147   */\n      dup3\n        /* \"#utility.yul\":6137:6156   */\n      mstore\n        /* \"#utility.yul\":6189:6193   */\n      0x20\n        /* \"#utility.yul\":6184:6187   */\n      dup3\n        /* \"#utility.yul\":6180:6194   */\n      add\n        /* \"#utility.yul\":6165:6194   */\n      swap1\n      pop\n        /* \"#utility.yul\":6031:6200   */\n      swap3\n      swap2\n      pop\n      pop\n      jump\t// out\n        /* \"#utility.yul\":6206:6379   */\n    tag_93:\n        /* \"#utility.yul\":6346:6371   */\n      0x6e6f7420656e6f75676820746f6b656e20746f20627579000000000000000000\n        /* \"#utility.yul\":6342:6343   */\n      0x00\n        /* \"#utility.yul\":6334:6340   */\n      dup3\n        /* \"#utility.yul\":6330:6344   */\n      add\n        /* \"#utility.yul\":6323:6372   */\n      mstore\n        /* \"#utility.yul\":6206:6379   */\n      pop\n      jump\t// out\n        /* \"#utility.yul\":6385:6751   */\n    tag_94:\n        /* \"#utility.yul\":6527:6530   */\n      0x00\n        /* \"#utility.yul\":6548:6615   */\n      tag_176\n        /* \"#utility.yul\":6612:6614   */\n      0x17\n        /* \"#utility.yul\":6607:6610   */\n      dup4\n        /* \"#utility.yul\":6548:6615   */\n      tag_92\n      jump\t// in\n    tag_176:\n        /* \"#utility.yul\":6541:6615   */\n      swap2\n      pop\n        /* \"#utility.yul\":6624:6717   */\n      tag_177\n        /* \"#utility.yul\":6713:6716   */\n      dup3\n        /* \"#utility.yul\":6624:6717   */\n      tag_93\n      jump\t// in\n    tag_177:\n        /* \"#utility.yul\":6742:6744   */\n      0x20\n        /* \"#utility.yul\":6737:6740   */\n      dup3\n        /* \"#utility.yul\":6733:6745   */\n      add\n        /* \"#utility.yul\":6726:6745   */\n      swap1\n      pop\n        /* \"#utility.yul\":6385:6751   */\n      swap2\n      swap1\n      pop\n      jump\t// out\n        /* \"#utility.yul\":6757:7176   */\n    tag_36:\n        /* \"#utility.yul\":6923:6927   */\n      0x00\n        /* \"#utility.yul\":6961:6963   */\n      0x20\n        /* \"#utility.yul\":6950:6959   */\n      dup3\n        /* \"#utility.yul\":6946:6964   */\n      add\n        /* \"#utility.yul\":6938:6964   */\n      swap1\n      pop\n        /* \"#utility.yul\":7010:7019   */\n      dup2\n        /* \"#utility.yul\":7004:7008   */\n      dup2\n        /* \"#utility.yul\":7000:7020   */\n      sub\n        /* \"#utility.yul\":6996:6997   */\n      0x00\n        /* \"#utility.yul\":6985:6994   */\n      dup4\n        /* \"#utility.yul\":6981:6998   */\n      add\n        /* \"#utility.yul\":6974:7021   */\n      mstore\n        /* \"#utility.yul\":7038:7169   */\n      tag_179\n        /* \"#utility.yul\":7164:7168   */\n      dup2\n        /* \"#utility.yul\":7038:7169   */\n      tag_94\n      jump\t// in\n    tag_179:\n        /* \"#utility.yul\":7030:7169   */\n      swap1\n      pop\n        /* \"#utility.yul\":6757:7176   */\n      swap2\n      swap1\n      pop\n      jump\t// out\n        /* \"#utility.yul\":7182:7404   */\n    tag_38:\n        /* \"#utility.yul\":7275:7279   */\n      0x00\n        /* \"#utility.yul\":7313:7315   */\n      0x20\n        /* \"#utility.yul\":7302:7311   */\n      dup3\n        /* \"#utility.yul\":7298:7316   */\n      add\n        /* \"#utility.yul\":7290:7316   */\n      swap1\n      pop\n        /* \"#utility.yul\":7326:7397   */\n      tag_181\n        /* \"#utility.yul\":7394:7395   */\n      0x00\n        /* \"#utility.yul\":7383:7392   */\n      dup4\n        /* \"#utility.yul\":7379:7396   */\n      add\n        /* \"#utility.yul\":7370:7376   */\n      dup5\n        /* \"#utility.yul\":7326:7397   */\n      tag_90\n      jump\t// in\n    tag_181:\n        /* \"#utility.yul\":7182:7404   */\n      swap3\n      swap2\n      pop\n      pop\n      jump\t// out\n        /* \"#utility.yul\":7410:7553   */\n    tag_95:\n        /* \"#utility.yul\":7467:7472   */\n      0x00\n        /* \"#utility.yul\":7498:7504   */\n      dup2\n        /* \"#utility.yul\":7492:7505   */\n      mload\n        /* \"#utility.yul\":7483:7505   */\n      swap1\n      pop\n        /* \"#utility.yul\":7514:7547   */\n      tag_183\n        /* \"#utility.yul\":7541:7546   */\n      dup2\n        /* \"#utility.yul\":7514:7547   */\n      tag_78\n      jump\t// in\n    tag_183:\n        /* \"#utility.yul\":7410:7553   */\n      swap3\n      swap2\n      pop\n      pop\n      jump\t// out\n        /* \"#utility.yul\":7559:7910   */\n    tag_42:\n        /* \"#utility.yul\":7629:7635   */\n      0x00\n        /* \"#utility.yul\":7678:7680   */\n      0x20\n        /* \"#utility.yul\":7666:7675   */\n      dup3\n        /* \"#utility.yul\":7657:7664   */\n      dup5\n        /* \"#utility.yul\":7653:7676   */\n      sub\n        /* \"#utility.yul\":7649:7681   */\n      slt\n        /* \"#utility.yul\":7646:7765   */\n      iszero\n      tag_185\n      jumpi\n        /* \"#utility.yul\":7684:7763   */\n      tag_186\n      tag_74\n      jump\t// in\n    tag_186:\n        /* \"#utility.yul\":7646:7765   */\n    tag_185:\n        /* \"#utility.yul\":7804:7805   */\n      0x00\n        /* \"#utility.yul\":7829:7893   */\n      tag_187\n        /* \"#utility.yul\":7885:7892   */\n      dup5\n        /* \"#utility.yul\":7876:7882   */\n      dup3\n        /* \"#utility.yul\":7865:7874   */\n      dup6\n        /* \"#utility.yul\":7861:7883   */\n      add\n        /* \"#utility.yul\":7829:7893   */\n      tag_95\n      jump\t// in\n    tag_187:\n        /* \"#utility.yul\":7819:7893   */\n      swap2\n      pop\n        /* \"#utility.yul\":7775:7903   */\n      pop\n        /* \"#utility.yul\":7559:7910   */\n      swap3\n      swap2\n      pop\n      pop\n      jump\t// out\n        /* \"#utility.yul\":7916:8079   */\n    tag_96:\n        /* \"#utility.yul\":8056:8071   */\n      0x696e76616c6964206f7264657200000000000000000000000000000000000000\n        /* \"#utility.yul\":8052:8053   */\n      0x00\n        /* \"#utility.yul\":8044:8050   */\n      dup3\n        /* \"#utility.yul\":8040:8054   */\n      add\n        /* \"#utility.yul\":8033:8072   */\n      mstore\n        /* \"#utility.yul\":7916:8079   */\n      pop\n      jump\t// out\n        /* \"#utility.yul\":8085:8451   */\n    tag_97:\n        /* \"#utility.yul\":8227:8230   */\n      0x00\n        /* \"#utility.yul\":8248:8315   */\n      tag_190\n        /* \"#utility.yul\":8312:8314   */\n      0x0d\n        /* \"#utility.yul\":8307:8310   */\n      dup4\n        /* \"#utility.yul\":8248:8315   */\n      tag_92\n      jump\t// in\n    tag_190:\n        /* \"#utility.yul\":8241:8315   */\n      swap2\n      pop\n        /* \"#utility.yul\":8324:8417   */\n      tag_191\n        /* \"#utility.yul\":8413:8416   */\n      dup3\n        /* \"#utility.yul\":8324:8417   */\n      tag_96\n      jump\t// in\n    tag_191:\n        /* \"#utility.yul\":8442:8444   */\n      0x20\n        /* \"#utility.yul\":8437:8440   */\n      dup3\n        /* \"#utility.yul\":8433:8445   */\n      add\n        /* \"#utility.yul\":8426:8445   */\n      swap1\n      pop\n        /* \"#utility.yul\":8085:8451   */\n      swap2\n      swap1\n      pop\n      jump\t// out\n        /* \"#utility.yul\":8457:8876   */\n    tag_45:\n        /* \"#utility.yul\":8623:8627   */\n      0x00\n        /* \"#utility.yul\":8661:8663   */\n      0x20\n        /* \"#utility.yul\":8650:8659   */\n      dup3\n        /* \"#utility.yul\":8646:8664   */\n      add\n        /* \"#utility.yul\":8638:8664   */\n      swap1\n      pop\n        /* \"#utility.yul\":8710:8719   */\n      dup2\n        /* \"#utility.yul\":8704:8708   */\n      dup2\n        /* \"#utility.yul\":8700:8720   */\n      sub\n        /* \"#utility.yul\":8696:8697   */\n      0x00\n        /* \"#utility.yul\":8685:8694   */\n      dup4\n        /* \"#utility.yul\":8681:8698   */\n      add\n        /* \"#utility.yul\":8674:8721   */\n      mstore\n        /* \"#utility.yul\":8738:8869   */\n      tag_193\n        /* \"#utility.yul\":8864:8868   */\n      dup2\n        /* \"#utility.yul\":8738:8869   */\n      tag_97\n      jump\t// in\n    tag_193:\n        /* \"#utility.yul\":8730:8869   */\n      swap1\n      pop\n        /* \"#utility.yul\":8457:8876   */\n      swap2\n      swap1\n      pop\n      jump\t// out\n        /* \"#utility.yul\":8882:9324   */\n    tag_47:\n        /* \"#utility.yul\":9031:9035   */\n      0x00\n        /* \"#utility.yul\":9069:9071   */\n      0x60\n        /* \"#utility.yul\":9058:9067   */\n      dup3\n        /* \"#utility.yul\":9054:9072   */\n      add\n        /* \"#utility.yul\":9046:9072   */\n      swap1\n      pop\n        /* \"#utility.yul\":9082:9153   */\n      tag_195\n        /* \"#utility.yul\":9150:9151   */\n      0x00\n        /* \"#utility.yul\":9139:9148   */\n      dup4\n        /* \"#utility.yul\":9135:9152   */\n      add\n        /* \"#utility.yul\":9126:9132   */\n      dup7\n        /* \"#utility.yul\":9082:9153   */\n      tag_89\n      jump\t// in\n    tag_195:\n        /* \"#utility.yul\":9163:9235   */\n      tag_196\n        /* \"#utility.yul\":9231:9233   */\n      0x20\n        /* \"#utility.yul\":9220:9229   */\n      dup4\n        /* \"#utility.yul\":9216:9234   */\n      add\n        /* \"#utility.yul\":9207:9213   */\n      dup6\n        /* \"#utility.yul\":9163:9235   */\n      tag_89\n      jump\t// in\n    tag_196:\n        /* \"#utility.yul\":9245:9317   */\n      tag_197\n        /* \"#utility.yul\":9313:9315   */\n      0x40\n        /* \"#utility.yul\":9302:9311   */\n      dup4\n        /* \"#utility.yul\":9298:9316   */\n      add\n        /* \"#utility.yul\":9289:9295   */\n      dup5\n        /* \"#utility.yul\":9245:9317   */\n      tag_90\n      jump\t// in\n    tag_197:\n        /* \"#utility.yul\":8882:9324   */\n      swap5\n      swap4\n      pop\n      pop\n      pop\n      pop\n      jump\t// out\n        /* \"#utility.yul\":9330:9420   */\n    tag_98:\n        /* \"#utility.yul\":9364:9371   */\n      0x00\n        /* \"#utility.yul\":9407:9412   */\n      dup2\n        /* \"#utility.yul\":9400:9413   */\n      iszero\n        /* \"#utility.yul\":9393:9414   */\n      iszero\n        /* \"#utility.yul\":9382:9414   */\n      swap1\n      pop\n        /* \"#utility.yul\":9330:9420   */\n      swap2\n      swap1\n      pop\n      jump\t// out\n        /* \"#utility.yul\":9426:9542   */\n    tag_99:\n        /* \"#utility.yul\":9496:9517   */\n      tag_200\n        /* \"#utility.yul\":9511:9516   */\n      dup2\n        /* \"#utility.yul\":9496:9517   */\n      tag_98\n      jump\t// in\n    tag_200:\n        /* \"#utility.yul\":9489:9494   */\n      dup2\n        /* \"#utility.yul\":9486:9518   */\n      eq\n        /* \"#utility.yul\":9476:9536   */\n      tag_201\n      jumpi\n        /* \"#utility.yul\":9532:9533   */\n      0x00\n        /* \"#utility.yul\":9529:9530   */\n      dup1\n        /* \"#utility.yul\":9522:9534   */\n      revert\n        /* \"#utility.yul\":9476:9536   */\n    tag_201:\n        /* \"#utility.yul\":9426:9542   */\n      pop\n      jump\t// out\n        /* \"#utility.yul\":9548:9685   */\n    tag_100:\n        /* \"#utility.yul\":9602:9607   */\n      0x00\n        /* \"#utility.yul\":9633:9639   */\n      dup2\n        /* \"#utility.yul\":9627:9640   */\n      mload\n        /* \"#utility.yul\":9618:9640   */\n      swap1\n      pop\n        /* \"#utility.yul\":9649:9679   */\n      tag_203\n        /* \"#utility.yul\":9673:9678   */\n      dup2\n        /* \"#utility.yul\":9649:9679   */\n      tag_99\n      jump\t// in\n    tag_203:\n        /* \"#utility.yul\":9548:9685   */\n      swap3\n      swap2\n      pop\n      pop\n      jump\t// out\n        /* \"#utility.yul\":9691:10036   */\n    tag_55:\n        /* \"#utility.yul\":9758:9764   */\n      0x00\n        /* \"#utility.yul\":9807:9809   */\n      0x20\n        /* \"#utility.yul\":9795:9804   */\n      dup3\n        /* \"#utility.yul\":9786:9793   */\n      dup5\n        /* \"#utility.yul\":9782:9805   */\n      sub\n        /* \"#utility.yul\":9778:9810   */\n      slt\n        /* \"#utility.yul\":9775:9894   */\n      iszero\n      tag_205\n      jumpi\n        /* \"#utility.yul\":9813:9892   */\n      tag_206\n      tag_74\n      jump\t// in\n    tag_206:\n        /* \"#utility.yul\":9775:9894   */\n    tag_205:\n        /* \"#utility.yul\":9933:9934   */\n      0x00\n        /* \"#utility.yul\":9958:10019   */\n      tag_207\n        /* \"#utility.yul\":10011:10018   */\n      dup5\n        /* \"#utility.yul\":10002:10008   */\n      dup3\n        /* \"#utility.yul\":9991:10000   */\n      dup6\n        /* \"#utility.yul\":9987:10009   */\n      add\n        /* \"#utility.yul\":9958:10019   */\n      tag_100\n      jump\t// in\n    tag_207:\n        /* \"#utility.yul\":9948:10019   */\n      swap2\n      pop\n        /* \"#utility.yul\":9904:10029   */\n      pop\n        /* \"#utility.yul\":9691:10036   */\n      swap3\n      swap2\n      pop\n      pop\n      jump\t// out\n        /* \"#utility.yul\":10042:10214   */\n    tag_101:\n        /* \"#utility.yul\":10182:10206   */\n      0x6e65656420617070726f7665642074686973206e667400000000000000000000\n        /* \"#utility.yul\":10178:10179   */\n      0x00\n        /* \"#utility.yul\":10170:10176   */\n      dup3\n        /* \"#utility.yul\":10166:10180   */\n      add\n        /* \"#utility.yul\":10159:10207   */\n      mstore\n        /* \"#utility.yul\":10042:10214   */\n      pop\n      jump\t// out\n        /* \"#utility.yul\":10220:10586   */\n    tag_102:\n        /* \"#utility.yul\":10362:10365   */\n      0x00\n        /* \"#utility.yul\":10383:10450   */\n      tag_210\n        /* \"#utility.yul\":10447:10449   */\n      0x16\n        /* \"#utility.yul\":10442:10445   */\n      dup4\n        /* \"#utility.yul\":10383:10450   */\n      tag_92\n      jump\t// in\n    tag_210:\n        /* \"#utility.yul\":10376:10450   */\n      swap2\n      pop\n        /* \"#utility.yul\":10459:10552   */\n      tag_211\n        /* \"#utility.yul\":10548:10551   */\n      dup3\n        /* \"#utility.yul\":10459:10552   */\n      tag_101\n      jump\t// in\n    tag_211:\n        /* \"#utility.yul\":10577:10579   */\n      0x20\n        /* \"#utility.yul\":10572:10575   */\n      dup3\n        /* \"#utility.yul\":10568:10580   */\n      add\n        /* \"#utility.yul\":10561:10580   */\n      swap1\n      pop\n        /* \"#utility.yul\":10220:10586   */\n      swap2\n      swap1\n      pop\n      jump\t// out\n        /* \"#utility.yul\":10592:11011   */\n    tag_64:\n        /* \"#utility.yul\":10758:10762   */\n      0x00\n        /* \"#utility.yul\":10796:10798   */\n      0x20\n        /* \"#utility.yul\":10785:10794   */\n      dup3\n        /* \"#utility.yul\":10781:10799   */\n      add\n        /* \"#utility.yul\":10773:10799   */\n      swap1\n      pop\n        /* \"#utility.yul\":10845:10854   */\n      dup2\n        /* \"#utility.yul\":10839:10843   */\n      dup2\n        /* \"#utility.yul\":10835:10855   */\n      sub\n        /* \"#utility.yul\":10831:10832   */\n      0x00\n        /* \"#utility.yul\":10820:10829   */\n      dup4\n        /* \"#utility.yul\":10816:10833   */\n      add\n        /* \"#utility.yul\":10809:10856   */\n      mstore\n        /* \"#utility.yul\":10873:11004   */\n      tag_213\n        /* \"#utility.yul\":10999:11003   */\n      dup2\n        /* \"#utility.yul\":10873:11004   */\n      tag_102\n      jump\t// in\n    tag_213:\n        /* \"#utility.yul\":10865:11004   */\n      swap1\n      pop\n        /* \"#utility.yul\":10592:11011   */\n      swap2\n      swap1\n      pop\n      jump\t// out\n        /* \"#utility.yul\":11017:11192   */\n    tag_103:\n        /* \"#utility.yul\":11157:11184   */\n      0x7072696365206e656564206d6f7265207468616e207a65726f00000000000000\n        /* \"#utility.yul\":11153:11154   */\n      0x00\n        /* \"#utility.yul\":11145:11151   */\n      dup3\n        /* \"#utility.yul\":11141:11155   */\n      add\n        /* \"#utility.yul\":11134:11185   */\n      mstore\n        /* \"#utility.yul\":11017:11192   */\n      pop\n      jump\t// out\n        /* \"#utility.yul\":11198:11564   */\n    tag_104:\n        /* \"#utility.yul\":11340:11343   */\n      0x00\n        /* \"#utility.yul\":11361:11428   */\n      tag_216\n        /* \"#utility.yul\":11425:11427   */\n      0x19\n        /* \"#utility.yul\":11420:11423   */\n      dup4\n        /* \"#utility.yul\":11361:11428   */\n      tag_92\n      jump\t// in\n    tag_216:\n        /* \"#utility.yul\":11354:11428   */\n      swap2\n      pop\n        /* \"#utility.yul\":11437:11530   */\n      tag_217\n        /* \"#utility.yul\":11526:11529   */\n      dup3\n        /* \"#utility.yul\":11437:11530   */\n      tag_103\n      jump\t// in\n    tag_217:\n        /* \"#utility.yul\":11555:11557   */\n      0x20\n        /* \"#utility.yul\":11550:11553   */\n      dup3\n        /* \"#utility.yul\":11546:11558   */\n      add\n        /* \"#utility.yul\":11539:11558   */\n      swap1\n      pop\n        /* \"#utility.yul\":11198:11564   */\n      swap2\n      swap1\n      pop\n      jump\t// out\n        /* \"#utility.yul\":11570:11989   */\n    tag_67:\n        /* \"#utility.yul\":11736:11740   */\n      0x00\n        /* \"#utility.yul\":11774:11776   */\n      0x20\n        /* \"#utility.yul\":11763:11772   */\n      dup3\n        /* \"#utility.yul\":11759:11777   */\n      add\n        /* \"#utility.yul\":11751:11777   */\n      swap1\n      pop\n        /* \"#utility.yul\":11823:11832   */\n      dup2\n        /* \"#utility.yul\":11817:11821   */\n      dup2\n        /* \"#utility.yul\":11813:11833   */\n      sub\n        /* \"#utility.yul\":11809:11810   */\n      0x00\n        /* \"#utility.yul\":11798:11807   */\n      dup4\n        /* \"#utility.yul\":11794:11811   */\n      add\n        /* \"#utility.yul\":11787:11834   */\n      mstore\n        /* \"#utility.yul\":11851:11982   */\n      tag_219\n        /* \"#utility.yul\":11977:11981   */\n      dup2\n        /* \"#utility.yul\":11851:11982   */\n      tag_104\n      jump\t// in\n    tag_219:\n        /* \"#utility.yul\":11843:11982   */\n      swap1\n      pop\n        /* \"#utility.yul\":11570:11989   */\n      swap2\n      swap1\n      pop\n      jump\t// out\n\n    auxdata: 0xa264697066735822122078a6161b052f00033d26fdf6c39511ae0ba7ec22f5740580772302c1a42ec10164736f6c634300081a0033\n}\n",
				"bytecode": {
					"linkReferences": {},
					"object": "608060405234801561000f575f80fd5b50604051610ee4380380610ee4833981810160405281019061003191906100d5565b8060015f6101000a81548173ffffffffffffffffffffffffffffffffffffffff021916908373ffffffffffffffffffffffffffffffffffffffff16021790555050610100565b5f80fd5b5f73ffffffffffffffffffffffffffffffffffffffff82169050919050565b5f6100a48261007b565b9050919050565b6100b48161009a565b81146100be575f80fd5b50565b5f815190506100cf816100ab565b92915050565b5f602082840312156100ea576100e9610077565b5b5f6100f7848285016100c1565b91505092915050565b610dd78061010d5f395ff3fe608060405234801561000f575f80fd5b506004361061004a575f3560e01c8063150b7a021461004e5780638de932221461007e578063dda342bb1461009a578063f4fb9b2f146100b6575b5f80fd5b61006860048036038101906100639190610902565b6100e7565b60405161007591906109c0565b60405180910390f35b610098600480360381019061009391906109d9565b6100fb565b005b6100b460048036038101906100af9190610a17565b610529565b005b6100d060048036038101906100cb91906109d9565b6107c3565b6040516100de929190610a85565b60405180910390f35b5f63150b7a0260e01b905095945050505050565b5f805f8473ffffffffffffffffffffffffffffffffffffffff1673ffffffffffffffffffffffffffffffffffffffff1681526020019081526020015f205f8381526020019081526020015f209050806001015460015f9054906101000a900473ffffffffffffffffffffffffffffffffffffffff1673ffffffffffffffffffffffffffffffffffffffff166370a08231336040518263ffffffff1660e01b81526004016101a89190610aac565b602060405180830381865afa1580156101c3573d5f803e3d5ffd5b505050506040513d601f19601f820116820180604052508101906101e79190610ad9565b11610227576040517f08c379a000000000000000000000000000000000000000000000000000000000815260040161021e90610b5e565b60405180910390fd5b5f8390503073ffffffffffffffffffffffffffffffffffffffff168173ffffffffffffffffffffffffffffffffffffffff16636352211e856040518263ffffffff1660e01b815260040161027b9190610b7c565b602060405180830381865afa158015610296573d5f803e3d5ffd5b505050506040513d601f19601f820116820180604052508101906102ba9190610ba9565b73ffffffffffffffffffffffffffffffffffffffff1614610310576040517f08c379a000000000000000000000000000000000000000000000000000000000815260040161030790610c1e565b60405180910390fd5b8073ffffffffffffffffffffffffffffffffffffffff166342842e0e3033866040518463ffffffff1660e01b815260040161034d93929190610c3c565b5f604051808303815f87803b158015610364575f80fd5b505af1158015610376573d5f803e3d5ffd5b5050505060015f9054906101000a900473ffffffffffffffffffffffffffffffffffffffff1673ffffffffffffffffffffffffffffffffffffffff166323b872dd33845f015f9054906101000a900473ffffffffffffffffffffffffffffffffffffffff1685600101546040518463ffffffff1660e01b81526004016103fe93929190610c3c565b6020604051808303815f875af115801561041a573d5f803e3d5ffd5b505050506040513d601f19601f8201168201806040525081019061043e9190610ca6565b505f808573ffffffffffffffffffffffffffffffffffffffff1673ffffffffffffffffffffffffffffffffffffffff1681526020019081526020015f205f8481526020019081526020015f205f8082015f6101000a81549073ffffffffffffffffffffffffffffffffffffffff0219169055600182015f90555050828473ffffffffffffffffffffffffffffffffffffffff163373ffffffffffffffffffffffffffffffffffffffff167f46661dab58311a6838247afecbee792192b4f27fc8b3e7168c66bc55ec2e404e856001015460405161051b9190610b7c565b60405180910390a450505050565b5f8390503073ffffffffffffffffffffffffffffffffffffffff168173ffffffffffffffffffffffffffffffffffffffff1663081812fc856040518263ffffffff1660e01b815260040161057d9190610b7c565b602060405180830381865afa158015610598573d5f803e3d5ffd5b505050506040513d601f19601f820116820180604052508101906105bc9190610ba9565b73ffffffffffffffffffffffffffffffffffffffff1614610612576040517f08c379a000000000000000000000000000000000000000000000000000000000815260040161060990610d1b565b60405180910390fd5b5f8211610654576040517f08c379a000000000000000000000000000000000000000000000000000000000815260040161064b90610d83565b60405180910390fd5b5f805f8673ffffffffffffffffffffffffffffffffffffffff1673ffffffffffffffffffffffffffffffffffffffff1681526020019081526020015f205f8581526020019081526020015f20905033815f015f6101000a81548173ffffffffffffffffffffffffffffffffffffffff021916908373ffffffffffffffffffffffffffffffffffffffff1602179055508281600101819055508173ffffffffffffffffffffffffffffffffffffffff166342842e0e3330876040518463ffffffff1660e01b815260040161072993929190610c3c565b5f604051808303815f87803b158015610740575f80fd5b505af1158015610752573d5f803e3d5ffd5b50505050838573ffffffffffffffffffffffffffffffffffffffff163373ffffffffffffffffffffffffffffffffffffffff167fedbdf022944a3291f4b30148903a84720506f48e10478ec5812e5caf30e1fab0866040516107b49190610b7c565b60405180910390a45050505050565b5f602052815f5260405f20602052805f5260405f205f9150915050805f015f9054906101000a900473ffffffffffffffffffffffffffffffffffffffff16908060010154905082565b5f80fd5b5f80fd5b5f73ffffffffffffffffffffffffffffffffffffffff82169050919050565b5f61083d82610814565b9050919050565b61084d81610833565b8114610857575f80fd5b50565b5f8135905061086881610844565b92915050565b5f819050919050565b6108808161086e565b811461088a575f80fd5b50565b5f8135905061089b81610877565b92915050565b5f80fd5b5f80fd5b5f80fd5b5f8083601f8401126108c2576108c16108a1565b5b8235905067ffffffffffffffff8111156108df576108de6108a5565b5b6020830191508360018202830111156108fb576108fa6108a9565b5b9250929050565b5f805f805f6080868803121561091b5761091a61080c565b5b5f6109288882890161085a565b95505060206109398882890161085a565b945050604061094a8882890161088d565b935050606086013567ffffffffffffffff81111561096b5761096a610810565b5b610977888289016108ad565b92509250509295509295909350565b5f7fffffffff0000000000000000000000000000000000000000000000000000000082169050919050565b6109ba81610986565b82525050565b5f6020820190506109d35f8301846109b1565b92915050565b5f80604083850312156109ef576109ee61080c565b5b5f6109fc8582860161085a565b9250506020610a0d8582860161088d565b9150509250929050565b5f805f60608486031215610a2e57610a2d61080c565b5b5f610a3b8682870161085a565b9350506020610a4c8682870161088d565b9250506040610a5d8682870161088d565b9150509250925092565b610a7081610833565b82525050565b610a7f8161086e565b82525050565b5f604082019050610a985f830185610a67565b610aa56020830184610a76565b9392505050565b5f602082019050610abf5f830184610a67565b92915050565b5f81519050610ad381610877565b92915050565b5f60208284031215610aee57610aed61080c565b5b5f610afb84828501610ac5565b91505092915050565b5f82825260208201905092915050565b7f6e6f7420656e6f75676820746f6b656e20746f206275790000000000000000005f82015250565b5f610b48601783610b04565b9150610b5382610b14565b602082019050919050565b5f6020820190508181035f830152610b7581610b3c565b9050919050565b5f602082019050610b8f5f830184610a76565b92915050565b5f81519050610ba381610844565b92915050565b5f60208284031215610bbe57610bbd61080c565b5b5f610bcb84828501610b95565b91505092915050565b7f696e76616c6964206f72646572000000000000000000000000000000000000005f82015250565b5f610c08600d83610b04565b9150610c1382610bd4565b602082019050919050565b5f6020820190508181035f830152610c3581610bfc565b9050919050565b5f606082019050610c4f5f830186610a67565b610c5c6020830185610a67565b610c696040830184610a76565b949350505050565b5f8115159050919050565b610c8581610c71565b8114610c8f575f80fd5b50565b5f81519050610ca081610c7c565b92915050565b5f60208284031215610cbb57610cba61080c565b5b5f610cc884828501610c92565b91505092915050565b7f6e65656420617070726f7665642074686973206e6674000000000000000000005f82015250565b5f610d05601683610b04565b9150610d1082610cd1565b602082019050919050565b5f6020820190508181035f830152610d3281610cf9565b9050919050565b7f7072696365206e656564206d6f7265207468616e207a65726f000000000000005f82015250565b5f610d6d601983610b04565b9150610d7882610d39565b602082019050919050565b5f6020820190508181035f830152610d9a81610d61565b905091905056fea264697066735822122078a6161b052f00033d26fdf6c39511ae0ba7ec22f5740580772302c1a42ec10164736f6c634300081a0033",
					"opcodes": "PUSH1 0x80 PUSH1 0x40 MSTORE CALLVALUE DUP1 ISZERO PUSH2 0xF JUMPI PUSH0 DUP1 REVERT JUMPDEST POP PUSH1 0x40 MLOAD PUSH2 0xEE4 CODESIZE SUB DUP1 PUSH2 0xEE4 DUP4 CODECOPY DUP2 DUP2 ADD PUSH1 0x40 MSTORE DUP2 ADD SWAP1 PUSH2 0x31 SWAP2 SWAP1 PUSH2 0xD5 JUMP JUMPDEST DUP1 PUSH1 0x1 PUSH0 PUSH2 0x100 EXP DUP2 SLOAD DUP2 PUSH20 0xFFFFFFFFFFFFFFFFFFFFFFFFFFFFFFFFFFFFFFFF MUL NOT AND SWAP1 DUP4 PUSH20 0xFFFFFFFFFFFFFFFFFFFFFFFFFFFFFFFFFFFFFFFF AND MUL OR SWAP1 SSTORE POP POP PUSH2 0x100 JUMP JUMPDEST PUSH0 DUP1 REVERT JUMPDEST PUSH0 PUSH20 0xFFFFFFFFFFFFFFFFFFFFFFFFFFFFFFFFFFFFFFFF DUP3 AND SWAP1 POP SWAP2 SWAP1 POP JUMP JUMPDEST PUSH0 PUSH2 0xA4 DUP3 PUSH2 0x7B JUMP JUMPDEST SWAP1 POP SWAP2 SWAP1 POP JUMP JUMPDEST PUSH2 0xB4 DUP2 PUSH2 0x9A JUMP JUMPDEST DUP2 EQ PUSH2 0xBE JUMPI PUSH0 DUP1 REVERT JUMPDEST POP JUMP JUMPDEST PUSH0 DUP2 MLOAD SWAP1 POP PUSH2 0xCF DUP2 PUSH2 0xAB JUMP JUMPDEST SWAP3 SWAP2 POP POP JUMP JUMPDEST PUSH0 PUSH1 0x20 DUP3 DUP5 SUB SLT ISZERO PUSH2 0xEA JUMPI PUSH2 0xE9 PUSH2 0x77 JUMP JUMPDEST JUMPDEST PUSH0 PUSH2 0xF7 DUP5 DUP3 DUP6 ADD PUSH2 0xC1 JUMP JUMPDEST SWAP2 POP POP SWAP3 SWAP2 POP POP JUMP JUMPDEST PUSH2 0xDD7 DUP1 PUSH2 0x10D PUSH0 CODECOPY PUSH0 RETURN INVALID PUSH1 0x80 PUSH1 0x40 MSTORE CALLVALUE DUP1 ISZERO PUSH2 0xF JUMPI PUSH0 DUP1 REVERT JUMPDEST POP PUSH1 0x4 CALLDATASIZE LT PUSH2 0x4A JUMPI PUSH0 CALLDATALOAD PUSH1 0xE0 SHR DUP1 PUSH4 0x150B7A02 EQ PUSH2 0x4E JUMPI DUP1 PUSH4 0x8DE93222 EQ PUSH2 0x7E JUMPI DUP1 PUSH4 0xDDA342BB EQ PUSH2 0x9A JUMPI DUP1 PUSH4 0xF4FB9B2F EQ PUSH2 0xB6 JUMPI JUMPDEST PUSH0 DUP1 REVERT JUMPDEST PUSH2 0x68 PUSH1 0x4 DUP1 CALLDATASIZE SUB DUP2 ADD SWAP1 PUSH2 0x63 SWAP2 SWAP1 PUSH2 0x902 JUMP JUMPDEST PUSH2 0xE7 JUMP JUMPDEST PUSH1 0x40 MLOAD PUSH2 0x75 SWAP2 SWAP1 PUSH2 0x9C0 JUMP JUMPDEST PUSH1 0x40 MLOAD DUP1 SWAP2 SUB SWAP1 RETURN JUMPDEST PUSH2 0x98 PUSH1 0x4 DUP1 CALLDATASIZE SUB DUP2 ADD SWAP1 PUSH2 0x93 SWAP2 SWAP1 PUSH2 0x9D9 JUMP JUMPDEST PUSH2 0xFB JUMP JUMPDEST STOP JUMPDEST PUSH2 0xB4 PUSH1 0x4 DUP1 CALLDATASIZE SUB DUP2 ADD SWAP1 PUSH2 0xAF SWAP2 SWAP1 PUSH2 0xA17 JUMP JUMPDEST PUSH2 0x529 JUMP JUMPDEST STOP JUMPDEST PUSH2 0xD0 PUSH1 0x4 DUP1 CALLDATASIZE SUB DUP2 ADD SWAP1 PUSH2 0xCB SWAP2 SWAP1 PUSH2 0x9D9 JUMP JUMPDEST PUSH2 0x7C3 JUMP JUMPDEST PUSH1 0x40 MLOAD PUSH2 0xDE SWAP3 SWAP2 SWAP1 PUSH2 0xA85 JUMP JUMPDEST PUSH1 0x40 MLOAD DUP1 SWAP2 SUB SWAP1 RETURN JUMPDEST PUSH0 PUSH4 0x150B7A02 PUSH1 0xE0 SHL SWAP1 POP SWAP6 SWAP5 POP POP POP POP POP JUMP JUMPDEST PUSH0 DUP1 PUSH0 DUP5 PUSH20 0xFFFFFFFFFFFFFFFFFFFFFFFFFFFFFFFFFFFFFFFF AND PUSH20 0xFFFFFFFFFFFFFFFFFFFFFFFFFFFFFFFFFFFFFFFF AND DUP2 MSTORE PUSH1 0x20 ADD SWAP1 DUP2 MSTORE PUSH1 0x20 ADD PUSH0 KECCAK256 PUSH0 DUP4 DUP2 MSTORE PUSH1 0x20 ADD SWAP1 DUP2 MSTORE PUSH1 0x20 ADD PUSH0 KECCAK256 SWAP1 POP DUP1 PUSH1 0x1 ADD SLOAD PUSH1 0x1 PUSH0 SWAP1 SLOAD SWAP1 PUSH2 0x100 EXP SWAP1 DIV PUSH20 0xFFFFFFFFFFFFFFFFFFFFFFFFFFFFFFFFFFFFFFFF AND PUSH20 0xFFFFFFFFFFFFFFFFFFFFFFFFFFFFFFFFFFFFFFFF AND PUSH4 0x70A08231 CALLER PUSH1 0x40 MLOAD DUP3 PUSH4 0xFFFFFFFF AND PUSH1 0xE0 SHL DUP2 MSTORE PUSH1 0x4 ADD PUSH2 0x1A8 SWAP2 SWAP1 PUSH2 0xAAC JUMP JUMPDEST PUSH1 0x20 PUSH1 0x40 MLOAD DUP1 DUP4 SUB DUP2 DUP7 GAS STATICCALL ISZERO DUP1 ISZERO PUSH2 0x1C3 JUMPI RETURNDATASIZE PUSH0 DUP1 RETURNDATACOPY RETURNDATASIZE PUSH0 REVERT JUMPDEST POP POP POP POP PUSH1 0x40 MLOAD RETURNDATASIZE PUSH1 0x1F NOT PUSH1 0x1F DUP3 ADD AND DUP3 ADD DUP1 PUSH1 0x40 MSTORE POP DUP2 ADD SWAP1 PUSH2 0x1E7 SWAP2 SWAP1 PUSH2 0xAD9 JUMP JUMPDEST GT PUSH2 0x227 JUMPI PUSH1 0x40 MLOAD PUSH32 0x8C379A000000000000000000000000000000000000000000000000000000000 DUP2 MSTORE PUSH1 0x4 ADD PUSH2 0x21E SWAP1 PUSH2 0xB5E JUMP JUMPDEST PUSH1 0x40 MLOAD DUP1 SWAP2 SUB SWAP1 REVERT JUMPDEST PUSH0 DUP4 SWAP1 POP ADDRESS PUSH20 0xFFFFFFFFFFFFFFFFFFFFFFFFFFFFFFFFFFFFFFFF AND DUP2 PUSH20 0xFFFFFFFFFFFFFFFFFFFFFFFFFFFFFFFFFFFFFFFF AND PUSH4 0x6352211E DUP6 PUSH1 0x40 MLOAD DUP3 PUSH4 0xFFFFFFFF AND PUSH1 0xE0 SHL DUP2 MSTORE PUSH1 0x4 ADD PUSH2 0x27B SWAP2 SWAP1 PUSH2 0xB7C JUMP JUMPDEST PUSH1 0x20 PUSH1 0x40 MLOAD DUP1 DUP4 SUB DUP2 DUP7 GAS STATICCALL ISZERO DUP1 ISZERO PUSH2 0x296 JUMPI RETURNDATASIZE PUSH0 DUP1 RETURNDATACOPY RETURNDATASIZE PUSH0 REVERT JUMPDEST POP POP POP POP PUSH1 0x40 MLOAD RETURNDATASIZE PUSH1 0x1F NOT PUSH1 0x1F DUP3 ADD AND DUP3 ADD DUP1 PUSH1 0x40 MSTORE POP DUP2 ADD SWAP1 PUSH2 0x2BA SWAP2 SWAP1 PUSH2 0xBA9 JUMP JUMPDEST PUSH20 0xFFFFFFFFFFFFFFFFFFFFFFFFFFFFFFFFFFFFFFFF AND EQ PUSH2 0x310 JUMPI PUSH1 0x40 MLOAD PUSH32 0x8C379A000000000000000000000000000000000000000000000000000000000 DUP2 MSTORE PUSH1 0x4 ADD PUSH2 0x307 SWAP1 PUSH2 0xC1E JUMP JUMPDEST PUSH1 0x40 MLOAD DUP1 SWAP2 SUB SWAP1 REVERT JUMPDEST DUP1 PUSH20 0xFFFFFFFFFFFFFFFFFFFFFFFFFFFFFFFFFFFFFFFF AND PUSH4 0x42842E0E ADDRESS CALLER DUP7 PUSH1 0x40 MLOAD DUP5 PUSH4 0xFFFFFFFF AND PUSH1 0xE0 SHL DUP2 MSTORE PUSH1 0x4 ADD PUSH2 0x34D SWAP4 SWAP3 SWAP2 SWAP1 PUSH2 0xC3C JUMP JUMPDEST PUSH0 PUSH1 0x40 MLOAD DUP1 DUP4 SUB DUP2 PUSH0 DUP8 DUP1 EXTCODESIZE ISZERO DUP1 ISZERO PUSH2 0x364 JUMPI PUSH0 DUP1 REVERT JUMPDEST POP GAS CALL ISZERO DUP1 ISZERO PUSH2 0x376 JUMPI RETURNDATASIZE PUSH0 DUP1 RETURNDATACOPY RETURNDATASIZE PUSH0 REVERT JUMPDEST POP POP POP POP PUSH1 0x1 PUSH0 SWAP1 SLOAD SWAP1 PUSH2 0x100 EXP SWAP1 DIV PUSH20 0xFFFFFFFFFFFFFFFFFFFFFFFFFFFFFFFFFFFFFFFF AND PUSH20 0xFFFFFFFFFFFFFFFFFFFFFFFFFFFFFFFFFFFFFFFF AND PUSH4 0x23B872DD CALLER DUP5 PUSH0 ADD PUSH0 SWAP1 SLOAD SWAP1 PUSH2 0x100 EXP SWAP1 DIV PUSH20 0xFFFFFFFFFFFFFFFFFFFFFFFFFFFFFFFFFFFFFFFF AND DUP6 PUSH1 0x1 ADD SLOAD PUSH1 0x40 MLOAD DUP5 PUSH4 0xFFFFFFFF AND PUSH1 0xE0 SHL DUP2 MSTORE PUSH1 0x4 ADD PUSH2 0x3FE SWAP4 SWAP3 SWAP2 SWAP1 PUSH2 0xC3C JUMP JUMPDEST PUSH1 0x20 PUSH1 0x40 MLOAD DUP1 DUP4 SUB DUP2 PUSH0 DUP8 GAS CALL ISZERO DUP1 ISZERO PUSH2 0x41A JUMPI RETURNDATASIZE PUSH0 DUP1 RETURNDATACOPY RETURNDATASIZE PUSH0 REVERT JUMPDEST POP POP POP POP PUSH1 0x40 MLOAD RETURNDATASIZE PUSH1 0x1F NOT PUSH1 0x1F DUP3 ADD AND DUP3 ADD DUP1 PUSH1 0x40 MSTORE POP DUP2 ADD SWAP1 PUSH2 0x43E SWAP2 SWAP1 PUSH2 0xCA6 JUMP JUMPDEST POP PUSH0 DUP1 DUP6 PUSH20 0xFFFFFFFFFFFFFFFFFFFFFFFFFFFFFFFFFFFFFFFF AND PUSH20 0xFFFFFFFFFFFFFFFFFFFFFFFFFFFFFFFFFFFFFFFF AND DUP2 MSTORE PUSH1 0x20 ADD SWAP1 DUP2 MSTORE PUSH1 0x20 ADD PUSH0 KECCAK256 PUSH0 DUP5 DUP2 MSTORE PUSH1 0x20 ADD SWAP1 DUP2 MSTORE PUSH1 0x20 ADD PUSH0 KECCAK256 PUSH0 DUP1 DUP3 ADD PUSH0 PUSH2 0x100 EXP DUP2 SLOAD SWAP1 PUSH20 0xFFFFFFFFFFFFFFFFFFFFFFFFFFFFFFFFFFFFFFFF MUL NOT AND SWAP1 SSTORE PUSH1 0x1 DUP3 ADD PUSH0 SWAP1 SSTORE POP POP DUP3 DUP5 PUSH20 0xFFFFFFFFFFFFFFFFFFFFFFFFFFFFFFFFFFFFFFFF AND CALLER PUSH20 0xFFFFFFFFFFFFFFFFFFFFFFFFFFFFFFFFFFFFFFFF AND PUSH32 0x46661DAB58311A6838247AFECBEE792192B4F27FC8B3E7168C66BC55EC2E404E DUP6 PUSH1 0x1 ADD SLOAD PUSH1 0x40 MLOAD PUSH2 0x51B SWAP2 SWAP1 PUSH2 0xB7C JUMP JUMPDEST PUSH1 0x40 MLOAD DUP1 SWAP2 SUB SWAP1 LOG4 POP POP POP POP JUMP JUMPDEST PUSH0 DUP4 SWAP1 POP ADDRESS PUSH20 0xFFFFFFFFFFFFFFFFFFFFFFFFFFFFFFFFFFFFFFFF AND DUP2 PUSH20 0xFFFFFFFFFFFFFFFFFFFFFFFFFFFFFFFFFFFFFFFF AND PUSH4 0x81812FC DUP6 PUSH1 0x40 MLOAD DUP3 PUSH4 0xFFFFFFFF AND PUSH1 0xE0 SHL DUP2 MSTORE PUSH1 0x4 ADD PUSH2 0x57D SWAP2 SWAP1 PUSH2 0xB7C JUMP JUMPDEST PUSH1 0x20 PUSH1 0x40 MLOAD DUP1 DUP4 SUB DUP2 DUP7 GAS STATICCALL ISZERO DUP1 ISZERO PUSH2 0x598 JUMPI RETURNDATASIZE PUSH0 DUP1 RETURNDATACOPY RETURNDATASIZE PUSH0 REVERT JUMPDEST POP POP POP POP PUSH1 0x40 MLOAD RETURNDATASIZE PUSH1 0x1F NOT PUSH1 0x1F DUP3 ADD AND DUP3 ADD DUP1 PUSH1 0x40 MSTORE POP DUP2 ADD SWAP1 PUSH2 0x5BC SWAP2 SWAP1 PUSH2 0xBA9 JUMP JUMPDEST PUSH20 0xFFFFFFFFFFFFFFFFFFFFFFFFFFFFFFFFFFFFFFFF AND EQ PUSH2 0x612 JUMPI PUSH1 0x40 MLOAD PUSH32 0x8C379A000000000000000000000000000000000000000000000000000000000 DUP2 MSTORE PUSH1 0x4 ADD PUSH2 0x609 SWAP1 PUSH2 0xD1B JUMP JUMPDEST PUSH1 0x40 MLOAD DUP1 SWAP2 SUB SWAP1 REVERT JUMPDEST PUSH0 DUP3 GT PUSH2 0x654 JUMPI PUSH1 0x40 MLOAD PUSH32 0x8C379A000000000000000000000000000000000000000000000000000000000 DUP2 MSTORE PUSH1 0x4 ADD PUSH2 0x64B SWAP1 PUSH2 0xD83 JUMP JUMPDEST PUSH1 0x40 MLOAD DUP1 SWAP2 SUB SWAP1 REVERT JUMPDEST PUSH0 DUP1 PUSH0 DUP7 PUSH20 0xFFFFFFFFFFFFFFFFFFFFFFFFFFFFFFFFFFFFFFFF AND PUSH20 0xFFFFFFFFFFFFFFFFFFFFFFFFFFFFFFFFFFFFFFFF AND DUP2 MSTORE PUSH1 0x20 ADD SWAP1 DUP2 MSTORE PUSH1 0x20 ADD PUSH0 KECCAK256 PUSH0 DUP6 DUP2 MSTORE PUSH1 0x20 ADD SWAP1 DUP2 MSTORE PUSH1 0x20 ADD PUSH0 KECCAK256 SWAP1 POP CALLER DUP2 PUSH0 ADD PUSH0 PUSH2 0x100 EXP DUP2 SLOAD DUP2 PUSH20 0xFFFFFFFFFFFFFFFFFFFFFFFFFFFFFFFFFFFFFFFF MUL NOT AND SWAP1 DUP4 PUSH20 0xFFFFFFFFFFFFFFFFFFFFFFFFFFFFFFFFFFFFFFFF AND MUL OR SWAP1 SSTORE POP DUP3 DUP2 PUSH1 0x1 ADD DUP2 SWAP1 SSTORE POP DUP2 PUSH20 0xFFFFFFFFFFFFFFFFFFFFFFFFFFFFFFFFFFFFFFFF AND PUSH4 0x42842E0E CALLER ADDRESS DUP8 PUSH1 0x40 MLOAD DUP5 PUSH4 0xFFFFFFFF AND PUSH1 0xE0 SHL DUP2 MSTORE PUSH1 0x4 ADD PUSH2 0x729 SWAP4 SWAP3 SWAP2 SWAP1 PUSH2 0xC3C JUMP JUMPDEST PUSH0 PUSH1 0x40 MLOAD DUP1 DUP4 SUB DUP2 PUSH0 DUP8 DUP1 EXTCODESIZE ISZERO DUP1 ISZERO PUSH2 0x740 JUMPI PUSH0 DUP1 REVERT JUMPDEST POP GAS CALL ISZERO DUP1 ISZERO PUSH2 0x752 JUMPI RETURNDATASIZE PUSH0 DUP1 RETURNDATACOPY RETURNDATASIZE PUSH0 REVERT JUMPDEST POP POP POP POP DUP4 DUP6 PUSH20 0xFFFFFFFFFFFFFFFFFFFFFFFFFFFFFFFFFFFFFFFF AND CALLER PUSH20 0xFFFFFFFFFFFFFFFFFFFFFFFFFFFFFFFFFFFFFFFF AND PUSH32 0xEDBDF022944A3291F4B30148903A84720506F48E10478EC5812E5CAF30E1FAB0 DUP7 PUSH1 0x40 MLOAD PUSH2 0x7B4 SWAP2 SWAP1 PUSH2 0xB7C JUMP JUMPDEST PUSH1 0x40 MLOAD DUP1 SWAP2 SUB SWAP1 LOG4 POP POP POP POP POP JUMP JUMPDEST PUSH0 PUSH1 0x20 MSTORE DUP2 PUSH0 MSTORE PUSH1 0x40 PUSH0 KECCAK256 PUSH1 0x20 MSTORE DUP1 PUSH0 MSTORE PUSH1 0x40 PUSH0 KECCAK256 PUSH0 SWAP2 POP SWAP2 POP POP DUP1 PUSH0 ADD PUSH0 SWAP1 SLOAD SWAP1 PUSH2 0x100 EXP SWAP1 DIV PUSH20 0xFFFFFFFFFFFFFFFFFFFFFFFFFFFFFFFFFFFFFFFF AND SWAP1 DUP1 PUSH1 0x1 ADD SLOAD SWAP1 POP DUP3 JUMP JUMPDEST PUSH0 DUP1 REVERT JUMPDEST PUSH0 DUP1 REVERT JUMPDEST PUSH0 PUSH20 0xFFFFFFFFFFFFFFFFFFFFFFFFFFFFFFFFFFFFFFFF DUP3 AND SWAP1 POP SWAP2 SWAP1 POP JUMP JUMPDEST PUSH0 PUSH2 0x83D DUP3 PUSH2 0x814 JUMP JUMPDEST SWAP1 POP SWAP2 SWAP1 POP JUMP JUMPDEST PUSH2 0x84D DUP2 PUSH2 0x833 JUMP JUMPDEST DUP2 EQ PUSH2 0x857 JUMPI PUSH0 DUP1 REVERT JUMPDEST POP JUMP JUMPDEST PUSH0 DUP2 CALLDATALOAD SWAP1 POP PUSH2 0x868 DUP2 PUSH2 0x844 JUMP JUMPDEST SWAP3 SWAP2 POP POP JUMP JUMPDEST PUSH0 DUP2 SWAP1 POP SWAP2 SWAP1 POP JUMP JUMPDEST PUSH2 0x880 DUP2 PUSH2 0x86E JUMP JUMPDEST DUP2 EQ PUSH2 0x88A JUMPI PUSH0 DUP1 REVERT JUMPDEST POP JUMP JUMPDEST PUSH0 DUP2 CALLDATALOAD SWAP1 POP PUSH2 0x89B DUP2 PUSH2 0x877 JUMP JUMPDEST SWAP3 SWAP2 POP POP JUMP JUMPDEST PUSH0 DUP1 REVERT JUMPDEST PUSH0 DUP1 REVERT JUMPDEST PUSH0 DUP1 REVERT JUMPDEST PUSH0 DUP1 DUP4 PUSH1 0x1F DUP5 ADD SLT PUSH2 0x8C2 JUMPI PUSH2 0x8C1 PUSH2 0x8A1 JUMP JUMPDEST JUMPDEST DUP3 CALLDATALOAD SWAP1 POP PUSH8 0xFFFFFFFFFFFFFFFF DUP2 GT ISZERO PUSH2 0x8DF JUMPI PUSH2 0x8DE PUSH2 0x8A5 JUMP JUMPDEST JUMPDEST PUSH1 0x20 DUP4 ADD SWAP2 POP DUP4 PUSH1 0x1 DUP3 MUL DUP4 ADD GT ISZERO PUSH2 0x8FB JUMPI PUSH2 0x8FA PUSH2 0x8A9 JUMP JUMPDEST JUMPDEST SWAP3 POP SWAP3 SWAP1 POP JUMP JUMPDEST PUSH0 DUP1 PUSH0 DUP1 PUSH0 PUSH1 0x80 DUP7 DUP9 SUB SLT ISZERO PUSH2 0x91B JUMPI PUSH2 0x91A PUSH2 0x80C JUMP JUMPDEST JUMPDEST PUSH0 PUSH2 0x928 DUP9 DUP3 DUP10 ADD PUSH2 0x85A JUMP JUMPDEST SWAP6 POP POP PUSH1 0x20 PUSH2 0x939 DUP9 DUP3 DUP10 ADD PUSH2 0x85A JUMP JUMPDEST SWAP5 POP POP PUSH1 0x40 PUSH2 0x94A DUP9 DUP3 DUP10 ADD PUSH2 0x88D JUMP JUMPDEST SWAP4 POP POP PUSH1 0x60 DUP7 ADD CALLDATALOAD PUSH8 0xFFFFFFFFFFFFFFFF DUP2 GT ISZERO PUSH2 0x96B JUMPI PUSH2 0x96A PUSH2 0x810 JUMP JUMPDEST JUMPDEST PUSH2 0x977 DUP9 DUP3 DUP10 ADD PUSH2 0x8AD JUMP JUMPDEST SWAP3 POP SWAP3 POP POP SWAP3 SWAP6 POP SWAP3 SWAP6 SWAP1 SWAP4 POP JUMP JUMPDEST PUSH0 PUSH32 0xFFFFFFFF00000000000000000000000000000000000000000000000000000000 DUP3 AND SWAP1 POP SWAP2 SWAP1 POP JUMP JUMPDEST PUSH2 0x9BA DUP2 PUSH2 0x986 JUMP JUMPDEST DUP3 MSTORE POP POP JUMP JUMPDEST PUSH0 PUSH1 0x20 DUP3 ADD SWAP1 POP PUSH2 0x9D3 PUSH0 DUP4 ADD DUP5 PUSH2 0x9B1 JUMP JUMPDEST SWAP3 SWAP2 POP POP JUMP JUMPDEST PUSH0 DUP1 PUSH1 0x40 DUP4 DUP6 SUB SLT ISZERO PUSH2 0x9EF JUMPI PUSH2 0x9EE PUSH2 0x80C JUMP JUMPDEST JUMPDEST PUSH0 PUSH2 0x9FC DUP6 DUP3 DUP7 ADD PUSH2 0x85A JUMP JUMPDEST SWAP3 POP POP PUSH1 0x20 PUSH2 0xA0D DUP6 DUP3 DUP7 ADD PUSH2 0x88D JUMP JUMPDEST SWAP2 POP POP SWAP3 POP SWAP3 SWAP1 POP JUMP JUMPDEST PUSH0 DUP1 PUSH0 PUSH1 0x60 DUP5 DUP7 SUB SLT ISZERO PUSH2 0xA2E JUMPI PUSH2 0xA2D PUSH2 0x80C JUMP JUMPDEST JUMPDEST PUSH0 PUSH2 0xA3B DUP7 DUP3 DUP8 ADD PUSH2 0x85A JUMP JUMPDEST SWAP4 POP POP PUSH1 0x20 PUSH2 0xA4C DUP7 DUP3 DUP8 ADD PUSH2 0x88D JUMP JUMPDEST SWAP3 POP POP PUSH1 0x40 PUSH2 0xA5D DUP7 DUP3 DUP8 ADD PUSH2 0x88D JUMP JUMPDEST SWAP2 POP POP SWAP3 POP SWAP3 POP SWAP3 JUMP JUMPDEST PUSH2 0xA70 DUP2 PUSH2 0x833 JUMP JUMPDEST DUP3 MSTORE POP POP JUMP JUMPDEST PUSH2 0xA7F DUP2 PUSH2 0x86E JUMP JUMPDEST DUP3 MSTORE POP POP JUMP JUMPDEST PUSH0 PUSH1 0x40 DUP3 ADD SWAP1 POP PUSH2 0xA98 PUSH0 DUP4 ADD DUP6 PUSH2 0xA67 JUMP JUMPDEST PUSH2 0xAA5 PUSH1 0x20 DUP4 ADD DUP5 PUSH2 0xA76 JUMP JUMPDEST SWAP4 SWAP3 POP POP POP JUMP JUMPDEST PUSH0 PUSH1 0x20 DUP3 ADD SWAP1 POP PUSH2 0xABF PUSH0 DUP4 ADD DUP5 PUSH2 0xA67 JUMP JUMPDEST SWAP3 SWAP2 POP POP JUMP JUMPDEST PUSH0 DUP2 MLOAD SWAP1 POP PUSH2 0xAD3 DUP2 PUSH2 0x877 JUMP JUMPDEST SWAP3 SWAP2 POP POP JUMP JUMPDEST PUSH0 PUSH1 0x20 DUP3 DUP5 SUB SLT ISZERO PUSH2 0xAEE JUMPI PUSH2 0xAED PUSH2 0x80C JUMP JUMPDEST JUMPDEST PUSH0 PUSH2 0xAFB DUP5 DUP3 DUP6 ADD PUSH2 0xAC5 JUMP JUMPDEST SWAP2 POP POP SWAP3 SWAP2 POP POP JUMP JUMPDEST PUSH0 DUP3 DUP3 MSTORE PUSH1 0x20 DUP3 ADD SWAP1 POP SWAP3 SWAP2 POP POP JUMP JUMPDEST PUSH32 0x6E6F7420656E6F75676820746F6B656E20746F20627579000000000000000000 PUSH0 DUP3 ADD MSTORE POP JUMP JUMPDEST PUSH0 PUSH2 0xB48 PUSH1 0x17 DUP4 PUSH2 0xB04 JUMP JUMPDEST SWAP2 POP PUSH2 0xB53 DUP3 PUSH2 0xB14 JUMP JUMPDEST PUSH1 0x20 DUP3 ADD SWAP1 POP SWAP2 SWAP1 POP JUMP JUMPDEST PUSH0 PUSH1 0x20 DUP3 ADD SWAP1 POP DUP2 DUP2 SUB PUSH0 DUP4 ADD MSTORE PUSH2 0xB75 DUP2 PUSH2 0xB3C JUMP JUMPDEST SWAP1 POP SWAP2 SWAP1 POP JUMP JUMPDEST PUSH0 PUSH1 0x20 DUP3 ADD SWAP1 POP PUSH2 0xB8F PUSH0 DUP4 ADD DUP5 PUSH2 0xA76 JUMP JUMPDEST SWAP3 SWAP2 POP POP JUMP JUMPDEST PUSH0 DUP2 MLOAD SWAP1 POP PUSH2 0xBA3 DUP2 PUSH2 0x844 JUMP JUMPDEST SWAP3 SWAP2 POP POP JUMP JUMPDEST PUSH0 PUSH1 0x20 DUP3 DUP5 SUB SLT ISZERO PUSH2 0xBBE JUMPI PUSH2 0xBBD PUSH2 0x80C JUMP JUMPDEST JUMPDEST PUSH0 PUSH2 0xBCB DUP5 DUP3 DUP6 ADD PUSH2 0xB95 JUMP JUMPDEST SWAP2 POP POP SWAP3 SWAP2 POP POP JUMP JUMPDEST PUSH32 0x696E76616C6964206F7264657200000000000000000000000000000000000000 PUSH0 DUP3 ADD MSTORE POP JUMP JUMPDEST PUSH0 PUSH2 0xC08 PUSH1 0xD DUP4 PUSH2 0xB04 JUMP JUMPDEST SWAP2 POP PUSH2 0xC13 DUP3 PUSH2 0xBD4 JUMP JUMPDEST PUSH1 0x20 DUP3 ADD SWAP1 POP SWAP2 SWAP1 POP JUMP JUMPDEST PUSH0 PUSH1 0x20 DUP3 ADD SWAP1 POP DUP2 DUP2 SUB PUSH0 DUP4 ADD MSTORE PUSH2 0xC35 DUP2 PUSH2 0xBFC JUMP JUMPDEST SWAP1 POP SWAP2 SWAP1 POP JUMP JUMPDEST PUSH0 PUSH1 0x60 DUP3 ADD SWAP1 POP PUSH2 0xC4F PUSH0 DUP4 ADD DUP7 PUSH2 0xA67 JUMP JUMPDEST PUSH2 0xC5C PUSH1 0x20 DUP4 ADD DUP6 PUSH2 0xA67 JUMP JUMPDEST PUSH2 0xC69 PUSH1 0x40 DUP4 ADD DUP5 PUSH2 0xA76 JUMP JUMPDEST SWAP5 SWAP4 POP POP POP POP JUMP JUMPDEST PUSH0 DUP2 ISZERO ISZERO SWAP1 POP SWAP2 SWAP1 POP JUMP JUMPDEST PUSH2 0xC85 DUP2 PUSH2 0xC71 JUMP JUMPDEST DUP2 EQ PUSH2 0xC8F JUMPI PUSH0 DUP1 REVERT JUMPDEST POP JUMP JUMPDEST PUSH0 DUP2 MLOAD SWAP1 POP PUSH2 0xCA0 DUP2 PUSH2 0xC7C JUMP JUMPDEST SWAP3 SWAP2 POP POP JUMP JUMPDEST PUSH0 PUSH1 0x20 DUP3 DUP5 SUB SLT ISZERO PUSH2 0xCBB JUMPI PUSH2 0xCBA PUSH2 0x80C JUMP JUMPDEST JUMPDEST PUSH0 PUSH2 0xCC8 DUP5 DUP3 DUP6 ADD PUSH2 0xC92 JUMP JUMPDEST SWAP2 POP POP SWAP3 SWAP2 POP POP JUMP JUMPDEST PUSH32 0x6E65656420617070726F7665642074686973206E667400000000000000000000 PUSH0 DUP3 ADD MSTORE POP JUMP JUMPDEST PUSH0 PUSH2 0xD05 PUSH1 0x16 DUP4 PUSH2 0xB04 JUMP JUMPDEST SWAP2 POP PUSH2 0xD10 DUP3 PUSH2 0xCD1 JUMP JUMPDEST PUSH1 0x20 DUP3 ADD SWAP1 POP SWAP2 SWAP1 POP JUMP JUMPDEST PUSH0 PUSH1 0x20 DUP3 ADD SWAP1 POP DUP2 DUP2 SUB PUSH0 DUP4 ADD MSTORE PUSH2 0xD32 DUP2 PUSH2 0xCF9 JUMP JUMPDEST SWAP1 POP SWAP2 SWAP1 POP JUMP JUMPDEST PUSH32 0x7072696365206E656564206D6F7265207468616E207A65726F00000000000000 PUSH0 DUP3 ADD MSTORE POP JUMP JUMPDEST PUSH0 PUSH2 0xD6D PUSH1 0x19 DUP4 PUSH2 0xB04 JUMP JUMPDEST SWAP2 POP PUSH2 0xD78 DUP3 PUSH2 0xD39 JUMP JUMPDEST PUSH1 0x20 DUP3 ADD SWAP1 POP SWAP2 SWAP1 POP JUMP JUMPDEST PUSH0 PUSH1 0x20 DUP3 ADD SWAP1 POP DUP2 DUP2 SUB PUSH0 DUP4 ADD MSTORE PUSH2 0xD9A DUP2 PUSH2 0xD61 JUMP JUMPDEST SWAP1 POP SWAP2 SWAP1 POP JUMP INVALID LOG2 PUSH5 0x6970667358 0x22 SLT KECCAK256 PUSH25 0xA6161B052F00033D26FDF6C39511AE0BA7EC22F57405807723 MUL 0xC1 LOG4 0x2E 0xC1 ADD PUSH5 0x736F6C6343 STOP ADDMOD BYTE STOP CALLER "
				},
				"gasEstimates": {
					"creation": {
						"codeDepositCost": "708600",
						"executionCost": "infinite",
						"totalCost": "infinite"
					},
					"external": {
						"list(address,uint256,uint256)": "infinite",
						"onERC721Received(address,address,uint256,bytes)": "infinite",
						"orderList(address,uint256)": "infinite",
						"purchase(address,uint256)": "infinite"
					}
				},
				"methodIdentifiers": {
					"list(address,uint256,uint256)": "dda342bb",
					"onERC721Received(address,address,uint256,bytes)": "150b7a02",
					"orderList(address,uint256)": "f4fb9b2f",
					"purchase(address,uint256)": "8de93222"
				}
			},
			"storageLayout": {
				"storage": [
					{
						"astId": 266,
						"contract": "members/zpjayyy/task3/my-contract/src/NftMarket.sol:NftMarket",
						"label": "orderList",
						"offset": 0,
						"slot": "0",
						"type": "t_mapping(t_address,t_mapping(t_uint256,t_struct(Order)259_storage))"
					},
					{
						"astId": 269,
						"contract": "members/zpjayyy/task3/my-contract/src/NftMarket.sol:NftMarket",
						"label": "_myToken",
						"offset": 0,
						"slot": "1",
						"type": "t_contract(IERC20)77"
					}
				],
				"types": {
					"t_address": {
						"encoding": "inplace",
						"label": "address",
						"numberOfBytes": "20"
					},
					"t_contract(IERC20)77": {
						"encoding": "inplace",
						"label": "contract IERC20",
						"numberOfBytes": "20"
					},
					"t_mapping(t_address,t_mapping(t_uint256,t_struct(Order)259_storage))": {
						"encoding": "mapping",
						"key": "t_address",
						"label": "mapping(address => mapping(uint256 => struct NftMarket.Order))",
						"numberOfBytes": "32",
						"value": "t_mapping(t_uint256,t_struct(Order)259_storage)"
					},
					"t_mapping(t_uint256,t_struct(Order)259_storage)": {
						"encoding": "mapping",
						"key": "t_uint256",
						"label": "mapping(uint256 => struct NftMarket.Order)",
						"numberOfBytes": "32",
						"value": "t_struct(Order)259_storage"
					},
					"t_struct(Order)259_storage": {
						"encoding": "inplace",
						"label": "struct NftMarket.Order",
						"members": [
							{
								"astId": 256,
								"contract": "members/zpjayyy/task3/my-contract/src/NftMarket.sol:NftMarket",
								"label": "owner",
								"offset": 0,
								"slot": "0",
								"type": "t_address"
							},
							{
								"astId": 258,
								"contract": "members/zpjayyy/task3/my-contract/src/NftMarket.sol:NftMarket",
								"label": "price",
								"offset": 0,
								"slot": "1",
								"type": "t_uint256"
							}
						],
						"numberOfBytes": "64"
					},
					"t_uint256": {
						"encoding": "inplace",
						"label": "uint256",
						"numberOfBytes": "32"
					}
				}
			},
			"userdoc": {
				"kind": "user",
				"methods": {},
				"version": 1
			}
		}
	}
}