{
	"NFTMarket.sol": {
		"RaiGallery": {
			"abi": [
				{
					"inputs": [
						{
							"internalType": "address",
							"name": "coinAddr_",
							"type": "address"
						}
					],
					"stateMutability": "nonpayable",
					"type": "constructor"
				},
				{
					"inputs": [],
					"name": "ReentrancyGuardReentrantCall",
					"type": "error"
				},
				{
					"anonymous": false,
					"inputs": [
						{
							"indexed": true,
							"internalType": "address",
							"name": "seller",
							"type": "address"
						},
						{
							"indexed": true,
							"internalType": "address",
							"name": "nftContract",
							"type": "address"
						},
						{
							"indexed": true,
							"internalType": "uint256",
							"name": "tokenId",
							"type": "uint256"
						},
						{
							"indexed": false,
							"internalType": "uint256",
							"name": "price",
							"type": "uint256"
						}
					],
					"name": "NftListed",
					"type": "event"
				},
				{
					"anonymous": false,
					"inputs": [
						{
							"indexed": true,
							"internalType": "address",
							"name": "buyer",
							"type": "address"
						},
						{
							"indexed": true,
							"internalType": "address",
							"name": "nftContract",
							"type": "address"
						},
						{
							"indexed": true,
							"internalType": "uint256",
							"name": "tokenId",
							"type": "uint256"
						},
						{
							"indexed": false,
							"internalType": "uint256",
							"name": "price",
							"type": "uint256"
						}
					],
					"name": "NftSold",
					"type": "event"
				},
				{
					"anonymous": false,
					"inputs": [
						{
							"indexed": true,
							"internalType": "address",
							"name": "seller",
							"type": "address"
						},
						{
							"indexed": true,
							"internalType": "address",
							"name": "nftContract",
							"type": "address"
						},
						{
							"indexed": true,
							"internalType": "uint256",
							"name": "tokenId",
							"type": "uint256"
						},
						{
							"indexed": false,
							"internalType": "uint256",
							"name": "unlistedAt",
							"type": "uint256"
						}
					],
					"name": "NftUnlisted",
					"type": "event"
				},
				{
					"inputs": [
						{
							"internalType": "address",
							"name": "nftContract",
							"type": "address"
						},
						{
							"internalType": "uint256",
							"name": "tokenId",
							"type": "uint256"
						}
					],
					"name": "buy",
					"outputs": [],
					"stateMutability": "nonpayable",
					"type": "function"
				},
				{
					"inputs": [],
					"name": "getAll",
					"outputs": [
						{
							"components": [
								{
									"internalType": "address",
									"name": "seller",
									"type": "address"
								},
								{
									"internalType": "address",
									"name": "nftContract",
									"type": "address"
								},
								{
									"internalType": "uint256",
									"name": "tokenId",
									"type": "uint256"
								},
								{
									"internalType": "uint256",
									"name": "price",
									"type": "uint256"
								},
								{
									"internalType": "uint256",
									"name": "listedAt",
									"type": "uint256"
								},
								{
									"internalType": "bool",
									"name": "listing",
									"type": "bool"
								}
							],
							"internalType": "struct RaiGallery.NftItem[]",
							"name": "",
							"type": "tuple[]"
						}
					],
					"stateMutability": "view",
					"type": "function"
				},
				{
					"inputs": [
						{
							"internalType": "address",
							"name": "nftContract",
							"type": "address"
						},
						{
							"internalType": "uint256",
							"name": "tokenId",
							"type": "uint256"
						}
					],
					"name": "isListing",
					"outputs": [
						{
							"internalType": "bool",
							"name": "",
							"type": "bool"
						}
					],
					"stateMutability": "view",
					"type": "function"
				},
				{
					"inputs": [
						{
							"internalType": "address",
							"name": "nftContract",
							"type": "address"
						},
						{
							"internalType": "uint256",
							"name": "tokenId",
							"type": "uint256"
						},
						{
							"internalType": "uint256",
							"name": "price",
							"type": "uint256"
						}
					],
					"name": "sell",
					"outputs": [],
					"stateMutability": "nonpayable",
					"type": "function"
				},
				{
					"inputs": [
						{
							"internalType": "address",
							"name": "nftContract",
							"type": "address"
						},
						{
							"internalType": "uint256",
							"name": "tokenId",
							"type": "uint256"
						}
					],
					"name": "unlist",
					"outputs": [],
					"stateMutability": "nonpayable",
					"type": "function"
				}
			],
			"devdoc": {
				"errors": {
					"ReentrancyGuardReentrantCall()": [
						{
							"details": "Unauthorized reentrant call."
						}
					]
				},
				"kind": "dev",
				"methods": {},
				"version": 1
			},
			"evm": {
				"assembly": "    /* \"NFTMarket.sol\":300:3977  contract RaiGallery is ReentrancyGuard {... */\n  mstore(0x40, 0x80)\n    /* \"NFTMarket.sol\":1202:1274  constructor(address coinAddr_) {... */\n  callvalue\n  dup1\n  iszero\n  tag_1\n  jumpi\n  0x00\n  dup1\n  revert\ntag_1:\n  pop\n  mload(0x40)\n  sub(codesize, bytecodeSize)\n  dup1\n  bytecodeSize\n  dup4\n  codecopy\n  dup2\n  dup2\n  add\n  0x40\n  mstore\n  dup2\n  add\n  swap1\n  tag_2\n  swap2\n  swap1\n  tag_3\n  jump\t// in\ntag_2:\n    /* \"@openzeppelin/contracts/utils/ReentrancyGuard.sol\":1713:1714  1 */\n  0x01\n    /* \"@openzeppelin/contracts/utils/ReentrancyGuard.sol\":1917:1924  _status */\n  0x00\n    /* \"@openzeppelin/contracts/utils/ReentrancyGuard.sol\":1917:1938  _status = NOT_ENTERED */\n  dup2\n  swap1\n  sstore\n  pop\n    /* \"NFTMarket.sol\":1258:1267  coinAddr_ */\n  dup1\n    /* \"NFTMarket.sol\":1240:1248  _payment */\n  0x02\n  0x00\n    /* \"NFTMarket.sol\":1240:1268  _payment = IERC20(coinAddr_) */\n  0x0100\n  exp\n  dup2\n  sload\n  dup2\n  0xffffffffffffffffffffffffffffffffffffffff\n  mul\n  not\n  and\n  swap1\n  dup4\n  0xffffffffffffffffffffffffffffffffffffffff\n  and\n  mul\n  or\n  swap1\n  sstore\n  pop\n    /* \"NFTMarket.sol\":1202:1274  constructor(address coinAddr_) {... */\n  pop\n    /* \"NFTMarket.sol\":300:3977  contract RaiGallery is ReentrancyGuard {... */\n  jump(tag_8)\n    /* \"#utility.yul\":88:205   */\ntag_10:\n    /* \"#utility.yul\":197:198   */\n  0x00\n    /* \"#utility.yul\":194:195   */\n  dup1\n    /* \"#utility.yul\":187:199   */\n  revert\n    /* \"#utility.yul\":334:460   */\ntag_12:\n    /* \"#utility.yul\":371:378   */\n  0x00\n    /* \"#utility.yul\":411:453   */\n  0xffffffffffffffffffffffffffffffffffffffff\n    /* \"#utility.yul\":404:409   */\n  dup3\n    /* \"#utility.yul\":400:454   */\n  and\n    /* \"#utility.yul\":389:454   */\n  swap1\n  pop\n    /* \"#utility.yul\":334:460   */\n  swap2\n  swap1\n  pop\n  jump\t// out\n    /* \"#utility.yul\":466:562   */\ntag_13:\n    /* \"#utility.yul\":503:510   */\n  0x00\n    /* \"#utility.yul\":532:556   */\n  tag_22\n    /* \"#utility.yul\":550:555   */\n  dup3\n    /* \"#utility.yul\":532:556   */\n  tag_12\n  jump\t// in\ntag_22:\n    /* \"#utility.yul\":521:556   */\n  swap1\n  pop\n    /* \"#utility.yul\":466:562   */\n  swap2\n  swap1\n  pop\n  jump\t// out\n    /* \"#utility.yul\":568:690   */\ntag_14:\n    /* \"#utility.yul\":641:665   */\n  tag_24\n    /* \"#utility.yul\":659:664   */\n  dup2\n    /* \"#utility.yul\":641:665   */\n  tag_13\n  jump\t// in\ntag_24:\n    /* \"#utility.yul\":634:639   */\n  dup2\n    /* \"#utility.yul\":631:666   */\n  eq\n    /* \"#utility.yul\":621:684   */\n  tag_25\n  jumpi\n    /* \"#utility.yul\":680:681   */\n  0x00\n    /* \"#utility.yul\":677:678   */\n  dup1\n    /* \"#utility.yul\":670:682   */\n  revert\n    /* \"#utility.yul\":621:684   */\ntag_25:\n    /* \"#utility.yul\":568:690   */\n  pop\n  jump\t// out\n    /* \"#utility.yul\":696:839   */\ntag_15:\n    /* \"#utility.yul\":753:758   */\n  0x00\n    /* \"#utility.yul\":784:790   */\n  dup2\n    /* \"#utility.yul\":778:791   */\n  mload\n    /* \"#utility.yul\":769:791   */\n  swap1\n  pop\n    /* \"#utility.yul\":800:833   */\n  tag_27\n    /* \"#utility.yul\":827:832   */\n  dup2\n    /* \"#utility.yul\":800:833   */\n  tag_14\n  jump\t// in\ntag_27:\n    /* \"#utility.yul\":696:839   */\n  swap3\n  swap2\n  pop\n  pop\n  jump\t// out\n    /* \"#utility.yul\":845:1196   */\ntag_3:\n    /* \"#utility.yul\":915:921   */\n  0x00\n    /* \"#utility.yul\":964:966   */\n  0x20\n    /* \"#utility.yul\":952:961   */\n  dup3\n    /* \"#utility.yul\":943:950   */\n  dup5\n    /* \"#utility.yul\":939:962   */\n  sub\n    /* \"#utility.yul\":935:967   */\n  slt\n    /* \"#utility.yul\":932:1051   */\n  iszero\n  tag_29\n  jumpi\n    /* \"#utility.yul\":970:1049   */\n  tag_30\n  tag_10\n  jump\t// in\ntag_30:\n    /* \"#utility.yul\":932:1051   */\ntag_29:\n    /* \"#utility.yul\":1090:1091   */\n  0x00\n    /* \"#utility.yul\":1115:1179   */\n  tag_31\n    /* \"#utility.yul\":1171:1178   */\n  dup5\n    /* \"#utility.yul\":1162:1168   */\n  dup3\n    /* \"#utility.yul\":1151:1160   */\n  dup6\n    /* \"#utility.yul\":1147:1169   */\n  add\n    /* \"#utility.yul\":1115:1179   */\n  tag_15\n  jump\t// in\ntag_31:\n    /* \"#utility.yul\":1105:1179   */\n  swap2\n  pop\n    /* \"#utility.yul\":1061:1189   */\n  pop\n    /* \"#utility.yul\":845:1196   */\n  swap3\n  swap2\n  pop\n  pop\n  jump\t// out\n    /* \"NFTMarket.sol\":300:3977  contract RaiGallery is ReentrancyGuard {... */\ntag_8:\n  dataSize(sub_0)\n  dup1\n  dataOffset(sub_0)\n  0x00\n  codecopy\n  0x00\n  return\nstop\n\nsub_0: assembly {\n        /* \"NFTMarket.sol\":300:3977  contract RaiGallery is ReentrancyGuard {... */\n      mstore(0x40, 0x80)\n      callvalue\n      dup1\n      iszero\n      tag_1\n      jumpi\n      0x00\n      dup1\n      revert\n    tag_1:\n      pop\n      jumpi(tag_2, lt(calldatasize, 0x04))\n      shr(0xe0, calldataload(0x00))\n      dup1\n      0x49c83e86\n      eq\n      tag_3\n      jumpi\n      dup1\n      0x53ed5143\n      eq\n      tag_4\n      jumpi\n      dup1\n      0x6a272462\n      eq\n      tag_5\n      jumpi\n      dup1\n      0xcce7ec13\n      eq\n      tag_6\n      jumpi\n      dup1\n      0xd3398fb5\n      eq\n      tag_7\n      jumpi\n    tag_2:\n      0x00\n      dup1\n      revert\n        /* \"NFTMarket.sol\":2796:3328  function unlist(address nftContract, uint256 tokenId) external {... */\n    tag_3:\n      tag_8\n      0x04\n      dup1\n      calldatasize\n      sub\n      dup2\n      add\n      swap1\n      tag_9\n      swap2\n      swap1\n      tag_10\n      jump\t// in\n    tag_9:\n      tag_11\n      jump\t// in\n    tag_8:\n      stop\n        /* \"NFTMarket.sol\":1433:1774  function getAll() external view returns (NftItem[] memory) {... */\n    tag_4:\n      tag_12\n      tag_13\n      jump\t// in\n    tag_12:\n      mload(0x40)\n      tag_14\n      swap2\n      swap1\n      tag_15\n      jump\t// in\n    tag_14:\n      mload(0x40)\n      dup1\n      swap2\n      sub\n      swap1\n      return\n        /* \"NFTMarket.sol\":1780:2790  function sell(address nftContract, uint256 tokenId, uint256 price) external {... */\n    tag_5:\n      tag_16\n      0x04\n      dup1\n      calldatasize\n      sub\n      dup2\n      add\n      swap1\n      tag_17\n      swap2\n      swap1\n      tag_18\n      jump\t// in\n    tag_17:\n      tag_19\n      jump\t// in\n    tag_16:\n      stop\n        /* \"NFTMarket.sol\":3334:3974  function buy(address nftContract, uint256 tokenId) external nonReentrant {... */\n    tag_6:\n      tag_20\n      0x04\n      dup1\n      calldatasize\n      sub\n      dup2\n      add\n      swap1\n      tag_21\n      swap2\n      swap1\n      tag_10\n      jump\t// in\n    tag_21:\n      tag_22\n      jump\t// in\n    tag_20:\n      stop\n        /* \"NFTMarket.sol\":1280:1427  function isListing(address nftContract, uint256 tokenId) external view returns (bool) {... */\n    tag_7:\n      tag_23\n      0x04\n      dup1\n      calldatasize\n      sub\n      dup2\n      add\n      swap1\n      tag_24\n      swap2\n      swap1\n      tag_10\n      jump\t// in\n    tag_24:\n      tag_25\n      jump\t// in\n    tag_23:\n      mload(0x40)\n      tag_26\n      swap2\n      swap1\n      tag_27\n      jump\t// in\n    tag_26:\n      mload(0x40)\n      dup1\n      swap2\n      sub\n      swap1\n      return\n        /* \"NFTMarket.sol\":2796:3328  function unlist(address nftContract, uint256 tokenId) external {... */\n    tag_11:\n        /* \"NFTMarket.sol\":2866:2877  IERC721 nft */\n      0x00\n        /* \"NFTMarket.sol\":2888:2899  nftContract */\n      dup3\n        /* \"NFTMarket.sol\":2866:2900  IERC721 nft = IERC721(nftContract) */\n      swap1\n      pop\n        /* \"NFTMarket.sol\":2907:2921  address seller */\n      0x00\n        /* \"NFTMarket.sol\":2924:2934  msg.sender */\n      caller\n        /* \"NFTMarket.sol\":2907:2934  address seller = msg.sender */\n      swap1\n      pop\n        /* \"NFTMarket.sol\":2975:2981  seller */\n      dup1\n        /* \"NFTMarket.sol\":2951:2981  nft.ownerOf(tokenId) == seller */\n      0xffffffffffffffffffffffffffffffffffffffff\n      and\n        /* \"NFTMarket.sol\":2951:2954  nft */\n      dup3\n        /* \"NFTMarket.sol\":2951:2962  nft.ownerOf */\n      0xffffffffffffffffffffffffffffffffffffffff\n      and\n      0x6352211e\n        /* \"NFTMarket.sol\":2963:2970  tokenId */\n      dup6\n        /* \"NFTMarket.sol\":2951:2971  nft.ownerOf(tokenId) */\n      mload(0x40)\n      dup3\n      0xffffffff\n      and\n      0xe0\n      shl\n      dup2\n      mstore\n      0x04\n      add\n      tag_29\n      swap2\n      swap1\n      tag_30\n      jump\t// in\n    tag_29:\n      0x20\n      mload(0x40)\n      dup1\n      dup4\n      sub\n      dup2\n      dup7\n      gas\n      staticcall\n      iszero\n      dup1\n      iszero\n      tag_32\n      jumpi\n      returndatasize\n      0x00\n      dup1\n      returndatacopy\n      revert(0x00, returndatasize)\n    tag_32:\n      pop\n      pop\n      pop\n      pop\n      mload(0x40)\n      returndatasize\n      not(0x1f)\n      0x1f\n      dup3\n      add\n      and\n      dup3\n      add\n      dup1\n      0x40\n      mstore\n      pop\n      dup2\n      add\n      swap1\n      tag_33\n      swap2\n      swap1\n      tag_34\n      jump\t// in\n    tag_33:\n        /* \"NFTMarket.sol\":2951:2981  nft.ownerOf(tokenId) == seller */\n      0xffffffffffffffffffffffffffffffffffffffff\n      and\n      eq\n        /* \"NFTMarket.sol\":2943:3018  require(nft.ownerOf(tokenId) == seller, \"You're not the owner of the NFT.\") */\n      tag_35\n      jumpi\n      mload(0x40)\n      0x08c379a000000000000000000000000000000000000000000000000000000000\n      dup2\n      mstore\n      0x04\n      add\n      tag_36\n      swap1\n      tag_37\n      jump\t// in\n    tag_36:\n      mload(0x40)\n      dup1\n      swap2\n      sub\n      swap1\n      revert\n    tag_35:\n        /* \"NFTMarket.sol\":3033:3036  nft */\n      dup2\n        /* \"NFTMarket.sol\":3033:3053  nft.isApprovedForAll */\n      0xffffffffffffffffffffffffffffffffffffffff\n      and\n      0xe985e9c5\n        /* \"NFTMarket.sol\":3054:3060  seller */\n      dup3\n        /* \"NFTMarket.sol\":3070:3074  this */\n      address\n        /* \"NFTMarket.sol\":3033:3076  nft.isApprovedForAll(seller, address(this)) */\n      mload(0x40)\n      dup4\n      0xffffffff\n      and\n      0xe0\n      shl\n      dup2\n      mstore\n      0x04\n      add\n      tag_38\n      swap3\n      swap2\n      swap1\n      tag_39\n      jump\t// in\n    tag_38:\n      0x20\n      mload(0x40)\n      dup1\n      dup4\n      sub\n      dup2\n      dup7\n      gas\n      staticcall\n      iszero\n      dup1\n      iszero\n      tag_41\n      jumpi\n      returndatasize\n      0x00\n      dup1\n      returndatacopy\n      revert(0x00, returndatasize)\n    tag_41:\n      pop\n      pop\n      pop\n      pop\n      mload(0x40)\n      returndatasize\n      not(0x1f)\n      0x1f\n      dup3\n      add\n      and\n      dup3\n      add\n      dup1\n      0x40\n      mstore\n      pop\n      dup2\n      add\n      swap1\n      tag_42\n      swap2\n      swap1\n      tag_43\n      jump\t// in\n    tag_42:\n        /* \"NFTMarket.sol\":3025:3105  require(nft.isApprovedForAll(seller, address(this)), \"Contract isn't approved.\") */\n      tag_44\n      jumpi\n      mload(0x40)\n      0x08c379a000000000000000000000000000000000000000000000000000000000\n      dup2\n      mstore\n      0x04\n      add\n      tag_45\n      swap1\n      tag_46\n      jump\t// in\n    tag_45:\n      mload(0x40)\n      dup1\n      swap2\n      sub\n      swap1\n      revert\n    tag_44:\n        /* \"NFTMarket.sol\":3120:3131  _listedNfts */\n      0x03\n        /* \"NFTMarket.sol\":3120:3144  _listedNfts[nftContract] */\n      0x00\n        /* \"NFTMarket.sol\":3132:3143  nftContract */\n      dup6\n        /* \"NFTMarket.sol\":3120:3144  _listedNfts[nftContract] */\n      0xffffffffffffffffffffffffffffffffffffffff\n      and\n      0xffffffffffffffffffffffffffffffffffffffff\n      and\n      dup2\n      mstore\n      0x20\n      add\n      swap1\n      dup2\n      mstore\n      0x20\n      add\n      0x00\n      keccak256\n        /* \"NFTMarket.sol\":3120:3153  _listedNfts[nftContract][tokenId] */\n      0x00\n        /* \"NFTMarket.sol\":3145:3152  tokenId */\n      dup5\n        /* \"NFTMarket.sol\":3120:3153  _listedNfts[nftContract][tokenId] */\n      dup2\n      mstore\n      0x20\n      add\n      swap1\n      dup2\n      mstore\n      0x20\n      add\n      0x00\n      keccak256\n        /* \"NFTMarket.sol\":3120:3161  _listedNfts[nftContract][tokenId].listing */\n      0x05\n      add\n      0x00\n      swap1\n      sload\n      swap1\n      0x0100\n      exp\n      swap1\n      div\n      0xff\n      and\n        /* \"NFTMarket.sol\":3112:3192  require(_listedNfts[nftContract][tokenId].listing, \"NFT isn't listed for sale.\") */\n      tag_47\n      jumpi\n      mload(0x40)\n      0x08c379a000000000000000000000000000000000000000000000000000000000\n      dup2\n      mstore\n      0x04\n      add\n      tag_48\n      swap1\n      tag_49\n      jump\t// in\n    tag_48:\n      mload(0x40)\n      dup1\n      swap2\n      sub\n      swap1\n      revert\n    tag_47:\n        /* \"NFTMarket.sol\":3245:3250  false */\n      0x00\n        /* \"NFTMarket.sol\":3201:3212  _listedNfts */\n      0x03\n        /* \"NFTMarket.sol\":3201:3225  _listedNfts[nftContract] */\n      0x00\n        /* \"NFTMarket.sol\":3213:3224  nftContract */\n      dup7\n        /* \"NFTMarket.sol\":3201:3225  _listedNfts[nftContract] */\n      0xffffffffffffffffffffffffffffffffffffffff\n      and\n      0xffffffffffffffffffffffffffffffffffffffff\n      and\n      dup2\n      mstore\n      0x20\n      add\n      swap1\n      dup2\n      mstore\n      0x20\n      add\n      0x00\n      keccak256\n        /* \"NFTMarket.sol\":3201:3234  _listedNfts[nftContract][tokenId] */\n      0x00\n        /* \"NFTMarket.sol\":3226:3233  tokenId */\n      dup6\n        /* \"NFTMarket.sol\":3201:3234  _listedNfts[nftContract][tokenId] */\n      dup2\n      mstore\n      0x20\n      add\n      swap1\n      dup2\n      mstore\n      0x20\n      add\n      0x00\n      keccak256\n        /* \"NFTMarket.sol\":3201:3242  _listedNfts[nftContract][tokenId].listing */\n      0x05\n      add\n      0x00\n        /* \"NFTMarket.sol\":3201:3250  _listedNfts[nftContract][tokenId].listing = false */\n      0x0100\n      exp\n      dup2\n      sload\n      dup2\n      0xff\n      mul\n      not\n      and\n      swap1\n      dup4\n      iszero\n      iszero\n      mul\n      or\n      swap1\n      sstore\n      pop\n        /* \"NFTMarket.sol\":3297:3304  tokenId */\n      dup3\n        /* \"NFTMarket.sol\":3284:3295  nftContract */\n      dup5\n        /* \"NFTMarket.sol\":3264:3322  NftUnlisted(seller, nftContract, tokenId, block.timestamp) */\n      0xffffffffffffffffffffffffffffffffffffffff\n      and\n        /* \"NFTMarket.sol\":3276:3282  seller */\n      dup3\n        /* \"NFTMarket.sol\":3264:3322  NftUnlisted(seller, nftContract, tokenId, block.timestamp) */\n      0xffffffffffffffffffffffffffffffffffffffff\n      and\n      0x29be228d82985de47a911b6787be21cb27ae45ed505037ed4d44557998e2ceb0\n        /* \"NFTMarket.sol\":3306:3321  block.timestamp */\n      timestamp\n        /* \"NFTMarket.sol\":3264:3322  NftUnlisted(seller, nftContract, tokenId, block.timestamp) */\n      mload(0x40)\n      tag_50\n      swap2\n      swap1\n      tag_30\n      jump\t// in\n    tag_50:\n      mload(0x40)\n      dup1\n      swap2\n      sub\n      swap1\n      log4\n        /* \"NFTMarket.sol\":2859:3328  {... */\n      pop\n      pop\n        /* \"NFTMarket.sol\":2796:3328  function unlist(address nftContract, uint256 tokenId) external {... */\n      pop\n      pop\n      jump\t// out\n        /* \"NFTMarket.sol\":1433:1774  function getAll() external view returns (NftItem[] memory) {... */\n    tag_13:\n        /* \"NFTMarket.sol\":1474:1490  NftItem[] memory */\n      0x60\n        /* \"NFTMarket.sol\":1499:1523  NftItem[] memory allItem */\n      0x00\n        /* \"NFTMarket.sol\":1540:1548  _allNfts */\n      0x01\n        /* \"NFTMarket.sol\":1540:1555  _allNfts.length */\n      dup1\n      sload\n      swap1\n      pop\n        /* \"NFTMarket.sol\":1526:1556  new NftItem[](_allNfts.length) */\n      0xffffffffffffffff\n      dup2\n      gt\n      iszero\n      tag_52\n      jumpi\n      tag_53\n      tag_54\n      jump\t// in\n    tag_53:\n    tag_52:\n      mload(0x40)\n      swap1\n      dup1\n      dup3\n      mstore\n      dup1\n      0x20\n      mul\n      0x20\n      add\n      dup3\n      add\n      0x40\n      mstore\n      dup1\n      iszero\n      tag_55\n      jumpi\n      dup2\n      0x20\n      add\n    tag_56:\n      tag_57\n      tag_58\n      jump\t// in\n    tag_57:\n      dup2\n      mstore\n      0x20\n      add\n      swap1\n      0x01\n      swap1\n      sub\n      swap1\n      dup2\n      tag_56\n      jumpi\n      swap1\n      pop\n    tag_55:\n      pop\n        /* \"NFTMarket.sol\":1499:1556  NftItem[] memory allItem = new NftItem[](_allNfts.length) */\n      swap1\n      pop\n        /* \"NFTMarket.sol\":1563:1585  NftIndex memory nftIdx */\n      tag_59\n      tag_60\n      jump\t// in\n    tag_59:\n        /* \"NFTMarket.sol\":1599:1608  uint256 i */\n      0x00\n        /* \"NFTMarket.sol\":1594:1746  for (uint256 i = 0; i < _allNfts.length; i++) {... */\n    tag_61:\n        /* \"NFTMarket.sol\":1618:1626  _allNfts */\n      0x01\n        /* \"NFTMarket.sol\":1618:1633  _allNfts.length */\n      dup1\n      sload\n      swap1\n      pop\n        /* \"NFTMarket.sol\":1614:1615  i */\n      dup2\n        /* \"NFTMarket.sol\":1614:1633  i < _allNfts.length */\n      lt\n        /* \"NFTMarket.sol\":1594:1746  for (uint256 i = 0; i < _allNfts.length; i++) {... */\n      iszero\n      tag_62\n      jumpi\n        /* \"NFTMarket.sol\":1658:1666  _allNfts */\n      0x01\n        /* \"NFTMarket.sol\":1667:1668  i */\n      dup2\n        /* \"NFTMarket.sol\":1658:1669  _allNfts[i] */\n      dup2\n      sload\n      dup2\n      lt\n      tag_64\n      jumpi\n      tag_65\n      tag_66\n      jump\t// in\n    tag_65:\n    tag_64:\n      swap1\n      0x00\n      mstore\n      keccak256(0x00, 0x20)\n      swap1\n      0x02\n      mul\n      add\n        /* \"NFTMarket.sol\":1649:1669  nftIdx = _allNfts[i] */\n      mload(0x40)\n      dup1\n      0x40\n      add\n      0x40\n      mstore\n      swap1\n      dup2\n      0x00\n      dup3\n      add\n      0x00\n      swap1\n      sload\n      swap1\n      0x0100\n      exp\n      swap1\n      div\n      0xffffffffffffffffffffffffffffffffffffffff\n      and\n      0xffffffffffffffffffffffffffffffffffffffff\n      and\n      0xffffffffffffffffffffffffffffffffffffffff\n      and\n      dup2\n      mstore\n      0x20\n      add\n      0x01\n      dup3\n      add\n      sload\n      dup2\n      mstore\n      pop\n      pop\n      swap2\n      pop\n        /* \"NFTMarket.sol\":1691:1702  _listedNfts */\n      0x03\n        /* \"NFTMarket.sol\":1691:1722  _listedNfts[nftIdx.nftContract] */\n      0x00\n        /* \"NFTMarket.sol\":1703:1709  nftIdx */\n      dup4\n        /* \"NFTMarket.sol\":1703:1721  nftIdx.nftContract */\n      0x00\n      add\n      mload\n        /* \"NFTMarket.sol\":1691:1722  _listedNfts[nftIdx.nftContract] */\n      0xffffffffffffffffffffffffffffffffffffffff\n      and\n      0xffffffffffffffffffffffffffffffffffffffff\n      and\n      dup2\n      mstore\n      0x20\n      add\n      swap1\n      dup2\n      mstore\n      0x20\n      add\n      0x00\n      keccak256\n        /* \"NFTMarket.sol\":1691:1738  _listedNfts[nftIdx.nftContract][nftIdx.tokenId] */\n      0x00\n        /* \"NFTMarket.sol\":1723:1729  nftIdx */\n      dup4\n        /* \"NFTMarket.sol\":1723:1737  nftIdx.tokenId */\n      0x20\n      add\n      mload\n        /* \"NFTMarket.sol\":1691:1738  _listedNfts[nftIdx.nftContract][nftIdx.tokenId] */\n      dup2\n      mstore\n      0x20\n      add\n      swap1\n      dup2\n      mstore\n      0x20\n      add\n      0x00\n      keccak256\n        /* \"NFTMarket.sol\":1678:1738  allItem[i] = _listedNfts[nftIdx.nftContract][nftIdx.tokenId] */\n      mload(0x40)\n      dup1\n      0xc0\n      add\n      0x40\n      mstore\n      swap1\n      dup2\n      0x00\n      dup3\n      add\n      0x00\n      swap1\n      sload\n      swap1\n      0x0100\n      exp\n      swap1\n      div\n      0xffffffffffffffffffffffffffffffffffffffff\n      and\n      0xffffffffffffffffffffffffffffffffffffffff\n      and\n      0xffffffffffffffffffffffffffffffffffffffff\n      and\n      dup2\n      mstore\n      0x20\n      add\n      0x01\n      dup3\n      add\n      0x00\n      swap1\n      sload\n      swap1\n      0x0100\n      exp\n      swap1\n      div\n      0xffffffffffffffffffffffffffffffffffffffff\n      and\n      0xffffffffffffffffffffffffffffffffffffffff\n      and\n      0xffffffffffffffffffffffffffffffffffffffff\n      and\n      dup2\n      mstore\n      0x20\n      add\n      0x02\n      dup3\n      add\n      sload\n      dup2\n      mstore\n      0x20\n      add\n      0x03\n      dup3\n      add\n      sload\n      dup2\n      mstore\n      0x20\n      add\n      0x04\n      dup3\n      add\n      sload\n      dup2\n      mstore\n      0x20\n      add\n      0x05\n      dup3\n      add\n      0x00\n      swap1\n      sload\n      swap1\n      0x0100\n      exp\n      swap1\n      div\n      0xff\n      and\n      iszero\n      iszero\n      iszero\n      iszero\n      dup2\n      mstore\n      pop\n      pop\n        /* \"NFTMarket.sol\":1678:1685  allItem */\n      dup4\n        /* \"NFTMarket.sol\":1686:1687  i */\n      dup3\n        /* \"NFTMarket.sol\":1678:1688  allItem[i] */\n      dup2\n      mload\n      dup2\n      lt\n      tag_68\n      jumpi\n      tag_69\n      tag_66\n      jump\t// in\n    tag_69:\n    tag_68:\n      0x20\n      mul\n      0x20\n      add\n      add\n        /* \"NFTMarket.sol\":1678:1738  allItem[i] = _listedNfts[nftIdx.nftContract][nftIdx.tokenId] */\n      dup2\n      swap1\n      mstore\n      pop\n        /* \"NFTMarket.sol\":1635:1638  i++ */\n      dup1\n      dup1\n      0x01\n      add\n      swap2\n      pop\n      pop\n        /* \"NFTMarket.sol\":1594:1746  for (uint256 i = 0; i < _allNfts.length; i++) {... */\n      jump(tag_61)\n    tag_62:\n      pop\n        /* \"NFTMarket.sol\":1761:1768  allItem */\n      dup2\n        /* \"NFTMarket.sol\":1754:1768  return allItem */\n      swap3\n      pop\n      pop\n      pop\n        /* \"NFTMarket.sol\":1433:1774  function getAll() external view returns (NftItem[] memory) {... */\n      swap1\n      jump\t// out\n        /* \"NFTMarket.sol\":1780:2790  function sell(address nftContract, uint256 tokenId, uint256 price) external {... */\n    tag_19:\n        /* \"NFTMarket.sol\":1863:1874  IERC721 nft */\n      0x00\n        /* \"NFTMarket.sol\":1885:1896  nftContract */\n      dup4\n        /* \"NFTMarket.sol\":1863:1897  IERC721 nft = IERC721(nftContract) */\n      swap1\n      pop\n        /* \"NFTMarket.sol\":1904:1918  address seller */\n      0x00\n        /* \"NFTMarket.sol\":1921:1931  msg.sender */\n      caller\n        /* \"NFTMarket.sol\":1904:1931  address seller = msg.sender */\n      swap1\n      pop\n        /* \"NFTMarket.sol\":1972:1978  seller */\n      dup1\n        /* \"NFTMarket.sol\":1948:1978  nft.ownerOf(tokenId) == seller */\n      0xffffffffffffffffffffffffffffffffffffffff\n      and\n        /* \"NFTMarket.sol\":1948:1951  nft */\n      dup3\n        /* \"NFTMarket.sol\":1948:1959  nft.ownerOf */\n      0xffffffffffffffffffffffffffffffffffffffff\n      and\n      0x6352211e\n        /* \"NFTMarket.sol\":1960:1967  tokenId */\n      dup7\n        /* \"NFTMarket.sol\":1948:1968  nft.ownerOf(tokenId) */\n      mload(0x40)\n      dup3\n      0xffffffff\n      and\n      0xe0\n      shl\n      dup2\n      mstore\n      0x04\n      add\n      tag_71\n      swap2\n      swap1\n      tag_30\n      jump\t// in\n    tag_71:\n      0x20\n      mload(0x40)\n      dup1\n      dup4\n      sub\n      dup2\n      dup7\n      gas\n      staticcall\n      iszero\n      dup1\n      iszero\n      tag_73\n      jumpi\n      returndatasize\n      0x00\n      dup1\n      returndatacopy\n      revert(0x00, returndatasize)\n    tag_73:\n      pop\n      pop\n      pop\n      pop\n      mload(0x40)\n      returndatasize\n      not(0x1f)\n      0x1f\n      dup3\n      add\n      and\n      dup3\n      add\n      dup1\n      0x40\n      mstore\n      pop\n      dup2\n      add\n      swap1\n      tag_74\n      swap2\n      swap1\n      tag_34\n      jump\t// in\n    tag_74:\n        /* \"NFTMarket.sol\":1948:1978  nft.ownerOf(tokenId) == seller */\n      0xffffffffffffffffffffffffffffffffffffffff\n      and\n      eq\n        /* \"NFTMarket.sol\":1940:2015  require(nft.ownerOf(tokenId) == seller, \"You're not the owner of the NFT.\") */\n      tag_75\n      jumpi\n      mload(0x40)\n      0x08c379a000000000000000000000000000000000000000000000000000000000\n      dup2\n      mstore\n      0x04\n      add\n      tag_76\n      swap1\n      tag_37\n      jump\t// in\n    tag_76:\n      mload(0x40)\n      dup1\n      swap2\n      sub\n      swap1\n      revert\n    tag_75:\n        /* \"NFTMarket.sol\":2038:2039  0 */\n      0x00\n        /* \"NFTMarket.sol\":2030:2035  price */\n      dup4\n        /* \"NFTMarket.sol\":2030:2039  price > 0 */\n      gt\n        /* \"NFTMarket.sol\":2022:2074  require(price > 0, \"Price must be greater thant 0.\") */\n      tag_77\n      jumpi\n      mload(0x40)\n      0x08c379a000000000000000000000000000000000000000000000000000000000\n      dup2\n      mstore\n      0x04\n      add\n      tag_78\n      swap1\n      tag_79\n      jump\t// in\n    tag_78:\n      mload(0x40)\n      dup1\n      swap2\n      sub\n      swap1\n      revert\n    tag_77:\n        /* \"NFTMarket.sol\":2089:2092  nft */\n      dup2\n        /* \"NFTMarket.sol\":2089:2109  nft.isApprovedForAll */\n      0xffffffffffffffffffffffffffffffffffffffff\n      and\n      0xe985e9c5\n        /* \"NFTMarket.sol\":2110:2116  seller */\n      dup3\n        /* \"NFTMarket.sol\":2126:2130  this */\n      address\n        /* \"NFTMarket.sol\":2089:2132  nft.isApprovedForAll(seller, address(this)) */\n      mload(0x40)\n      dup4\n      0xffffffff\n      and\n      0xe0\n      shl\n      dup2\n      mstore\n      0x04\n      add\n      tag_80\n      swap3\n      swap2\n      swap1\n      tag_39\n      jump\t// in\n    tag_80:\n      0x20\n      mload(0x40)\n      dup1\n      dup4\n      sub\n      dup2\n      dup7\n      gas\n      staticcall\n      iszero\n      dup1\n      iszero\n      tag_82\n      jumpi\n      returndatasize\n      0x00\n      dup1\n      returndatacopy\n      revert(0x00, returndatasize)\n    tag_82:\n      pop\n      pop\n      pop\n      pop\n      mload(0x40)\n      returndatasize\n      not(0x1f)\n      0x1f\n      dup3\n      add\n      and\n      dup3\n      add\n      dup1\n      0x40\n      mstore\n      pop\n      dup2\n      add\n      swap1\n      tag_83\n      swap2\n      swap1\n      tag_43\n      jump\t// in\n    tag_83:\n        /* \"NFTMarket.sol\":2081:2161  require(nft.isApprovedForAll(seller, address(this)), \"Contract isn't approved.\") */\n      tag_84\n      jumpi\n      mload(0x40)\n      0x08c379a000000000000000000000000000000000000000000000000000000000\n      dup2\n      mstore\n      0x04\n      add\n      tag_85\n      swap1\n      tag_46\n      jump\t// in\n    tag_85:\n      mload(0x40)\n      dup1\n      swap2\n      sub\n      swap1\n      revert\n    tag_84:\n        /* \"NFTMarket.sol\":2170:2184  bool nftListed */\n      0x00\n        /* \"NFTMarket.sol\":2187:2199  _listedFlags */\n      0x04\n        /* \"NFTMarket.sol\":2187:2212  _listedFlags[nftContract] */\n      0x00\n        /* \"NFTMarket.sol\":2200:2211  nftContract */\n      dup8\n        /* \"NFTMarket.sol\":2187:2212  _listedFlags[nftContract] */\n      0xffffffffffffffffffffffffffffffffffffffff\n      and\n      0xffffffffffffffffffffffffffffffffffffffff\n      and\n      dup2\n      mstore\n      0x20\n      add\n      swap1\n      dup2\n      mstore\n      0x20\n      add\n      0x00\n      keccak256\n        /* \"NFTMarket.sol\":2187:2221  _listedFlags[nftContract][tokenId] */\n      0x00\n        /* \"NFTMarket.sol\":2213:2220  tokenId */\n      dup7\n        /* \"NFTMarket.sol\":2187:2221  _listedFlags[nftContract][tokenId] */\n      dup2\n      mstore\n      0x20\n      add\n      swap1\n      dup2\n      mstore\n      0x20\n      add\n      0x00\n      keccak256\n      0x00\n      swap1\n      sload\n      swap1\n      0x0100\n      exp\n      swap1\n      div\n      0xff\n      and\n        /* \"NFTMarket.sol\":2170:2221  bool nftListed = _listedFlags[nftContract][tokenId] */\n      swap1\n      pop\n        /* \"NFTMarket.sol\":2234:2243  nftListed */\n      dup1\n        /* \"NFTMarket.sol\":2230:2725  if (nftListed) {... */\n      iszero\n      tag_86\n      jumpi\n        /* \"NFTMarket.sol\":2297:2303  seller */\n      dup2\n        /* \"NFTMarket.sol\":2254:2265  _listedNfts */\n      0x03\n        /* \"NFTMarket.sol\":2254:2278  _listedNfts[nftContract] */\n      0x00\n        /* \"NFTMarket.sol\":2266:2277  nftContract */\n      dup9\n        /* \"NFTMarket.sol\":2254:2278  _listedNfts[nftContract] */\n      0xffffffffffffffffffffffffffffffffffffffff\n      and\n      0xffffffffffffffffffffffffffffffffffffffff\n      and\n      dup2\n      mstore\n      0x20\n      add\n      swap1\n      dup2\n      mstore\n      0x20\n      add\n      0x00\n      keccak256\n        /* \"NFTMarket.sol\":2254:2287  _listedNfts[nftContract][tokenId] */\n      0x00\n        /* \"NFTMarket.sol\":2279:2286  tokenId */\n      dup8\n        /* \"NFTMarket.sol\":2254:2287  _listedNfts[nftContract][tokenId] */\n      dup2\n      mstore\n      0x20\n      add\n      swap1\n      dup2\n      mstore\n      0x20\n      add\n      0x00\n      keccak256\n        /* \"NFTMarket.sol\":2254:2294  _listedNfts[nftContract][tokenId].seller */\n      0x00\n      add\n      0x00\n        /* \"NFTMarket.sol\":2254:2303  _listedNfts[nftContract][tokenId].seller = seller */\n      0x0100\n      exp\n      dup2\n      sload\n      dup2\n      0xffffffffffffffffffffffffffffffffffffffff\n      mul\n      not\n      and\n      swap1\n      dup4\n      0xffffffffffffffffffffffffffffffffffffffff\n      and\n      mul\n      or\n      swap1\n      sstore\n      pop\n        /* \"NFTMarket.sol\":2354:2359  price */\n      dup4\n        /* \"NFTMarket.sol\":2312:2323  _listedNfts */\n      0x03\n        /* \"NFTMarket.sol\":2312:2336  _listedNfts[nftContract] */\n      0x00\n        /* \"NFTMarket.sol\":2324:2335  nftContract */\n      dup9\n        /* \"NFTMarket.sol\":2312:2336  _listedNfts[nftContract] */\n      0xffffffffffffffffffffffffffffffffffffffff\n      and\n      0xffffffffffffffffffffffffffffffffffffffff\n      and\n      dup2\n      mstore\n      0x20\n      add\n      swap1\n      dup2\n      mstore\n      0x20\n      add\n      0x00\n      keccak256\n        /* \"NFTMarket.sol\":2312:2345  _listedNfts[nftContract][tokenId] */\n      0x00\n        /* \"NFTMarket.sol\":2337:2344  tokenId */\n      dup8\n        /* \"NFTMarket.sol\":2312:2345  _listedNfts[nftContract][tokenId] */\n      dup2\n      mstore\n      0x20\n      add\n      swap1\n      dup2\n      mstore\n      0x20\n      add\n      0x00\n      keccak256\n        /* \"NFTMarket.sol\":2312:2351  _listedNfts[nftContract][tokenId].price */\n      0x03\n      add\n        /* \"NFTMarket.sol\":2312:2359  _listedNfts[nftContract][tokenId].price = price */\n      dup2\n      swap1\n      sstore\n      pop\n        /* \"NFTMarket.sol\":2413:2428  block.timestamp */\n      timestamp\n        /* \"NFTMarket.sol\":2368:2379  _listedNfts */\n      0x03\n        /* \"NFTMarket.sol\":2368:2392  _listedNfts[nftContract] */\n      0x00\n        /* \"NFTMarket.sol\":2380:2391  nftContract */\n      dup9\n        /* \"NFTMarket.sol\":2368:2392  _listedNfts[nftContract] */\n      0xffffffffffffffffffffffffffffffffffffffff\n      and\n      0xffffffffffffffffffffffffffffffffffffffff\n      and\n      dup2\n      mstore\n      0x20\n      add\n      swap1\n      dup2\n      mstore\n      0x20\n      add\n      0x00\n      keccak256\n        /* \"NFTMarket.sol\":2368:2401  _listedNfts[nftContract][tokenId] */\n      0x00\n        /* \"NFTMarket.sol\":2393:2400  tokenId */\n      dup8\n        /* \"NFTMarket.sol\":2368:2401  _listedNfts[nftContract][tokenId] */\n      dup2\n      mstore\n      0x20\n      add\n      swap1\n      dup2\n      mstore\n      0x20\n      add\n      0x00\n      keccak256\n        /* \"NFTMarket.sol\":2368:2410  _listedNfts[nftContract][tokenId].listedAt */\n      0x04\n      add\n        /* \"NFTMarket.sol\":2368:2428  _listedNfts[nftContract][tokenId].listedAt = block.timestamp */\n      dup2\n      swap1\n      sstore\n      pop\n        /* \"NFTMarket.sol\":2481:2485  true */\n      0x01\n        /* \"NFTMarket.sol\":2437:2448  _listedNfts */\n      0x03\n        /* \"NFTMarket.sol\":2437:2461  _listedNfts[nftContract] */\n      0x00\n        /* \"NFTMarket.sol\":2449:2460  nftContract */\n      dup9\n        /* \"NFTMarket.sol\":2437:2461  _listedNfts[nftContract] */\n      0xffffffffffffffffffffffffffffffffffffffff\n      and\n      0xffffffffffffffffffffffffffffffffffffffff\n      and\n      dup2\n      mstore\n      0x20\n      add\n      swap1\n      dup2\n      mstore\n      0x20\n      add\n      0x00\n      keccak256\n        /* \"NFTMarket.sol\":2437:2470  _listedNfts[nftContract][tokenId] */\n      0x00\n        /* \"NFTMarket.sol\":2462:2469  tokenId */\n      dup8\n        /* \"NFTMarket.sol\":2437:2470  _listedNfts[nftContract][tokenId] */\n      dup2\n      mstore\n      0x20\n      add\n      swap1\n      dup2\n      mstore\n      0x20\n      add\n      0x00\n      keccak256\n        /* \"NFTMarket.sol\":2437:2478  _listedNfts[nftContract][tokenId].listing */\n      0x05\n      add\n      0x00\n        /* \"NFTMarket.sol\":2437:2485  _listedNfts[nftContract][tokenId].listing = true */\n      0x0100\n      exp\n      dup2\n      sload\n      dup2\n      0xff\n      mul\n      not\n      and\n      swap1\n      dup4\n      iszero\n      iszero\n      mul\n      or\n      swap1\n      sstore\n      pop\n        /* \"NFTMarket.sol\":2230:2725  if (nftListed) {... */\n      jump(tag_87)\n    tag_86:\n        /* \"NFTMarket.sol\":2544:2611  NftItem(seller, nftContract, tokenId, price, block.timestamp, true) */\n      mload(0x40)\n      dup1\n      0xc0\n      add\n      0x40\n      mstore\n      dup1\n        /* \"NFTMarket.sol\":2552:2558  seller */\n      dup4\n        /* \"NFTMarket.sol\":2544:2611  NftItem(seller, nftContract, tokenId, price, block.timestamp, true) */\n      0xffffffffffffffffffffffffffffffffffffffff\n      and\n      dup2\n      mstore\n      0x20\n      add\n        /* \"NFTMarket.sol\":2560:2571  nftContract */\n      dup8\n        /* \"NFTMarket.sol\":2544:2611  NftItem(seller, nftContract, tokenId, price, block.timestamp, true) */\n      0xffffffffffffffffffffffffffffffffffffffff\n      and\n      dup2\n      mstore\n      0x20\n      add\n        /* \"NFTMarket.sol\":2573:2580  tokenId */\n      dup7\n        /* \"NFTMarket.sol\":2544:2611  NftItem(seller, nftContract, tokenId, price, block.timestamp, true) */\n      dup2\n      mstore\n      0x20\n      add\n        /* \"NFTMarket.sol\":2582:2587  price */\n      dup6\n        /* \"NFTMarket.sol\":2544:2611  NftItem(seller, nftContract, tokenId, price, block.timestamp, true) */\n      dup2\n      mstore\n      0x20\n      add\n        /* \"NFTMarket.sol\":2589:2604  block.timestamp */\n      timestamp\n        /* \"NFTMarket.sol\":2544:2611  NftItem(seller, nftContract, tokenId, price, block.timestamp, true) */\n      dup2\n      mstore\n      0x20\n      add\n        /* \"NFTMarket.sol\":2606:2610  true */\n      0x01\n        /* \"NFTMarket.sol\":2544:2611  NftItem(seller, nftContract, tokenId, price, block.timestamp, true) */\n      iszero\n      iszero\n      dup2\n      mstore\n      pop\n        /* \"NFTMarket.sol\":2508:2519  _listedNfts */\n      0x03\n        /* \"NFTMarket.sol\":2508:2532  _listedNfts[nftContract] */\n      0x00\n        /* \"NFTMarket.sol\":2520:2531  nftContract */\n      dup9\n        /* \"NFTMarket.sol\":2508:2532  _listedNfts[nftContract] */\n      0xffffffffffffffffffffffffffffffffffffffff\n      and\n      0xffffffffffffffffffffffffffffffffffffffff\n      and\n      dup2\n      mstore\n      0x20\n      add\n      swap1\n      dup2\n      mstore\n      0x20\n      add\n      0x00\n      keccak256\n        /* \"NFTMarket.sol\":2508:2541  _listedNfts[nftContract][tokenId] */\n      0x00\n        /* \"NFTMarket.sol\":2533:2540  tokenId */\n      dup8\n        /* \"NFTMarket.sol\":2508:2541  _listedNfts[nftContract][tokenId] */\n      dup2\n      mstore\n      0x20\n      add\n      swap1\n      dup2\n      mstore\n      0x20\n      add\n      0x00\n      keccak256\n        /* \"NFTMarket.sol\":2508:2611  _listedNfts[nftContract][tokenId] = NftItem(seller, nftContract, tokenId, price, block.timestamp, true) */\n      0x00\n      dup3\n      add\n      mload\n      dup2\n      0x00\n      add\n      exp(0x0100, 0x00)\n      dup2\n      sload\n      dup2\n      0xffffffffffffffffffffffffffffffffffffffff\n      mul\n      not\n      and\n      swap1\n      dup4\n      0xffffffffffffffffffffffffffffffffffffffff\n      and\n      mul\n      or\n      swap1\n      sstore\n      pop\n      0x20\n      dup3\n      add\n      mload\n      dup2\n      0x01\n      add\n      exp(0x0100, 0x00)\n      dup2\n      sload\n      dup2\n      0xffffffffffffffffffffffffffffffffffffffff\n      mul\n      not\n      and\n      swap1\n      dup4\n      0xffffffffffffffffffffffffffffffffffffffff\n      and\n      mul\n      or\n      swap1\n      sstore\n      pop\n      0x40\n      dup3\n      add\n      mload\n      dup2\n      0x02\n      add\n      sstore\n      0x60\n      dup3\n      add\n      mload\n      dup2\n      0x03\n      add\n      sstore\n      0x80\n      dup3\n      add\n      mload\n      dup2\n      0x04\n      add\n      sstore\n      0xa0\n      dup3\n      add\n      mload\n      dup2\n      0x05\n      add\n      exp(0x0100, 0x00)\n      dup2\n      sload\n      dup2\n      0xff\n      mul\n      not\n      and\n      swap1\n      dup4\n      iszero\n      iszero\n      mul\n      or\n      swap1\n      sstore\n      pop\n      swap1\n      pop\n      pop\n        /* \"NFTMarket.sol\":2657:2661  true */\n      0x01\n        /* \"NFTMarket.sol\":2620:2632  _listedFlags */\n      0x04\n        /* \"NFTMarket.sol\":2620:2645  _listedFlags[nftContract] */\n      0x00\n        /* \"NFTMarket.sol\":2633:2644  nftContract */\n      dup9\n        /* \"NFTMarket.sol\":2620:2645  _listedFlags[nftContract] */\n      0xffffffffffffffffffffffffffffffffffffffff\n      and\n      0xffffffffffffffffffffffffffffffffffffffff\n      and\n      dup2\n      mstore\n      0x20\n      add\n      swap1\n      dup2\n      mstore\n      0x20\n      add\n      0x00\n      keccak256\n        /* \"NFTMarket.sol\":2620:2654  _listedFlags[nftContract][tokenId] */\n      0x00\n        /* \"NFTMarket.sol\":2646:2653  tokenId */\n      dup8\n        /* \"NFTMarket.sol\":2620:2654  _listedFlags[nftContract][tokenId] */\n      dup2\n      mstore\n      0x20\n      add\n      swap1\n      dup2\n      mstore\n      0x20\n      add\n      0x00\n      keccak256\n      0x00\n        /* \"NFTMarket.sol\":2620:2661  _listedFlags[nftContract][tokenId] = true */\n      0x0100\n      exp\n      dup2\n      sload\n      dup2\n      0xff\n      mul\n      not\n      and\n      swap1\n      dup4\n      iszero\n      iszero\n      mul\n      or\n      swap1\n      sstore\n      pop\n        /* \"NFTMarket.sol\":2672:2680  _allNfts */\n      0x01\n        /* \"NFTMarket.sol\":2686:2716  NftIndex(nftContract, tokenId) */\n      mload(0x40)\n      dup1\n      0x40\n      add\n      0x40\n      mstore\n      dup1\n        /* \"NFTMarket.sol\":2695:2706  nftContract */\n      dup9\n        /* \"NFTMarket.sol\":2686:2716  NftIndex(nftContract, tokenId) */\n      0xffffffffffffffffffffffffffffffffffffffff\n      and\n      dup2\n      mstore\n      0x20\n      add\n        /* \"NFTMarket.sol\":2708:2715  tokenId */\n      dup8\n        /* \"NFTMarket.sol\":2686:2716  NftIndex(nftContract, tokenId) */\n      dup2\n      mstore\n      pop\n        /* \"NFTMarket.sol\":2672:2717  _allNfts.push(NftIndex(nftContract, tokenId)) */\n      swap1\n      dup1\n      0x01\n      dup2\n      sload\n      add\n      dup1\n      dup3\n      sstore\n      dup1\n      swap2\n      pop\n      pop\n      0x01\n      swap1\n      sub\n      swap1\n      0x00\n      mstore\n      keccak256(0x00, 0x20)\n      swap1\n      0x02\n      mul\n      add\n      0x00\n      swap1\n      swap2\n      swap1\n      swap2\n      swap1\n      swap2\n      pop\n      0x00\n      dup3\n      add\n      mload\n      dup2\n      0x00\n      add\n      exp(0x0100, 0x00)\n      dup2\n      sload\n      dup2\n      0xffffffffffffffffffffffffffffffffffffffff\n      mul\n      not\n      and\n      swap1\n      dup4\n      0xffffffffffffffffffffffffffffffffffffffff\n      and\n      mul\n      or\n      swap1\n      sstore\n      pop\n      0x20\n      dup3\n      add\n      mload\n      dup2\n      0x01\n      add\n      sstore\n      pop\n      pop\n        /* \"NFTMarket.sol\":2230:2725  if (nftListed) {... */\n    tag_87:\n        /* \"NFTMarket.sol\":2769:2776  tokenId */\n      dup5\n        /* \"NFTMarket.sol\":2756:2767  nftContract */\n      dup7\n        /* \"NFTMarket.sol\":2738:2784  NftListed(seller, nftContract, tokenId, price) */\n      0xffffffffffffffffffffffffffffffffffffffff\n      and\n        /* \"NFTMarket.sol\":2748:2754  seller */\n      dup4\n        /* \"NFTMarket.sol\":2738:2784  NftListed(seller, nftContract, tokenId, price) */\n      0xffffffffffffffffffffffffffffffffffffffff\n      and\n      0x061b06d224d66454e036e75de172ad87cb7d7f29ee8b7346ca2b48ba0da28042\n        /* \"NFTMarket.sol\":2778:2783  price */\n      dup8\n        /* \"NFTMarket.sol\":2738:2784  NftListed(seller, nftContract, tokenId, price) */\n      mload(0x40)\n      tag_89\n      swap2\n      swap1\n      tag_30\n      jump\t// in\n    tag_89:\n      mload(0x40)\n      dup1\n      swap2\n      sub\n      swap1\n      log4\n        /* \"NFTMarket.sol\":1856:2790  {... */\n      pop\n      pop\n      pop\n        /* \"NFTMarket.sol\":1780:2790  function sell(address nftContract, uint256 tokenId, uint256 price) external {... */\n      pop\n      pop\n      pop\n      jump\t// out\n        /* \"NFTMarket.sol\":3334:3974  function buy(address nftContract, uint256 tokenId) external nonReentrant {... */\n    tag_22:\n        /* \"@openzeppelin/contracts/utils/ReentrancyGuard.sol\":2356:2377  _nonReentrantBefore() */\n      tag_91\n        /* \"@openzeppelin/contracts/utils/ReentrancyGuard.sol\":2356:2375  _nonReentrantBefore */\n      tag_92\n        /* \"@openzeppelin/contracts/utils/ReentrancyGuard.sol\":2356:2377  _nonReentrantBefore() */\n      jump\t// in\n    tag_91:\n        /* \"NFTMarket.sol\":3414:3438  NftItem memory targetNft */\n      0x00\n        /* \"NFTMarket.sol\":3441:3452  _listedNfts */\n      0x03\n        /* \"NFTMarket.sol\":3441:3465  _listedNfts[nftContract] */\n      0x00\n        /* \"NFTMarket.sol\":3453:3464  nftContract */\n      dup5\n        /* \"NFTMarket.sol\":3441:3465  _listedNfts[nftContract] */\n      0xffffffffffffffffffffffffffffffffffffffff\n      and\n      0xffffffffffffffffffffffffffffffffffffffff\n      and\n      dup2\n      mstore\n      0x20\n      add\n      swap1\n      dup2\n      mstore\n      0x20\n      add\n      0x00\n      keccak256\n        /* \"NFTMarket.sol\":3441:3474  _listedNfts[nftContract][tokenId] */\n      0x00\n        /* \"NFTMarket.sol\":3466:3473  tokenId */\n      dup4\n        /* \"NFTMarket.sol\":3441:3474  _listedNfts[nftContract][tokenId] */\n      dup2\n      mstore\n      0x20\n      add\n      swap1\n      dup2\n      mstore\n      0x20\n      add\n      0x00\n      keccak256\n        /* \"NFTMarket.sol\":3414:3474  NftItem memory targetNft = _listedNfts[nftContract][tokenId] */\n      mload(0x40)\n      dup1\n      0xc0\n      add\n      0x40\n      mstore\n      swap1\n      dup2\n      0x00\n      dup3\n      add\n      0x00\n      swap1\n      sload\n      swap1\n      0x0100\n      exp\n      swap1\n      div\n      0xffffffffffffffffffffffffffffffffffffffff\n      and\n      0xffffffffffffffffffffffffffffffffffffffff\n      and\n      0xffffffffffffffffffffffffffffffffffffffff\n      and\n      dup2\n      mstore\n      0x20\n      add\n      0x01\n      dup3\n      add\n      0x00\n      swap1\n      sload\n      swap1\n      0x0100\n      exp\n      swap1\n      div\n      0xffffffffffffffffffffffffffffffffffffffff\n      and\n      0xffffffffffffffffffffffffffffffffffffffff\n      and\n      0xffffffffffffffffffffffffffffffffffffffff\n      and\n      dup2\n      mstore\n      0x20\n      add\n      0x02\n      dup3\n      add\n      sload\n      dup2\n      mstore\n      0x20\n      add\n      0x03\n      dup3\n      add\n      sload\n      dup2\n      mstore\n      0x20\n      add\n      0x04\n      dup3\n      add\n      sload\n      dup2\n      mstore\n      0x20\n      add\n      0x05\n      dup3\n      add\n      0x00\n      swap1\n      sload\n      swap1\n      0x0100\n      exp\n      swap1\n      div\n      0xff\n      and\n      iszero\n      iszero\n      iszero\n      iszero\n      dup2\n      mstore\n      pop\n      pop\n      swap1\n      pop\n        /* \"NFTMarket.sol\":3491:3500  targetNft */\n      dup1\n        /* \"NFTMarket.sol\":3491:3508  targetNft.listing */\n      0xa0\n      add\n      mload\n        /* \"NFTMarket.sol\":3483:3539  require(targetNft.listing, \"NFT isn't listed for sale.\") */\n      tag_94\n      jumpi\n      mload(0x40)\n      0x08c379a000000000000000000000000000000000000000000000000000000000\n      dup2\n      mstore\n      0x04\n      add\n      tag_95\n      swap1\n      tag_49\n      jump\t// in\n    tag_95:\n      mload(0x40)\n      dup1\n      swap2\n      sub\n      swap1\n      revert\n    tag_94:\n        /* \"NFTMarket.sol\":3548:3561  address buyer */\n      0x00\n        /* \"NFTMarket.sol\":3564:3574  msg.sender */\n      caller\n        /* \"NFTMarket.sol\":3548:3574  address buyer = msg.sender */\n      swap1\n      pop\n        /* \"NFTMarket.sol\":3591:3599  _payment */\n      0x02\n      0x00\n      swap1\n      sload\n      swap1\n      0x0100\n      exp\n      swap1\n      div\n      0xffffffffffffffffffffffffffffffffffffffff\n      and\n        /* \"NFTMarket.sol\":3591:3612  _payment.transferFrom */\n      0xffffffffffffffffffffffffffffffffffffffff\n      and\n      0x23b872dd\n        /* \"NFTMarket.sol\":3613:3618  buyer */\n      dup3\n        /* \"NFTMarket.sol\":3620:3629  targetNft */\n      dup5\n        /* \"NFTMarket.sol\":3620:3636  targetNft.seller */\n      0x00\n      add\n      mload\n        /* \"NFTMarket.sol\":3638:3647  targetNft */\n      dup6\n        /* \"NFTMarket.sol\":3638:3653  targetNft.price */\n      0x60\n      add\n      mload\n        /* \"NFTMarket.sol\":3591:3654  _payment.transferFrom(buyer, targetNft.seller, targetNft.price) */\n      mload(0x40)\n      dup5\n      0xffffffff\n      and\n      0xe0\n      shl\n      dup2\n      mstore\n      0x04\n      add\n      tag_96\n      swap4\n      swap3\n      swap2\n      swap1\n      tag_97\n      jump\t// in\n    tag_96:\n      0x20\n      mload(0x40)\n      dup1\n      dup4\n      sub\n      dup2\n      0x00\n      dup8\n      gas\n      call\n      iszero\n      dup1\n      iszero\n      tag_99\n      jumpi\n      returndatasize\n      0x00\n      dup1\n      returndatacopy\n      revert(0x00, returndatasize)\n    tag_99:\n      pop\n      pop\n      pop\n      pop\n      mload(0x40)\n      returndatasize\n      not(0x1f)\n      0x1f\n      dup3\n      add\n      and\n      dup3\n      add\n      dup1\n      0x40\n      mstore\n      pop\n      dup2\n      add\n      swap1\n      tag_100\n      swap2\n      swap1\n      tag_43\n      jump\t// in\n    tag_100:\n        /* \"NFTMarket.sol\":3583:3682  require(_payment.transferFrom(buyer, targetNft.seller, targetNft.price), \"Payment for NFT failed.\") */\n      tag_101\n      jumpi\n      mload(0x40)\n      0x08c379a000000000000000000000000000000000000000000000000000000000\n      dup2\n      mstore\n      0x04\n      add\n      tag_102\n      swap1\n      tag_103\n      jump\t// in\n    tag_102:\n      mload(0x40)\n      dup1\n      swap2\n      sub\n      swap1\n      revert\n    tag_101:\n        /* \"NFTMarket.sol\":3691:3702  IERC721 nft */\n      0x00\n        /* \"NFTMarket.sol\":3713:3724  nftContract */\n      dup5\n        /* \"NFTMarket.sol\":3691:3725  IERC721 nft = IERC721(nftContract) */\n      swap1\n      pop\n        /* \"NFTMarket.sol\":3734:3737  nft */\n      dup1\n        /* \"NFTMarket.sol\":3734:3754  nft.safeTransferFrom */\n      0xffffffffffffffffffffffffffffffffffffffff\n      and\n      0x42842e0e\n        /* \"NFTMarket.sol\":3755:3764  targetNft */\n      dup5\n        /* \"NFTMarket.sol\":3755:3771  targetNft.seller */\n      0x00\n      add\n      mload\n        /* \"NFTMarket.sol\":3773:3778  buyer */\n      dup5\n        /* \"NFTMarket.sol\":3780:3787  tokenId */\n      dup8\n        /* \"NFTMarket.sol\":3734:3788  nft.safeTransferFrom(targetNft.seller, buyer, tokenId) */\n      mload(0x40)\n      dup5\n      0xffffffff\n      and\n      0xe0\n      shl\n      dup2\n      mstore\n      0x04\n      add\n      tag_104\n      swap4\n      swap3\n      swap2\n      swap1\n      tag_97\n      jump\t// in\n    tag_104:\n      0x00\n      mload(0x40)\n      dup1\n      dup4\n      sub\n      dup2\n      0x00\n      dup8\n      dup1\n      extcodesize\n      iszero\n      dup1\n      iszero\n      tag_105\n      jumpi\n      0x00\n      dup1\n      revert\n    tag_105:\n      pop\n      gas\n      call\n      iszero\n      dup1\n      iszero\n      tag_107\n      jumpi\n      returndatasize\n      0x00\n      dup1\n      returndatacopy\n      revert(0x00, returndatasize)\n    tag_107:\n      pop\n      pop\n      pop\n      pop\n        /* \"NFTMarket.sol\":3840:3845  buyer */\n      dup2\n        /* \"NFTMarket.sol\":3797:3808  _listedNfts */\n      0x03\n        /* \"NFTMarket.sol\":3797:3821  _listedNfts[nftContract] */\n      0x00\n        /* \"NFTMarket.sol\":3809:3820  nftContract */\n      dup8\n        /* \"NFTMarket.sol\":3797:3821  _listedNfts[nftContract] */\n      0xffffffffffffffffffffffffffffffffffffffff\n      and\n      0xffffffffffffffffffffffffffffffffffffffff\n      and\n      dup2\n      mstore\n      0x20\n      add\n      swap1\n      dup2\n      mstore\n      0x20\n      add\n      0x00\n      keccak256\n        /* \"NFTMarket.sol\":3797:3830  _listedNfts[nftContract][tokenId] */\n      0x00\n        /* \"NFTMarket.sol\":3822:3829  tokenId */\n      dup7\n        /* \"NFTMarket.sol\":3797:3830  _listedNfts[nftContract][tokenId] */\n      dup2\n      mstore\n      0x20\n      add\n      swap1\n      dup2\n      mstore\n      0x20\n      add\n      0x00\n      keccak256\n        /* \"NFTMarket.sol\":3797:3837  _listedNfts[nftContract][tokenId].seller */\n      0x00\n      add\n      0x00\n        /* \"NFTMarket.sol\":3797:3845  _listedNfts[nftContract][tokenId].seller = buyer */\n      0x0100\n      exp\n      dup2\n      sload\n      dup2\n      0xffffffffffffffffffffffffffffffffffffffff\n      mul\n      not\n      and\n      swap1\n      dup4\n      0xffffffffffffffffffffffffffffffffffffffff\n      and\n      mul\n      or\n      swap1\n      sstore\n      pop\n        /* \"NFTMarket.sol\":3896:3901  false */\n      0x00\n        /* \"NFTMarket.sol\":3852:3863  _listedNfts */\n      0x03\n        /* \"NFTMarket.sol\":3852:3876  _listedNfts[nftContract] */\n      0x00\n        /* \"NFTMarket.sol\":3864:3875  nftContract */\n      dup8\n        /* \"NFTMarket.sol\":3852:3876  _listedNfts[nftContract] */\n      0xffffffffffffffffffffffffffffffffffffffff\n      and\n      0xffffffffffffffffffffffffffffffffffffffff\n      and\n      dup2\n      mstore\n      0x20\n      add\n      swap1\n      dup2\n      mstore\n      0x20\n      add\n      0x00\n      keccak256\n        /* \"NFTMarket.sol\":3852:3885  _listedNfts[nftContract][tokenId] */\n      0x00\n        /* \"NFTMarket.sol\":3877:3884  tokenId */\n      dup7\n        /* \"NFTMarket.sol\":3852:3885  _listedNfts[nftContract][tokenId] */\n      dup2\n      mstore\n      0x20\n      add\n      swap1\n      dup2\n      mstore\n      0x20\n      add\n      0x00\n      keccak256\n        /* \"NFTMarket.sol\":3852:3893  _listedNfts[nftContract][tokenId].listing */\n      0x05\n      add\n      0x00\n        /* \"NFTMarket.sol\":3852:3901  _listedNfts[nftContract][tokenId].listing = false */\n      0x0100\n      exp\n      dup2\n      sload\n      dup2\n      0xff\n      mul\n      not\n      and\n      swap1\n      dup4\n      iszero\n      iszero\n      mul\n      or\n      swap1\n      sstore\n      pop\n        /* \"NFTMarket.sol\":3943:3950  tokenId */\n      dup4\n        /* \"NFTMarket.sol\":3930:3941  nftContract */\n      dup6\n        /* \"NFTMarket.sol\":3915:3968  NftSold(buyer, nftContract, tokenId, targetNft.price) */\n      0xffffffffffffffffffffffffffffffffffffffff\n      and\n        /* \"NFTMarket.sol\":3923:3928  buyer */\n      dup4\n        /* \"NFTMarket.sol\":3915:3968  NftSold(buyer, nftContract, tokenId, targetNft.price) */\n      0xffffffffffffffffffffffffffffffffffffffff\n      and\n      0x6de5f61b24e998dfaddeff37d69f266a8355555154081b554c36b2799f0618c8\n        /* \"NFTMarket.sol\":3952:3961  targetNft */\n      dup7\n        /* \"NFTMarket.sol\":3952:3967  targetNft.price */\n      0x60\n      add\n      mload\n        /* \"NFTMarket.sol\":3915:3968  NftSold(buyer, nftContract, tokenId, targetNft.price) */\n      mload(0x40)\n      tag_108\n      swap2\n      swap1\n      tag_30\n      jump\t// in\n    tag_108:\n      mload(0x40)\n      dup1\n      swap2\n      sub\n      swap1\n      log4\n        /* \"NFTMarket.sol\":3407:3974  {... */\n      pop\n      pop\n      pop\n        /* \"@openzeppelin/contracts/utils/ReentrancyGuard.sol\":2398:2418  _nonReentrantAfter() */\n      tag_109\n        /* \"@openzeppelin/contracts/utils/ReentrancyGuard.sol\":2398:2416  _nonReentrantAfter */\n      tag_110\n        /* \"@openzeppelin/contracts/utils/ReentrancyGuard.sol\":2398:2418  _nonReentrantAfter() */\n      jump\t// in\n    tag_109:\n        /* \"NFTMarket.sol\":3334:3974  function buy(address nftContract, uint256 tokenId) external nonReentrant {... */\n      pop\n      pop\n      jump\t// out\n        /* \"NFTMarket.sol\":1280:1427  function isListing(address nftContract, uint256 tokenId) external view returns (bool) {... */\n    tag_25:\n        /* \"NFTMarket.sol\":1360:1364  bool */\n      0x00\n        /* \"NFTMarket.sol\":1380:1391  _listedNfts */\n      0x03\n        /* \"NFTMarket.sol\":1380:1404  _listedNfts[nftContract] */\n      0x00\n        /* \"NFTMarket.sol\":1392:1403  nftContract */\n      dup5\n        /* \"NFTMarket.sol\":1380:1404  _listedNfts[nftContract] */\n      0xffffffffffffffffffffffffffffffffffffffff\n      and\n      0xffffffffffffffffffffffffffffffffffffffff\n      and\n      dup2\n      mstore\n      0x20\n      add\n      swap1\n      dup2\n      mstore\n      0x20\n      add\n      0x00\n      keccak256\n        /* \"NFTMarket.sol\":1380:1413  _listedNfts[nftContract][tokenId] */\n      0x00\n        /* \"NFTMarket.sol\":1405:1412  tokenId */\n      dup4\n        /* \"NFTMarket.sol\":1380:1413  _listedNfts[nftContract][tokenId] */\n      dup2\n      mstore\n      0x20\n      add\n      swap1\n      dup2\n      mstore\n      0x20\n      add\n      0x00\n      keccak256\n        /* \"NFTMarket.sol\":1380:1421  _listedNfts[nftContract][tokenId].listing */\n      0x05\n      add\n      0x00\n      swap1\n      sload\n      swap1\n      0x0100\n      exp\n      swap1\n      div\n      0xff\n      and\n        /* \"NFTMarket.sol\":1373:1421  return _listedNfts[nftContract][tokenId].listing */\n      swap1\n      pop\n        /* \"NFTMarket.sol\":1280:1427  function isListing(address nftContract, uint256 tokenId) external view returns (bool) {... */\n      swap3\n      swap2\n      pop\n      pop\n      jump\t// out\n        /* \"@openzeppelin/contracts/utils/ReentrancyGuard.sol\":2431:2738  function _nonReentrantBefore() private {... */\n    tag_92:\n        /* \"@openzeppelin/contracts/utils/ReentrancyGuard.sol\":1755:1756  2 */\n      0x02\n        /* \"@openzeppelin/contracts/utils/ReentrancyGuard.sol\":2558:2565  _status */\n      sload(0x00)\n        /* \"@openzeppelin/contracts/utils/ReentrancyGuard.sol\":2558:2576  _status == ENTERED */\n      sub\n        /* \"@openzeppelin/contracts/utils/ReentrancyGuard.sol\":2554:2640  if (_status == ENTERED) {... */\n      tag_113\n      jumpi\n        /* \"@openzeppelin/contracts/utils/ReentrancyGuard.sol\":2599:2629  ReentrancyGuardReentrantCall() */\n      mload(0x40)\n      0x3ee5aeb500000000000000000000000000000000000000000000000000000000\n      dup2\n      mstore\n      0x04\n      add\n      mload(0x40)\n      dup1\n      swap2\n      sub\n      swap1\n      revert\n        /* \"@openzeppelin/contracts/utils/ReentrancyGuard.sol\":2554:2640  if (_status == ENTERED) {... */\n    tag_113:\n        /* \"@openzeppelin/contracts/utils/ReentrancyGuard.sol\":1755:1756  2 */\n      0x02\n        /* \"@openzeppelin/contracts/utils/ReentrancyGuard.sol\":2714:2721  _status */\n      0x00\n        /* \"@openzeppelin/contracts/utils/ReentrancyGuard.sol\":2714:2731  _status = ENTERED */\n      dup2\n      swap1\n      sstore\n      pop\n        /* \"@openzeppelin/contracts/utils/ReentrancyGuard.sol\":2431:2738  function _nonReentrantBefore() private {... */\n      jump\t// out\n        /* \"@openzeppelin/contracts/utils/ReentrancyGuard.sol\":2744:2952  function _nonReentrantAfter() private {... */\n    tag_110:\n        /* \"@openzeppelin/contracts/utils/ReentrancyGuard.sol\":1713:1714  1 */\n      0x01\n        /* \"@openzeppelin/contracts/utils/ReentrancyGuard.sol\":2924:2931  _status */\n      0x00\n        /* \"@openzeppelin/contracts/utils/ReentrancyGuard.sol\":2924:2945  _status = NOT_ENTERED */\n      dup2\n      swap1\n      sstore\n      pop\n        /* \"@openzeppelin/contracts/utils/ReentrancyGuard.sol\":2744:2952  function _nonReentrantAfter() private {... */\n      jump\t// out\n    tag_58:\n      mload(0x40)\n      dup1\n      0xc0\n      add\n      0x40\n      mstore\n      dup1\n      and(0xffffffffffffffffffffffffffffffffffffffff, 0x00)\n      dup2\n      mstore\n      0x20\n      add\n      and(0xffffffffffffffffffffffffffffffffffffffff, 0x00)\n      dup2\n      mstore\n      0x20\n      add\n      0x00\n      dup2\n      mstore\n      0x20\n      add\n      0x00\n      dup2\n      mstore\n      0x20\n      add\n      0x00\n      dup2\n      mstore\n      0x20\n      add\n      iszero(iszero(0x00))\n      dup2\n      mstore\n      pop\n      swap1\n      jump\t// out\n    tag_60:\n      mload(0x40)\n      dup1\n      0x40\n      add\n      0x40\n      mstore\n      dup1\n      and(0xffffffffffffffffffffffffffffffffffffffff, 0x00)\n      dup2\n      mstore\n      0x20\n      add\n      0x00\n      dup2\n      mstore\n      pop\n      swap1\n      jump\t// out\n        /* \"#utility.yul\":88:205   */\n    tag_116:\n        /* \"#utility.yul\":197:198   */\n      0x00\n        /* \"#utility.yul\":194:195   */\n      dup1\n        /* \"#utility.yul\":187:199   */\n      revert\n        /* \"#utility.yul\":334:460   */\n    tag_118:\n        /* \"#utility.yul\":371:378   */\n      0x00\n        /* \"#utility.yul\":411:453   */\n      0xffffffffffffffffffffffffffffffffffffffff\n        /* \"#utility.yul\":404:409   */\n      dup3\n        /* \"#utility.yul\":400:454   */\n      and\n        /* \"#utility.yul\":389:454   */\n      swap1\n      pop\n        /* \"#utility.yul\":334:460   */\n      swap2\n      swap1\n      pop\n      jump\t// out\n        /* \"#utility.yul\":466:562   */\n    tag_119:\n        /* \"#utility.yul\":503:510   */\n      0x00\n        /* \"#utility.yul\":532:556   */\n      tag_159\n        /* \"#utility.yul\":550:555   */\n      dup3\n        /* \"#utility.yul\":532:556   */\n      tag_118\n      jump\t// in\n    tag_159:\n        /* \"#utility.yul\":521:556   */\n      swap1\n      pop\n        /* \"#utility.yul\":466:562   */\n      swap2\n      swap1\n      pop\n      jump\t// out\n        /* \"#utility.yul\":568:690   */\n    tag_120:\n        /* \"#utility.yul\":641:665   */\n      tag_161\n        /* \"#utility.yul\":659:664   */\n      dup2\n        /* \"#utility.yul\":641:665   */\n      tag_119\n      jump\t// in\n    tag_161:\n        /* \"#utility.yul\":634:639   */\n      dup2\n        /* \"#utility.yul\":631:666   */\n      eq\n        /* \"#utility.yul\":621:684   */\n      tag_162\n      jumpi\n        /* \"#utility.yul\":680:681   */\n      0x00\n        /* \"#utility.yul\":677:678   */\n      dup1\n        /* \"#utility.yul\":670:682   */\n      revert\n        /* \"#utility.yul\":621:684   */\n    tag_162:\n        /* \"#utility.yul\":568:690   */\n      pop\n      jump\t// out\n        /* \"#utility.yul\":696:835   */\n    tag_121:\n        /* \"#utility.yul\":742:747   */\n      0x00\n        /* \"#utility.yul\":780:786   */\n      dup2\n        /* \"#utility.yul\":767:787   */\n      calldataload\n        /* \"#utility.yul\":758:787   */\n      swap1\n      pop\n        /* \"#utility.yul\":796:829   */\n      tag_164\n        /* \"#utility.yul\":823:828   */\n      dup2\n        /* \"#utility.yul\":796:829   */\n      tag_120\n      jump\t// in\n    tag_164:\n        /* \"#utility.yul\":696:835   */\n      swap3\n      swap2\n      pop\n      pop\n      jump\t// out\n        /* \"#utility.yul\":841:918   */\n    tag_122:\n        /* \"#utility.yul\":878:885   */\n      0x00\n        /* \"#utility.yul\":907:912   */\n      dup2\n        /* \"#utility.yul\":896:912   */\n      swap1\n      pop\n        /* \"#utility.yul\":841:918   */\n      swap2\n      swap1\n      pop\n      jump\t// out\n        /* \"#utility.yul\":924:1046   */\n    tag_123:\n        /* \"#utility.yul\":997:1021   */\n      tag_167\n        /* \"#utility.yul\":1015:1020   */\n      dup2\n        /* \"#utility.yul\":997:1021   */\n      tag_122\n      jump\t// in\n    tag_167:\n        /* \"#utility.yul\":990:995   */\n      dup2\n        /* \"#utility.yul\":987:1022   */\n      eq\n        /* \"#utility.yul\":977:1040   */\n      tag_168\n      jumpi\n        /* \"#utility.yul\":1036:1037   */\n      0x00\n        /* \"#utility.yul\":1033:1034   */\n      dup1\n        /* \"#utility.yul\":1026:1038   */\n      revert\n        /* \"#utility.yul\":977:1040   */\n    tag_168:\n        /* \"#utility.yul\":924:1046   */\n      pop\n      jump\t// out\n        /* \"#utility.yul\":1052:1191   */\n    tag_124:\n        /* \"#utility.yul\":1098:1103   */\n      0x00\n        /* \"#utility.yul\":1136:1142   */\n      dup2\n        /* \"#utility.yul\":1123:1143   */\n      calldataload\n        /* \"#utility.yul\":1114:1143   */\n      swap1\n      pop\n        /* \"#utility.yul\":1152:1185   */\n      tag_170\n        /* \"#utility.yul\":1179:1184   */\n      dup2\n        /* \"#utility.yul\":1152:1185   */\n      tag_123\n      jump\t// in\n    tag_170:\n        /* \"#utility.yul\":1052:1191   */\n      swap3\n      swap2\n      pop\n      pop\n      jump\t// out\n        /* \"#utility.yul\":1197:1671   */\n    tag_10:\n        /* \"#utility.yul\":1265:1271   */\n      0x00\n        /* \"#utility.yul\":1273:1279   */\n      dup1\n        /* \"#utility.yul\":1322:1324   */\n      0x40\n        /* \"#utility.yul\":1310:1319   */\n      dup4\n        /* \"#utility.yul\":1301:1308   */\n      dup6\n        /* \"#utility.yul\":1297:1320   */\n      sub\n        /* \"#utility.yul\":1293:1325   */\n      slt\n        /* \"#utility.yul\":1290:1409   */\n      iszero\n      tag_172\n      jumpi\n        /* \"#utility.yul\":1328:1407   */\n      tag_173\n      tag_116\n      jump\t// in\n    tag_173:\n        /* \"#utility.yul\":1290:1409   */\n    tag_172:\n        /* \"#utility.yul\":1448:1449   */\n      0x00\n        /* \"#utility.yul\":1473:1526   */\n      tag_174\n        /* \"#utility.yul\":1518:1525   */\n      dup6\n        /* \"#utility.yul\":1509:1515   */\n      dup3\n        /* \"#utility.yul\":1498:1507   */\n      dup7\n        /* \"#utility.yul\":1494:1516   */\n      add\n        /* \"#utility.yul\":1473:1526   */\n      tag_121\n      jump\t// in\n    tag_174:\n        /* \"#utility.yul\":1463:1526   */\n      swap3\n      pop\n        /* \"#utility.yul\":1419:1536   */\n      pop\n        /* \"#utility.yul\":1575:1577   */\n      0x20\n        /* \"#utility.yul\":1601:1654   */\n      tag_175\n        /* \"#utility.yul\":1646:1653   */\n      dup6\n        /* \"#utility.yul\":1637:1643   */\n      dup3\n        /* \"#utility.yul\":1626:1635   */\n      dup7\n        /* \"#utility.yul\":1622:1644   */\n      add\n        /* \"#utility.yul\":1601:1654   */\n      tag_124\n      jump\t// in\n    tag_175:\n        /* \"#utility.yul\":1591:1654   */\n      swap2\n      pop\n        /* \"#utility.yul\":1546:1664   */\n      pop\n        /* \"#utility.yul\":1197:1671   */\n      swap3\n      pop\n      swap3\n      swap1\n      pop\n      jump\t// out\n        /* \"#utility.yul\":1677:1815   */\n    tag_125:\n        /* \"#utility.yul\":1768:1774   */\n      0x00\n        /* \"#utility.yul\":1802:1807   */\n      dup2\n        /* \"#utility.yul\":1796:1808   */\n      mload\n        /* \"#utility.yul\":1786:1808   */\n      swap1\n      pop\n        /* \"#utility.yul\":1677:1815   */\n      swap2\n      swap1\n      pop\n      jump\t// out\n        /* \"#utility.yul\":1821:2029   */\n    tag_126:\n        /* \"#utility.yul\":1944:1955   */\n      0x00\n        /* \"#utility.yul\":1978:1984   */\n      dup3\n        /* \"#utility.yul\":1973:1976   */\n      dup3\n        /* \"#utility.yul\":1966:1985   */\n      mstore\n        /* \"#utility.yul\":2018:2022   */\n      0x20\n        /* \"#utility.yul\":2013:2016   */\n      dup3\n        /* \"#utility.yul\":2009:2023   */\n      add\n        /* \"#utility.yul\":1994:2023   */\n      swap1\n      pop\n        /* \"#utility.yul\":1821:2029   */\n      swap3\n      swap2\n      pop\n      pop\n      jump\t// out\n        /* \"#utility.yul\":2035:2191   */\n    tag_127:\n        /* \"#utility.yul\":2126:2130   */\n      0x00\n        /* \"#utility.yul\":2149:2152   */\n      dup2\n        /* \"#utility.yul\":2141:2152   */\n      swap1\n      pop\n        /* \"#utility.yul\":2179:2183   */\n      0x20\n        /* \"#utility.yul\":2174:2177   */\n      dup3\n        /* \"#utility.yul\":2170:2184   */\n      add\n        /* \"#utility.yul\":2162:2184   */\n      swap1\n      pop\n        /* \"#utility.yul\":2035:2191   */\n      swap2\n      swap1\n      pop\n      jump\t// out\n        /* \"#utility.yul\":2197:2305   */\n    tag_128:\n        /* \"#utility.yul\":2274:2298   */\n      tag_180\n        /* \"#utility.yul\":2292:2297   */\n      dup2\n        /* \"#utility.yul\":2274:2298   */\n      tag_119\n      jump\t// in\n    tag_180:\n        /* \"#utility.yul\":2269:2272   */\n      dup3\n        /* \"#utility.yul\":2262:2299   */\n      mstore\n        /* \"#utility.yul\":2197:2305   */\n      pop\n      pop\n      jump\t// out\n        /* \"#utility.yul\":2311:2419   */\n    tag_129:\n        /* \"#utility.yul\":2388:2412   */\n      tag_182\n        /* \"#utility.yul\":2406:2411   */\n      dup2\n        /* \"#utility.yul\":2388:2412   */\n      tag_122\n      jump\t// in\n    tag_182:\n        /* \"#utility.yul\":2383:2386   */\n      dup3\n        /* \"#utility.yul\":2376:2413   */\n      mstore\n        /* \"#utility.yul\":2311:2419   */\n      pop\n      pop\n      jump\t// out\n        /* \"#utility.yul\":2425:2515   */\n    tag_130:\n        /* \"#utility.yul\":2459:2466   */\n      0x00\n        /* \"#utility.yul\":2502:2507   */\n      dup2\n        /* \"#utility.yul\":2495:2508   */\n      iszero\n        /* \"#utility.yul\":2488:2509   */\n      iszero\n        /* \"#utility.yul\":2477:2509   */\n      swap1\n      pop\n        /* \"#utility.yul\":2425:2515   */\n      swap2\n      swap1\n      pop\n      jump\t// out\n        /* \"#utility.yul\":2521:2620   */\n    tag_131:\n        /* \"#utility.yul\":2592:2613   */\n      tag_185\n        /* \"#utility.yul\":2607:2612   */\n      dup2\n        /* \"#utility.yul\":2592:2613   */\n      tag_130\n      jump\t// in\n    tag_185:\n        /* \"#utility.yul\":2587:2590   */\n      dup3\n        /* \"#utility.yul\":2580:2614   */\n      mstore\n        /* \"#utility.yul\":2521:2620   */\n      pop\n      pop\n      jump\t// out\n        /* \"#utility.yul\":2688:3893   */\n    tag_132:\n        /* \"#utility.yul\":2823:2827   */\n      0xc0\n        /* \"#utility.yul\":2818:2821   */\n      dup3\n        /* \"#utility.yul\":2814:2828   */\n      add\n        /* \"#utility.yul\":2912:2916   */\n      0x00\n        /* \"#utility.yul\":2905:2910   */\n      dup3\n        /* \"#utility.yul\":2901:2917   */\n      add\n        /* \"#utility.yul\":2895:2918   */\n      mload\n        /* \"#utility.yul\":2931:2994   */\n      tag_187\n        /* \"#utility.yul\":2988:2992   */\n      0x00\n        /* \"#utility.yul\":2983:2986   */\n      dup6\n        /* \"#utility.yul\":2979:2993   */\n      add\n        /* \"#utility.yul\":2965:2977   */\n      dup3\n        /* \"#utility.yul\":2931:2994   */\n      tag_128\n      jump\t// in\n    tag_187:\n        /* \"#utility.yul\":2838:3004   */\n      pop\n        /* \"#utility.yul\":3093:3097   */\n      0x20\n        /* \"#utility.yul\":3086:3091   */\n      dup3\n        /* \"#utility.yul\":3082:3098   */\n      add\n        /* \"#utility.yul\":3076:3099   */\n      mload\n        /* \"#utility.yul\":3112:3175   */\n      tag_188\n        /* \"#utility.yul\":3169:3173   */\n      0x20\n        /* \"#utility.yul\":3164:3167   */\n      dup6\n        /* \"#utility.yul\":3160:3174   */\n      add\n        /* \"#utility.yul\":3146:3158   */\n      dup3\n        /* \"#utility.yul\":3112:3175   */\n      tag_128\n      jump\t// in\n    tag_188:\n        /* \"#utility.yul\":3014:3185   */\n      pop\n        /* \"#utility.yul\":3270:3274   */\n      0x40\n        /* \"#utility.yul\":3263:3268   */\n      dup3\n        /* \"#utility.yul\":3259:3275   */\n      add\n        /* \"#utility.yul\":3253:3276   */\n      mload\n        /* \"#utility.yul\":3289:3352   */\n      tag_189\n        /* \"#utility.yul\":3346:3350   */\n      0x40\n        /* \"#utility.yul\":3341:3344   */\n      dup6\n        /* \"#utility.yul\":3337:3351   */\n      add\n        /* \"#utility.yul\":3323:3335   */\n      dup3\n        /* \"#utility.yul\":3289:3352   */\n      tag_129\n      jump\t// in\n    tag_189:\n        /* \"#utility.yul\":3195:3362   */\n      pop\n        /* \"#utility.yul\":3445:3449   */\n      0x60\n        /* \"#utility.yul\":3438:3443   */\n      dup3\n        /* \"#utility.yul\":3434:3450   */\n      add\n        /* \"#utility.yul\":3428:3451   */\n      mload\n        /* \"#utility.yul\":3464:3527   */\n      tag_190\n        /* \"#utility.yul\":3521:3525   */\n      0x60\n        /* \"#utility.yul\":3516:3519   */\n      dup6\n        /* \"#utility.yul\":3512:3526   */\n      add\n        /* \"#utility.yul\":3498:3510   */\n      dup3\n        /* \"#utility.yul\":3464:3527   */\n      tag_129\n      jump\t// in\n    tag_190:\n        /* \"#utility.yul\":3372:3537   */\n      pop\n        /* \"#utility.yul\":3623:3627   */\n      0x80\n        /* \"#utility.yul\":3616:3621   */\n      dup3\n        /* \"#utility.yul\":3612:3628   */\n      add\n        /* \"#utility.yul\":3606:3629   */\n      mload\n        /* \"#utility.yul\":3642:3705   */\n      tag_191\n        /* \"#utility.yul\":3699:3703   */\n      0x80\n        /* \"#utility.yul\":3694:3697   */\n      dup6\n        /* \"#utility.yul\":3690:3704   */\n      add\n        /* \"#utility.yul\":3676:3688   */\n      dup3\n        /* \"#utility.yul\":3642:3705   */\n      tag_129\n      jump\t// in\n    tag_191:\n        /* \"#utility.yul\":3547:3715   */\n      pop\n        /* \"#utility.yul\":3800:3804   */\n      0xa0\n        /* \"#utility.yul\":3793:3798   */\n      dup3\n        /* \"#utility.yul\":3789:3805   */\n      add\n        /* \"#utility.yul\":3783:3806   */\n      mload\n        /* \"#utility.yul\":3819:3876   */\n      tag_192\n        /* \"#utility.yul\":3870:3874   */\n      0xa0\n        /* \"#utility.yul\":3865:3868   */\n      dup6\n        /* \"#utility.yul\":3861:3875   */\n      add\n        /* \"#utility.yul\":3847:3859   */\n      dup3\n        /* \"#utility.yul\":3819:3876   */\n      tag_131\n      jump\t// in\n    tag_192:\n        /* \"#utility.yul\":3725:3886   */\n      pop\n        /* \"#utility.yul\":2792:3893   */\n      pop\n        /* \"#utility.yul\":2688:3893   */\n      pop\n      pop\n      jump\t// out\n        /* \"#utility.yul\":3899:4174   */\n    tag_133:\n        /* \"#utility.yul\":4016:4026   */\n      0x00\n        /* \"#utility.yul\":4037:4131   */\n      tag_194\n        /* \"#utility.yul\":4127:4130   */\n      dup4\n        /* \"#utility.yul\":4119:4125   */\n      dup4\n        /* \"#utility.yul\":4037:4131   */\n      tag_132\n      jump\t// in\n    tag_194:\n        /* \"#utility.yul\":4163:4167   */\n      0xc0\n        /* \"#utility.yul\":4158:4161   */\n      dup4\n        /* \"#utility.yul\":4154:4168   */\n      add\n        /* \"#utility.yul\":4140:4168   */\n      swap1\n      pop\n        /* \"#utility.yul\":3899:4174   */\n      swap3\n      swap2\n      pop\n      pop\n      jump\t// out\n        /* \"#utility.yul\":4180:4317   */\n    tag_134:\n        /* \"#utility.yul\":4274:4278   */\n      0x00\n        /* \"#utility.yul\":4306:4310   */\n      0x20\n        /* \"#utility.yul\":4301:4304   */\n      dup3\n        /* \"#utility.yul\":4297:4311   */\n      add\n        /* \"#utility.yul\":4289:4311   */\n      swap1\n      pop\n        /* \"#utility.yul\":4180:4317   */\n      swap2\n      swap1\n      pop\n      jump\t// out\n        /* \"#utility.yul\":4389:5313   */\n    tag_135:\n        /* \"#utility.yul\":4556:4559   */\n      0x00\n        /* \"#utility.yul\":4585:4663   */\n      tag_197\n        /* \"#utility.yul\":4657:4662   */\n      dup3\n        /* \"#utility.yul\":4585:4663   */\n      tag_125\n      jump\t// in\n    tag_197:\n        /* \"#utility.yul\":4679:4789   */\n      tag_198\n        /* \"#utility.yul\":4782:4788   */\n      dup2\n        /* \"#utility.yul\":4777:4780   */\n      dup6\n        /* \"#utility.yul\":4679:4789   */\n      tag_126\n      jump\t// in\n    tag_198:\n        /* \"#utility.yul\":4672:4789   */\n      swap4\n      pop\n        /* \"#utility.yul\":4813:4893   */\n      tag_199\n        /* \"#utility.yul\":4887:4892   */\n      dup4\n        /* \"#utility.yul\":4813:4893   */\n      tag_127\n      jump\t// in\n    tag_199:\n        /* \"#utility.yul\":4916:4923   */\n      dup1\n        /* \"#utility.yul\":4947:4948   */\n      0x00\n        /* \"#utility.yul\":4932:5288   */\n    tag_200:\n        /* \"#utility.yul\":4957:4963   */\n      dup4\n        /* \"#utility.yul\":4954:4955   */\n      dup2\n        /* \"#utility.yul\":4951:4964   */\n      lt\n        /* \"#utility.yul\":4932:5288   */\n      iszero\n      tag_202\n      jumpi\n        /* \"#utility.yul\":5033:5039   */\n      dup2\n        /* \"#utility.yul\":5027:5040   */\n      mload\n        /* \"#utility.yul\":5060:5171   */\n      tag_203\n        /* \"#utility.yul\":5167:5170   */\n      dup9\n        /* \"#utility.yul\":5152:5165   */\n      dup3\n        /* \"#utility.yul\":5060:5171   */\n      tag_133\n      jump\t// in\n    tag_203:\n        /* \"#utility.yul\":5053:5171   */\n      swap8\n      pop\n        /* \"#utility.yul\":5194:5278   */\n      tag_204\n        /* \"#utility.yul\":5271:5277   */\n      dup4\n        /* \"#utility.yul\":5194:5278   */\n      tag_134\n      jump\t// in\n    tag_204:\n        /* \"#utility.yul\":5184:5278   */\n      swap3\n      pop\n        /* \"#utility.yul\":4992:5288   */\n      pop\n        /* \"#utility.yul\":4979:4980   */\n      0x01\n        /* \"#utility.yul\":4976:4977   */\n      dup2\n        /* \"#utility.yul\":4972:4981   */\n      add\n        /* \"#utility.yul\":4967:4981   */\n      swap1\n      pop\n        /* \"#utility.yul\":4932:5288   */\n      jump(tag_200)\n    tag_202:\n        /* \"#utility.yul\":4936:4950   */\n      pop\n        /* \"#utility.yul\":5304:5307   */\n      dup6\n        /* \"#utility.yul\":5297:5307   */\n      swap4\n      pop\n        /* \"#utility.yul\":4561:5313   */\n      pop\n      pop\n      pop\n        /* \"#utility.yul\":4389:5313   */\n      swap3\n      swap2\n      pop\n      pop\n      jump\t// out\n        /* \"#utility.yul\":5319:5788   */\n    tag_15:\n        /* \"#utility.yul\":5510:5514   */\n      0x00\n        /* \"#utility.yul\":5548:5550   */\n      0x20\n        /* \"#utility.yul\":5537:5546   */\n      dup3\n        /* \"#utility.yul\":5533:5551   */\n      add\n        /* \"#utility.yul\":5525:5551   */\n      swap1\n      pop\n        /* \"#utility.yul\":5597:5606   */\n      dup2\n        /* \"#utility.yul\":5591:5595   */\n      dup2\n        /* \"#utility.yul\":5587:5607   */\n      sub\n        /* \"#utility.yul\":5583:5584   */\n      0x00\n        /* \"#utility.yul\":5572:5581   */\n      dup4\n        /* \"#utility.yul\":5568:5585   */\n      add\n        /* \"#utility.yul\":5561:5608   */\n      mstore\n        /* \"#utility.yul\":5625:5781   */\n      tag_206\n        /* \"#utility.yul\":5776:5780   */\n      dup2\n        /* \"#utility.yul\":5767:5773   */\n      dup5\n        /* \"#utility.yul\":5625:5781   */\n      tag_135\n      jump\t// in\n    tag_206:\n        /* \"#utility.yul\":5617:5781   */\n      swap1\n      pop\n        /* \"#utility.yul\":5319:5788   */\n      swap3\n      swap2\n      pop\n      pop\n      jump\t// out\n        /* \"#utility.yul\":5794:6413   */\n    tag_18:\n        /* \"#utility.yul\":5871:5877   */\n      0x00\n        /* \"#utility.yul\":5879:5885   */\n      dup1\n        /* \"#utility.yul\":5887:5893   */\n      0x00\n        /* \"#utility.yul\":5936:5938   */\n      0x60\n        /* \"#utility.yul\":5924:5933   */\n      dup5\n        /* \"#utility.yul\":5915:5922   */\n      dup7\n        /* \"#utility.yul\":5911:5934   */\n      sub\n        /* \"#utility.yul\":5907:5939   */\n      slt\n        /* \"#utility.yul\":5904:6023   */\n      iszero\n      tag_208\n      jumpi\n        /* \"#utility.yul\":5942:6021   */\n      tag_209\n      tag_116\n      jump\t// in\n    tag_209:\n        /* \"#utility.yul\":5904:6023   */\n    tag_208:\n        /* \"#utility.yul\":6062:6063   */\n      0x00\n        /* \"#utility.yul\":6087:6140   */\n      tag_210\n        /* \"#utility.yul\":6132:6139   */\n      dup7\n        /* \"#utility.yul\":6123:6129   */\n      dup3\n        /* \"#utility.yul\":6112:6121   */\n      dup8\n        /* \"#utility.yul\":6108:6130   */\n      add\n        /* \"#utility.yul\":6087:6140   */\n      tag_121\n      jump\t// in\n    tag_210:\n        /* \"#utility.yul\":6077:6140   */\n      swap4\n      pop\n        /* \"#utility.yul\":6033:6150   */\n      pop\n        /* \"#utility.yul\":6189:6191   */\n      0x20\n        /* \"#utility.yul\":6215:6268   */\n      tag_211\n        /* \"#utility.yul\":6260:6267   */\n      dup7\n        /* \"#utility.yul\":6251:6257   */\n      dup3\n        /* \"#utility.yul\":6240:6249   */\n      dup8\n        /* \"#utility.yul\":6236:6258   */\n      add\n        /* \"#utility.yul\":6215:6268   */\n      tag_124\n      jump\t// in\n    tag_211:\n        /* \"#utility.yul\":6205:6268   */\n      swap3\n      pop\n        /* \"#utility.yul\":6160:6278   */\n      pop\n        /* \"#utility.yul\":6317:6319   */\n      0x40\n        /* \"#utility.yul\":6343:6396   */\n      tag_212\n        /* \"#utility.yul\":6388:6395   */\n      dup7\n        /* \"#utility.yul\":6379:6385   */\n      dup3\n        /* \"#utility.yul\":6368:6377   */\n      dup8\n        /* \"#utility.yul\":6364:6386   */\n      add\n        /* \"#utility.yul\":6343:6396   */\n      tag_124\n      jump\t// in\n    tag_212:\n        /* \"#utility.yul\":6333:6396   */\n      swap2\n      pop\n        /* \"#utility.yul\":6288:6406   */\n      pop\n        /* \"#utility.yul\":5794:6413   */\n      swap3\n      pop\n      swap3\n      pop\n      swap3\n      jump\t// out\n        /* \"#utility.yul\":6419:6528   */\n    tag_136:\n        /* \"#utility.yul\":6500:6521   */\n      tag_214\n        /* \"#utility.yul\":6515:6520   */\n      dup2\n        /* \"#utility.yul\":6500:6521   */\n      tag_130\n      jump\t// in\n    tag_214:\n        /* \"#utility.yul\":6495:6498   */\n      dup3\n        /* \"#utility.yul\":6488:6522   */\n      mstore\n        /* \"#utility.yul\":6419:6528   */\n      pop\n      pop\n      jump\t// out\n        /* \"#utility.yul\":6534:6744   */\n    tag_27:\n        /* \"#utility.yul\":6621:6625   */\n      0x00\n        /* \"#utility.yul\":6659:6661   */\n      0x20\n        /* \"#utility.yul\":6648:6657   */\n      dup3\n        /* \"#utility.yul\":6644:6662   */\n      add\n        /* \"#utility.yul\":6636:6662   */\n      swap1\n      pop\n        /* \"#utility.yul\":6672:6737   */\n      tag_216\n        /* \"#utility.yul\":6734:6735   */\n      0x00\n        /* \"#utility.yul\":6723:6732   */\n      dup4\n        /* \"#utility.yul\":6719:6736   */\n      add\n        /* \"#utility.yul\":6710:6716   */\n      dup5\n        /* \"#utility.yul\":6672:6737   */\n      tag_136\n      jump\t// in\n    tag_216:\n        /* \"#utility.yul\":6534:6744   */\n      swap3\n      swap2\n      pop\n      pop\n      jump\t// out\n        /* \"#utility.yul\":6750:6868   */\n    tag_137:\n        /* \"#utility.yul\":6837:6861   */\n      tag_218\n        /* \"#utility.yul\":6855:6860   */\n      dup2\n        /* \"#utility.yul\":6837:6861   */\n      tag_122\n      jump\t// in\n    tag_218:\n        /* \"#utility.yul\":6832:6835   */\n      dup3\n        /* \"#utility.yul\":6825:6862   */\n      mstore\n        /* \"#utility.yul\":6750:6868   */\n      pop\n      pop\n      jump\t// out\n        /* \"#utility.yul\":6874:7096   */\n    tag_30:\n        /* \"#utility.yul\":6967:6971   */\n      0x00\n        /* \"#utility.yul\":7005:7007   */\n      0x20\n        /* \"#utility.yul\":6994:7003   */\n      dup3\n        /* \"#utility.yul\":6990:7008   */\n      add\n        /* \"#utility.yul\":6982:7008   */\n      swap1\n      pop\n        /* \"#utility.yul\":7018:7089   */\n      tag_220\n        /* \"#utility.yul\":7086:7087   */\n      0x00\n        /* \"#utility.yul\":7075:7084   */\n      dup4\n        /* \"#utility.yul\":7071:7088   */\n      add\n        /* \"#utility.yul\":7062:7068   */\n      dup5\n        /* \"#utility.yul\":7018:7089   */\n      tag_137\n      jump\t// in\n    tag_220:\n        /* \"#utility.yul\":6874:7096   */\n      swap3\n      swap2\n      pop\n      pop\n      jump\t// out\n        /* \"#utility.yul\":7102:7245   */\n    tag_138:\n        /* \"#utility.yul\":7159:7164   */\n      0x00\n        /* \"#utility.yul\":7190:7196   */\n      dup2\n        /* \"#utility.yul\":7184:7197   */\n      mload\n        /* \"#utility.yul\":7175:7197   */\n      swap1\n      pop\n        /* \"#utility.yul\":7206:7239   */\n      tag_222\n        /* \"#utility.yul\":7233:7238   */\n      dup2\n        /* \"#utility.yul\":7206:7239   */\n      tag_120\n      jump\t// in\n    tag_222:\n        /* \"#utility.yul\":7102:7245   */\n      swap3\n      swap2\n      pop\n      pop\n      jump\t// out\n        /* \"#utility.yul\":7251:7602   */\n    tag_34:\n        /* \"#utility.yul\":7321:7327   */\n      0x00\n        /* \"#utility.yul\":7370:7372   */\n      0x20\n        /* \"#utility.yul\":7358:7367   */\n      dup3\n        /* \"#utility.yul\":7349:7356   */\n      dup5\n        /* \"#utility.yul\":7345:7368   */\n      sub\n        /* \"#utility.yul\":7341:7373   */\n      slt\n        /* \"#utility.yul\":7338:7457   */\n      iszero\n      tag_224\n      jumpi\n        /* \"#utility.yul\":7376:7455   */\n      tag_225\n      tag_116\n      jump\t// in\n    tag_225:\n        /* \"#utility.yul\":7338:7457   */\n    tag_224:\n        /* \"#utility.yul\":7496:7497   */\n      0x00\n        /* \"#utility.yul\":7521:7585   */\n      tag_226\n        /* \"#utility.yul\":7577:7584   */\n      dup5\n        /* \"#utility.yul\":7568:7574   */\n      dup3\n        /* \"#utility.yul\":7557:7566   */\n      dup6\n        /* \"#utility.yul\":7553:7575   */\n      add\n        /* \"#utility.yul\":7521:7585   */\n      tag_138\n      jump\t// in\n    tag_226:\n        /* \"#utility.yul\":7511:7585   */\n      swap2\n      pop\n        /* \"#utility.yul\":7467:7595   */\n      pop\n        /* \"#utility.yul\":7251:7602   */\n      swap3\n      swap2\n      pop\n      pop\n      jump\t// out\n        /* \"#utility.yul\":7608:7777   */\n    tag_139:\n        /* \"#utility.yul\":7692:7703   */\n      0x00\n        /* \"#utility.yul\":7726:7732   */\n      dup3\n        /* \"#utility.yul\":7721:7724   */\n      dup3\n        /* \"#utility.yul\":7714:7733   */\n      mstore\n        /* \"#utility.yul\":7766:7770   */\n      0x20\n        /* \"#utility.yul\":7761:7764   */\n      dup3\n        /* \"#utility.yul\":7757:7771   */\n      add\n        /* \"#utility.yul\":7742:7771   */\n      swap1\n      pop\n        /* \"#utility.yul\":7608:7777   */\n      swap3\n      swap2\n      pop\n      pop\n      jump\t// out\n        /* \"#utility.yul\":7783:7965   */\n    tag_140:\n        /* \"#utility.yul\":7923:7957   */\n      0x596f75277265206e6f7420746865206f776e6572206f6620746865204e46542e\n        /* \"#utility.yul\":7919:7920   */\n      0x00\n        /* \"#utility.yul\":7911:7917   */\n      dup3\n        /* \"#utility.yul\":7907:7921   */\n      add\n        /* \"#utility.yul\":7900:7958   */\n      mstore\n        /* \"#utility.yul\":7783:7965   */\n      pop\n      jump\t// out\n        /* \"#utility.yul\":7971:8337   */\n    tag_141:\n        /* \"#utility.yul\":8113:8116   */\n      0x00\n        /* \"#utility.yul\":8134:8201   */\n      tag_230\n        /* \"#utility.yul\":8198:8200   */\n      0x20\n        /* \"#utility.yul\":8193:8196   */\n      dup4\n        /* \"#utility.yul\":8134:8201   */\n      tag_139\n      jump\t// in\n    tag_230:\n        /* \"#utility.yul\":8127:8201   */\n      swap2\n      pop\n        /* \"#utility.yul\":8210:8303   */\n      tag_231\n        /* \"#utility.yul\":8299:8302   */\n      dup3\n        /* \"#utility.yul\":8210:8303   */\n      tag_140\n      jump\t// in\n    tag_231:\n        /* \"#utility.yul\":8328:8330   */\n      0x20\n        /* \"#utility.yul\":8323:8326   */\n      dup3\n        /* \"#utility.yul\":8319:8331   */\n      add\n        /* \"#utility.yul\":8312:8331   */\n      swap1\n      pop\n        /* \"#utility.yul\":7971:8337   */\n      swap2\n      swap1\n      pop\n      jump\t// out\n        /* \"#utility.yul\":8343:8762   */\n    tag_37:\n        /* \"#utility.yul\":8509:8513   */\n      0x00\n        /* \"#utility.yul\":8547:8549   */\n      0x20\n        /* \"#utility.yul\":8536:8545   */\n      dup3\n        /* \"#utility.yul\":8532:8550   */\n      add\n        /* \"#utility.yul\":8524:8550   */\n      swap1\n      pop\n        /* \"#utility.yul\":8596:8605   */\n      dup2\n        /* \"#utility.yul\":8590:8594   */\n      dup2\n        /* \"#utility.yul\":8586:8606   */\n      sub\n        /* \"#utility.yul\":8582:8583   */\n      0x00\n        /* \"#utility.yul\":8571:8580   */\n      dup4\n        /* \"#utility.yul\":8567:8584   */\n      add\n        /* \"#utility.yul\":8560:8607   */\n      mstore\n        /* \"#utility.yul\":8624:8755   */\n      tag_233\n        /* \"#utility.yul\":8750:8754   */\n      dup2\n        /* \"#utility.yul\":8624:8755   */\n      tag_141\n      jump\t// in\n    tag_233:\n        /* \"#utility.yul\":8616:8755   */\n      swap1\n      pop\n        /* \"#utility.yul\":8343:8762   */\n      swap2\n      swap1\n      pop\n      jump\t// out\n        /* \"#utility.yul\":8768:8886   */\n    tag_142:\n        /* \"#utility.yul\":8855:8879   */\n      tag_235\n        /* \"#utility.yul\":8873:8878   */\n      dup2\n        /* \"#utility.yul\":8855:8879   */\n      tag_119\n      jump\t// in\n    tag_235:\n        /* \"#utility.yul\":8850:8853   */\n      dup3\n        /* \"#utility.yul\":8843:8880   */\n      mstore\n        /* \"#utility.yul\":8768:8886   */\n      pop\n      pop\n      jump\t// out\n        /* \"#utility.yul\":8892:9224   */\n    tag_39:\n        /* \"#utility.yul\":9013:9017   */\n      0x00\n        /* \"#utility.yul\":9051:9053   */\n      0x40\n        /* \"#utility.yul\":9040:9049   */\n      dup3\n        /* \"#utility.yul\":9036:9054   */\n      add\n        /* \"#utility.yul\":9028:9054   */\n      swap1\n      pop\n        /* \"#utility.yul\":9064:9135   */\n      tag_237\n        /* \"#utility.yul\":9132:9133   */\n      0x00\n        /* \"#utility.yul\":9121:9130   */\n      dup4\n        /* \"#utility.yul\":9117:9134   */\n      add\n        /* \"#utility.yul\":9108:9114   */\n      dup6\n        /* \"#utility.yul\":9064:9135   */\n      tag_142\n      jump\t// in\n    tag_237:\n        /* \"#utility.yul\":9145:9217   */\n      tag_238\n        /* \"#utility.yul\":9213:9215   */\n      0x20\n        /* \"#utility.yul\":9202:9211   */\n      dup4\n        /* \"#utility.yul\":9198:9216   */\n      add\n        /* \"#utility.yul\":9189:9195   */\n      dup5\n        /* \"#utility.yul\":9145:9217   */\n      tag_142\n      jump\t// in\n    tag_238:\n        /* \"#utility.yul\":8892:9224   */\n      swap4\n      swap3\n      pop\n      pop\n      pop\n      jump\t// out\n        /* \"#utility.yul\":9230:9346   */\n    tag_143:\n        /* \"#utility.yul\":9300:9321   */\n      tag_240\n        /* \"#utility.yul\":9315:9320   */\n      dup2\n        /* \"#utility.yul\":9300:9321   */\n      tag_130\n      jump\t// in\n    tag_240:\n        /* \"#utility.yul\":9293:9298   */\n      dup2\n        /* \"#utility.yul\":9290:9322   */\n      eq\n        /* \"#utility.yul\":9280:9340   */\n      tag_241\n      jumpi\n        /* \"#utility.yul\":9336:9337   */\n      0x00\n        /* \"#utility.yul\":9333:9334   */\n      dup1\n        /* \"#utility.yul\":9326:9338   */\n      revert\n        /* \"#utility.yul\":9280:9340   */\n    tag_241:\n        /* \"#utility.yul\":9230:9346   */\n      pop\n      jump\t// out\n        /* \"#utility.yul\":9352:9489   */\n    tag_144:\n        /* \"#utility.yul\":9406:9411   */\n      0x00\n        /* \"#utility.yul\":9437:9443   */\n      dup2\n        /* \"#utility.yul\":9431:9444   */\n      mload\n        /* \"#utility.yul\":9422:9444   */\n      swap1\n      pop\n        /* \"#utility.yul\":9453:9483   */\n      tag_243\n        /* \"#utility.yul\":9477:9482   */\n      dup2\n        /* \"#utility.yul\":9453:9483   */\n      tag_143\n      jump\t// in\n    tag_243:\n        /* \"#utility.yul\":9352:9489   */\n      swap3\n      swap2\n      pop\n      pop\n      jump\t// out\n        /* \"#utility.yul\":9495:9840   */\n    tag_43:\n        /* \"#utility.yul\":9562:9568   */\n      0x00\n        /* \"#utility.yul\":9611:9613   */\n      0x20\n        /* \"#utility.yul\":9599:9608   */\n      dup3\n        /* \"#utility.yul\":9590:9597   */\n      dup5\n        /* \"#utility.yul\":9586:9609   */\n      sub\n        /* \"#utility.yul\":9582:9614   */\n      slt\n        /* \"#utility.yul\":9579:9698   */\n      iszero\n      tag_245\n      jumpi\n        /* \"#utility.yul\":9617:9696   */\n      tag_246\n      tag_116\n      jump\t// in\n    tag_246:\n        /* \"#utility.yul\":9579:9698   */\n    tag_245:\n        /* \"#utility.yul\":9737:9738   */\n      0x00\n        /* \"#utility.yul\":9762:9823   */\n      tag_247\n        /* \"#utility.yul\":9815:9822   */\n      dup5\n        /* \"#utility.yul\":9806:9812   */\n      dup3\n        /* \"#utility.yul\":9795:9804   */\n      dup6\n        /* \"#utility.yul\":9791:9813   */\n      add\n        /* \"#utility.yul\":9762:9823   */\n      tag_144\n      jump\t// in\n    tag_247:\n        /* \"#utility.yul\":9752:9823   */\n      swap2\n      pop\n        /* \"#utility.yul\":9708:9833   */\n      pop\n        /* \"#utility.yul\":9495:9840   */\n      swap3\n      swap2\n      pop\n      pop\n      jump\t// out\n        /* \"#utility.yul\":9846:10020   */\n    tag_145:\n        /* \"#utility.yul\":9986:10012   */\n      0x436f6e74726163742069736e277420617070726f7665642e0000000000000000\n        /* \"#utility.yul\":9982:9983   */\n      0x00\n        /* \"#utility.yul\":9974:9980   */\n      dup3\n        /* \"#utility.yul\":9970:9984   */\n      add\n        /* \"#utility.yul\":9963:10013   */\n      mstore\n        /* \"#utility.yul\":9846:10020   */\n      pop\n      jump\t// out\n        /* \"#utility.yul\":10026:10392   */\n    tag_146:\n        /* \"#utility.yul\":10168:10171   */\n      0x00\n        /* \"#utility.yul\":10189:10256   */\n      tag_250\n        /* \"#utility.yul\":10253:10255   */\n      0x18\n        /* \"#utility.yul\":10248:10251   */\n      dup4\n        /* \"#utility.yul\":10189:10256   */\n      tag_139\n      jump\t// in\n    tag_250:\n        /* \"#utility.yul\":10182:10256   */\n      swap2\n      pop\n        /* \"#utility.yul\":10265:10358   */\n      tag_251\n        /* \"#utility.yul\":10354:10357   */\n      dup3\n        /* \"#utility.yul\":10265:10358   */\n      tag_145\n      jump\t// in\n    tag_251:\n        /* \"#utility.yul\":10383:10385   */\n      0x20\n        /* \"#utility.yul\":10378:10381   */\n      dup3\n        /* \"#utility.yul\":10374:10386   */\n      add\n        /* \"#utility.yul\":10367:10386   */\n      swap1\n      pop\n        /* \"#utility.yul\":10026:10392   */\n      swap2\n      swap1\n      pop\n      jump\t// out\n        /* \"#utility.yul\":10398:10817   */\n    tag_46:\n        /* \"#utility.yul\":10564:10568   */\n      0x00\n        /* \"#utility.yul\":10602:10604   */\n      0x20\n        /* \"#utility.yul\":10591:10600   */\n      dup3\n        /* \"#utility.yul\":10587:10605   */\n      add\n        /* \"#utility.yul\":10579:10605   */\n      swap1\n      pop\n        /* \"#utility.yul\":10651:10660   */\n      dup2\n        /* \"#utility.yul\":10645:10649   */\n      dup2\n        /* \"#utility.yul\":10641:10661   */\n      sub\n        /* \"#utility.yul\":10637:10638   */\n      0x00\n        /* \"#utility.yul\":10626:10635   */\n      dup4\n        /* \"#utility.yul\":10622:10639   */\n      add\n        /* \"#utility.yul\":10615:10662   */\n      mstore\n        /* \"#utility.yul\":10679:10810   */\n      tag_253\n        /* \"#utility.yul\":10805:10809   */\n      dup2\n        /* \"#utility.yul\":10679:10810   */\n      tag_146\n      jump\t// in\n    tag_253:\n        /* \"#utility.yul\":10671:10810   */\n      swap1\n      pop\n        /* \"#utility.yul\":10398:10817   */\n      swap2\n      swap1\n      pop\n      jump\t// out\n        /* \"#utility.yul\":10823:10999   */\n    tag_147:\n        /* \"#utility.yul\":10963:10991   */\n      0x4e46542069736e2774206c697374656420666f722073616c652e000000000000\n        /* \"#utility.yul\":10959:10960   */\n      0x00\n        /* \"#utility.yul\":10951:10957   */\n      dup3\n        /* \"#utility.yul\":10947:10961   */\n      add\n        /* \"#utility.yul\":10940:10992   */\n      mstore\n        /* \"#utility.yul\":10823:10999   */\n      pop\n      jump\t// out\n        /* \"#utility.yul\":11005:11371   */\n    tag_148:\n        /* \"#utility.yul\":11147:11150   */\n      0x00\n        /* \"#utility.yul\":11168:11235   */\n      tag_256\n        /* \"#utility.yul\":11232:11234   */\n      0x1a\n        /* \"#utility.yul\":11227:11230   */\n      dup4\n        /* \"#utility.yul\":11168:11235   */\n      tag_139\n      jump\t// in\n    tag_256:\n        /* \"#utility.yul\":11161:11235   */\n      swap2\n      pop\n        /* \"#utility.yul\":11244:11337   */\n      tag_257\n        /* \"#utility.yul\":11333:11336   */\n      dup3\n        /* \"#utility.yul\":11244:11337   */\n      tag_147\n      jump\t// in\n    tag_257:\n        /* \"#utility.yul\":11362:11364   */\n      0x20\n        /* \"#utility.yul\":11357:11360   */\n      dup3\n        /* \"#utility.yul\":11353:11365   */\n      add\n        /* \"#utility.yul\":11346:11365   */\n      swap1\n      pop\n        /* \"#utility.yul\":11005:11371   */\n      swap2\n      swap1\n      pop\n      jump\t// out\n        /* \"#utility.yul\":11377:11796   */\n    tag_49:\n        /* \"#utility.yul\":11543:11547   */\n      0x00\n        /* \"#utility.yul\":11581:11583   */\n      0x20\n        /* \"#utility.yul\":11570:11579   */\n      dup3\n        /* \"#utility.yul\":11566:11584   */\n      add\n        /* \"#utility.yul\":11558:11584   */\n      swap1\n      pop\n        /* \"#utility.yul\":11630:11639   */\n      dup2\n        /* \"#utility.yul\":11624:11628   */\n      dup2\n        /* \"#utility.yul\":11620:11640   */\n      sub\n        /* \"#utility.yul\":11616:11617   */\n      0x00\n        /* \"#utility.yul\":11605:11614   */\n      dup4\n        /* \"#utility.yul\":11601:11618   */\n      add\n        /* \"#utility.yul\":11594:11641   */\n      mstore\n        /* \"#utility.yul\":11658:11789   */\n      tag_259\n        /* \"#utility.yul\":11784:11788   */\n      dup2\n        /* \"#utility.yul\":11658:11789   */\n      tag_148\n      jump\t// in\n    tag_259:\n        /* \"#utility.yul\":11650:11789   */\n      swap1\n      pop\n        /* \"#utility.yul\":11377:11796   */\n      swap2\n      swap1\n      pop\n      jump\t// out\n        /* \"#utility.yul\":11802:11982   */\n    tag_54:\n        /* \"#utility.yul\":11850:11927   */\n      0x4e487b7100000000000000000000000000000000000000000000000000000000\n        /* \"#utility.yul\":11847:11848   */\n      0x00\n        /* \"#utility.yul\":11840:11928   */\n      mstore\n        /* \"#utility.yul\":11947:11951   */\n      0x41\n        /* \"#utility.yul\":11944:11945   */\n      0x04\n        /* \"#utility.yul\":11937:11952   */\n      mstore\n        /* \"#utility.yul\":11971:11975   */\n      0x24\n        /* \"#utility.yul\":11968:11969   */\n      0x00\n        /* \"#utility.yul\":11961:11976   */\n      revert\n        /* \"#utility.yul\":11988:12168   */\n    tag_66:\n        /* \"#utility.yul\":12036:12113   */\n      0x4e487b7100000000000000000000000000000000000000000000000000000000\n        /* \"#utility.yul\":12033:12034   */\n      0x00\n        /* \"#utility.yul\":12026:12114   */\n      mstore\n        /* \"#utility.yul\":12133:12137   */\n      0x32\n        /* \"#utility.yul\":12130:12131   */\n      0x04\n        /* \"#utility.yul\":12123:12138   */\n      mstore\n        /* \"#utility.yul\":12157:12161   */\n      0x24\n        /* \"#utility.yul\":12154:12155   */\n      0x00\n        /* \"#utility.yul\":12147:12162   */\n      revert\n        /* \"#utility.yul\":12174:12354   */\n    tag_149:\n        /* \"#utility.yul\":12314:12346   */\n      0x5072696365206d7573742062652067726561746572207468616e7420302e0000\n        /* \"#utility.yul\":12310:12311   */\n      0x00\n        /* \"#utility.yul\":12302:12308   */\n      dup3\n        /* \"#utility.yul\":12298:12312   */\n      add\n        /* \"#utility.yul\":12291:12347   */\n      mstore\n        /* \"#utility.yul\":12174:12354   */\n      pop\n      jump\t// out\n        /* \"#utility.yul\":12360:12726   */\n    tag_150:\n        /* \"#utility.yul\":12502:12505   */\n      0x00\n        /* \"#utility.yul\":12523:12590   */\n      tag_264\n        /* \"#utility.yul\":12587:12589   */\n      0x1e\n        /* \"#utility.yul\":12582:12585   */\n      dup4\n        /* \"#utility.yul\":12523:12590   */\n      tag_139\n      jump\t// in\n    tag_264:\n        /* \"#utility.yul\":12516:12590   */\n      swap2\n      pop\n        /* \"#utility.yul\":12599:12692   */\n      tag_265\n        /* \"#utility.yul\":12688:12691   */\n      dup3\n        /* \"#utility.yul\":12599:12692   */\n      tag_149\n      jump\t// in\n    tag_265:\n        /* \"#utility.yul\":12717:12719   */\n      0x20\n        /* \"#utility.yul\":12712:12715   */\n      dup3\n        /* \"#utility.yul\":12708:12720   */\n      add\n        /* \"#utility.yul\":12701:12720   */\n      swap1\n      pop\n        /* \"#utility.yul\":12360:12726   */\n      swap2\n      swap1\n      pop\n      jump\t// out\n        /* \"#utility.yul\":12732:13151   */\n    tag_79:\n        /* \"#utility.yul\":12898:12902   */\n      0x00\n        /* \"#utility.yul\":12936:12938   */\n      0x20\n        /* \"#utility.yul\":12925:12934   */\n      dup3\n        /* \"#utility.yul\":12921:12939   */\n      add\n        /* \"#utility.yul\":12913:12939   */\n      swap1\n      pop\n        /* \"#utility.yul\":12985:12994   */\n      dup2\n        /* \"#utility.yul\":12979:12983   */\n      dup2\n        /* \"#utility.yul\":12975:12995   */\n      sub\n        /* \"#utility.yul\":12971:12972   */\n      0x00\n        /* \"#utility.yul\":12960:12969   */\n      dup4\n        /* \"#utility.yul\":12956:12973   */\n      add\n        /* \"#utility.yul\":12949:12996   */\n      mstore\n        /* \"#utility.yul\":13013:13144   */\n      tag_267\n        /* \"#utility.yul\":13139:13143   */\n      dup2\n        /* \"#utility.yul\":13013:13144   */\n      tag_150\n      jump\t// in\n    tag_267:\n        /* \"#utility.yul\":13005:13144   */\n      swap1\n      pop\n        /* \"#utility.yul\":12732:13151   */\n      swap2\n      swap1\n      pop\n      jump\t// out\n        /* \"#utility.yul\":13157:13599   */\n    tag_97:\n        /* \"#utility.yul\":13306:13310   */\n      0x00\n        /* \"#utility.yul\":13344:13346   */\n      0x60\n        /* \"#utility.yul\":13333:13342   */\n      dup3\n        /* \"#utility.yul\":13329:13347   */\n      add\n        /* \"#utility.yul\":13321:13347   */\n      swap1\n      pop\n        /* \"#utility.yul\":13357:13428   */\n      tag_269\n        /* \"#utility.yul\":13425:13426   */\n      0x00\n        /* \"#utility.yul\":13414:13423   */\n      dup4\n        /* \"#utility.yul\":13410:13427   */\n      add\n        /* \"#utility.yul\":13401:13407   */\n      dup7\n        /* \"#utility.yul\":13357:13428   */\n      tag_142\n      jump\t// in\n    tag_269:\n        /* \"#utility.yul\":13438:13510   */\n      tag_270\n        /* \"#utility.yul\":13506:13508   */\n      0x20\n        /* \"#utility.yul\":13495:13504   */\n      dup4\n        /* \"#utility.yul\":13491:13509   */\n      add\n        /* \"#utility.yul\":13482:13488   */\n      dup6\n        /* \"#utility.yul\":13438:13510   */\n      tag_142\n      jump\t// in\n    tag_270:\n        /* \"#utility.yul\":13520:13592   */\n      tag_271\n        /* \"#utility.yul\":13588:13590   */\n      0x40\n        /* \"#utility.yul\":13577:13586   */\n      dup4\n        /* \"#utility.yul\":13573:13591   */\n      add\n        /* \"#utility.yul\":13564:13570   */\n      dup5\n        /* \"#utility.yul\":13520:13592   */\n      tag_137\n      jump\t// in\n    tag_271:\n        /* \"#utility.yul\":13157:13599   */\n      swap5\n      swap4\n      pop\n      pop\n      pop\n      pop\n      jump\t// out\n        /* \"#utility.yul\":13605:13778   */\n    tag_151:\n        /* \"#utility.yul\":13745:13770   */\n      0x5061796d656e7420666f72204e4654206661696c65642e000000000000000000\n        /* \"#utility.yul\":13741:13742   */\n      0x00\n        /* \"#utility.yul\":13733:13739   */\n      dup3\n        /* \"#utility.yul\":13729:13743   */\n      add\n        /* \"#utility.yul\":13722:13771   */\n      mstore\n        /* \"#utility.yul\":13605:13778   */\n      pop\n      jump\t// out\n        /* \"#utility.yul\":13784:14150   */\n    tag_152:\n        /* \"#utility.yul\":13926:13929   */\n      0x00\n        /* \"#utility.yul\":13947:14014   */\n      tag_274\n        /* \"#utility.yul\":14011:14013   */\n      0x17\n        /* \"#utility.yul\":14006:14009   */\n      dup4\n        /* \"#utility.yul\":13947:14014   */\n      tag_139\n      jump\t// in\n    tag_274:\n        /* \"#utility.yul\":13940:14014   */\n      swap2\n      pop\n        /* \"#utility.yul\":14023:14116   */\n      tag_275\n        /* \"#utility.yul\":14112:14115   */\n      dup3\n        /* \"#utility.yul\":14023:14116   */\n      tag_151\n      jump\t// in\n    tag_275:\n        /* \"#utility.yul\":14141:14143   */\n      0x20\n        /* \"#utility.yul\":14136:14139   */\n      dup3\n        /* \"#utility.yul\":14132:14144   */\n      add\n        /* \"#utility.yul\":14125:14144   */\n      swap1\n      pop\n        /* \"#utility.yul\":13784:14150   */\n      swap2\n      swap1\n      pop\n      jump\t// out\n        /* \"#utility.yul\":14156:14575   */\n    tag_103:\n        /* \"#utility.yul\":14322:14326   */\n      0x00\n        /* \"#utility.yul\":14360:14362   */\n      0x20\n        /* \"#utility.yul\":14349:14358   */\n      dup3\n        /* \"#utility.yul\":14345:14363   */\n      add\n        /* \"#utility.yul\":14337:14363   */\n      swap1\n      pop\n        /* \"#utility.yul\":14409:14418   */\n      dup2\n        /* \"#utility.yul\":14403:14407   */\n      dup2\n        /* \"#utility.yul\":14399:14419   */\n      sub\n        /* \"#utility.yul\":14395:14396   */\n      0x00\n        /* \"#utility.yul\":14384:14393   */\n      dup4\n        /* \"#utility.yul\":14380:14397   */\n      add\n        /* \"#utility.yul\":14373:14420   */\n      mstore\n        /* \"#utility.yul\":14437:14568   */\n      tag_277\n        /* \"#utility.yul\":14563:14567   */\n      dup2\n        /* \"#utility.yul\":14437:14568   */\n      tag_152\n      jump\t// in\n    tag_277:\n        /* \"#utility.yul\":14429:14568   */\n      swap1\n      pop\n        /* \"#utility.yul\":14156:14575   */\n      swap2\n      swap1\n      pop\n      jump\t// out\n\n    auxdata: 0xa26469706673582212208d59806af456fc78260d3803ebeb7c0a2322c16cf1a632c77f6628479a4e03f964736f6c634300081a0033\n}\n",
				"bytecode": {
					"linkReferences": {},
					"object": "608060405234801561000f575f80fd5b50604051611a7f380380611a7f833981810160405281019061003191906100dc565b60015f819055508060025f6101000a81548173ffffffffffffffffffffffffffffffffffffffff021916908373ffffffffffffffffffffffffffffffffffffffff16021790555050610107565b5f80fd5b5f73ffffffffffffffffffffffffffffffffffffffff82169050919050565b5f6100ab82610082565b9050919050565b6100bb816100a1565b81146100c5575f80fd5b50565b5f815190506100d6816100b2565b92915050565b5f602082840312156100f1576100f061007e565b5b5f6100fe848285016100c8565b91505092915050565b61196b806101145f395ff3fe608060405234801561000f575f80fd5b5060043610610055575f3560e01c806349c83e861461005957806353ed5143146100755780636a27246214610093578063cce7ec13146100af578063d3398fb5146100cb575b5f80fd5b610073600480360381019061006e919061136d565b6100fb565b005b61007d61040e565b60405161008a9190611504565b60405180910390f35b6100ad60048036038101906100a89190611524565b610681565b005b6100c960048036038101906100c4919061136d565b610d53565b005b6100e560048036038101906100e0919061136d565b61119e565b6040516100f29190611583565b60405180910390f35b5f8290505f3390508073ffffffffffffffffffffffffffffffffffffffff168273ffffffffffffffffffffffffffffffffffffffff16636352211e856040518263ffffffff1660e01b815260040161015391906115ab565b602060405180830381865afa15801561016e573d5f803e3d5ffd5b505050506040513d601f19601f8201168201806040525081019061019291906115d8565b73ffffffffffffffffffffffffffffffffffffffff16146101e8576040517f08c379a00000000000000000000000000000000000000000000000000000000081526004016101df9061165d565b60405180910390fd5b8173ffffffffffffffffffffffffffffffffffffffff1663e985e9c582306040518363ffffffff1660e01b815260040161022392919061168a565b602060405180830381865afa15801561023e573d5f803e3d5ffd5b505050506040513d601f19601f8201168201806040525081019061026291906116db565b6102a1576040517f08c379a000000000000000000000000000000000000000000000000000000000815260040161029890611750565b60405180910390fd5b60035f8573ffffffffffffffffffffffffffffffffffffffff1673ffffffffffffffffffffffffffffffffffffffff1681526020019081526020015f205f8481526020019081526020015f206005015f9054906101000a900460ff1661033c576040517f08c379a0000000000000000000000000000000000000000000000000000000008152600401610333906117b8565b60405180910390fd5b5f60035f8673ffffffffffffffffffffffffffffffffffffffff1673ffffffffffffffffffffffffffffffffffffffff1681526020019081526020015f205f8581526020019081526020015f206005015f6101000a81548160ff021916908315150217905550828473ffffffffffffffffffffffffffffffffffffffff168273ffffffffffffffffffffffffffffffffffffffff167f29be228d82985de47a911b6787be21cb27ae45ed505037ed4d44557998e2ceb04260405161040091906115ab565b60405180910390a450505050565b60605f60018054905067ffffffffffffffff8111156104305761042f6117d6565b5b60405190808252806020026020018201604052801561046957816020015b610456611250565b81526020019060019003908161044e5790505b5090506104746112ae565b5f5b600180549050811015610678576001818154811061049757610496611803565b5b905f5260205f2090600202016040518060400160405290815f82015f9054906101000a900473ffffffffffffffffffffffffffffffffffffffff1673ffffffffffffffffffffffffffffffffffffffff1673ffffffffffffffffffffffffffffffffffffffff168152602001600182015481525050915060035f835f015173ffffffffffffffffffffffffffffffffffffffff1673ffffffffffffffffffffffffffffffffffffffff1681526020019081526020015f205f836020015181526020019081526020015f206040518060c00160405290815f82015f9054906101000a900473ffffffffffffffffffffffffffffffffffffffff1673ffffffffffffffffffffffffffffffffffffffff1673ffffffffffffffffffffffffffffffffffffffff168152602001600182015f9054906101000a900473ffffffffffffffffffffffffffffffffffffffff1673ffffffffffffffffffffffffffffffffffffffff1673ffffffffffffffffffffffffffffffffffffffff168152602001600282015481526020016003820154815260200160048201548152602001600582015f9054906101000a900460ff1615151515815250508382815181106106605761065f611803565b5b60200260200101819052508080600101915050610476565b50819250505090565b5f8390505f3390508073ffffffffffffffffffffffffffffffffffffffff168273ffffffffffffffffffffffffffffffffffffffff16636352211e866040518263ffffffff1660e01b81526004016106d991906115ab565b602060405180830381865afa1580156106f4573d5f803e3d5ffd5b505050506040513d601f19601f8201168201806040525081019061071891906115d8565b73ffffffffffffffffffffffffffffffffffffffff161461076e576040517f08c379a00000000000000000000000000000000000000000000000000000000081526004016107659061165d565b60405180910390fd5b5f83116107b0576040517f08c379a00000000000000000000000000000000000000000000000000000000081526004016107a79061187a565b60405180910390fd5b8173ffffffffffffffffffffffffffffffffffffffff1663e985e9c582306040518363ffffffff1660e01b81526004016107eb92919061168a565b602060405180830381865afa158015610806573d5f803e3d5ffd5b505050506040513d601f19601f8201168201806040525081019061082a91906116db565b610869576040517f08c379a000000000000000000000000000000000000000000000000000000000815260040161086090611750565b60405180910390fd5b5f60045f8773ffffffffffffffffffffffffffffffffffffffff1673ffffffffffffffffffffffffffffffffffffffff1681526020019081526020015f205f8681526020019081526020015f205f9054906101000a900460ff1690508015610a6b578160035f8873ffffffffffffffffffffffffffffffffffffffff1673ffffffffffffffffffffffffffffffffffffffff1681526020019081526020015f205f8781526020019081526020015f205f015f6101000a81548173ffffffffffffffffffffffffffffffffffffffff021916908373ffffffffffffffffffffffffffffffffffffffff1602179055508360035f8873ffffffffffffffffffffffffffffffffffffffff1673ffffffffffffffffffffffffffffffffffffffff1681526020019081526020015f205f8781526020019081526020015f20600301819055504260035f8873ffffffffffffffffffffffffffffffffffffffff1673ffffffffffffffffffffffffffffffffffffffff1681526020019081526020015f205f8781526020019081526020015f2060040181905550600160035f8873ffffffffffffffffffffffffffffffffffffffff1673ffffffffffffffffffffffffffffffffffffffff1681526020019081526020015f205f8781526020019081526020015f206005015f6101000a81548160ff021916908315150217905550610ce5565b6040518060c001604052808373ffffffffffffffffffffffffffffffffffffffff1681526020018773ffffffffffffffffffffffffffffffffffffffff1681526020018681526020018581526020014281526020016001151581525060035f8873ffffffffffffffffffffffffffffffffffffffff1673ffffffffffffffffffffffffffffffffffffffff1681526020019081526020015f205f8781526020019081526020015f205f820151815f015f6101000a81548173ffffffffffffffffffffffffffffffffffffffff021916908373ffffffffffffffffffffffffffffffffffffffff1602179055506020820151816001015f6101000a81548173ffffffffffffffffffffffffffffffffffffffff021916908373ffffffffffffffffffffffffffffffffffffffff16021790555060408201518160020155606082015181600301556080820151816004015560a0820151816005015f6101000a81548160ff021916908315150217905550905050600160045f8873ffffffffffffffffffffffffffffffffffffffff1673ffffffffffffffffffffffffffffffffffffffff1681526020019081526020015f205f8781526020019081526020015f205f6101000a81548160ff021916908315150217905550600160405180604001604052808873ffffffffffffffffffffffffffffffffffffffff16815260200187815250908060018154018082558091505060019003905f5260205f2090600202015f909190919091505f820151815f015f6101000a81548173ffffffffffffffffffffffffffffffffffffffff021916908373ffffffffffffffffffffffffffffffffffffffff1602179055506020820151816001015550505b848673ffffffffffffffffffffffffffffffffffffffff168373ffffffffffffffffffffffffffffffffffffffff167f061b06d224d66454e036e75de172ad87cb7d7f29ee8b7346ca2b48ba0da2804287604051610d4391906115ab565b60405180910390a4505050505050565b610d5b611203565b5f60035f8473ffffffffffffffffffffffffffffffffffffffff1673ffffffffffffffffffffffffffffffffffffffff1681526020019081526020015f205f8381526020019081526020015f206040518060c00160405290815f82015f9054906101000a900473ffffffffffffffffffffffffffffffffffffffff1673ffffffffffffffffffffffffffffffffffffffff1673ffffffffffffffffffffffffffffffffffffffff168152602001600182015f9054906101000a900473ffffffffffffffffffffffffffffffffffffffff1673ffffffffffffffffffffffffffffffffffffffff1673ffffffffffffffffffffffffffffffffffffffff168152602001600282015481526020016003820154815260200160048201548152602001600582015f9054906101000a900460ff16151515158152505090508060a00151610eda576040517f08c379a0000000000000000000000000000000000000000000000000000000008152600401610ed1906117b8565b60405180910390fd5b5f33905060025f9054906101000a900473ffffffffffffffffffffffffffffffffffffffff1673ffffffffffffffffffffffffffffffffffffffff166323b872dd82845f015185606001516040518463ffffffff1660e01b8152600401610f4393929190611898565b6020604051808303815f875af1158015610f5f573d5f803e3d5ffd5b505050506040513d601f19601f82011682018060405250810190610f8391906116db565b610fc2576040517f08c379a0000000000000000000000000000000000000000000000000000000008152600401610fb990611917565b60405180910390fd5b5f8490508073ffffffffffffffffffffffffffffffffffffffff166342842e0e845f015184876040518463ffffffff1660e01b815260040161100693929190611898565b5f604051808303815f87803b15801561101d575f80fd5b505af115801561102f573d5f803e3d5ffd5b505050508160035f8773ffffffffffffffffffffffffffffffffffffffff1673ffffffffffffffffffffffffffffffffffffffff1681526020019081526020015f205f8681526020019081526020015f205f015f6101000a81548173ffffffffffffffffffffffffffffffffffffffff021916908373ffffffffffffffffffffffffffffffffffffffff1602179055505f60035f8773ffffffffffffffffffffffffffffffffffffffff1673ffffffffffffffffffffffffffffffffffffffff1681526020019081526020015f205f8681526020019081526020015f206005015f6101000a81548160ff021916908315150217905550838573ffffffffffffffffffffffffffffffffffffffff168373ffffffffffffffffffffffffffffffffffffffff167f6de5f61b24e998dfaddeff37d69f266a8355555154081b554c36b2799f0618c8866060015160405161118791906115ab565b60405180910390a450505061119a611247565b5050565b5f60035f8473ffffffffffffffffffffffffffffffffffffffff1673ffffffffffffffffffffffffffffffffffffffff1681526020019081526020015f205f8381526020019081526020015f206005015f9054906101000a900460ff16905092915050565b60025f540361123e576040517f3ee5aeb500000000000000000000000000000000000000000000000000000000815260040160405180910390fd5b60025f81905550565b60015f81905550565b6040518060c001604052805f73ffffffffffffffffffffffffffffffffffffffff1681526020015f73ffffffffffffffffffffffffffffffffffffffff1681526020015f81526020015f81526020015f81526020015f151581525090565b60405180604001604052805f73ffffffffffffffffffffffffffffffffffffffff1681526020015f81525090565b5f80fd5b5f73ffffffffffffffffffffffffffffffffffffffff82169050919050565b5f611309826112e0565b9050919050565b611319816112ff565b8114611323575f80fd5b50565b5f8135905061133481611310565b92915050565b5f819050919050565b61134c8161133a565b8114611356575f80fd5b50565b5f8135905061136781611343565b92915050565b5f8060408385031215611383576113826112dc565b5b5f61139085828601611326565b92505060206113a185828601611359565b9150509250929050565b5f81519050919050565b5f82825260208201905092915050565b5f819050602082019050919050565b6113dd816112ff565b82525050565b6113ec8161133a565b82525050565b5f8115159050919050565b611406816113f2565b82525050565b60c082015f8201516114205f8501826113d4565b50602082015161143360208501826113d4565b50604082015161144660408501826113e3565b50606082015161145960608501826113e3565b50608082015161146c60808501826113e3565b5060a082015161147f60a08501826113fd565b50505050565b5f611490838361140c565b60c08301905092915050565b5f602082019050919050565b5f6114b2826113ab565b6114bc81856113b5565b93506114c7836113c5565b805f5b838110156114f75781516114de8882611485565b97506114e98361149c565b9250506001810190506114ca565b5085935050505092915050565b5f6020820190508181035f83015261151c81846114a8565b905092915050565b5f805f6060848603121561153b5761153a6112dc565b5b5f61154886828701611326565b935050602061155986828701611359565b925050604061156a86828701611359565b9150509250925092565b61157d816113f2565b82525050565b5f6020820190506115965f830184611574565b92915050565b6115a58161133a565b82525050565b5f6020820190506115be5f83018461159c565b92915050565b5f815190506115d281611310565b92915050565b5f602082840312156115ed576115ec6112dc565b5b5f6115fa848285016115c4565b91505092915050565b5f82825260208201905092915050565b7f596f75277265206e6f7420746865206f776e6572206f6620746865204e46542e5f82015250565b5f611647602083611603565b915061165282611613565b602082019050919050565b5f6020820190508181035f8301526116748161163b565b9050919050565b611684816112ff565b82525050565b5f60408201905061169d5f83018561167b565b6116aa602083018461167b565b9392505050565b6116ba816113f2565b81146116c4575f80fd5b50565b5f815190506116d5816116b1565b92915050565b5f602082840312156116f0576116ef6112dc565b5b5f6116fd848285016116c7565b91505092915050565b7f436f6e74726163742069736e277420617070726f7665642e00000000000000005f82015250565b5f61173a601883611603565b915061174582611706565b602082019050919050565b5f6020820190508181035f8301526117678161172e565b9050919050565b7f4e46542069736e2774206c697374656420666f722073616c652e0000000000005f82015250565b5f6117a2601a83611603565b91506117ad8261176e565b602082019050919050565b5f6020820190508181035f8301526117cf81611796565b9050919050565b7f4e487b71000000000000000000000000000000000000000000000000000000005f52604160045260245ffd5b7f4e487b71000000000000000000000000000000000000000000000000000000005f52603260045260245ffd5b7f5072696365206d7573742062652067726561746572207468616e7420302e00005f82015250565b5f611864601e83611603565b915061186f82611830565b602082019050919050565b5f6020820190508181035f83015261189181611858565b9050919050565b5f6060820190506118ab5f83018661167b565b6118b8602083018561167b565b6118c5604083018461159c565b949350505050565b7f5061796d656e7420666f72204e4654206661696c65642e0000000000000000005f82015250565b5f611901601783611603565b915061190c826118cd565b602082019050919050565b5f6020820190508181035f83015261192e816118f5565b905091905056fea26469706673582212208d59806af456fc78260d3803ebeb7c0a2322c16cf1a632c77f6628479a4e03f964736f6c634300081a0033",
					"opcodes": "PUSH1 0x80 PUSH1 0x40 MSTORE CALLVALUE DUP1 ISZERO PUSH2 0xF JUMPI PUSH0 DUP1 REVERT JUMPDEST POP PUSH1 0x40 MLOAD PUSH2 0x1A7F CODESIZE SUB DUP1 PUSH2 0x1A7F DUP4 CODECOPY DUP2 DUP2 ADD PUSH1 0x40 MSTORE DUP2 ADD SWAP1 PUSH2 0x31 SWAP2 SWAP1 PUSH2 0xDC JUMP JUMPDEST PUSH1 0x1 PUSH0 DUP2 SWAP1 SSTORE POP DUP1 PUSH1 0x2 PUSH0 PUSH2 0x100 EXP DUP2 SLOAD DUP2 PUSH20 0xFFFFFFFFFFFFFFFFFFFFFFFFFFFFFFFFFFFFFFFF MUL NOT AND SWAP1 DUP4 PUSH20 0xFFFFFFFFFFFFFFFFFFFFFFFFFFFFFFFFFFFFFFFF AND MUL OR SWAP1 SSTORE POP POP PUSH2 0x107 JUMP JUMPDEST PUSH0 DUP1 REVERT JUMPDEST PUSH0 PUSH20 0xFFFFFFFFFFFFFFFFFFFFFFFFFFFFFFFFFFFFFFFF DUP3 AND SWAP1 POP SWAP2 SWAP1 POP JUMP JUMPDEST PUSH0 PUSH2 0xAB DUP3 PUSH2 0x82 JUMP JUMPDEST SWAP1 POP SWAP2 SWAP1 POP JUMP JUMPDEST PUSH2 0xBB DUP2 PUSH2 0xA1 JUMP JUMPDEST DUP2 EQ PUSH2 0xC5 JUMPI PUSH0 DUP1 REVERT JUMPDEST POP JUMP JUMPDEST PUSH0 DUP2 MLOAD SWAP1 POP PUSH2 0xD6 DUP2 PUSH2 0xB2 JUMP JUMPDEST SWAP3 SWAP2 POP POP JUMP JUMPDEST PUSH0 PUSH1 0x20 DUP3 DUP5 SUB SLT ISZERO PUSH2 0xF1 JUMPI PUSH2 0xF0 PUSH2 0x7E JUMP JUMPDEST JUMPDEST PUSH0 PUSH2 0xFE DUP5 DUP3 DUP6 ADD PUSH2 0xC8 JUMP JUMPDEST SWAP2 POP POP SWAP3 SWAP2 POP POP JUMP JUMPDEST PUSH2 0x196B DUP1 PUSH2 0x114 PUSH0 CODECOPY PUSH0 RETURN INVALID PUSH1 0x80 PUSH1 0x40 MSTORE CALLVALUE DUP1 ISZERO PUSH2 0xF JUMPI PUSH0 DUP1 REVERT JUMPDEST POP PUSH1 0x4 CALLDATASIZE LT PUSH2 0x55 JUMPI PUSH0 CALLDATALOAD PUSH1 0xE0 SHR DUP1 PUSH4 0x49C83E86 EQ PUSH2 0x59 JUMPI DUP1 PUSH4 0x53ED5143 EQ PUSH2 0x75 JUMPI DUP1 PUSH4 0x6A272462 EQ PUSH2 0x93 JUMPI DUP1 PUSH4 0xCCE7EC13 EQ PUSH2 0xAF JUMPI DUP1 PUSH4 0xD3398FB5 EQ PUSH2 0xCB JUMPI JUMPDEST PUSH0 DUP1 REVERT JUMPDEST PUSH2 0x73 PUSH1 0x4 DUP1 CALLDATASIZE SUB DUP2 ADD SWAP1 PUSH2 0x6E SWAP2 SWAP1 PUSH2 0x136D JUMP JUMPDEST PUSH2 0xFB JUMP JUMPDEST STOP JUMPDEST PUSH2 0x7D PUSH2 0x40E JUMP JUMPDEST PUSH1 0x40 MLOAD PUSH2 0x8A SWAP2 SWAP1 PUSH2 0x1504 JUMP JUMPDEST PUSH1 0x40 MLOAD DUP1 SWAP2 SUB SWAP1 RETURN JUMPDEST PUSH2 0xAD PUSH1 0x4 DUP1 CALLDATASIZE SUB DUP2 ADD SWAP1 PUSH2 0xA8 SWAP2 SWAP1 PUSH2 0x1524 JUMP JUMPDEST PUSH2 0x681 JUMP JUMPDEST STOP JUMPDEST PUSH2 0xC9 PUSH1 0x4 DUP1 CALLDATASIZE SUB DUP2 ADD SWAP1 PUSH2 0xC4 SWAP2 SWAP1 PUSH2 0x136D JUMP JUMPDEST PUSH2 0xD53 JUMP JUMPDEST STOP JUMPDEST PUSH2 0xE5 PUSH1 0x4 DUP1 CALLDATASIZE SUB DUP2 ADD SWAP1 PUSH2 0xE0 SWAP2 SWAP1 PUSH2 0x136D JUMP JUMPDEST PUSH2 0x119E JUMP JUMPDEST PUSH1 0x40 MLOAD PUSH2 0xF2 SWAP2 SWAP1 PUSH2 0x1583 JUMP JUMPDEST PUSH1 0x40 MLOAD DUP1 SWAP2 SUB SWAP1 RETURN JUMPDEST PUSH0 DUP3 SWAP1 POP PUSH0 CALLER SWAP1 POP DUP1 PUSH20 0xFFFFFFFFFFFFFFFFFFFFFFFFFFFFFFFFFFFFFFFF AND DUP3 PUSH20 0xFFFFFFFFFFFFFFFFFFFFFFFFFFFFFFFFFFFFFFFF AND PUSH4 0x6352211E DUP6 PUSH1 0x40 MLOAD DUP3 PUSH4 0xFFFFFFFF AND PUSH1 0xE0 SHL DUP2 MSTORE PUSH1 0x4 ADD PUSH2 0x153 SWAP2 SWAP1 PUSH2 0x15AB JUMP JUMPDEST PUSH1 0x20 PUSH1 0x40 MLOAD DUP1 DUP4 SUB DUP2 DUP7 GAS STATICCALL ISZERO DUP1 ISZERO PUSH2 0x16E JUMPI RETURNDATASIZE PUSH0 DUP1 RETURNDATACOPY RETURNDATASIZE PUSH0 REVERT JUMPDEST POP POP POP POP PUSH1 0x40 MLOAD RETURNDATASIZE PUSH1 0x1F NOT PUSH1 0x1F DUP3 ADD AND DUP3 ADD DUP1 PUSH1 0x40 MSTORE POP DUP2 ADD SWAP1 PUSH2 0x192 SWAP2 SWAP1 PUSH2 0x15D8 JUMP JUMPDEST PUSH20 0xFFFFFFFFFFFFFFFFFFFFFFFFFFFFFFFFFFFFFFFF AND EQ PUSH2 0x1E8 JUMPI PUSH1 0x40 MLOAD PUSH32 0x8C379A000000000000000000000000000000000000000000000000000000000 DUP2 MSTORE PUSH1 0x4 ADD PUSH2 0x1DF SWAP1 PUSH2 0x165D JUMP JUMPDEST PUSH1 0x40 MLOAD DUP1 SWAP2 SUB SWAP1 REVERT JUMPDEST DUP2 PUSH20 0xFFFFFFFFFFFFFFFFFFFFFFFFFFFFFFFFFFFFFFFF AND PUSH4 0xE985E9C5 DUP3 ADDRESS PUSH1 0x40 MLOAD DUP4 PUSH4 0xFFFFFFFF AND PUSH1 0xE0 SHL DUP2 MSTORE PUSH1 0x4 ADD PUSH2 0x223 SWAP3 SWAP2 SWAP1 PUSH2 0x168A JUMP JUMPDEST PUSH1 0x20 PUSH1 0x40 MLOAD DUP1 DUP4 SUB DUP2 DUP7 GAS STATICCALL ISZERO DUP1 ISZERO PUSH2 0x23E JUMPI RETURNDATASIZE PUSH0 DUP1 RETURNDATACOPY RETURNDATASIZE PUSH0 REVERT JUMPDEST POP POP POP POP PUSH1 0x40 MLOAD RETURNDATASIZE PUSH1 0x1F NOT PUSH1 0x1F DUP3 ADD AND DUP3 ADD DUP1 PUSH1 0x40 MSTORE POP DUP2 ADD SWAP1 PUSH2 0x262 SWAP2 SWAP1 PUSH2 0x16DB JUMP JUMPDEST PUSH2 0x2A1 JUMPI PUSH1 0x40 MLOAD PUSH32 0x8C379A000000000000000000000000000000000000000000000000000000000 DUP2 MSTORE PUSH1 0x4 ADD PUSH2 0x298 SWAP1 PUSH2 0x1750 JUMP JUMPDEST PUSH1 0x40 MLOAD DUP1 SWAP2 SUB SWAP1 REVERT JUMPDEST PUSH1 0x3 PUSH0 DUP6 PUSH20 0xFFFFFFFFFFFFFFFFFFFFFFFFFFFFFFFFFFFFFFFF AND PUSH20 0xFFFFFFFFFFFFFFFFFFFFFFFFFFFFFFFFFFFFFFFF AND DUP2 MSTORE PUSH1 0x20 ADD SWAP1 DUP2 MSTORE PUSH1 0x20 ADD PUSH0 KECCAK256 PUSH0 DUP5 DUP2 MSTORE PUSH1 0x20 ADD SWAP1 DUP2 MSTORE PUSH1 0x20 ADD PUSH0 KECCAK256 PUSH1 0x5 ADD PUSH0 SWAP1 SLOAD SWAP1 PUSH2 0x100 EXP SWAP1 DIV PUSH1 0xFF AND PUSH2 0x33C JUMPI PUSH1 0x40 MLOAD PUSH32 0x8C379A000000000000000000000000000000000000000000000000000000000 DUP2 MSTORE PUSH1 0x4 ADD PUSH2 0x333 SWAP1 PUSH2 0x17B8 JUMP JUMPDEST PUSH1 0x40 MLOAD DUP1 SWAP2 SUB SWAP1 REVERT JUMPDEST PUSH0 PUSH1 0x3 PUSH0 DUP7 PUSH20 0xFFFFFFFFFFFFFFFFFFFFFFFFFFFFFFFFFFFFFFFF AND PUSH20 0xFFFFFFFFFFFFFFFFFFFFFFFFFFFFFFFFFFFFFFFF AND DUP2 MSTORE PUSH1 0x20 ADD SWAP1 DUP2 MSTORE PUSH1 0x20 ADD PUSH0 KECCAK256 PUSH0 DUP6 DUP2 MSTORE PUSH1 0x20 ADD SWAP1 DUP2 MSTORE PUSH1 0x20 ADD PUSH0 KECCAK256 PUSH1 0x5 ADD PUSH0 PUSH2 0x100 EXP DUP2 SLOAD DUP2 PUSH1 0xFF MUL NOT AND SWAP1 DUP4 ISZERO ISZERO MUL OR SWAP1 SSTORE POP DUP3 DUP5 PUSH20 0xFFFFFFFFFFFFFFFFFFFFFFFFFFFFFFFFFFFFFFFF AND DUP3 PUSH20 0xFFFFFFFFFFFFFFFFFFFFFFFFFFFFFFFFFFFFFFFF AND PUSH32 0x29BE228D82985DE47A911B6787BE21CB27AE45ED505037ED4D44557998E2CEB0 TIMESTAMP PUSH1 0x40 MLOAD PUSH2 0x400 SWAP2 SWAP1 PUSH2 0x15AB JUMP JUMPDEST PUSH1 0x40 MLOAD DUP1 SWAP2 SUB SWAP1 LOG4 POP POP POP POP JUMP JUMPDEST PUSH1 0x60 PUSH0 PUSH1 0x1 DUP1 SLOAD SWAP1 POP PUSH8 0xFFFFFFFFFFFFFFFF DUP2 GT ISZERO PUSH2 0x430 JUMPI PUSH2 0x42F PUSH2 0x17D6 JUMP JUMPDEST JUMPDEST PUSH1 0x40 MLOAD SWAP1 DUP1 DUP3 MSTORE DUP1 PUSH1 0x20 MUL PUSH1 0x20 ADD DUP3 ADD PUSH1 0x40 MSTORE DUP1 ISZERO PUSH2 0x469 JUMPI DUP2 PUSH1 0x20 ADD JUMPDEST PUSH2 0x456 PUSH2 0x1250 JUMP JUMPDEST DUP2 MSTORE PUSH1 0x20 ADD SWAP1 PUSH1 0x1 SWAP1 SUB SWAP1 DUP2 PUSH2 0x44E JUMPI SWAP1 POP JUMPDEST POP SWAP1 POP PUSH2 0x474 PUSH2 0x12AE JUMP JUMPDEST PUSH0 JUMPDEST PUSH1 0x1 DUP1 SLOAD SWAP1 POP DUP2 LT ISZERO PUSH2 0x678 JUMPI PUSH1 0x1 DUP2 DUP2 SLOAD DUP2 LT PUSH2 0x497 JUMPI PUSH2 0x496 PUSH2 0x1803 JUMP JUMPDEST JUMPDEST SWAP1 PUSH0 MSTORE PUSH1 0x20 PUSH0 KECCAK256 SWAP1 PUSH1 0x2 MUL ADD PUSH1 0x40 MLOAD DUP1 PUSH1 0x40 ADD PUSH1 0x40 MSTORE SWAP1 DUP2 PUSH0 DUP3 ADD PUSH0 SWAP1 SLOAD SWAP1 PUSH2 0x100 EXP SWAP1 DIV PUSH20 0xFFFFFFFFFFFFFFFFFFFFFFFFFFFFFFFFFFFFFFFF AND PUSH20 0xFFFFFFFFFFFFFFFFFFFFFFFFFFFFFFFFFFFFFFFF AND PUSH20 0xFFFFFFFFFFFFFFFFFFFFFFFFFFFFFFFFFFFFFFFF AND DUP2 MSTORE PUSH1 0x20 ADD PUSH1 0x1 DUP3 ADD SLOAD DUP2 MSTORE POP POP SWAP2 POP PUSH1 0x3 PUSH0 DUP4 PUSH0 ADD MLOAD PUSH20 0xFFFFFFFFFFFFFFFFFFFFFFFFFFFFFFFFFFFFFFFF AND PUSH20 0xFFFFFFFFFFFFFFFFFFFFFFFFFFFFFFFFFFFFFFFF AND DUP2 MSTORE PUSH1 0x20 ADD SWAP1 DUP2 MSTORE PUSH1 0x20 ADD PUSH0 KECCAK256 PUSH0 DUP4 PUSH1 0x20 ADD MLOAD DUP2 MSTORE PUSH1 0x20 ADD SWAP1 DUP2 MSTORE PUSH1 0x20 ADD PUSH0 KECCAK256 PUSH1 0x40 MLOAD DUP1 PUSH1 0xC0 ADD PUSH1 0x40 MSTORE SWAP1 DUP2 PUSH0 DUP3 ADD PUSH0 SWAP1 SLOAD SWAP1 PUSH2 0x100 EXP SWAP1 DIV PUSH20 0xFFFFFFFFFFFFFFFFFFFFFFFFFFFFFFFFFFFFFFFF AND PUSH20 0xFFFFFFFFFFFFFFFFFFFFFFFFFFFFFFFFFFFFFFFF AND PUSH20 0xFFFFFFFFFFFFFFFFFFFFFFFFFFFFFFFFFFFFFFFF AND DUP2 MSTORE PUSH1 0x20 ADD PUSH1 0x1 DUP3 ADD PUSH0 SWAP1 SLOAD SWAP1 PUSH2 0x100 EXP SWAP1 DIV PUSH20 0xFFFFFFFFFFFFFFFFFFFFFFFFFFFFFFFFFFFFFFFF AND PUSH20 0xFFFFFFFFFFFFFFFFFFFFFFFFFFFFFFFFFFFFFFFF AND PUSH20 0xFFFFFFFFFFFFFFFFFFFFFFFFFFFFFFFFFFFFFFFF AND DUP2 MSTORE PUSH1 0x20 ADD PUSH1 0x2 DUP3 ADD SLOAD DUP2 MSTORE PUSH1 0x20 ADD PUSH1 0x3 DUP3 ADD SLOAD DUP2 MSTORE PUSH1 0x20 ADD PUSH1 0x4 DUP3 ADD SLOAD DUP2 MSTORE PUSH1 0x20 ADD PUSH1 0x5 DUP3 ADD PUSH0 SWAP1 SLOAD SWAP1 PUSH2 0x100 EXP SWAP1 DIV PUSH1 0xFF AND ISZERO ISZERO ISZERO ISZERO DUP2 MSTORE POP POP DUP4 DUP3 DUP2 MLOAD DUP2 LT PUSH2 0x660 JUMPI PUSH2 0x65F PUSH2 0x1803 JUMP JUMPDEST JUMPDEST PUSH1 0x20 MUL PUSH1 0x20 ADD ADD DUP2 SWAP1 MSTORE POP DUP1 DUP1 PUSH1 0x1 ADD SWAP2 POP POP PUSH2 0x476 JUMP JUMPDEST POP DUP2 SWAP3 POP POP POP SWAP1 JUMP JUMPDEST PUSH0 DUP4 SWAP1 POP PUSH0 CALLER SWAP1 POP DUP1 PUSH20 0xFFFFFFFFFFFFFFFFFFFFFFFFFFFFFFFFFFFFFFFF AND DUP3 PUSH20 0xFFFFFFFFFFFFFFFFFFFFFFFFFFFFFFFFFFFFFFFF AND PUSH4 0x6352211E DUP7 PUSH1 0x40 MLOAD DUP3 PUSH4 0xFFFFFFFF AND PUSH1 0xE0 SHL DUP2 MSTORE PUSH1 0x4 ADD PUSH2 0x6D9 SWAP2 SWAP1 PUSH2 0x15AB JUMP JUMPDEST PUSH1 0x20 PUSH1 0x40 MLOAD DUP1 DUP4 SUB DUP2 DUP7 GAS STATICCALL ISZERO DUP1 ISZERO PUSH2 0x6F4 JUMPI RETURNDATASIZE PUSH0 DUP1 RETURNDATACOPY RETURNDATASIZE PUSH0 REVERT JUMPDEST POP POP POP POP PUSH1 0x40 MLOAD RETURNDATASIZE PUSH1 0x1F NOT PUSH1 0x1F DUP3 ADD AND DUP3 ADD DUP1 PUSH1 0x40 MSTORE POP DUP2 ADD SWAP1 PUSH2 0x718 SWAP2 SWAP1 PUSH2 0x15D8 JUMP JUMPDEST PUSH20 0xFFFFFFFFFFFFFFFFFFFFFFFFFFFFFFFFFFFFFFFF AND EQ PUSH2 0x76E JUMPI PUSH1 0x40 MLOAD PUSH32 0x8C379A000000000000000000000000000000000000000000000000000000000 DUP2 MSTORE PUSH1 0x4 ADD PUSH2 0x765 SWAP1 PUSH2 0x165D JUMP JUMPDEST PUSH1 0x40 MLOAD DUP1 SWAP2 SUB SWAP1 REVERT JUMPDEST PUSH0 DUP4 GT PUSH2 0x7B0 JUMPI PUSH1 0x40 MLOAD PUSH32 0x8C379A000000000000000000000000000000000000000000000000000000000 DUP2 MSTORE PUSH1 0x4 ADD PUSH2 0x7A7 SWAP1 PUSH2 0x187A JUMP JUMPDEST PUSH1 0x40 MLOAD DUP1 SWAP2 SUB SWAP1 REVERT JUMPDEST DUP2 PUSH20 0xFFFFFFFFFFFFFFFFFFFFFFFFFFFFFFFFFFFFFFFF AND PUSH4 0xE985E9C5 DUP3 ADDRESS PUSH1 0x40 MLOAD DUP4 PUSH4 0xFFFFFFFF AND PUSH1 0xE0 SHL DUP2 MSTORE PUSH1 0x4 ADD PUSH2 0x7EB SWAP3 SWAP2 SWAP1 PUSH2 0x168A JUMP JUMPDEST PUSH1 0x20 PUSH1 0x40 MLOAD DUP1 DUP4 SUB DUP2 DUP7 GAS STATICCALL ISZERO DUP1 ISZERO PUSH2 0x806 JUMPI RETURNDATASIZE PUSH0 DUP1 RETURNDATACOPY RETURNDATASIZE PUSH0 REVERT JUMPDEST POP POP POP POP PUSH1 0x40 MLOAD RETURNDATASIZE PUSH1 0x1F NOT PUSH1 0x1F DUP3 ADD AND DUP3 ADD DUP1 PUSH1 0x40 MSTORE POP DUP2 ADD SWAP1 PUSH2 0x82A SWAP2 SWAP1 PUSH2 0x16DB JUMP JUMPDEST PUSH2 0x869 JUMPI PUSH1 0x40 MLOAD PUSH32 0x8C379A000000000000000000000000000000000000000000000000000000000 DUP2 MSTORE PUSH1 0x4 ADD PUSH2 0x860 SWAP1 PUSH2 0x1750 JUMP JUMPDEST PUSH1 0x40 MLOAD DUP1 SWAP2 SUB SWAP1 REVERT JUMPDEST PUSH0 PUSH1 0x4 PUSH0 DUP8 PUSH20 0xFFFFFFFFFFFFFFFFFFFFFFFFFFFFFFFFFFFFFFFF AND PUSH20 0xFFFFFFFFFFFFFFFFFFFFFFFFFFFFFFFFFFFFFFFF AND DUP2 MSTORE PUSH1 0x20 ADD SWAP1 DUP2 MSTORE PUSH1 0x20 ADD PUSH0 KECCAK256 PUSH0 DUP7 DUP2 MSTORE PUSH1 0x20 ADD SWAP1 DUP2 MSTORE PUSH1 0x20 ADD PUSH0 KECCAK256 PUSH0 SWAP1 SLOAD SWAP1 PUSH2 0x100 EXP SWAP1 DIV PUSH1 0xFF AND SWAP1 POP DUP1 ISZERO PUSH2 0xA6B JUMPI DUP2 PUSH1 0x3 PUSH0 DUP9 PUSH20 0xFFFFFFFFFFFFFFFFFFFFFFFFFFFFFFFFFFFFFFFF AND PUSH20 0xFFFFFFFFFFFFFFFFFFFFFFFFFFFFFFFFFFFFFFFF AND DUP2 MSTORE PUSH1 0x20 ADD SWAP1 DUP2 MSTORE PUSH1 0x20 ADD PUSH0 KECCAK256 PUSH0 DUP8 DUP2 MSTORE PUSH1 0x20 ADD SWAP1 DUP2 MSTORE PUSH1 0x20 ADD PUSH0 KECCAK256 PUSH0 ADD PUSH0 PUSH2 0x100 EXP DUP2 SLOAD DUP2 PUSH20 0xFFFFFFFFFFFFFFFFFFFFFFFFFFFFFFFFFFFFFFFF MUL NOT AND SWAP1 DUP4 PUSH20 0xFFFFFFFFFFFFFFFFFFFFFFFFFFFFFFFFFFFFFFFF AND MUL OR SWAP1 SSTORE POP DUP4 PUSH1 0x3 PUSH0 DUP9 PUSH20 0xFFFFFFFFFFFFFFFFFFFFFFFFFFFFFFFFFFFFFFFF AND PUSH20 0xFFFFFFFFFFFFFFFFFFFFFFFFFFFFFFFFFFFFFFFF AND DUP2 MSTORE PUSH1 0x20 ADD SWAP1 DUP2 MSTORE PUSH1 0x20 ADD PUSH0 KECCAK256 PUSH0 DUP8 DUP2 MSTORE PUSH1 0x20 ADD SWAP1 DUP2 MSTORE PUSH1 0x20 ADD PUSH0 KECCAK256 PUSH1 0x3 ADD DUP2 SWAP1 SSTORE POP TIMESTAMP PUSH1 0x3 PUSH0 DUP9 PUSH20 0xFFFFFFFFFFFFFFFFFFFFFFFFFFFFFFFFFFFFFFFF AND PUSH20 0xFFFFFFFFFFFFFFFFFFFFFFFFFFFFFFFFFFFFFFFF AND DUP2 MSTORE PUSH1 0x20 ADD SWAP1 DUP2 MSTORE PUSH1 0x20 ADD PUSH0 KECCAK256 PUSH0 DUP8 DUP2 MSTORE PUSH1 0x20 ADD SWAP1 DUP2 MSTORE PUSH1 0x20 ADD PUSH0 KECCAK256 PUSH1 0x4 ADD DUP2 SWAP1 SSTORE POP PUSH1 0x1 PUSH1 0x3 PUSH0 DUP9 PUSH20 0xFFFFFFFFFFFFFFFFFFFFFFFFFFFFFFFFFFFFFFFF AND PUSH20 0xFFFFFFFFFFFFFFFFFFFFFFFFFFFFFFFFFFFFFFFF AND DUP2 MSTORE PUSH1 0x20 ADD SWAP1 DUP2 MSTORE PUSH1 0x20 ADD PUSH0 KECCAK256 PUSH0 DUP8 DUP2 MSTORE PUSH1 0x20 ADD SWAP1 DUP2 MSTORE PUSH1 0x20 ADD PUSH0 KECCAK256 PUSH1 0x5 ADD PUSH0 PUSH2 0x100 EXP DUP2 SLOAD DUP2 PUSH1 0xFF MUL NOT AND SWAP1 DUP4 ISZERO ISZERO MUL OR SWAP1 SSTORE POP PUSH2 0xCE5 JUMP JUMPDEST PUSH1 0x40 MLOAD DUP1 PUSH1 0xC0 ADD PUSH1 0x40 MSTORE DUP1 DUP4 PUSH20 0xFFFFFFFFFFFFFFFFFFFFFFFFFFFFFFFFFFFFFFFF AND DUP2 MSTORE PUSH1 0x20 ADD DUP8 PUSH20 0xFFFFFFFFFFFFFFFFFFFFFFFFFFFFFFFFFFFFFFFF AND DUP2 MSTORE PUSH1 0x20 ADD DUP7 DUP2 MSTORE PUSH1 0x20 ADD DUP6 DUP2 MSTORE PUSH1 0x20 ADD TIMESTAMP DUP2 MSTORE PUSH1 0x20 ADD PUSH1 0x1 ISZERO ISZERO DUP2 MSTORE POP PUSH1 0x3 PUSH0 DUP9 PUSH20 0xFFFFFFFFFFFFFFFFFFFFFFFFFFFFFFFFFFFFFFFF AND PUSH20 0xFFFFFFFFFFFFFFFFFFFFFFFFFFFFFFFFFFFFFFFF AND DUP2 MSTORE PUSH1 0x20 ADD SWAP1 DUP2 MSTORE PUSH1 0x20 ADD PUSH0 KECCAK256 PUSH0 DUP8 DUP2 MSTORE PUSH1 0x20 ADD SWAP1 DUP2 MSTORE PUSH1 0x20 ADD PUSH0 KECCAK256 PUSH0 DUP3 ADD MLOAD DUP2 PUSH0 ADD PUSH0 PUSH2 0x100 EXP DUP2 SLOAD DUP2 PUSH20 0xFFFFFFFFFFFFFFFFFFFFFFFFFFFFFFFFFFFFFFFF MUL NOT AND SWAP1 DUP4 PUSH20 0xFFFFFFFFFFFFFFFFFFFFFFFFFFFFFFFFFFFFFFFF AND MUL OR SWAP1 SSTORE POP PUSH1 0x20 DUP3 ADD MLOAD DUP2 PUSH1 0x1 ADD PUSH0 PUSH2 0x100 EXP DUP2 SLOAD DUP2 PUSH20 0xFFFFFFFFFFFFFFFFFFFFFFFFFFFFFFFFFFFFFFFF MUL NOT AND SWAP1 DUP4 PUSH20 0xFFFFFFFFFFFFFFFFFFFFFFFFFFFFFFFFFFFFFFFF AND MUL OR SWAP1 SSTORE POP PUSH1 0x40 DUP3 ADD MLOAD DUP2 PUSH1 0x2 ADD SSTORE PUSH1 0x60 DUP3 ADD MLOAD DUP2 PUSH1 0x3 ADD SSTORE PUSH1 0x80 DUP3 ADD MLOAD DUP2 PUSH1 0x4 ADD SSTORE PUSH1 0xA0 DUP3 ADD MLOAD DUP2 PUSH1 0x5 ADD PUSH0 PUSH2 0x100 EXP DUP2 SLOAD DUP2 PUSH1 0xFF MUL NOT AND SWAP1 DUP4 ISZERO ISZERO MUL OR SWAP1 SSTORE POP SWAP1 POP POP PUSH1 0x1 PUSH1 0x4 PUSH0 DUP9 PUSH20 0xFFFFFFFFFFFFFFFFFFFFFFFFFFFFFFFFFFFFFFFF AND PUSH20 0xFFFFFFFFFFFFFFFFFFFFFFFFFFFFFFFFFFFFFFFF AND DUP2 MSTORE PUSH1 0x20 ADD SWAP1 DUP2 MSTORE PUSH1 0x20 ADD PUSH0 KECCAK256 PUSH0 DUP8 DUP2 MSTORE PUSH1 0x20 ADD SWAP1 DUP2 MSTORE PUSH1 0x20 ADD PUSH0 KECCAK256 PUSH0 PUSH2 0x100 EXP DUP2 SLOAD DUP2 PUSH1 0xFF MUL NOT AND SWAP1 DUP4 ISZERO ISZERO MUL OR SWAP1 SSTORE POP PUSH1 0x1 PUSH1 0x40 MLOAD DUP1 PUSH1 0x40 ADD PUSH1 0x40 MSTORE DUP1 DUP9 PUSH20 0xFFFFFFFFFFFFFFFFFFFFFFFFFFFFFFFFFFFFFFFF AND DUP2 MSTORE PUSH1 0x20 ADD DUP8 DUP2 MSTORE POP SWAP1 DUP1 PUSH1 0x1 DUP2 SLOAD ADD DUP1 DUP3 SSTORE DUP1 SWAP2 POP POP PUSH1 0x1 SWAP1 SUB SWAP1 PUSH0 MSTORE PUSH1 0x20 PUSH0 KECCAK256 SWAP1 PUSH1 0x2 MUL ADD PUSH0 SWAP1 SWAP2 SWAP1 SWAP2 SWAP1 SWAP2 POP PUSH0 DUP3 ADD MLOAD DUP2 PUSH0 ADD PUSH0 PUSH2 0x100 EXP DUP2 SLOAD DUP2 PUSH20 0xFFFFFFFFFFFFFFFFFFFFFFFFFFFFFFFFFFFFFFFF MUL NOT AND SWAP1 DUP4 PUSH20 0xFFFFFFFFFFFFFFFFFFFFFFFFFFFFFFFFFFFFFFFF AND MUL OR SWAP1 SSTORE POP PUSH1 0x20 DUP3 ADD MLOAD DUP2 PUSH1 0x1 ADD SSTORE POP POP JUMPDEST DUP5 DUP7 PUSH20 0xFFFFFFFFFFFFFFFFFFFFFFFFFFFFFFFFFFFFFFFF AND DUP4 PUSH20 0xFFFFFFFFFFFFFFFFFFFFFFFFFFFFFFFFFFFFFFFF AND PUSH32 0x61B06D224D66454E036E75DE172AD87CB7D7F29EE8B7346CA2B48BA0DA28042 DUP8 PUSH1 0x40 MLOAD PUSH2 0xD43 SWAP2 SWAP1 PUSH2 0x15AB JUMP JUMPDEST PUSH1 0x40 MLOAD DUP1 SWAP2 SUB SWAP1 LOG4 POP POP POP POP POP POP JUMP JUMPDEST PUSH2 0xD5B PUSH2 0x1203 JUMP JUMPDEST PUSH0 PUSH1 0x3 PUSH0 DUP5 PUSH20 0xFFFFFFFFFFFFFFFFFFFFFFFFFFFFFFFFFFFFFFFF AND PUSH20 0xFFFFFFFFFFFFFFFFFFFFFFFFFFFFFFFFFFFFFFFF AND DUP2 MSTORE PUSH1 0x20 ADD SWAP1 DUP2 MSTORE PUSH1 0x20 ADD PUSH0 KECCAK256 PUSH0 DUP4 DUP2 MSTORE PUSH1 0x20 ADD SWAP1 DUP2 MSTORE PUSH1 0x20 ADD PUSH0 KECCAK256 PUSH1 0x40 MLOAD DUP1 PUSH1 0xC0 ADD PUSH1 0x40 MSTORE SWAP1 DUP2 PUSH0 DUP3 ADD PUSH0 SWAP1 SLOAD SWAP1 PUSH2 0x100 EXP SWAP1 DIV PUSH20 0xFFFFFFFFFFFFFFFFFFFFFFFFFFFFFFFFFFFFFFFF AND PUSH20 0xFFFFFFFFFFFFFFFFFFFFFFFFFFFFFFFFFFFFFFFF AND PUSH20 0xFFFFFFFFFFFFFFFFFFFFFFFFFFFFFFFFFFFFFFFF AND DUP2 MSTORE PUSH1 0x20 ADD PUSH1 0x1 DUP3 ADD PUSH0 SWAP1 SLOAD SWAP1 PUSH2 0x100 EXP SWAP1 DIV PUSH20 0xFFFFFFFFFFFFFFFFFFFFFFFFFFFFFFFFFFFFFFFF AND PUSH20 0xFFFFFFFFFFFFFFFFFFFFFFFFFFFFFFFFFFFFFFFF AND PUSH20 0xFFFFFFFFFFFFFFFFFFFFFFFFFFFFFFFFFFFFFFFF AND DUP2 MSTORE PUSH1 0x20 ADD PUSH1 0x2 DUP3 ADD SLOAD DUP2 MSTORE PUSH1 0x20 ADD PUSH1 0x3 DUP3 ADD SLOAD DUP2 MSTORE PUSH1 0x20 ADD PUSH1 0x4 DUP3 ADD SLOAD DUP2 MSTORE PUSH1 0x20 ADD PUSH1 0x5 DUP3 ADD PUSH0 SWAP1 SLOAD SWAP1 PUSH2 0x100 EXP SWAP1 DIV PUSH1 0xFF AND ISZERO ISZERO ISZERO ISZERO DUP2 MSTORE POP POP SWAP1 POP DUP1 PUSH1 0xA0 ADD MLOAD PUSH2 0xEDA JUMPI PUSH1 0x40 MLOAD PUSH32 0x8C379A000000000000000000000000000000000000000000000000000000000 DUP2 MSTORE PUSH1 0x4 ADD PUSH2 0xED1 SWAP1 PUSH2 0x17B8 JUMP JUMPDEST PUSH1 0x40 MLOAD DUP1 SWAP2 SUB SWAP1 REVERT JUMPDEST PUSH0 CALLER SWAP1 POP PUSH1 0x2 PUSH0 SWAP1 SLOAD SWAP1 PUSH2 0x100 EXP SWAP1 DIV PUSH20 0xFFFFFFFFFFFFFFFFFFFFFFFFFFFFFFFFFFFFFFFF AND PUSH20 0xFFFFFFFFFFFFFFFFFFFFFFFFFFFFFFFFFFFFFFFF AND PUSH4 0x23B872DD DUP3 DUP5 PUSH0 ADD MLOAD DUP6 PUSH1 0x60 ADD MLOAD PUSH1 0x40 MLOAD DUP5 PUSH4 0xFFFFFFFF AND PUSH1 0xE0 SHL DUP2 MSTORE PUSH1 0x4 ADD PUSH2 0xF43 SWAP4 SWAP3 SWAP2 SWAP1 PUSH2 0x1898 JUMP JUMPDEST PUSH1 0x20 PUSH1 0x40 MLOAD DUP1 DUP4 SUB DUP2 PUSH0 DUP8 GAS CALL ISZERO DUP1 ISZERO PUSH2 0xF5F JUMPI RETURNDATASIZE PUSH0 DUP1 RETURNDATACOPY RETURNDATASIZE PUSH0 REVERT JUMPDEST POP POP POP POP PUSH1 0x40 MLOAD RETURNDATASIZE PUSH1 0x1F NOT PUSH1 0x1F DUP3 ADD AND DUP3 ADD DUP1 PUSH1 0x40 MSTORE POP DUP2 ADD SWAP1 PUSH2 0xF83 SWAP2 SWAP1 PUSH2 0x16DB JUMP JUMPDEST PUSH2 0xFC2 JUMPI PUSH1 0x40 MLOAD PUSH32 0x8C379A000000000000000000000000000000000000000000000000000000000 DUP2 MSTORE PUSH1 0x4 ADD PUSH2 0xFB9 SWAP1 PUSH2 0x1917 JUMP JUMPDEST PUSH1 0x40 MLOAD DUP1 SWAP2 SUB SWAP1 REVERT JUMPDEST PUSH0 DUP5 SWAP1 POP DUP1 PUSH20 0xFFFFFFFFFFFFFFFFFFFFFFFFFFFFFFFFFFFFFFFF AND PUSH4 0x42842E0E DUP5 PUSH0 ADD MLOAD DUP5 DUP8 PUSH1 0x40 MLOAD DUP5 PUSH4 0xFFFFFFFF AND PUSH1 0xE0 SHL DUP2 MSTORE PUSH1 0x4 ADD PUSH2 0x1006 SWAP4 SWAP3 SWAP2 SWAP1 PUSH2 0x1898 JUMP JUMPDEST PUSH0 PUSH1 0x40 MLOAD DUP1 DUP4 SUB DUP2 PUSH0 DUP8 DUP1 EXTCODESIZE ISZERO DUP1 ISZERO PUSH2 0x101D JUMPI PUSH0 DUP1 REVERT JUMPDEST POP GAS CALL ISZERO DUP1 ISZERO PUSH2 0x102F JUMPI RETURNDATASIZE PUSH0 DUP1 RETURNDATACOPY RETURNDATASIZE PUSH0 REVERT JUMPDEST POP POP POP POP DUP2 PUSH1 0x3 PUSH0 DUP8 PUSH20 0xFFFFFFFFFFFFFFFFFFFFFFFFFFFFFFFFFFFFFFFF AND PUSH20 0xFFFFFFFFFFFFFFFFFFFFFFFFFFFFFFFFFFFFFFFF AND DUP2 MSTORE PUSH1 0x20 ADD SWAP1 DUP2 MSTORE PUSH1 0x20 ADD PUSH0 KECCAK256 PUSH0 DUP7 DUP2 MSTORE PUSH1 0x20 ADD SWAP1 DUP2 MSTORE PUSH1 0x20 ADD PUSH0 KECCAK256 PUSH0 ADD PUSH0 PUSH2 0x100 EXP DUP2 SLOAD DUP2 PUSH20 0xFFFFFFFFFFFFFFFFFFFFFFFFFFFFFFFFFFFFFFFF MUL NOT AND SWAP1 DUP4 PUSH20 0xFFFFFFFFFFFFFFFFFFFFFFFFFFFFFFFFFFFFFFFF AND MUL OR SWAP1 SSTORE POP PUSH0 PUSH1 0x3 PUSH0 DUP8 PUSH20 0xFFFFFFFFFFFFFFFFFFFFFFFFFFFFFFFFFFFFFFFF AND PUSH20 0xFFFFFFFFFFFFFFFFFFFFFFFFFFFFFFFFFFFFFFFF AND DUP2 MSTORE PUSH1 0x20 ADD SWAP1 DUP2 MSTORE PUSH1 0x20 ADD PUSH0 KECCAK256 PUSH0 DUP7 DUP2 MSTORE PUSH1 0x20 ADD SWAP1 DUP2 MSTORE PUSH1 0x20 ADD PUSH0 KECCAK256 PUSH1 0x5 ADD PUSH0 PUSH2 0x100 EXP DUP2 SLOAD DUP2 PUSH1 0xFF MUL NOT AND SWAP1 DUP4 ISZERO ISZERO MUL OR SWAP1 SSTORE POP DUP4 DUP6 PUSH20 0xFFFFFFFFFFFFFFFFFFFFFFFFFFFFFFFFFFFFFFFF AND DUP4 PUSH20 0xFFFFFFFFFFFFFFFFFFFFFFFFFFFFFFFFFFFFFFFF AND PUSH32 0x6DE5F61B24E998DFADDEFF37D69F266A8355555154081B554C36B2799F0618C8 DUP7 PUSH1 0x60 ADD MLOAD PUSH1 0x40 MLOAD PUSH2 0x1187 SWAP2 SWAP1 PUSH2 0x15AB JUMP JUMPDEST PUSH1 0x40 MLOAD DUP1 SWAP2 SUB SWAP1 LOG4 POP POP POP PUSH2 0x119A PUSH2 0x1247 JUMP JUMPDEST POP POP JUMP JUMPDEST PUSH0 PUSH1 0x3 PUSH0 DUP5 PUSH20 0xFFFFFFFFFFFFFFFFFFFFFFFFFFFFFFFFFFFFFFFF AND PUSH20 0xFFFFFFFFFFFFFFFFFFFFFFFFFFFFFFFFFFFFFFFF AND DUP2 MSTORE PUSH1 0x20 ADD SWAP1 DUP2 MSTORE PUSH1 0x20 ADD PUSH0 KECCAK256 PUSH0 DUP4 DUP2 MSTORE PUSH1 0x20 ADD SWAP1 DUP2 MSTORE PUSH1 0x20 ADD PUSH0 KECCAK256 PUSH1 0x5 ADD PUSH0 SWAP1 SLOAD SWAP1 PUSH2 0x100 EXP SWAP1 DIV PUSH1 0xFF AND SWAP1 POP SWAP3 SWAP2 POP POP JUMP JUMPDEST PUSH1 0x2 PUSH0 SLOAD SUB PUSH2 0x123E JUMPI PUSH1 0x40 MLOAD PUSH32 0x3EE5AEB500000000000000000000000000000000000000000000000000000000 DUP2 MSTORE PUSH1 0x4 ADD PUSH1 0x40 MLOAD DUP1 SWAP2 SUB SWAP1 REVERT JUMPDEST PUSH1 0x2 PUSH0 DUP2 SWAP1 SSTORE POP JUMP JUMPDEST PUSH1 0x1 PUSH0 DUP2 SWAP1 SSTORE POP JUMP JUMPDEST PUSH1 0x40 MLOAD DUP1 PUSH1 0xC0 ADD PUSH1 0x40 MSTORE DUP1 PUSH0 PUSH20 0xFFFFFFFFFFFFFFFFFFFFFFFFFFFFFFFFFFFFFFFF AND DUP2 MSTORE PUSH1 0x20 ADD PUSH0 PUSH20 0xFFFFFFFFFFFFFFFFFFFFFFFFFFFFFFFFFFFFFFFF AND DUP2 MSTORE PUSH1 0x20 ADD PUSH0 DUP2 MSTORE PUSH1 0x20 ADD PUSH0 DUP2 MSTORE PUSH1 0x20 ADD PUSH0 DUP2 MSTORE PUSH1 0x20 ADD PUSH0 ISZERO ISZERO DUP2 MSTORE POP SWAP1 JUMP JUMPDEST PUSH1 0x40 MLOAD DUP1 PUSH1 0x40 ADD PUSH1 0x40 MSTORE DUP1 PUSH0 PUSH20 0xFFFFFFFFFFFFFFFFFFFFFFFFFFFFFFFFFFFFFFFF AND DUP2 MSTORE PUSH1 0x20 ADD PUSH0 DUP2 MSTORE POP SWAP1 JUMP JUMPDEST PUSH0 DUP1 REVERT JUMPDEST PUSH0 PUSH20 0xFFFFFFFFFFFFFFFFFFFFFFFFFFFFFFFFFFFFFFFF DUP3 AND SWAP1 POP SWAP2 SWAP1 POP JUMP JUMPDEST PUSH0 PUSH2 0x1309 DUP3 PUSH2 0x12E0 JUMP JUMPDEST SWAP1 POP SWAP2 SWAP1 POP JUMP JUMPDEST PUSH2 0x1319 DUP2 PUSH2 0x12FF JUMP JUMPDEST DUP2 EQ PUSH2 0x1323 JUMPI PUSH0 DUP1 REVERT JUMPDEST POP JUMP JUMPDEST PUSH0 DUP2 CALLDATALOAD SWAP1 POP PUSH2 0x1334 DUP2 PUSH2 0x1310 JUMP JUMPDEST SWAP3 SWAP2 POP POP JUMP JUMPDEST PUSH0 DUP2 SWAP1 POP SWAP2 SWAP1 POP JUMP JUMPDEST PUSH2 0x134C DUP2 PUSH2 0x133A JUMP JUMPDEST DUP2 EQ PUSH2 0x1356 JUMPI PUSH0 DUP1 REVERT JUMPDEST POP JUMP JUMPDEST PUSH0 DUP2 CALLDATALOAD SWAP1 POP PUSH2 0x1367 DUP2 PUSH2 0x1343 JUMP JUMPDEST SWAP3 SWAP2 POP POP JUMP JUMPDEST PUSH0 DUP1 PUSH1 0x40 DUP4 DUP6 SUB SLT ISZERO PUSH2 0x1383 JUMPI PUSH2 0x1382 PUSH2 0x12DC JUMP JUMPDEST JUMPDEST PUSH0 PUSH2 0x1390 DUP6 DUP3 DUP7 ADD PUSH2 0x1326 JUMP JUMPDEST SWAP3 POP POP PUSH1 0x20 PUSH2 0x13A1 DUP6 DUP3 DUP7 ADD PUSH2 0x1359 JUMP JUMPDEST SWAP2 POP POP SWAP3 POP SWAP3 SWAP1 POP JUMP JUMPDEST PUSH0 DUP2 MLOAD SWAP1 POP SWAP2 SWAP1 POP JUMP JUMPDEST PUSH0 DUP3 DUP3 MSTORE PUSH1 0x20 DUP3 ADD SWAP1 POP SWAP3 SWAP2 POP POP JUMP JUMPDEST PUSH0 DUP2 SWAP1 POP PUSH1 0x20 DUP3 ADD SWAP1 POP SWAP2 SWAP1 POP JUMP JUMPDEST PUSH2 0x13DD DUP2 PUSH2 0x12FF JUMP JUMPDEST DUP3 MSTORE POP POP JUMP JUMPDEST PUSH2 0x13EC DUP2 PUSH2 0x133A JUMP JUMPDEST DUP3 MSTORE POP POP JUMP JUMPDEST PUSH0 DUP2 ISZERO ISZERO SWAP1 POP SWAP2 SWAP1 POP JUMP JUMPDEST PUSH2 0x1406 DUP2 PUSH2 0x13F2 JUMP JUMPDEST DUP3 MSTORE POP POP JUMP JUMPDEST PUSH1 0xC0 DUP3 ADD PUSH0 DUP3 ADD MLOAD PUSH2 0x1420 PUSH0 DUP6 ADD DUP3 PUSH2 0x13D4 JUMP JUMPDEST POP PUSH1 0x20 DUP3 ADD MLOAD PUSH2 0x1433 PUSH1 0x20 DUP6 ADD DUP3 PUSH2 0x13D4 JUMP JUMPDEST POP PUSH1 0x40 DUP3 ADD MLOAD PUSH2 0x1446 PUSH1 0x40 DUP6 ADD DUP3 PUSH2 0x13E3 JUMP JUMPDEST POP PUSH1 0x60 DUP3 ADD MLOAD PUSH2 0x1459 PUSH1 0x60 DUP6 ADD DUP3 PUSH2 0x13E3 JUMP JUMPDEST POP PUSH1 0x80 DUP3 ADD MLOAD PUSH2 0x146C PUSH1 0x80 DUP6 ADD DUP3 PUSH2 0x13E3 JUMP JUMPDEST POP PUSH1 0xA0 DUP3 ADD MLOAD PUSH2 0x147F PUSH1 0xA0 DUP6 ADD DUP3 PUSH2 0x13FD JUMP JUMPDEST POP POP POP POP JUMP JUMPDEST PUSH0 PUSH2 0x1490 DUP4 DUP4 PUSH2 0x140C JUMP JUMPDEST PUSH1 0xC0 DUP4 ADD SWAP1 POP SWAP3 SWAP2 POP POP JUMP JUMPDEST PUSH0 PUSH1 0x20 DUP3 ADD SWAP1 POP SWAP2 SWAP1 POP JUMP JUMPDEST PUSH0 PUSH2 0x14B2 DUP3 PUSH2 0x13AB JUMP JUMPDEST PUSH2 0x14BC DUP2 DUP6 PUSH2 0x13B5 JUMP JUMPDEST SWAP4 POP PUSH2 0x14C7 DUP4 PUSH2 0x13C5 JUMP JUMPDEST DUP1 PUSH0 JUMPDEST DUP4 DUP2 LT ISZERO PUSH2 0x14F7 JUMPI DUP2 MLOAD PUSH2 0x14DE DUP9 DUP3 PUSH2 0x1485 JUMP JUMPDEST SWAP8 POP PUSH2 0x14E9 DUP4 PUSH2 0x149C JUMP JUMPDEST SWAP3 POP POP PUSH1 0x1 DUP2 ADD SWAP1 POP PUSH2 0x14CA JUMP JUMPDEST POP DUP6 SWAP4 POP POP POP POP SWAP3 SWAP2 POP POP JUMP JUMPDEST PUSH0 PUSH1 0x20 DUP3 ADD SWAP1 POP DUP2 DUP2 SUB PUSH0 DUP4 ADD MSTORE PUSH2 0x151C DUP2 DUP5 PUSH2 0x14A8 JUMP JUMPDEST SWAP1 POP SWAP3 SWAP2 POP POP JUMP JUMPDEST PUSH0 DUP1 PUSH0 PUSH1 0x60 DUP5 DUP7 SUB SLT ISZERO PUSH2 0x153B JUMPI PUSH2 0x153A PUSH2 0x12DC JUMP JUMPDEST JUMPDEST PUSH0 PUSH2 0x1548 DUP7 DUP3 DUP8 ADD PUSH2 0x1326 JUMP JUMPDEST SWAP4 POP POP PUSH1 0x20 PUSH2 0x1559 DUP7 DUP3 DUP8 ADD PUSH2 0x1359 JUMP JUMPDEST SWAP3 POP POP PUSH1 0x40 PUSH2 0x156A DUP7 DUP3 DUP8 ADD PUSH2 0x1359 JUMP JUMPDEST SWAP2 POP POP SWAP3 POP SWAP3 POP SWAP3 JUMP JUMPDEST PUSH2 0x157D DUP2 PUSH2 0x13F2 JUMP JUMPDEST DUP3 MSTORE POP POP JUMP JUMPDEST PUSH0 PUSH1 0x20 DUP3 ADD SWAP1 POP PUSH2 0x1596 PUSH0 DUP4 ADD DUP5 PUSH2 0x1574 JUMP JUMPDEST SWAP3 SWAP2 POP POP JUMP JUMPDEST PUSH2 0x15A5 DUP2 PUSH2 0x133A JUMP JUMPDEST DUP3 MSTORE POP POP JUMP JUMPDEST PUSH0 PUSH1 0x20 DUP3 ADD SWAP1 POP PUSH2 0x15BE PUSH0 DUP4 ADD DUP5 PUSH2 0x159C JUMP JUMPDEST SWAP3 SWAP2 POP POP JUMP JUMPDEST PUSH0 DUP2 MLOAD SWAP1 POP PUSH2 0x15D2 DUP2 PUSH2 0x1310 JUMP JUMPDEST SWAP3 SWAP2 POP POP JUMP JUMPDEST PUSH0 PUSH1 0x20 DUP3 DUP5 SUB SLT ISZERO PUSH2 0x15ED JUMPI PUSH2 0x15EC PUSH2 0x12DC JUMP JUMPDEST JUMPDEST PUSH0 PUSH2 0x15FA DUP5 DUP3 DUP6 ADD PUSH2 0x15C4 JUMP JUMPDEST SWAP2 POP POP SWAP3 SWAP2 POP POP JUMP JUMPDEST PUSH0 DUP3 DUP3 MSTORE PUSH1 0x20 DUP3 ADD SWAP1 POP SWAP3 SWAP2 POP POP JUMP JUMPDEST PUSH32 0x596F75277265206E6F7420746865206F776E6572206F6620746865204E46542E PUSH0 DUP3 ADD MSTORE POP JUMP JUMPDEST PUSH0 PUSH2 0x1647 PUSH1 0x20 DUP4 PUSH2 0x1603 JUMP JUMPDEST SWAP2 POP PUSH2 0x1652 DUP3 PUSH2 0x1613 JUMP JUMPDEST PUSH1 0x20 DUP3 ADD SWAP1 POP SWAP2 SWAP1 POP JUMP JUMPDEST PUSH0 PUSH1 0x20 DUP3 ADD SWAP1 POP DUP2 DUP2 SUB PUSH0 DUP4 ADD MSTORE PUSH2 0x1674 DUP2 PUSH2 0x163B JUMP JUMPDEST SWAP1 POP SWAP2 SWAP1 POP JUMP JUMPDEST PUSH2 0x1684 DUP2 PUSH2 0x12FF JUMP JUMPDEST DUP3 MSTORE POP POP JUMP JUMPDEST PUSH0 PUSH1 0x40 DUP3 ADD SWAP1 POP PUSH2 0x169D PUSH0 DUP4 ADD DUP6 PUSH2 0x167B JUMP JUMPDEST PUSH2 0x16AA PUSH1 0x20 DUP4 ADD DUP5 PUSH2 0x167B JUMP JUMPDEST SWAP4 SWAP3 POP POP POP JUMP JUMPDEST PUSH2 0x16BA DUP2 PUSH2 0x13F2 JUMP JUMPDEST DUP2 EQ PUSH2 0x16C4 JUMPI PUSH0 DUP1 REVERT JUMPDEST POP JUMP JUMPDEST PUSH0 DUP2 MLOAD SWAP1 POP PUSH2 0x16D5 DUP2 PUSH2 0x16B1 JUMP JUMPDEST SWAP3 SWAP2 POP POP JUMP JUMPDEST PUSH0 PUSH1 0x20 DUP3 DUP5 SUB SLT ISZERO PUSH2 0x16F0 JUMPI PUSH2 0x16EF PUSH2 0x12DC JUMP JUMPDEST JUMPDEST PUSH0 PUSH2 0x16FD DUP5 DUP3 DUP6 ADD PUSH2 0x16C7 JUMP JUMPDEST SWAP2 POP POP SWAP3 SWAP2 POP POP JUMP JUMPDEST PUSH32 0x436F6E74726163742069736E277420617070726F7665642E0000000000000000 PUSH0 DUP3 ADD MSTORE POP JUMP JUMPDEST PUSH0 PUSH2 0x173A PUSH1 0x18 DUP4 PUSH2 0x1603 JUMP JUMPDEST SWAP2 POP PUSH2 0x1745 DUP3 PUSH2 0x1706 JUMP JUMPDEST PUSH1 0x20 DUP3 ADD SWAP1 POP SWAP2 SWAP1 POP JUMP JUMPDEST PUSH0 PUSH1 0x20 DUP3 ADD SWAP1 POP DUP2 DUP2 SUB PUSH0 DUP4 ADD MSTORE PUSH2 0x1767 DUP2 PUSH2 0x172E JUMP JUMPDEST SWAP1 POP SWAP2 SWAP1 POP JUMP JUMPDEST PUSH32 0x4E46542069736E2774206C697374656420666F722073616C652E000000000000 PUSH0 DUP3 ADD MSTORE POP JUMP JUMPDEST PUSH0 PUSH2 0x17A2 PUSH1 0x1A DUP4 PUSH2 0x1603 JUMP JUMPDEST SWAP2 POP PUSH2 0x17AD DUP3 PUSH2 0x176E JUMP JUMPDEST PUSH1 0x20 DUP3 ADD SWAP1 POP SWAP2 SWAP1 POP JUMP JUMPDEST PUSH0 PUSH1 0x20 DUP3 ADD SWAP1 POP DUP2 DUP2 SUB PUSH0 DUP4 ADD MSTORE PUSH2 0x17CF DUP2 PUSH2 0x1796 JUMP JUMPDEST SWAP1 POP SWAP2 SWAP1 POP JUMP JUMPDEST PUSH32 0x4E487B7100000000000000000000000000000000000000000000000000000000 PUSH0 MSTORE PUSH1 0x41 PUSH1 0x4 MSTORE PUSH1 0x24 PUSH0 REVERT JUMPDEST PUSH32 0x4E487B7100000000000000000000000000000000000000000000000000000000 PUSH0 MSTORE PUSH1 0x32 PUSH1 0x4 MSTORE PUSH1 0x24 PUSH0 REVERT JUMPDEST PUSH32 0x5072696365206D7573742062652067726561746572207468616E7420302E0000 PUSH0 DUP3 ADD MSTORE POP JUMP JUMPDEST PUSH0 PUSH2 0x1864 PUSH1 0x1E DUP4 PUSH2 0x1603 JUMP JUMPDEST SWAP2 POP PUSH2 0x186F DUP3 PUSH2 0x1830 JUMP JUMPDEST PUSH1 0x20 DUP3 ADD SWAP1 POP SWAP2 SWAP1 POP JUMP JUMPDEST PUSH0 PUSH1 0x20 DUP3 ADD SWAP1 POP DUP2 DUP2 SUB PUSH0 DUP4 ADD MSTORE PUSH2 0x1891 DUP2 PUSH2 0x1858 JUMP JUMPDEST SWAP1 POP SWAP2 SWAP1 POP JUMP JUMPDEST PUSH0 PUSH1 0x60 DUP3 ADD SWAP1 POP PUSH2 0x18AB PUSH0 DUP4 ADD DUP7 PUSH2 0x167B JUMP JUMPDEST PUSH2 0x18B8 PUSH1 0x20 DUP4 ADD DUP6 PUSH2 0x167B JUMP JUMPDEST PUSH2 0x18C5 PUSH1 0x40 DUP4 ADD DUP5 PUSH2 0x159C JUMP JUMPDEST SWAP5 SWAP4 POP POP POP POP JUMP JUMPDEST PUSH32 0x5061796D656E7420666F72204E4654206661696C65642E000000000000000000 PUSH0 DUP3 ADD MSTORE POP JUMP JUMPDEST PUSH0 PUSH2 0x1901 PUSH1 0x17 DUP4 PUSH2 0x1603 JUMP JUMPDEST SWAP2 POP PUSH2 0x190C DUP3 PUSH2 0x18CD JUMP JUMPDEST PUSH1 0x20 DUP3 ADD SWAP1 POP SWAP2 SWAP1 POP JUMP JUMPDEST PUSH0 PUSH1 0x20 DUP3 ADD SWAP1 POP DUP2 DUP2 SUB PUSH0 DUP4 ADD MSTORE PUSH2 0x192E DUP2 PUSH2 0x18F5 JUMP JUMPDEST SWAP1 POP SWAP2 SWAP1 POP JUMP INVALID LOG2 PUSH5 0x6970667358 0x22 SLT KECCAK256 DUP14 MSIZE DUP1 PUSH11 0xF456FC78260D3803EBEB7C EXP 0x23 0x22 0xC1 PUSH13 0xF1A632C77F6628479A4E03F964 PUSH20 0x6F6C634300081A00330000000000000000000000 "
				},
				"gasEstimates": {
					"creation": {
						"codeDepositCost": "1301400",
						"executionCost": "infinite",
						"totalCost": "infinite"
					},
					"external": {
						"buy(address,uint256)": "infinite",
						"getAll()": "infinite",
						"isListing(address,uint256)": "3189",
						"sell(address,uint256,uint256)": "infinite",
						"unlist(address,uint256)": "infinite"
					}
				},
				"methodIdentifiers": {
					"buy(address,uint256)": "cce7ec13",
					"getAll()": "53ed5143",
					"isListing(address,uint256)": "d3398fb5",
					"sell(address,uint256,uint256)": "6a272462",
					"unlist(address,uint256)": "49c83e86"
				}
			},
			"storageLayout": {
				"storage": [
					{
						"astId": 205,
						"contract": "NFTMarket.sol:RaiGallery",
						"label": "_status",
						"offset": 0,
						"slot": "0",
						"type": "t_uint256"
					},
					{
						"astId": 337,
						"contract": "NFTMarket.sol:RaiGallery",
						"label": "_allNfts",
						"offset": 0,
						"slot": "1",
						"type": "t_array(t_struct(NftIndex)333_storage)dyn_storage"
					},
					{
						"astId": 340,
						"contract": "NFTMarket.sol:RaiGallery",
						"label": "_payment",
						"offset": 0,
						"slot": "2",
						"type": "t_contract(IERC20)77"
					},
					{
						"astId": 347,
						"contract": "NFTMarket.sol:RaiGallery",
						"label": "_listedNfts",
						"offset": 0,
						"slot": "3",
						"type": "t_mapping(t_address,t_mapping(t_uint256,t_struct(NftItem)328_storage))"
					},
					{
						"astId": 353,
						"contract": "NFTMarket.sol:RaiGallery",
						"label": "_listedFlags",
						"offset": 0,
						"slot": "4",
						"type": "t_mapping(t_address,t_mapping(t_uint256,t_bool))"
					}
				],
				"types": {
					"t_address": {
						"encoding": "inplace",
						"label": "address",
						"numberOfBytes": "20"
					},
					"t_array(t_struct(NftIndex)333_storage)dyn_storage": {
						"base": "t_struct(NftIndex)333_storage",
						"encoding": "dynamic_array",
						"label": "struct RaiGallery.NftIndex[]",
						"numberOfBytes": "32"
					},
					"t_bool": {
						"encoding": "inplace",
						"label": "bool",
						"numberOfBytes": "1"
					},
					"t_contract(IERC20)77": {
						"encoding": "inplace",
						"label": "contract IERC20",
						"numberOfBytes": "20"
					},
					"t_mapping(t_address,t_mapping(t_uint256,t_bool))": {
						"encoding": "mapping",
						"key": "t_address",
						"label": "mapping(address => mapping(uint256 => bool))",
						"numberOfBytes": "32",
						"value": "t_mapping(t_uint256,t_bool)"
					},
					"t_mapping(t_address,t_mapping(t_uint256,t_struct(NftItem)328_storage))": {
						"encoding": "mapping",
						"key": "t_address",
						"label": "mapping(address => mapping(uint256 => struct RaiGallery.NftItem))",
						"numberOfBytes": "32",
						"value": "t_mapping(t_uint256,t_struct(NftItem)328_storage)"
					},
					"t_mapping(t_uint256,t_bool)": {
						"encoding": "mapping",
						"key": "t_uint256",
						"label": "mapping(uint256 => bool)",
						"numberOfBytes": "32",
						"value": "t_bool"
					},
					"t_mapping(t_uint256,t_struct(NftItem)328_storage)": {
						"encoding": "mapping",
						"key": "t_uint256",
						"label": "mapping(uint256 => struct RaiGallery.NftItem)",
						"numberOfBytes": "32",
						"value": "t_struct(NftItem)328_storage"
					},
					"t_struct(NftIndex)333_storage": {
						"encoding": "inplace",
						"label": "struct RaiGallery.NftIndex",
						"members": [
							{
								"astId": 330,
								"contract": "NFTMarket.sol:RaiGallery",
								"label": "nftContract",
								"offset": 0,
								"slot": "0",
								"type": "t_address"
							},
							{
								"astId": 332,
								"contract": "NFTMarket.sol:RaiGallery",
								"label": "tokenId",
								"offset": 0,
								"slot": "1",
								"type": "t_uint256"
							}
						],
						"numberOfBytes": "64"
					},
					"t_struct(NftItem)328_storage": {
						"encoding": "inplace",
						"label": "struct RaiGallery.NftItem",
						"members": [
							{
								"astId": 317,
								"contract": "NFTMarket.sol:RaiGallery",
								"label": "seller",
								"offset": 0,
								"slot": "0",
								"type": "t_address"
							},
							{
								"astId": 319,
								"contract": "NFTMarket.sol:RaiGallery",
								"label": "nftContract",
								"offset": 0,
								"slot": "1",
								"type": "t_address"
							},
							{
								"astId": 321,
								"contract": "NFTMarket.sol:RaiGallery",
								"label": "tokenId",
								"offset": 0,
								"slot": "2",
								"type": "t_uint256"
							},
							{
								"astId": 323,
								"contract": "NFTMarket.sol:RaiGallery",
								"label": "price",
								"offset": 0,
								"slot": "3",
								"type": "t_uint256"
							},
							{
								"astId": 325,
								"contract": "NFTMarket.sol:RaiGallery",
								"label": "listedAt",
								"offset": 0,
								"slot": "4",
								"type": "t_uint256"
							},
							{
								"astId": 327,
								"contract": "NFTMarket.sol:RaiGallery",
								"label": "listing",
								"offset": 0,
								"slot": "5",
								"type": "t_bool"
							}
						],
						"numberOfBytes": "192"
					},
					"t_uint256": {
						"encoding": "inplace",
						"label": "uint256",
						"numberOfBytes": "32"
					}
				}
			},
			"userdoc": {
				"kind": "user",
				"methods": {},
				"version": 1
			}
		}
	}
}