{
	"NFTMarket.sol": {
		"NFTMarket": {
			"abi": [
				{
					"anonymous": false,
					"inputs": [
						{
							"indexed": true,
							"internalType": "address",
							"name": "seller",
							"type": "address"
						},
						{
							"indexed": true,
							"internalType": "address",
							"name": "nftAddr",
							"type": "address"
						},
						{
							"indexed": true,
							"internalType": "uint256",
							"name": "tokenId",
							"type": "uint256"
						},
						{
							"indexed": false,
							"internalType": "uint256",
							"name": "price",
							"type": "uint256"
						}
					],
					"name": "List",
					"type": "event"
				},
				{
					"anonymous": false,
					"inputs": [
						{
							"indexed": true,
							"internalType": "address",
							"name": "buyer",
							"type": "address"
						},
						{
							"indexed": true,
							"internalType": "address",
							"name": "nftAddr",
							"type": "address"
						},
						{
							"indexed": true,
							"internalType": "uint256",
							"name": "tokenId",
							"type": "uint256"
						},
						{
							"indexed": false,
							"internalType": "uint256",
							"name": "price",
							"type": "uint256"
						}
					],
					"name": "Purchase",
					"type": "event"
				},
				{
					"anonymous": false,
					"inputs": [
						{
							"indexed": true,
							"internalType": "address",
							"name": "seller",
							"type": "address"
						},
						{
							"indexed": true,
							"internalType": "address",
							"name": "nftAddr",
							"type": "address"
						},
						{
							"indexed": true,
							"internalType": "uint256",
							"name": "tokenId",
							"type": "uint256"
						}
					],
					"name": "Revoke",
					"type": "event"
				},
				{
					"anonymous": false,
					"inputs": [
						{
							"indexed": true,
							"internalType": "address",
							"name": "seller",
							"type": "address"
						},
						{
							"indexed": true,
							"internalType": "address",
							"name": "nftAddr",
							"type": "address"
						},
						{
							"indexed": true,
							"internalType": "uint256",
							"name": "tokenId",
							"type": "uint256"
						},
						{
							"indexed": false,
							"internalType": "uint256",
							"name": "newPrice",
							"type": "uint256"
						}
					],
					"name": "Update",
					"type": "event"
				},
				{
					"stateMutability": "payable",
					"type": "fallback"
				},
				{
					"inputs": [
						{
							"internalType": "address",
							"name": "_nftAddr",
							"type": "address"
						},
						{
							"internalType": "uint256",
							"name": "_tokenId",
							"type": "uint256"
						},
						{
							"internalType": "uint256",
							"name": "_price",
							"type": "uint256"
						}
					],
					"name": "list",
					"outputs": [],
					"stateMutability": "payable",
					"type": "function"
				},
				{
					"inputs": [
						{
							"internalType": "address",
							"name": "",
							"type": "address"
						},
						{
							"internalType": "uint256",
							"name": "",
							"type": "uint256"
						}
					],
					"name": "nftList",
					"outputs": [
						{
							"internalType": "address",
							"name": "owner",
							"type": "address"
						},
						{
							"internalType": "uint256",
							"name": "price",
							"type": "uint256"
						}
					],
					"stateMutability": "view",
					"type": "function"
				},
				{
					"inputs": [
						{
							"internalType": "address",
							"name": "_nftAddr",
							"type": "address"
						},
						{
							"internalType": "uint256",
							"name": "_tokenId",
							"type": "uint256"
						}
					],
					"name": "purchase",
					"outputs": [],
					"stateMutability": "payable",
					"type": "function"
				},
				{
					"inputs": [
						{
							"internalType": "address",
							"name": "_nftAddr",
							"type": "address"
						},
						{
							"internalType": "uint256",
							"name": "_tokenId",
							"type": "uint256"
						}
					],
					"name": "revoke",
					"outputs": [],
					"stateMutability": "nonpayable",
					"type": "function"
				},
				{
					"inputs": [
						{
							"internalType": "address",
							"name": "_nftAddr",
							"type": "address"
						},
						{
							"internalType": "uint256",
							"name": "_tokenId",
							"type": "uint256"
						},
						{
							"internalType": "uint256",
							"name": "_newPrice",
							"type": "uint256"
						}
					],
					"name": "update",
					"outputs": [],
					"stateMutability": "nonpayable",
					"type": "function"
				},
				{
					"stateMutability": "payable",
					"type": "receive"
				}
			],
			"devdoc": {
				"kind": "dev",
				"methods": {},
				"version": 1
			},
			"evm": {
				"assembly": "    /* \"NFTMarket.sol\":215:4510  contract NFTMarket {... */\n  mstore(0x40, 0x80)\n  callvalue\n  dup1\n  iszero\n  tag_1\n  jumpi\n  0x00\n  dup1\n  revert\ntag_1:\n  pop\n  dataSize(sub_0)\n  dup1\n  dataOffset(sub_0)\n  0x00\n  codecopy\n  0x00\n  return\nstop\n\nsub_0: assembly {\n        /* \"NFTMarket.sol\":215:4510  contract NFTMarket {... */\n      mstore(0x40, 0x80)\n      jumpi(tag_1, lt(calldatasize, 0x04))\n      shr(0xe0, calldataload(0x00))\n      dup1\n      0x8de93222\n      eq\n      tag_3\n      jumpi\n      dup1\n      0xba5f4fb2\n      eq\n      tag_4\n      jumpi\n      dup1\n      0xd09b6d43\n      eq\n      tag_5\n      jumpi\n      dup1\n      0xdda342bb\n      eq\n      tag_6\n      jumpi\n      dup1\n      0xeac449d9\n      eq\n      tag_7\n      jumpi\n      jump(tag_2)\n    tag_1:\n      jumpi(tag_2, calldatasize)\n      stop\n    tag_2:\n      stop\n        /* \"NFTMarket.sol\":2102:3048  function purchase(address _nftAddr, uint256 _tokenId) public payable {... */\n    tag_3:\n      tag_12\n      0x04\n      dup1\n      calldatasize\n      sub\n      dup2\n      add\n      swap1\n      tag_13\n      swap2\n      swap1\n      tag_14\n      jump\t// in\n    tag_13:\n      tag_15\n      jump\t// in\n    tag_12:\n      stop\n        /* \"NFTMarket.sol\":953:1013  mapping(address => mapping(uint256 => Order)) public nftList */\n    tag_4:\n      callvalue\n      dup1\n      iszero\n      tag_16\n      jumpi\n      0x00\n      dup1\n      revert\n    tag_16:\n      pop\n      tag_17\n      0x04\n      dup1\n      calldatasize\n      sub\n      dup2\n      add\n      swap1\n      tag_18\n      swap2\n      swap1\n      tag_14\n      jump\t// in\n    tag_18:\n      tag_19\n      jump\t// in\n    tag_17:\n      mload(0x40)\n      tag_20\n      swap3\n      swap2\n      swap1\n      tag_21\n      jump\t// in\n    tag_20:\n      mload(0x40)\n      dup1\n      swap2\n      sub\n      swap1\n      return\n        /* \"NFTMarket.sol\":3809:4507  function update(... */\n    tag_5:\n      callvalue\n      dup1\n      iszero\n      tag_22\n      jumpi\n      0x00\n      dup1\n      revert\n    tag_22:\n      pop\n      tag_23\n      0x04\n      dup1\n      calldatasize\n      sub\n      dup2\n      add\n      swap1\n      tag_24\n      swap2\n      swap1\n      tag_25\n      jump\t// in\n    tag_24:\n      tag_26\n      jump\t// in\n    tag_23:\n      stop\n        /* \"NFTMarket.sol\":1321:1991  function list(address _nftAddr, uint256 _tokenId, uint256 _price) public payable {... */\n    tag_6:\n      tag_27\n      0x04\n      dup1\n      calldatasize\n      sub\n      dup2\n      add\n      swap1\n      tag_28\n      swap2\n      swap1\n      tag_25\n      jump\t// in\n    tag_28:\n      tag_29\n      jump\t// in\n    tag_27:\n      stop\n        /* \"NFTMarket.sol\":3093:3754  function revoke(address _nftAddr, uint256 _tokenId) public {... */\n    tag_7:\n      callvalue\n      dup1\n      iszero\n      tag_30\n      jumpi\n      0x00\n      dup1\n      revert\n    tag_30:\n      pop\n      tag_31\n      0x04\n      dup1\n      calldatasize\n      sub\n      dup2\n      add\n      swap1\n      tag_32\n      swap2\n      swap1\n      tag_14\n      jump\t// in\n    tag_32:\n      tag_33\n      jump\t// in\n    tag_31:\n      stop\n        /* \"NFTMarket.sol\":2102:3048  function purchase(address _nftAddr, uint256 _tokenId) public payable {... */\n    tag_15:\n        /* \"NFTMarket.sol\":2182:2202  Order storage _order */\n      0x00\n        /* \"NFTMarket.sol\":2205:2212  nftList */\n      dup1\n        /* \"NFTMarket.sol\":2205:2222  nftList[_nftAddr] */\n      0x00\n        /* \"NFTMarket.sol\":2213:2221  _nftAddr */\n      dup5\n        /* \"NFTMarket.sol\":2205:2222  nftList[_nftAddr] */\n      0xffffffffffffffffffffffffffffffffffffffff\n      and\n      0xffffffffffffffffffffffffffffffffffffffff\n      and\n      dup2\n      mstore\n      0x20\n      add\n      swap1\n      dup2\n      mstore\n      0x20\n      add\n      0x00\n      keccak256\n        /* \"NFTMarket.sol\":2205:2232  nftList[_nftAddr][_tokenId] */\n      0x00\n        /* \"NFTMarket.sol\":2223:2231  _tokenId */\n      dup4\n        /* \"NFTMarket.sol\":2205:2232  nftList[_nftAddr][_tokenId] */\n      dup2\n      mstore\n      0x20\n      add\n      swap1\n      dup2\n      mstore\n      0x20\n      add\n      0x00\n      keccak256\n        /* \"NFTMarket.sol\":2182:2232  Order storage _order = nftList[_nftAddr][_tokenId] */\n      swap1\n      pop\n        /* \"NFTMarket.sol\":2281:2282  0 */\n      0x00\n        /* \"NFTMarket.sol\":2266:2272  _order */\n      dup2\n        /* \"NFTMarket.sol\":2266:2278  _order.price */\n      0x01\n      add\n      sload\n        /* \"NFTMarket.sol\":2266:2282  _order.price > 0 */\n      gt\n        /* \"NFTMarket.sol\":2258:2300  require(_order.price > 0, \"Invalid Price\") */\n      tag_35\n      jumpi\n      mload(0x40)\n      0x08c379a000000000000000000000000000000000000000000000000000000000\n      dup2\n      mstore\n      0x04\n      add\n      tag_36\n      swap1\n      tag_37\n      jump\t// in\n    tag_36:\n      mload(0x40)\n      dup1\n      swap2\n      sub\n      swap1\n      revert\n    tag_35:\n        /* \"NFTMarket.sol\":2352:2358  _order */\n      dup1\n        /* \"NFTMarket.sol\":2352:2364  _order.price */\n      0x01\n      add\n      sload\n        /* \"NFTMarket.sol\":2339:2348  msg.value */\n      callvalue\n        /* \"NFTMarket.sol\":2339:2364  msg.value >= _order.price */\n      lt\n      iszero\n        /* \"NFTMarket.sol\":2331:2383  require(msg.value >= _order.price, \"Increase price\") */\n      tag_38\n      jumpi\n      mload(0x40)\n      0x08c379a000000000000000000000000000000000000000000000000000000000\n      dup2\n      mstore\n      0x04\n      add\n      tag_39\n      swap1\n      tag_40\n      jump\t// in\n    tag_39:\n      mload(0x40)\n      dup1\n      swap2\n      sub\n      swap1\n      revert\n    tag_38:\n        /* \"NFTMarket.sol\":2466:2478  IERC721 _nft */\n      0x00\n        /* \"NFTMarket.sol\":2489:2497  _nftAddr */\n      dup4\n        /* \"NFTMarket.sol\":2466:2498  IERC721 _nft = IERC721(_nftAddr) */\n      swap1\n      pop\n        /* \"NFTMarket.sol\":2551:2555  this */\n      address\n        /* \"NFTMarket.sol\":2517:2556  _nft.ownerOf(_tokenId) == address(this) */\n      0xffffffffffffffffffffffffffffffffffffffff\n      and\n        /* \"NFTMarket.sol\":2517:2521  _nft */\n      dup2\n        /* \"NFTMarket.sol\":2517:2529  _nft.ownerOf */\n      0xffffffffffffffffffffffffffffffffffffffff\n      and\n      0x6352211e\n        /* \"NFTMarket.sol\":2530:2538  _tokenId */\n      dup6\n        /* \"NFTMarket.sol\":2517:2539  _nft.ownerOf(_tokenId) */\n      mload(0x40)\n      dup3\n      0xffffffff\n      and\n      0xe0\n      shl\n      dup2\n      mstore\n      0x04\n      add\n      tag_41\n      swap2\n      swap1\n      tag_42\n      jump\t// in\n    tag_41:\n      0x20\n      mload(0x40)\n      dup1\n      dup4\n      sub\n      dup2\n      dup7\n      gas\n      staticcall\n      iszero\n      dup1\n      iszero\n      tag_44\n      jumpi\n      returndatasize\n      0x00\n      dup1\n      returndatacopy\n      revert(0x00, returndatasize)\n    tag_44:\n      pop\n      pop\n      pop\n      pop\n      mload(0x40)\n      returndatasize\n      not(0x1f)\n      0x1f\n      dup3\n      add\n      and\n      dup3\n      add\n      dup1\n      0x40\n      mstore\n      pop\n      dup2\n      add\n      swap1\n      tag_45\n      swap2\n      swap1\n      tag_46\n      jump\t// in\n    tag_45:\n        /* \"NFTMarket.sol\":2517:2556  _nft.ownerOf(_tokenId) == address(this) */\n      0xffffffffffffffffffffffffffffffffffffffff\n      and\n      eq\n        /* \"NFTMarket.sol\":2509:2574  require(_nft.ownerOf(_tokenId) == address(this), \"Invalid Order\") */\n      tag_47\n      jumpi\n      mload(0x40)\n      0x08c379a000000000000000000000000000000000000000000000000000000000\n      dup2\n      mstore\n      0x04\n      add\n      tag_48\n      swap1\n      tag_49\n      jump\t// in\n    tag_48:\n      mload(0x40)\n      dup1\n      swap2\n      sub\n      swap1\n      revert\n    tag_47:\n        /* \"NFTMarket.sol\":2637:2641  _nft */\n      dup1\n        /* \"NFTMarket.sol\":2637:2658  _nft.safeTransferFrom */\n      0xffffffffffffffffffffffffffffffffffffffff\n      and\n      0x42842e0e\n        /* \"NFTMarket.sol\":2667:2671  this */\n      address\n        /* \"NFTMarket.sol\":2674:2684  msg.sender */\n      caller\n        /* \"NFTMarket.sol\":2686:2694  _tokenId */\n      dup7\n        /* \"NFTMarket.sol\":2637:2695  _nft.safeTransferFrom(address(this), msg.sender, _tokenId) */\n      mload(0x40)\n      dup5\n      0xffffffff\n      and\n      0xe0\n      shl\n      dup2\n      mstore\n      0x04\n      add\n      tag_50\n      swap4\n      swap3\n      swap2\n      swap1\n      tag_51\n      jump\t// in\n    tag_50:\n      0x00\n      mload(0x40)\n      dup1\n      dup4\n      sub\n      dup2\n      0x00\n      dup8\n      dup1\n      extcodesize\n      iszero\n      dup1\n      iszero\n      tag_52\n      jumpi\n      0x00\n      dup1\n      revert\n    tag_52:\n      pop\n      gas\n      call\n      iszero\n      dup1\n      iszero\n      tag_54\n      jumpi\n      returndatasize\n      0x00\n      dup1\n      returndatacopy\n      revert(0x00, returndatasize)\n    tag_54:\n      pop\n      pop\n      pop\n      pop\n        /* \"NFTMarket.sol\":2772:2778  _order */\n      dup2\n        /* \"NFTMarket.sol\":2772:2784  _order.owner */\n      0x00\n      add\n      0x00\n      swap1\n      sload\n      swap1\n      0x0100\n      exp\n      swap1\n      div\n      0xffffffffffffffffffffffffffffffffffffffff\n      and\n        /* \"NFTMarket.sol\":2764:2794  payable(_order.owner).transfer */\n      0xffffffffffffffffffffffffffffffffffffffff\n      and\n        /* \"NFTMarket.sol\":2764:2808  payable(_order.owner).transfer(_order.price) */\n      0x08fc\n        /* \"NFTMarket.sol\":2795:2801  _order */\n      dup4\n        /* \"NFTMarket.sol\":2795:2807  _order.price */\n      0x01\n      add\n      sload\n        /* \"NFTMarket.sol\":2764:2808  payable(_order.owner).transfer(_order.price) */\n      swap1\n      dup2\n      iszero\n      mul\n      swap1\n      mload(0x40)\n      0x00\n      mload(0x40)\n      dup1\n      dup4\n      sub\n      dup2\n      dup6\n      dup9\n      dup9\n      call\n      swap4\n      pop\n      pop\n      pop\n      pop\n      iszero\n      dup1\n      iszero\n      tag_56\n      jumpi\n      returndatasize\n      0x00\n      dup1\n      returndatacopy\n      revert(0x00, returndatasize)\n    tag_56:\n      pop\n        /* \"NFTMarket.sol\":2827:2837  msg.sender */\n      caller\n        /* \"NFTMarket.sol\":2819:2847  payable(msg.sender).transfer */\n      0xffffffffffffffffffffffffffffffffffffffff\n      and\n        /* \"NFTMarket.sol\":2819:2873  payable(msg.sender).transfer(msg.value - _order.price) */\n      0x08fc\n        /* \"NFTMarket.sol\":2860:2866  _order */\n      dup4\n        /* \"NFTMarket.sol\":2860:2872  _order.price */\n      0x01\n      add\n      sload\n        /* \"NFTMarket.sol\":2848:2857  msg.value */\n      callvalue\n        /* \"NFTMarket.sol\":2848:2872  msg.value - _order.price */\n      tag_57\n      swap2\n      swap1\n      tag_58\n      jump\t// in\n    tag_57:\n        /* \"NFTMarket.sol\":2819:2873  payable(msg.sender).transfer(msg.value - _order.price) */\n      swap1\n      dup2\n      iszero\n      mul\n      swap1\n      mload(0x40)\n      0x00\n      mload(0x40)\n      dup1\n      dup4\n      sub\n      dup2\n      dup6\n      dup9\n      dup9\n      call\n      swap4\n      pop\n      pop\n      pop\n      pop\n      iszero\n      dup1\n      iszero\n      tag_60\n      jumpi\n      returndatasize\n      0x00\n      dup1\n      returndatacopy\n      revert(0x00, returndatasize)\n    tag_60:\n      pop\n        /* \"NFTMarket.sol\":2893:2900  nftList */\n      0x00\n        /* \"NFTMarket.sol\":2893:2910  nftList[_nftAddr] */\n      dup1\n        /* \"NFTMarket.sol\":2901:2909  _nftAddr */\n      dup6\n        /* \"NFTMarket.sol\":2893:2910  nftList[_nftAddr] */\n      0xffffffffffffffffffffffffffffffffffffffff\n      and\n      0xffffffffffffffffffffffffffffffffffffffff\n      and\n      dup2\n      mstore\n      0x20\n      add\n      swap1\n      dup2\n      mstore\n      0x20\n      add\n      0x00\n      keccak256\n        /* \"NFTMarket.sol\":2893:2920  nftList[_nftAddr][_tokenId] */\n      0x00\n        /* \"NFTMarket.sol\":2911:2919  _tokenId */\n      dup5\n        /* \"NFTMarket.sol\":2893:2920  nftList[_nftAddr][_tokenId] */\n      dup2\n      mstore\n      0x20\n      add\n      swap1\n      dup2\n      mstore\n      0x20\n      add\n      0x00\n      keccak256\n      0x00\n        /* \"NFTMarket.sol\":2886:2920  delete nftList[_nftAddr][_tokenId] */\n      dup1\n      dup3\n      add\n      exp(0x0100, 0x00)\n      dup2\n      sload\n      swap1\n      0xffffffffffffffffffffffffffffffffffffffff\n      mul\n      not\n      and\n      swap1\n      sstore\n      0x01\n      dup3\n      add\n      0x00\n      swap1\n      sstore\n      pop\n      pop\n        /* \"NFTMarket.sol\":3017:3025  _tokenId */\n      dup3\n        /* \"NFTMarket.sol\":3007:3015  _nftAddr */\n      dup5\n        /* \"NFTMarket.sol\":2986:3040  Purchase(msg.sender, _nftAddr, _tokenId, _order.price) */\n      0xffffffffffffffffffffffffffffffffffffffff\n      and\n        /* \"NFTMarket.sol\":2995:3005  msg.sender */\n      caller\n        /* \"NFTMarket.sol\":2986:3040  Purchase(msg.sender, _nftAddr, _tokenId, _order.price) */\n      0xffffffffffffffffffffffffffffffffffffffff\n      and\n      0x46661dab58311a6838247afecbee792192b4f27fc8b3e7168c66bc55ec2e404e\n        /* \"NFTMarket.sol\":3027:3033  _order */\n      dup6\n        /* \"NFTMarket.sol\":3027:3039  _order.price */\n      0x01\n      add\n      sload\n        /* \"NFTMarket.sol\":2986:3040  Purchase(msg.sender, _nftAddr, _tokenId, _order.price) */\n      mload(0x40)\n      tag_61\n      swap2\n      swap1\n      tag_42\n      jump\t// in\n    tag_61:\n      mload(0x40)\n      dup1\n      swap2\n      sub\n      swap1\n      log4\n        /* \"NFTMarket.sol\":2171:3048  {... */\n      pop\n      pop\n        /* \"NFTMarket.sol\":2102:3048  function purchase(address _nftAddr, uint256 _tokenId) public payable {... */\n      pop\n      pop\n      jump\t// out\n        /* \"NFTMarket.sol\":953:1013  mapping(address => mapping(uint256 => Order)) public nftList */\n    tag_19:\n      mstore(0x20, 0x00)\n      dup2\n      0x00\n      mstore\n      mstore(0x20, keccak256(0x00, 0x40))\n      dup1\n      0x00\n      mstore\n      keccak256(0x00, 0x40)\n      0x00\n      swap2\n      pop\n      swap2\n      pop\n      pop\n      dup1\n      0x00\n      add\n      0x00\n      swap1\n      sload\n      swap1\n      0x0100\n      exp\n      swap1\n      div\n      0xffffffffffffffffffffffffffffffffffffffff\n      and\n      swap1\n      dup1\n      0x01\n      add\n      sload\n      swap1\n      pop\n      dup3\n      jump\t// out\n        /* \"NFTMarket.sol\":3809:4507  function update(... */\n    tag_26:\n        /* \"NFTMarket.sol\":3952:3953  0 */\n      0x00\n        /* \"NFTMarket.sol\":3940:3949  _newPrice */\n      dup2\n        /* \"NFTMarket.sol\":3940:3953  _newPrice > 0 */\n      gt\n        /* \"NFTMarket.sol\":3932:3971  require(_newPrice > 0, \"Invalid Price\") */\n      tag_63\n      jumpi\n      mload(0x40)\n      0x08c379a000000000000000000000000000000000000000000000000000000000\n      dup2\n      mstore\n      0x04\n      add\n      tag_64\n      swap1\n      tag_37\n      jump\t// in\n    tag_64:\n      mload(0x40)\n      dup1\n      swap2\n      sub\n      swap1\n      revert\n    tag_63:\n        /* \"NFTMarket.sol\":4002:4022  Order storage _order */\n      0x00\n        /* \"NFTMarket.sol\":4025:4032  nftList */\n      dup1\n        /* \"NFTMarket.sol\":4025:4042  nftList[_nftAddr] */\n      0x00\n        /* \"NFTMarket.sol\":4033:4041  _nftAddr */\n      dup6\n        /* \"NFTMarket.sol\":4025:4042  nftList[_nftAddr] */\n      0xffffffffffffffffffffffffffffffffffffffff\n      and\n      0xffffffffffffffffffffffffffffffffffffffff\n      and\n      dup2\n      mstore\n      0x20\n      add\n      swap1\n      dup2\n      mstore\n      0x20\n      add\n      0x00\n      keccak256\n        /* \"NFTMarket.sol\":4025:4052  nftList[_nftAddr][_tokenId] */\n      0x00\n        /* \"NFTMarket.sol\":4043:4051  _tokenId */\n      dup5\n        /* \"NFTMarket.sol\":4025:4052  nftList[_nftAddr][_tokenId] */\n      dup2\n      mstore\n      0x20\n      add\n      swap1\n      dup2\n      mstore\n      0x20\n      add\n      0x00\n      keccak256\n        /* \"NFTMarket.sol\":4002:4052  Order storage _order = nftList[_nftAddr][_tokenId] */\n      swap1\n      pop\n        /* \"NFTMarket.sol\":4102:4112  msg.sender */\n      caller\n        /* \"NFTMarket.sol\":4086:4112  _order.owner == msg.sender */\n      0xffffffffffffffffffffffffffffffffffffffff\n      and\n        /* \"NFTMarket.sol\":4086:4092  _order */\n      dup2\n        /* \"NFTMarket.sol\":4086:4098  _order.owner */\n      0x00\n      add\n      0x00\n      swap1\n      sload\n      swap1\n      0x0100\n      exp\n      swap1\n      div\n      0xffffffffffffffffffffffffffffffffffffffff\n      and\n        /* \"NFTMarket.sol\":4086:4112  _order.owner == msg.sender */\n      0xffffffffffffffffffffffffffffffffffffffff\n      and\n      eq\n        /* \"NFTMarket.sol\":4078:4126  require(_order.owner == msg.sender, \"Not Owner\") */\n      tag_65\n      jumpi\n      mload(0x40)\n      0x08c379a000000000000000000000000000000000000000000000000000000000\n      dup2\n      mstore\n      0x04\n      add\n      tag_66\n      swap1\n      tag_67\n      jump\t// in\n    tag_66:\n      mload(0x40)\n      dup1\n      swap2\n      sub\n      swap1\n      revert\n    tag_65:\n        /* \"NFTMarket.sol\":4209:4221  IERC721 _nft */\n      0x00\n        /* \"NFTMarket.sol\":4232:4240  _nftAddr */\n      dup5\n        /* \"NFTMarket.sol\":4209:4241  IERC721 _nft = IERC721(_nftAddr) */\n      swap1\n      pop\n        /* \"NFTMarket.sol\":4294:4298  this */\n      address\n        /* \"NFTMarket.sol\":4260:4299  _nft.ownerOf(_tokenId) == address(this) */\n      0xffffffffffffffffffffffffffffffffffffffff\n      and\n        /* \"NFTMarket.sol\":4260:4264  _nft */\n      dup2\n        /* \"NFTMarket.sol\":4260:4272  _nft.ownerOf */\n      0xffffffffffffffffffffffffffffffffffffffff\n      and\n      0x6352211e\n        /* \"NFTMarket.sol\":4273:4281  _tokenId */\n      dup7\n        /* \"NFTMarket.sol\":4260:4282  _nft.ownerOf(_tokenId) */\n      mload(0x40)\n      dup3\n      0xffffffff\n      and\n      0xe0\n      shl\n      dup2\n      mstore\n      0x04\n      add\n      tag_68\n      swap2\n      swap1\n      tag_42\n      jump\t// in\n    tag_68:\n      0x20\n      mload(0x40)\n      dup1\n      dup4\n      sub\n      dup2\n      dup7\n      gas\n      staticcall\n      iszero\n      dup1\n      iszero\n      tag_70\n      jumpi\n      returndatasize\n      0x00\n      dup1\n      returndatacopy\n      revert(0x00, returndatasize)\n    tag_70:\n      pop\n      pop\n      pop\n      pop\n      mload(0x40)\n      returndatasize\n      not(0x1f)\n      0x1f\n      dup3\n      add\n      and\n      dup3\n      add\n      dup1\n      0x40\n      mstore\n      pop\n      dup2\n      add\n      swap1\n      tag_71\n      swap2\n      swap1\n      tag_46\n      jump\t// in\n    tag_71:\n        /* \"NFTMarket.sol\":4260:4299  _nft.ownerOf(_tokenId) == address(this) */\n      0xffffffffffffffffffffffffffffffffffffffff\n      and\n      eq\n        /* \"NFTMarket.sol\":4252:4317  require(_nft.ownerOf(_tokenId) == address(this), \"Invalid Order\") */\n      tag_72\n      jumpi\n      mload(0x40)\n      0x08c379a000000000000000000000000000000000000000000000000000000000\n      dup2\n      mstore\n      0x04\n      add\n      tag_73\n      swap1\n      tag_49\n      jump\t// in\n    tag_73:\n      mload(0x40)\n      dup1\n      swap2\n      sub\n      swap1\n      revert\n    tag_72:\n        /* \"NFTMarket.sol\":4392:4401  _newPrice */\n      dup3\n        /* \"NFTMarket.sol\":4377:4383  _order */\n      dup3\n        /* \"NFTMarket.sol\":4377:4389  _order.price */\n      0x01\n      add\n        /* \"NFTMarket.sol\":4377:4401  _order.price = _newPrice */\n      dup2\n      swap1\n      sstore\n      pop\n        /* \"NFTMarket.sol\":4479:4487  _tokenId */\n      dup4\n        /* \"NFTMarket.sol\":4469:4477  _nftAddr */\n      dup6\n        /* \"NFTMarket.sol\":4450:4499  Update(msg.sender, _nftAddr, _tokenId, _newPrice) */\n      0xffffffffffffffffffffffffffffffffffffffff\n      and\n        /* \"NFTMarket.sol\":4457:4467  msg.sender */\n      caller\n        /* \"NFTMarket.sol\":4450:4499  Update(msg.sender, _nftAddr, _tokenId, _newPrice) */\n      0xffffffffffffffffffffffffffffffffffffffff\n      and\n      0xb7f0ca7cd5b24651672216886135b99ff40342bcf549009a4c6fc74f059fb9a0\n        /* \"NFTMarket.sol\":4489:4498  _newPrice */\n      dup7\n        /* \"NFTMarket.sol\":4450:4499  Update(msg.sender, _nftAddr, _tokenId, _newPrice) */\n      mload(0x40)\n      tag_74\n      swap2\n      swap1\n      tag_42\n      jump\t// in\n    tag_74:\n      mload(0x40)\n      dup1\n      swap2\n      sub\n      swap1\n      log4\n        /* \"NFTMarket.sol\":3921:4507  {... */\n      pop\n      pop\n        /* \"NFTMarket.sol\":3809:4507  function update(... */\n      pop\n      pop\n      pop\n      jump\t// out\n        /* \"NFTMarket.sol\":1321:1991  function list(address _nftAddr, uint256 _tokenId, uint256 _price) public payable {... */\n    tag_29:\n        /* \"NFTMarket.sol\":1413:1425  IERC721 _nft */\n      0x00\n        /* \"NFTMarket.sol\":1436:1444  _nftAddr */\n      dup4\n        /* \"NFTMarket.sol\":1413:1445  IERC721 _nft = IERC721(_nftAddr) */\n      swap1\n      pop\n        /* \"NFTMarket.sol\":1537:1541  this */\n      address\n        /* \"NFTMarket.sol\":1499:1542  _nft.getApproved(_tokenId) == address(this) */\n      0xffffffffffffffffffffffffffffffffffffffff\n      and\n        /* \"NFTMarket.sol\":1499:1503  _nft */\n      dup2\n        /* \"NFTMarket.sol\":1499:1515  _nft.getApproved */\n      0xffffffffffffffffffffffffffffffffffffffff\n      and\n      0x081812fc\n        /* \"NFTMarket.sol\":1516:1524  _tokenId */\n      dup6\n        /* \"NFTMarket.sol\":1499:1525  _nft.getApproved(_tokenId) */\n      mload(0x40)\n      dup3\n      0xffffffff\n      and\n      0xe0\n      shl\n      dup2\n      mstore\n      0x04\n      add\n      tag_76\n      swap2\n      swap1\n      tag_42\n      jump\t// in\n    tag_76:\n      0x20\n      mload(0x40)\n      dup1\n      dup4\n      sub\n      dup2\n      dup7\n      gas\n      staticcall\n      iszero\n      dup1\n      iszero\n      tag_78\n      jumpi\n      returndatasize\n      0x00\n      dup1\n      returndatacopy\n      revert(0x00, returndatasize)\n    tag_78:\n      pop\n      pop\n      pop\n      pop\n      mload(0x40)\n      returndatasize\n      not(0x1f)\n      0x1f\n      dup3\n      add\n      and\n      dup3\n      add\n      dup1\n      0x40\n      mstore\n      pop\n      dup2\n      add\n      swap1\n      tag_79\n      swap2\n      swap1\n      tag_46\n      jump\t// in\n    tag_79:\n        /* \"NFTMarket.sol\":1499:1542  _nft.getApproved(_tokenId) == address(this) */\n      0xffffffffffffffffffffffffffffffffffffffff\n      and\n      eq\n        /* \"NFTMarket.sol\":1491:1560  require(_nft.getApproved(_tokenId) == address(this), \"Need Approval\") */\n      tag_80\n      jumpi\n      mload(0x40)\n      0x08c379a000000000000000000000000000000000000000000000000000000000\n      dup2\n      mstore\n      0x04\n      add\n      tag_81\n      swap1\n      tag_82\n      jump\t// in\n    tag_81:\n      mload(0x40)\n      dup1\n      swap2\n      sub\n      swap1\n      revert\n    tag_80:\n        /* \"NFTMarket.sol\":1610:1611  0 */\n      0x00\n        /* \"NFTMarket.sol\":1601:1607  _price */\n      dup3\n        /* \"NFTMarket.sol\":1601:1611  _price > 0 */\n      gt\n        /* \"NFTMarket.sol\":1593:1612  require(_price > 0) */\n      tag_83\n      jumpi\n      0x00\n      dup1\n      revert\n    tag_83:\n        /* \"NFTMarket.sol\":1642:1662  Order storage _order */\n      0x00\n        /* \"NFTMarket.sol\":1665:1672  nftList */\n      dup1\n        /* \"NFTMarket.sol\":1665:1682  nftList[_nftAddr] */\n      0x00\n        /* \"NFTMarket.sol\":1673:1681  _nftAddr */\n      dup7\n        /* \"NFTMarket.sol\":1665:1682  nftList[_nftAddr] */\n      0xffffffffffffffffffffffffffffffffffffffff\n      and\n      0xffffffffffffffffffffffffffffffffffffffff\n      and\n      dup2\n      mstore\n      0x20\n      add\n      swap1\n      dup2\n      mstore\n      0x20\n      add\n      0x00\n      keccak256\n        /* \"NFTMarket.sol\":1665:1692  nftList[_nftAddr][_tokenId] */\n      0x00\n        /* \"NFTMarket.sol\":1683:1691  _tokenId */\n      dup6\n        /* \"NFTMarket.sol\":1665:1692  nftList[_nftAddr][_tokenId] */\n      dup2\n      mstore\n      0x20\n      add\n      swap1\n      dup2\n      mstore\n      0x20\n      add\n      0x00\n      keccak256\n        /* \"NFTMarket.sol\":1642:1692  Order storage _order = nftList[_nftAddr][_tokenId] */\n      swap1\n      pop\n        /* \"NFTMarket.sol\":1747:1757  msg.sender */\n      caller\n        /* \"NFTMarket.sol\":1732:1738  _order */\n      dup2\n        /* \"NFTMarket.sol\":1732:1744  _order.owner */\n      0x00\n      add\n      0x00\n        /* \"NFTMarket.sol\":1732:1757  _order.owner = msg.sender */\n      0x0100\n      exp\n      dup2\n      sload\n      dup2\n      0xffffffffffffffffffffffffffffffffffffffff\n      mul\n      not\n      and\n      swap1\n      dup4\n      0xffffffffffffffffffffffffffffffffffffffff\n      and\n      mul\n      or\n      swap1\n      sstore\n      pop\n        /* \"NFTMarket.sol\":1783:1789  _price */\n      dup3\n        /* \"NFTMarket.sol\":1768:1774  _order */\n      dup2\n        /* \"NFTMarket.sol\":1768:1780  _order.price */\n      0x01\n      add\n        /* \"NFTMarket.sol\":1768:1789  _order.price = _price */\n      dup2\n      swap1\n      sstore\n      pop\n        /* \"NFTMarket.sol\":1834:1838  _nft */\n      dup2\n        /* \"NFTMarket.sol\":1834:1855  _nft.safeTransferFrom */\n      0xffffffffffffffffffffffffffffffffffffffff\n      and\n      0x42842e0e\n        /* \"NFTMarket.sol\":1856:1866  msg.sender */\n      caller\n        /* \"NFTMarket.sol\":1876:1880  this */\n      address\n        /* \"NFTMarket.sol\":1883:1891  _tokenId */\n      dup8\n        /* \"NFTMarket.sol\":1834:1892  _nft.safeTransferFrom(msg.sender, address(this), _tokenId) */\n      mload(0x40)\n      dup5\n      0xffffffff\n      and\n      0xe0\n      shl\n      dup2\n      mstore\n      0x04\n      add\n      tag_84\n      swap4\n      swap3\n      swap2\n      swap1\n      tag_51\n      jump\t// in\n    tag_84:\n      0x00\n      mload(0x40)\n      dup1\n      dup4\n      sub\n      dup2\n      0x00\n      dup8\n      dup1\n      extcodesize\n      iszero\n      dup1\n      iszero\n      tag_85\n      jumpi\n      0x00\n      dup1\n      revert\n    tag_85:\n      pop\n      gas\n      call\n      iszero\n      dup1\n      iszero\n      tag_87\n      jumpi\n      returndatasize\n      0x00\n      dup1\n      returndatacopy\n      revert(0x00, returndatasize)\n    tag_87:\n      pop\n      pop\n      pop\n      pop\n        /* \"NFTMarket.sol\":1966:1974  _tokenId */\n      dup4\n        /* \"NFTMarket.sol\":1956:1964  _nftAddr */\n      dup6\n        /* \"NFTMarket.sol\":1939:1983  List(msg.sender, _nftAddr, _tokenId, _price) */\n      0xffffffffffffffffffffffffffffffffffffffff\n      and\n        /* \"NFTMarket.sol\":1944:1954  msg.sender */\n      caller\n        /* \"NFTMarket.sol\":1939:1983  List(msg.sender, _nftAddr, _tokenId, _price) */\n      0xffffffffffffffffffffffffffffffffffffffff\n      and\n      0xedbdf022944a3291f4b30148903a84720506f48e10478ec5812e5caf30e1fab0\n        /* \"NFTMarket.sol\":1976:1982  _price */\n      dup7\n        /* \"NFTMarket.sol\":1939:1983  List(msg.sender, _nftAddr, _tokenId, _price) */\n      mload(0x40)\n      tag_88\n      swap2\n      swap1\n      tag_42\n      jump\t// in\n    tag_88:\n      mload(0x40)\n      dup1\n      swap2\n      sub\n      swap1\n      log4\n        /* \"NFTMarket.sol\":1402:1991  {... */\n      pop\n      pop\n        /* \"NFTMarket.sol\":1321:1991  function list(address _nftAddr, uint256 _tokenId, uint256 _price) public payable {... */\n      pop\n      pop\n      pop\n      jump\t// out\n        /* \"NFTMarket.sol\":3093:3754  function revoke(address _nftAddr, uint256 _tokenId) public {... */\n    tag_33:\n        /* \"NFTMarket.sol\":3163:3183  Order storage _order */\n      0x00\n        /* \"NFTMarket.sol\":3186:3193  nftList */\n      dup1\n        /* \"NFTMarket.sol\":3186:3203  nftList[_nftAddr] */\n      0x00\n        /* \"NFTMarket.sol\":3194:3202  _nftAddr */\n      dup5\n        /* \"NFTMarket.sol\":3186:3203  nftList[_nftAddr] */\n      0xffffffffffffffffffffffffffffffffffffffff\n      and\n      0xffffffffffffffffffffffffffffffffffffffff\n      and\n      dup2\n      mstore\n      0x20\n      add\n      swap1\n      dup2\n      mstore\n      0x20\n      add\n      0x00\n      keccak256\n        /* \"NFTMarket.sol\":3186:3213  nftList[_nftAddr][_tokenId] */\n      0x00\n        /* \"NFTMarket.sol\":3204:3212  _tokenId */\n      dup4\n        /* \"NFTMarket.sol\":3186:3213  nftList[_nftAddr][_tokenId] */\n      dup2\n      mstore\n      0x20\n      add\n      swap1\n      dup2\n      mstore\n      0x20\n      add\n      0x00\n      keccak256\n        /* \"NFTMarket.sol\":3163:3213  Order storage _order = nftList[_nftAddr][_tokenId] */\n      swap1\n      pop\n        /* \"NFTMarket.sol\":3263:3273  msg.sender */\n      caller\n        /* \"NFTMarket.sol\":3247:3273  _order.owner == msg.sender */\n      0xffffffffffffffffffffffffffffffffffffffff\n      and\n        /* \"NFTMarket.sol\":3247:3253  _order */\n      dup2\n        /* \"NFTMarket.sol\":3247:3259  _order.owner */\n      0x00\n      add\n      0x00\n      swap1\n      sload\n      swap1\n      0x0100\n      exp\n      swap1\n      div\n      0xffffffffffffffffffffffffffffffffffffffff\n      and\n        /* \"NFTMarket.sol\":3247:3273  _order.owner == msg.sender */\n      0xffffffffffffffffffffffffffffffffffffffff\n      and\n      eq\n        /* \"NFTMarket.sol\":3239:3287  require(_order.owner == msg.sender, \"Not Owner\") */\n      tag_90\n      jumpi\n      mload(0x40)\n      0x08c379a000000000000000000000000000000000000000000000000000000000\n      dup2\n      mstore\n      0x04\n      add\n      tag_91\n      swap1\n      tag_67\n      jump\t// in\n    tag_91:\n      mload(0x40)\n      dup1\n      swap2\n      sub\n      swap1\n      revert\n    tag_90:\n        /* \"NFTMarket.sol\":3370:3382  IERC721 _nft */\n      0x00\n        /* \"NFTMarket.sol\":3393:3401  _nftAddr */\n      dup4\n        /* \"NFTMarket.sol\":3370:3402  IERC721 _nft = IERC721(_nftAddr) */\n      swap1\n      pop\n        /* \"NFTMarket.sol\":3455:3459  this */\n      address\n        /* \"NFTMarket.sol\":3421:3460  _nft.ownerOf(_tokenId) == address(this) */\n      0xffffffffffffffffffffffffffffffffffffffff\n      and\n        /* \"NFTMarket.sol\":3421:3425  _nft */\n      dup2\n        /* \"NFTMarket.sol\":3421:3433  _nft.ownerOf */\n      0xffffffffffffffffffffffffffffffffffffffff\n      and\n      0x6352211e\n        /* \"NFTMarket.sol\":3434:3442  _tokenId */\n      dup6\n        /* \"NFTMarket.sol\":3421:3443  _nft.ownerOf(_tokenId) */\n      mload(0x40)\n      dup3\n      0xffffffff\n      and\n      0xe0\n      shl\n      dup2\n      mstore\n      0x04\n      add\n      tag_92\n      swap2\n      swap1\n      tag_42\n      jump\t// in\n    tag_92:\n      0x20\n      mload(0x40)\n      dup1\n      dup4\n      sub\n      dup2\n      dup7\n      gas\n      staticcall\n      iszero\n      dup1\n      iszero\n      tag_94\n      jumpi\n      returndatasize\n      0x00\n      dup1\n      returndatacopy\n      revert(0x00, returndatasize)\n    tag_94:\n      pop\n      pop\n      pop\n      pop\n      mload(0x40)\n      returndatasize\n      not(0x1f)\n      0x1f\n      dup3\n      add\n      and\n      dup3\n      add\n      dup1\n      0x40\n      mstore\n      pop\n      dup2\n      add\n      swap1\n      tag_95\n      swap2\n      swap1\n      tag_46\n      jump\t// in\n    tag_95:\n        /* \"NFTMarket.sol\":3421:3460  _nft.ownerOf(_tokenId) == address(this) */\n      0xffffffffffffffffffffffffffffffffffffffff\n      and\n      eq\n        /* \"NFTMarket.sol\":3413:3478  require(_nft.ownerOf(_tokenId) == address(this), \"Invalid Order\") */\n      tag_96\n      jumpi\n      mload(0x40)\n      0x08c379a000000000000000000000000000000000000000000000000000000000\n      dup2\n      mstore\n      0x04\n      add\n      tag_97\n      swap1\n      tag_49\n      jump\t// in\n    tag_97:\n      mload(0x40)\n      dup1\n      swap2\n      sub\n      swap1\n      revert\n    tag_96:\n        /* \"NFTMarket.sol\":3541:3545  _nft */\n      dup1\n        /* \"NFTMarket.sol\":3541:3562  _nft.safeTransferFrom */\n      0xffffffffffffffffffffffffffffffffffffffff\n      and\n      0x42842e0e\n        /* \"NFTMarket.sol\":3571:3575  this */\n      address\n        /* \"NFTMarket.sol\":3578:3588  msg.sender */\n      caller\n        /* \"NFTMarket.sol\":3590:3598  _tokenId */\n      dup7\n        /* \"NFTMarket.sol\":3541:3599  _nft.safeTransferFrom(address(this), msg.sender, _tokenId) */\n      mload(0x40)\n      dup5\n      0xffffffff\n      and\n      0xe0\n      shl\n      dup2\n      mstore\n      0x04\n      add\n      tag_98\n      swap4\n      swap3\n      swap2\n      swap1\n      tag_51\n      jump\t// in\n    tag_98:\n      0x00\n      mload(0x40)\n      dup1\n      dup4\n      sub\n      dup2\n      0x00\n      dup8\n      dup1\n      extcodesize\n      iszero\n      dup1\n      iszero\n      tag_99\n      jumpi\n      0x00\n      dup1\n      revert\n    tag_99:\n      pop\n      gas\n      call\n      iszero\n      dup1\n      iszero\n      tag_101\n      jumpi\n      returndatasize\n      0x00\n      dup1\n      returndatacopy\n      revert(0x00, returndatasize)\n    tag_101:\n      pop\n      pop\n      pop\n      pop\n        /* \"NFTMarket.sol\":3617:3624  nftList */\n      0x00\n        /* \"NFTMarket.sol\":3617:3634  nftList[_nftAddr] */\n      dup1\n        /* \"NFTMarket.sol\":3625:3633  _nftAddr */\n      dup6\n        /* \"NFTMarket.sol\":3617:3634  nftList[_nftAddr] */\n      0xffffffffffffffffffffffffffffffffffffffff\n      and\n      0xffffffffffffffffffffffffffffffffffffffff\n      and\n      dup2\n      mstore\n      0x20\n      add\n      swap1\n      dup2\n      mstore\n      0x20\n      add\n      0x00\n      keccak256\n        /* \"NFTMarket.sol\":3617:3644  nftList[_nftAddr][_tokenId] */\n      0x00\n        /* \"NFTMarket.sol\":3635:3643  _tokenId */\n      dup5\n        /* \"NFTMarket.sol\":3617:3644  nftList[_nftAddr][_tokenId] */\n      dup2\n      mstore\n      0x20\n      add\n      swap1\n      dup2\n      mstore\n      0x20\n      add\n      0x00\n      keccak256\n      0x00\n        /* \"NFTMarket.sol\":3610:3644  delete nftList[_nftAddr][_tokenId] */\n      dup1\n      dup3\n      add\n      exp(0x0100, 0x00)\n      dup2\n      sload\n      swap1\n      0xffffffffffffffffffffffffffffffffffffffff\n      mul\n      not\n      and\n      swap1\n      sstore\n      0x01\n      dup3\n      add\n      0x00\n      swap1\n      sstore\n      pop\n      pop\n        /* \"NFTMarket.sol\":3737:3745  _tokenId */\n      dup3\n        /* \"NFTMarket.sol\":3727:3735  _nftAddr */\n      dup5\n        /* \"NFTMarket.sol\":3708:3746  Revoke(msg.sender, _nftAddr, _tokenId) */\n      0xffffffffffffffffffffffffffffffffffffffff\n      and\n        /* \"NFTMarket.sol\":3715:3725  msg.sender */\n      caller\n        /* \"NFTMarket.sol\":3708:3746  Revoke(msg.sender, _nftAddr, _tokenId) */\n      0xffffffffffffffffffffffffffffffffffffffff\n      and\n      0xb698e31a2abee5824d0d7bcfd2339aead7f9e9ae413fba50bf554ff3fa470b7b\n      mload(0x40)\n      mload(0x40)\n      dup1\n      swap2\n      sub\n      swap1\n      log4\n        /* \"NFTMarket.sol\":3152:3754  {... */\n      pop\n      pop\n        /* \"NFTMarket.sol\":3093:3754  function revoke(address _nftAddr, uint256 _tokenId) public {... */\n      pop\n      pop\n      jump\t// out\n        /* \"#utility.yul\":88:205   */\n    tag_103:\n        /* \"#utility.yul\":197:198   */\n      0x00\n        /* \"#utility.yul\":194:195   */\n      dup1\n        /* \"#utility.yul\":187:199   */\n      revert\n        /* \"#utility.yul\":334:460   */\n    tag_105:\n        /* \"#utility.yul\":371:378   */\n      0x00\n        /* \"#utility.yul\":411:453   */\n      0xffffffffffffffffffffffffffffffffffffffff\n        /* \"#utility.yul\":404:409   */\n      dup3\n        /* \"#utility.yul\":400:454   */\n      and\n        /* \"#utility.yul\":389:454   */\n      swap1\n      pop\n        /* \"#utility.yul\":334:460   */\n      swap2\n      swap1\n      pop\n      jump\t// out\n        /* \"#utility.yul\":466:562   */\n    tag_106:\n        /* \"#utility.yul\":503:510   */\n      0x00\n        /* \"#utility.yul\":532:556   */\n      tag_133\n        /* \"#utility.yul\":550:555   */\n      dup3\n        /* \"#utility.yul\":532:556   */\n      tag_105\n      jump\t// in\n    tag_133:\n        /* \"#utility.yul\":521:556   */\n      swap1\n      pop\n        /* \"#utility.yul\":466:562   */\n      swap2\n      swap1\n      pop\n      jump\t// out\n        /* \"#utility.yul\":568:690   */\n    tag_107:\n        /* \"#utility.yul\":641:665   */\n      tag_135\n        /* \"#utility.yul\":659:664   */\n      dup2\n        /* \"#utility.yul\":641:665   */\n      tag_106\n      jump\t// in\n    tag_135:\n        /* \"#utility.yul\":634:639   */\n      dup2\n        /* \"#utility.yul\":631:666   */\n      eq\n        /* \"#utility.yul\":621:684   */\n      tag_136\n      jumpi\n        /* \"#utility.yul\":680:681   */\n      0x00\n        /* \"#utility.yul\":677:678   */\n      dup1\n        /* \"#utility.yul\":670:682   */\n      revert\n        /* \"#utility.yul\":621:684   */\n    tag_136:\n        /* \"#utility.yul\":568:690   */\n      pop\n      jump\t// out\n        /* \"#utility.yul\":696:835   */\n    tag_108:\n        /* \"#utility.yul\":742:747   */\n      0x00\n        /* \"#utility.yul\":780:786   */\n      dup2\n        /* \"#utility.yul\":767:787   */\n      calldataload\n        /* \"#utility.yul\":758:787   */\n      swap1\n      pop\n        /* \"#utility.yul\":796:829   */\n      tag_138\n        /* \"#utility.yul\":823:828   */\n      dup2\n        /* \"#utility.yul\":796:829   */\n      tag_107\n      jump\t// in\n    tag_138:\n        /* \"#utility.yul\":696:835   */\n      swap3\n      swap2\n      pop\n      pop\n      jump\t// out\n        /* \"#utility.yul\":841:918   */\n    tag_109:\n        /* \"#utility.yul\":878:885   */\n      0x00\n        /* \"#utility.yul\":907:912   */\n      dup2\n        /* \"#utility.yul\":896:912   */\n      swap1\n      pop\n        /* \"#utility.yul\":841:918   */\n      swap2\n      swap1\n      pop\n      jump\t// out\n        /* \"#utility.yul\":924:1046   */\n    tag_110:\n        /* \"#utility.yul\":997:1021   */\n      tag_141\n        /* \"#utility.yul\":1015:1020   */\n      dup2\n        /* \"#utility.yul\":997:1021   */\n      tag_109\n      jump\t// in\n    tag_141:\n        /* \"#utility.yul\":990:995   */\n      dup2\n        /* \"#utility.yul\":987:1022   */\n      eq\n        /* \"#utility.yul\":977:1040   */\n      tag_142\n      jumpi\n        /* \"#utility.yul\":1036:1037   */\n      0x00\n        /* \"#utility.yul\":1033:1034   */\n      dup1\n        /* \"#utility.yul\":1026:1038   */\n      revert\n        /* \"#utility.yul\":977:1040   */\n    tag_142:\n        /* \"#utility.yul\":924:1046   */\n      pop\n      jump\t// out\n        /* \"#utility.yul\":1052:1191   */\n    tag_111:\n        /* \"#utility.yul\":1098:1103   */\n      0x00\n        /* \"#utility.yul\":1136:1142   */\n      dup2\n        /* \"#utility.yul\":1123:1143   */\n      calldataload\n        /* \"#utility.yul\":1114:1143   */\n      swap1\n      pop\n        /* \"#utility.yul\":1152:1185   */\n      tag_144\n        /* \"#utility.yul\":1179:1184   */\n      dup2\n        /* \"#utility.yul\":1152:1185   */\n      tag_110\n      jump\t// in\n    tag_144:\n        /* \"#utility.yul\":1052:1191   */\n      swap3\n      swap2\n      pop\n      pop\n      jump\t// out\n        /* \"#utility.yul\":1197:1671   */\n    tag_14:\n        /* \"#utility.yul\":1265:1271   */\n      0x00\n        /* \"#utility.yul\":1273:1279   */\n      dup1\n        /* \"#utility.yul\":1322:1324   */\n      0x40\n        /* \"#utility.yul\":1310:1319   */\n      dup4\n        /* \"#utility.yul\":1301:1308   */\n      dup6\n        /* \"#utility.yul\":1297:1320   */\n      sub\n        /* \"#utility.yul\":1293:1325   */\n      slt\n        /* \"#utility.yul\":1290:1409   */\n      iszero\n      tag_146\n      jumpi\n        /* \"#utility.yul\":1328:1407   */\n      tag_147\n      tag_103\n      jump\t// in\n    tag_147:\n        /* \"#utility.yul\":1290:1409   */\n    tag_146:\n        /* \"#utility.yul\":1448:1449   */\n      0x00\n        /* \"#utility.yul\":1473:1526   */\n      tag_148\n        /* \"#utility.yul\":1518:1525   */\n      dup6\n        /* \"#utility.yul\":1509:1515   */\n      dup3\n        /* \"#utility.yul\":1498:1507   */\n      dup7\n        /* \"#utility.yul\":1494:1516   */\n      add\n        /* \"#utility.yul\":1473:1526   */\n      tag_108\n      jump\t// in\n    tag_148:\n        /* \"#utility.yul\":1463:1526   */\n      swap3\n      pop\n        /* \"#utility.yul\":1419:1536   */\n      pop\n        /* \"#utility.yul\":1575:1577   */\n      0x20\n        /* \"#utility.yul\":1601:1654   */\n      tag_149\n        /* \"#utility.yul\":1646:1653   */\n      dup6\n        /* \"#utility.yul\":1637:1643   */\n      dup3\n        /* \"#utility.yul\":1626:1635   */\n      dup7\n        /* \"#utility.yul\":1622:1644   */\n      add\n        /* \"#utility.yul\":1601:1654   */\n      tag_111\n      jump\t// in\n    tag_149:\n        /* \"#utility.yul\":1591:1654   */\n      swap2\n      pop\n        /* \"#utility.yul\":1546:1664   */\n      pop\n        /* \"#utility.yul\":1197:1671   */\n      swap3\n      pop\n      swap3\n      swap1\n      pop\n      jump\t// out\n        /* \"#utility.yul\":1677:1795   */\n    tag_112:\n        /* \"#utility.yul\":1764:1788   */\n      tag_151\n        /* \"#utility.yul\":1782:1787   */\n      dup2\n        /* \"#utility.yul\":1764:1788   */\n      tag_106\n      jump\t// in\n    tag_151:\n        /* \"#utility.yul\":1759:1762   */\n      dup3\n        /* \"#utility.yul\":1752:1789   */\n      mstore\n        /* \"#utility.yul\":1677:1795   */\n      pop\n      pop\n      jump\t// out\n        /* \"#utility.yul\":1801:1919   */\n    tag_113:\n        /* \"#utility.yul\":1888:1912   */\n      tag_153\n        /* \"#utility.yul\":1906:1911   */\n      dup2\n        /* \"#utility.yul\":1888:1912   */\n      tag_109\n      jump\t// in\n    tag_153:\n        /* \"#utility.yul\":1883:1886   */\n      dup3\n        /* \"#utility.yul\":1876:1913   */\n      mstore\n        /* \"#utility.yul\":1801:1919   */\n      pop\n      pop\n      jump\t// out\n        /* \"#utility.yul\":1925:2257   */\n    tag_21:\n        /* \"#utility.yul\":2046:2050   */\n      0x00\n        /* \"#utility.yul\":2084:2086   */\n      0x40\n        /* \"#utility.yul\":2073:2082   */\n      dup3\n        /* \"#utility.yul\":2069:2087   */\n      add\n        /* \"#utility.yul\":2061:2087   */\n      swap1\n      pop\n        /* \"#utility.yul\":2097:2168   */\n      tag_155\n        /* \"#utility.yul\":2165:2166   */\n      0x00\n        /* \"#utility.yul\":2154:2163   */\n      dup4\n        /* \"#utility.yul\":2150:2167   */\n      add\n        /* \"#utility.yul\":2141:2147   */\n      dup6\n        /* \"#utility.yul\":2097:2168   */\n      tag_112\n      jump\t// in\n    tag_155:\n        /* \"#utility.yul\":2178:2250   */\n      tag_156\n        /* \"#utility.yul\":2246:2248   */\n      0x20\n        /* \"#utility.yul\":2235:2244   */\n      dup4\n        /* \"#utility.yul\":2231:2249   */\n      add\n        /* \"#utility.yul\":2222:2228   */\n      dup5\n        /* \"#utility.yul\":2178:2250   */\n      tag_113\n      jump\t// in\n    tag_156:\n        /* \"#utility.yul\":1925:2257   */\n      swap4\n      swap3\n      pop\n      pop\n      pop\n      jump\t// out\n        /* \"#utility.yul\":2263:2882   */\n    tag_25:\n        /* \"#utility.yul\":2340:2346   */\n      0x00\n        /* \"#utility.yul\":2348:2354   */\n      dup1\n        /* \"#utility.yul\":2356:2362   */\n      0x00\n        /* \"#utility.yul\":2405:2407   */\n      0x60\n        /* \"#utility.yul\":2393:2402   */\n      dup5\n        /* \"#utility.yul\":2384:2391   */\n      dup7\n        /* \"#utility.yul\":2380:2403   */\n      sub\n        /* \"#utility.yul\":2376:2408   */\n      slt\n        /* \"#utility.yul\":2373:2492   */\n      iszero\n      tag_158\n      jumpi\n        /* \"#utility.yul\":2411:2490   */\n      tag_159\n      tag_103\n      jump\t// in\n    tag_159:\n        /* \"#utility.yul\":2373:2492   */\n    tag_158:\n        /* \"#utility.yul\":2531:2532   */\n      0x00\n        /* \"#utility.yul\":2556:2609   */\n      tag_160\n        /* \"#utility.yul\":2601:2608   */\n      dup7\n        /* \"#utility.yul\":2592:2598   */\n      dup3\n        /* \"#utility.yul\":2581:2590   */\n      dup8\n        /* \"#utility.yul\":2577:2599   */\n      add\n        /* \"#utility.yul\":2556:2609   */\n      tag_108\n      jump\t// in\n    tag_160:\n        /* \"#utility.yul\":2546:2609   */\n      swap4\n      pop\n        /* \"#utility.yul\":2502:2619   */\n      pop\n        /* \"#utility.yul\":2658:2660   */\n      0x20\n        /* \"#utility.yul\":2684:2737   */\n      tag_161\n        /* \"#utility.yul\":2729:2736   */\n      dup7\n        /* \"#utility.yul\":2720:2726   */\n      dup3\n        /* \"#utility.yul\":2709:2718   */\n      dup8\n        /* \"#utility.yul\":2705:2727   */\n      add\n        /* \"#utility.yul\":2684:2737   */\n      tag_111\n      jump\t// in\n    tag_161:\n        /* \"#utility.yul\":2674:2737   */\n      swap3\n      pop\n        /* \"#utility.yul\":2629:2747   */\n      pop\n        /* \"#utility.yul\":2786:2788   */\n      0x40\n        /* \"#utility.yul\":2812:2865   */\n      tag_162\n        /* \"#utility.yul\":2857:2864   */\n      dup7\n        /* \"#utility.yul\":2848:2854   */\n      dup3\n        /* \"#utility.yul\":2837:2846   */\n      dup8\n        /* \"#utility.yul\":2833:2855   */\n      add\n        /* \"#utility.yul\":2812:2865   */\n      tag_111\n      jump\t// in\n    tag_162:\n        /* \"#utility.yul\":2802:2865   */\n      swap2\n      pop\n        /* \"#utility.yul\":2757:2875   */\n      pop\n        /* \"#utility.yul\":2263:2882   */\n      swap3\n      pop\n      swap3\n      pop\n      swap3\n      jump\t// out\n        /* \"#utility.yul\":2888:3057   */\n    tag_114:\n        /* \"#utility.yul\":2972:2983   */\n      0x00\n        /* \"#utility.yul\":3006:3012   */\n      dup3\n        /* \"#utility.yul\":3001:3004   */\n      dup3\n        /* \"#utility.yul\":2994:3013   */\n      mstore\n        /* \"#utility.yul\":3046:3050   */\n      0x20\n        /* \"#utility.yul\":3041:3044   */\n      dup3\n        /* \"#utility.yul\":3037:3051   */\n      add\n        /* \"#utility.yul\":3022:3051   */\n      swap1\n      pop\n        /* \"#utility.yul\":2888:3057   */\n      swap3\n      swap2\n      pop\n      pop\n      jump\t// out\n        /* \"#utility.yul\":3063:3226   */\n    tag_115:\n        /* \"#utility.yul\":3203:3218   */\n      0x496e76616c696420507269636500000000000000000000000000000000000000\n        /* \"#utility.yul\":3199:3200   */\n      0x00\n        /* \"#utility.yul\":3191:3197   */\n      dup3\n        /* \"#utility.yul\":3187:3201   */\n      add\n        /* \"#utility.yul\":3180:3219   */\n      mstore\n        /* \"#utility.yul\":3063:3226   */\n      pop\n      jump\t// out\n        /* \"#utility.yul\":3232:3598   */\n    tag_116:\n        /* \"#utility.yul\":3374:3377   */\n      0x00\n        /* \"#utility.yul\":3395:3462   */\n      tag_166\n        /* \"#utility.yul\":3459:3461   */\n      0x0d\n        /* \"#utility.yul\":3454:3457   */\n      dup4\n        /* \"#utility.yul\":3395:3462   */\n      tag_114\n      jump\t// in\n    tag_166:\n        /* \"#utility.yul\":3388:3462   */\n      swap2\n      pop\n        /* \"#utility.yul\":3471:3564   */\n      tag_167\n        /* \"#utility.yul\":3560:3563   */\n      dup3\n        /* \"#utility.yul\":3471:3564   */\n      tag_115\n      jump\t// in\n    tag_167:\n        /* \"#utility.yul\":3589:3591   */\n      0x20\n        /* \"#utility.yul\":3584:3587   */\n      dup3\n        /* \"#utility.yul\":3580:3592   */\n      add\n        /* \"#utility.yul\":3573:3592   */\n      swap1\n      pop\n        /* \"#utility.yul\":3232:3598   */\n      swap2\n      swap1\n      pop\n      jump\t// out\n        /* \"#utility.yul\":3604:4023   */\n    tag_37:\n        /* \"#utility.yul\":3770:3774   */\n      0x00\n        /* \"#utility.yul\":3808:3810   */\n      0x20\n        /* \"#utility.yul\":3797:3806   */\n      dup3\n        /* \"#utility.yul\":3793:3811   */\n      add\n        /* \"#utility.yul\":3785:3811   */\n      swap1\n      pop\n        /* \"#utility.yul\":3857:3866   */\n      dup2\n        /* \"#utility.yul\":3851:3855   */\n      dup2\n        /* \"#utility.yul\":3847:3867   */\n      sub\n        /* \"#utility.yul\":3843:3844   */\n      0x00\n        /* \"#utility.yul\":3832:3841   */\n      dup4\n        /* \"#utility.yul\":3828:3845   */\n      add\n        /* \"#utility.yul\":3821:3868   */\n      mstore\n        /* \"#utility.yul\":3885:4016   */\n      tag_169\n        /* \"#utility.yul\":4011:4015   */\n      dup2\n        /* \"#utility.yul\":3885:4016   */\n      tag_116\n      jump\t// in\n    tag_169:\n        /* \"#utility.yul\":3877:4016   */\n      swap1\n      pop\n        /* \"#utility.yul\":3604:4023   */\n      swap2\n      swap1\n      pop\n      jump\t// out\n        /* \"#utility.yul\":4029:4193   */\n    tag_117:\n        /* \"#utility.yul\":4169:4185   */\n      0x496e637265617365207072696365000000000000000000000000000000000000\n        /* \"#utility.yul\":4165:4166   */\n      0x00\n        /* \"#utility.yul\":4157:4163   */\n      dup3\n        /* \"#utility.yul\":4153:4167   */\n      add\n        /* \"#utility.yul\":4146:4186   */\n      mstore\n        /* \"#utility.yul\":4029:4193   */\n      pop\n      jump\t// out\n        /* \"#utility.yul\":4199:4565   */\n    tag_118:\n        /* \"#utility.yul\":4341:4344   */\n      0x00\n        /* \"#utility.yul\":4362:4429   */\n      tag_172\n        /* \"#utility.yul\":4426:4428   */\n      0x0e\n        /* \"#utility.yul\":4421:4424   */\n      dup4\n        /* \"#utility.yul\":4362:4429   */\n      tag_114\n      jump\t// in\n    tag_172:\n        /* \"#utility.yul\":4355:4429   */\n      swap2\n      pop\n        /* \"#utility.yul\":4438:4531   */\n      tag_173\n        /* \"#utility.yul\":4527:4530   */\n      dup3\n        /* \"#utility.yul\":4438:4531   */\n      tag_117\n      jump\t// in\n    tag_173:\n        /* \"#utility.yul\":4556:4558   */\n      0x20\n        /* \"#utility.yul\":4551:4554   */\n      dup3\n        /* \"#utility.yul\":4547:4559   */\n      add\n        /* \"#utility.yul\":4540:4559   */\n      swap1\n      pop\n        /* \"#utility.yul\":4199:4565   */\n      swap2\n      swap1\n      pop\n      jump\t// out\n        /* \"#utility.yul\":4571:4990   */\n    tag_40:\n        /* \"#utility.yul\":4737:4741   */\n      0x00\n        /* \"#utility.yul\":4775:4777   */\n      0x20\n        /* \"#utility.yul\":4764:4773   */\n      dup3\n        /* \"#utility.yul\":4760:4778   */\n      add\n        /* \"#utility.yul\":4752:4778   */\n      swap1\n      pop\n        /* \"#utility.yul\":4824:4833   */\n      dup2\n        /* \"#utility.yul\":4818:4822   */\n      dup2\n        /* \"#utility.yul\":4814:4834   */\n      sub\n        /* \"#utility.yul\":4810:4811   */\n      0x00\n        /* \"#utility.yul\":4799:4808   */\n      dup4\n        /* \"#utility.yul\":4795:4812   */\n      add\n        /* \"#utility.yul\":4788:4835   */\n      mstore\n        /* \"#utility.yul\":4852:4983   */\n      tag_175\n        /* \"#utility.yul\":4978:4982   */\n      dup2\n        /* \"#utility.yul\":4852:4983   */\n      tag_118\n      jump\t// in\n    tag_175:\n        /* \"#utility.yul\":4844:4983   */\n      swap1\n      pop\n        /* \"#utility.yul\":4571:4990   */\n      swap2\n      swap1\n      pop\n      jump\t// out\n        /* \"#utility.yul\":4996:5218   */\n    tag_42:\n        /* \"#utility.yul\":5089:5093   */\n      0x00\n        /* \"#utility.yul\":5127:5129   */\n      0x20\n        /* \"#utility.yul\":5116:5125   */\n      dup3\n        /* \"#utility.yul\":5112:5130   */\n      add\n        /* \"#utility.yul\":5104:5130   */\n      swap1\n      pop\n        /* \"#utility.yul\":5140:5211   */\n      tag_177\n        /* \"#utility.yul\":5208:5209   */\n      0x00\n        /* \"#utility.yul\":5197:5206   */\n      dup4\n        /* \"#utility.yul\":5193:5210   */\n      add\n        /* \"#utility.yul\":5184:5190   */\n      dup5\n        /* \"#utility.yul\":5140:5211   */\n      tag_113\n      jump\t// in\n    tag_177:\n        /* \"#utility.yul\":4996:5218   */\n      swap3\n      swap2\n      pop\n      pop\n      jump\t// out\n        /* \"#utility.yul\":5224:5367   */\n    tag_119:\n        /* \"#utility.yul\":5281:5286   */\n      0x00\n        /* \"#utility.yul\":5312:5318   */\n      dup2\n        /* \"#utility.yul\":5306:5319   */\n      mload\n        /* \"#utility.yul\":5297:5319   */\n      swap1\n      pop\n        /* \"#utility.yul\":5328:5361   */\n      tag_179\n        /* \"#utility.yul\":5355:5360   */\n      dup2\n        /* \"#utility.yul\":5328:5361   */\n      tag_107\n      jump\t// in\n    tag_179:\n        /* \"#utility.yul\":5224:5367   */\n      swap3\n      swap2\n      pop\n      pop\n      jump\t// out\n        /* \"#utility.yul\":5373:5724   */\n    tag_46:\n        /* \"#utility.yul\":5443:5449   */\n      0x00\n        /* \"#utility.yul\":5492:5494   */\n      0x20\n        /* \"#utility.yul\":5480:5489   */\n      dup3\n        /* \"#utility.yul\":5471:5478   */\n      dup5\n        /* \"#utility.yul\":5467:5490   */\n      sub\n        /* \"#utility.yul\":5463:5495   */\n      slt\n        /* \"#utility.yul\":5460:5579   */\n      iszero\n      tag_181\n      jumpi\n        /* \"#utility.yul\":5498:5577   */\n      tag_182\n      tag_103\n      jump\t// in\n    tag_182:\n        /* \"#utility.yul\":5460:5579   */\n    tag_181:\n        /* \"#utility.yul\":5618:5619   */\n      0x00\n        /* \"#utility.yul\":5643:5707   */\n      tag_183\n        /* \"#utility.yul\":5699:5706   */\n      dup5\n        /* \"#utility.yul\":5690:5696   */\n      dup3\n        /* \"#utility.yul\":5679:5688   */\n      dup6\n        /* \"#utility.yul\":5675:5697   */\n      add\n        /* \"#utility.yul\":5643:5707   */\n      tag_119\n      jump\t// in\n    tag_183:\n        /* \"#utility.yul\":5633:5707   */\n      swap2\n      pop\n        /* \"#utility.yul\":5589:5717   */\n      pop\n        /* \"#utility.yul\":5373:5724   */\n      swap3\n      swap2\n      pop\n      pop\n      jump\t// out\n        /* \"#utility.yul\":5730:5893   */\n    tag_120:\n        /* \"#utility.yul\":5870:5885   */\n      0x496e76616c6964204f7264657200000000000000000000000000000000000000\n        /* \"#utility.yul\":5866:5867   */\n      0x00\n        /* \"#utility.yul\":5858:5864   */\n      dup3\n        /* \"#utility.yul\":5854:5868   */\n      add\n        /* \"#utility.yul\":5847:5886   */\n      mstore\n        /* \"#utility.yul\":5730:5893   */\n      pop\n      jump\t// out\n        /* \"#utility.yul\":5899:6265   */\n    tag_121:\n        /* \"#utility.yul\":6041:6044   */\n      0x00\n        /* \"#utility.yul\":6062:6129   */\n      tag_186\n        /* \"#utility.yul\":6126:6128   */\n      0x0d\n        /* \"#utility.yul\":6121:6124   */\n      dup4\n        /* \"#utility.yul\":6062:6129   */\n      tag_114\n      jump\t// in\n    tag_186:\n        /* \"#utility.yul\":6055:6129   */\n      swap2\n      pop\n        /* \"#utility.yul\":6138:6231   */\n      tag_187\n        /* \"#utility.yul\":6227:6230   */\n      dup3\n        /* \"#utility.yul\":6138:6231   */\n      tag_120\n      jump\t// in\n    tag_187:\n        /* \"#utility.yul\":6256:6258   */\n      0x20\n        /* \"#utility.yul\":6251:6254   */\n      dup3\n        /* \"#utility.yul\":6247:6259   */\n      add\n        /* \"#utility.yul\":6240:6259   */\n      swap1\n      pop\n        /* \"#utility.yul\":5899:6265   */\n      swap2\n      swap1\n      pop\n      jump\t// out\n        /* \"#utility.yul\":6271:6690   */\n    tag_49:\n        /* \"#utility.yul\":6437:6441   */\n      0x00\n        /* \"#utility.yul\":6475:6477   */\n      0x20\n        /* \"#utility.yul\":6464:6473   */\n      dup3\n        /* \"#utility.yul\":6460:6478   */\n      add\n        /* \"#utility.yul\":6452:6478   */\n      swap1\n      pop\n        /* \"#utility.yul\":6524:6533   */\n      dup2\n        /* \"#utility.yul\":6518:6522   */\n      dup2\n        /* \"#utility.yul\":6514:6534   */\n      sub\n        /* \"#utility.yul\":6510:6511   */\n      0x00\n        /* \"#utility.yul\":6499:6508   */\n      dup4\n        /* \"#utility.yul\":6495:6512   */\n      add\n        /* \"#utility.yul\":6488:6535   */\n      mstore\n        /* \"#utility.yul\":6552:6683   */\n      tag_189\n        /* \"#utility.yul\":6678:6682   */\n      dup2\n        /* \"#utility.yul\":6552:6683   */\n      tag_121\n      jump\t// in\n    tag_189:\n        /* \"#utility.yul\":6544:6683   */\n      swap1\n      pop\n        /* \"#utility.yul\":6271:6690   */\n      swap2\n      swap1\n      pop\n      jump\t// out\n        /* \"#utility.yul\":6696:7138   */\n    tag_51:\n        /* \"#utility.yul\":6845:6849   */\n      0x00\n        /* \"#utility.yul\":6883:6885   */\n      0x60\n        /* \"#utility.yul\":6872:6881   */\n      dup3\n        /* \"#utility.yul\":6868:6886   */\n      add\n        /* \"#utility.yul\":6860:6886   */\n      swap1\n      pop\n        /* \"#utility.yul\":6896:6967   */\n      tag_191\n        /* \"#utility.yul\":6964:6965   */\n      0x00\n        /* \"#utility.yul\":6953:6962   */\n      dup4\n        /* \"#utility.yul\":6949:6966   */\n      add\n        /* \"#utility.yul\":6940:6946   */\n      dup7\n        /* \"#utility.yul\":6896:6967   */\n      tag_112\n      jump\t// in\n    tag_191:\n        /* \"#utility.yul\":6977:7049   */\n      tag_192\n        /* \"#utility.yul\":7045:7047   */\n      0x20\n        /* \"#utility.yul\":7034:7043   */\n      dup4\n        /* \"#utility.yul\":7030:7048   */\n      add\n        /* \"#utility.yul\":7021:7027   */\n      dup6\n        /* \"#utility.yul\":6977:7049   */\n      tag_112\n      jump\t// in\n    tag_192:\n        /* \"#utility.yul\":7059:7131   */\n      tag_193\n        /* \"#utility.yul\":7127:7129   */\n      0x40\n        /* \"#utility.yul\":7116:7125   */\n      dup4\n        /* \"#utility.yul\":7112:7130   */\n      add\n        /* \"#utility.yul\":7103:7109   */\n      dup5\n        /* \"#utility.yul\":7059:7131   */\n      tag_113\n      jump\t// in\n    tag_193:\n        /* \"#utility.yul\":6696:7138   */\n      swap5\n      swap4\n      pop\n      pop\n      pop\n      pop\n      jump\t// out\n        /* \"#utility.yul\":7144:7324   */\n    tag_122:\n        /* \"#utility.yul\":7192:7269   */\n      0x4e487b7100000000000000000000000000000000000000000000000000000000\n        /* \"#utility.yul\":7189:7190   */\n      0x00\n        /* \"#utility.yul\":7182:7270   */\n      mstore\n        /* \"#utility.yul\":7289:7293   */\n      0x11\n        /* \"#utility.yul\":7286:7287   */\n      0x04\n        /* \"#utility.yul\":7279:7294   */\n      mstore\n        /* \"#utility.yul\":7313:7317   */\n      0x24\n        /* \"#utility.yul\":7310:7311   */\n      0x00\n        /* \"#utility.yul\":7303:7318   */\n      revert\n        /* \"#utility.yul\":7330:7524   */\n    tag_58:\n        /* \"#utility.yul\":7370:7374   */\n      0x00\n        /* \"#utility.yul\":7390:7410   */\n      tag_196\n        /* \"#utility.yul\":7408:7409   */\n      dup3\n        /* \"#utility.yul\":7390:7410   */\n      tag_109\n      jump\t// in\n    tag_196:\n        /* \"#utility.yul\":7385:7410   */\n      swap2\n      pop\n        /* \"#utility.yul\":7424:7444   */\n      tag_197\n        /* \"#utility.yul\":7442:7443   */\n      dup4\n        /* \"#utility.yul\":7424:7444   */\n      tag_109\n      jump\t// in\n    tag_197:\n        /* \"#utility.yul\":7419:7444   */\n      swap3\n      pop\n        /* \"#utility.yul\":7468:7469   */\n      dup3\n        /* \"#utility.yul\":7465:7466   */\n      dup3\n        /* \"#utility.yul\":7461:7470   */\n      sub\n        /* \"#utility.yul\":7453:7470   */\n      swap1\n      pop\n        /* \"#utility.yul\":7492:7493   */\n      dup2\n        /* \"#utility.yul\":7486:7490   */\n      dup2\n        /* \"#utility.yul\":7483:7494   */\n      gt\n        /* \"#utility.yul\":7480:7517   */\n      iszero\n      tag_198\n      jumpi\n        /* \"#utility.yul\":7497:7515   */\n      tag_199\n      tag_122\n      jump\t// in\n    tag_199:\n        /* \"#utility.yul\":7480:7517   */\n    tag_198:\n        /* \"#utility.yul\":7330:7524   */\n      swap3\n      swap2\n      pop\n      pop\n      jump\t// out\n        /* \"#utility.yul\":7530:7689   */\n    tag_123:\n        /* \"#utility.yul\":7670:7681   */\n      0x4e6f74204f776e65720000000000000000000000000000000000000000000000\n        /* \"#utility.yul\":7666:7667   */\n      0x00\n        /* \"#utility.yul\":7658:7664   */\n      dup3\n        /* \"#utility.yul\":7654:7668   */\n      add\n        /* \"#utility.yul\":7647:7682   */\n      mstore\n        /* \"#utility.yul\":7530:7689   */\n      pop\n      jump\t// out\n        /* \"#utility.yul\":7695:8060   */\n    tag_124:\n        /* \"#utility.yul\":7837:7840   */\n      0x00\n        /* \"#utility.yul\":7858:7924   */\n      tag_202\n        /* \"#utility.yul\":7922:7923   */\n      0x09\n        /* \"#utility.yul\":7917:7920   */\n      dup4\n        /* \"#utility.yul\":7858:7924   */\n      tag_114\n      jump\t// in\n    tag_202:\n        /* \"#utility.yul\":7851:7924   */\n      swap2\n      pop\n        /* \"#utility.yul\":7933:8026   */\n      tag_203\n        /* \"#utility.yul\":8022:8025   */\n      dup3\n        /* \"#utility.yul\":7933:8026   */\n      tag_123\n      jump\t// in\n    tag_203:\n        /* \"#utility.yul\":8051:8053   */\n      0x20\n        /* \"#utility.yul\":8046:8049   */\n      dup3\n        /* \"#utility.yul\":8042:8054   */\n      add\n        /* \"#utility.yul\":8035:8054   */\n      swap1\n      pop\n        /* \"#utility.yul\":7695:8060   */\n      swap2\n      swap1\n      pop\n      jump\t// out\n        /* \"#utility.yul\":8066:8485   */\n    tag_67:\n        /* \"#utility.yul\":8232:8236   */\n      0x00\n        /* \"#utility.yul\":8270:8272   */\n      0x20\n        /* \"#utility.yul\":8259:8268   */\n      dup3\n        /* \"#utility.yul\":8255:8273   */\n      add\n        /* \"#utility.yul\":8247:8273   */\n      swap1\n      pop\n        /* \"#utility.yul\":8319:8328   */\n      dup2\n        /* \"#utility.yul\":8313:8317   */\n      dup2\n        /* \"#utility.yul\":8309:8329   */\n      sub\n        /* \"#utility.yul\":8305:8306   */\n      0x00\n        /* \"#utility.yul\":8294:8303   */\n      dup4\n        /* \"#utility.yul\":8290:8307   */\n      add\n        /* \"#utility.yul\":8283:8330   */\n      mstore\n        /* \"#utility.yul\":8347:8478   */\n      tag_205\n        /* \"#utility.yul\":8473:8477   */\n      dup2\n        /* \"#utility.yul\":8347:8478   */\n      tag_124\n      jump\t// in\n    tag_205:\n        /* \"#utility.yul\":8339:8478   */\n      swap1\n      pop\n        /* \"#utility.yul\":8066:8485   */\n      swap2\n      swap1\n      pop\n      jump\t// out\n        /* \"#utility.yul\":8491:8654   */\n    tag_125:\n        /* \"#utility.yul\":8631:8646   */\n      0x4e65656420417070726f76616c00000000000000000000000000000000000000\n        /* \"#utility.yul\":8627:8628   */\n      0x00\n        /* \"#utility.yul\":8619:8625   */\n      dup3\n        /* \"#utility.yul\":8615:8629   */\n      add\n        /* \"#utility.yul\":8608:8647   */\n      mstore\n        /* \"#utility.yul\":8491:8654   */\n      pop\n      jump\t// out\n        /* \"#utility.yul\":8660:9026   */\n    tag_126:\n        /* \"#utility.yul\":8802:8805   */\n      0x00\n        /* \"#utility.yul\":8823:8890   */\n      tag_208\n        /* \"#utility.yul\":8887:8889   */\n      0x0d\n        /* \"#utility.yul\":8882:8885   */\n      dup4\n        /* \"#utility.yul\":8823:8890   */\n      tag_114\n      jump\t// in\n    tag_208:\n        /* \"#utility.yul\":8816:8890   */\n      swap2\n      pop\n        /* \"#utility.yul\":8899:8992   */\n      tag_209\n        /* \"#utility.yul\":8988:8991   */\n      dup3\n        /* \"#utility.yul\":8899:8992   */\n      tag_125\n      jump\t// in\n    tag_209:\n        /* \"#utility.yul\":9017:9019   */\n      0x20\n        /* \"#utility.yul\":9012:9015   */\n      dup3\n        /* \"#utility.yul\":9008:9020   */\n      add\n        /* \"#utility.yul\":9001:9020   */\n      swap1\n      pop\n        /* \"#utility.yul\":8660:9026   */\n      swap2\n      swap1\n      pop\n      jump\t// out\n        /* \"#utility.yul\":9032:9451   */\n    tag_82:\n        /* \"#utility.yul\":9198:9202   */\n      0x00\n        /* \"#utility.yul\":9236:9238   */\n      0x20\n        /* \"#utility.yul\":9225:9234   */\n      dup3\n        /* \"#utility.yul\":9221:9239   */\n      add\n        /* \"#utility.yul\":9213:9239   */\n      swap1\n      pop\n        /* \"#utility.yul\":9285:9294   */\n      dup2\n        /* \"#utility.yul\":9279:9283   */\n      dup2\n        /* \"#utility.yul\":9275:9295   */\n      sub\n        /* \"#utility.yul\":9271:9272   */\n      0x00\n        /* \"#utility.yul\":9260:9269   */\n      dup4\n        /* \"#utility.yul\":9256:9273   */\n      add\n        /* \"#utility.yul\":9249:9296   */\n      mstore\n        /* \"#utility.yul\":9313:9444   */\n      tag_211\n        /* \"#utility.yul\":9439:9443   */\n      dup2\n        /* \"#utility.yul\":9313:9444   */\n      tag_126\n      jump\t// in\n    tag_211:\n        /* \"#utility.yul\":9305:9444   */\n      swap1\n      pop\n        /* \"#utility.yul\":9032:9451   */\n      swap2\n      swap1\n      pop\n      jump\t// out\n\n    auxdata: 0xa2646970667358221220a5dc0e1d4cf587b0f57d011b6c70ad1b65e6db29e63341824d6f16982ec1bdd064736f6c634300081a0033\n}\n",
				"bytecode": {
					"linkReferences": {},
					"object": "6080604052348015600e575f80fd5b506111c68061001c5f395ff3fe60806040526004361061004d575f3560e01c80638de9322214610056578063ba5f4fb214610072578063d09b6d43146100af578063dda342bb146100d7578063eac449d9146100f357610054565b3661005457005b005b610070600480360381019061006b9190610db8565b61011b565b005b34801561007d575f80fd5b5061009860048036038101906100939190610db8565b6104f0565b6040516100a6929190610e14565b60405180910390f35b3480156100ba575f80fd5b506100d560048036038101906100d09190610e3b565b610539565b005b6100f160048036038101906100ec9190610e3b565b6107b8565b005b3480156100fe575f80fd5b5061011960048036038101906101149190610db8565b610a1b565b005b5f805f8473ffffffffffffffffffffffffffffffffffffffff1673ffffffffffffffffffffffffffffffffffffffff1681526020019081526020015f205f8381526020019081526020015f2090505f8160010154116101af576040517f08c379a00000000000000000000000000000000000000000000000000000000081526004016101a690610ee5565b60405180910390fd5b80600101543410156101f6576040517f08c379a00000000000000000000000000000000000000000000000000000000081526004016101ed90610f4d565b60405180910390fd5b5f8390503073ffffffffffffffffffffffffffffffffffffffff168173ffffffffffffffffffffffffffffffffffffffff16636352211e856040518263ffffffff1660e01b815260040161024a9190610f6b565b602060405180830381865afa158015610265573d5f803e3d5ffd5b505050506040513d601f19601f820116820180604052508101906102899190610f98565b73ffffffffffffffffffffffffffffffffffffffff16146102df576040517f08c379a00000000000000000000000000000000000000000000000000000000081526004016102d69061100d565b60405180910390fd5b8073ffffffffffffffffffffffffffffffffffffffff166342842e0e3033866040518463ffffffff1660e01b815260040161031c9392919061102b565b5f604051808303815f87803b158015610333575f80fd5b505af1158015610345573d5f803e3d5ffd5b50505050815f015f9054906101000a900473ffffffffffffffffffffffffffffffffffffffff1673ffffffffffffffffffffffffffffffffffffffff166108fc836001015490811502906040515f60405180830381858888f193505050501580156103b2573d5f803e3d5ffd5b503373ffffffffffffffffffffffffffffffffffffffff166108fc8360010154346103dd919061108d565b90811502906040515f60405180830381858888f19350505050158015610405573d5f803e3d5ffd5b505f808573ffffffffffffffffffffffffffffffffffffffff1673ffffffffffffffffffffffffffffffffffffffff1681526020019081526020015f205f8481526020019081526020015f205f8082015f6101000a81549073ffffffffffffffffffffffffffffffffffffffff0219169055600182015f90555050828473ffffffffffffffffffffffffffffffffffffffff163373ffffffffffffffffffffffffffffffffffffffff167f46661dab58311a6838247afecbee792192b4f27fc8b3e7168c66bc55ec2e404e85600101546040516104e29190610f6b565b60405180910390a450505050565b5f602052815f5260405f20602052805f5260405f205f9150915050805f015f9054906101000a900473ffffffffffffffffffffffffffffffffffffffff16908060010154905082565b5f811161057b576040517f08c379a000000000000000000000000000000000000000000000000000000000815260040161057290610ee5565b60405180910390fd5b5f805f8573ffffffffffffffffffffffffffffffffffffffff1673ffffffffffffffffffffffffffffffffffffffff1681526020019081526020015f205f8481526020019081526020015f2090503373ffffffffffffffffffffffffffffffffffffffff16815f015f9054906101000a900473ffffffffffffffffffffffffffffffffffffffff1673ffffffffffffffffffffffffffffffffffffffff1614610659576040517f08c379a00000000000000000000000000000000000000000000000000000000081526004016106509061110a565b60405180910390fd5b5f8490503073ffffffffffffffffffffffffffffffffffffffff168173ffffffffffffffffffffffffffffffffffffffff16636352211e866040518263ffffffff1660e01b81526004016106ad9190610f6b565b602060405180830381865afa1580156106c8573d5f803e3d5ffd5b505050506040513d601f19601f820116820180604052508101906106ec9190610f98565b73ffffffffffffffffffffffffffffffffffffffff1614610742576040517f08c379a00000000000000000000000000000000000000000000000000000000081526004016107399061100d565b60405180910390fd5b828260010181905550838573ffffffffffffffffffffffffffffffffffffffff163373ffffffffffffffffffffffffffffffffffffffff167fb7f0ca7cd5b24651672216886135b99ff40342bcf549009a4c6fc74f059fb9a0866040516107a99190610f6b565b60405180910390a45050505050565b5f8390503073ffffffffffffffffffffffffffffffffffffffff168173ffffffffffffffffffffffffffffffffffffffff1663081812fc856040518263ffffffff1660e01b815260040161080c9190610f6b565b602060405180830381865afa158015610827573d5f803e3d5ffd5b505050506040513d601f19601f8201168201806040525081019061084b9190610f98565b73ffffffffffffffffffffffffffffffffffffffff16146108a1576040517f08c379a000000000000000000000000000000000000000000000000000000000815260040161089890611172565b60405180910390fd5b5f82116108ac575f80fd5b5f805f8673ffffffffffffffffffffffffffffffffffffffff1673ffffffffffffffffffffffffffffffffffffffff1681526020019081526020015f205f8581526020019081526020015f20905033815f015f6101000a81548173ffffffffffffffffffffffffffffffffffffffff021916908373ffffffffffffffffffffffffffffffffffffffff1602179055508281600101819055508173ffffffffffffffffffffffffffffffffffffffff166342842e0e3330876040518463ffffffff1660e01b81526004016109819392919061102b565b5f604051808303815f87803b158015610998575f80fd5b505af11580156109aa573d5f803e3d5ffd5b50505050838573ffffffffffffffffffffffffffffffffffffffff163373ffffffffffffffffffffffffffffffffffffffff167fedbdf022944a3291f4b30148903a84720506f48e10478ec5812e5caf30e1fab086604051610a0c9190610f6b565b60405180910390a45050505050565b5f805f8473ffffffffffffffffffffffffffffffffffffffff1673ffffffffffffffffffffffffffffffffffffffff1681526020019081526020015f205f8381526020019081526020015f2090503373ffffffffffffffffffffffffffffffffffffffff16815f015f9054906101000a900473ffffffffffffffffffffffffffffffffffffffff1673ffffffffffffffffffffffffffffffffffffffff1614610af9576040517f08c379a0000000000000000000000000000000000000000000000000000000008152600401610af09061110a565b60405180910390fd5b5f8390503073ffffffffffffffffffffffffffffffffffffffff168173ffffffffffffffffffffffffffffffffffffffff16636352211e856040518263ffffffff1660e01b8152600401610b4d9190610f6b565b602060405180830381865afa158015610b68573d5f803e3d5ffd5b505050506040513d601f19601f82011682018060405250810190610b8c9190610f98565b73ffffffffffffffffffffffffffffffffffffffff1614610be2576040517f08c379a0000000000000000000000000000000000000000000000000000000008152600401610bd99061100d565b60405180910390fd5b8073ffffffffffffffffffffffffffffffffffffffff166342842e0e3033866040518463ffffffff1660e01b8152600401610c1f9392919061102b565b5f604051808303815f87803b158015610c36575f80fd5b505af1158015610c48573d5f803e3d5ffd5b505050505f808573ffffffffffffffffffffffffffffffffffffffff1673ffffffffffffffffffffffffffffffffffffffff1681526020019081526020015f205f8481526020019081526020015f205f8082015f6101000a81549073ffffffffffffffffffffffffffffffffffffffff0219169055600182015f90555050828473ffffffffffffffffffffffffffffffffffffffff163373ffffffffffffffffffffffffffffffffffffffff167fb698e31a2abee5824d0d7bcfd2339aead7f9e9ae413fba50bf554ff3fa470b7b60405160405180910390a450505050565b5f80fd5b5f73ffffffffffffffffffffffffffffffffffffffff82169050919050565b5f610d5482610d2b565b9050919050565b610d6481610d4a565b8114610d6e575f80fd5b50565b5f81359050610d7f81610d5b565b92915050565b5f819050919050565b610d9781610d85565b8114610da1575f80fd5b50565b5f81359050610db281610d8e565b92915050565b5f8060408385031215610dce57610dcd610d27565b5b5f610ddb85828601610d71565b9250506020610dec85828601610da4565b9150509250929050565b610dff81610d4a565b82525050565b610e0e81610d85565b82525050565b5f604082019050610e275f830185610df6565b610e346020830184610e05565b9392505050565b5f805f60608486031215610e5257610e51610d27565b5b5f610e5f86828701610d71565b9350506020610e7086828701610da4565b9250506040610e8186828701610da4565b9150509250925092565b5f82825260208201905092915050565b7f496e76616c6964205072696365000000000000000000000000000000000000005f82015250565b5f610ecf600d83610e8b565b9150610eda82610e9b565b602082019050919050565b5f6020820190508181035f830152610efc81610ec3565b9050919050565b7f496e6372656173652070726963650000000000000000000000000000000000005f82015250565b5f610f37600e83610e8b565b9150610f4282610f03565b602082019050919050565b5f6020820190508181035f830152610f6481610f2b565b9050919050565b5f602082019050610f7e5f830184610e05565b92915050565b5f81519050610f9281610d5b565b92915050565b5f60208284031215610fad57610fac610d27565b5b5f610fba84828501610f84565b91505092915050565b7f496e76616c6964204f72646572000000000000000000000000000000000000005f82015250565b5f610ff7600d83610e8b565b915061100282610fc3565b602082019050919050565b5f6020820190508181035f83015261102481610feb565b9050919050565b5f60608201905061103e5f830186610df6565b61104b6020830185610df6565b6110586040830184610e05565b949350505050565b7f4e487b71000000000000000000000000000000000000000000000000000000005f52601160045260245ffd5b5f61109782610d85565b91506110a283610d85565b92508282039050818111156110ba576110b9611060565b5b92915050565b7f4e6f74204f776e657200000000000000000000000000000000000000000000005f82015250565b5f6110f4600983610e8b565b91506110ff826110c0565b602082019050919050565b5f6020820190508181035f830152611121816110e8565b9050919050565b7f4e65656420417070726f76616c000000000000000000000000000000000000005f82015250565b5f61115c600d83610e8b565b915061116782611128565b602082019050919050565b5f6020820190508181035f83015261118981611150565b905091905056fea2646970667358221220a5dc0e1d4cf587b0f57d011b6c70ad1b65e6db29e63341824d6f16982ec1bdd064736f6c634300081a0033",
					"opcodes": "PUSH1 0x80 PUSH1 0x40 MSTORE CALLVALUE DUP1 ISZERO PUSH1 0xE JUMPI PUSH0 DUP1 REVERT JUMPDEST POP PUSH2 0x11C6 DUP1 PUSH2 0x1C PUSH0 CODECOPY PUSH0 RETURN INVALID PUSH1 0x80 PUSH1 0x40 MSTORE PUSH1 0x4 CALLDATASIZE LT PUSH2 0x4D JUMPI PUSH0 CALLDATALOAD PUSH1 0xE0 SHR DUP1 PUSH4 0x8DE93222 EQ PUSH2 0x56 JUMPI DUP1 PUSH4 0xBA5F4FB2 EQ PUSH2 0x72 JUMPI DUP1 PUSH4 0xD09B6D43 EQ PUSH2 0xAF JUMPI DUP1 PUSH4 0xDDA342BB EQ PUSH2 0xD7 JUMPI DUP1 PUSH4 0xEAC449D9 EQ PUSH2 0xF3 JUMPI PUSH2 0x54 JUMP JUMPDEST CALLDATASIZE PUSH2 0x54 JUMPI STOP JUMPDEST STOP JUMPDEST PUSH2 0x70 PUSH1 0x4 DUP1 CALLDATASIZE SUB DUP2 ADD SWAP1 PUSH2 0x6B SWAP2 SWAP1 PUSH2 0xDB8 JUMP JUMPDEST PUSH2 0x11B JUMP JUMPDEST STOP JUMPDEST CALLVALUE DUP1 ISZERO PUSH2 0x7D JUMPI PUSH0 DUP1 REVERT JUMPDEST POP PUSH2 0x98 PUSH1 0x4 DUP1 CALLDATASIZE SUB DUP2 ADD SWAP1 PUSH2 0x93 SWAP2 SWAP1 PUSH2 0xDB8 JUMP JUMPDEST PUSH2 0x4F0 JUMP JUMPDEST PUSH1 0x40 MLOAD PUSH2 0xA6 SWAP3 SWAP2 SWAP1 PUSH2 0xE14 JUMP JUMPDEST PUSH1 0x40 MLOAD DUP1 SWAP2 SUB SWAP1 RETURN JUMPDEST CALLVALUE DUP1 ISZERO PUSH2 0xBA JUMPI PUSH0 DUP1 REVERT JUMPDEST POP PUSH2 0xD5 PUSH1 0x4 DUP1 CALLDATASIZE SUB DUP2 ADD SWAP1 PUSH2 0xD0 SWAP2 SWAP1 PUSH2 0xE3B JUMP JUMPDEST PUSH2 0x539 JUMP JUMPDEST STOP JUMPDEST PUSH2 0xF1 PUSH1 0x4 DUP1 CALLDATASIZE SUB DUP2 ADD SWAP1 PUSH2 0xEC SWAP2 SWAP1 PUSH2 0xE3B JUMP JUMPDEST PUSH2 0x7B8 JUMP JUMPDEST STOP JUMPDEST CALLVALUE DUP1 ISZERO PUSH2 0xFE JUMPI PUSH0 DUP1 REVERT JUMPDEST POP PUSH2 0x119 PUSH1 0x4 DUP1 CALLDATASIZE SUB DUP2 ADD SWAP1 PUSH2 0x114 SWAP2 SWAP1 PUSH2 0xDB8 JUMP JUMPDEST PUSH2 0xA1B JUMP JUMPDEST STOP JUMPDEST PUSH0 DUP1 PUSH0 DUP5 PUSH20 0xFFFFFFFFFFFFFFFFFFFFFFFFFFFFFFFFFFFFFFFF AND PUSH20 0xFFFFFFFFFFFFFFFFFFFFFFFFFFFFFFFFFFFFFFFF AND DUP2 MSTORE PUSH1 0x20 ADD SWAP1 DUP2 MSTORE PUSH1 0x20 ADD PUSH0 KECCAK256 PUSH0 DUP4 DUP2 MSTORE PUSH1 0x20 ADD SWAP1 DUP2 MSTORE PUSH1 0x20 ADD PUSH0 KECCAK256 SWAP1 POP PUSH0 DUP2 PUSH1 0x1 ADD SLOAD GT PUSH2 0x1AF JUMPI PUSH1 0x40 MLOAD PUSH32 0x8C379A000000000000000000000000000000000000000000000000000000000 DUP2 MSTORE PUSH1 0x4 ADD PUSH2 0x1A6 SWAP1 PUSH2 0xEE5 JUMP JUMPDEST PUSH1 0x40 MLOAD DUP1 SWAP2 SUB SWAP1 REVERT JUMPDEST DUP1 PUSH1 0x1 ADD SLOAD CALLVALUE LT ISZERO PUSH2 0x1F6 JUMPI PUSH1 0x40 MLOAD PUSH32 0x8C379A000000000000000000000000000000000000000000000000000000000 DUP2 MSTORE PUSH1 0x4 ADD PUSH2 0x1ED SWAP1 PUSH2 0xF4D JUMP JUMPDEST PUSH1 0x40 MLOAD DUP1 SWAP2 SUB SWAP1 REVERT JUMPDEST PUSH0 DUP4 SWAP1 POP ADDRESS PUSH20 0xFFFFFFFFFFFFFFFFFFFFFFFFFFFFFFFFFFFFFFFF AND DUP2 PUSH20 0xFFFFFFFFFFFFFFFFFFFFFFFFFFFFFFFFFFFFFFFF AND PUSH4 0x6352211E DUP6 PUSH1 0x40 MLOAD DUP3 PUSH4 0xFFFFFFFF AND PUSH1 0xE0 SHL DUP2 MSTORE PUSH1 0x4 ADD PUSH2 0x24A SWAP2 SWAP1 PUSH2 0xF6B JUMP JUMPDEST PUSH1 0x20 PUSH1 0x40 MLOAD DUP1 DUP4 SUB DUP2 DUP7 GAS STATICCALL ISZERO DUP1 ISZERO PUSH2 0x265 JUMPI RETURNDATASIZE PUSH0 DUP1 RETURNDATACOPY RETURNDATASIZE PUSH0 REVERT JUMPDEST POP POP POP POP PUSH1 0x40 MLOAD RETURNDATASIZE PUSH1 0x1F NOT PUSH1 0x1F DUP3 ADD AND DUP3 ADD DUP1 PUSH1 0x40 MSTORE POP DUP2 ADD SWAP1 PUSH2 0x289 SWAP2 SWAP1 PUSH2 0xF98 JUMP JUMPDEST PUSH20 0xFFFFFFFFFFFFFFFFFFFFFFFFFFFFFFFFFFFFFFFF AND EQ PUSH2 0x2DF JUMPI PUSH1 0x40 MLOAD PUSH32 0x8C379A000000000000000000000000000000000000000000000000000000000 DUP2 MSTORE PUSH1 0x4 ADD PUSH2 0x2D6 SWAP1 PUSH2 0x100D JUMP JUMPDEST PUSH1 0x40 MLOAD DUP1 SWAP2 SUB SWAP1 REVERT JUMPDEST DUP1 PUSH20 0xFFFFFFFFFFFFFFFFFFFFFFFFFFFFFFFFFFFFFFFF AND PUSH4 0x42842E0E ADDRESS CALLER DUP7 PUSH1 0x40 MLOAD DUP5 PUSH4 0xFFFFFFFF AND PUSH1 0xE0 SHL DUP2 MSTORE PUSH1 0x4 ADD PUSH2 0x31C SWAP4 SWAP3 SWAP2 SWAP1 PUSH2 0x102B JUMP JUMPDEST PUSH0 PUSH1 0x40 MLOAD DUP1 DUP4 SUB DUP2 PUSH0 DUP8 DUP1 EXTCODESIZE ISZERO DUP1 ISZERO PUSH2 0x333 JUMPI PUSH0 DUP1 REVERT JUMPDEST POP GAS CALL ISZERO DUP1 ISZERO PUSH2 0x345 JUMPI RETURNDATASIZE PUSH0 DUP1 RETURNDATACOPY RETURNDATASIZE PUSH0 REVERT JUMPDEST POP POP POP POP DUP2 PUSH0 ADD PUSH0 SWAP1 SLOAD SWAP1 PUSH2 0x100 EXP SWAP1 DIV PUSH20 0xFFFFFFFFFFFFFFFFFFFFFFFFFFFFFFFFFFFFFFFF AND PUSH20 0xFFFFFFFFFFFFFFFFFFFFFFFFFFFFFFFFFFFFFFFF AND PUSH2 0x8FC DUP4 PUSH1 0x1 ADD SLOAD SWAP1 DUP2 ISZERO MUL SWAP1 PUSH1 0x40 MLOAD PUSH0 PUSH1 0x40 MLOAD DUP1 DUP4 SUB DUP2 DUP6 DUP9 DUP9 CALL SWAP4 POP POP POP POP ISZERO DUP1 ISZERO PUSH2 0x3B2 JUMPI RETURNDATASIZE PUSH0 DUP1 RETURNDATACOPY RETURNDATASIZE PUSH0 REVERT JUMPDEST POP CALLER PUSH20 0xFFFFFFFFFFFFFFFFFFFFFFFFFFFFFFFFFFFFFFFF AND PUSH2 0x8FC DUP4 PUSH1 0x1 ADD SLOAD CALLVALUE PUSH2 0x3DD SWAP2 SWAP1 PUSH2 0x108D JUMP JUMPDEST SWAP1 DUP2 ISZERO MUL SWAP1 PUSH1 0x40 MLOAD PUSH0 PUSH1 0x40 MLOAD DUP1 DUP4 SUB DUP2 DUP6 DUP9 DUP9 CALL SWAP4 POP POP POP POP ISZERO DUP1 ISZERO PUSH2 0x405 JUMPI RETURNDATASIZE PUSH0 DUP1 RETURNDATACOPY RETURNDATASIZE PUSH0 REVERT JUMPDEST POP PUSH0 DUP1 DUP6 PUSH20 0xFFFFFFFFFFFFFFFFFFFFFFFFFFFFFFFFFFFFFFFF AND PUSH20 0xFFFFFFFFFFFFFFFFFFFFFFFFFFFFFFFFFFFFFFFF AND DUP2 MSTORE PUSH1 0x20 ADD SWAP1 DUP2 MSTORE PUSH1 0x20 ADD PUSH0 KECCAK256 PUSH0 DUP5 DUP2 MSTORE PUSH1 0x20 ADD SWAP1 DUP2 MSTORE PUSH1 0x20 ADD PUSH0 KECCAK256 PUSH0 DUP1 DUP3 ADD PUSH0 PUSH2 0x100 EXP DUP2 SLOAD SWAP1 PUSH20 0xFFFFFFFFFFFFFFFFFFFFFFFFFFFFFFFFFFFFFFFF MUL NOT AND SWAP1 SSTORE PUSH1 0x1 DUP3 ADD PUSH0 SWAP1 SSTORE POP POP DUP3 DUP5 PUSH20 0xFFFFFFFFFFFFFFFFFFFFFFFFFFFFFFFFFFFFFFFF AND CALLER PUSH20 0xFFFFFFFFFFFFFFFFFFFFFFFFFFFFFFFFFFFFFFFF AND PUSH32 0x46661DAB58311A6838247AFECBEE792192B4F27FC8B3E7168C66BC55EC2E404E DUP6 PUSH1 0x1 ADD SLOAD PUSH1 0x40 MLOAD PUSH2 0x4E2 SWAP2 SWAP1 PUSH2 0xF6B JUMP JUMPDEST PUSH1 0x40 MLOAD DUP1 SWAP2 SUB SWAP1 LOG4 POP POP POP POP JUMP JUMPDEST PUSH0 PUSH1 0x20 MSTORE DUP2 PUSH0 MSTORE PUSH1 0x40 PUSH0 KECCAK256 PUSH1 0x20 MSTORE DUP1 PUSH0 MSTORE PUSH1 0x40 PUSH0 KECCAK256 PUSH0 SWAP2 POP SWAP2 POP POP DUP1 PUSH0 ADD PUSH0 SWAP1 SLOAD SWAP1 PUSH2 0x100 EXP SWAP1 DIV PUSH20 0xFFFFFFFFFFFFFFFFFFFFFFFFFFFFFFFFFFFFFFFF AND SWAP1 DUP1 PUSH1 0x1 ADD SLOAD SWAP1 POP DUP3 JUMP JUMPDEST PUSH0 DUP2 GT PUSH2 0x57B JUMPI PUSH1 0x40 MLOAD PUSH32 0x8C379A000000000000000000000000000000000000000000000000000000000 DUP2 MSTORE PUSH1 0x4 ADD PUSH2 0x572 SWAP1 PUSH2 0xEE5 JUMP JUMPDEST PUSH1 0x40 MLOAD DUP1 SWAP2 SUB SWAP1 REVERT JUMPDEST PUSH0 DUP1 PUSH0 DUP6 PUSH20 0xFFFFFFFFFFFFFFFFFFFFFFFFFFFFFFFFFFFFFFFF AND PUSH20 0xFFFFFFFFFFFFFFFFFFFFFFFFFFFFFFFFFFFFFFFF AND DUP2 MSTORE PUSH1 0x20 ADD SWAP1 DUP2 MSTORE PUSH1 0x20 ADD PUSH0 KECCAK256 PUSH0 DUP5 DUP2 MSTORE PUSH1 0x20 ADD SWAP1 DUP2 MSTORE PUSH1 0x20 ADD PUSH0 KECCAK256 SWAP1 POP CALLER PUSH20 0xFFFFFFFFFFFFFFFFFFFFFFFFFFFFFFFFFFFFFFFF AND DUP2 PUSH0 ADD PUSH0 SWAP1 SLOAD SWAP1 PUSH2 0x100 EXP SWAP1 DIV PUSH20 0xFFFFFFFFFFFFFFFFFFFFFFFFFFFFFFFFFFFFFFFF AND PUSH20 0xFFFFFFFFFFFFFFFFFFFFFFFFFFFFFFFFFFFFFFFF AND EQ PUSH2 0x659 JUMPI PUSH1 0x40 MLOAD PUSH32 0x8C379A000000000000000000000000000000000000000000000000000000000 DUP2 MSTORE PUSH1 0x4 ADD PUSH2 0x650 SWAP1 PUSH2 0x110A JUMP JUMPDEST PUSH1 0x40 MLOAD DUP1 SWAP2 SUB SWAP1 REVERT JUMPDEST PUSH0 DUP5 SWAP1 POP ADDRESS PUSH20 0xFFFFFFFFFFFFFFFFFFFFFFFFFFFFFFFFFFFFFFFF AND DUP2 PUSH20 0xFFFFFFFFFFFFFFFFFFFFFFFFFFFFFFFFFFFFFFFF AND PUSH4 0x6352211E DUP7 PUSH1 0x40 MLOAD DUP3 PUSH4 0xFFFFFFFF AND PUSH1 0xE0 SHL DUP2 MSTORE PUSH1 0x4 ADD PUSH2 0x6AD SWAP2 SWAP1 PUSH2 0xF6B JUMP JUMPDEST PUSH1 0x20 PUSH1 0x40 MLOAD DUP1 DUP4 SUB DUP2 DUP7 GAS STATICCALL ISZERO DUP1 ISZERO PUSH2 0x6C8 JUMPI RETURNDATASIZE PUSH0 DUP1 RETURNDATACOPY RETURNDATASIZE PUSH0 REVERT JUMPDEST POP POP POP POP PUSH1 0x40 MLOAD RETURNDATASIZE PUSH1 0x1F NOT PUSH1 0x1F DUP3 ADD AND DUP3 ADD DUP1 PUSH1 0x40 MSTORE POP DUP2 ADD SWAP1 PUSH2 0x6EC SWAP2 SWAP1 PUSH2 0xF98 JUMP JUMPDEST PUSH20 0xFFFFFFFFFFFFFFFFFFFFFFFFFFFFFFFFFFFFFFFF AND EQ PUSH2 0x742 JUMPI PUSH1 0x40 MLOAD PUSH32 0x8C379A000000000000000000000000000000000000000000000000000000000 DUP2 MSTORE PUSH1 0x4 ADD PUSH2 0x739 SWAP1 PUSH2 0x100D JUMP JUMPDEST PUSH1 0x40 MLOAD DUP1 SWAP2 SUB SWAP1 REVERT JUMPDEST DUP3 DUP3 PUSH1 0x1 ADD DUP2 SWAP1 SSTORE POP DUP4 DUP6 PUSH20 0xFFFFFFFFFFFFFFFFFFFFFFFFFFFFFFFFFFFFFFFF AND CALLER PUSH20 0xFFFFFFFFFFFFFFFFFFFFFFFFFFFFFFFFFFFFFFFF AND PUSH32 0xB7F0CA7CD5B24651672216886135B99FF40342BCF549009A4C6FC74F059FB9A0 DUP7 PUSH1 0x40 MLOAD PUSH2 0x7A9 SWAP2 SWAP1 PUSH2 0xF6B JUMP JUMPDEST PUSH1 0x40 MLOAD DUP1 SWAP2 SUB SWAP1 LOG4 POP POP POP POP POP JUMP JUMPDEST PUSH0 DUP4 SWAP1 POP ADDRESS PUSH20 0xFFFFFFFFFFFFFFFFFFFFFFFFFFFFFFFFFFFFFFFF AND DUP2 PUSH20 0xFFFFFFFFFFFFFFFFFFFFFFFFFFFFFFFFFFFFFFFF AND PUSH4 0x81812FC DUP6 PUSH1 0x40 MLOAD DUP3 PUSH4 0xFFFFFFFF AND PUSH1 0xE0 SHL DUP2 MSTORE PUSH1 0x4 ADD PUSH2 0x80C SWAP2 SWAP1 PUSH2 0xF6B JUMP JUMPDEST PUSH1 0x20 PUSH1 0x40 MLOAD DUP1 DUP4 SUB DUP2 DUP7 GAS STATICCALL ISZERO DUP1 ISZERO PUSH2 0x827 JUMPI RETURNDATASIZE PUSH0 DUP1 RETURNDATACOPY RETURNDATASIZE PUSH0 REVERT JUMPDEST POP POP POP POP PUSH1 0x40 MLOAD RETURNDATASIZE PUSH1 0x1F NOT PUSH1 0x1F DUP3 ADD AND DUP3 ADD DUP1 PUSH1 0x40 MSTORE POP DUP2 ADD SWAP1 PUSH2 0x84B SWAP2 SWAP1 PUSH2 0xF98 JUMP JUMPDEST PUSH20 0xFFFFFFFFFFFFFFFFFFFFFFFFFFFFFFFFFFFFFFFF AND EQ PUSH2 0x8A1 JUMPI PUSH1 0x40 MLOAD PUSH32 0x8C379A000000000000000000000000000000000000000000000000000000000 DUP2 MSTORE PUSH1 0x4 ADD PUSH2 0x898 SWAP1 PUSH2 0x1172 JUMP JUMPDEST PUSH1 0x40 MLOAD DUP1 SWAP2 SUB SWAP1 REVERT JUMPDEST PUSH0 DUP3 GT PUSH2 0x8AC JUMPI PUSH0 DUP1 REVERT JUMPDEST PUSH0 DUP1 PUSH0 DUP7 PUSH20 0xFFFFFFFFFFFFFFFFFFFFFFFFFFFFFFFFFFFFFFFF AND PUSH20 0xFFFFFFFFFFFFFFFFFFFFFFFFFFFFFFFFFFFFFFFF AND DUP2 MSTORE PUSH1 0x20 ADD SWAP1 DUP2 MSTORE PUSH1 0x20 ADD PUSH0 KECCAK256 PUSH0 DUP6 DUP2 MSTORE PUSH1 0x20 ADD SWAP1 DUP2 MSTORE PUSH1 0x20 ADD PUSH0 KECCAK256 SWAP1 POP CALLER DUP2 PUSH0 ADD PUSH0 PUSH2 0x100 EXP DUP2 SLOAD DUP2 PUSH20 0xFFFFFFFFFFFFFFFFFFFFFFFFFFFFFFFFFFFFFFFF MUL NOT AND SWAP1 DUP4 PUSH20 0xFFFFFFFFFFFFFFFFFFFFFFFFFFFFFFFFFFFFFFFF AND MUL OR SWAP1 SSTORE POP DUP3 DUP2 PUSH1 0x1 ADD DUP2 SWAP1 SSTORE POP DUP2 PUSH20 0xFFFFFFFFFFFFFFFFFFFFFFFFFFFFFFFFFFFFFFFF AND PUSH4 0x42842E0E CALLER ADDRESS DUP8 PUSH1 0x40 MLOAD DUP5 PUSH4 0xFFFFFFFF AND PUSH1 0xE0 SHL DUP2 MSTORE PUSH1 0x4 ADD PUSH2 0x981 SWAP4 SWAP3 SWAP2 SWAP1 PUSH2 0x102B JUMP JUMPDEST PUSH0 PUSH1 0x40 MLOAD DUP1 DUP4 SUB DUP2 PUSH0 DUP8 DUP1 EXTCODESIZE ISZERO DUP1 ISZERO PUSH2 0x998 JUMPI PUSH0 DUP1 REVERT JUMPDEST POP GAS CALL ISZERO DUP1 ISZERO PUSH2 0x9AA JUMPI RETURNDATASIZE PUSH0 DUP1 RETURNDATACOPY RETURNDATASIZE PUSH0 REVERT JUMPDEST POP POP POP POP DUP4 DUP6 PUSH20 0xFFFFFFFFFFFFFFFFFFFFFFFFFFFFFFFFFFFFFFFF AND CALLER PUSH20 0xFFFFFFFFFFFFFFFFFFFFFFFFFFFFFFFFFFFFFFFF AND PUSH32 0xEDBDF022944A3291F4B30148903A84720506F48E10478EC5812E5CAF30E1FAB0 DUP7 PUSH1 0x40 MLOAD PUSH2 0xA0C SWAP2 SWAP1 PUSH2 0xF6B JUMP JUMPDEST PUSH1 0x40 MLOAD DUP1 SWAP2 SUB SWAP1 LOG4 POP POP POP POP POP JUMP JUMPDEST PUSH0 DUP1 PUSH0 DUP5 PUSH20 0xFFFFFFFFFFFFFFFFFFFFFFFFFFFFFFFFFFFFFFFF AND PUSH20 0xFFFFFFFFFFFFFFFFFFFFFFFFFFFFFFFFFFFFFFFF AND DUP2 MSTORE PUSH1 0x20 ADD SWAP1 DUP2 MSTORE PUSH1 0x20 ADD PUSH0 KECCAK256 PUSH0 DUP4 DUP2 MSTORE PUSH1 0x20 ADD SWAP1 DUP2 MSTORE PUSH1 0x20 ADD PUSH0 KECCAK256 SWAP1 POP CALLER PUSH20 0xFFFFFFFFFFFFFFFFFFFFFFFFFFFFFFFFFFFFFFFF AND DUP2 PUSH0 ADD PUSH0 SWAP1 SLOAD SWAP1 PUSH2 0x100 EXP SWAP1 DIV PUSH20 0xFFFFFFFFFFFFFFFFFFFFFFFFFFFFFFFFFFFFFFFF AND PUSH20 0xFFFFFFFFFFFFFFFFFFFFFFFFFFFFFFFFFFFFFFFF AND EQ PUSH2 0xAF9 JUMPI PUSH1 0x40 MLOAD PUSH32 0x8C379A000000000000000000000000000000000000000000000000000000000 DUP2 MSTORE PUSH1 0x4 ADD PUSH2 0xAF0 SWAP1 PUSH2 0x110A JUMP JUMPDEST PUSH1 0x40 MLOAD DUP1 SWAP2 SUB SWAP1 REVERT JUMPDEST PUSH0 DUP4 SWAP1 POP ADDRESS PUSH20 0xFFFFFFFFFFFFFFFFFFFFFFFFFFFFFFFFFFFFFFFF AND DUP2 PUSH20 0xFFFFFFFFFFFFFFFFFFFFFFFFFFFFFFFFFFFFFFFF AND PUSH4 0x6352211E DUP6 PUSH1 0x40 MLOAD DUP3 PUSH4 0xFFFFFFFF AND PUSH1 0xE0 SHL DUP2 MSTORE PUSH1 0x4 ADD PUSH2 0xB4D SWAP2 SWAP1 PUSH2 0xF6B JUMP JUMPDEST PUSH1 0x20 PUSH1 0x40 MLOAD DUP1 DUP4 SUB DUP2 DUP7 GAS STATICCALL ISZERO DUP1 ISZERO PUSH2 0xB68 JUMPI RETURNDATASIZE PUSH0 DUP1 RETURNDATACOPY RETURNDATASIZE PUSH0 REVERT JUMPDEST POP POP POP POP PUSH1 0x40 MLOAD RETURNDATASIZE PUSH1 0x1F NOT PUSH1 0x1F DUP3 ADD AND DUP3 ADD DUP1 PUSH1 0x40 MSTORE POP DUP2 ADD SWAP1 PUSH2 0xB8C SWAP2 SWAP1 PUSH2 0xF98 JUMP JUMPDEST PUSH20 0xFFFFFFFFFFFFFFFFFFFFFFFFFFFFFFFFFFFFFFFF AND EQ PUSH2 0xBE2 JUMPI PUSH1 0x40 MLOAD PUSH32 0x8C379A000000000000000000000000000000000000000000000000000000000 DUP2 MSTORE PUSH1 0x4 ADD PUSH2 0xBD9 SWAP1 PUSH2 0x100D JUMP JUMPDEST PUSH1 0x40 MLOAD DUP1 SWAP2 SUB SWAP1 REVERT JUMPDEST DUP1 PUSH20 0xFFFFFFFFFFFFFFFFFFFFFFFFFFFFFFFFFFFFFFFF AND PUSH4 0x42842E0E ADDRESS CALLER DUP7 PUSH1 0x40 MLOAD DUP5 PUSH4 0xFFFFFFFF AND PUSH1 0xE0 SHL DUP2 MSTORE PUSH1 0x4 ADD PUSH2 0xC1F SWAP4 SWAP3 SWAP2 SWAP1 PUSH2 0x102B JUMP JUMPDEST PUSH0 PUSH1 0x40 MLOAD DUP1 DUP4 SUB DUP2 PUSH0 DUP8 DUP1 EXTCODESIZE ISZERO DUP1 ISZERO PUSH2 0xC36 JUMPI PUSH0 DUP1 REVERT JUMPDEST POP GAS CALL ISZERO DUP1 ISZERO PUSH2 0xC48 JUMPI RETURNDATASIZE PUSH0 DUP1 RETURNDATACOPY RETURNDATASIZE PUSH0 REVERT JUMPDEST POP POP POP POP PUSH0 DUP1 DUP6 PUSH20 0xFFFFFFFFFFFFFFFFFFFFFFFFFFFFFFFFFFFFFFFF AND PUSH20 0xFFFFFFFFFFFFFFFFFFFFFFFFFFFFFFFFFFFFFFFF AND DUP2 MSTORE PUSH1 0x20 ADD SWAP1 DUP2 MSTORE PUSH1 0x20 ADD PUSH0 KECCAK256 PUSH0 DUP5 DUP2 MSTORE PUSH1 0x20 ADD SWAP1 DUP2 MSTORE PUSH1 0x20 ADD PUSH0 KECCAK256 PUSH0 DUP1 DUP3 ADD PUSH0 PUSH2 0x100 EXP DUP2 SLOAD SWAP1 PUSH20 0xFFFFFFFFFFFFFFFFFFFFFFFFFFFFFFFFFFFFFFFF MUL NOT AND SWAP1 SSTORE PUSH1 0x1 DUP3 ADD PUSH0 SWAP1 SSTORE POP POP DUP3 DUP5 PUSH20 0xFFFFFFFFFFFFFFFFFFFFFFFFFFFFFFFFFFFFFFFF AND CALLER PUSH20 0xFFFFFFFFFFFFFFFFFFFFFFFFFFFFFFFFFFFFFFFF AND PUSH32 0xB698E31A2ABEE5824D0D7BCFD2339AEAD7F9E9AE413FBA50BF554FF3FA470B7B PUSH1 0x40 MLOAD PUSH1 0x40 MLOAD DUP1 SWAP2 SUB SWAP1 LOG4 POP POP POP POP JUMP JUMPDEST PUSH0 DUP1 REVERT JUMPDEST PUSH0 PUSH20 0xFFFFFFFFFFFFFFFFFFFFFFFFFFFFFFFFFFFFFFFF DUP3 AND SWAP1 POP SWAP2 SWAP1 POP JUMP JUMPDEST PUSH0 PUSH2 0xD54 DUP3 PUSH2 0xD2B JUMP JUMPDEST SWAP1 POP SWAP2 SWAP1 POP JUMP JUMPDEST PUSH2 0xD64 DUP2 PUSH2 0xD4A JUMP JUMPDEST DUP2 EQ PUSH2 0xD6E JUMPI PUSH0 DUP1 REVERT JUMPDEST POP JUMP JUMPDEST PUSH0 DUP2 CALLDATALOAD SWAP1 POP PUSH2 0xD7F DUP2 PUSH2 0xD5B JUMP JUMPDEST SWAP3 SWAP2 POP POP JUMP JUMPDEST PUSH0 DUP2 SWAP1 POP SWAP2 SWAP1 POP JUMP JUMPDEST PUSH2 0xD97 DUP2 PUSH2 0xD85 JUMP JUMPDEST DUP2 EQ PUSH2 0xDA1 JUMPI PUSH0 DUP1 REVERT JUMPDEST POP JUMP JUMPDEST PUSH0 DUP2 CALLDATALOAD SWAP1 POP PUSH2 0xDB2 DUP2 PUSH2 0xD8E JUMP JUMPDEST SWAP3 SWAP2 POP POP JUMP JUMPDEST PUSH0 DUP1 PUSH1 0x40 DUP4 DUP6 SUB SLT ISZERO PUSH2 0xDCE JUMPI PUSH2 0xDCD PUSH2 0xD27 JUMP JUMPDEST JUMPDEST PUSH0 PUSH2 0xDDB DUP6 DUP3 DUP7 ADD PUSH2 0xD71 JUMP JUMPDEST SWAP3 POP POP PUSH1 0x20 PUSH2 0xDEC DUP6 DUP3 DUP7 ADD PUSH2 0xDA4 JUMP JUMPDEST SWAP2 POP POP SWAP3 POP SWAP3 SWAP1 POP JUMP JUMPDEST PUSH2 0xDFF DUP2 PUSH2 0xD4A JUMP JUMPDEST DUP3 MSTORE POP POP JUMP JUMPDEST PUSH2 0xE0E DUP2 PUSH2 0xD85 JUMP JUMPDEST DUP3 MSTORE POP POP JUMP JUMPDEST PUSH0 PUSH1 0x40 DUP3 ADD SWAP1 POP PUSH2 0xE27 PUSH0 DUP4 ADD DUP6 PUSH2 0xDF6 JUMP JUMPDEST PUSH2 0xE34 PUSH1 0x20 DUP4 ADD DUP5 PUSH2 0xE05 JUMP JUMPDEST SWAP4 SWAP3 POP POP POP JUMP JUMPDEST PUSH0 DUP1 PUSH0 PUSH1 0x60 DUP5 DUP7 SUB SLT ISZERO PUSH2 0xE52 JUMPI PUSH2 0xE51 PUSH2 0xD27 JUMP JUMPDEST JUMPDEST PUSH0 PUSH2 0xE5F DUP7 DUP3 DUP8 ADD PUSH2 0xD71 JUMP JUMPDEST SWAP4 POP POP PUSH1 0x20 PUSH2 0xE70 DUP7 DUP3 DUP8 ADD PUSH2 0xDA4 JUMP JUMPDEST SWAP3 POP POP PUSH1 0x40 PUSH2 0xE81 DUP7 DUP3 DUP8 ADD PUSH2 0xDA4 JUMP JUMPDEST SWAP2 POP POP SWAP3 POP SWAP3 POP SWAP3 JUMP JUMPDEST PUSH0 DUP3 DUP3 MSTORE PUSH1 0x20 DUP3 ADD SWAP1 POP SWAP3 SWAP2 POP POP JUMP JUMPDEST PUSH32 0x496E76616C696420507269636500000000000000000000000000000000000000 PUSH0 DUP3 ADD MSTORE POP JUMP JUMPDEST PUSH0 PUSH2 0xECF PUSH1 0xD DUP4 PUSH2 0xE8B JUMP JUMPDEST SWAP2 POP PUSH2 0xEDA DUP3 PUSH2 0xE9B JUMP JUMPDEST PUSH1 0x20 DUP3 ADD SWAP1 POP SWAP2 SWAP1 POP JUMP JUMPDEST PUSH0 PUSH1 0x20 DUP3 ADD SWAP1 POP DUP2 DUP2 SUB PUSH0 DUP4 ADD MSTORE PUSH2 0xEFC DUP2 PUSH2 0xEC3 JUMP JUMPDEST SWAP1 POP SWAP2 SWAP1 POP JUMP JUMPDEST PUSH32 0x496E637265617365207072696365000000000000000000000000000000000000 PUSH0 DUP3 ADD MSTORE POP JUMP JUMPDEST PUSH0 PUSH2 0xF37 PUSH1 0xE DUP4 PUSH2 0xE8B JUMP JUMPDEST SWAP2 POP PUSH2 0xF42 DUP3 PUSH2 0xF03 JUMP JUMPDEST PUSH1 0x20 DUP3 ADD SWAP1 POP SWAP2 SWAP1 POP JUMP JUMPDEST PUSH0 PUSH1 0x20 DUP3 ADD SWAP1 POP DUP2 DUP2 SUB PUSH0 DUP4 ADD MSTORE PUSH2 0xF64 DUP2 PUSH2 0xF2B JUMP JUMPDEST SWAP1 POP SWAP2 SWAP1 POP JUMP JUMPDEST PUSH0 PUSH1 0x20 DUP3 ADD SWAP1 POP PUSH2 0xF7E PUSH0 DUP4 ADD DUP5 PUSH2 0xE05 JUMP JUMPDEST SWAP3 SWAP2 POP POP JUMP JUMPDEST PUSH0 DUP2 MLOAD SWAP1 POP PUSH2 0xF92 DUP2 PUSH2 0xD5B JUMP JUMPDEST SWAP3 SWAP2 POP POP JUMP JUMPDEST PUSH0 PUSH1 0x20 DUP3 DUP5 SUB SLT ISZERO PUSH2 0xFAD JUMPI PUSH2 0xFAC PUSH2 0xD27 JUMP JUMPDEST JUMPDEST PUSH0 PUSH2 0xFBA DUP5 DUP3 DUP6 ADD PUSH2 0xF84 JUMP JUMPDEST SWAP2 POP POP SWAP3 SWAP2 POP POP JUMP JUMPDEST PUSH32 0x496E76616C6964204F7264657200000000000000000000000000000000000000 PUSH0 DUP3 ADD MSTORE POP JUMP JUMPDEST PUSH0 PUSH2 0xFF7 PUSH1 0xD DUP4 PUSH2 0xE8B JUMP JUMPDEST SWAP2 POP PUSH2 0x1002 DUP3 PUSH2 0xFC3 JUMP JUMPDEST PUSH1 0x20 DUP3 ADD SWAP1 POP SWAP2 SWAP1 POP JUMP JUMPDEST PUSH0 PUSH1 0x20 DUP3 ADD SWAP1 POP DUP2 DUP2 SUB PUSH0 DUP4 ADD MSTORE PUSH2 0x1024 DUP2 PUSH2 0xFEB JUMP JUMPDEST SWAP1 POP SWAP2 SWAP1 POP JUMP JUMPDEST PUSH0 PUSH1 0x60 DUP3 ADD SWAP1 POP PUSH2 0x103E PUSH0 DUP4 ADD DUP7 PUSH2 0xDF6 JUMP JUMPDEST PUSH2 0x104B PUSH1 0x20 DUP4 ADD DUP6 PUSH2 0xDF6 JUMP JUMPDEST PUSH2 0x1058 PUSH1 0x40 DUP4 ADD DUP5 PUSH2 0xE05 JUMP JUMPDEST SWAP5 SWAP4 POP POP POP POP JUMP JUMPDEST PUSH32 0x4E487B7100000000000000000000000000000000000000000000000000000000 PUSH0 MSTORE PUSH1 0x11 PUSH1 0x4 MSTORE PUSH1 0x24 PUSH0 REVERT JUMPDEST PUSH0 PUSH2 0x1097 DUP3 PUSH2 0xD85 JUMP JUMPDEST SWAP2 POP PUSH2 0x10A2 DUP4 PUSH2 0xD85 JUMP JUMPDEST SWAP3 POP DUP3 DUP3 SUB SWAP1 POP DUP2 DUP2 GT ISZERO PUSH2 0x10BA JUMPI PUSH2 0x10B9 PUSH2 0x1060 JUMP JUMPDEST JUMPDEST SWAP3 SWAP2 POP POP JUMP JUMPDEST PUSH32 0x4E6F74204F776E65720000000000000000000000000000000000000000000000 PUSH0 DUP3 ADD MSTORE POP JUMP JUMPDEST PUSH0 PUSH2 0x10F4 PUSH1 0x9 DUP4 PUSH2 0xE8B JUMP JUMPDEST SWAP2 POP PUSH2 0x10FF DUP3 PUSH2 0x10C0 JUMP JUMPDEST PUSH1 0x20 DUP3 ADD SWAP1 POP SWAP2 SWAP1 POP JUMP JUMPDEST PUSH0 PUSH1 0x20 DUP3 ADD SWAP1 POP DUP2 DUP2 SUB PUSH0 DUP4 ADD MSTORE PUSH2 0x1121 DUP2 PUSH2 0x10E8 JUMP JUMPDEST SWAP1 POP SWAP2 SWAP1 POP JUMP JUMPDEST PUSH32 0x4E65656420417070726F76616C00000000000000000000000000000000000000 PUSH0 DUP3 ADD MSTORE POP JUMP JUMPDEST PUSH0 PUSH2 0x115C PUSH1 0xD DUP4 PUSH2 0xE8B JUMP JUMPDEST SWAP2 POP PUSH2 0x1167 DUP3 PUSH2 0x1128 JUMP JUMPDEST PUSH1 0x20 DUP3 ADD SWAP1 POP SWAP2 SWAP1 POP JUMP JUMPDEST PUSH0 PUSH1 0x20 DUP3 ADD SWAP1 POP DUP2 DUP2 SUB PUSH0 DUP4 ADD MSTORE PUSH2 0x1189 DUP2 PUSH2 0x1150 JUMP JUMPDEST SWAP1 POP SWAP2 SWAP1 POP JUMP INVALID LOG2 PUSH5 0x6970667358 0x22 SLT KECCAK256 0xA5 0xDC 0xE SAR 0x4C CREATE2 DUP8 0xB0 CREATE2 PUSH30 0x11B6C70AD1B65E6DB29E63341824D6F16982EC1BDD064736F6C63430008 BYTE STOP CALLER "
				},
				"gasEstimates": {
					"creation": {
						"codeDepositCost": "910000",
						"executionCost": "946",
						"totalCost": "910946"
					},
					"external": {
						"": "172",
						"list(address,uint256,uint256)": "infinite",
						"nftList(address,uint256)": "infinite",
						"purchase(address,uint256)": "infinite",
						"revoke(address,uint256)": "infinite",
						"update(address,uint256,uint256)": "infinite"
					}
				},
				"methodIdentifiers": {
					"list(address,uint256,uint256)": "dda342bb",
					"nftList(address,uint256)": "ba5f4fb2",
					"purchase(address,uint256)": "8de93222",
					"revoke(address,uint256)": "eac449d9",
					"update(address,uint256,uint256)": "d09b6d43"
				}
			},
			"storageLayout": {
				"storage": [
					{
						"astId": 277,
						"contract": "NFTMarket.sol:NFTMarket",
						"label": "nftList",
						"offset": 0,
						"slot": "0",
						"type": "t_mapping(t_address,t_mapping(t_uint256,t_struct(Order)270_storage))"
					}
				],
				"types": {
					"t_address": {
						"encoding": "inplace",
						"label": "address",
						"numberOfBytes": "20"
					},
					"t_mapping(t_address,t_mapping(t_uint256,t_struct(Order)270_storage))": {
						"encoding": "mapping",
						"key": "t_address",
						"label": "mapping(address => mapping(uint256 => struct NFTMarket.Order))",
						"numberOfBytes": "32",
						"value": "t_mapping(t_uint256,t_struct(Order)270_storage)"
					},
					"t_mapping(t_uint256,t_struct(Order)270_storage)": {
						"encoding": "mapping",
						"key": "t_uint256",
						"label": "mapping(uint256 => struct NFTMarket.Order)",
						"numberOfBytes": "32",
						"value": "t_struct(Order)270_storage"
					},
					"t_struct(Order)270_storage": {
						"encoding": "inplace",
						"label": "struct NFTMarket.Order",
						"members": [
							{
								"astId": 267,
								"contract": "NFTMarket.sol:NFTMarket",
								"label": "owner",
								"offset": 0,
								"slot": "0",
								"type": "t_address"
							},
							{
								"astId": 269,
								"contract": "NFTMarket.sol:NFTMarket",
								"label": "price",
								"offset": 0,
								"slot": "1",
								"type": "t_uint256"
							}
						],
						"numberOfBytes": "64"
					},
					"t_uint256": {
						"encoding": "inplace",
						"label": "uint256",
						"numberOfBytes": "32"
					}
				}
			},
			"userdoc": {
				"kind": "user",
				"methods": {},
				"version": 1
			}
		}
	}
}