{
	"NFTMarket.sol": {
		"NFTMarket": {
			"abi": [
				{
					"inputs": [
						{
							"internalType": "address",
							"name": "_erc20",
							"type": "address"
						}
					],
					"stateMutability": "nonpayable",
					"type": "constructor"
				},
				{
					"anonymous": false,
					"inputs": [
						{
							"indexed": true,
							"internalType": "address",
							"name": "seller",
							"type": "address"
						},
						{
							"indexed": true,
							"internalType": "address",
							"name": "nftAddr",
							"type": "address"
						},
						{
							"indexed": true,
							"internalType": "uint256",
							"name": "tokenId",
							"type": "uint256"
						},
						{
							"indexed": false,
							"internalType": "uint256",
							"name": "price",
							"type": "uint256"
						}
					],
					"name": "List",
					"type": "event"
				},
				{
					"anonymous": false,
					"inputs": [
						{
							"indexed": true,
							"internalType": "address",
							"name": "buyer",
							"type": "address"
						},
						{
							"indexed": true,
							"internalType": "address",
							"name": "nftAddr",
							"type": "address"
						},
						{
							"indexed": true,
							"internalType": "uint256",
							"name": "tokenId",
							"type": "uint256"
						},
						{
							"indexed": false,
							"internalType": "uint256",
							"name": "price",
							"type": "uint256"
						}
					],
					"name": "Purchase",
					"type": "event"
				},
				{
					"stateMutability": "payable",
					"type": "fallback"
				},
				{
					"inputs": [
						{
							"internalType": "address",
							"name": "_nftAddr",
							"type": "address"
						},
						{
							"internalType": "uint256",
							"name": "_tokenId",
							"type": "uint256"
						},
						{
							"internalType": "uint256",
							"name": "_price",
							"type": "uint256"
						}
					],
					"name": "list",
					"outputs": [],
					"stateMutability": "nonpayable",
					"type": "function"
				},
				{
					"inputs": [
						{
							"internalType": "address",
							"name": "",
							"type": "address"
						},
						{
							"internalType": "uint256",
							"name": "",
							"type": "uint256"
						}
					],
					"name": "nftList",
					"outputs": [
						{
							"internalType": "address",
							"name": "owner",
							"type": "address"
						},
						{
							"internalType": "uint256",
							"name": "price",
							"type": "uint256"
						}
					],
					"stateMutability": "view",
					"type": "function"
				},
				{
					"inputs": [
						{
							"internalType": "address",
							"name": "_nftAddr",
							"type": "address"
						},
						{
							"internalType": "uint256",
							"name": "_tokenId",
							"type": "uint256"
						}
					],
					"name": "purchase",
					"outputs": [],
					"stateMutability": "nonpayable",
					"type": "function"
				},
				{
					"stateMutability": "payable",
					"type": "receive"
				}
			],
			"devdoc": {
				"kind": "dev",
				"methods": {},
				"version": 1
			},
			"evm": {
				"assembly": "    /* \"NFTMarket.sol\":176:2041  contract NFTMarket {... */\n  mstore(0x40, 0x80)\n    /* \"NFTMarket.sol\":707:774  constructor(address _erc20) {... */\n  callvalue\n  dup1\n  iszero\n  tag_1\n  jumpi\n  0x00\n  dup1\n  revert\ntag_1:\n  pop\n  mload(0x40)\n  sub(codesize, bytecodeSize)\n  dup1\n  bytecodeSize\n  dup4\n  codecopy\n  dup2\n  dup2\n  add\n  0x40\n  mstore\n  dup2\n  add\n  swap1\n  tag_2\n  swap2\n  swap1\n  tag_3\n  jump\t// in\ntag_2:\n    /* \"NFTMarket.sol\":759:765  _erc20 */\n  dup1\n    /* \"NFTMarket.sol\":746:749  YMT */\n  0x01\n  0x00\n    /* \"NFTMarket.sol\":746:766  YMT = IERC20(_erc20) */\n  0x0100\n  exp\n  dup2\n  sload\n  dup2\n  0xffffffffffffffffffffffffffffffffffffffff\n  mul\n  not\n  and\n  swap1\n  dup4\n  0xffffffffffffffffffffffffffffffffffffffff\n  and\n  mul\n  or\n  swap1\n  sstore\n  pop\n    /* \"NFTMarket.sol\":707:774  constructor(address _erc20) {... */\n  pop\n    /* \"NFTMarket.sol\":176:2041  contract NFTMarket {... */\n  jump(tag_6)\n    /* \"#utility.yul\":88:205   */\ntag_8:\n    /* \"#utility.yul\":197:198   */\n  0x00\n    /* \"#utility.yul\":194:195   */\n  dup1\n    /* \"#utility.yul\":187:199   */\n  revert\n    /* \"#utility.yul\":334:460   */\ntag_10:\n    /* \"#utility.yul\":371:378   */\n  0x00\n    /* \"#utility.yul\":411:453   */\n  0xffffffffffffffffffffffffffffffffffffffff\n    /* \"#utility.yul\":404:409   */\n  dup3\n    /* \"#utility.yul\":400:454   */\n  and\n    /* \"#utility.yul\":389:454   */\n  swap1\n  pop\n    /* \"#utility.yul\":334:460   */\n  swap2\n  swap1\n  pop\n  jump\t// out\n    /* \"#utility.yul\":466:562   */\ntag_11:\n    /* \"#utility.yul\":503:510   */\n  0x00\n    /* \"#utility.yul\":532:556   */\n  tag_20\n    /* \"#utility.yul\":550:555   */\n  dup3\n    /* \"#utility.yul\":532:556   */\n  tag_10\n  jump\t// in\ntag_20:\n    /* \"#utility.yul\":521:556   */\n  swap1\n  pop\n    /* \"#utility.yul\":466:562   */\n  swap2\n  swap1\n  pop\n  jump\t// out\n    /* \"#utility.yul\":568:690   */\ntag_12:\n    /* \"#utility.yul\":641:665   */\n  tag_22\n    /* \"#utility.yul\":659:664   */\n  dup2\n    /* \"#utility.yul\":641:665   */\n  tag_11\n  jump\t// in\ntag_22:\n    /* \"#utility.yul\":634:639   */\n  dup2\n    /* \"#utility.yul\":631:666   */\n  eq\n    /* \"#utility.yul\":621:684   */\n  tag_23\n  jumpi\n    /* \"#utility.yul\":680:681   */\n  0x00\n    /* \"#utility.yul\":677:678   */\n  dup1\n    /* \"#utility.yul\":670:682   */\n  revert\n    /* \"#utility.yul\":621:684   */\ntag_23:\n    /* \"#utility.yul\":568:690   */\n  pop\n  jump\t// out\n    /* \"#utility.yul\":696:839   */\ntag_13:\n    /* \"#utility.yul\":753:758   */\n  0x00\n    /* \"#utility.yul\":784:790   */\n  dup2\n    /* \"#utility.yul\":778:791   */\n  mload\n    /* \"#utility.yul\":769:791   */\n  swap1\n  pop\n    /* \"#utility.yul\":800:833   */\n  tag_25\n    /* \"#utility.yul\":827:832   */\n  dup2\n    /* \"#utility.yul\":800:833   */\n  tag_12\n  jump\t// in\ntag_25:\n    /* \"#utility.yul\":696:839   */\n  swap3\n  swap2\n  pop\n  pop\n  jump\t// out\n    /* \"#utility.yul\":845:1196   */\ntag_3:\n    /* \"#utility.yul\":915:921   */\n  0x00\n    /* \"#utility.yul\":964:966   */\n  0x20\n    /* \"#utility.yul\":952:961   */\n  dup3\n    /* \"#utility.yul\":943:950   */\n  dup5\n    /* \"#utility.yul\":939:962   */\n  sub\n    /* \"#utility.yul\":935:967   */\n  slt\n    /* \"#utility.yul\":932:1051   */\n  iszero\n  tag_27\n  jumpi\n    /* \"#utility.yul\":970:1049   */\n  tag_28\n  tag_8\n  jump\t// in\ntag_28:\n    /* \"#utility.yul\":932:1051   */\ntag_27:\n    /* \"#utility.yul\":1090:1091   */\n  0x00\n    /* \"#utility.yul\":1115:1179   */\n  tag_29\n    /* \"#utility.yul\":1171:1178   */\n  dup5\n    /* \"#utility.yul\":1162:1168   */\n  dup3\n    /* \"#utility.yul\":1151:1160   */\n  dup6\n    /* \"#utility.yul\":1147:1169   */\n  add\n    /* \"#utility.yul\":1115:1179   */\n  tag_13\n  jump\t// in\ntag_29:\n    /* \"#utility.yul\":1105:1179   */\n  swap2\n  pop\n    /* \"#utility.yul\":1061:1189   */\n  pop\n    /* \"#utility.yul\":845:1196   */\n  swap3\n  swap2\n  pop\n  pop\n  jump\t// out\n    /* \"NFTMarket.sol\":176:2041  contract NFTMarket {... */\ntag_6:\n  dataSize(sub_0)\n  dup1\n  dataOffset(sub_0)\n  0x00\n  codecopy\n  0x00\n  return\nstop\n\nsub_0: assembly {\n        /* \"NFTMarket.sol\":176:2041  contract NFTMarket {... */\n      mstore(0x40, 0x80)\n      jumpi(tag_1, lt(calldatasize, 0x04))\n      shr(0xe0, calldataload(0x00))\n      dup1\n      0x8de93222\n      eq\n      tag_3\n      jumpi\n      dup1\n      0xba5f4fb2\n      eq\n      tag_4\n      jumpi\n      dup1\n      0xdda342bb\n      eq\n      tag_5\n      jumpi\n      jump(tag_2)\n    tag_1:\n      jumpi(tag_2, calldatasize)\n      stop\n    tag_2:\n      stop\n        /* \"NFTMarket.sol\":1385:2038  function purchase(address _nftAddr, uint256 _tokenId) public {... */\n    tag_3:\n      callvalue\n      dup1\n      iszero\n      tag_10\n      jumpi\n      0x00\n      dup1\n      revert\n    tag_10:\n      pop\n      tag_11\n      0x04\n      dup1\n      calldatasize\n      sub\n      dup2\n      add\n      swap1\n      tag_12\n      swap2\n      swap1\n      tag_13\n      jump\t// in\n    tag_12:\n      tag_14\n      jump\t// in\n    tag_11:\n      stop\n        /* \"NFTMarket.sol\":621:681  mapping(address => mapping(uint256 => Order)) public nftList */\n    tag_4:\n      callvalue\n      dup1\n      iszero\n      tag_15\n      jumpi\n      0x00\n      dup1\n      revert\n    tag_15:\n      pop\n      tag_16\n      0x04\n      dup1\n      calldatasize\n      sub\n      dup2\n      add\n      swap1\n      tag_17\n      swap2\n      swap1\n      tag_13\n      jump\t// in\n    tag_17:\n      tag_18\n      jump\t// in\n    tag_16:\n      mload(0x40)\n      tag_19\n      swap3\n      swap2\n      swap1\n      tag_20\n      jump\t// in\n    tag_19:\n      mload(0x40)\n      dup1\n      swap2\n      sub\n      swap1\n      return\n        /* \"NFTMarket.sol\":855:1377  function list(address _nftAddr, uint256 _tokenId, uint256 _price) public {... */\n    tag_5:\n      callvalue\n      dup1\n      iszero\n      tag_21\n      jumpi\n      0x00\n      dup1\n      revert\n    tag_21:\n      pop\n      tag_22\n      0x04\n      dup1\n      calldatasize\n      sub\n      dup2\n      add\n      swap1\n      tag_23\n      swap2\n      swap1\n      tag_24\n      jump\t// in\n    tag_23:\n      tag_25\n      jump\t// in\n    tag_22:\n      stop\n        /* \"NFTMarket.sol\":1385:2038  function purchase(address _nftAddr, uint256 _tokenId) public {... */\n    tag_14:\n        /* \"NFTMarket.sol\":1457:1477  Order storage _order */\n      0x00\n        /* \"NFTMarket.sol\":1480:1487  nftList */\n      dup1\n        /* \"NFTMarket.sol\":1480:1497  nftList[_nftAddr] */\n      0x00\n        /* \"NFTMarket.sol\":1488:1496  _nftAddr */\n      dup5\n        /* \"NFTMarket.sol\":1480:1497  nftList[_nftAddr] */\n      0xffffffffffffffffffffffffffffffffffffffff\n      and\n      0xffffffffffffffffffffffffffffffffffffffff\n      and\n      dup2\n      mstore\n      0x20\n      add\n      swap1\n      dup2\n      mstore\n      0x20\n      add\n      0x00\n      keccak256\n        /* \"NFTMarket.sol\":1480:1507  nftList[_nftAddr][_tokenId] */\n      0x00\n        /* \"NFTMarket.sol\":1498:1506  _tokenId */\n      dup4\n        /* \"NFTMarket.sol\":1480:1507  nftList[_nftAddr][_tokenId] */\n      dup2\n      mstore\n      0x20\n      add\n      swap1\n      dup2\n      mstore\n      0x20\n      add\n      0x00\n      keccak256\n        /* \"NFTMarket.sol\":1457:1507  Order storage _order = nftList[_nftAddr][_tokenId] */\n      swap1\n      pop\n        /* \"NFTMarket.sol\":1541:1542  0 */\n      0x00\n        /* \"NFTMarket.sol\":1526:1532  _order */\n      dup2\n        /* \"NFTMarket.sol\":1526:1538  _order.price */\n      0x01\n      add\n      sload\n        /* \"NFTMarket.sol\":1526:1542  _order.price > 0 */\n      gt\n        /* \"NFTMarket.sol\":1518:1571  require(_order.price > 0, unicode\"价格要大于 0\") */\n      tag_27\n      jumpi\n      mload(0x40)\n      0x08c379a000000000000000000000000000000000000000000000000000000000\n      dup2\n      mstore\n      0x04\n      add\n      tag_28\n      swap1\n      tag_29\n      jump\t// in\n    tag_28:\n      mload(0x40)\n      dup1\n      swap2\n      sub\n      swap1\n      revert\n    tag_27:\n        /* \"NFTMarket.sol\":1619:1625  _order */\n      dup1\n        /* \"NFTMarket.sol\":1619:1631  _order.price */\n      0x01\n      add\n      sload\n        /* \"NFTMarket.sol\":1590:1593  YMT */\n      0x01\n      0x00\n      swap1\n      sload\n      swap1\n      0x0100\n      exp\n      swap1\n      div\n      0xffffffffffffffffffffffffffffffffffffffff\n      and\n        /* \"NFTMarket.sol\":1590:1603  YMT.balanceOf */\n      0xffffffffffffffffffffffffffffffffffffffff\n      and\n      0x70a08231\n        /* \"NFTMarket.sol\":1604:1614  msg.sender */\n      caller\n        /* \"NFTMarket.sol\":1590:1615  YMT.balanceOf(msg.sender) */\n      mload(0x40)\n      dup3\n      0xffffffff\n      and\n      0xe0\n      shl\n      dup2\n      mstore\n      0x04\n      add\n      tag_30\n      swap2\n      swap1\n      tag_31\n      jump\t// in\n    tag_30:\n      0x20\n      mload(0x40)\n      dup1\n      dup4\n      sub\n      dup2\n      dup7\n      gas\n      staticcall\n      iszero\n      dup1\n      iszero\n      tag_33\n      jumpi\n      returndatasize\n      0x00\n      dup1\n      returndatacopy\n      revert(0x00, returndatasize)\n    tag_33:\n      pop\n      pop\n      pop\n      pop\n      mload(0x40)\n      returndatasize\n      not(0x1f)\n      0x1f\n      dup3\n      add\n      and\n      dup3\n      add\n      dup1\n      0x40\n      mstore\n      pop\n      dup2\n      add\n      swap1\n      tag_34\n      swap2\n      swap1\n      tag_35\n      jump\t// in\n    tag_34:\n        /* \"NFTMarket.sol\":1590:1631  YMT.balanceOf(msg.sender) >= _order.price */\n      lt\n      iszero\n        /* \"NFTMarket.sol\":1582:1652  require(YMT.balanceOf(msg.sender) >= _order.price, unicode\"钱不够\") */\n      tag_36\n      jumpi\n      mload(0x40)\n      0x08c379a000000000000000000000000000000000000000000000000000000000\n      dup2\n      mstore\n      0x04\n      add\n      tag_37\n      swap1\n      tag_38\n      jump\t// in\n    tag_37:\n      mload(0x40)\n      dup1\n      swap2\n      sub\n      swap1\n      revert\n    tag_36:\n        /* \"NFTMarket.sol\":1663:1675  IERC721 _nft */\n      0x00\n        /* \"NFTMarket.sol\":1686:1694  _nftAddr */\n      dup4\n        /* \"NFTMarket.sol\":1663:1695  IERC721 _nft = IERC721(_nftAddr) */\n      swap1\n      pop\n        /* \"NFTMarket.sol\":1748:1752  this */\n      address\n        /* \"NFTMarket.sol\":1714:1753  _nft.ownerOf(_tokenId) == address(this) */\n      0xffffffffffffffffffffffffffffffffffffffff\n      and\n        /* \"NFTMarket.sol\":1714:1718  _nft */\n      dup2\n        /* \"NFTMarket.sol\":1714:1726  _nft.ownerOf */\n      0xffffffffffffffffffffffffffffffffffffffff\n      and\n      0x6352211e\n        /* \"NFTMarket.sol\":1727:1735  _tokenId */\n      dup6\n        /* \"NFTMarket.sol\":1714:1736  _nft.ownerOf(_tokenId) */\n      mload(0x40)\n      dup3\n      0xffffffff\n      and\n      0xe0\n      shl\n      dup2\n      mstore\n      0x04\n      add\n      tag_39\n      swap2\n      swap1\n      tag_40\n      jump\t// in\n    tag_39:\n      0x20\n      mload(0x40)\n      dup1\n      dup4\n      sub\n      dup2\n      dup7\n      gas\n      staticcall\n      iszero\n      dup1\n      iszero\n      tag_42\n      jumpi\n      returndatasize\n      0x00\n      dup1\n      returndatacopy\n      revert(0x00, returndatasize)\n    tag_42:\n      pop\n      pop\n      pop\n      pop\n      mload(0x40)\n      returndatasize\n      not(0x1f)\n      0x1f\n      dup3\n      add\n      and\n      dup3\n      add\n      dup1\n      0x40\n      mstore\n      pop\n      dup2\n      add\n      swap1\n      tag_43\n      swap2\n      swap1\n      tag_44\n      jump\t// in\n    tag_43:\n        /* \"NFTMarket.sol\":1714:1753  _nft.ownerOf(_tokenId) == address(this) */\n      0xffffffffffffffffffffffffffffffffffffffff\n      and\n      eq\n        /* \"NFTMarket.sol\":1706:1783  require(_nft.ownerOf(_tokenId) == address(this), unicode\"nft不在合约中\") */\n      tag_45\n      jumpi\n      mload(0x40)\n      0x08c379a000000000000000000000000000000000000000000000000000000000\n      dup2\n      mstore\n      0x04\n      add\n      tag_46\n      swap1\n      tag_47\n      jump\t// in\n    tag_46:\n      mload(0x40)\n      dup1\n      swap2\n      sub\n      swap1\n      revert\n    tag_45:\n        /* \"NFTMarket.sol\":1794:1798  _nft */\n      dup1\n        /* \"NFTMarket.sol\":1794:1811  _nft.transferFrom */\n      0xffffffffffffffffffffffffffffffffffffffff\n      and\n      0x23b872dd\n        /* \"NFTMarket.sol\":1820:1824  this */\n      address\n        /* \"NFTMarket.sol\":1827:1837  msg.sender */\n      caller\n        /* \"NFTMarket.sol\":1839:1847  _tokenId */\n      dup7\n        /* \"NFTMarket.sol\":1794:1848  _nft.transferFrom(address(this), msg.sender, _tokenId) */\n      mload(0x40)\n      dup5\n      0xffffffff\n      and\n      0xe0\n      shl\n      dup2\n      mstore\n      0x04\n      add\n      tag_48\n      swap4\n      swap3\n      swap2\n      swap1\n      tag_49\n      jump\t// in\n    tag_48:\n      0x00\n      mload(0x40)\n      dup1\n      dup4\n      sub\n      dup2\n      0x00\n      dup8\n      dup1\n      extcodesize\n      iszero\n      dup1\n      iszero\n      tag_50\n      jumpi\n      0x00\n      dup1\n      revert\n    tag_50:\n      pop\n      gas\n      call\n      iszero\n      dup1\n      iszero\n      tag_52\n      jumpi\n      returndatasize\n      0x00\n      dup1\n      returndatacopy\n      revert(0x00, returndatasize)\n    tag_52:\n      pop\n      pop\n      pop\n      pop\n        /* \"NFTMarket.sol\":1859:1862  YMT */\n      0x01\n      0x00\n      swap1\n      sload\n      swap1\n      0x0100\n      exp\n      swap1\n      div\n      0xffffffffffffffffffffffffffffffffffffffff\n      and\n        /* \"NFTMarket.sol\":1859:1875  YMT.transferFrom */\n      0xffffffffffffffffffffffffffffffffffffffff\n      and\n      0x23b872dd\n        /* \"NFTMarket.sol\":1876:1886  msg.sender */\n      caller\n        /* \"NFTMarket.sol\":1888:1894  _order */\n      dup5\n        /* \"NFTMarket.sol\":1888:1900  _order.owner */\n      0x00\n      add\n      0x00\n      swap1\n      sload\n      swap1\n      0x0100\n      exp\n      swap1\n      div\n      0xffffffffffffffffffffffffffffffffffffffff\n      and\n        /* \"NFTMarket.sol\":1902:1908  _order */\n      dup6\n        /* \"NFTMarket.sol\":1902:1914  _order.price */\n      0x01\n      add\n      sload\n        /* \"NFTMarket.sol\":1859:1915  YMT.transferFrom(msg.sender, _order.owner, _order.price) */\n      mload(0x40)\n      dup5\n      0xffffffff\n      and\n      0xe0\n      shl\n      dup2\n      mstore\n      0x04\n      add\n      tag_53\n      swap4\n      swap3\n      swap2\n      swap1\n      tag_49\n      jump\t// in\n    tag_53:\n      0x20\n      mload(0x40)\n      dup1\n      dup4\n      sub\n      dup2\n      0x00\n      dup8\n      gas\n      call\n      iszero\n      dup1\n      iszero\n      tag_55\n      jumpi\n      returndatasize\n      0x00\n      dup1\n      returndatacopy\n      revert(0x00, returndatasize)\n    tag_55:\n      pop\n      pop\n      pop\n      pop\n      mload(0x40)\n      returndatasize\n      not(0x1f)\n      0x1f\n      dup3\n      add\n      and\n      dup3\n      add\n      dup1\n      0x40\n      mstore\n      pop\n      dup2\n      add\n      swap1\n      tag_56\n      swap2\n      swap1\n      tag_57\n      jump\t// in\n    tag_56:\n      pop\n        /* \"NFTMarket.sol\":1962:1970  _tokenId */\n      dup3\n        /* \"NFTMarket.sol\":1952:1960  _nftAddr */\n      dup5\n        /* \"NFTMarket.sol\":1931:1985  Purchase(msg.sender, _nftAddr, _tokenId, _order.price) */\n      0xffffffffffffffffffffffffffffffffffffffff\n      and\n        /* \"NFTMarket.sol\":1940:1950  msg.sender */\n      caller\n        /* \"NFTMarket.sol\":1931:1985  Purchase(msg.sender, _nftAddr, _tokenId, _order.price) */\n      0xffffffffffffffffffffffffffffffffffffffff\n      and\n      0x46661dab58311a6838247afecbee792192b4f27fc8b3e7168c66bc55ec2e404e\n        /* \"NFTMarket.sol\":1972:1978  _order */\n      dup6\n        /* \"NFTMarket.sol\":1972:1984  _order.price */\n      0x01\n      add\n      sload\n        /* \"NFTMarket.sol\":1931:1985  Purchase(msg.sender, _nftAddr, _tokenId, _order.price) */\n      mload(0x40)\n      tag_58\n      swap2\n      swap1\n      tag_40\n      jump\t// in\n    tag_58:\n      mload(0x40)\n      dup1\n      swap2\n      sub\n      swap1\n      log4\n        /* \"NFTMarket.sol\":2003:2010  nftList */\n      0x00\n        /* \"NFTMarket.sol\":2003:2020  nftList[_nftAddr] */\n      dup1\n        /* \"NFTMarket.sol\":2011:2019  _nftAddr */\n      dup6\n        /* \"NFTMarket.sol\":2003:2020  nftList[_nftAddr] */\n      0xffffffffffffffffffffffffffffffffffffffff\n      and\n      0xffffffffffffffffffffffffffffffffffffffff\n      and\n      dup2\n      mstore\n      0x20\n      add\n      swap1\n      dup2\n      mstore\n      0x20\n      add\n      0x00\n      keccak256\n        /* \"NFTMarket.sol\":2003:2030  nftList[_nftAddr][_tokenId] */\n      0x00\n        /* \"NFTMarket.sol\":2021:2029  _tokenId */\n      dup5\n        /* \"NFTMarket.sol\":2003:2030  nftList[_nftAddr][_tokenId] */\n      dup2\n      mstore\n      0x20\n      add\n      swap1\n      dup2\n      mstore\n      0x20\n      add\n      0x00\n      keccak256\n      0x00\n        /* \"NFTMarket.sol\":1996:2030  delete nftList[_nftAddr][_tokenId] */\n      dup1\n      dup3\n      add\n      exp(0x0100, 0x00)\n      dup2\n      sload\n      swap1\n      0xffffffffffffffffffffffffffffffffffffffff\n      mul\n      not\n      and\n      swap1\n      sstore\n      0x01\n      dup3\n      add\n      0x00\n      swap1\n      sstore\n      pop\n      pop\n        /* \"NFTMarket.sol\":1446:2038  {... */\n      pop\n      pop\n        /* \"NFTMarket.sol\":1385:2038  function purchase(address _nftAddr, uint256 _tokenId) public {... */\n      pop\n      pop\n      jump\t// out\n        /* \"NFTMarket.sol\":621:681  mapping(address => mapping(uint256 => Order)) public nftList */\n    tag_18:\n      mstore(0x20, 0x00)\n      dup2\n      0x00\n      mstore\n      mstore(0x20, keccak256(0x00, 0x40))\n      dup1\n      0x00\n      mstore\n      keccak256(0x00, 0x40)\n      0x00\n      swap2\n      pop\n      swap2\n      pop\n      pop\n      dup1\n      0x00\n      add\n      0x00\n      swap1\n      sload\n      swap1\n      0x0100\n      exp\n      swap1\n      div\n      0xffffffffffffffffffffffffffffffffffffffff\n      and\n      swap1\n      dup1\n      0x01\n      add\n      sload\n      swap1\n      pop\n      dup3\n      jump\t// out\n        /* \"NFTMarket.sol\":855:1377  function list(address _nftAddr, uint256 _tokenId, uint256 _price) public {... */\n    tag_25:\n        /* \"NFTMarket.sol\":939:951  IERC721 _nft */\n      0x00\n        /* \"NFTMarket.sol\":962:970  _nftAddr */\n      dup4\n        /* \"NFTMarket.sol\":939:971  IERC721 _nft = IERC721(_nftAddr) */\n      swap1\n      pop\n        /* \"NFTMarket.sol\":1028:1032  this */\n      address\n        /* \"NFTMarket.sol\":990:1033  _nft.getApproved(_tokenId) == address(this) */\n      0xffffffffffffffffffffffffffffffffffffffff\n      and\n        /* \"NFTMarket.sol\":990:994  _nft */\n      dup2\n        /* \"NFTMarket.sol\":990:1006  _nft.getApproved */\n      0xffffffffffffffffffffffffffffffffffffffff\n      and\n      0x081812fc\n        /* \"NFTMarket.sol\":1007:1015  _tokenId */\n      dup6\n        /* \"NFTMarket.sol\":990:1016  _nft.getApproved(_tokenId) */\n      mload(0x40)\n      dup3\n      0xffffffff\n      and\n      0xe0\n      shl\n      dup2\n      mstore\n      0x04\n      add\n      tag_60\n      swap2\n      swap1\n      tag_40\n      jump\t// in\n    tag_60:\n      0x20\n      mload(0x40)\n      dup1\n      dup4\n      sub\n      dup2\n      dup7\n      gas\n      staticcall\n      iszero\n      dup1\n      iszero\n      tag_62\n      jumpi\n      returndatasize\n      0x00\n      dup1\n      returndatacopy\n      revert(0x00, returndatasize)\n    tag_62:\n      pop\n      pop\n      pop\n      pop\n      mload(0x40)\n      returndatasize\n      not(0x1f)\n      0x1f\n      dup3\n      add\n      and\n      dup3\n      add\n      dup1\n      0x40\n      mstore\n      pop\n      dup2\n      add\n      swap1\n      tag_63\n      swap2\n      swap1\n      tag_44\n      jump\t// in\n    tag_63:\n        /* \"NFTMarket.sol\":990:1033  _nft.getApproved(_tokenId) == address(this) */\n      0xffffffffffffffffffffffffffffffffffffffff\n      and\n      eq\n        /* \"NFTMarket.sol\":982:1057  require(_nft.getApproved(_tokenId) == address(this), unicode\"没有授权\") */\n      tag_64\n      jumpi\n      mload(0x40)\n      0x08c379a000000000000000000000000000000000000000000000000000000000\n      dup2\n      mstore\n      0x04\n      add\n      tag_65\n      swap1\n      tag_66\n      jump\t// in\n    tag_65:\n      mload(0x40)\n      dup1\n      swap2\n      sub\n      swap1\n      revert\n    tag_64:\n        /* \"NFTMarket.sol\":1085:1086  0 */\n      0x00\n        /* \"NFTMarket.sol\":1076:1082  _price */\n      dup3\n        /* \"NFTMarket.sol\":1076:1086  _price > 0 */\n      gt\n        /* \"NFTMarket.sol\":1068:1115  require(_price > 0, unicode\"价格要大于 0\") */\n      tag_67\n      jumpi\n      mload(0x40)\n      0x08c379a000000000000000000000000000000000000000000000000000000000\n      dup2\n      mstore\n      0x04\n      add\n      tag_68\n      swap1\n      tag_29\n      jump\t// in\n    tag_68:\n      mload(0x40)\n      dup1\n      swap2\n      sub\n      swap1\n      revert\n    tag_67:\n        /* \"NFTMarket.sol\":1126:1146  Order storage _order */\n      0x00\n        /* \"NFTMarket.sol\":1149:1156  nftList */\n      dup1\n        /* \"NFTMarket.sol\":1149:1166  nftList[_nftAddr] */\n      0x00\n        /* \"NFTMarket.sol\":1157:1165  _nftAddr */\n      dup7\n        /* \"NFTMarket.sol\":1149:1166  nftList[_nftAddr] */\n      0xffffffffffffffffffffffffffffffffffffffff\n      and\n      0xffffffffffffffffffffffffffffffffffffffff\n      and\n      dup2\n      mstore\n      0x20\n      add\n      swap1\n      dup2\n      mstore\n      0x20\n      add\n      0x00\n      keccak256\n        /* \"NFTMarket.sol\":1149:1176  nftList[_nftAddr][_tokenId] */\n      0x00\n        /* \"NFTMarket.sol\":1167:1175  _tokenId */\n      dup6\n        /* \"NFTMarket.sol\":1149:1176  nftList[_nftAddr][_tokenId] */\n      dup2\n      mstore\n      0x20\n      add\n      swap1\n      dup2\n      mstore\n      0x20\n      add\n      0x00\n      keccak256\n        /* \"NFTMarket.sol\":1126:1176  Order storage _order = nftList[_nftAddr][_tokenId] */\n      swap1\n      pop\n        /* \"NFTMarket.sol\":1202:1212  msg.sender */\n      caller\n        /* \"NFTMarket.sol\":1187:1193  _order */\n      dup2\n        /* \"NFTMarket.sol\":1187:1199  _order.owner */\n      0x00\n      add\n      0x00\n        /* \"NFTMarket.sol\":1187:1212  _order.owner = msg.sender */\n      0x0100\n      exp\n      dup2\n      sload\n      dup2\n      0xffffffffffffffffffffffffffffffffffffffff\n      mul\n      not\n      and\n      swap1\n      dup4\n      0xffffffffffffffffffffffffffffffffffffffff\n      and\n      mul\n      or\n      swap1\n      sstore\n      pop\n        /* \"NFTMarket.sol\":1238:1244  _price */\n      dup3\n        /* \"NFTMarket.sol\":1223:1229  _order */\n      dup2\n        /* \"NFTMarket.sol\":1223:1235  _order.price */\n      0x01\n      add\n        /* \"NFTMarket.sol\":1223:1244  _order.price = _price */\n      dup2\n      swap1\n      sstore\n      pop\n        /* \"NFTMarket.sol\":1255:1259  _nft */\n      dup2\n        /* \"NFTMarket.sol\":1255:1272  _nft.transferFrom */\n      0xffffffffffffffffffffffffffffffffffffffff\n      and\n      0x23b872dd\n        /* \"NFTMarket.sol\":1273:1283  msg.sender */\n      caller\n        /* \"NFTMarket.sol\":1293:1297  this */\n      address\n        /* \"NFTMarket.sol\":1300:1308  _tokenId */\n      dup8\n        /* \"NFTMarket.sol\":1255:1309  _nft.transferFrom(msg.sender, address(this), _tokenId) */\n      mload(0x40)\n      dup5\n      0xffffffff\n      and\n      0xe0\n      shl\n      dup2\n      mstore\n      0x04\n      add\n      tag_69\n      swap4\n      swap3\n      swap2\n      swap1\n      tag_49\n      jump\t// in\n    tag_69:\n      0x00\n      mload(0x40)\n      dup1\n      dup4\n      sub\n      dup2\n      0x00\n      dup8\n      dup1\n      extcodesize\n      iszero\n      dup1\n      iszero\n      tag_70\n      jumpi\n      0x00\n      dup1\n      revert\n    tag_70:\n      pop\n      gas\n      call\n      iszero\n      dup1\n      iszero\n      tag_72\n      jumpi\n      returndatasize\n      0x00\n      dup1\n      returndatacopy\n      revert(0x00, returndatasize)\n    tag_72:\n      pop\n      pop\n      pop\n      pop\n        /* \"NFTMarket.sol\":1352:1360  _tokenId */\n      dup4\n        /* \"NFTMarket.sol\":1342:1350  _nftAddr */\n      dup6\n        /* \"NFTMarket.sol\":1325:1369  List(msg.sender, _nftAddr, _tokenId, _price) */\n      0xffffffffffffffffffffffffffffffffffffffff\n      and\n        /* \"NFTMarket.sol\":1330:1340  msg.sender */\n      caller\n        /* \"NFTMarket.sol\":1325:1369  List(msg.sender, _nftAddr, _tokenId, _price) */\n      0xffffffffffffffffffffffffffffffffffffffff\n      and\n      0xedbdf022944a3291f4b30148903a84720506f48e10478ec5812e5caf30e1fab0\n        /* \"NFTMarket.sol\":1362:1368  _price */\n      dup7\n        /* \"NFTMarket.sol\":1325:1369  List(msg.sender, _nftAddr, _tokenId, _price) */\n      mload(0x40)\n      tag_73\n      swap2\n      swap1\n      tag_40\n      jump\t// in\n    tag_73:\n      mload(0x40)\n      dup1\n      swap2\n      sub\n      swap1\n      log4\n        /* \"NFTMarket.sol\":928:1377  {... */\n      pop\n      pop\n        /* \"NFTMarket.sol\":855:1377  function list(address _nftAddr, uint256 _tokenId, uint256 _price) public {... */\n      pop\n      pop\n      pop\n      jump\t// out\n        /* \"#utility.yul\":88:205   */\n    tag_75:\n        /* \"#utility.yul\":197:198   */\n      0x00\n        /* \"#utility.yul\":194:195   */\n      dup1\n        /* \"#utility.yul\":187:199   */\n      revert\n        /* \"#utility.yul\":334:460   */\n    tag_77:\n        /* \"#utility.yul\":371:378   */\n      0x00\n        /* \"#utility.yul\":411:453   */\n      0xffffffffffffffffffffffffffffffffffffffff\n        /* \"#utility.yul\":404:409   */\n      dup3\n        /* \"#utility.yul\":400:454   */\n      and\n        /* \"#utility.yul\":389:454   */\n      swap1\n      pop\n        /* \"#utility.yul\":334:460   */\n      swap2\n      swap1\n      pop\n      jump\t// out\n        /* \"#utility.yul\":466:562   */\n    tag_78:\n        /* \"#utility.yul\":503:510   */\n      0x00\n        /* \"#utility.yul\":532:556   */\n      tag_106\n        /* \"#utility.yul\":550:555   */\n      dup3\n        /* \"#utility.yul\":532:556   */\n      tag_77\n      jump\t// in\n    tag_106:\n        /* \"#utility.yul\":521:556   */\n      swap1\n      pop\n        /* \"#utility.yul\":466:562   */\n      swap2\n      swap1\n      pop\n      jump\t// out\n        /* \"#utility.yul\":568:690   */\n    tag_79:\n        /* \"#utility.yul\":641:665   */\n      tag_108\n        /* \"#utility.yul\":659:664   */\n      dup2\n        /* \"#utility.yul\":641:665   */\n      tag_78\n      jump\t// in\n    tag_108:\n        /* \"#utility.yul\":634:639   */\n      dup2\n        /* \"#utility.yul\":631:666   */\n      eq\n        /* \"#utility.yul\":621:684   */\n      tag_109\n      jumpi\n        /* \"#utility.yul\":680:681   */\n      0x00\n        /* \"#utility.yul\":677:678   */\n      dup1\n        /* \"#utility.yul\":670:682   */\n      revert\n        /* \"#utility.yul\":621:684   */\n    tag_109:\n        /* \"#utility.yul\":568:690   */\n      pop\n      jump\t// out\n        /* \"#utility.yul\":696:835   */\n    tag_80:\n        /* \"#utility.yul\":742:747   */\n      0x00\n        /* \"#utility.yul\":780:786   */\n      dup2\n        /* \"#utility.yul\":767:787   */\n      calldataload\n        /* \"#utility.yul\":758:787   */\n      swap1\n      pop\n        /* \"#utility.yul\":796:829   */\n      tag_111\n        /* \"#utility.yul\":823:828   */\n      dup2\n        /* \"#utility.yul\":796:829   */\n      tag_79\n      jump\t// in\n    tag_111:\n        /* \"#utility.yul\":696:835   */\n      swap3\n      swap2\n      pop\n      pop\n      jump\t// out\n        /* \"#utility.yul\":841:918   */\n    tag_81:\n        /* \"#utility.yul\":878:885   */\n      0x00\n        /* \"#utility.yul\":907:912   */\n      dup2\n        /* \"#utility.yul\":896:912   */\n      swap1\n      pop\n        /* \"#utility.yul\":841:918   */\n      swap2\n      swap1\n      pop\n      jump\t// out\n        /* \"#utility.yul\":924:1046   */\n    tag_82:\n        /* \"#utility.yul\":997:1021   */\n      tag_114\n        /* \"#utility.yul\":1015:1020   */\n      dup2\n        /* \"#utility.yul\":997:1021   */\n      tag_81\n      jump\t// in\n    tag_114:\n        /* \"#utility.yul\":990:995   */\n      dup2\n        /* \"#utility.yul\":987:1022   */\n      eq\n        /* \"#utility.yul\":977:1040   */\n      tag_115\n      jumpi\n        /* \"#utility.yul\":1036:1037   */\n      0x00\n        /* \"#utility.yul\":1033:1034   */\n      dup1\n        /* \"#utility.yul\":1026:1038   */\n      revert\n        /* \"#utility.yul\":977:1040   */\n    tag_115:\n        /* \"#utility.yul\":924:1046   */\n      pop\n      jump\t// out\n        /* \"#utility.yul\":1052:1191   */\n    tag_83:\n        /* \"#utility.yul\":1098:1103   */\n      0x00\n        /* \"#utility.yul\":1136:1142   */\n      dup2\n        /* \"#utility.yul\":1123:1143   */\n      calldataload\n        /* \"#utility.yul\":1114:1143   */\n      swap1\n      pop\n        /* \"#utility.yul\":1152:1185   */\n      tag_117\n        /* \"#utility.yul\":1179:1184   */\n      dup2\n        /* \"#utility.yul\":1152:1185   */\n      tag_82\n      jump\t// in\n    tag_117:\n        /* \"#utility.yul\":1052:1191   */\n      swap3\n      swap2\n      pop\n      pop\n      jump\t// out\n        /* \"#utility.yul\":1197:1671   */\n    tag_13:\n        /* \"#utility.yul\":1265:1271   */\n      0x00\n        /* \"#utility.yul\":1273:1279   */\n      dup1\n        /* \"#utility.yul\":1322:1324   */\n      0x40\n        /* \"#utility.yul\":1310:1319   */\n      dup4\n        /* \"#utility.yul\":1301:1308   */\n      dup6\n        /* \"#utility.yul\":1297:1320   */\n      sub\n        /* \"#utility.yul\":1293:1325   */\n      slt\n        /* \"#utility.yul\":1290:1409   */\n      iszero\n      tag_119\n      jumpi\n        /* \"#utility.yul\":1328:1407   */\n      tag_120\n      tag_75\n      jump\t// in\n    tag_120:\n        /* \"#utility.yul\":1290:1409   */\n    tag_119:\n        /* \"#utility.yul\":1448:1449   */\n      0x00\n        /* \"#utility.yul\":1473:1526   */\n      tag_121\n        /* \"#utility.yul\":1518:1525   */\n      dup6\n        /* \"#utility.yul\":1509:1515   */\n      dup3\n        /* \"#utility.yul\":1498:1507   */\n      dup7\n        /* \"#utility.yul\":1494:1516   */\n      add\n        /* \"#utility.yul\":1473:1526   */\n      tag_80\n      jump\t// in\n    tag_121:\n        /* \"#utility.yul\":1463:1526   */\n      swap3\n      pop\n        /* \"#utility.yul\":1419:1536   */\n      pop\n        /* \"#utility.yul\":1575:1577   */\n      0x20\n        /* \"#utility.yul\":1601:1654   */\n      tag_122\n        /* \"#utility.yul\":1646:1653   */\n      dup6\n        /* \"#utility.yul\":1637:1643   */\n      dup3\n        /* \"#utility.yul\":1626:1635   */\n      dup7\n        /* \"#utility.yul\":1622:1644   */\n      add\n        /* \"#utility.yul\":1601:1654   */\n      tag_83\n      jump\t// in\n    tag_122:\n        /* \"#utility.yul\":1591:1654   */\n      swap2\n      pop\n        /* \"#utility.yul\":1546:1664   */\n      pop\n        /* \"#utility.yul\":1197:1671   */\n      swap3\n      pop\n      swap3\n      swap1\n      pop\n      jump\t// out\n        /* \"#utility.yul\":1677:1795   */\n    tag_84:\n        /* \"#utility.yul\":1764:1788   */\n      tag_124\n        /* \"#utility.yul\":1782:1787   */\n      dup2\n        /* \"#utility.yul\":1764:1788   */\n      tag_78\n      jump\t// in\n    tag_124:\n        /* \"#utility.yul\":1759:1762   */\n      dup3\n        /* \"#utility.yul\":1752:1789   */\n      mstore\n        /* \"#utility.yul\":1677:1795   */\n      pop\n      pop\n      jump\t// out\n        /* \"#utility.yul\":1801:1919   */\n    tag_85:\n        /* \"#utility.yul\":1888:1912   */\n      tag_126\n        /* \"#utility.yul\":1906:1911   */\n      dup2\n        /* \"#utility.yul\":1888:1912   */\n      tag_81\n      jump\t// in\n    tag_126:\n        /* \"#utility.yul\":1883:1886   */\n      dup3\n        /* \"#utility.yul\":1876:1913   */\n      mstore\n        /* \"#utility.yul\":1801:1919   */\n      pop\n      pop\n      jump\t// out\n        /* \"#utility.yul\":1925:2257   */\n    tag_20:\n        /* \"#utility.yul\":2046:2050   */\n      0x00\n        /* \"#utility.yul\":2084:2086   */\n      0x40\n        /* \"#utility.yul\":2073:2082   */\n      dup3\n        /* \"#utility.yul\":2069:2087   */\n      add\n        /* \"#utility.yul\":2061:2087   */\n      swap1\n      pop\n        /* \"#utility.yul\":2097:2168   */\n      tag_128\n        /* \"#utility.yul\":2165:2166   */\n      0x00\n        /* \"#utility.yul\":2154:2163   */\n      dup4\n        /* \"#utility.yul\":2150:2167   */\n      add\n        /* \"#utility.yul\":2141:2147   */\n      dup6\n        /* \"#utility.yul\":2097:2168   */\n      tag_84\n      jump\t// in\n    tag_128:\n        /* \"#utility.yul\":2178:2250   */\n      tag_129\n        /* \"#utility.yul\":2246:2248   */\n      0x20\n        /* \"#utility.yul\":2235:2244   */\n      dup4\n        /* \"#utility.yul\":2231:2249   */\n      add\n        /* \"#utility.yul\":2222:2228   */\n      dup5\n        /* \"#utility.yul\":2178:2250   */\n      tag_85\n      jump\t// in\n    tag_129:\n        /* \"#utility.yul\":1925:2257   */\n      swap4\n      swap3\n      pop\n      pop\n      pop\n      jump\t// out\n        /* \"#utility.yul\":2263:2882   */\n    tag_24:\n        /* \"#utility.yul\":2340:2346   */\n      0x00\n        /* \"#utility.yul\":2348:2354   */\n      dup1\n        /* \"#utility.yul\":2356:2362   */\n      0x00\n        /* \"#utility.yul\":2405:2407   */\n      0x60\n        /* \"#utility.yul\":2393:2402   */\n      dup5\n        /* \"#utility.yul\":2384:2391   */\n      dup7\n        /* \"#utility.yul\":2380:2403   */\n      sub\n        /* \"#utility.yul\":2376:2408   */\n      slt\n        /* \"#utility.yul\":2373:2492   */\n      iszero\n      tag_131\n      jumpi\n        /* \"#utility.yul\":2411:2490   */\n      tag_132\n      tag_75\n      jump\t// in\n    tag_132:\n        /* \"#utility.yul\":2373:2492   */\n    tag_131:\n        /* \"#utility.yul\":2531:2532   */\n      0x00\n        /* \"#utility.yul\":2556:2609   */\n      tag_133\n        /* \"#utility.yul\":2601:2608   */\n      dup7\n        /* \"#utility.yul\":2592:2598   */\n      dup3\n        /* \"#utility.yul\":2581:2590   */\n      dup8\n        /* \"#utility.yul\":2577:2599   */\n      add\n        /* \"#utility.yul\":2556:2609   */\n      tag_80\n      jump\t// in\n    tag_133:\n        /* \"#utility.yul\":2546:2609   */\n      swap4\n      pop\n        /* \"#utility.yul\":2502:2619   */\n      pop\n        /* \"#utility.yul\":2658:2660   */\n      0x20\n        /* \"#utility.yul\":2684:2737   */\n      tag_134\n        /* \"#utility.yul\":2729:2736   */\n      dup7\n        /* \"#utility.yul\":2720:2726   */\n      dup3\n        /* \"#utility.yul\":2709:2718   */\n      dup8\n        /* \"#utility.yul\":2705:2727   */\n      add\n        /* \"#utility.yul\":2684:2737   */\n      tag_83\n      jump\t// in\n    tag_134:\n        /* \"#utility.yul\":2674:2737   */\n      swap3\n      pop\n        /* \"#utility.yul\":2629:2747   */\n      pop\n        /* \"#utility.yul\":2786:2788   */\n      0x40\n        /* \"#utility.yul\":2812:2865   */\n      tag_135\n        /* \"#utility.yul\":2857:2864   */\n      dup7\n        /* \"#utility.yul\":2848:2854   */\n      dup3\n        /* \"#utility.yul\":2837:2846   */\n      dup8\n        /* \"#utility.yul\":2833:2855   */\n      add\n        /* \"#utility.yul\":2812:2865   */\n      tag_83\n      jump\t// in\n    tag_135:\n        /* \"#utility.yul\":2802:2865   */\n      swap2\n      pop\n        /* \"#utility.yul\":2757:2875   */\n      pop\n        /* \"#utility.yul\":2263:2882   */\n      swap3\n      pop\n      swap3\n      pop\n      swap3\n      jump\t// out\n        /* \"#utility.yul\":2888:3057   */\n    tag_86:\n        /* \"#utility.yul\":2972:2983   */\n      0x00\n        /* \"#utility.yul\":3006:3012   */\n      dup3\n        /* \"#utility.yul\":3001:3004   */\n      dup3\n        /* \"#utility.yul\":2994:3013   */\n      mstore\n        /* \"#utility.yul\":3046:3050   */\n      0x20\n        /* \"#utility.yul\":3041:3044   */\n      dup3\n        /* \"#utility.yul\":3037:3051   */\n      add\n        /* \"#utility.yul\":3022:3051   */\n      swap1\n      pop\n        /* \"#utility.yul\":2888:3057   */\n      swap3\n      swap2\n      pop\n      pop\n      jump\t// out\n        /* \"#utility.yul\":3063:3277   */\n    tag_87:\n        /* \"#utility.yul\":3203:3269   */\n      0xe4bbb7e6a0bce8a681e5a4a7e4ba8e2030000000000000000000000000000000\n        /* \"#utility.yul\":3199:3200   */\n      0x00\n        /* \"#utility.yul\":3191:3197   */\n      dup3\n        /* \"#utility.yul\":3187:3201   */\n      add\n        /* \"#utility.yul\":3180:3270   */\n      mstore\n        /* \"#utility.yul\":3063:3277   */\n      pop\n      jump\t// out\n        /* \"#utility.yul\":3283:3649   */\n    tag_88:\n        /* \"#utility.yul\":3425:3428   */\n      0x00\n        /* \"#utility.yul\":3446:3513   */\n      tag_139\n        /* \"#utility.yul\":3510:3512   */\n      0x11\n        /* \"#utility.yul\":3505:3508   */\n      dup4\n        /* \"#utility.yul\":3446:3513   */\n      tag_86\n      jump\t// in\n    tag_139:\n        /* \"#utility.yul\":3439:3513   */\n      swap2\n      pop\n        /* \"#utility.yul\":3522:3615   */\n      tag_140\n        /* \"#utility.yul\":3611:3614   */\n      dup3\n        /* \"#utility.yul\":3522:3615   */\n      tag_87\n      jump\t// in\n    tag_140:\n        /* \"#utility.yul\":3640:3642   */\n      0x20\n        /* \"#utility.yul\":3635:3638   */\n      dup3\n        /* \"#utility.yul\":3631:3643   */\n      add\n        /* \"#utility.yul\":3624:3643   */\n      swap1\n      pop\n        /* \"#utility.yul\":3283:3649   */\n      swap2\n      swap1\n      pop\n      jump\t// out\n        /* \"#utility.yul\":3655:4074   */\n    tag_29:\n        /* \"#utility.yul\":3821:3825   */\n      0x00\n        /* \"#utility.yul\":3859:3861   */\n      0x20\n        /* \"#utility.yul\":3848:3857   */\n      dup3\n        /* \"#utility.yul\":3844:3862   */\n      add\n        /* \"#utility.yul\":3836:3862   */\n      swap1\n      pop\n        /* \"#utility.yul\":3908:3917   */\n      dup2\n        /* \"#utility.yul\":3902:3906   */\n      dup2\n        /* \"#utility.yul\":3898:3918   */\n      sub\n        /* \"#utility.yul\":3894:3895   */\n      0x00\n        /* \"#utility.yul\":3883:3892   */\n      dup4\n        /* \"#utility.yul\":3879:3896   */\n      add\n        /* \"#utility.yul\":3872:3919   */\n      mstore\n        /* \"#utility.yul\":3936:4067   */\n      tag_142\n        /* \"#utility.yul\":4062:4066   */\n      dup2\n        /* \"#utility.yul\":3936:4067   */\n      tag_88\n      jump\t// in\n    tag_142:\n        /* \"#utility.yul\":3928:4067   */\n      swap1\n      pop\n        /* \"#utility.yul\":3655:4074   */\n      swap2\n      swap1\n      pop\n      jump\t// out\n        /* \"#utility.yul\":4080:4302   */\n    tag_31:\n        /* \"#utility.yul\":4173:4177   */\n      0x00\n        /* \"#utility.yul\":4211:4213   */\n      0x20\n        /* \"#utility.yul\":4200:4209   */\n      dup3\n        /* \"#utility.yul\":4196:4214   */\n      add\n        /* \"#utility.yul\":4188:4214   */\n      swap1\n      pop\n        /* \"#utility.yul\":4224:4295   */\n      tag_144\n        /* \"#utility.yul\":4292:4293   */\n      0x00\n        /* \"#utility.yul\":4281:4290   */\n      dup4\n        /* \"#utility.yul\":4277:4294   */\n      add\n        /* \"#utility.yul\":4268:4274   */\n      dup5\n        /* \"#utility.yul\":4224:4295   */\n      tag_84\n      jump\t// in\n    tag_144:\n        /* \"#utility.yul\":4080:4302   */\n      swap3\n      swap2\n      pop\n      pop\n      jump\t// out\n        /* \"#utility.yul\":4308:4451   */\n    tag_89:\n        /* \"#utility.yul\":4365:4370   */\n      0x00\n        /* \"#utility.yul\":4396:4402   */\n      dup2\n        /* \"#utility.yul\":4390:4403   */\n      mload\n        /* \"#utility.yul\":4381:4403   */\n      swap1\n      pop\n        /* \"#utility.yul\":4412:4445   */\n      tag_146\n        /* \"#utility.yul\":4439:4444   */\n      dup2\n        /* \"#utility.yul\":4412:4445   */\n      tag_82\n      jump\t// in\n    tag_146:\n        /* \"#utility.yul\":4308:4451   */\n      swap3\n      swap2\n      pop\n      pop\n      jump\t// out\n        /* \"#utility.yul\":4457:4808   */\n    tag_35:\n        /* \"#utility.yul\":4527:4533   */\n      0x00\n        /* \"#utility.yul\":4576:4578   */\n      0x20\n        /* \"#utility.yul\":4564:4573   */\n      dup3\n        /* \"#utility.yul\":4555:4562   */\n      dup5\n        /* \"#utility.yul\":4551:4574   */\n      sub\n        /* \"#utility.yul\":4547:4579   */\n      slt\n        /* \"#utility.yul\":4544:4663   */\n      iszero\n      tag_148\n      jumpi\n        /* \"#utility.yul\":4582:4661   */\n      tag_149\n      tag_75\n      jump\t// in\n    tag_149:\n        /* \"#utility.yul\":4544:4663   */\n    tag_148:\n        /* \"#utility.yul\":4702:4703   */\n      0x00\n        /* \"#utility.yul\":4727:4791   */\n      tag_150\n        /* \"#utility.yul\":4783:4790   */\n      dup5\n        /* \"#utility.yul\":4774:4780   */\n      dup3\n        /* \"#utility.yul\":4763:4772   */\n      dup6\n        /* \"#utility.yul\":4759:4781   */\n      add\n        /* \"#utility.yul\":4727:4791   */\n      tag_89\n      jump\t// in\n    tag_150:\n        /* \"#utility.yul\":4717:4791   */\n      swap2\n      pop\n        /* \"#utility.yul\":4673:4801   */\n      pop\n        /* \"#utility.yul\":4457:4808   */\n      swap3\n      swap2\n      pop\n      pop\n      jump\t// out\n        /* \"#utility.yul\":4814:5028   */\n    tag_90:\n        /* \"#utility.yul\":4954:5020   */\n      0xe992b1e4b88de5a49f0000000000000000000000000000000000000000000000\n        /* \"#utility.yul\":4950:4951   */\n      0x00\n        /* \"#utility.yul\":4942:4948   */\n      dup3\n        /* \"#utility.yul\":4938:4952   */\n      add\n        /* \"#utility.yul\":4931:5021   */\n      mstore\n        /* \"#utility.yul\":4814:5028   */\n      pop\n      jump\t// out\n        /* \"#utility.yul\":5034:5399   */\n    tag_91:\n        /* \"#utility.yul\":5176:5179   */\n      0x00\n        /* \"#utility.yul\":5197:5263   */\n      tag_153\n        /* \"#utility.yul\":5261:5262   */\n      0x09\n        /* \"#utility.yul\":5256:5259   */\n      dup4\n        /* \"#utility.yul\":5197:5263   */\n      tag_86\n      jump\t// in\n    tag_153:\n        /* \"#utility.yul\":5190:5263   */\n      swap2\n      pop\n        /* \"#utility.yul\":5272:5365   */\n      tag_154\n        /* \"#utility.yul\":5361:5364   */\n      dup3\n        /* \"#utility.yul\":5272:5365   */\n      tag_90\n      jump\t// in\n    tag_154:\n        /* \"#utility.yul\":5390:5392   */\n      0x20\n        /* \"#utility.yul\":5385:5388   */\n      dup3\n        /* \"#utility.yul\":5381:5393   */\n      add\n        /* \"#utility.yul\":5374:5393   */\n      swap1\n      pop\n        /* \"#utility.yul\":5034:5399   */\n      swap2\n      swap1\n      pop\n      jump\t// out\n        /* \"#utility.yul\":5405:5824   */\n    tag_38:\n        /* \"#utility.yul\":5571:5575   */\n      0x00\n        /* \"#utility.yul\":5609:5611   */\n      0x20\n        /* \"#utility.yul\":5598:5607   */\n      dup3\n        /* \"#utility.yul\":5594:5612   */\n      add\n        /* \"#utility.yul\":5586:5612   */\n      swap1\n      pop\n        /* \"#utility.yul\":5658:5667   */\n      dup2\n        /* \"#utility.yul\":5652:5656   */\n      dup2\n        /* \"#utility.yul\":5648:5668   */\n      sub\n        /* \"#utility.yul\":5644:5645   */\n      0x00\n        /* \"#utility.yul\":5633:5642   */\n      dup4\n        /* \"#utility.yul\":5629:5646   */\n      add\n        /* \"#utility.yul\":5622:5669   */\n      mstore\n        /* \"#utility.yul\":5686:5817   */\n      tag_156\n        /* \"#utility.yul\":5812:5816   */\n      dup2\n        /* \"#utility.yul\":5686:5817   */\n      tag_91\n      jump\t// in\n    tag_156:\n        /* \"#utility.yul\":5678:5817   */\n      swap1\n      pop\n        /* \"#utility.yul\":5405:5824   */\n      swap2\n      swap1\n      pop\n      jump\t// out\n        /* \"#utility.yul\":5830:6052   */\n    tag_40:\n        /* \"#utility.yul\":5923:5927   */\n      0x00\n        /* \"#utility.yul\":5961:5963   */\n      0x20\n        /* \"#utility.yul\":5950:5959   */\n      dup3\n        /* \"#utility.yul\":5946:5964   */\n      add\n        /* \"#utility.yul\":5938:5964   */\n      swap1\n      pop\n        /* \"#utility.yul\":5974:6045   */\n      tag_158\n        /* \"#utility.yul\":6042:6043   */\n      0x00\n        /* \"#utility.yul\":6031:6040   */\n      dup4\n        /* \"#utility.yul\":6027:6044   */\n      add\n        /* \"#utility.yul\":6018:6024   */\n      dup5\n        /* \"#utility.yul\":5974:6045   */\n      tag_85\n      jump\t// in\n    tag_158:\n        /* \"#utility.yul\":5830:6052   */\n      swap3\n      swap2\n      pop\n      pop\n      jump\t// out\n        /* \"#utility.yul\":6058:6201   */\n    tag_92:\n        /* \"#utility.yul\":6115:6120   */\n      0x00\n        /* \"#utility.yul\":6146:6152   */\n      dup2\n        /* \"#utility.yul\":6140:6153   */\n      mload\n        /* \"#utility.yul\":6131:6153   */\n      swap1\n      pop\n        /* \"#utility.yul\":6162:6195   */\n      tag_160\n        /* \"#utility.yul\":6189:6194   */\n      dup2\n        /* \"#utility.yul\":6162:6195   */\n      tag_79\n      jump\t// in\n    tag_160:\n        /* \"#utility.yul\":6058:6201   */\n      swap3\n      swap2\n      pop\n      pop\n      jump\t// out\n        /* \"#utility.yul\":6207:6558   */\n    tag_44:\n        /* \"#utility.yul\":6277:6283   */\n      0x00\n        /* \"#utility.yul\":6326:6328   */\n      0x20\n        /* \"#utility.yul\":6314:6323   */\n      dup3\n        /* \"#utility.yul\":6305:6312   */\n      dup5\n        /* \"#utility.yul\":6301:6324   */\n      sub\n        /* \"#utility.yul\":6297:6329   */\n      slt\n        /* \"#utility.yul\":6294:6413   */\n      iszero\n      tag_162\n      jumpi\n        /* \"#utility.yul\":6332:6411   */\n      tag_163\n      tag_75\n      jump\t// in\n    tag_163:\n        /* \"#utility.yul\":6294:6413   */\n    tag_162:\n        /* \"#utility.yul\":6452:6453   */\n      0x00\n        /* \"#utility.yul\":6477:6541   */\n      tag_164\n        /* \"#utility.yul\":6533:6540   */\n      dup5\n        /* \"#utility.yul\":6524:6530   */\n      dup3\n        /* \"#utility.yul\":6513:6522   */\n      dup6\n        /* \"#utility.yul\":6509:6531   */\n      add\n        /* \"#utility.yul\":6477:6541   */\n      tag_92\n      jump\t// in\n    tag_164:\n        /* \"#utility.yul\":6467:6541   */\n      swap2\n      pop\n        /* \"#utility.yul\":6423:6551   */\n      pop\n        /* \"#utility.yul\":6207:6558   */\n      swap3\n      swap2\n      pop\n      pop\n      jump\t// out\n        /* \"#utility.yul\":6564:6778   */\n    tag_93:\n        /* \"#utility.yul\":6704:6770   */\n      0x6e6674e4b88de59ca8e59088e7baa6e4b8ad0000000000000000000000000000\n        /* \"#utility.yul\":6700:6701   */\n      0x00\n        /* \"#utility.yul\":6692:6698   */\n      dup3\n        /* \"#utility.yul\":6688:6702   */\n      add\n        /* \"#utility.yul\":6681:6771   */\n      mstore\n        /* \"#utility.yul\":6564:6778   */\n      pop\n      jump\t// out\n        /* \"#utility.yul\":6784:7150   */\n    tag_94:\n        /* \"#utility.yul\":6926:6929   */\n      0x00\n        /* \"#utility.yul\":6947:7014   */\n      tag_167\n        /* \"#utility.yul\":7011:7013   */\n      0x12\n        /* \"#utility.yul\":7006:7009   */\n      dup4\n        /* \"#utility.yul\":6947:7014   */\n      tag_86\n      jump\t// in\n    tag_167:\n        /* \"#utility.yul\":6940:7014   */\n      swap2\n      pop\n        /* \"#utility.yul\":7023:7116   */\n      tag_168\n        /* \"#utility.yul\":7112:7115   */\n      dup3\n        /* \"#utility.yul\":7023:7116   */\n      tag_93\n      jump\t// in\n    tag_168:\n        /* \"#utility.yul\":7141:7143   */\n      0x20\n        /* \"#utility.yul\":7136:7139   */\n      dup3\n        /* \"#utility.yul\":7132:7144   */\n      add\n        /* \"#utility.yul\":7125:7144   */\n      swap1\n      pop\n        /* \"#utility.yul\":6784:7150   */\n      swap2\n      swap1\n      pop\n      jump\t// out\n        /* \"#utility.yul\":7156:7575   */\n    tag_47:\n        /* \"#utility.yul\":7322:7326   */\n      0x00\n        /* \"#utility.yul\":7360:7362   */\n      0x20\n        /* \"#utility.yul\":7349:7358   */\n      dup3\n        /* \"#utility.yul\":7345:7363   */\n      add\n        /* \"#utility.yul\":7337:7363   */\n      swap1\n      pop\n        /* \"#utility.yul\":7409:7418   */\n      dup2\n        /* \"#utility.yul\":7403:7407   */\n      dup2\n        /* \"#utility.yul\":7399:7419   */\n      sub\n        /* \"#utility.yul\":7395:7396   */\n      0x00\n        /* \"#utility.yul\":7384:7393   */\n      dup4\n        /* \"#utility.yul\":7380:7397   */\n      add\n        /* \"#utility.yul\":7373:7420   */\n      mstore\n        /* \"#utility.yul\":7437:7568   */\n      tag_170\n        /* \"#utility.yul\":7563:7567   */\n      dup2\n        /* \"#utility.yul\":7437:7568   */\n      tag_94\n      jump\t// in\n    tag_170:\n        /* \"#utility.yul\":7429:7568   */\n      swap1\n      pop\n        /* \"#utility.yul\":7156:7575   */\n      swap2\n      swap1\n      pop\n      jump\t// out\n        /* \"#utility.yul\":7581:8023   */\n    tag_49:\n        /* \"#utility.yul\":7730:7734   */\n      0x00\n        /* \"#utility.yul\":7768:7770   */\n      0x60\n        /* \"#utility.yul\":7757:7766   */\n      dup3\n        /* \"#utility.yul\":7753:7771   */\n      add\n        /* \"#utility.yul\":7745:7771   */\n      swap1\n      pop\n        /* \"#utility.yul\":7781:7852   */\n      tag_172\n        /* \"#utility.yul\":7849:7850   */\n      0x00\n        /* \"#utility.yul\":7838:7847   */\n      dup4\n        /* \"#utility.yul\":7834:7851   */\n      add\n        /* \"#utility.yul\":7825:7831   */\n      dup7\n        /* \"#utility.yul\":7781:7852   */\n      tag_84\n      jump\t// in\n    tag_172:\n        /* \"#utility.yul\":7862:7934   */\n      tag_173\n        /* \"#utility.yul\":7930:7932   */\n      0x20\n        /* \"#utility.yul\":7919:7928   */\n      dup4\n        /* \"#utility.yul\":7915:7933   */\n      add\n        /* \"#utility.yul\":7906:7912   */\n      dup6\n        /* \"#utility.yul\":7862:7934   */\n      tag_84\n      jump\t// in\n    tag_173:\n        /* \"#utility.yul\":7944:8016   */\n      tag_174\n        /* \"#utility.yul\":8012:8014   */\n      0x40\n        /* \"#utility.yul\":8001:8010   */\n      dup4\n        /* \"#utility.yul\":7997:8015   */\n      add\n        /* \"#utility.yul\":7988:7994   */\n      dup5\n        /* \"#utility.yul\":7944:8016   */\n      tag_85\n      jump\t// in\n    tag_174:\n        /* \"#utility.yul\":7581:8023   */\n      swap5\n      swap4\n      pop\n      pop\n      pop\n      pop\n      jump\t// out\n        /* \"#utility.yul\":8029:8119   */\n    tag_95:\n        /* \"#utility.yul\":8063:8070   */\n      0x00\n        /* \"#utility.yul\":8106:8111   */\n      dup2\n        /* \"#utility.yul\":8099:8112   */\n      iszero\n        /* \"#utility.yul\":8092:8113   */\n      iszero\n        /* \"#utility.yul\":8081:8113   */\n      swap1\n      pop\n        /* \"#utility.yul\":8029:8119   */\n      swap2\n      swap1\n      pop\n      jump\t// out\n        /* \"#utility.yul\":8125:8241   */\n    tag_96:\n        /* \"#utility.yul\":8195:8216   */\n      tag_177\n        /* \"#utility.yul\":8210:8215   */\n      dup2\n        /* \"#utility.yul\":8195:8216   */\n      tag_95\n      jump\t// in\n    tag_177:\n        /* \"#utility.yul\":8188:8193   */\n      dup2\n        /* \"#utility.yul\":8185:8217   */\n      eq\n        /* \"#utility.yul\":8175:8235   */\n      tag_178\n      jumpi\n        /* \"#utility.yul\":8231:8232   */\n      0x00\n        /* \"#utility.yul\":8228:8229   */\n      dup1\n        /* \"#utility.yul\":8221:8233   */\n      revert\n        /* \"#utility.yul\":8175:8235   */\n    tag_178:\n        /* \"#utility.yul\":8125:8241   */\n      pop\n      jump\t// out\n        /* \"#utility.yul\":8247:8384   */\n    tag_97:\n        /* \"#utility.yul\":8301:8306   */\n      0x00\n        /* \"#utility.yul\":8332:8338   */\n      dup2\n        /* \"#utility.yul\":8326:8339   */\n      mload\n        /* \"#utility.yul\":8317:8339   */\n      swap1\n      pop\n        /* \"#utility.yul\":8348:8378   */\n      tag_180\n        /* \"#utility.yul\":8372:8377   */\n      dup2\n        /* \"#utility.yul\":8348:8378   */\n      tag_96\n      jump\t// in\n    tag_180:\n        /* \"#utility.yul\":8247:8384   */\n      swap3\n      swap2\n      pop\n      pop\n      jump\t// out\n        /* \"#utility.yul\":8390:8735   */\n    tag_57:\n        /* \"#utility.yul\":8457:8463   */\n      0x00\n        /* \"#utility.yul\":8506:8508   */\n      0x20\n        /* \"#utility.yul\":8494:8503   */\n      dup3\n        /* \"#utility.yul\":8485:8492   */\n      dup5\n        /* \"#utility.yul\":8481:8504   */\n      sub\n        /* \"#utility.yul\":8477:8509   */\n      slt\n        /* \"#utility.yul\":8474:8593   */\n      iszero\n      tag_182\n      jumpi\n        /* \"#utility.yul\":8512:8591   */\n      tag_183\n      tag_75\n      jump\t// in\n    tag_183:\n        /* \"#utility.yul\":8474:8593   */\n    tag_182:\n        /* \"#utility.yul\":8632:8633   */\n      0x00\n        /* \"#utility.yul\":8657:8718   */\n      tag_184\n        /* \"#utility.yul\":8710:8717   */\n      dup5\n        /* \"#utility.yul\":8701:8707   */\n      dup3\n        /* \"#utility.yul\":8690:8699   */\n      dup6\n        /* \"#utility.yul\":8686:8708   */\n      add\n        /* \"#utility.yul\":8657:8718   */\n      tag_97\n      jump\t// in\n    tag_184:\n        /* \"#utility.yul\":8647:8718   */\n      swap2\n      pop\n        /* \"#utility.yul\":8603:8728   */\n      pop\n        /* \"#utility.yul\":8390:8735   */\n      swap3\n      swap2\n      pop\n      pop\n      jump\t// out\n        /* \"#utility.yul\":8741:8955   */\n    tag_98:\n        /* \"#utility.yul\":8881:8947   */\n      0xe6b2a1e69c89e68e88e69d830000000000000000000000000000000000000000\n        /* \"#utility.yul\":8877:8878   */\n      0x00\n        /* \"#utility.yul\":8869:8875   */\n      dup3\n        /* \"#utility.yul\":8865:8879   */\n      add\n        /* \"#utility.yul\":8858:8948   */\n      mstore\n        /* \"#utility.yul\":8741:8955   */\n      pop\n      jump\t// out\n        /* \"#utility.yul\":8961:9327   */\n    tag_99:\n        /* \"#utility.yul\":9103:9106   */\n      0x00\n        /* \"#utility.yul\":9124:9191   */\n      tag_187\n        /* \"#utility.yul\":9188:9190   */\n      0x0c\n        /* \"#utility.yul\":9183:9186   */\n      dup4\n        /* \"#utility.yul\":9124:9191   */\n      tag_86\n      jump\t// in\n    tag_187:\n        /* \"#utility.yul\":9117:9191   */\n      swap2\n      pop\n        /* \"#utility.yul\":9200:9293   */\n      tag_188\n        /* \"#utility.yul\":9289:9292   */\n      dup3\n        /* \"#utility.yul\":9200:9293   */\n      tag_98\n      jump\t// in\n    tag_188:\n        /* \"#utility.yul\":9318:9320   */\n      0x20\n        /* \"#utility.yul\":9313:9316   */\n      dup3\n        /* \"#utility.yul\":9309:9321   */\n      add\n        /* \"#utility.yul\":9302:9321   */\n      swap1\n      pop\n        /* \"#utility.yul\":8961:9327   */\n      swap2\n      swap1\n      pop\n      jump\t// out\n        /* \"#utility.yul\":9333:9752   */\n    tag_66:\n        /* \"#utility.yul\":9499:9503   */\n      0x00\n        /* \"#utility.yul\":9537:9539   */\n      0x20\n        /* \"#utility.yul\":9526:9535   */\n      dup3\n        /* \"#utility.yul\":9522:9540   */\n      add\n        /* \"#utility.yul\":9514:9540   */\n      swap1\n      pop\n        /* \"#utility.yul\":9586:9595   */\n      dup2\n        /* \"#utility.yul\":9580:9584   */\n      dup2\n        /* \"#utility.yul\":9576:9596   */\n      sub\n        /* \"#utility.yul\":9572:9573   */\n      0x00\n        /* \"#utility.yul\":9561:9570   */\n      dup4\n        /* \"#utility.yul\":9557:9574   */\n      add\n        /* \"#utility.yul\":9550:9597   */\n      mstore\n        /* \"#utility.yul\":9614:9745   */\n      tag_190\n        /* \"#utility.yul\":9740:9744   */\n      dup2\n        /* \"#utility.yul\":9614:9745   */\n      tag_99\n      jump\t// in\n    tag_190:\n        /* \"#utility.yul\":9606:9745   */\n      swap1\n      pop\n        /* \"#utility.yul\":9333:9752   */\n      swap2\n      swap1\n      pop\n      jump\t// out\n\n    auxdata: 0xa2646970667358221220fe71e905bf310a6e5e31e36af10c16581255b517be9b870ddc8d0adca0c90c7e64736f6c63430008180033\n}\n",
				"bytecode": {
					"linkReferences": {},
					"object": "608060405234801561000f575f80fd5b50604051610dc1380380610dc1833981810160405281019061003191906100d5565b8060015f6101000a81548173ffffffffffffffffffffffffffffffffffffffff021916908373ffffffffffffffffffffffffffffffffffffffff16021790555050610100565b5f80fd5b5f73ffffffffffffffffffffffffffffffffffffffff82169050919050565b5f6100a48261007b565b9050919050565b6100b48161009a565b81146100be575f80fd5b50565b5f815190506100cf816100ab565b92915050565b5f602082840312156100ea576100e9610077565b5b5f6100f7848285016100c1565b91505092915050565b610cb48061010d5f395ff3fe608060405260043610610037575f3560e01c80638de9322214610040578063ba5f4fb214610068578063dda342bb146100a55761003e565b3661003e57005b005b34801561004b575f80fd5b50610066600480360381019061006191906108b6565b6100cd565b005b348015610073575f80fd5b5061008e600480360381019061008991906108b6565b610542565b60405161009c929190610912565b60405180910390f35b3480156100b0575f80fd5b506100cb60048036038101906100c69190610939565b61058b565b005b5f805f8473ffffffffffffffffffffffffffffffffffffffff1673ffffffffffffffffffffffffffffffffffffffff1681526020019081526020015f205f8381526020019081526020015f2090505f816001015411610161576040517f08c379a0000000000000000000000000000000000000000000000000000000008152600401610158906109e3565b60405180910390fd5b806001015460015f9054906101000a900473ffffffffffffffffffffffffffffffffffffffff1673ffffffffffffffffffffffffffffffffffffffff166370a08231336040518263ffffffff1660e01b81526004016101c09190610a01565b602060405180830381865afa1580156101db573d5f803e3d5ffd5b505050506040513d601f19601f820116820180604052508101906101ff9190610a2e565b1015610240576040517f08c379a000000000000000000000000000000000000000000000000000000000815260040161023790610aa3565b60405180910390fd5b5f8390503073ffffffffffffffffffffffffffffffffffffffff168173ffffffffffffffffffffffffffffffffffffffff16636352211e856040518263ffffffff1660e01b81526004016102949190610ac1565b602060405180830381865afa1580156102af573d5f803e3d5ffd5b505050506040513d601f19601f820116820180604052508101906102d39190610aee565b73ffffffffffffffffffffffffffffffffffffffff1614610329576040517f08c379a000000000000000000000000000000000000000000000000000000000815260040161032090610b63565b60405180910390fd5b8073ffffffffffffffffffffffffffffffffffffffff166323b872dd3033866040518463ffffffff1660e01b815260040161036693929190610b81565b5f604051808303815f87803b15801561037d575f80fd5b505af115801561038f573d5f803e3d5ffd5b5050505060015f9054906101000a900473ffffffffffffffffffffffffffffffffffffffff1673ffffffffffffffffffffffffffffffffffffffff166323b872dd33845f015f9054906101000a900473ffffffffffffffffffffffffffffffffffffffff1685600101546040518463ffffffff1660e01b815260040161041793929190610b81565b6020604051808303815f875af1158015610433573d5f803e3d5ffd5b505050506040513d601f19601f820116820180604052508101906104579190610beb565b50828473ffffffffffffffffffffffffffffffffffffffff163373ffffffffffffffffffffffffffffffffffffffff167f46661dab58311a6838247afecbee792192b4f27fc8b3e7168c66bc55ec2e404e85600101546040516104ba9190610ac1565b60405180910390a45f808573ffffffffffffffffffffffffffffffffffffffff1673ffffffffffffffffffffffffffffffffffffffff1681526020019081526020015f205f8481526020019081526020015f205f8082015f6101000a81549073ffffffffffffffffffffffffffffffffffffffff0219169055600182015f9055505050505050565b5f602052815f5260405f20602052805f5260405f205f9150915050805f015f9054906101000a900473ffffffffffffffffffffffffffffffffffffffff16908060010154905082565b5f8390503073ffffffffffffffffffffffffffffffffffffffff168173ffffffffffffffffffffffffffffffffffffffff1663081812fc856040518263ffffffff1660e01b81526004016105df9190610ac1565b602060405180830381865afa1580156105fa573d5f803e3d5ffd5b505050506040513d601f19601f8201168201806040525081019061061e9190610aee565b73ffffffffffffffffffffffffffffffffffffffff1614610674576040517f08c379a000000000000000000000000000000000000000000000000000000000815260040161066b90610c60565b60405180910390fd5b5f82116106b6576040517f08c379a00000000000000000000000000000000000000000000000000000000081526004016106ad906109e3565b60405180910390fd5b5f805f8673ffffffffffffffffffffffffffffffffffffffff1673ffffffffffffffffffffffffffffffffffffffff1681526020019081526020015f205f8581526020019081526020015f20905033815f015f6101000a81548173ffffffffffffffffffffffffffffffffffffffff021916908373ffffffffffffffffffffffffffffffffffffffff1602179055508281600101819055508173ffffffffffffffffffffffffffffffffffffffff166323b872dd3330876040518463ffffffff1660e01b815260040161078b93929190610b81565b5f604051808303815f87803b1580156107a2575f80fd5b505af11580156107b4573d5f803e3d5ffd5b50505050838573ffffffffffffffffffffffffffffffffffffffff163373ffffffffffffffffffffffffffffffffffffffff167fedbdf022944a3291f4b30148903a84720506f48e10478ec5812e5caf30e1fab0866040516108169190610ac1565b60405180910390a45050505050565b5f80fd5b5f73ffffffffffffffffffffffffffffffffffffffff82169050919050565b5f61085282610829565b9050919050565b61086281610848565b811461086c575f80fd5b50565b5f8135905061087d81610859565b92915050565b5f819050919050565b61089581610883565b811461089f575f80fd5b50565b5f813590506108b08161088c565b92915050565b5f80604083850312156108cc576108cb610825565b5b5f6108d98582860161086f565b92505060206108ea858286016108a2565b9150509250929050565b6108fd81610848565b82525050565b61090c81610883565b82525050565b5f6040820190506109255f8301856108f4565b6109326020830184610903565b9392505050565b5f805f606084860312156109505761094f610825565b5b5f61095d8682870161086f565b935050602061096e868287016108a2565b925050604061097f868287016108a2565b9150509250925092565b5f82825260208201905092915050565b7fe4bbb7e6a0bce8a681e5a4a7e4ba8e20300000000000000000000000000000005f82015250565b5f6109cd601183610989565b91506109d882610999565b602082019050919050565b5f6020820190508181035f8301526109fa816109c1565b9050919050565b5f602082019050610a145f8301846108f4565b92915050565b5f81519050610a288161088c565b92915050565b5f60208284031215610a4357610a42610825565b5b5f610a5084828501610a1a565b91505092915050565b7fe992b1e4b88de5a49f00000000000000000000000000000000000000000000005f82015250565b5f610a8d600983610989565b9150610a9882610a59565b602082019050919050565b5f6020820190508181035f830152610aba81610a81565b9050919050565b5f602082019050610ad45f830184610903565b92915050565b5f81519050610ae881610859565b92915050565b5f60208284031215610b0357610b02610825565b5b5f610b1084828501610ada565b91505092915050565b7f6e6674e4b88de59ca8e59088e7baa6e4b8ad00000000000000000000000000005f82015250565b5f610b4d601283610989565b9150610b5882610b19565b602082019050919050565b5f6020820190508181035f830152610b7a81610b41565b9050919050565b5f606082019050610b945f8301866108f4565b610ba160208301856108f4565b610bae6040830184610903565b949350505050565b5f8115159050919050565b610bca81610bb6565b8114610bd4575f80fd5b50565b5f81519050610be581610bc1565b92915050565b5f60208284031215610c0057610bff610825565b5b5f610c0d84828501610bd7565b91505092915050565b7fe6b2a1e69c89e68e88e69d8300000000000000000000000000000000000000005f82015250565b5f610c4a600c83610989565b9150610c5582610c16565b602082019050919050565b5f6020820190508181035f830152610c7781610c3e565b905091905056fea2646970667358221220fe71e905bf310a6e5e31e36af10c16581255b517be9b870ddc8d0adca0c90c7e64736f6c63430008180033",
					"opcodes": "PUSH1 0x80 PUSH1 0x40 MSTORE CALLVALUE DUP1 ISZERO PUSH2 0xF JUMPI PUSH0 DUP1 REVERT JUMPDEST POP PUSH1 0x40 MLOAD PUSH2 0xDC1 CODESIZE SUB DUP1 PUSH2 0xDC1 DUP4 CODECOPY DUP2 DUP2 ADD PUSH1 0x40 MSTORE DUP2 ADD SWAP1 PUSH2 0x31 SWAP2 SWAP1 PUSH2 0xD5 JUMP JUMPDEST DUP1 PUSH1 0x1 PUSH0 PUSH2 0x100 EXP DUP2 SLOAD DUP2 PUSH20 0xFFFFFFFFFFFFFFFFFFFFFFFFFFFFFFFFFFFFFFFF MUL NOT AND SWAP1 DUP4 PUSH20 0xFFFFFFFFFFFFFFFFFFFFFFFFFFFFFFFFFFFFFFFF AND MUL OR SWAP1 SSTORE POP POP PUSH2 0x100 JUMP JUMPDEST PUSH0 DUP1 REVERT JUMPDEST PUSH0 PUSH20 0xFFFFFFFFFFFFFFFFFFFFFFFFFFFFFFFFFFFFFFFF DUP3 AND SWAP1 POP SWAP2 SWAP1 POP JUMP JUMPDEST PUSH0 PUSH2 0xA4 DUP3 PUSH2 0x7B JUMP JUMPDEST SWAP1 POP SWAP2 SWAP1 POP JUMP JUMPDEST PUSH2 0xB4 DUP2 PUSH2 0x9A JUMP JUMPDEST DUP2 EQ PUSH2 0xBE JUMPI PUSH0 DUP1 REVERT JUMPDEST POP JUMP JUMPDEST PUSH0 DUP2 MLOAD SWAP1 POP PUSH2 0xCF DUP2 PUSH2 0xAB JUMP JUMPDEST SWAP3 SWAP2 POP POP JUMP JUMPDEST PUSH0 PUSH1 0x20 DUP3 DUP5 SUB SLT ISZERO PUSH2 0xEA JUMPI PUSH2 0xE9 PUSH2 0x77 JUMP JUMPDEST JUMPDEST PUSH0 PUSH2 0xF7 DUP5 DUP3 DUP6 ADD PUSH2 0xC1 JUMP JUMPDEST SWAP2 POP POP SWAP3 SWAP2 POP POP JUMP JUMPDEST PUSH2 0xCB4 DUP1 PUSH2 0x10D PUSH0 CODECOPY PUSH0 RETURN INVALID PUSH1 0x80 PUSH1 0x40 MSTORE PUSH1 0x4 CALLDATASIZE LT PUSH2 0x37 JUMPI PUSH0 CALLDATALOAD PUSH1 0xE0 SHR DUP1 PUSH4 0x8DE93222 EQ PUSH2 0x40 JUMPI DUP1 PUSH4 0xBA5F4FB2 EQ PUSH2 0x68 JUMPI DUP1 PUSH4 0xDDA342BB EQ PUSH2 0xA5 JUMPI PUSH2 0x3E JUMP JUMPDEST CALLDATASIZE PUSH2 0x3E JUMPI STOP JUMPDEST STOP JUMPDEST CALLVALUE DUP1 ISZERO PUSH2 0x4B JUMPI PUSH0 DUP1 REVERT JUMPDEST POP PUSH2 0x66 PUSH1 0x4 DUP1 CALLDATASIZE SUB DUP2 ADD SWAP1 PUSH2 0x61 SWAP2 SWAP1 PUSH2 0x8B6 JUMP JUMPDEST PUSH2 0xCD JUMP JUMPDEST STOP JUMPDEST CALLVALUE DUP1 ISZERO PUSH2 0x73 JUMPI PUSH0 DUP1 REVERT JUMPDEST POP PUSH2 0x8E PUSH1 0x4 DUP1 CALLDATASIZE SUB DUP2 ADD SWAP1 PUSH2 0x89 SWAP2 SWAP1 PUSH2 0x8B6 JUMP JUMPDEST PUSH2 0x542 JUMP JUMPDEST PUSH1 0x40 MLOAD PUSH2 0x9C SWAP3 SWAP2 SWAP1 PUSH2 0x912 JUMP JUMPDEST PUSH1 0x40 MLOAD DUP1 SWAP2 SUB SWAP1 RETURN JUMPDEST CALLVALUE DUP1 ISZERO PUSH2 0xB0 JUMPI PUSH0 DUP1 REVERT JUMPDEST POP PUSH2 0xCB PUSH1 0x4 DUP1 CALLDATASIZE SUB DUP2 ADD SWAP1 PUSH2 0xC6 SWAP2 SWAP1 PUSH2 0x939 JUMP JUMPDEST PUSH2 0x58B JUMP JUMPDEST STOP JUMPDEST PUSH0 DUP1 PUSH0 DUP5 PUSH20 0xFFFFFFFFFFFFFFFFFFFFFFFFFFFFFFFFFFFFFFFF AND PUSH20 0xFFFFFFFFFFFFFFFFFFFFFFFFFFFFFFFFFFFFFFFF AND DUP2 MSTORE PUSH1 0x20 ADD SWAP1 DUP2 MSTORE PUSH1 0x20 ADD PUSH0 KECCAK256 PUSH0 DUP4 DUP2 MSTORE PUSH1 0x20 ADD SWAP1 DUP2 MSTORE PUSH1 0x20 ADD PUSH0 KECCAK256 SWAP1 POP PUSH0 DUP2 PUSH1 0x1 ADD SLOAD GT PUSH2 0x161 JUMPI PUSH1 0x40 MLOAD PUSH32 0x8C379A000000000000000000000000000000000000000000000000000000000 DUP2 MSTORE PUSH1 0x4 ADD PUSH2 0x158 SWAP1 PUSH2 0x9E3 JUMP JUMPDEST PUSH1 0x40 MLOAD DUP1 SWAP2 SUB SWAP1 REVERT JUMPDEST DUP1 PUSH1 0x1 ADD SLOAD PUSH1 0x1 PUSH0 SWAP1 SLOAD SWAP1 PUSH2 0x100 EXP SWAP1 DIV PUSH20 0xFFFFFFFFFFFFFFFFFFFFFFFFFFFFFFFFFFFFFFFF AND PUSH20 0xFFFFFFFFFFFFFFFFFFFFFFFFFFFFFFFFFFFFFFFF AND PUSH4 0x70A08231 CALLER PUSH1 0x40 MLOAD DUP3 PUSH4 0xFFFFFFFF AND PUSH1 0xE0 SHL DUP2 MSTORE PUSH1 0x4 ADD PUSH2 0x1C0 SWAP2 SWAP1 PUSH2 0xA01 JUMP JUMPDEST PUSH1 0x20 PUSH1 0x40 MLOAD DUP1 DUP4 SUB DUP2 DUP7 GAS STATICCALL ISZERO DUP1 ISZERO PUSH2 0x1DB JUMPI RETURNDATASIZE PUSH0 DUP1 RETURNDATACOPY RETURNDATASIZE PUSH0 REVERT JUMPDEST POP POP POP POP PUSH1 0x40 MLOAD RETURNDATASIZE PUSH1 0x1F NOT PUSH1 0x1F DUP3 ADD AND DUP3 ADD DUP1 PUSH1 0x40 MSTORE POP DUP2 ADD SWAP1 PUSH2 0x1FF SWAP2 SWAP1 PUSH2 0xA2E JUMP JUMPDEST LT ISZERO PUSH2 0x240 JUMPI PUSH1 0x40 MLOAD PUSH32 0x8C379A000000000000000000000000000000000000000000000000000000000 DUP2 MSTORE PUSH1 0x4 ADD PUSH2 0x237 SWAP1 PUSH2 0xAA3 JUMP JUMPDEST PUSH1 0x40 MLOAD DUP1 SWAP2 SUB SWAP1 REVERT JUMPDEST PUSH0 DUP4 SWAP1 POP ADDRESS PUSH20 0xFFFFFFFFFFFFFFFFFFFFFFFFFFFFFFFFFFFFFFFF AND DUP2 PUSH20 0xFFFFFFFFFFFFFFFFFFFFFFFFFFFFFFFFFFFFFFFF AND PUSH4 0x6352211E DUP6 PUSH1 0x40 MLOAD DUP3 PUSH4 0xFFFFFFFF AND PUSH1 0xE0 SHL DUP2 MSTORE PUSH1 0x4 ADD PUSH2 0x294 SWAP2 SWAP1 PUSH2 0xAC1 JUMP JUMPDEST PUSH1 0x20 PUSH1 0x40 MLOAD DUP1 DUP4 SUB DUP2 DUP7 GAS STATICCALL ISZERO DUP1 ISZERO PUSH2 0x2AF JUMPI RETURNDATASIZE PUSH0 DUP1 RETURNDATACOPY RETURNDATASIZE PUSH0 REVERT JUMPDEST POP POP POP POP PUSH1 0x40 MLOAD RETURNDATASIZE PUSH1 0x1F NOT PUSH1 0x1F DUP3 ADD AND DUP3 ADD DUP1 PUSH1 0x40 MSTORE POP DUP2 ADD SWAP1 PUSH2 0x2D3 SWAP2 SWAP1 PUSH2 0xAEE JUMP JUMPDEST PUSH20 0xFFFFFFFFFFFFFFFFFFFFFFFFFFFFFFFFFFFFFFFF AND EQ PUSH2 0x329 JUMPI PUSH1 0x40 MLOAD PUSH32 0x8C379A000000000000000000000000000000000000000000000000000000000 DUP2 MSTORE PUSH1 0x4 ADD PUSH2 0x320 SWAP1 PUSH2 0xB63 JUMP JUMPDEST PUSH1 0x40 MLOAD DUP1 SWAP2 SUB SWAP1 REVERT JUMPDEST DUP1 PUSH20 0xFFFFFFFFFFFFFFFFFFFFFFFFFFFFFFFFFFFFFFFF AND PUSH4 0x23B872DD ADDRESS CALLER DUP7 PUSH1 0x40 MLOAD DUP5 PUSH4 0xFFFFFFFF AND PUSH1 0xE0 SHL DUP2 MSTORE PUSH1 0x4 ADD PUSH2 0x366 SWAP4 SWAP3 SWAP2 SWAP1 PUSH2 0xB81 JUMP JUMPDEST PUSH0 PUSH1 0x40 MLOAD DUP1 DUP4 SUB DUP2 PUSH0 DUP8 DUP1 EXTCODESIZE ISZERO DUP1 ISZERO PUSH2 0x37D JUMPI PUSH0 DUP1 REVERT JUMPDEST POP GAS CALL ISZERO DUP1 ISZERO PUSH2 0x38F JUMPI RETURNDATASIZE PUSH0 DUP1 RETURNDATACOPY RETURNDATASIZE PUSH0 REVERT JUMPDEST POP POP POP POP PUSH1 0x1 PUSH0 SWAP1 SLOAD SWAP1 PUSH2 0x100 EXP SWAP1 DIV PUSH20 0xFFFFFFFFFFFFFFFFFFFFFFFFFFFFFFFFFFFFFFFF AND PUSH20 0xFFFFFFFFFFFFFFFFFFFFFFFFFFFFFFFFFFFFFFFF AND PUSH4 0x23B872DD CALLER DUP5 PUSH0 ADD PUSH0 SWAP1 SLOAD SWAP1 PUSH2 0x100 EXP SWAP1 DIV PUSH20 0xFFFFFFFFFFFFFFFFFFFFFFFFFFFFFFFFFFFFFFFF AND DUP6 PUSH1 0x1 ADD SLOAD PUSH1 0x40 MLOAD DUP5 PUSH4 0xFFFFFFFF AND PUSH1 0xE0 SHL DUP2 MSTORE PUSH1 0x4 ADD PUSH2 0x417 SWAP4 SWAP3 SWAP2 SWAP1 PUSH2 0xB81 JUMP JUMPDEST PUSH1 0x20 PUSH1 0x40 MLOAD DUP1 DUP4 SUB DUP2 PUSH0 DUP8 GAS CALL ISZERO DUP1 ISZERO PUSH2 0x433 JUMPI RETURNDATASIZE PUSH0 DUP1 RETURNDATACOPY RETURNDATASIZE PUSH0 REVERT JUMPDEST POP POP POP POP PUSH1 0x40 MLOAD RETURNDATASIZE PUSH1 0x1F NOT PUSH1 0x1F DUP3 ADD AND DUP3 ADD DUP1 PUSH1 0x40 MSTORE POP DUP2 ADD SWAP1 PUSH2 0x457 SWAP2 SWAP1 PUSH2 0xBEB JUMP JUMPDEST POP DUP3 DUP5 PUSH20 0xFFFFFFFFFFFFFFFFFFFFFFFFFFFFFFFFFFFFFFFF AND CALLER PUSH20 0xFFFFFFFFFFFFFFFFFFFFFFFFFFFFFFFFFFFFFFFF AND PUSH32 0x46661DAB58311A6838247AFECBEE792192B4F27FC8B3E7168C66BC55EC2E404E DUP6 PUSH1 0x1 ADD SLOAD PUSH1 0x40 MLOAD PUSH2 0x4BA SWAP2 SWAP1 PUSH2 0xAC1 JUMP JUMPDEST PUSH1 0x40 MLOAD DUP1 SWAP2 SUB SWAP1 LOG4 PUSH0 DUP1 DUP6 PUSH20 0xFFFFFFFFFFFFFFFFFFFFFFFFFFFFFFFFFFFFFFFF AND PUSH20 0xFFFFFFFFFFFFFFFFFFFFFFFFFFFFFFFFFFFFFFFF AND DUP2 MSTORE PUSH1 0x20 ADD SWAP1 DUP2 MSTORE PUSH1 0x20 ADD PUSH0 KECCAK256 PUSH0 DUP5 DUP2 MSTORE PUSH1 0x20 ADD SWAP1 DUP2 MSTORE PUSH1 0x20 ADD PUSH0 KECCAK256 PUSH0 DUP1 DUP3 ADD PUSH0 PUSH2 0x100 EXP DUP2 SLOAD SWAP1 PUSH20 0xFFFFFFFFFFFFFFFFFFFFFFFFFFFFFFFFFFFFFFFF MUL NOT AND SWAP1 SSTORE PUSH1 0x1 DUP3 ADD PUSH0 SWAP1 SSTORE POP POP POP POP POP POP JUMP JUMPDEST PUSH0 PUSH1 0x20 MSTORE DUP2 PUSH0 MSTORE PUSH1 0x40 PUSH0 KECCAK256 PUSH1 0x20 MSTORE DUP1 PUSH0 MSTORE PUSH1 0x40 PUSH0 KECCAK256 PUSH0 SWAP2 POP SWAP2 POP POP DUP1 PUSH0 ADD PUSH0 SWAP1 SLOAD SWAP1 PUSH2 0x100 EXP SWAP1 DIV PUSH20 0xFFFFFFFFFFFFFFFFFFFFFFFFFFFFFFFFFFFFFFFF AND SWAP1 DUP1 PUSH1 0x1 ADD SLOAD SWAP1 POP DUP3 JUMP JUMPDEST PUSH0 DUP4 SWAP1 POP ADDRESS PUSH20 0xFFFFFFFFFFFFFFFFFFFFFFFFFFFFFFFFFFFFFFFF AND DUP2 PUSH20 0xFFFFFFFFFFFFFFFFFFFFFFFFFFFFFFFFFFFFFFFF AND PUSH4 0x81812FC DUP6 PUSH1 0x40 MLOAD DUP3 PUSH4 0xFFFFFFFF AND PUSH1 0xE0 SHL DUP2 MSTORE PUSH1 0x4 ADD PUSH2 0x5DF SWAP2 SWAP1 PUSH2 0xAC1 JUMP JUMPDEST PUSH1 0x20 PUSH1 0x40 MLOAD DUP1 DUP4 SUB DUP2 DUP7 GAS STATICCALL ISZERO DUP1 ISZERO PUSH2 0x5FA JUMPI RETURNDATASIZE PUSH0 DUP1 RETURNDATACOPY RETURNDATASIZE PUSH0 REVERT JUMPDEST POP POP POP POP PUSH1 0x40 MLOAD RETURNDATASIZE PUSH1 0x1F NOT PUSH1 0x1F DUP3 ADD AND DUP3 ADD DUP1 PUSH1 0x40 MSTORE POP DUP2 ADD SWAP1 PUSH2 0x61E SWAP2 SWAP1 PUSH2 0xAEE JUMP JUMPDEST PUSH20 0xFFFFFFFFFFFFFFFFFFFFFFFFFFFFFFFFFFFFFFFF AND EQ PUSH2 0x674 JUMPI PUSH1 0x40 MLOAD PUSH32 0x8C379A000000000000000000000000000000000000000000000000000000000 DUP2 MSTORE PUSH1 0x4 ADD PUSH2 0x66B SWAP1 PUSH2 0xC60 JUMP JUMPDEST PUSH1 0x40 MLOAD DUP1 SWAP2 SUB SWAP1 REVERT JUMPDEST PUSH0 DUP3 GT PUSH2 0x6B6 JUMPI PUSH1 0x40 MLOAD PUSH32 0x8C379A000000000000000000000000000000000000000000000000000000000 DUP2 MSTORE PUSH1 0x4 ADD PUSH2 0x6AD SWAP1 PUSH2 0x9E3 JUMP JUMPDEST PUSH1 0x40 MLOAD DUP1 SWAP2 SUB SWAP1 REVERT JUMPDEST PUSH0 DUP1 PUSH0 DUP7 PUSH20 0xFFFFFFFFFFFFFFFFFFFFFFFFFFFFFFFFFFFFFFFF AND PUSH20 0xFFFFFFFFFFFFFFFFFFFFFFFFFFFFFFFFFFFFFFFF AND DUP2 MSTORE PUSH1 0x20 ADD SWAP1 DUP2 MSTORE PUSH1 0x20 ADD PUSH0 KECCAK256 PUSH0 DUP6 DUP2 MSTORE PUSH1 0x20 ADD SWAP1 DUP2 MSTORE PUSH1 0x20 ADD PUSH0 KECCAK256 SWAP1 POP CALLER DUP2 PUSH0 ADD PUSH0 PUSH2 0x100 EXP DUP2 SLOAD DUP2 PUSH20 0xFFFFFFFFFFFFFFFFFFFFFFFFFFFFFFFFFFFFFFFF MUL NOT AND SWAP1 DUP4 PUSH20 0xFFFFFFFFFFFFFFFFFFFFFFFFFFFFFFFFFFFFFFFF AND MUL OR SWAP1 SSTORE POP DUP3 DUP2 PUSH1 0x1 ADD DUP2 SWAP1 SSTORE POP DUP2 PUSH20 0xFFFFFFFFFFFFFFFFFFFFFFFFFFFFFFFFFFFFFFFF AND PUSH4 0x23B872DD CALLER ADDRESS DUP8 PUSH1 0x40 MLOAD DUP5 PUSH4 0xFFFFFFFF AND PUSH1 0xE0 SHL DUP2 MSTORE PUSH1 0x4 ADD PUSH2 0x78B SWAP4 SWAP3 SWAP2 SWAP1 PUSH2 0xB81 JUMP JUMPDEST PUSH0 PUSH1 0x40 MLOAD DUP1 DUP4 SUB DUP2 PUSH0 DUP8 DUP1 EXTCODESIZE ISZERO DUP1 ISZERO PUSH2 0x7A2 JUMPI PUSH0 DUP1 REVERT JUMPDEST POP GAS CALL ISZERO DUP1 ISZERO PUSH2 0x7B4 JUMPI RETURNDATASIZE PUSH0 DUP1 RETURNDATACOPY RETURNDATASIZE PUSH0 REVERT JUMPDEST POP POP POP POP DUP4 DUP6 PUSH20 0xFFFFFFFFFFFFFFFFFFFFFFFFFFFFFFFFFFFFFFFF AND CALLER PUSH20 0xFFFFFFFFFFFFFFFFFFFFFFFFFFFFFFFFFFFFFFFF AND PUSH32 0xEDBDF022944A3291F4B30148903A84720506F48E10478EC5812E5CAF30E1FAB0 DUP7 PUSH1 0x40 MLOAD PUSH2 0x816 SWAP2 SWAP1 PUSH2 0xAC1 JUMP JUMPDEST PUSH1 0x40 MLOAD DUP1 SWAP2 SUB SWAP1 LOG4 POP POP POP POP POP JUMP JUMPDEST PUSH0 DUP1 REVERT JUMPDEST PUSH0 PUSH20 0xFFFFFFFFFFFFFFFFFFFFFFFFFFFFFFFFFFFFFFFF DUP3 AND SWAP1 POP SWAP2 SWAP1 POP JUMP JUMPDEST PUSH0 PUSH2 0x852 DUP3 PUSH2 0x829 JUMP JUMPDEST SWAP1 POP SWAP2 SWAP1 POP JUMP JUMPDEST PUSH2 0x862 DUP2 PUSH2 0x848 JUMP JUMPDEST DUP2 EQ PUSH2 0x86C JUMPI PUSH0 DUP1 REVERT JUMPDEST POP JUMP JUMPDEST PUSH0 DUP2 CALLDATALOAD SWAP1 POP PUSH2 0x87D DUP2 PUSH2 0x859 JUMP JUMPDEST SWAP3 SWAP2 POP POP JUMP JUMPDEST PUSH0 DUP2 SWAP1 POP SWAP2 SWAP1 POP JUMP JUMPDEST PUSH2 0x895 DUP2 PUSH2 0x883 JUMP JUMPDEST DUP2 EQ PUSH2 0x89F JUMPI PUSH0 DUP1 REVERT JUMPDEST POP JUMP JUMPDEST PUSH0 DUP2 CALLDATALOAD SWAP1 POP PUSH2 0x8B0 DUP2 PUSH2 0x88C JUMP JUMPDEST SWAP3 SWAP2 POP POP JUMP JUMPDEST PUSH0 DUP1 PUSH1 0x40 DUP4 DUP6 SUB SLT ISZERO PUSH2 0x8CC JUMPI PUSH2 0x8CB PUSH2 0x825 JUMP JUMPDEST JUMPDEST PUSH0 PUSH2 0x8D9 DUP6 DUP3 DUP7 ADD PUSH2 0x86F JUMP JUMPDEST SWAP3 POP POP PUSH1 0x20 PUSH2 0x8EA DUP6 DUP3 DUP7 ADD PUSH2 0x8A2 JUMP JUMPDEST SWAP2 POP POP SWAP3 POP SWAP3 SWAP1 POP JUMP JUMPDEST PUSH2 0x8FD DUP2 PUSH2 0x848 JUMP JUMPDEST DUP3 MSTORE POP POP JUMP JUMPDEST PUSH2 0x90C DUP2 PUSH2 0x883 JUMP JUMPDEST DUP3 MSTORE POP POP JUMP JUMPDEST PUSH0 PUSH1 0x40 DUP3 ADD SWAP1 POP PUSH2 0x925 PUSH0 DUP4 ADD DUP6 PUSH2 0x8F4 JUMP JUMPDEST PUSH2 0x932 PUSH1 0x20 DUP4 ADD DUP5 PUSH2 0x903 JUMP JUMPDEST SWAP4 SWAP3 POP POP POP JUMP JUMPDEST PUSH0 DUP1 PUSH0 PUSH1 0x60 DUP5 DUP7 SUB SLT ISZERO PUSH2 0x950 JUMPI PUSH2 0x94F PUSH2 0x825 JUMP JUMPDEST JUMPDEST PUSH0 PUSH2 0x95D DUP7 DUP3 DUP8 ADD PUSH2 0x86F JUMP JUMPDEST SWAP4 POP POP PUSH1 0x20 PUSH2 0x96E DUP7 DUP3 DUP8 ADD PUSH2 0x8A2 JUMP JUMPDEST SWAP3 POP POP PUSH1 0x40 PUSH2 0x97F DUP7 DUP3 DUP8 ADD PUSH2 0x8A2 JUMP JUMPDEST SWAP2 POP POP SWAP3 POP SWAP3 POP SWAP3 JUMP JUMPDEST PUSH0 DUP3 DUP3 MSTORE PUSH1 0x20 DUP3 ADD SWAP1 POP SWAP3 SWAP2 POP POP JUMP JUMPDEST PUSH32 0xE4BBB7E6A0BCE8A681E5A4A7E4BA8E2030000000000000000000000000000000 PUSH0 DUP3 ADD MSTORE POP JUMP JUMPDEST PUSH0 PUSH2 0x9CD PUSH1 0x11 DUP4 PUSH2 0x989 JUMP JUMPDEST SWAP2 POP PUSH2 0x9D8 DUP3 PUSH2 0x999 JUMP JUMPDEST PUSH1 0x20 DUP3 ADD SWAP1 POP SWAP2 SWAP1 POP JUMP JUMPDEST PUSH0 PUSH1 0x20 DUP3 ADD SWAP1 POP DUP2 DUP2 SUB PUSH0 DUP4 ADD MSTORE PUSH2 0x9FA DUP2 PUSH2 0x9C1 JUMP JUMPDEST SWAP1 POP SWAP2 SWAP1 POP JUMP JUMPDEST PUSH0 PUSH1 0x20 DUP3 ADD SWAP1 POP PUSH2 0xA14 PUSH0 DUP4 ADD DUP5 PUSH2 0x8F4 JUMP JUMPDEST SWAP3 SWAP2 POP POP JUMP JUMPDEST PUSH0 DUP2 MLOAD SWAP1 POP PUSH2 0xA28 DUP2 PUSH2 0x88C JUMP JUMPDEST SWAP3 SWAP2 POP POP JUMP JUMPDEST PUSH0 PUSH1 0x20 DUP3 DUP5 SUB SLT ISZERO PUSH2 0xA43 JUMPI PUSH2 0xA42 PUSH2 0x825 JUMP JUMPDEST JUMPDEST PUSH0 PUSH2 0xA50 DUP5 DUP3 DUP6 ADD PUSH2 0xA1A JUMP JUMPDEST SWAP2 POP POP SWAP3 SWAP2 POP POP JUMP JUMPDEST PUSH32 0xE992B1E4B88DE5A49F0000000000000000000000000000000000000000000000 PUSH0 DUP3 ADD MSTORE POP JUMP JUMPDEST PUSH0 PUSH2 0xA8D PUSH1 0x9 DUP4 PUSH2 0x989 JUMP JUMPDEST SWAP2 POP PUSH2 0xA98 DUP3 PUSH2 0xA59 JUMP JUMPDEST PUSH1 0x20 DUP3 ADD SWAP1 POP SWAP2 SWAP1 POP JUMP JUMPDEST PUSH0 PUSH1 0x20 DUP3 ADD SWAP1 POP DUP2 DUP2 SUB PUSH0 DUP4 ADD MSTORE PUSH2 0xABA DUP2 PUSH2 0xA81 JUMP JUMPDEST SWAP1 POP SWAP2 SWAP1 POP JUMP JUMPDEST PUSH0 PUSH1 0x20 DUP3 ADD SWAP1 POP PUSH2 0xAD4 PUSH0 DUP4 ADD DUP5 PUSH2 0x903 JUMP JUMPDEST SWAP3 SWAP2 POP POP JUMP JUMPDEST PUSH0 DUP2 MLOAD SWAP1 POP PUSH2 0xAE8 DUP2 PUSH2 0x859 JUMP JUMPDEST SWAP3 SWAP2 POP POP JUMP JUMPDEST PUSH0 PUSH1 0x20 DUP3 DUP5 SUB SLT ISZERO PUSH2 0xB03 JUMPI PUSH2 0xB02 PUSH2 0x825 JUMP JUMPDEST JUMPDEST PUSH0 PUSH2 0xB10 DUP5 DUP3 DUP6 ADD PUSH2 0xADA JUMP JUMPDEST SWAP2 POP POP SWAP3 SWAP2 POP POP JUMP JUMPDEST PUSH32 0x6E6674E4B88DE59CA8E59088E7BAA6E4B8AD0000000000000000000000000000 PUSH0 DUP3 ADD MSTORE POP JUMP JUMPDEST PUSH0 PUSH2 0xB4D PUSH1 0x12 DUP4 PUSH2 0x989 JUMP JUMPDEST SWAP2 POP PUSH2 0xB58 DUP3 PUSH2 0xB19 JUMP JUMPDEST PUSH1 0x20 DUP3 ADD SWAP1 POP SWAP2 SWAP1 POP JUMP JUMPDEST PUSH0 PUSH1 0x20 DUP3 ADD SWAP1 POP DUP2 DUP2 SUB PUSH0 DUP4 ADD MSTORE PUSH2 0xB7A DUP2 PUSH2 0xB41 JUMP JUMPDEST SWAP1 POP SWAP2 SWAP1 POP JUMP JUMPDEST PUSH0 PUSH1 0x60 DUP3 ADD SWAP1 POP PUSH2 0xB94 PUSH0 DUP4 ADD DUP7 PUSH2 0x8F4 JUMP JUMPDEST PUSH2 0xBA1 PUSH1 0x20 DUP4 ADD DUP6 PUSH2 0x8F4 JUMP JUMPDEST PUSH2 0xBAE PUSH1 0x40 DUP4 ADD DUP5 PUSH2 0x903 JUMP JUMPDEST SWAP5 SWAP4 POP POP POP POP JUMP JUMPDEST PUSH0 DUP2 ISZERO ISZERO SWAP1 POP SWAP2 SWAP1 POP JUMP JUMPDEST PUSH2 0xBCA DUP2 PUSH2 0xBB6 JUMP JUMPDEST DUP2 EQ PUSH2 0xBD4 JUMPI PUSH0 DUP1 REVERT JUMPDEST POP JUMP JUMPDEST PUSH0 DUP2 MLOAD SWAP1 POP PUSH2 0xBE5 DUP2 PUSH2 0xBC1 JUMP JUMPDEST SWAP3 SWAP2 POP POP JUMP JUMPDEST PUSH0 PUSH1 0x20 DUP3 DUP5 SUB SLT ISZERO PUSH2 0xC00 JUMPI PUSH2 0xBFF PUSH2 0x825 JUMP JUMPDEST JUMPDEST PUSH0 PUSH2 0xC0D DUP5 DUP3 DUP6 ADD PUSH2 0xBD7 JUMP JUMPDEST SWAP2 POP POP SWAP3 SWAP2 POP POP JUMP JUMPDEST PUSH32 0xE6B2A1E69C89E68E88E69D830000000000000000000000000000000000000000 PUSH0 DUP3 ADD MSTORE POP JUMP JUMPDEST PUSH0 PUSH2 0xC4A PUSH1 0xC DUP4 PUSH2 0x989 JUMP JUMPDEST SWAP2 POP PUSH2 0xC55 DUP3 PUSH2 0xC16 JUMP JUMPDEST PUSH1 0x20 DUP3 ADD SWAP1 POP SWAP2 SWAP1 POP JUMP JUMPDEST PUSH0 PUSH1 0x20 DUP3 ADD SWAP1 POP DUP2 DUP2 SUB PUSH0 DUP4 ADD MSTORE PUSH2 0xC77 DUP2 PUSH2 0xC3E JUMP JUMPDEST SWAP1 POP SWAP2 SWAP1 POP JUMP INVALID LOG2 PUSH5 0x6970667358 0x22 SLT KECCAK256 INVALID PUSH18 0xE905BF310A6E5E31E36AF10C16581255B517 0xBE SWAP12 DUP8 0xD 0xDC DUP14 EXP 0xDC LOG0 0xC9 0xC PUSH31 0x64736F6C634300081800330000000000000000000000000000000000000000 "
				},
				"gasEstimates": {
					"creation": {
						"codeDepositCost": "650400",
						"executionCost": "infinite",
						"totalCost": "infinite"
					},
					"external": {
						"": "128",
						"list(address,uint256,uint256)": "infinite",
						"nftList(address,uint256)": "infinite",
						"purchase(address,uint256)": "infinite"
					}
				},
				"methodIdentifiers": {
					"list(address,uint256,uint256)": "dda342bb",
					"nftList(address,uint256)": "ba5f4fb2",
					"purchase(address,uint256)": "8de93222"
				}
			},
			"storageLayout": {
				"storage": [
					{
						"astId": 250,
						"contract": "NFTMarket.sol:NFTMarket",
						"label": "nftList",
						"offset": 0,
						"slot": "0",
						"type": "t_mapping(t_address,t_mapping(t_uint256,t_struct(Order)243_storage))"
					},
					{
						"astId": 253,
						"contract": "NFTMarket.sol:NFTMarket",
						"label": "YMT",
						"offset": 0,
						"slot": "1",
						"type": "t_contract(IERC20)85"
					}
				],
				"types": {
					"t_address": {
						"encoding": "inplace",
						"label": "address",
						"numberOfBytes": "20"
					},
					"t_contract(IERC20)85": {
						"encoding": "inplace",
						"label": "contract IERC20",
						"numberOfBytes": "20"
					},
					"t_mapping(t_address,t_mapping(t_uint256,t_struct(Order)243_storage))": {
						"encoding": "mapping",
						"key": "t_address",
						"label": "mapping(address => mapping(uint256 => struct NFTMarket.Order))",
						"numberOfBytes": "32",
						"value": "t_mapping(t_uint256,t_struct(Order)243_storage)"
					},
					"t_mapping(t_uint256,t_struct(Order)243_storage)": {
						"encoding": "mapping",
						"key": "t_uint256",
						"label": "mapping(uint256 => struct NFTMarket.Order)",
						"numberOfBytes": "32",
						"value": "t_struct(Order)243_storage"
					},
					"t_struct(Order)243_storage": {
						"encoding": "inplace",
						"label": "struct NFTMarket.Order",
						"members": [
							{
								"astId": 240,
								"contract": "NFTMarket.sol:NFTMarket",
								"label": "owner",
								"offset": 0,
								"slot": "0",
								"type": "t_address"
							},
							{
								"astId": 242,
								"contract": "NFTMarket.sol:NFTMarket",
								"label": "price",
								"offset": 0,
								"slot": "1",
								"type": "t_uint256"
							}
						],
						"numberOfBytes": "64"
					},
					"t_uint256": {
						"encoding": "inplace",
						"label": "uint256",
						"numberOfBytes": "32"
					}
				}
			},
			"userdoc": {
				"kind": "user",
				"methods": {},
				"version": 1
			}
		}
	}
}