{
	"contracts/MyNFTMarket.sol": {
		"MyNFTMarket": {
			"abi": [
				{
					"inputs": [
						{
							"internalType": "address",
							"name": "_erc20",
							"type": "address"
						},
						{
							"internalType": "address",
							"name": "_erc721",
							"type": "address"
						}
					],
					"stateMutability": "nonpayable",
					"type": "constructor"
				},
				{
					"anonymous": false,
					"inputs": [
						{
							"indexed": false,
							"internalType": "address",
							"name": "seller",
							"type": "address"
						},
						{
							"indexed": false,
							"internalType": "address",
							"name": "buyer",
							"type": "address"
						},
						{
							"indexed": false,
							"internalType": "uint256",
							"name": "price",
							"type": "uint256"
						},
						{
							"indexed": false,
							"internalType": "uint256",
							"name": "tokenId",
							"type": "uint256"
						}
					],
					"name": "Deal",
					"type": "event"
				},
				{
					"anonymous": false,
					"inputs": [
						{
							"indexed": false,
							"internalType": "address",
							"name": "seller",
							"type": "address"
						},
						{
							"indexed": false,
							"internalType": "uint256",
							"name": "price",
							"type": "uint256"
						},
						{
							"indexed": false,
							"internalType": "uint256",
							"name": "tokenId",
							"type": "uint256"
						}
					],
					"name": "NewOrder",
					"type": "event"
				},
				{
					"anonymous": false,
					"inputs": [
						{
							"indexed": false,
							"internalType": "address",
							"name": "seller",
							"type": "address"
						},
						{
							"indexed": false,
							"internalType": "uint256",
							"name": "tokenId",
							"type": "uint256"
						}
					],
					"name": "OrderCancelled",
					"type": "event"
				},
				{
					"anonymous": false,
					"inputs": [
						{
							"indexed": false,
							"internalType": "address",
							"name": "seller",
							"type": "address"
						},
						{
							"indexed": false,
							"internalType": "uint256",
							"name": "tokenId",
							"type": "uint256"
						},
						{
							"indexed": false,
							"internalType": "uint256",
							"name": "previousPrice",
							"type": "uint256"
						},
						{
							"indexed": false,
							"internalType": "uint256",
							"name": "price",
							"type": "uint256"
						}
					],
					"name": "PirceChange",
					"type": "event"
				},
				{
					"inputs": [
						{
							"internalType": "uint256",
							"name": "_tokenId",
							"type": "uint256"
						}
					],
					"name": "buy",
					"outputs": [],
					"stateMutability": "nonpayable",
					"type": "function"
				},
				{
					"inputs": [
						{
							"internalType": "uint256",
							"name": "_tokenId",
							"type": "uint256"
						}
					],
					"name": "cancelOrder",
					"outputs": [],
					"stateMutability": "nonpayable",
					"type": "function"
				},
				{
					"inputs": [
						{
							"internalType": "uint256",
							"name": "_tokenId",
							"type": "uint256"
						},
						{
							"internalType": "uint256",
							"name": "price",
							"type": "uint256"
						}
					],
					"name": "changePrice",
					"outputs": [],
					"stateMutability": "nonpayable",
					"type": "function"
				},
				{
					"inputs": [],
					"name": "erc20",
					"outputs": [
						{
							"internalType": "contract IERC20",
							"name": "",
							"type": "address"
						}
					],
					"stateMutability": "view",
					"type": "function"
				},
				{
					"inputs": [],
					"name": "erc721",
					"outputs": [
						{
							"internalType": "contract IERC721",
							"name": "",
							"type": "address"
						}
					],
					"stateMutability": "view",
					"type": "function"
				},
				{
					"inputs": [],
					"name": "getAllNFTs",
					"outputs": [
						{
							"components": [
								{
									"internalType": "uint256",
									"name": "price",
									"type": "uint256"
								},
								{
									"internalType": "address",
									"name": "seller",
									"type": "address"
								},
								{
									"internalType": "uint256",
									"name": "tokenId",
									"type": "uint256"
								}
							],
							"internalType": "struct MyNFTMarket.Order[]",
							"name": "",
							"type": "tuple[]"
						}
					],
					"stateMutability": "view",
					"type": "function"
				},
				{
					"inputs": [],
					"name": "getMyNFTs",
					"outputs": [
						{
							"components": [
								{
									"internalType": "uint256",
									"name": "price",
									"type": "uint256"
								},
								{
									"internalType": "address",
									"name": "seller",
									"type": "address"
								},
								{
									"internalType": "uint256",
									"name": "tokenId",
									"type": "uint256"
								}
							],
							"internalType": "struct MyNFTMarket.Order[]",
							"name": "",
							"type": "tuple[]"
						}
					],
					"stateMutability": "view",
					"type": "function"
				},
				{
					"inputs": [],
					"name": "getOrderLength",
					"outputs": [
						{
							"internalType": "uint256",
							"name": "",
							"type": "uint256"
						}
					],
					"stateMutability": "view",
					"type": "function"
				},
				{
					"inputs": [
						{
							"internalType": "uint256",
							"name": "",
							"type": "uint256"
						}
					],
					"name": "idToOrder",
					"outputs": [
						{
							"internalType": "uint256",
							"name": "price",
							"type": "uint256"
						},
						{
							"internalType": "address",
							"name": "seller",
							"type": "address"
						},
						{
							"internalType": "uint256",
							"name": "tokenId",
							"type": "uint256"
						}
					],
					"stateMutability": "view",
					"type": "function"
				},
				{
					"inputs": [
						{
							"internalType": "uint256",
							"name": "",
							"type": "uint256"
						}
					],
					"name": "idToOrderIndex",
					"outputs": [
						{
							"internalType": "uint256",
							"name": "",
							"type": "uint256"
						}
					],
					"stateMutability": "view",
					"type": "function"
				},
				{
					"inputs": [
						{
							"internalType": "uint256",
							"name": "_tokenId",
							"type": "uint256"
						}
					],
					"name": "isListed",
					"outputs": [
						{
							"internalType": "bool",
							"name": "",
							"type": "bool"
						}
					],
					"stateMutability": "view",
					"type": "function"
				},
				{
					"inputs": [
						{
							"internalType": "address",
							"name": "operator",
							"type": "address"
						},
						{
							"internalType": "address",
							"name": "from",
							"type": "address"
						},
						{
							"internalType": "uint256",
							"name": "_tokenId",
							"type": "uint256"
						},
						{
							"internalType": "bytes",
							"name": "data",
							"type": "bytes"
						}
					],
					"name": "onERC721Received",
					"outputs": [
						{
							"internalType": "bytes4",
							"name": "",
							"type": "bytes4"
						}
					],
					"stateMutability": "nonpayable",
					"type": "function"
				},
				{
					"inputs": [
						{
							"internalType": "uint256",
							"name": "",
							"type": "uint256"
						}
					],
					"name": "orders",
					"outputs": [
						{
							"internalType": "uint256",
							"name": "price",
							"type": "uint256"
						},
						{
							"internalType": "address",
							"name": "seller",
							"type": "address"
						},
						{
							"internalType": "uint256",
							"name": "tokenId",
							"type": "uint256"
						}
					],
					"stateMutability": "view",
					"type": "function"
				},
				{
					"inputs": [
						{
							"internalType": "bytes",
							"name": "_bytes",
							"type": "bytes"
						},
						{
							"internalType": "uint256",
							"name": "_start",
							"type": "uint256"
						}
					],
					"name": "toUint256",
					"outputs": [
						{
							"internalType": "uint256",
							"name": "",
							"type": "uint256"
						}
					],
					"stateMutability": "pure",
					"type": "function"
				}
			],
			"devdoc": {
				"kind": "dev",
				"methods": {},
				"version": 1
			},
			"evm": {
				"assembly": "    /* \"contracts/MyNFTMarket.sol\":284:5820  contract MyNFTMarket {... */\n  mstore(0x40, 0x80)\n    /* \"contracts/MyNFTMarket.sol\":1344:1635  constructor(address _erc20, address _erc721) {... */\n  callvalue\n  dup1\n  iszero\n  tag_1\n  jumpi\n  0x00\n  dup1\n  revert\ntag_1:\n  pop\n  mload(0x40)\n  sub(codesize, bytecodeSize)\n  dup1\n  bytecodeSize\n  dup4\n  codecopy\n  dup2\n  dup2\n  add\n  0x40\n  mstore\n  dup2\n  add\n  swap1\n  tag_2\n  swap2\n  swap1\n  tag_3\n  jump\t// in\ntag_2:\n    /* \"contracts/MyNFTMarket.sol\":1426:1427  0 */\n  0x00\n    /* \"contracts/MyNFTMarket.sol\":1408:1428  _erc20 != address(0) */\n  0xffffffffffffffffffffffffffffffffffffffff\n  and\n    /* \"contracts/MyNFTMarket.sol\":1408:1414  _erc20 */\n  dup3\n    /* \"contracts/MyNFTMarket.sol\":1408:1428  _erc20 != address(0) */\n  0xffffffffffffffffffffffffffffffffffffffff\n  and\n  sub\n    /* \"contracts/MyNFTMarket.sol\":1400:1445  require(_erc20 != address(0), \"zero address\") */\n  tag_6\n  jumpi\n  mload(0x40)\n  0x08c379a000000000000000000000000000000000000000000000000000000000\n  dup2\n  mstore\n  0x04\n  add\n  tag_7\n  swap1\n  tag_8\n  jump\t// in\ntag_7:\n  mload(0x40)\n  dup1\n  swap2\n  sub\n  swap1\n  revert\ntag_6:\n    /* \"contracts/MyNFTMarket.sol\":1483:1484  0 */\n  0x00\n    /* \"contracts/MyNFTMarket.sol\":1464:1485  _erc721 != address(0) */\n  0xffffffffffffffffffffffffffffffffffffffff\n  and\n    /* \"contracts/MyNFTMarket.sol\":1464:1471  _erc721 */\n  dup2\n    /* \"contracts/MyNFTMarket.sol\":1464:1485  _erc721 != address(0) */\n  0xffffffffffffffffffffffffffffffffffffffff\n  and\n  sub\n    /* \"contracts/MyNFTMarket.sol\":1456:1502  require(_erc721 != address(0), \"zero address\") */\n  tag_9\n  jumpi\n  mload(0x40)\n  0x08c379a000000000000000000000000000000000000000000000000000000000\n  dup2\n  mstore\n  0x04\n  add\n  tag_10\n  swap1\n  tag_8\n  jump\t// in\ntag_10:\n  mload(0x40)\n  dup1\n  swap2\n  sub\n  swap1\n  revert\ntag_9:\n    /* \"contracts/MyNFTMarket.sol\":1528:1534  _erc20 */\n  dup2\n    /* \"contracts/MyNFTMarket.sol\":1513:1518  erc20 */\n  0x00\n  dup1\n    /* \"contracts/MyNFTMarket.sol\":1513:1535  erc20 = IERC20(_erc20) */\n  0x0100\n  exp\n  dup2\n  sload\n  dup2\n  0xffffffffffffffffffffffffffffffffffffffff\n  mul\n  not\n  and\n  swap1\n  dup4\n  0xffffffffffffffffffffffffffffffffffffffff\n  and\n  mul\n  or\n  swap1\n  sstore\n  pop\n    /* \"contracts/MyNFTMarket.sol\":1609:1616  _erc721 */\n  dup1\n    /* \"contracts/MyNFTMarket.sol\":1592:1598  erc721 */\n  0x01\n  0x00\n    /* \"contracts/MyNFTMarket.sol\":1592:1617  erc721 = IERC721(_erc721) */\n  0x0100\n  exp\n  dup2\n  sload\n  dup2\n  0xffffffffffffffffffffffffffffffffffffffff\n  mul\n  not\n  and\n  swap1\n  dup4\n  0xffffffffffffffffffffffffffffffffffffffff\n  and\n  mul\n  or\n  swap1\n  sstore\n  pop\n    /* \"contracts/MyNFTMarket.sol\":1344:1635  constructor(address _erc20, address _erc721) {... */\n  pop\n  pop\n    /* \"contracts/MyNFTMarket.sol\":284:5820  contract MyNFTMarket {... */\n  jump(tag_11)\n    /* \"#utility.yul\":88:205   */\ntag_13:\n    /* \"#utility.yul\":197:198   */\n  0x00\n    /* \"#utility.yul\":194:195   */\n  dup1\n    /* \"#utility.yul\":187:199   */\n  revert\n    /* \"#utility.yul\":334:460   */\ntag_15:\n    /* \"#utility.yul\":371:378   */\n  0x00\n    /* \"#utility.yul\":411:453   */\n  0xffffffffffffffffffffffffffffffffffffffff\n    /* \"#utility.yul\":404:409   */\n  dup3\n    /* \"#utility.yul\":400:454   */\n  and\n    /* \"#utility.yul\":389:454   */\n  swap1\n  pop\n    /* \"#utility.yul\":334:460   */\n  swap2\n  swap1\n  pop\n  jump\t// out\n    /* \"#utility.yul\":466:562   */\ntag_16:\n    /* \"#utility.yul\":503:510   */\n  0x00\n    /* \"#utility.yul\":532:556   */\n  tag_28\n    /* \"#utility.yul\":550:555   */\n  dup3\n    /* \"#utility.yul\":532:556   */\n  tag_15\n  jump\t// in\ntag_28:\n    /* \"#utility.yul\":521:556   */\n  swap1\n  pop\n    /* \"#utility.yul\":466:562   */\n  swap2\n  swap1\n  pop\n  jump\t// out\n    /* \"#utility.yul\":568:690   */\ntag_17:\n    /* \"#utility.yul\":641:665   */\n  tag_30\n    /* \"#utility.yul\":659:664   */\n  dup2\n    /* \"#utility.yul\":641:665   */\n  tag_16\n  jump\t// in\ntag_30:\n    /* \"#utility.yul\":634:639   */\n  dup2\n    /* \"#utility.yul\":631:666   */\n  eq\n    /* \"#utility.yul\":621:684   */\n  tag_31\n  jumpi\n    /* \"#utility.yul\":680:681   */\n  0x00\n    /* \"#utility.yul\":677:678   */\n  dup1\n    /* \"#utility.yul\":670:682   */\n  revert\n    /* \"#utility.yul\":621:684   */\ntag_31:\n    /* \"#utility.yul\":568:690   */\n  pop\n  jump\t// out\n    /* \"#utility.yul\":696:839   */\ntag_18:\n    /* \"#utility.yul\":753:758   */\n  0x00\n    /* \"#utility.yul\":784:790   */\n  dup2\n    /* \"#utility.yul\":778:791   */\n  mload\n    /* \"#utility.yul\":769:791   */\n  swap1\n  pop\n    /* \"#utility.yul\":800:833   */\n  tag_33\n    /* \"#utility.yul\":827:832   */\n  dup2\n    /* \"#utility.yul\":800:833   */\n  tag_17\n  jump\t// in\ntag_33:\n    /* \"#utility.yul\":696:839   */\n  swap3\n  swap2\n  pop\n  pop\n  jump\t// out\n    /* \"#utility.yul\":845:1352   */\ntag_3:\n    /* \"#utility.yul\":924:930   */\n  0x00\n    /* \"#utility.yul\":932:938   */\n  dup1\n    /* \"#utility.yul\":981:983   */\n  0x40\n    /* \"#utility.yul\":969:978   */\n  dup4\n    /* \"#utility.yul\":960:967   */\n  dup6\n    /* \"#utility.yul\":956:979   */\n  sub\n    /* \"#utility.yul\":952:984   */\n  slt\n    /* \"#utility.yul\":949:1068   */\n  iszero\n  tag_35\n  jumpi\n    /* \"#utility.yul\":987:1066   */\n  tag_36\n  tag_13\n  jump\t// in\ntag_36:\n    /* \"#utility.yul\":949:1068   */\ntag_35:\n    /* \"#utility.yul\":1107:1108   */\n  0x00\n    /* \"#utility.yul\":1132:1196   */\n  tag_37\n    /* \"#utility.yul\":1188:1195   */\n  dup6\n    /* \"#utility.yul\":1179:1185   */\n  dup3\n    /* \"#utility.yul\":1168:1177   */\n  dup7\n    /* \"#utility.yul\":1164:1186   */\n  add\n    /* \"#utility.yul\":1132:1196   */\n  tag_18\n  jump\t// in\ntag_37:\n    /* \"#utility.yul\":1122:1196   */\n  swap3\n  pop\n    /* \"#utility.yul\":1078:1206   */\n  pop\n    /* \"#utility.yul\":1245:1247   */\n  0x20\n    /* \"#utility.yul\":1271:1335   */\n  tag_38\n    /* \"#utility.yul\":1327:1334   */\n  dup6\n    /* \"#utility.yul\":1318:1324   */\n  dup3\n    /* \"#utility.yul\":1307:1316   */\n  dup7\n    /* \"#utility.yul\":1303:1325   */\n  add\n    /* \"#utility.yul\":1271:1335   */\n  tag_18\n  jump\t// in\ntag_38:\n    /* \"#utility.yul\":1261:1335   */\n  swap2\n  pop\n    /* \"#utility.yul\":1216:1345   */\n  pop\n    /* \"#utility.yul\":845:1352   */\n  swap3\n  pop\n  swap3\n  swap1\n  pop\n  jump\t// out\n    /* \"#utility.yul\":1358:1527   */\ntag_19:\n    /* \"#utility.yul\":1442:1453   */\n  0x00\n    /* \"#utility.yul\":1476:1482   */\n  dup3\n    /* \"#utility.yul\":1471:1474   */\n  dup3\n    /* \"#utility.yul\":1464:1483   */\n  mstore\n    /* \"#utility.yul\":1516:1520   */\n  0x20\n    /* \"#utility.yul\":1511:1514   */\n  dup3\n    /* \"#utility.yul\":1507:1521   */\n  add\n    /* \"#utility.yul\":1492:1521   */\n  swap1\n  pop\n    /* \"#utility.yul\":1358:1527   */\n  swap3\n  swap2\n  pop\n  pop\n  jump\t// out\n    /* \"#utility.yul\":1533:1695   */\ntag_20:\n    /* \"#utility.yul\":1673:1687   */\n  0x7a65726f20616464726573730000000000000000000000000000000000000000\n    /* \"#utility.yul\":1669:1670   */\n  0x00\n    /* \"#utility.yul\":1661:1667   */\n  dup3\n    /* \"#utility.yul\":1657:1671   */\n  add\n    /* \"#utility.yul\":1650:1688   */\n  mstore\n    /* \"#utility.yul\":1533:1695   */\n  pop\n  jump\t// out\n    /* \"#utility.yul\":1701:2067   */\ntag_21:\n    /* \"#utility.yul\":1843:1846   */\n  0x00\n    /* \"#utility.yul\":1864:1931   */\n  tag_42\n    /* \"#utility.yul\":1928:1930   */\n  0x0c\n    /* \"#utility.yul\":1923:1926   */\n  dup4\n    /* \"#utility.yul\":1864:1931   */\n  tag_19\n  jump\t// in\ntag_42:\n    /* \"#utility.yul\":1857:1931   */\n  swap2\n  pop\n    /* \"#utility.yul\":1940:2033   */\n  tag_43\n    /* \"#utility.yul\":2029:2032   */\n  dup3\n    /* \"#utility.yul\":1940:2033   */\n  tag_20\n  jump\t// in\ntag_43:\n    /* \"#utility.yul\":2058:2060   */\n  0x20\n    /* \"#utility.yul\":2053:2056   */\n  dup3\n    /* \"#utility.yul\":2049:2061   */\n  add\n    /* \"#utility.yul\":2042:2061   */\n  swap1\n  pop\n    /* \"#utility.yul\":1701:2067   */\n  swap2\n  swap1\n  pop\n  jump\t// out\n    /* \"#utility.yul\":2073:2492   */\ntag_8:\n    /* \"#utility.yul\":2239:2243   */\n  0x00\n    /* \"#utility.yul\":2277:2279   */\n  0x20\n    /* \"#utility.yul\":2266:2275   */\n  dup3\n    /* \"#utility.yul\":2262:2280   */\n  add\n    /* \"#utility.yul\":2254:2280   */\n  swap1\n  pop\n    /* \"#utility.yul\":2326:2335   */\n  dup2\n    /* \"#utility.yul\":2320:2324   */\n  dup2\n    /* \"#utility.yul\":2316:2336   */\n  sub\n    /* \"#utility.yul\":2312:2313   */\n  0x00\n    /* \"#utility.yul\":2301:2310   */\n  dup4\n    /* \"#utility.yul\":2297:2314   */\n  add\n    /* \"#utility.yul\":2290:2337   */\n  mstore\n    /* \"#utility.yul\":2354:2485   */\n  tag_45\n    /* \"#utility.yul\":2480:2484   */\n  dup2\n    /* \"#utility.yul\":2354:2485   */\n  tag_21\n  jump\t// in\ntag_45:\n    /* \"#utility.yul\":2346:2485   */\n  swap1\n  pop\n    /* \"#utility.yul\":2073:2492   */\n  swap2\n  swap1\n  pop\n  jump\t// out\n    /* \"contracts/MyNFTMarket.sol\":284:5820  contract MyNFTMarket {... */\ntag_11:\n  dataSize(sub_0)\n  dup1\n  dataOffset(sub_0)\n  0x00\n  codecopy\n  0x00\n  return\nstop\n\nsub_0: assembly {\n        /* \"contracts/MyNFTMarket.sol\":284:5820  contract MyNFTMarket {... */\n      mstore(0x40, 0x80)\n      callvalue\n      dup1\n      iszero\n      tag_1\n      jumpi\n      0x00\n      dup1\n      revert\n    tag_1:\n      pop\n      jumpi(tag_2, lt(calldatasize, 0x04))\n      shr(0xe0, calldataload(0x00))\n      dup1\n      0xb3de019c\n      gt\n      tag_17\n      jumpi\n      dup1\n      0xd96a094a\n      gt\n      tag_18\n      jumpi\n      dup1\n      0xd96a094a\n      eq\n      tag_13\n      jumpi\n      dup1\n      0xda694df0\n      eq\n      tag_14\n      jumpi\n      dup1\n      0xe0391b09\n      eq\n      tag_15\n      jumpi\n      dup1\n      0xfcce4883\n      eq\n      tag_16\n      jumpi\n      jump(tag_2)\n    tag_18:\n      dup1\n      0xb3de019c\n      eq\n      tag_10\n      jumpi\n      dup1\n      0xb5cdf924\n      eq\n      tag_11\n      jumpi\n      dup1\n      0xbca6ce64\n      eq\n      tag_12\n      jumpi\n      jump(tag_2)\n    tag_17:\n      dup1\n      0x785e9e86\n      gt\n      tag_19\n      jumpi\n      dup1\n      0x785e9e86\n      eq\n      tag_6\n      jumpi\n      dup1\n      0x8f1ec88f\n      eq\n      tag_7\n      jumpi\n      dup1\n      0x9d4971b7\n      eq\n      tag_8\n      jumpi\n      dup1\n      0xa85c38ef\n      eq\n      tag_9\n      jumpi\n      jump(tag_2)\n    tag_19:\n      dup1\n      0x150b7a02\n      eq\n      tag_3\n      jumpi\n      dup1\n      0x514fcac7\n      eq\n      tag_4\n      jumpi\n      dup1\n      0x629cb2e4\n      eq\n      tag_5\n      jumpi\n    tag_2:\n      0x00\n      dup1\n      revert\n        /* \"contracts/MyNFTMarket.sol\":3762:4299  function onERC721Received(address operator, address from, uint256 _tokenId, bytes calldata data) external returns (bytes4){... */\n    tag_3:\n      tag_20\n      0x04\n      dup1\n      calldatasize\n      sub\n      dup2\n      add\n      swap1\n      tag_21\n      swap2\n      swap1\n      tag_22\n      jump\t// in\n    tag_21:\n      tag_23\n      jump\t// in\n    tag_20:\n      mload(0x40)\n      tag_24\n      swap2\n      swap1\n      tag_25\n      jump\t// in\n    tag_24:\n      mload(0x40)\n      dup1\n      swap2\n      sub\n      swap1\n      return\n        /* \"contracts/MyNFTMarket.sol\":2252:2571  function cancelOrder(uint256 _tokenId) external {... */\n    tag_4:\n      tag_26\n      0x04\n      dup1\n      calldatasize\n      sub\n      dup2\n      add\n      swap1\n      tag_27\n      swap2\n      swap1\n      tag_28\n      jump\t// in\n    tag_27:\n      tag_29\n      jump\t// in\n    tag_26:\n      stop\n        /* \"contracts/MyNFTMarket.sol\":5425:5813  function getMyNFTs() external view returns (Order[] memory) {... */\n    tag_5:\n      tag_30\n      tag_31\n      jump\t// in\n    tag_30:\n      mload(0x40)\n      tag_32\n      swap2\n      swap1\n      tag_33\n      jump\t// in\n    tag_32:\n      mload(0x40)\n      dup1\n      swap2\n      sub\n      swap1\n      return\n        /* \"contracts/MyNFTMarket.sol\":312:331  IERC20 public erc20 */\n    tag_6:\n      tag_34\n      tag_35\n      jump\t// in\n    tag_34:\n      mload(0x40)\n      tag_36\n      swap2\n      swap1\n      tag_37\n      jump\t// in\n    tag_36:\n      mload(0x40)\n      dup1\n      swap2\n      sub\n      swap1\n      return\n        /* \"contracts/MyNFTMarket.sol\":672:714  mapping(uint256 => Order) public idToOrder */\n    tag_7:\n      tag_38\n      0x04\n      dup1\n      calldatasize\n      sub\n      dup2\n      add\n      swap1\n      tag_39\n      swap2\n      swap1\n      tag_28\n      jump\t// in\n    tag_39:\n      tag_40\n      jump\t// in\n    tag_38:\n      mload(0x40)\n      tag_41\n      swap4\n      swap3\n      swap2\n      swap1\n      tag_42\n      jump\t// in\n    tag_41:\n      mload(0x40)\n      dup1\n      swap2\n      sub\n      swap1\n      return\n        /* \"contracts/MyNFTMarket.sol\":5145:5242  function getOrderLength() external view returns (uint256) {... */\n    tag_8:\n      tag_43\n      tag_44\n      jump\t// in\n    tag_43:\n      mload(0x40)\n      tag_45\n      swap2\n      swap1\n      tag_46\n      jump\t// in\n    tag_45:\n      mload(0x40)\n      dup1\n      swap2\n      sub\n      swap1\n      return\n        /* \"contracts/MyNFTMarket.sol\":598:619  Order[] public orders */\n    tag_9:\n      tag_47\n      0x04\n      dup1\n      calldatasize\n      sub\n      dup2\n      add\n      swap1\n      tag_48\n      swap2\n      swap1\n      tag_28\n      jump\t// in\n    tag_48:\n      tag_49\n      jump\t// in\n    tag_47:\n      mload(0x40)\n      tag_50\n      swap4\n      swap3\n      swap2\n      swap1\n      tag_42\n      jump\t// in\n    tag_50:\n      mload(0x40)\n      dup1\n      swap2\n      sub\n      swap1\n      return\n        /* \"contracts/MyNFTMarket.sol\":3201:3649  function changePrice(uint256 _tokenId, uint256 price) external{... */\n    tag_10:\n      tag_51\n      0x04\n      dup1\n      calldatasize\n      sub\n      dup2\n      add\n      swap1\n      tag_52\n      swap2\n      swap1\n      tag_53\n      jump\t// in\n    tag_52:\n      tag_54\n      jump\t// in\n    tag_51:\n      stop\n        /* \"contracts/MyNFTMarket.sol\":4518:4911  function toUint256(bytes memory _bytes, uint256 _start) public pure returns (uint256) {... */\n    tag_11:\n      tag_55\n      0x04\n      dup1\n      calldatasize\n      sub\n      dup2\n      add\n      swap1\n      tag_56\n      swap2\n      swap1\n      tag_57\n      jump\t// in\n    tag_56:\n      tag_58\n      jump\t// in\n    tag_55:\n      mload(0x40)\n      tag_59\n      swap2\n      swap1\n      tag_46\n      jump\t// in\n    tag_59:\n      mload(0x40)\n      dup1\n      swap2\n      sub\n      swap1\n      return\n        /* \"contracts/MyNFTMarket.sol\":338:359  IERC721 public erc721 */\n    tag_12:\n      tag_60\n      tag_61\n      jump\t// in\n    tag_60:\n      mload(0x40)\n      tag_62\n      swap2\n      swap1\n      tag_63\n      jump\t// in\n    tag_62:\n      mload(0x40)\n      dup1\n      swap2\n      sub\n      swap1\n      return\n        /* \"contracts/MyNFTMarket.sol\":1658:2199  function buy(uint256 _tokenId) external{... */\n    tag_13:\n      tag_64\n      0x04\n      dup1\n      calldatasize\n      sub\n      dup2\n      add\n      swap1\n      tag_65\n      swap2\n      swap1\n      tag_28\n      jump\t// in\n    tag_65:\n      tag_66\n      jump\t// in\n    tag_64:\n      stop\n        /* \"contracts/MyNFTMarket.sol\":745:794  mapping(uint256 => uint256) public idToOrderIndex */\n    tag_14:\n      tag_67\n      0x04\n      dup1\n      calldatasize\n      sub\n      dup2\n      add\n      swap1\n      tag_68\n      swap2\n      swap1\n      tag_28\n      jump\t// in\n    tag_68:\n      tag_69\n      jump\t// in\n    tag_67:\n      mload(0x40)\n      tag_70\n      swap2\n      swap1\n      tag_46\n      jump\t// in\n    tag_70:\n      mload(0x40)\n      dup1\n      swap2\n      sub\n      swap1\n      return\n        /* \"contracts/MyNFTMarket.sol\":5285:5378  function getAllNFTs() external view returns (Order[] memory) {... */\n    tag_15:\n      tag_71\n      tag_72\n      jump\t// in\n    tag_71:\n      mload(0x40)\n      tag_73\n      swap2\n      swap1\n      tag_33\n      jump\t// in\n    tag_73:\n      mload(0x40)\n      dup1\n      swap2\n      sub\n      swap1\n      return\n        /* \"contracts/MyNFTMarket.sol\":4974:5102  function isListed(uint256 _tokenId) public view returns (bool){... */\n    tag_16:\n      tag_74\n      0x04\n      dup1\n      calldatasize\n      sub\n      dup2\n      add\n      swap1\n      tag_75\n      swap2\n      swap1\n      tag_28\n      jump\t// in\n    tag_75:\n      tag_76\n      jump\t// in\n    tag_74:\n      mload(0x40)\n      tag_77\n      swap2\n      swap1\n      tag_78\n      jump\t// in\n    tag_77:\n      mload(0x40)\n      dup1\n      swap2\n      sub\n      swap1\n      return\n        /* \"contracts/MyNFTMarket.sol\":3762:4299  function onERC721Received(address operator, address from, uint256 _tokenId, bytes calldata data) external returns (bytes4){... */\n    tag_23:\n        /* \"contracts/MyNFTMarket.sol\":3877:3883  bytes4 */\n      0x00\n        /* \"contracts/MyNFTMarket.sol\":3895:3908  uint256 price */\n      dup1\n        /* \"contracts/MyNFTMarket.sol\":3911:3929  toUint256(data, 0) */\n      tag_80\n        /* \"contracts/MyNFTMarket.sol\":3921:3925  data */\n      dup5\n      dup5\n        /* \"contracts/MyNFTMarket.sol\":3911:3929  toUint256(data, 0) */\n      dup1\n      dup1\n      0x1f\n      add\n      0x20\n      dup1\n      swap2\n      div\n      mul\n      0x20\n      add\n      mload(0x40)\n      swap1\n      dup2\n      add\n      0x40\n      mstore\n      dup1\n      swap4\n      swap3\n      swap2\n      swap1\n      dup2\n      dup2\n      mstore\n      0x20\n      add\n      dup4\n      dup4\n      dup1\n      dup3\n      dup5\n      calldatacopy\n      0x00\n      dup2\n      dup5\n      add\n      mstore\n      not(0x1f)\n      0x1f\n      dup3\n      add\n      and\n      swap1\n      pop\n      dup1\n      dup4\n      add\n      swap3\n      pop\n      pop\n      pop\n      pop\n      pop\n      pop\n      pop\n        /* \"contracts/MyNFTMarket.sol\":3927:3928  0 */\n      0x00\n        /* \"contracts/MyNFTMarket.sol\":3911:3920  toUint256 */\n      tag_58\n        /* \"contracts/MyNFTMarket.sol\":3911:3929  toUint256(data, 0) */\n      jump\t// in\n    tag_80:\n        /* \"contracts/MyNFTMarket.sol\":3895:3929  uint256 price = toUint256(data, 0) */\n      swap1\n      pop\n        /* \"contracts/MyNFTMarket.sol\":3956:3957  0 */\n      0x00\n        /* \"contracts/MyNFTMarket.sol\":3948:3953  price */\n      dup2\n        /* \"contracts/MyNFTMarket.sol\":3948:3957  price > 0 */\n      gt\n        /* \"contracts/MyNFTMarket.sol\":3940:3990  require(price > 0, \"price must be greater than 0\") */\n      tag_81\n      jumpi\n      mload(0x40)\n      0x08c379a000000000000000000000000000000000000000000000000000000000\n      dup2\n      mstore\n      0x04\n      add\n      tag_82\n      swap1\n      tag_83\n      jump\t// in\n    tag_82:\n      mload(0x40)\n      dup1\n      swap2\n      sub\n      swap1\n      revert\n    tag_81:\n        /* \"contracts/MyNFTMarket.sol\":4025:4053  Order(price, from, _tokenId) */\n      mload(0x40)\n      dup1\n      0x60\n      add\n      0x40\n      mstore\n      dup1\n        /* \"contracts/MyNFTMarket.sol\":4031:4036  price */\n      dup3\n        /* \"contracts/MyNFTMarket.sol\":4025:4053  Order(price, from, _tokenId) */\n      dup2\n      mstore\n      0x20\n      add\n        /* \"contracts/MyNFTMarket.sol\":4038:4042  from */\n      dup8\n        /* \"contracts/MyNFTMarket.sol\":4025:4053  Order(price, from, _tokenId) */\n      0xffffffffffffffffffffffffffffffffffffffff\n      and\n      dup2\n      mstore\n      0x20\n      add\n        /* \"contracts/MyNFTMarket.sol\":4044:4052  _tokenId */\n      dup7\n        /* \"contracts/MyNFTMarket.sol\":4025:4053  Order(price, from, _tokenId) */\n      dup2\n      mstore\n      pop\n        /* \"contracts/MyNFTMarket.sol\":4003:4012  idToOrder */\n      0x03\n        /* \"contracts/MyNFTMarket.sol\":4003:4022  idToOrder[_tokenId] */\n      0x00\n        /* \"contracts/MyNFTMarket.sol\":4013:4021  _tokenId */\n      dup8\n        /* \"contracts/MyNFTMarket.sol\":4003:4022  idToOrder[_tokenId] */\n      dup2\n      mstore\n      0x20\n      add\n      swap1\n      dup2\n      mstore\n      0x20\n      add\n      0x00\n      keccak256\n        /* \"contracts/MyNFTMarket.sol\":4003:4053  idToOrder[_tokenId] = Order(price, from, _tokenId) */\n      0x00\n      dup3\n      add\n      mload\n      dup2\n      0x00\n      add\n      sstore\n      0x20\n      dup3\n      add\n      mload\n      dup2\n      0x01\n      add\n      exp(0x0100, 0x00)\n      dup2\n      sload\n      dup2\n      0xffffffffffffffffffffffffffffffffffffffff\n      mul\n      not\n      and\n      swap1\n      dup4\n      0xffffffffffffffffffffffffffffffffffffffff\n      and\n      mul\n      or\n      swap1\n      sstore\n      pop\n      0x40\n      dup3\n      add\n      mload\n      dup2\n      0x02\n      add\n      sstore\n      swap1\n      pop\n      pop\n        /* \"contracts/MyNFTMarket.sol\":4064:4070  orders */\n      0x02\n        /* \"contracts/MyNFTMarket.sol\":4076:4104  Order(price, from, _tokenId) */\n      mload(0x40)\n      dup1\n      0x60\n      add\n      0x40\n      mstore\n      dup1\n        /* \"contracts/MyNFTMarket.sol\":4082:4087  price */\n      dup4\n        /* \"contracts/MyNFTMarket.sol\":4076:4104  Order(price, from, _tokenId) */\n      dup2\n      mstore\n      0x20\n      add\n        /* \"contracts/MyNFTMarket.sol\":4089:4093  from */\n      dup9\n        /* \"contracts/MyNFTMarket.sol\":4076:4104  Order(price, from, _tokenId) */\n      0xffffffffffffffffffffffffffffffffffffffff\n      and\n      dup2\n      mstore\n      0x20\n      add\n        /* \"contracts/MyNFTMarket.sol\":4095:4103  _tokenId */\n      dup8\n        /* \"contracts/MyNFTMarket.sol\":4076:4104  Order(price, from, _tokenId) */\n      dup2\n      mstore\n      pop\n        /* \"contracts/MyNFTMarket.sol\":4064:4105  orders.push(Order(price, from, _tokenId)) */\n      swap1\n      dup1\n      0x01\n      dup2\n      sload\n      add\n      dup1\n      dup3\n      sstore\n      dup1\n      swap2\n      pop\n      pop\n      0x01\n      swap1\n      sub\n      swap1\n      0x00\n      mstore\n      keccak256(0x00, 0x20)\n      swap1\n      0x03\n      mul\n      add\n      0x00\n      swap1\n      swap2\n      swap1\n      swap2\n      swap1\n      swap2\n      pop\n      0x00\n      dup3\n      add\n      mload\n      dup2\n      0x00\n      add\n      sstore\n      0x20\n      dup3\n      add\n      mload\n      dup2\n      0x01\n      add\n      exp(0x0100, 0x00)\n      dup2\n      sload\n      dup2\n      0xffffffffffffffffffffffffffffffffffffffff\n      mul\n      not\n      and\n      swap1\n      dup4\n      0xffffffffffffffffffffffffffffffffffffffff\n      and\n      mul\n      or\n      swap1\n      sstore\n      pop\n      0x40\n      dup3\n      add\n      mload\n      dup2\n      0x02\n      add\n      sstore\n      pop\n      pop\n        /* \"contracts/MyNFTMarket.sol\":4159:4160  1 */\n      0x01\n        /* \"contracts/MyNFTMarket.sol\":4143:4149  orders */\n      0x02\n        /* \"contracts/MyNFTMarket.sol\":4143:4156  orders.length */\n      dup1\n      sload\n      swap1\n      pop\n        /* \"contracts/MyNFTMarket.sol\":4143:4160  orders.length - 1 */\n      tag_85\n      swap2\n      swap1\n      tag_86\n      jump\t// in\n    tag_85:\n        /* \"contracts/MyNFTMarket.sol\":4116:4130  idToOrderIndex */\n      0x04\n        /* \"contracts/MyNFTMarket.sol\":4116:4140  idToOrderIndex[_tokenId] */\n      0x00\n        /* \"contracts/MyNFTMarket.sol\":4131:4139  _tokenId */\n      dup8\n        /* \"contracts/MyNFTMarket.sol\":4116:4140  idToOrderIndex[_tokenId] */\n      dup2\n      mstore\n      0x20\n      add\n      swap1\n      dup2\n      mstore\n      0x20\n      add\n      0x00\n      keccak256\n        /* \"contracts/MyNFTMarket.sol\":4116:4160  idToOrderIndex[_tokenId] = orders.length - 1 */\n      dup2\n      swap1\n      sstore\n      pop\n        /* \"contracts/MyNFTMarket.sol\":4178:4209  NewOrder(from, price, _tokenId) */\n      0xd5b509e657d5ec37ae4bdcab658b7340c0453bb630516d26623359a34c1cecf3\n        /* \"contracts/MyNFTMarket.sol\":4187:4191  from */\n      dup7\n        /* \"contracts/MyNFTMarket.sol\":4193:4198  price */\n      dup3\n        /* \"contracts/MyNFTMarket.sol\":4200:4208  _tokenId */\n      dup8\n        /* \"contracts/MyNFTMarket.sol\":4178:4209  NewOrder(from, price, _tokenId) */\n      mload(0x40)\n      tag_87\n      swap4\n      swap3\n      swap2\n      swap1\n      tag_88\n      jump\t// in\n    tag_87:\n      mload(0x40)\n      dup1\n      swap2\n      sub\n      swap1\n      log1\n        /* \"contracts/MyNFTMarket.sol\":420:430  0x150b7a02 */\n      0x150b7a02\n        /* \"contracts/MyNFTMarket.sol\":4227:4251  MAGIC_ON_ERC721_RECEIVED */\n      0xe0\n      shl\n        /* \"contracts/MyNFTMarket.sol\":4220:4251  return MAGIC_ON_ERC721_RECEIVED */\n      swap2\n      pop\n      pop\n        /* \"contracts/MyNFTMarket.sol\":3762:4299  function onERC721Received(address operator, address from, uint256 _tokenId, bytes calldata data) external returns (bytes4){... */\n      swap6\n      swap5\n      pop\n      pop\n      pop\n      pop\n      pop\n      jump\t// out\n        /* \"contracts/MyNFTMarket.sol\":2252:2571  function cancelOrder(uint256 _tokenId) external {... */\n    tag_29:\n        /* \"contracts/MyNFTMarket.sol\":2311:2325  address seller */\n      0x00\n        /* \"contracts/MyNFTMarket.sol\":2328:2337  idToOrder */\n      0x03\n        /* \"contracts/MyNFTMarket.sol\":2328:2347  idToOrder[_tokenId] */\n      0x00\n        /* \"contracts/MyNFTMarket.sol\":2338:2346  _tokenId */\n      dup4\n        /* \"contracts/MyNFTMarket.sol\":2328:2347  idToOrder[_tokenId] */\n      dup2\n      mstore\n      0x20\n      add\n      swap1\n      dup2\n      mstore\n      0x20\n      add\n      0x00\n      keccak256\n        /* \"contracts/MyNFTMarket.sol\":2328:2354  idToOrder[_tokenId].seller */\n      0x01\n      add\n      0x00\n      swap1\n      sload\n      swap1\n      0x0100\n      exp\n      swap1\n      div\n      0xffffffffffffffffffffffffffffffffffffffff\n      and\n        /* \"contracts/MyNFTMarket.sol\":2311:2354  address seller = idToOrder[_tokenId].seller */\n      swap1\n      pop\n        /* \"contracts/MyNFTMarket.sol\":2383:2393  msg.sender */\n      caller\n        /* \"contracts/MyNFTMarket.sol\":2373:2393  seller == msg.sender */\n      0xffffffffffffffffffffffffffffffffffffffff\n      and\n        /* \"contracts/MyNFTMarket.sol\":2373:2379  seller */\n      dup2\n        /* \"contracts/MyNFTMarket.sol\":2373:2393  seller == msg.sender */\n      0xffffffffffffffffffffffffffffffffffffffff\n      and\n      eq\n        /* \"contracts/MyNFTMarket.sol\":2365:2408  require(seller == msg.sender, \"not seller\") */\n      tag_90\n      jumpi\n      mload(0x40)\n      0x08c379a000000000000000000000000000000000000000000000000000000000\n      dup2\n      mstore\n      0x04\n      add\n      tag_91\n      swap1\n      tag_92\n      jump\t// in\n    tag_91:\n      mload(0x40)\n      dup1\n      swap2\n      sub\n      swap1\n      revert\n    tag_90:\n        /* \"contracts/MyNFTMarket.sol\":2419:2425  erc721 */\n      0x01\n      0x00\n      swap1\n      sload\n      swap1\n      0x0100\n      exp\n      swap1\n      div\n      0xffffffffffffffffffffffffffffffffffffffff\n      and\n        /* \"contracts/MyNFTMarket.sol\":2419:2442  erc721.safeTransferFrom */\n      0xffffffffffffffffffffffffffffffffffffffff\n      and\n      0x42842e0e\n        /* \"contracts/MyNFTMarket.sol\":2451:2455  this */\n      address\n        /* \"contracts/MyNFTMarket.sol\":2458:2464  seller */\n      dup4\n        /* \"contracts/MyNFTMarket.sol\":2466:2474  _tokenId */\n      dup6\n        /* \"contracts/MyNFTMarket.sol\":2419:2475  erc721.safeTransferFrom(address(this), seller, _tokenId) */\n      mload(0x40)\n      dup5\n      0xffffffff\n      and\n      0xe0\n      shl\n      dup2\n      mstore\n      0x04\n      add\n      tag_93\n      swap4\n      swap3\n      swap2\n      swap1\n      tag_94\n      jump\t// in\n    tag_93:\n      0x00\n      mload(0x40)\n      dup1\n      dup4\n      sub\n      dup2\n      0x00\n      dup8\n      dup1\n      extcodesize\n      iszero\n      dup1\n      iszero\n      tag_95\n      jumpi\n      0x00\n      dup1\n      revert\n    tag_95:\n      pop\n      gas\n      call\n      iszero\n      dup1\n      iszero\n      tag_97\n      jumpi\n      returndatasize\n      0x00\n      dup1\n      returndatacopy\n      revert(0x00, returndatasize)\n    tag_97:\n      pop\n      pop\n      pop\n      pop\n        /* \"contracts/MyNFTMarket.sol\":2488:2509  removeOrder(_tokenId) */\n      tag_98\n        /* \"contracts/MyNFTMarket.sol\":2500:2508  _tokenId */\n      dup3\n        /* \"contracts/MyNFTMarket.sol\":2488:2499  removeOrder */\n      tag_99\n        /* \"contracts/MyNFTMarket.sol\":2488:2509  removeOrder(_tokenId) */\n      jump\t// in\n    tag_98:\n        /* \"contracts/MyNFTMarket.sol\":2527:2563  OrderCancelled(msg.sender, _tokenId) */\n      0xdd003742fb214507783ce004fe55f5ac14f89c6de4a7cd7487e47eb091c62265\n        /* \"contracts/MyNFTMarket.sol\":2542:2552  msg.sender */\n      caller\n        /* \"contracts/MyNFTMarket.sol\":2554:2562  _tokenId */\n      dup4\n        /* \"contracts/MyNFTMarket.sol\":2527:2563  OrderCancelled(msg.sender, _tokenId) */\n      mload(0x40)\n      tag_100\n      swap3\n      swap2\n      swap1\n      tag_101\n      jump\t// in\n    tag_100:\n      mload(0x40)\n      dup1\n      swap2\n      sub\n      swap1\n      log1\n        /* \"contracts/MyNFTMarket.sol\":2300:2571  {... */\n      pop\n        /* \"contracts/MyNFTMarket.sol\":2252:2571  function cancelOrder(uint256 _tokenId) external {... */\n      pop\n      jump\t// out\n        /* \"contracts/MyNFTMarket.sol\":5425:5813  function getMyNFTs() external view returns (Order[] memory) {... */\n    tag_31:\n        /* \"contracts/MyNFTMarket.sol\":5469:5483  Order[] memory */\n      0x60\n        /* \"contracts/MyNFTMarket.sol\":5496:5519  Order[] memory myOrders */\n      0x00\n        /* \"contracts/MyNFTMarket.sol\":5534:5540  orders */\n      0x02\n        /* \"contracts/MyNFTMarket.sol\":5534:5547  orders.length */\n      dup1\n      sload\n      swap1\n      pop\n        /* \"contracts/MyNFTMarket.sol\":5522:5548  new Order[](orders.length) */\n      0xffffffffffffffff\n      dup2\n      gt\n      iszero\n      tag_103\n      jumpi\n      tag_104\n      tag_105\n      jump\t// in\n    tag_104:\n    tag_103:\n      mload(0x40)\n      swap1\n      dup1\n      dup3\n      mstore\n      dup1\n      0x20\n      mul\n      0x20\n      add\n      dup3\n      add\n      0x40\n      mstore\n      dup1\n      iszero\n      tag_106\n      jumpi\n      dup2\n      0x20\n      add\n    tag_107:\n      tag_108\n      tag_109\n      jump\t// in\n    tag_108:\n      dup2\n      mstore\n      0x20\n      add\n      swap1\n      0x01\n      swap1\n      sub\n      swap1\n      dup2\n      tag_107\n      jumpi\n      swap1\n      pop\n    tag_106:\n      pop\n        /* \"contracts/MyNFTMarket.sol\":5496:5548  Order[] memory myOrders = new Order[](orders.length) */\n      swap1\n      pop\n        /* \"contracts/MyNFTMarket.sol\":5559:5572  uint256 count */\n      0x00\n        /* \"contracts/MyNFTMarket.sol\":5591:5600  uint256 i */\n      dup1\n        /* \"contracts/MyNFTMarket.sol\":5587:5779  for(uint256 i = 0; i < orders.length; i++) {... */\n    tag_110:\n        /* \"contracts/MyNFTMarket.sol\":5610:5616  orders */\n      0x02\n        /* \"contracts/MyNFTMarket.sol\":5610:5623  orders.length */\n      dup1\n      sload\n      swap1\n      pop\n        /* \"contracts/MyNFTMarket.sol\":5606:5607  i */\n      dup2\n        /* \"contracts/MyNFTMarket.sol\":5606:5623  i < orders.length */\n      lt\n        /* \"contracts/MyNFTMarket.sol\":5587:5779  for(uint256 i = 0; i < orders.length; i++) {... */\n      iszero\n      tag_111\n      jumpi\n        /* \"contracts/MyNFTMarket.sol\":5668:5678  msg.sender */\n      caller\n        /* \"contracts/MyNFTMarket.sol\":5648:5678  orders[i].seller == msg.sender */\n      0xffffffffffffffffffffffffffffffffffffffff\n      and\n        /* \"contracts/MyNFTMarket.sol\":5648:5654  orders */\n      0x02\n        /* \"contracts/MyNFTMarket.sol\":5655:5656  i */\n      dup3\n        /* \"contracts/MyNFTMarket.sol\":5648:5657  orders[i] */\n      dup2\n      sload\n      dup2\n      lt\n      tag_113\n      jumpi\n      tag_114\n      tag_115\n      jump\t// in\n    tag_114:\n    tag_113:\n      swap1\n      0x00\n      mstore\n      keccak256(0x00, 0x20)\n      swap1\n      0x03\n      mul\n      add\n        /* \"contracts/MyNFTMarket.sol\":5648:5664  orders[i].seller */\n      0x01\n      add\n      0x00\n      swap1\n      sload\n      swap1\n      0x0100\n      exp\n      swap1\n      div\n      0xffffffffffffffffffffffffffffffffffffffff\n      and\n        /* \"contracts/MyNFTMarket.sol\":5648:5678  orders[i].seller == msg.sender */\n      0xffffffffffffffffffffffffffffffffffffffff\n      and\n      sub\n        /* \"contracts/MyNFTMarket.sol\":5645:5768  if(orders[i].seller == msg.sender) {... */\n      tag_117\n      jumpi\n        /* \"contracts/MyNFTMarket.sol\":5717:5723  orders */\n      0x02\n        /* \"contracts/MyNFTMarket.sol\":5724:5725  i */\n      dup2\n        /* \"contracts/MyNFTMarket.sol\":5717:5726  orders[i] */\n      dup2\n      sload\n      dup2\n      lt\n      tag_118\n      jumpi\n      tag_119\n      tag_115\n      jump\t// in\n    tag_119:\n    tag_118:\n      swap1\n      0x00\n      mstore\n      keccak256(0x00, 0x20)\n      swap1\n      0x03\n      mul\n      add\n        /* \"contracts/MyNFTMarket.sol\":5699:5726  myOrders[count] = orders[i] */\n      mload(0x40)\n      dup1\n      0x60\n      add\n      0x40\n      mstore\n      swap1\n      dup2\n      0x00\n      dup3\n      add\n      sload\n      dup2\n      mstore\n      0x20\n      add\n      0x01\n      dup3\n      add\n      0x00\n      swap1\n      sload\n      swap1\n      0x0100\n      exp\n      swap1\n      div\n      0xffffffffffffffffffffffffffffffffffffffff\n      and\n      0xffffffffffffffffffffffffffffffffffffffff\n      and\n      0xffffffffffffffffffffffffffffffffffffffff\n      and\n      dup2\n      mstore\n      0x20\n      add\n      0x02\n      dup3\n      add\n      sload\n      dup2\n      mstore\n      pop\n      pop\n        /* \"contracts/MyNFTMarket.sol\":5699:5707  myOrders */\n      dup4\n        /* \"contracts/MyNFTMarket.sol\":5708:5713  count */\n      dup4\n        /* \"contracts/MyNFTMarket.sol\":5699:5714  myOrders[count] */\n      dup2\n      mload\n      dup2\n      lt\n      tag_121\n      jumpi\n      tag_122\n      tag_115\n      jump\t// in\n    tag_122:\n    tag_121:\n      0x20\n      mul\n      0x20\n      add\n      add\n        /* \"contracts/MyNFTMarket.sol\":5699:5726  myOrders[count] = orders[i] */\n      dup2\n      swap1\n      mstore\n      pop\n        /* \"contracts/MyNFTMarket.sol\":5745:5752  count++ */\n      dup2\n      dup1\n      tag_123\n      swap1\n      tag_124\n      jump\t// in\n    tag_123:\n      swap3\n      pop\n      pop\n        /* \"contracts/MyNFTMarket.sol\":5645:5768  if(orders[i].seller == msg.sender) {... */\n    tag_117:\n        /* \"contracts/MyNFTMarket.sol\":5625:5628  i++ */\n      dup1\n      dup1\n      0x01\n      add\n      swap2\n      pop\n      pop\n        /* \"contracts/MyNFTMarket.sol\":5587:5779  for(uint256 i = 0; i < orders.length; i++) {... */\n      jump(tag_110)\n    tag_111:\n      pop\n        /* \"contracts/MyNFTMarket.sol\":5797:5805  myOrders */\n      dup2\n        /* \"contracts/MyNFTMarket.sol\":5790:5805  return myOrders */\n      swap3\n      pop\n      pop\n      pop\n        /* \"contracts/MyNFTMarket.sol\":5425:5813  function getMyNFTs() external view returns (Order[] memory) {... */\n      swap1\n      jump\t// out\n        /* \"contracts/MyNFTMarket.sol\":312:331  IERC20 public erc20 */\n    tag_35:\n      0x00\n      dup1\n      sload\n      swap1\n      0x0100\n      exp\n      swap1\n      div\n      0xffffffffffffffffffffffffffffffffffffffff\n      and\n      dup2\n      jump\t// out\n        /* \"contracts/MyNFTMarket.sol\":672:714  mapping(uint256 => Order) public idToOrder */\n    tag_40:\n      mstore(0x20, 0x03)\n      dup1\n      0x00\n      mstore\n      keccak256(0x00, 0x40)\n      0x00\n      swap2\n      pop\n      swap1\n      pop\n      dup1\n      0x00\n      add\n      sload\n      swap1\n      dup1\n      0x01\n      add\n      0x00\n      swap1\n      sload\n      swap1\n      0x0100\n      exp\n      swap1\n      div\n      0xffffffffffffffffffffffffffffffffffffffff\n      and\n      swap1\n      dup1\n      0x02\n      add\n      sload\n      swap1\n      pop\n      dup4\n      jump\t// out\n        /* \"contracts/MyNFTMarket.sol\":5145:5242  function getOrderLength() external view returns (uint256) {... */\n    tag_44:\n        /* \"contracts/MyNFTMarket.sol\":5194:5201  uint256 */\n      0x00\n        /* \"contracts/MyNFTMarket.sol\":5221:5227  orders */\n      0x02\n        /* \"contracts/MyNFTMarket.sol\":5221:5234  orders.length */\n      dup1\n      sload\n      swap1\n      pop\n        /* \"contracts/MyNFTMarket.sol\":5214:5234  return orders.length */\n      swap1\n      pop\n        /* \"contracts/MyNFTMarket.sol\":5145:5242  function getOrderLength() external view returns (uint256) {... */\n      swap1\n      jump\t// out\n        /* \"contracts/MyNFTMarket.sol\":598:619  Order[] public orders */\n    tag_49:\n      0x02\n      dup2\n      dup2\n      sload\n      dup2\n      lt\n      tag_126\n      jumpi\n      0x00\n      dup1\n      revert\n    tag_126:\n      swap1\n      0x00\n      mstore\n      keccak256(0x00, 0x20)\n      swap1\n      0x03\n      mul\n      add\n      0x00\n      swap2\n      pop\n      swap1\n      pop\n      dup1\n      0x00\n      add\n      sload\n      swap1\n      dup1\n      0x01\n      add\n      0x00\n      swap1\n      sload\n      swap1\n      0x0100\n      exp\n      swap1\n      div\n      0xffffffffffffffffffffffffffffffffffffffff\n      and\n      swap1\n      dup1\n      0x02\n      add\n      sload\n      swap1\n      pop\n      dup4\n      jump\t// out\n        /* \"contracts/MyNFTMarket.sol\":3201:3649  function changePrice(uint256 _tokenId, uint256 price) external{... */\n    tag_54:\n        /* \"contracts/MyNFTMarket.sol\":3274:3288  address seller */\n      0x00\n        /* \"contracts/MyNFTMarket.sol\":3291:3300  idToOrder */\n      0x03\n        /* \"contracts/MyNFTMarket.sol\":3291:3310  idToOrder[_tokenId] */\n      0x00\n        /* \"contracts/MyNFTMarket.sol\":3301:3309  _tokenId */\n      dup5\n        /* \"contracts/MyNFTMarket.sol\":3291:3310  idToOrder[_tokenId] */\n      dup2\n      mstore\n      0x20\n      add\n      swap1\n      dup2\n      mstore\n      0x20\n      add\n      0x00\n      keccak256\n        /* \"contracts/MyNFTMarket.sol\":3291:3317  idToOrder[_tokenId].seller */\n      0x01\n      add\n      0x00\n      swap1\n      sload\n      swap1\n      0x0100\n      exp\n      swap1\n      div\n      0xffffffffffffffffffffffffffffffffffffffff\n      and\n        /* \"contracts/MyNFTMarket.sol\":3274:3317  address seller = idToOrder[_tokenId].seller */\n      swap1\n      pop\n        /* \"contracts/MyNFTMarket.sol\":3346:3356  msg.sender */\n      caller\n        /* \"contracts/MyNFTMarket.sol\":3336:3356  seller == msg.sender */\n      0xffffffffffffffffffffffffffffffffffffffff\n      and\n        /* \"contracts/MyNFTMarket.sol\":3336:3342  seller */\n      dup2\n        /* \"contracts/MyNFTMarket.sol\":3336:3356  seller == msg.sender */\n      0xffffffffffffffffffffffffffffffffffffffff\n      and\n      eq\n        /* \"contracts/MyNFTMarket.sol\":3328:3371  require(seller == msg.sender, \"not seller\") */\n      tag_129\n      jumpi\n      mload(0x40)\n      0x08c379a000000000000000000000000000000000000000000000000000000000\n      dup2\n      mstore\n      0x04\n      add\n      tag_130\n      swap1\n      tag_92\n      jump\t// in\n    tag_130:\n      mload(0x40)\n      dup1\n      swap2\n      sub\n      swap1\n      revert\n    tag_129:\n        /* \"contracts/MyNFTMarket.sol\":3382:3403  uint256 previousPrice */\n      0x00\n        /* \"contracts/MyNFTMarket.sol\":3406:3415  idToOrder */\n      0x03\n        /* \"contracts/MyNFTMarket.sol\":3406:3425  idToOrder[_tokenId] */\n      0x00\n        /* \"contracts/MyNFTMarket.sol\":3416:3424  _tokenId */\n      dup6\n        /* \"contracts/MyNFTMarket.sol\":3406:3425  idToOrder[_tokenId] */\n      dup2\n      mstore\n      0x20\n      add\n      swap1\n      dup2\n      mstore\n      0x20\n      add\n      0x00\n      keccak256\n        /* \"contracts/MyNFTMarket.sol\":3406:3431  idToOrder[_tokenId].price */\n      0x00\n      add\n      sload\n        /* \"contracts/MyNFTMarket.sol\":3382:3431  uint256 previousPrice = idToOrder[_tokenId].price */\n      swap1\n      pop\n        /* \"contracts/MyNFTMarket.sol\":3470:3475  price */\n      dup3\n        /* \"contracts/MyNFTMarket.sol\":3442:3451  idToOrder */\n      0x03\n        /* \"contracts/MyNFTMarket.sol\":3442:3461  idToOrder[_tokenId] */\n      0x00\n        /* \"contracts/MyNFTMarket.sol\":3452:3460  _tokenId */\n      dup7\n        /* \"contracts/MyNFTMarket.sol\":3442:3461  idToOrder[_tokenId] */\n      dup2\n      mstore\n      0x20\n      add\n      swap1\n      dup2\n      mstore\n      0x20\n      add\n      0x00\n      keccak256\n        /* \"contracts/MyNFTMarket.sol\":3442:3467  idToOrder[_tokenId].price */\n      0x00\n      add\n        /* \"contracts/MyNFTMarket.sol\":3442:3475  idToOrder[_tokenId].price = price */\n      dup2\n      swap1\n      sstore\n      pop\n        /* \"contracts/MyNFTMarket.sol\":3486:3505  Order storage order */\n      0x00\n        /* \"contracts/MyNFTMarket.sol\":3508:3514  orders */\n      0x02\n        /* \"contracts/MyNFTMarket.sol\":3515:3529  idToOrderIndex */\n      0x04\n        /* \"contracts/MyNFTMarket.sol\":3515:3539  idToOrderIndex[_tokenId] */\n      0x00\n        /* \"contracts/MyNFTMarket.sol\":3530:3538  _tokenId */\n      dup8\n        /* \"contracts/MyNFTMarket.sol\":3515:3539  idToOrderIndex[_tokenId] */\n      dup2\n      mstore\n      0x20\n      add\n      swap1\n      dup2\n      mstore\n      0x20\n      add\n      0x00\n      keccak256\n      sload\n        /* \"contracts/MyNFTMarket.sol\":3508:3540  orders[idToOrderIndex[_tokenId]] */\n      dup2\n      sload\n      dup2\n      lt\n      tag_131\n      jumpi\n      tag_132\n      tag_115\n      jump\t// in\n    tag_132:\n    tag_131:\n      swap1\n      0x00\n      mstore\n      keccak256(0x00, 0x20)\n      swap1\n      0x03\n      mul\n      add\n        /* \"contracts/MyNFTMarket.sol\":3486:3540  Order storage order = orders[idToOrderIndex[_tokenId]] */\n      swap1\n      pop\n        /* \"contracts/MyNFTMarket.sol\":3565:3570  price */\n      dup4\n        /* \"contracts/MyNFTMarket.sol\":3551:3556  order */\n      dup2\n        /* \"contracts/MyNFTMarket.sol\":3551:3562  order.price */\n      0x00\n      add\n        /* \"contracts/MyNFTMarket.sol\":3551:3570  order.price = price */\n      dup2\n      swap1\n      sstore\n      pop\n        /* \"contracts/MyNFTMarket.sol\":3586:3641  PirceChange(msg.sender, _tokenId, previousPrice ,price) */\n      0xe553fdbd198f6bea082afba4b03f9b0a81c01d2c70843669d2289c92b750b8fa\n        /* \"contracts/MyNFTMarket.sol\":3598:3608  msg.sender */\n      caller\n        /* \"contracts/MyNFTMarket.sol\":3610:3618  _tokenId */\n      dup7\n        /* \"contracts/MyNFTMarket.sol\":3620:3633  previousPrice */\n      dup5\n        /* \"contracts/MyNFTMarket.sol\":3635:3640  price */\n      dup8\n        /* \"contracts/MyNFTMarket.sol\":3586:3641  PirceChange(msg.sender, _tokenId, previousPrice ,price) */\n      mload(0x40)\n      tag_134\n      swap5\n      swap4\n      swap3\n      swap2\n      swap1\n      tag_135\n      jump\t// in\n    tag_134:\n      mload(0x40)\n      dup1\n      swap2\n      sub\n      swap1\n      log1\n        /* \"contracts/MyNFTMarket.sol\":3263:3649  {... */\n      pop\n      pop\n      pop\n        /* \"contracts/MyNFTMarket.sol\":3201:3649  function changePrice(uint256 _tokenId, uint256 price) external{... */\n      pop\n      pop\n      jump\t// out\n        /* \"contracts/MyNFTMarket.sol\":4518:4911  function toUint256(bytes memory _bytes, uint256 _start) public pure returns (uint256) {... */\n    tag_58:\n        /* \"contracts/MyNFTMarket.sol\":4595:4602  uint256 */\n      0x00\n        /* \"contracts/MyNFTMarket.sol\":4638:4644  _start */\n      dup2\n        /* \"contracts/MyNFTMarket.sol\":4632:4634  32 */\n      0x20\n        /* \"contracts/MyNFTMarket.sol\":4623:4629  _start */\n      dup4\n        /* \"contracts/MyNFTMarket.sol\":4623:4634  _start + 32 */\n      tag_137\n      swap2\n      swap1\n      tag_138\n      jump\t// in\n    tag_137:\n        /* \"contracts/MyNFTMarket.sol\":4623:4644  _start + 32 >= _start */\n      lt\n      iszero\n        /* \"contracts/MyNFTMarket.sol\":4615:4675  require(_start + 32 >= _start, \"Market: toUint256_overflow\") */\n      tag_139\n      jumpi\n      mload(0x40)\n      0x08c379a000000000000000000000000000000000000000000000000000000000\n      dup2\n      mstore\n      0x04\n      add\n      tag_140\n      swap1\n      tag_141\n      jump\t// in\n    tag_140:\n      mload(0x40)\n      dup1\n      swap2\n      sub\n      swap1\n      revert\n    tag_139:\n        /* \"contracts/MyNFTMarket.sol\":4720:4722  32 */\n      0x20\n        /* \"contracts/MyNFTMarket.sol\":4711:4717  _start */\n      dup3\n        /* \"contracts/MyNFTMarket.sol\":4711:4722  _start + 32 */\n      tag_142\n      swap2\n      swap1\n      tag_138\n      jump\t// in\n    tag_142:\n        /* \"contracts/MyNFTMarket.sol\":4694:4700  _bytes */\n      dup4\n        /* \"contracts/MyNFTMarket.sol\":4694:4707  _bytes.length */\n      mload\n        /* \"contracts/MyNFTMarket.sol\":4694:4722  _bytes.length >= _start + 32 */\n      lt\n      iszero\n        /* \"contracts/MyNFTMarket.sol\":4686:4756  require(_bytes.length >= _start + 32, \"Market: toUint256_outOfBounds\") */\n      tag_143\n      jumpi\n      mload(0x40)\n      0x08c379a000000000000000000000000000000000000000000000000000000000\n      dup2\n      mstore\n      0x04\n      add\n      tag_144\n      swap1\n      tag_145\n      jump\t// in\n    tag_144:\n      mload(0x40)\n      dup1\n      swap2\n      sub\n      swap1\n      revert\n    tag_143:\n        /* \"contracts/MyNFTMarket.sol\":4767:4783  uint256 tempUint */\n      0x00\n        /* \"contracts/MyNFTMarket.sol\":4859:4865  _start */\n      dup3\n        /* \"contracts/MyNFTMarket.sol\":4852:4856  0x20 */\n      0x20\n        /* \"contracts/MyNFTMarket.sol\":4844:4850  _bytes */\n      dup6\n        /* \"contracts/MyNFTMarket.sol\":4840:4857  add(_bytes, 0x20) */\n      add\n        /* \"contracts/MyNFTMarket.sol\":4836:4866  add(add(_bytes, 0x20), _start) */\n      add\n        /* \"contracts/MyNFTMarket.sol\":4830:4867  mload(add(add(_bytes, 0x20), _start)) */\n      mload\n        /* \"contracts/MyNFTMarket.sol\":4818:4867  tempUint := mload(add(add(_bytes, 0x20), _start)) */\n      swap1\n      pop\n        /* \"contracts/MyNFTMarket.sol\":4895:4903  tempUint */\n      dup1\n        /* \"contracts/MyNFTMarket.sol\":4888:4903  return tempUint */\n      swap2\n      pop\n      pop\n        /* \"contracts/MyNFTMarket.sol\":4518:4911  function toUint256(bytes memory _bytes, uint256 _start) public pure returns (uint256) {... */\n      swap3\n      swap2\n      pop\n      pop\n      jump\t// out\n        /* \"contracts/MyNFTMarket.sol\":338:359  IERC721 public erc721 */\n    tag_61:\n      0x01\n      0x00\n      swap1\n      sload\n      swap1\n      0x0100\n      exp\n      swap1\n      div\n      0xffffffffffffffffffffffffffffffffffffffff\n      and\n      dup2\n      jump\t// out\n        /* \"contracts/MyNFTMarket.sol\":1658:2199  function buy(uint256 _tokenId) external{... */\n    tag_66:\n        /* \"contracts/MyNFTMarket.sol\":1708:1721  address buyer */\n      0x00\n        /* \"contracts/MyNFTMarket.sol\":1724:1734  msg.sender */\n      caller\n        /* \"contracts/MyNFTMarket.sol\":1708:1734  address buyer = msg.sender */\n      swap1\n      pop\n        /* \"contracts/MyNFTMarket.sol\":1779:1789  uint price */\n      0x00\n        /* \"contracts/MyNFTMarket.sol\":1792:1801  idToOrder */\n      0x03\n        /* \"contracts/MyNFTMarket.sol\":1792:1811  idToOrder[_tokenId] */\n      0x00\n        /* \"contracts/MyNFTMarket.sol\":1802:1810  _tokenId */\n      dup5\n        /* \"contracts/MyNFTMarket.sol\":1792:1811  idToOrder[_tokenId] */\n      dup2\n      mstore\n      0x20\n      add\n      swap1\n      dup2\n      mstore\n      0x20\n      add\n      0x00\n      keccak256\n        /* \"contracts/MyNFTMarket.sol\":1792:1817  idToOrder[_tokenId].price */\n      0x00\n      add\n      sload\n        /* \"contracts/MyNFTMarket.sol\":1779:1817  uint price = idToOrder[_tokenId].price */\n      swap1\n      pop\n        /* \"contracts/MyNFTMarket.sol\":1828:1842  address seller */\n      0x00\n        /* \"contracts/MyNFTMarket.sol\":1845:1854  idToOrder */\n      0x03\n        /* \"contracts/MyNFTMarket.sol\":1845:1864  idToOrder[_tokenId] */\n      0x00\n        /* \"contracts/MyNFTMarket.sol\":1855:1863  _tokenId */\n      dup6\n        /* \"contracts/MyNFTMarket.sol\":1845:1864  idToOrder[_tokenId] */\n      dup2\n      mstore\n      0x20\n      add\n      swap1\n      dup2\n      mstore\n      0x20\n      add\n      0x00\n      keccak256\n        /* \"contracts/MyNFTMarket.sol\":1845:1871  idToOrder[_tokenId].seller */\n      0x01\n      add\n      0x00\n      swap1\n      sload\n      swap1\n      0x0100\n      exp\n      swap1\n      div\n      0xffffffffffffffffffffffffffffffffffffffff\n      and\n        /* \"contracts/MyNFTMarket.sol\":1828:1871  address seller = idToOrder[_tokenId].seller */\n      swap1\n      pop\n        /* \"contracts/MyNFTMarket.sol\":1890:1895  erc20 */\n      0x00\n      dup1\n      sload\n      swap1\n      0x0100\n      exp\n      swap1\n      div\n      0xffffffffffffffffffffffffffffffffffffffff\n      and\n        /* \"contracts/MyNFTMarket.sol\":1890:1908  erc20.transferFrom */\n      0xffffffffffffffffffffffffffffffffffffffff\n      and\n      0x23b872dd\n        /* \"contracts/MyNFTMarket.sol\":1909:1914  buyer */\n      dup5\n        /* \"contracts/MyNFTMarket.sol\":1916:1922  seller */\n      dup4\n        /* \"contracts/MyNFTMarket.sol\":1924:1929  price */\n      dup6\n        /* \"contracts/MyNFTMarket.sol\":1890:1930  erc20.transferFrom(buyer, seller, price) */\n      mload(0x40)\n      dup5\n      0xffffffff\n      and\n      0xe0\n      shl\n      dup2\n      mstore\n      0x04\n      add\n      tag_147\n      swap4\n      swap3\n      swap2\n      swap1\n      tag_94\n      jump\t// in\n    tag_147:\n      0x20\n      mload(0x40)\n      dup1\n      dup4\n      sub\n      dup2\n      0x00\n      dup8\n      gas\n      call\n      iszero\n      dup1\n      iszero\n      tag_149\n      jumpi\n      returndatasize\n      0x00\n      dup1\n      returndatacopy\n      revert(0x00, returndatasize)\n    tag_149:\n      pop\n      pop\n      pop\n      pop\n      mload(0x40)\n      returndatasize\n      not(0x1f)\n      0x1f\n      dup3\n      add\n      and\n      dup3\n      add\n      dup1\n      0x40\n      mstore\n      pop\n      dup2\n      add\n      swap1\n      tag_150\n      swap2\n      swap1\n      tag_151\n      jump\t// in\n    tag_150:\n        /* \"contracts/MyNFTMarket.sol\":1882:1950  require(erc20.transferFrom(buyer, seller, price), \"transfer failed\") */\n      tag_152\n      jumpi\n      mload(0x40)\n      0x08c379a000000000000000000000000000000000000000000000000000000000\n      dup2\n      mstore\n      0x04\n      add\n      tag_153\n      swap1\n      tag_154\n      jump\t// in\n    tag_153:\n      mload(0x40)\n      dup1\n      swap2\n      sub\n      swap1\n      revert\n    tag_152:\n        /* \"contracts/MyNFTMarket.sol\":1986:1992  erc721 */\n      0x01\n      0x00\n      swap1\n      sload\n      swap1\n      0x0100\n      exp\n      swap1\n      div\n      0xffffffffffffffffffffffffffffffffffffffff\n      and\n        /* \"contracts/MyNFTMarket.sol\":1986:2009  erc721.safeTransferFrom */\n      0xffffffffffffffffffffffffffffffffffffffff\n      and\n      0x42842e0e\n        /* \"contracts/MyNFTMarket.sol\":2018:2022  this */\n      address\n        /* \"contracts/MyNFTMarket.sol\":2025:2030  buyer */\n      dup6\n        /* \"contracts/MyNFTMarket.sol\":2032:2040  _tokenId */\n      dup8\n        /* \"contracts/MyNFTMarket.sol\":1986:2041  erc721.safeTransferFrom(address(this), buyer, _tokenId) */\n      mload(0x40)\n      dup5\n      0xffffffff\n      and\n      0xe0\n      shl\n      dup2\n      mstore\n      0x04\n      add\n      tag_155\n      swap4\n      swap3\n      swap2\n      swap1\n      tag_94\n      jump\t// in\n    tag_155:\n      0x00\n      mload(0x40)\n      dup1\n      dup4\n      sub\n      dup2\n      0x00\n      dup8\n      dup1\n      extcodesize\n      iszero\n      dup1\n      iszero\n      tag_156\n      jumpi\n      0x00\n      dup1\n      revert\n    tag_156:\n      pop\n      gas\n      call\n      iszero\n      dup1\n      iszero\n      tag_158\n      jumpi\n      returndatasize\n      0x00\n      dup1\n      returndatacopy\n      revert(0x00, returndatasize)\n    tag_158:\n      pop\n      pop\n      pop\n      pop\n        /* \"contracts/MyNFTMarket.sol\":2094:2115  removeOrder(_tokenId) */\n      tag_159\n        /* \"contracts/MyNFTMarket.sol\":2106:2114  _tokenId */\n      dup5\n        /* \"contracts/MyNFTMarket.sol\":2094:2105  removeOrder */\n      tag_99\n        /* \"contracts/MyNFTMarket.sol\":2094:2115  removeOrder(_tokenId) */\n      jump\t// in\n    tag_159:\n        /* \"contracts/MyNFTMarket.sol\":2133:2169  Deal(seller, buyer, price, _tokenId) */\n      0x424d5e5f0192c7dacdbe646ca31b00299146d883d76a95ef5cddbac7cd342eab\n        /* \"contracts/MyNFTMarket.sol\":2138:2144  seller */\n      dup2\n        /* \"contracts/MyNFTMarket.sol\":2146:2151  buyer */\n      dup5\n        /* \"contracts/MyNFTMarket.sol\":2153:2158  price */\n      dup5\n        /* \"contracts/MyNFTMarket.sol\":2160:2168  _tokenId */\n      dup8\n        /* \"contracts/MyNFTMarket.sol\":2133:2169  Deal(seller, buyer, price, _tokenId) */\n      mload(0x40)\n      tag_160\n      swap5\n      swap4\n      swap3\n      swap2\n      swap1\n      tag_161\n      jump\t// in\n    tag_160:\n      mload(0x40)\n      dup1\n      swap2\n      sub\n      swap1\n      log1\n        /* \"contracts/MyNFTMarket.sol\":1697:2199  {... */\n      pop\n      pop\n      pop\n        /* \"contracts/MyNFTMarket.sol\":1658:2199  function buy(uint256 _tokenId) external{... */\n      pop\n      jump\t// out\n        /* \"contracts/MyNFTMarket.sol\":745:794  mapping(uint256 => uint256) public idToOrderIndex */\n    tag_69:\n      mstore(0x20, 0x04)\n      dup1\n      0x00\n      mstore\n      keccak256(0x00, 0x40)\n      0x00\n      swap2\n      pop\n      swap1\n      pop\n      sload\n      dup2\n      jump\t// out\n        /* \"contracts/MyNFTMarket.sol\":5285:5378  function getAllNFTs() external view returns (Order[] memory) {... */\n    tag_72:\n        /* \"contracts/MyNFTMarket.sol\":5330:5344  Order[] memory */\n      0x60\n        /* \"contracts/MyNFTMarket.sol\":5364:5370  orders */\n      0x02\n        /* \"contracts/MyNFTMarket.sol\":5357:5370  return orders */\n      dup1\n      sload\n      dup1\n      0x20\n      mul\n      0x20\n      add\n      mload(0x40)\n      swap1\n      dup2\n      add\n      0x40\n      mstore\n      dup1\n      swap3\n      swap2\n      swap1\n      dup2\n      dup2\n      mstore\n      0x20\n      add\n      0x00\n      swap1\n    tag_163:\n      dup3\n      dup3\n      lt\n      iszero\n      tag_164\n      jumpi\n      dup4\n      dup3\n      swap1\n      0x00\n      mstore\n      keccak256(0x00, 0x20)\n      swap1\n      0x03\n      mul\n      add\n      mload(0x40)\n      dup1\n      0x60\n      add\n      0x40\n      mstore\n      swap1\n      dup2\n      0x00\n      dup3\n      add\n      sload\n      dup2\n      mstore\n      0x20\n      add\n      0x01\n      dup3\n      add\n      0x00\n      swap1\n      sload\n      swap1\n      0x0100\n      exp\n      swap1\n      div\n      0xffffffffffffffffffffffffffffffffffffffff\n      and\n      0xffffffffffffffffffffffffffffffffffffffff\n      and\n      0xffffffffffffffffffffffffffffffffffffffff\n      and\n      dup2\n      mstore\n      0x20\n      add\n      0x02\n      dup3\n      add\n      sload\n      dup2\n      mstore\n      pop\n      pop\n      dup2\n      mstore\n      0x20\n      add\n      swap1\n      0x01\n      add\n      swap1\n      jump(tag_163)\n    tag_164:\n      pop\n      pop\n      pop\n      pop\n      swap1\n      pop\n        /* \"contracts/MyNFTMarket.sol\":5285:5378  function getAllNFTs() external view returns (Order[] memory) {... */\n      swap1\n      jump\t// out\n        /* \"contracts/MyNFTMarket.sol\":4974:5102  function isListed(uint256 _tokenId) public view returns (bool){... */\n    tag_76:\n        /* \"contracts/MyNFTMarket.sol\":5031:5035  bool */\n      0x00\n        /* \"contracts/MyNFTMarket.sol\":5092:5093  0 */\n      dup1\n        /* \"contracts/MyNFTMarket.sol\":5054:5094  idToOrder[_tokenId].seller != address(0) */\n      0xffffffffffffffffffffffffffffffffffffffff\n      and\n        /* \"contracts/MyNFTMarket.sol\":5054:5063  idToOrder */\n      0x03\n        /* \"contracts/MyNFTMarket.sol\":5054:5073  idToOrder[_tokenId] */\n      0x00\n        /* \"contracts/MyNFTMarket.sol\":5064:5072  _tokenId */\n      dup5\n        /* \"contracts/MyNFTMarket.sol\":5054:5073  idToOrder[_tokenId] */\n      dup2\n      mstore\n      0x20\n      add\n      swap1\n      dup2\n      mstore\n      0x20\n      add\n      0x00\n      keccak256\n        /* \"contracts/MyNFTMarket.sol\":5054:5080  idToOrder[_tokenId].seller */\n      0x01\n      add\n      0x00\n      swap1\n      sload\n      swap1\n      0x0100\n      exp\n      swap1\n      div\n      0xffffffffffffffffffffffffffffffffffffffff\n      and\n        /* \"contracts/MyNFTMarket.sol\":5054:5094  idToOrder[_tokenId].seller != address(0) */\n      0xffffffffffffffffffffffffffffffffffffffff\n      and\n      eq\n      iszero\n        /* \"contracts/MyNFTMarket.sol\":5047:5094  return idToOrder[_tokenId].seller != address(0) */\n      swap1\n      pop\n        /* \"contracts/MyNFTMarket.sol\":4974:5102  function isListed(uint256 _tokenId) public view returns (bool){... */\n      swap2\n      swap1\n      pop\n      jump\t// out\n        /* \"contracts/MyNFTMarket.sol\":2609:3173  function removeOrder(uint256 _tokenId) internal {... */\n    tag_99:\n        /* \"contracts/MyNFTMarket.sol\":2777:2790  uint256 index */\n      0x00\n        /* \"contracts/MyNFTMarket.sol\":2793:2807  idToOrderIndex */\n      0x04\n        /* \"contracts/MyNFTMarket.sol\":2793:2817  idToOrderIndex[_tokenId] */\n      0x00\n        /* \"contracts/MyNFTMarket.sol\":2808:2816  _tokenId */\n      dup4\n        /* \"contracts/MyNFTMarket.sol\":2793:2817  idToOrderIndex[_tokenId] */\n      dup2\n      mstore\n      0x20\n      add\n      swap1\n      dup2\n      mstore\n      0x20\n      add\n      0x00\n      keccak256\n      sload\n        /* \"contracts/MyNFTMarket.sol\":2777:2817  uint256 index = idToOrderIndex[_tokenId] */\n      swap1\n      pop\n        /* \"contracts/MyNFTMarket.sol\":2828:2845  uint256 lastIndex */\n      0x00\n        /* \"contracts/MyNFTMarket.sol\":2864:2865  1 */\n      0x01\n        /* \"contracts/MyNFTMarket.sol\":2848:2854  orders */\n      0x02\n        /* \"contracts/MyNFTMarket.sol\":2848:2861  orders.length */\n      dup1\n      sload\n      swap1\n      pop\n        /* \"contracts/MyNFTMarket.sol\":2848:2865  orders.length - 1 */\n      tag_168\n      swap2\n      swap1\n      tag_86\n      jump\t// in\n    tag_168:\n        /* \"contracts/MyNFTMarket.sol\":2828:2865  uint256 lastIndex = orders.length - 1 */\n      swap1\n      pop\n        /* \"contracts/MyNFTMarket.sol\":2888:2897  lastIndex */\n      dup1\n        /* \"contracts/MyNFTMarket.sol\":2879:2884  index */\n      dup3\n        /* \"contracts/MyNFTMarket.sol\":2879:2897  index != lastIndex */\n      eq\n        /* \"contracts/MyNFTMarket.sol\":2876:3062  if(index != lastIndex) {... */\n      tag_169\n      jumpi\n        /* \"contracts/MyNFTMarket.sol\":2913:2936  Order storage lastOrder */\n      0x00\n        /* \"contracts/MyNFTMarket.sol\":2939:2945  orders */\n      0x02\n        /* \"contracts/MyNFTMarket.sol\":2946:2955  lastIndex */\n      dup3\n        /* \"contracts/MyNFTMarket.sol\":2939:2956  orders[lastIndex] */\n      dup2\n      sload\n      dup2\n      lt\n      tag_170\n      jumpi\n      tag_171\n      tag_115\n      jump\t// in\n    tag_171:\n    tag_170:\n      swap1\n      0x00\n      mstore\n      keccak256(0x00, 0x20)\n      swap1\n      0x03\n      mul\n      add\n        /* \"contracts/MyNFTMarket.sol\":2913:2956  Order storage lastOrder = orders[lastIndex] */\n      swap1\n      pop\n        /* \"contracts/MyNFTMarket.sol\":2986:2995  lastOrder */\n      dup1\n        /* \"contracts/MyNFTMarket.sol\":2970:2976  orders */\n      0x02\n        /* \"contracts/MyNFTMarket.sol\":2977:2982  index */\n      dup5\n        /* \"contracts/MyNFTMarket.sol\":2970:2983  orders[index] */\n      dup2\n      sload\n      dup2\n      lt\n      tag_173\n      jumpi\n      tag_174\n      tag_115\n      jump\t// in\n    tag_174:\n    tag_173:\n      swap1\n      0x00\n      mstore\n      keccak256(0x00, 0x20)\n      swap1\n      0x03\n      mul\n      add\n        /* \"contracts/MyNFTMarket.sol\":2970:2995  orders[index] = lastOrder */\n      0x00\n      dup3\n      add\n      sload\n      dup2\n      0x00\n      add\n      sstore\n      0x01\n      dup3\n      add\n      0x00\n      swap1\n      sload\n      swap1\n      0x0100\n      exp\n      swap1\n      div\n      0xffffffffffffffffffffffffffffffffffffffff\n      and\n      dup2\n      0x01\n      add\n      exp(0x0100, 0x00)\n      dup2\n      sload\n      dup2\n      0xffffffffffffffffffffffffffffffffffffffff\n      mul\n      not\n      and\n      swap1\n      dup4\n      0xffffffffffffffffffffffffffffffffffffffff\n      and\n      mul\n      or\n      swap1\n      sstore\n      pop\n      0x02\n      dup3\n      add\n      sload\n      dup2\n      0x02\n      add\n      sstore\n      swap1\n      pop\n      pop\n        /* \"contracts/MyNFTMarket.sol\":3045:3050  index */\n      dup3\n        /* \"contracts/MyNFTMarket.sol\":3009:3023  idToOrderIndex */\n      0x04\n        /* \"contracts/MyNFTMarket.sol\":3009:3042  idToOrderIndex[lastOrder.tokenId] */\n      0x00\n        /* \"contracts/MyNFTMarket.sol\":3024:3033  lastOrder */\n      dup4\n        /* \"contracts/MyNFTMarket.sol\":3024:3041  lastOrder.tokenId */\n      0x02\n      add\n      sload\n        /* \"contracts/MyNFTMarket.sol\":3009:3042  idToOrderIndex[lastOrder.tokenId] */\n      dup2\n      mstore\n      0x20\n      add\n      swap1\n      dup2\n      mstore\n      0x20\n      add\n      0x00\n      keccak256\n        /* \"contracts/MyNFTMarket.sol\":3009:3050  idToOrderIndex[lastOrder.tokenId] = index */\n      dup2\n      swap1\n      sstore\n      pop\n        /* \"contracts/MyNFTMarket.sol\":2899:3062  {... */\n      pop\n        /* \"contracts/MyNFTMarket.sol\":2876:3062  if(index != lastIndex) {... */\n    tag_169:\n        /* \"contracts/MyNFTMarket.sol\":3072:3078  orders */\n      0x02\n        /* \"contracts/MyNFTMarket.sol\":3072:3084  orders.pop() */\n      dup1\n      sload\n      dup1\n      tag_176\n      jumpi\n      tag_177\n      tag_178\n      jump\t// in\n    tag_177:\n    tag_176:\n      0x01\n      swap1\n      sub\n      dup2\n      dup2\n      swap1\n      0x00\n      mstore\n      keccak256(0x00, 0x20)\n      swap1\n      0x03\n      mul\n      add\n      0x00\n      dup1\n      dup3\n      add\n      0x00\n      swap1\n      sstore\n      0x01\n      dup3\n      add\n      exp(0x0100, 0x00)\n      dup2\n      sload\n      swap1\n      0xffffffffffffffffffffffffffffffffffffffff\n      mul\n      not\n      and\n      swap1\n      sstore\n      0x02\n      dup3\n      add\n      0x00\n      swap1\n      sstore\n      pop\n      pop\n      swap1\n      sstore\n        /* \"contracts/MyNFTMarket.sol\":3104:3113  idToOrder */\n      0x03\n        /* \"contracts/MyNFTMarket.sol\":3104:3123  idToOrder[_tokenId] */\n      0x00\n        /* \"contracts/MyNFTMarket.sol\":3114:3122  _tokenId */\n      dup5\n        /* \"contracts/MyNFTMarket.sol\":3104:3123  idToOrder[_tokenId] */\n      dup2\n      mstore\n      0x20\n      add\n      swap1\n      dup2\n      mstore\n      0x20\n      add\n      0x00\n      keccak256\n      0x00\n        /* \"contracts/MyNFTMarket.sol\":3097:3123  delete idToOrder[_tokenId] */\n      dup1\n      dup3\n      add\n      0x00\n      swap1\n      sstore\n      0x01\n      dup3\n      add\n      exp(0x0100, 0x00)\n      dup2\n      sload\n      swap1\n      0xffffffffffffffffffffffffffffffffffffffff\n      mul\n      not\n      and\n      swap1\n      sstore\n      0x02\n      dup3\n      add\n      0x00\n      swap1\n      sstore\n      pop\n      pop\n        /* \"contracts/MyNFTMarket.sol\":3141:3155  idToOrderIndex */\n      0x04\n        /* \"contracts/MyNFTMarket.sol\":3141:3165  idToOrderIndex[_tokenId] */\n      0x00\n        /* \"contracts/MyNFTMarket.sol\":3156:3164  _tokenId */\n      dup5\n        /* \"contracts/MyNFTMarket.sol\":3141:3165  idToOrderIndex[_tokenId] */\n      dup2\n      mstore\n      0x20\n      add\n      swap1\n      dup2\n      mstore\n      0x20\n      add\n      0x00\n      keccak256\n        /* \"contracts/MyNFTMarket.sol\":3134:3165  delete idToOrderIndex[_tokenId] */\n      0x00\n      swap1\n      sstore\n        /* \"contracts/MyNFTMarket.sol\":2657:3173  {... */\n      pop\n      pop\n        /* \"contracts/MyNFTMarket.sol\":2609:3173  function removeOrder(uint256 _tokenId) internal {... */\n      pop\n      jump\t// out\n    tag_109:\n      mload(0x40)\n      dup1\n      0x60\n      add\n      0x40\n      mstore\n      dup1\n      0x00\n      dup2\n      mstore\n      0x20\n      add\n      and(0xffffffffffffffffffffffffffffffffffffffff, 0x00)\n      dup2\n      mstore\n      0x20\n      add\n      0x00\n      dup2\n      mstore\n      pop\n      swap1\n      jump\t// out\n        /* \"#utility.yul\":7:82   */\n    tag_180:\n        /* \"#utility.yul\":40:46   */\n      0x00\n        /* \"#utility.yul\":73:75   */\n      0x40\n        /* \"#utility.yul\":67:76   */\n      mload\n        /* \"#utility.yul\":57:76   */\n      swap1\n      pop\n        /* \"#utility.yul\":7:82   */\n      swap1\n      jump\t// out\n        /* \"#utility.yul\":88:205   */\n    tag_181:\n        /* \"#utility.yul\":197:198   */\n      0x00\n        /* \"#utility.yul\":194:195   */\n      dup1\n        /* \"#utility.yul\":187:199   */\n      revert\n        /* \"#utility.yul\":211:328   */\n    tag_182:\n        /* \"#utility.yul\":320:321   */\n      0x00\n        /* \"#utility.yul\":317:318   */\n      dup1\n        /* \"#utility.yul\":310:322   */\n      revert\n        /* \"#utility.yul\":334:460   */\n    tag_183:\n        /* \"#utility.yul\":371:378   */\n      0x00\n        /* \"#utility.yul\":411:453   */\n      0xffffffffffffffffffffffffffffffffffffffff\n        /* \"#utility.yul\":404:409   */\n      dup3\n        /* \"#utility.yul\":400:454   */\n      and\n        /* \"#utility.yul\":389:454   */\n      swap1\n      pop\n        /* \"#utility.yul\":334:460   */\n      swap2\n      swap1\n      pop\n      jump\t// out\n        /* \"#utility.yul\":466:562   */\n    tag_184:\n        /* \"#utility.yul\":503:510   */\n      0x00\n        /* \"#utility.yul\":532:556   */\n      tag_244\n        /* \"#utility.yul\":550:555   */\n      dup3\n        /* \"#utility.yul\":532:556   */\n      tag_183\n      jump\t// in\n    tag_244:\n        /* \"#utility.yul\":521:556   */\n      swap1\n      pop\n        /* \"#utility.yul\":466:562   */\n      swap2\n      swap1\n      pop\n      jump\t// out\n        /* \"#utility.yul\":568:690   */\n    tag_185:\n        /* \"#utility.yul\":641:665   */\n      tag_246\n        /* \"#utility.yul\":659:664   */\n      dup2\n        /* \"#utility.yul\":641:665   */\n      tag_184\n      jump\t// in\n    tag_246:\n        /* \"#utility.yul\":634:639   */\n      dup2\n        /* \"#utility.yul\":631:666   */\n      eq\n        /* \"#utility.yul\":621:684   */\n      tag_247\n      jumpi\n        /* \"#utility.yul\":680:681   */\n      0x00\n        /* \"#utility.yul\":677:678   */\n      dup1\n        /* \"#utility.yul\":670:682   */\n      revert\n        /* \"#utility.yul\":621:684   */\n    tag_247:\n        /* \"#utility.yul\":568:690   */\n      pop\n      jump\t// out\n        /* \"#utility.yul\":696:835   */\n    tag_186:\n        /* \"#utility.yul\":742:747   */\n      0x00\n        /* \"#utility.yul\":780:786   */\n      dup2\n        /* \"#utility.yul\":767:787   */\n      calldataload\n        /* \"#utility.yul\":758:787   */\n      swap1\n      pop\n        /* \"#utility.yul\":796:829   */\n      tag_249\n        /* \"#utility.yul\":823:828   */\n      dup2\n        /* \"#utility.yul\":796:829   */\n      tag_185\n      jump\t// in\n    tag_249:\n        /* \"#utility.yul\":696:835   */\n      swap3\n      swap2\n      pop\n      pop\n      jump\t// out\n        /* \"#utility.yul\":841:918   */\n    tag_187:\n        /* \"#utility.yul\":878:885   */\n      0x00\n        /* \"#utility.yul\":907:912   */\n      dup2\n        /* \"#utility.yul\":896:912   */\n      swap1\n      pop\n        /* \"#utility.yul\":841:918   */\n      swap2\n      swap1\n      pop\n      jump\t// out\n        /* \"#utility.yul\":924:1046   */\n    tag_188:\n        /* \"#utility.yul\":997:1021   */\n      tag_252\n        /* \"#utility.yul\":1015:1020   */\n      dup2\n        /* \"#utility.yul\":997:1021   */\n      tag_187\n      jump\t// in\n    tag_252:\n        /* \"#utility.yul\":990:995   */\n      dup2\n        /* \"#utility.yul\":987:1022   */\n      eq\n        /* \"#utility.yul\":977:1040   */\n      tag_253\n      jumpi\n        /* \"#utility.yul\":1036:1037   */\n      0x00\n        /* \"#utility.yul\":1033:1034   */\n      dup1\n        /* \"#utility.yul\":1026:1038   */\n      revert\n        /* \"#utility.yul\":977:1040   */\n    tag_253:\n        /* \"#utility.yul\":924:1046   */\n      pop\n      jump\t// out\n        /* \"#utility.yul\":1052:1191   */\n    tag_189:\n        /* \"#utility.yul\":1098:1103   */\n      0x00\n        /* \"#utility.yul\":1136:1142   */\n      dup2\n        /* \"#utility.yul\":1123:1143   */\n      calldataload\n        /* \"#utility.yul\":1114:1143   */\n      swap1\n      pop\n        /* \"#utility.yul\":1152:1185   */\n      tag_255\n        /* \"#utility.yul\":1179:1184   */\n      dup2\n        /* \"#utility.yul\":1152:1185   */\n      tag_188\n      jump\t// in\n    tag_255:\n        /* \"#utility.yul\":1052:1191   */\n      swap3\n      swap2\n      pop\n      pop\n      jump\t// out\n        /* \"#utility.yul\":1197:1314   */\n    tag_190:\n        /* \"#utility.yul\":1306:1307   */\n      0x00\n        /* \"#utility.yul\":1303:1304   */\n      dup1\n        /* \"#utility.yul\":1296:1308   */\n      revert\n        /* \"#utility.yul\":1320:1437   */\n    tag_191:\n        /* \"#utility.yul\":1429:1430   */\n      0x00\n        /* \"#utility.yul\":1426:1427   */\n      dup1\n        /* \"#utility.yul\":1419:1431   */\n      revert\n        /* \"#utility.yul\":1443:1560   */\n    tag_192:\n        /* \"#utility.yul\":1552:1553   */\n      0x00\n        /* \"#utility.yul\":1549:1550   */\n      dup1\n        /* \"#utility.yul\":1542:1554   */\n      revert\n        /* \"#utility.yul\":1579:2131   */\n    tag_193:\n        /* \"#utility.yul\":1636:1644   */\n      0x00\n        /* \"#utility.yul\":1646:1652   */\n      dup1\n        /* \"#utility.yul\":1696:1699   */\n      dup4\n        /* \"#utility.yul\":1689:1693   */\n      0x1f\n        /* \"#utility.yul\":1681:1687   */\n      dup5\n        /* \"#utility.yul\":1677:1694   */\n      add\n        /* \"#utility.yul\":1673:1700   */\n      slt\n        /* \"#utility.yul\":1663:1785   */\n      tag_260\n      jumpi\n        /* \"#utility.yul\":1704:1783   */\n      tag_261\n      tag_190\n      jump\t// in\n    tag_261:\n        /* \"#utility.yul\":1663:1785   */\n    tag_260:\n        /* \"#utility.yul\":1817:1823   */\n      dup3\n        /* \"#utility.yul\":1804:1824   */\n      calldataload\n        /* \"#utility.yul\":1794:1824   */\n      swap1\n      pop\n        /* \"#utility.yul\":1847:1865   */\n      0xffffffffffffffff\n        /* \"#utility.yul\":1839:1845   */\n      dup2\n        /* \"#utility.yul\":1836:1866   */\n      gt\n        /* \"#utility.yul\":1833:1950   */\n      iszero\n      tag_262\n      jumpi\n        /* \"#utility.yul\":1869:1948   */\n      tag_263\n      tag_191\n      jump\t// in\n    tag_263:\n        /* \"#utility.yul\":1833:1950   */\n    tag_262:\n        /* \"#utility.yul\":1983:1987   */\n      0x20\n        /* \"#utility.yul\":1975:1981   */\n      dup4\n        /* \"#utility.yul\":1971:1988   */\n      add\n        /* \"#utility.yul\":1959:1988   */\n      swap2\n      pop\n        /* \"#utility.yul\":2037:2040   */\n      dup4\n        /* \"#utility.yul\":2029:2033   */\n      0x01\n        /* \"#utility.yul\":2021:2027   */\n      dup3\n        /* \"#utility.yul\":2017:2034   */\n      mul\n        /* \"#utility.yul\":2007:2015   */\n      dup4\n        /* \"#utility.yul\":2003:2035   */\n      add\n        /* \"#utility.yul\":2000:2041   */\n      gt\n        /* \"#utility.yul\":1997:2125   */\n      iszero\n      tag_264\n      jumpi\n        /* \"#utility.yul\":2044:2123   */\n      tag_265\n      tag_192\n      jump\t// in\n    tag_265:\n        /* \"#utility.yul\":1997:2125   */\n    tag_264:\n        /* \"#utility.yul\":1579:2131   */\n      swap3\n      pop\n      swap3\n      swap1\n      pop\n      jump\t// out\n        /* \"#utility.yul\":2137:3100   */\n    tag_22:\n        /* \"#utility.yul\":2234:2240   */\n      0x00\n        /* \"#utility.yul\":2242:2248   */\n      dup1\n        /* \"#utility.yul\":2250:2256   */\n      0x00\n        /* \"#utility.yul\":2258:2264   */\n      dup1\n        /* \"#utility.yul\":2266:2272   */\n      0x00\n        /* \"#utility.yul\":2315:2318   */\n      0x80\n        /* \"#utility.yul\":2303:2312   */\n      dup7\n        /* \"#utility.yul\":2294:2301   */\n      dup9\n        /* \"#utility.yul\":2290:2313   */\n      sub\n        /* \"#utility.yul\":2286:2319   */\n      slt\n        /* \"#utility.yul\":2283:2403   */\n      iszero\n      tag_267\n      jumpi\n        /* \"#utility.yul\":2322:2401   */\n      tag_268\n      tag_181\n      jump\t// in\n    tag_268:\n        /* \"#utility.yul\":2283:2403   */\n    tag_267:\n        /* \"#utility.yul\":2442:2443   */\n      0x00\n        /* \"#utility.yul\":2467:2520   */\n      tag_269\n        /* \"#utility.yul\":2512:2519   */\n      dup9\n        /* \"#utility.yul\":2503:2509   */\n      dup3\n        /* \"#utility.yul\":2492:2501   */\n      dup10\n        /* \"#utility.yul\":2488:2510   */\n      add\n        /* \"#utility.yul\":2467:2520   */\n      tag_186\n      jump\t// in\n    tag_269:\n        /* \"#utility.yul\":2457:2520   */\n      swap6\n      pop\n        /* \"#utility.yul\":2413:2530   */\n      pop\n        /* \"#utility.yul\":2569:2571   */\n      0x20\n        /* \"#utility.yul\":2595:2648   */\n      tag_270\n        /* \"#utility.yul\":2640:2647   */\n      dup9\n        /* \"#utility.yul\":2631:2637   */\n      dup3\n        /* \"#utility.yul\":2620:2629   */\n      dup10\n        /* \"#utility.yul\":2616:2638   */\n      add\n        /* \"#utility.yul\":2595:2648   */\n      tag_186\n      jump\t// in\n    tag_270:\n        /* \"#utility.yul\":2585:2648   */\n      swap5\n      pop\n        /* \"#utility.yul\":2540:2658   */\n      pop\n        /* \"#utility.yul\":2697:2699   */\n      0x40\n        /* \"#utility.yul\":2723:2776   */\n      tag_271\n        /* \"#utility.yul\":2768:2775   */\n      dup9\n        /* \"#utility.yul\":2759:2765   */\n      dup3\n        /* \"#utility.yul\":2748:2757   */\n      dup10\n        /* \"#utility.yul\":2744:2766   */\n      add\n        /* \"#utility.yul\":2723:2776   */\n      tag_189\n      jump\t// in\n    tag_271:\n        /* \"#utility.yul\":2713:2776   */\n      swap4\n      pop\n        /* \"#utility.yul\":2668:2786   */\n      pop\n        /* \"#utility.yul\":2853:2855   */\n      0x60\n        /* \"#utility.yul\":2842:2851   */\n      dup7\n        /* \"#utility.yul\":2838:2856   */\n      add\n        /* \"#utility.yul\":2825:2857   */\n      calldataload\n        /* \"#utility.yul\":2884:2902   */\n      0xffffffffffffffff\n        /* \"#utility.yul\":2876:2882   */\n      dup2\n        /* \"#utility.yul\":2873:2903   */\n      gt\n        /* \"#utility.yul\":2870:2987   */\n      iszero\n      tag_272\n      jumpi\n        /* \"#utility.yul\":2906:2985   */\n      tag_273\n      tag_182\n      jump\t// in\n    tag_273:\n        /* \"#utility.yul\":2870:2987   */\n    tag_272:\n        /* \"#utility.yul\":3019:3083   */\n      tag_274\n        /* \"#utility.yul\":3075:3082   */\n      dup9\n        /* \"#utility.yul\":3066:3072   */\n      dup3\n        /* \"#utility.yul\":3055:3064   */\n      dup10\n        /* \"#utility.yul\":3051:3073   */\n      add\n        /* \"#utility.yul\":3019:3083   */\n      tag_193\n      jump\t// in\n    tag_274:\n        /* \"#utility.yul\":3001:3083   */\n      swap3\n      pop\n      swap3\n      pop\n        /* \"#utility.yul\":2796:3093   */\n      pop\n        /* \"#utility.yul\":2137:3100   */\n      swap3\n      swap6\n      pop\n      swap3\n      swap6\n      swap1\n      swap4\n      pop\n      jump\t// out\n        /* \"#utility.yul\":3106:3255   */\n    tag_194:\n        /* \"#utility.yul\":3142:3149   */\n      0x00\n        /* \"#utility.yul\":3182:3248   */\n      0xffffffff00000000000000000000000000000000000000000000000000000000\n        /* \"#utility.yul\":3175:3180   */\n      dup3\n        /* \"#utility.yul\":3171:3249   */\n      and\n        /* \"#utility.yul\":3160:3249   */\n      swap1\n      pop\n        /* \"#utility.yul\":3106:3255   */\n      swap2\n      swap1\n      pop\n      jump\t// out\n        /* \"#utility.yul\":3261:3376   */\n    tag_195:\n        /* \"#utility.yul\":3346:3369   */\n      tag_277\n        /* \"#utility.yul\":3363:3368   */\n      dup2\n        /* \"#utility.yul\":3346:3369   */\n      tag_194\n      jump\t// in\n    tag_277:\n        /* \"#utility.yul\":3341:3344   */\n      dup3\n        /* \"#utility.yul\":3334:3370   */\n      mstore\n        /* \"#utility.yul\":3261:3376   */\n      pop\n      pop\n      jump\t// out\n        /* \"#utility.yul\":3382:3600   */\n    tag_25:\n        /* \"#utility.yul\":3473:3477   */\n      0x00\n        /* \"#utility.yul\":3511:3513   */\n      0x20\n        /* \"#utility.yul\":3500:3509   */\n      dup3\n        /* \"#utility.yul\":3496:3514   */\n      add\n        /* \"#utility.yul\":3488:3514   */\n      swap1\n      pop\n        /* \"#utility.yul\":3524:3593   */\n      tag_279\n        /* \"#utility.yul\":3590:3591   */\n      0x00\n        /* \"#utility.yul\":3579:3588   */\n      dup4\n        /* \"#utility.yul\":3575:3592   */\n      add\n        /* \"#utility.yul\":3566:3572   */\n      dup5\n        /* \"#utility.yul\":3524:3593   */\n      tag_195\n      jump\t// in\n    tag_279:\n        /* \"#utility.yul\":3382:3600   */\n      swap3\n      swap2\n      pop\n      pop\n      jump\t// out\n        /* \"#utility.yul\":3606:3935   */\n    tag_28:\n        /* \"#utility.yul\":3665:3671   */\n      0x00\n        /* \"#utility.yul\":3714:3716   */\n      0x20\n        /* \"#utility.yul\":3702:3711   */\n      dup3\n        /* \"#utility.yul\":3693:3700   */\n      dup5\n        /* \"#utility.yul\":3689:3712   */\n      sub\n        /* \"#utility.yul\":3685:3717   */\n      slt\n        /* \"#utility.yul\":3682:3801   */\n      iszero\n      tag_281\n      jumpi\n        /* \"#utility.yul\":3720:3799   */\n      tag_282\n      tag_181\n      jump\t// in\n    tag_282:\n        /* \"#utility.yul\":3682:3801   */\n    tag_281:\n        /* \"#utility.yul\":3840:3841   */\n      0x00\n        /* \"#utility.yul\":3865:3918   */\n      tag_283\n        /* \"#utility.yul\":3910:3917   */\n      dup5\n        /* \"#utility.yul\":3901:3907   */\n      dup3\n        /* \"#utility.yul\":3890:3899   */\n      dup6\n        /* \"#utility.yul\":3886:3908   */\n      add\n        /* \"#utility.yul\":3865:3918   */\n      tag_189\n      jump\t// in\n    tag_283:\n        /* \"#utility.yul\":3855:3918   */\n      swap2\n      pop\n        /* \"#utility.yul\":3811:3928   */\n      pop\n        /* \"#utility.yul\":3606:3935   */\n      swap3\n      swap2\n      pop\n      pop\n      jump\t// out\n        /* \"#utility.yul\":3941:4076   */\n    tag_196:\n        /* \"#utility.yul\":4029:4035   */\n      0x00\n        /* \"#utility.yul\":4063:4068   */\n      dup2\n        /* \"#utility.yul\":4057:4069   */\n      mload\n        /* \"#utility.yul\":4047:4069   */\n      swap1\n      pop\n        /* \"#utility.yul\":3941:4076   */\n      swap2\n      swap1\n      pop\n      jump\t// out\n        /* \"#utility.yul\":4082:4287   */\n    tag_197:\n        /* \"#utility.yul\":4202:4213   */\n      0x00\n        /* \"#utility.yul\":4236:4242   */\n      dup3\n        /* \"#utility.yul\":4231:4234   */\n      dup3\n        /* \"#utility.yul\":4224:4243   */\n      mstore\n        /* \"#utility.yul\":4276:4280   */\n      0x20\n        /* \"#utility.yul\":4271:4274   */\n      dup3\n        /* \"#utility.yul\":4267:4281   */\n      add\n        /* \"#utility.yul\":4252:4281   */\n      swap1\n      pop\n        /* \"#utility.yul\":4082:4287   */\n      swap3\n      swap2\n      pop\n      pop\n      jump\t// out\n        /* \"#utility.yul\":4293:4446   */\n    tag_198:\n        /* \"#utility.yul\":4381:4385   */\n      0x00\n        /* \"#utility.yul\":4404:4407   */\n      dup2\n        /* \"#utility.yul\":4396:4407   */\n      swap1\n      pop\n        /* \"#utility.yul\":4434:4438   */\n      0x20\n        /* \"#utility.yul\":4429:4432   */\n      dup3\n        /* \"#utility.yul\":4425:4439   */\n      add\n        /* \"#utility.yul\":4417:4439   */\n      swap1\n      pop\n        /* \"#utility.yul\":4293:4446   */\n      swap2\n      swap1\n      pop\n      jump\t// out\n        /* \"#utility.yul\":4452:4560   */\n    tag_199:\n        /* \"#utility.yul\":4529:4553   */\n      tag_288\n        /* \"#utility.yul\":4547:4552   */\n      dup2\n        /* \"#utility.yul\":4529:4553   */\n      tag_187\n      jump\t// in\n    tag_288:\n        /* \"#utility.yul\":4524:4527   */\n      dup3\n        /* \"#utility.yul\":4517:4554   */\n      mstore\n        /* \"#utility.yul\":4452:4560   */\n      pop\n      pop\n      jump\t// out\n        /* \"#utility.yul\":4566:4674   */\n    tag_200:\n        /* \"#utility.yul\":4643:4667   */\n      tag_290\n        /* \"#utility.yul\":4661:4666   */\n      dup2\n        /* \"#utility.yul\":4643:4667   */\n      tag_184\n      jump\t// in\n    tag_290:\n        /* \"#utility.yul\":4638:4641   */\n      dup3\n        /* \"#utility.yul\":4631:4668   */\n      mstore\n        /* \"#utility.yul\":4566:4674   */\n      pop\n      pop\n      jump\t// out\n        /* \"#utility.yul\":4740:5409   */\n    tag_201:\n        /* \"#utility.yul\":4869:4873   */\n      0x60\n        /* \"#utility.yul\":4864:4867   */\n      dup3\n        /* \"#utility.yul\":4860:4874   */\n      add\n        /* \"#utility.yul\":4957:4961   */\n      0x00\n        /* \"#utility.yul\":4950:4955   */\n      dup3\n        /* \"#utility.yul\":4946:4962   */\n      add\n        /* \"#utility.yul\":4940:4963   */\n      mload\n        /* \"#utility.yul\":4976:5039   */\n      tag_292\n        /* \"#utility.yul\":5033:5037   */\n      0x00\n        /* \"#utility.yul\":5028:5031   */\n      dup6\n        /* \"#utility.yul\":5024:5038   */\n      add\n        /* \"#utility.yul\":5010:5022   */\n      dup3\n        /* \"#utility.yul\":4976:5039   */\n      tag_199\n      jump\t// in\n    tag_292:\n        /* \"#utility.yul\":4884:5049   */\n      pop\n        /* \"#utility.yul\":5133:5137   */\n      0x20\n        /* \"#utility.yul\":5126:5131   */\n      dup3\n        /* \"#utility.yul\":5122:5138   */\n      add\n        /* \"#utility.yul\":5116:5139   */\n      mload\n        /* \"#utility.yul\":5152:5215   */\n      tag_293\n        /* \"#utility.yul\":5209:5213   */\n      0x20\n        /* \"#utility.yul\":5204:5207   */\n      dup6\n        /* \"#utility.yul\":5200:5214   */\n      add\n        /* \"#utility.yul\":5186:5198   */\n      dup3\n        /* \"#utility.yul\":5152:5215   */\n      tag_200\n      jump\t// in\n    tag_293:\n        /* \"#utility.yul\":5059:5225   */\n      pop\n        /* \"#utility.yul\":5310:5314   */\n      0x40\n        /* \"#utility.yul\":5303:5308   */\n      dup3\n        /* \"#utility.yul\":5299:5315   */\n      add\n        /* \"#utility.yul\":5293:5316   */\n      mload\n        /* \"#utility.yul\":5329:5392   */\n      tag_294\n        /* \"#utility.yul\":5386:5390   */\n      0x40\n        /* \"#utility.yul\":5381:5384   */\n      dup6\n        /* \"#utility.yul\":5377:5391   */\n      add\n        /* \"#utility.yul\":5363:5375   */\n      dup3\n        /* \"#utility.yul\":5329:5392   */\n      tag_199\n      jump\t// in\n    tag_294:\n        /* \"#utility.yul\":5235:5402   */\n      pop\n        /* \"#utility.yul\":4838:5409   */\n      pop\n        /* \"#utility.yul\":4740:5409   */\n      pop\n      pop\n      jump\t// out\n        /* \"#utility.yul\":5415:5678   */\n    tag_202:\n        /* \"#utility.yul\":5526:5536   */\n      0x00\n        /* \"#utility.yul\":5547:5635   */\n      tag_296\n        /* \"#utility.yul\":5631:5634   */\n      dup4\n        /* \"#utility.yul\":5623:5629   */\n      dup4\n        /* \"#utility.yul\":5547:5635   */\n      tag_201\n      jump\t// in\n    tag_296:\n        /* \"#utility.yul\":5667:5671   */\n      0x60\n        /* \"#utility.yul\":5662:5665   */\n      dup4\n        /* \"#utility.yul\":5658:5672   */\n      add\n        /* \"#utility.yul\":5644:5672   */\n      swap1\n      pop\n        /* \"#utility.yul\":5415:5678   */\n      swap3\n      swap2\n      pop\n      pop\n      jump\t// out\n        /* \"#utility.yul\":5684:5818   */\n    tag_203:\n        /* \"#utility.yul\":5775:5779   */\n      0x00\n        /* \"#utility.yul\":5807:5811   */\n      0x20\n        /* \"#utility.yul\":5802:5805   */\n      dup3\n        /* \"#utility.yul\":5798:5812   */\n      add\n        /* \"#utility.yul\":5790:5812   */\n      swap1\n      pop\n        /* \"#utility.yul\":5684:5818   */\n      swap2\n      swap1\n      pop\n      jump\t// out\n        /* \"#utility.yul\":5888:6788   */\n    tag_204:\n        /* \"#utility.yul\":6049:6052   */\n      0x00\n        /* \"#utility.yul\":6078:6153   */\n      tag_299\n        /* \"#utility.yul\":6147:6152   */\n      dup3\n        /* \"#utility.yul\":6078:6153   */\n      tag_196\n      jump\t// in\n    tag_299:\n        /* \"#utility.yul\":6169:6276   */\n      tag_300\n        /* \"#utility.yul\":6269:6275   */\n      dup2\n        /* \"#utility.yul\":6264:6267   */\n      dup6\n        /* \"#utility.yul\":6169:6276   */\n      tag_197\n      jump\t// in\n    tag_300:\n        /* \"#utility.yul\":6162:6276   */\n      swap4\n      pop\n        /* \"#utility.yul\":6300:6377   */\n      tag_301\n        /* \"#utility.yul\":6371:6376   */\n      dup4\n        /* \"#utility.yul\":6300:6377   */\n      tag_198\n      jump\t// in\n    tag_301:\n        /* \"#utility.yul\":6400:6407   */\n      dup1\n        /* \"#utility.yul\":6431:6432   */\n      0x00\n        /* \"#utility.yul\":6416:6763   */\n    tag_302:\n        /* \"#utility.yul\":6441:6447   */\n      dup4\n        /* \"#utility.yul\":6438:6439   */\n      dup2\n        /* \"#utility.yul\":6435:6448   */\n      lt\n        /* \"#utility.yul\":6416:6763   */\n      iszero\n      tag_304\n      jumpi\n        /* \"#utility.yul\":6517:6523   */\n      dup2\n        /* \"#utility.yul\":6511:6524   */\n      mload\n        /* \"#utility.yul\":6544:6649   */\n      tag_305\n        /* \"#utility.yul\":6645:6648   */\n      dup9\n        /* \"#utility.yul\":6630:6643   */\n      dup3\n        /* \"#utility.yul\":6544:6649   */\n      tag_202\n      jump\t// in\n    tag_305:\n        /* \"#utility.yul\":6537:6649   */\n      swap8\n      pop\n        /* \"#utility.yul\":6672:6753   */\n      tag_306\n        /* \"#utility.yul\":6746:6752   */\n      dup4\n        /* \"#utility.yul\":6672:6753   */\n      tag_203\n      jump\t// in\n    tag_306:\n        /* \"#utility.yul\":6662:6753   */\n      swap3\n      pop\n        /* \"#utility.yul\":6476:6763   */\n      pop\n        /* \"#utility.yul\":6463:6464   */\n      0x01\n        /* \"#utility.yul\":6460:6461   */\n      dup2\n        /* \"#utility.yul\":6456:6465   */\n      add\n        /* \"#utility.yul\":6451:6465   */\n      swap1\n      pop\n        /* \"#utility.yul\":6416:6763   */\n      jump(tag_302)\n    tag_304:\n        /* \"#utility.yul\":6420:6434   */\n      pop\n        /* \"#utility.yul\":6779:6782   */\n      dup6\n        /* \"#utility.yul\":6772:6782   */\n      swap4\n      pop\n        /* \"#utility.yul\":6054:6788   */\n      pop\n      pop\n      pop\n        /* \"#utility.yul\":5888:6788   */\n      swap3\n      swap2\n      pop\n      pop\n      jump\t// out\n        /* \"#utility.yul\":6794:7251   */\n    tag_33:\n        /* \"#utility.yul\":6979:6983   */\n      0x00\n        /* \"#utility.yul\":7017:7019   */\n      0x20\n        /* \"#utility.yul\":7006:7015   */\n      dup3\n        /* \"#utility.yul\":7002:7020   */\n      add\n        /* \"#utility.yul\":6994:7020   */\n      swap1\n      pop\n        /* \"#utility.yul\":7066:7075   */\n      dup2\n        /* \"#utility.yul\":7060:7064   */\n      dup2\n        /* \"#utility.yul\":7056:7076   */\n      sub\n        /* \"#utility.yul\":7052:7053   */\n      0x00\n        /* \"#utility.yul\":7041:7050   */\n      dup4\n        /* \"#utility.yul\":7037:7054   */\n      add\n        /* \"#utility.yul\":7030:7077   */\n      mstore\n        /* \"#utility.yul\":7094:7244   */\n      tag_308\n        /* \"#utility.yul\":7239:7243   */\n      dup2\n        /* \"#utility.yul\":7230:7236   */\n      dup5\n        /* \"#utility.yul\":7094:7244   */\n      tag_204\n      jump\t// in\n    tag_308:\n        /* \"#utility.yul\":7086:7244   */\n      swap1\n      pop\n        /* \"#utility.yul\":6794:7251   */\n      swap3\n      swap2\n      pop\n      pop\n      jump\t// out\n        /* \"#utility.yul\":7257:7317   */\n    tag_205:\n        /* \"#utility.yul\":7285:7288   */\n      0x00\n        /* \"#utility.yul\":7306:7311   */\n      dup2\n        /* \"#utility.yul\":7299:7311   */\n      swap1\n      pop\n        /* \"#utility.yul\":7257:7317   */\n      swap2\n      swap1\n      pop\n      jump\t// out\n        /* \"#utility.yul\":7323:7465   */\n    tag_206:\n        /* \"#utility.yul\":7373:7382   */\n      0x00\n        /* \"#utility.yul\":7406:7459   */\n      tag_311\n        /* \"#utility.yul\":7424:7458   */\n      tag_312\n        /* \"#utility.yul\":7433:7457   */\n      tag_313\n        /* \"#utility.yul\":7451:7456   */\n      dup5\n        /* \"#utility.yul\":7433:7457   */\n      tag_183\n      jump\t// in\n    tag_313:\n        /* \"#utility.yul\":7424:7458   */\n      tag_205\n      jump\t// in\n    tag_312:\n        /* \"#utility.yul\":7406:7459   */\n      tag_183\n      jump\t// in\n    tag_311:\n        /* \"#utility.yul\":7393:7459   */\n      swap1\n      pop\n        /* \"#utility.yul\":7323:7465   */\n      swap2\n      swap1\n      pop\n      jump\t// out\n        /* \"#utility.yul\":7471:7597   */\n    tag_207:\n        /* \"#utility.yul\":7521:7530   */\n      0x00\n        /* \"#utility.yul\":7554:7591   */\n      tag_315\n        /* \"#utility.yul\":7585:7590   */\n      dup3\n        /* \"#utility.yul\":7554:7591   */\n      tag_206\n      jump\t// in\n    tag_315:\n        /* \"#utility.yul\":7541:7591   */\n      swap1\n      pop\n        /* \"#utility.yul\":7471:7597   */\n      swap2\n      swap1\n      pop\n      jump\t// out\n        /* \"#utility.yul\":7603:7743   */\n    tag_208:\n        /* \"#utility.yul\":7667:7676   */\n      0x00\n        /* \"#utility.yul\":7700:7737   */\n      tag_317\n        /* \"#utility.yul\":7731:7736   */\n      dup3\n        /* \"#utility.yul\":7700:7737   */\n      tag_207\n      jump\t// in\n    tag_317:\n        /* \"#utility.yul\":7687:7737   */\n      swap1\n      pop\n        /* \"#utility.yul\":7603:7743   */\n      swap2\n      swap1\n      pop\n      jump\t// out\n        /* \"#utility.yul\":7749:7908   */\n    tag_209:\n        /* \"#utility.yul\":7850:7901   */\n      tag_319\n        /* \"#utility.yul\":7895:7900   */\n      dup2\n        /* \"#utility.yul\":7850:7901   */\n      tag_208\n      jump\t// in\n    tag_319:\n        /* \"#utility.yul\":7845:7848   */\n      dup3\n        /* \"#utility.yul\":7838:7902   */\n      mstore\n        /* \"#utility.yul\":7749:7908   */\n      pop\n      pop\n      jump\t// out\n        /* \"#utility.yul\":7914:8164   */\n    tag_37:\n        /* \"#utility.yul\":8021:8025   */\n      0x00\n        /* \"#utility.yul\":8059:8061   */\n      0x20\n        /* \"#utility.yul\":8048:8057   */\n      dup3\n        /* \"#utility.yul\":8044:8062   */\n      add\n        /* \"#utility.yul\":8036:8062   */\n      swap1\n      pop\n        /* \"#utility.yul\":8072:8157   */\n      tag_321\n        /* \"#utility.yul\":8154:8155   */\n      0x00\n        /* \"#utility.yul\":8143:8152   */\n      dup4\n        /* \"#utility.yul\":8139:8156   */\n      add\n        /* \"#utility.yul\":8130:8136   */\n      dup5\n        /* \"#utility.yul\":8072:8157   */\n      tag_209\n      jump\t// in\n    tag_321:\n        /* \"#utility.yul\":7914:8164   */\n      swap3\n      swap2\n      pop\n      pop\n      jump\t// out\n        /* \"#utility.yul\":8170:8288   */\n    tag_210:\n        /* \"#utility.yul\":8257:8281   */\n      tag_323\n        /* \"#utility.yul\":8275:8280   */\n      dup2\n        /* \"#utility.yul\":8257:8281   */\n      tag_187\n      jump\t// in\n    tag_323:\n        /* \"#utility.yul\":8252:8255   */\n      dup3\n        /* \"#utility.yul\":8245:8282   */\n      mstore\n        /* \"#utility.yul\":8170:8288   */\n      pop\n      pop\n      jump\t// out\n        /* \"#utility.yul\":8294:8412   */\n    tag_211:\n        /* \"#utility.yul\":8381:8405   */\n      tag_325\n        /* \"#utility.yul\":8399:8404   */\n      dup2\n        /* \"#utility.yul\":8381:8405   */\n      tag_184\n      jump\t// in\n    tag_325:\n        /* \"#utility.yul\":8376:8379   */\n      dup3\n        /* \"#utility.yul\":8369:8406   */\n      mstore\n        /* \"#utility.yul\":8294:8412   */\n      pop\n      pop\n      jump\t// out\n        /* \"#utility.yul\":8418:8860   */\n    tag_42:\n        /* \"#utility.yul\":8567:8571   */\n      0x00\n        /* \"#utility.yul\":8605:8607   */\n      0x60\n        /* \"#utility.yul\":8594:8603   */\n      dup3\n        /* \"#utility.yul\":8590:8608   */\n      add\n        /* \"#utility.yul\":8582:8608   */\n      swap1\n      pop\n        /* \"#utility.yul\":8618:8689   */\n      tag_327\n        /* \"#utility.yul\":8686:8687   */\n      0x00\n        /* \"#utility.yul\":8675:8684   */\n      dup4\n        /* \"#utility.yul\":8671:8688   */\n      add\n        /* \"#utility.yul\":8662:8668   */\n      dup7\n        /* \"#utility.yul\":8618:8689   */\n      tag_210\n      jump\t// in\n    tag_327:\n        /* \"#utility.yul\":8699:8771   */\n      tag_328\n        /* \"#utility.yul\":8767:8769   */\n      0x20\n        /* \"#utility.yul\":8756:8765   */\n      dup4\n        /* \"#utility.yul\":8752:8770   */\n      add\n        /* \"#utility.yul\":8743:8749   */\n      dup6\n        /* \"#utility.yul\":8699:8771   */\n      tag_211\n      jump\t// in\n    tag_328:\n        /* \"#utility.yul\":8781:8853   */\n      tag_329\n        /* \"#utility.yul\":8849:8851   */\n      0x40\n        /* \"#utility.yul\":8838:8847   */\n      dup4\n        /* \"#utility.yul\":8834:8852   */\n      add\n        /* \"#utility.yul\":8825:8831   */\n      dup5\n        /* \"#utility.yul\":8781:8853   */\n      tag_210\n      jump\t// in\n    tag_329:\n        /* \"#utility.yul\":8418:8860   */\n      swap5\n      swap4\n      pop\n      pop\n      pop\n      pop\n      jump\t// out\n        /* \"#utility.yul\":8866:9088   */\n    tag_46:\n        /* \"#utility.yul\":8959:8963   */\n      0x00\n        /* \"#utility.yul\":8997:8999   */\n      0x20\n        /* \"#utility.yul\":8986:8995   */\n      dup3\n        /* \"#utility.yul\":8982:9000   */\n      add\n        /* \"#utility.yul\":8974:9000   */\n      swap1\n      pop\n        /* \"#utility.yul\":9010:9081   */\n      tag_331\n        /* \"#utility.yul\":9078:9079   */\n      0x00\n        /* \"#utility.yul\":9067:9076   */\n      dup4\n        /* \"#utility.yul\":9063:9080   */\n      add\n        /* \"#utility.yul\":9054:9060   */\n      dup5\n        /* \"#utility.yul\":9010:9081   */\n      tag_210\n      jump\t// in\n    tag_331:\n        /* \"#utility.yul\":8866:9088   */\n      swap3\n      swap2\n      pop\n      pop\n      jump\t// out\n        /* \"#utility.yul\":9094:9568   */\n    tag_53:\n        /* \"#utility.yul\":9162:9168   */\n      0x00\n        /* \"#utility.yul\":9170:9176   */\n      dup1\n        /* \"#utility.yul\":9219:9221   */\n      0x40\n        /* \"#utility.yul\":9207:9216   */\n      dup4\n        /* \"#utility.yul\":9198:9205   */\n      dup6\n        /* \"#utility.yul\":9194:9217   */\n      sub\n        /* \"#utility.yul\":9190:9222   */\n      slt\n        /* \"#utility.yul\":9187:9306   */\n      iszero\n      tag_333\n      jumpi\n        /* \"#utility.yul\":9225:9304   */\n      tag_334\n      tag_181\n      jump\t// in\n    tag_334:\n        /* \"#utility.yul\":9187:9306   */\n    tag_333:\n        /* \"#utility.yul\":9345:9346   */\n      0x00\n        /* \"#utility.yul\":9370:9423   */\n      tag_335\n        /* \"#utility.yul\":9415:9422   */\n      dup6\n        /* \"#utility.yul\":9406:9412   */\n      dup3\n        /* \"#utility.yul\":9395:9404   */\n      dup7\n        /* \"#utility.yul\":9391:9413   */\n      add\n        /* \"#utility.yul\":9370:9423   */\n      tag_189\n      jump\t// in\n    tag_335:\n        /* \"#utility.yul\":9360:9423   */\n      swap3\n      pop\n        /* \"#utility.yul\":9316:9433   */\n      pop\n        /* \"#utility.yul\":9472:9474   */\n      0x20\n        /* \"#utility.yul\":9498:9551   */\n      tag_336\n        /* \"#utility.yul\":9543:9550   */\n      dup6\n        /* \"#utility.yul\":9534:9540   */\n      dup3\n        /* \"#utility.yul\":9523:9532   */\n      dup7\n        /* \"#utility.yul\":9519:9541   */\n      add\n        /* \"#utility.yul\":9498:9551   */\n      tag_189\n      jump\t// in\n    tag_336:\n        /* \"#utility.yul\":9488:9551   */\n      swap2\n      pop\n        /* \"#utility.yul\":9443:9561   */\n      pop\n        /* \"#utility.yul\":9094:9568   */\n      swap3\n      pop\n      swap3\n      swap1\n      pop\n      jump\t// out\n        /* \"#utility.yul\":9574:9691   */\n    tag_212:\n        /* \"#utility.yul\":9683:9684   */\n      0x00\n        /* \"#utility.yul\":9680:9681   */\n      dup1\n        /* \"#utility.yul\":9673:9685   */\n      revert\n        /* \"#utility.yul\":9697:9799   */\n    tag_213:\n        /* \"#utility.yul\":9738:9744   */\n      0x00\n        /* \"#utility.yul\":9789:9791   */\n      0x1f\n        /* \"#utility.yul\":9785:9792   */\n      not\n        /* \"#utility.yul\":9780:9782   */\n      0x1f\n        /* \"#utility.yul\":9773:9778   */\n      dup4\n        /* \"#utility.yul\":9769:9783   */\n      add\n        /* \"#utility.yul\":9765:9793   */\n      and\n        /* \"#utility.yul\":9755:9793   */\n      swap1\n      pop\n        /* \"#utility.yul\":9697:9799   */\n      swap2\n      swap1\n      pop\n      jump\t// out\n        /* \"#utility.yul\":9805:9985   */\n    tag_105:\n        /* \"#utility.yul\":9853:9930   */\n      0x4e487b7100000000000000000000000000000000000000000000000000000000\n        /* \"#utility.yul\":9850:9851   */\n      0x00\n        /* \"#utility.yul\":9843:9931   */\n      mstore\n        /* \"#utility.yul\":9950:9954   */\n      0x41\n        /* \"#utility.yul\":9947:9948   */\n      0x04\n        /* \"#utility.yul\":9940:9955   */\n      mstore\n        /* \"#utility.yul\":9974:9978   */\n      0x24\n        /* \"#utility.yul\":9971:9972   */\n      0x00\n        /* \"#utility.yul\":9964:9979   */\n      revert\n        /* \"#utility.yul\":9991:10272   */\n    tag_214:\n        /* \"#utility.yul\":10074:10101   */\n      tag_341\n        /* \"#utility.yul\":10096:10100   */\n      dup3\n        /* \"#utility.yul\":10074:10101   */\n      tag_213\n      jump\t// in\n    tag_341:\n        /* \"#utility.yul\":10066:10072   */\n      dup2\n        /* \"#utility.yul\":10062:10102   */\n      add\n        /* \"#utility.yul\":10204:10210   */\n      dup2\n        /* \"#utility.yul\":10192:10202   */\n      dup2\n        /* \"#utility.yul\":10189:10211   */\n      lt\n        /* \"#utility.yul\":10168:10186   */\n      0xffffffffffffffff\n        /* \"#utility.yul\":10156:10166   */\n      dup3\n        /* \"#utility.yul\":10153:10187   */\n      gt\n        /* \"#utility.yul\":10150:10212   */\n      or\n        /* \"#utility.yul\":10147:10235   */\n      iszero\n      tag_342\n      jumpi\n        /* \"#utility.yul\":10215:10233   */\n      tag_343\n      tag_105\n      jump\t// in\n    tag_343:\n        /* \"#utility.yul\":10147:10235   */\n    tag_342:\n        /* \"#utility.yul\":10255:10265   */\n      dup1\n        /* \"#utility.yul\":10251:10253   */\n      0x40\n        /* \"#utility.yul\":10244:10266   */\n      mstore\n        /* \"#utility.yul\":10034:10272   */\n      pop\n        /* \"#utility.yul\":9991:10272   */\n      pop\n      pop\n      jump\t// out\n        /* \"#utility.yul\":10278:10407   */\n    tag_215:\n        /* \"#utility.yul\":10312:10318   */\n      0x00\n        /* \"#utility.yul\":10339:10359   */\n      tag_345\n      tag_180\n      jump\t// in\n    tag_345:\n        /* \"#utility.yul\":10329:10359   */\n      swap1\n      pop\n        /* \"#utility.yul\":10368:10401   */\n      tag_346\n        /* \"#utility.yul\":10396:10400   */\n      dup3\n        /* \"#utility.yul\":10388:10394   */\n      dup3\n        /* \"#utility.yul\":10368:10401   */\n      tag_214\n      jump\t// in\n    tag_346:\n        /* \"#utility.yul\":10278:10407   */\n      swap2\n      swap1\n      pop\n      jump\t// out\n        /* \"#utility.yul\":10413:10720   */\n    tag_216:\n        /* \"#utility.yul\":10474:10478   */\n      0x00\n        /* \"#utility.yul\":10564:10582   */\n      0xffffffffffffffff\n        /* \"#utility.yul\":10556:10562   */\n      dup3\n        /* \"#utility.yul\":10553:10583   */\n      gt\n        /* \"#utility.yul\":10550:10606   */\n      iszero\n      tag_348\n      jumpi\n        /* \"#utility.yul\":10586:10604   */\n      tag_349\n      tag_105\n      jump\t// in\n    tag_349:\n        /* \"#utility.yul\":10550:10606   */\n    tag_348:\n        /* \"#utility.yul\":10624:10653   */\n      tag_350\n        /* \"#utility.yul\":10646:10652   */\n      dup3\n        /* \"#utility.yul\":10624:10653   */\n      tag_213\n      jump\t// in\n    tag_350:\n        /* \"#utility.yul\":10616:10653   */\n      swap1\n      pop\n        /* \"#utility.yul\":10708:10712   */\n      0x20\n        /* \"#utility.yul\":10702:10706   */\n      dup2\n        /* \"#utility.yul\":10698:10713   */\n      add\n        /* \"#utility.yul\":10690:10713   */\n      swap1\n      pop\n        /* \"#utility.yul\":10413:10720   */\n      swap2\n      swap1\n      pop\n      jump\t// out\n        /* \"#utility.yul\":10726:10874   */\n    tag_217:\n        /* \"#utility.yul\":10824:10830   */\n      dup3\n        /* \"#utility.yul\":10819:10822   */\n      dup2\n        /* \"#utility.yul\":10814:10817   */\n      dup4\n        /* \"#utility.yul\":10801:10831   */\n      calldatacopy\n        /* \"#utility.yul\":10865:10866   */\n      0x00\n        /* \"#utility.yul\":10856:10862   */\n      dup4\n        /* \"#utility.yul\":10851:10854   */\n      dup4\n        /* \"#utility.yul\":10847:10863   */\n      add\n        /* \"#utility.yul\":10840:10867   */\n      mstore\n        /* \"#utility.yul\":10726:10874   */\n      pop\n      pop\n      pop\n      jump\t// out\n        /* \"#utility.yul\":10880:11303   */\n    tag_218:\n        /* \"#utility.yul\":10957:10962   */\n      0x00\n        /* \"#utility.yul\":10982:11047   */\n      tag_353\n        /* \"#utility.yul\":10998:11046   */\n      tag_354\n        /* \"#utility.yul\":11039:11045   */\n      dup5\n        /* \"#utility.yul\":10998:11046   */\n      tag_216\n      jump\t// in\n    tag_354:\n        /* \"#utility.yul\":10982:11047   */\n      tag_215\n      jump\t// in\n    tag_353:\n        /* \"#utility.yul\":10973:11047   */\n      swap1\n      pop\n        /* \"#utility.yul\":11070:11076   */\n      dup3\n        /* \"#utility.yul\":11063:11068   */\n      dup2\n        /* \"#utility.yul\":11056:11077   */\n      mstore\n        /* \"#utility.yul\":11108:11112   */\n      0x20\n        /* \"#utility.yul\":11101:11106   */\n      dup2\n        /* \"#utility.yul\":11097:11113   */\n      add\n        /* \"#utility.yul\":11146:11149   */\n      dup5\n        /* \"#utility.yul\":11137:11143   */\n      dup5\n        /* \"#utility.yul\":11132:11135   */\n      dup5\n        /* \"#utility.yul\":11128:11144   */\n      add\n        /* \"#utility.yul\":11125:11150   */\n      gt\n        /* \"#utility.yul\":11122:11234   */\n      iszero\n      tag_355\n      jumpi\n        /* \"#utility.yul\":11153:11232   */\n      tag_356\n      tag_212\n      jump\t// in\n    tag_356:\n        /* \"#utility.yul\":11122:11234   */\n    tag_355:\n        /* \"#utility.yul\":11243:11297   */\n      tag_357\n        /* \"#utility.yul\":11290:11296   */\n      dup5\n        /* \"#utility.yul\":11285:11288   */\n      dup3\n        /* \"#utility.yul\":11280:11283   */\n      dup6\n        /* \"#utility.yul\":11243:11297   */\n      tag_217\n      jump\t// in\n    tag_357:\n        /* \"#utility.yul\":10963:11303   */\n      pop\n        /* \"#utility.yul\":10880:11303   */\n      swap4\n      swap3\n      pop\n      pop\n      pop\n      jump\t// out\n        /* \"#utility.yul\":11322:11660   */\n    tag_219:\n        /* \"#utility.yul\":11377:11382   */\n      0x00\n        /* \"#utility.yul\":11426:11429   */\n      dup3\n        /* \"#utility.yul\":11419:11423   */\n      0x1f\n        /* \"#utility.yul\":11411:11417   */\n      dup4\n        /* \"#utility.yul\":11407:11424   */\n      add\n        /* \"#utility.yul\":11403:11430   */\n      slt\n        /* \"#utility.yul\":11393:11515   */\n      tag_359\n      jumpi\n        /* \"#utility.yul\":11434:11513   */\n      tag_360\n      tag_190\n      jump\t// in\n    tag_360:\n        /* \"#utility.yul\":11393:11515   */\n    tag_359:\n        /* \"#utility.yul\":11551:11557   */\n      dup2\n        /* \"#utility.yul\":11538:11558   */\n      calldataload\n        /* \"#utility.yul\":11576:11654   */\n      tag_361\n        /* \"#utility.yul\":11650:11653   */\n      dup5\n        /* \"#utility.yul\":11642:11648   */\n      dup3\n        /* \"#utility.yul\":11635:11639   */\n      0x20\n        /* \"#utility.yul\":11627:11633   */\n      dup7\n        /* \"#utility.yul\":11623:11640   */\n      add\n        /* \"#utility.yul\":11576:11654   */\n      tag_218\n      jump\t// in\n    tag_361:\n        /* \"#utility.yul\":11567:11654   */\n      swap2\n      pop\n        /* \"#utility.yul\":11383:11660   */\n      pop\n        /* \"#utility.yul\":11322:11660   */\n      swap3\n      swap2\n      pop\n      pop\n      jump\t// out\n        /* \"#utility.yul\":11666:12318   */\n    tag_57:\n        /* \"#utility.yul\":11743:11749   */\n      0x00\n        /* \"#utility.yul\":11751:11757   */\n      dup1\n        /* \"#utility.yul\":11800:11802   */\n      0x40\n        /* \"#utility.yul\":11788:11797   */\n      dup4\n        /* \"#utility.yul\":11779:11786   */\n      dup6\n        /* \"#utility.yul\":11775:11798   */\n      sub\n        /* \"#utility.yul\":11771:11803   */\n      slt\n        /* \"#utility.yul\":11768:11887   */\n      iszero\n      tag_363\n      jumpi\n        /* \"#utility.yul\":11806:11885   */\n      tag_364\n      tag_181\n      jump\t// in\n    tag_364:\n        /* \"#utility.yul\":11768:11887   */\n    tag_363:\n        /* \"#utility.yul\":11954:11955   */\n      0x00\n        /* \"#utility.yul\":11943:11952   */\n      dup4\n        /* \"#utility.yul\":11939:11956   */\n      add\n        /* \"#utility.yul\":11926:11957   */\n      calldataload\n        /* \"#utility.yul\":11984:12002   */\n      0xffffffffffffffff\n        /* \"#utility.yul\":11976:11982   */\n      dup2\n        /* \"#utility.yul\":11973:12003   */\n      gt\n        /* \"#utility.yul\":11970:12087   */\n      iszero\n      tag_365\n      jumpi\n        /* \"#utility.yul\":12006:12085   */\n      tag_366\n      tag_182\n      jump\t// in\n    tag_366:\n        /* \"#utility.yul\":11970:12087   */\n    tag_365:\n        /* \"#utility.yul\":12111:12173   */\n      tag_367\n        /* \"#utility.yul\":12165:12172   */\n      dup6\n        /* \"#utility.yul\":12156:12162   */\n      dup3\n        /* \"#utility.yul\":12145:12154   */\n      dup7\n        /* \"#utility.yul\":12141:12163   */\n      add\n        /* \"#utility.yul\":12111:12173   */\n      tag_219\n      jump\t// in\n    tag_367:\n        /* \"#utility.yul\":12101:12173   */\n      swap3\n      pop\n        /* \"#utility.yul\":11897:12183   */\n      pop\n        /* \"#utility.yul\":12222:12224   */\n      0x20\n        /* \"#utility.yul\":12248:12301   */\n      tag_368\n        /* \"#utility.yul\":12293:12300   */\n      dup6\n        /* \"#utility.yul\":12284:12290   */\n      dup3\n        /* \"#utility.yul\":12273:12282   */\n      dup7\n        /* \"#utility.yul\":12269:12291   */\n      add\n        /* \"#utility.yul\":12248:12301   */\n      tag_189\n      jump\t// in\n    tag_368:\n        /* \"#utility.yul\":12238:12301   */\n      swap2\n      pop\n        /* \"#utility.yul\":12193:12311   */\n      pop\n        /* \"#utility.yul\":11666:12318   */\n      swap3\n      pop\n      swap3\n      swap1\n      pop\n      jump\t// out\n        /* \"#utility.yul\":12324:12465   */\n    tag_220:\n        /* \"#utility.yul\":12389:12398   */\n      0x00\n        /* \"#utility.yul\":12422:12459   */\n      tag_370\n        /* \"#utility.yul\":12453:12458   */\n      dup3\n        /* \"#utility.yul\":12422:12459   */\n      tag_207\n      jump\t// in\n    tag_370:\n        /* \"#utility.yul\":12409:12459   */\n      swap1\n      pop\n        /* \"#utility.yul\":12324:12465   */\n      swap2\n      swap1\n      pop\n      jump\t// out\n        /* \"#utility.yul\":12471:12632   */\n    tag_221:\n        /* \"#utility.yul\":12573:12625   */\n      tag_372\n        /* \"#utility.yul\":12619:12624   */\n      dup2\n        /* \"#utility.yul\":12573:12625   */\n      tag_220\n      jump\t// in\n    tag_372:\n        /* \"#utility.yul\":12568:12571   */\n      dup3\n        /* \"#utility.yul\":12561:12626   */\n      mstore\n        /* \"#utility.yul\":12471:12632   */\n      pop\n      pop\n      jump\t// out\n        /* \"#utility.yul\":12638:12890   */\n    tag_63:\n        /* \"#utility.yul\":12746:12750   */\n      0x00\n        /* \"#utility.yul\":12784:12786   */\n      0x20\n        /* \"#utility.yul\":12773:12782   */\n      dup3\n        /* \"#utility.yul\":12769:12787   */\n      add\n        /* \"#utility.yul\":12761:12787   */\n      swap1\n      pop\n        /* \"#utility.yul\":12797:12883   */\n      tag_374\n        /* \"#utility.yul\":12880:12881   */\n      0x00\n        /* \"#utility.yul\":12869:12878   */\n      dup4\n        /* \"#utility.yul\":12865:12882   */\n      add\n        /* \"#utility.yul\":12856:12862   */\n      dup5\n        /* \"#utility.yul\":12797:12883   */\n      tag_221\n      jump\t// in\n    tag_374:\n        /* \"#utility.yul\":12638:12890   */\n      swap3\n      swap2\n      pop\n      pop\n      jump\t// out\n        /* \"#utility.yul\":12896:12986   */\n    tag_222:\n        /* \"#utility.yul\":12930:12937   */\n      0x00\n        /* \"#utility.yul\":12973:12978   */\n      dup2\n        /* \"#utility.yul\":12966:12979   */\n      iszero\n        /* \"#utility.yul\":12959:12980   */\n      iszero\n        /* \"#utility.yul\":12948:12980   */\n      swap1\n      pop\n        /* \"#utility.yul\":12896:12986   */\n      swap2\n      swap1\n      pop\n      jump\t// out\n        /* \"#utility.yul\":12992:13101   */\n    tag_223:\n        /* \"#utility.yul\":13073:13094   */\n      tag_377\n        /* \"#utility.yul\":13088:13093   */\n      dup2\n        /* \"#utility.yul\":13073:13094   */\n      tag_222\n      jump\t// in\n    tag_377:\n        /* \"#utility.yul\":13068:13071   */\n      dup3\n        /* \"#utility.yul\":13061:13095   */\n      mstore\n        /* \"#utility.yul\":12992:13101   */\n      pop\n      pop\n      jump\t// out\n        /* \"#utility.yul\":13107:13317   */\n    tag_78:\n        /* \"#utility.yul\":13194:13198   */\n      0x00\n        /* \"#utility.yul\":13232:13234   */\n      0x20\n        /* \"#utility.yul\":13221:13230   */\n      dup3\n        /* \"#utility.yul\":13217:13235   */\n      add\n        /* \"#utility.yul\":13209:13235   */\n      swap1\n      pop\n        /* \"#utility.yul\":13245:13310   */\n      tag_379\n        /* \"#utility.yul\":13307:13308   */\n      0x00\n        /* \"#utility.yul\":13296:13305   */\n      dup4\n        /* \"#utility.yul\":13292:13309   */\n      add\n        /* \"#utility.yul\":13283:13289   */\n      dup5\n        /* \"#utility.yul\":13245:13310   */\n      tag_223\n      jump\t// in\n    tag_379:\n        /* \"#utility.yul\":13107:13317   */\n      swap3\n      swap2\n      pop\n      pop\n      jump\t// out\n        /* \"#utility.yul\":13323:13492   */\n    tag_224:\n        /* \"#utility.yul\":13407:13418   */\n      0x00\n        /* \"#utility.yul\":13441:13447   */\n      dup3\n        /* \"#utility.yul\":13436:13439   */\n      dup3\n        /* \"#utility.yul\":13429:13448   */\n      mstore\n        /* \"#utility.yul\":13481:13485   */\n      0x20\n        /* \"#utility.yul\":13476:13479   */\n      dup3\n        /* \"#utility.yul\":13472:13486   */\n      add\n        /* \"#utility.yul\":13457:13486   */\n      swap1\n      pop\n        /* \"#utility.yul\":13323:13492   */\n      swap3\n      swap2\n      pop\n      pop\n      jump\t// out\n        /* \"#utility.yul\":13498:13676   */\n    tag_225:\n        /* \"#utility.yul\":13638:13668   */\n      0x7072696365206d7573742062652067726561746572207468616e203000000000\n        /* \"#utility.yul\":13634:13635   */\n      0x00\n        /* \"#utility.yul\":13626:13632   */\n      dup3\n        /* \"#utility.yul\":13622:13636   */\n      add\n        /* \"#utility.yul\":13615:13669   */\n      mstore\n        /* \"#utility.yul\":13498:13676   */\n      pop\n      jump\t// out\n        /* \"#utility.yul\":13682:14048   */\n    tag_226:\n        /* \"#utility.yul\":13824:13827   */\n      0x00\n        /* \"#utility.yul\":13845:13912   */\n      tag_383\n        /* \"#utility.yul\":13909:13911   */\n      0x1c\n        /* \"#utility.yul\":13904:13907   */\n      dup4\n        /* \"#utility.yul\":13845:13912   */\n      tag_224\n      jump\t// in\n    tag_383:\n        /* \"#utility.yul\":13838:13912   */\n      swap2\n      pop\n        /* \"#utility.yul\":13921:14014   */\n      tag_384\n        /* \"#utility.yul\":14010:14013   */\n      dup3\n        /* \"#utility.yul\":13921:14014   */\n      tag_225\n      jump\t// in\n    tag_384:\n        /* \"#utility.yul\":14039:14041   */\n      0x20\n        /* \"#utility.yul\":14034:14037   */\n      dup3\n        /* \"#utility.yul\":14030:14042   */\n      add\n        /* \"#utility.yul\":14023:14042   */\n      swap1\n      pop\n        /* \"#utility.yul\":13682:14048   */\n      swap2\n      swap1\n      pop\n      jump\t// out\n        /* \"#utility.yul\":14054:14473   */\n    tag_83:\n        /* \"#utility.yul\":14220:14224   */\n      0x00\n        /* \"#utility.yul\":14258:14260   */\n      0x20\n        /* \"#utility.yul\":14247:14256   */\n      dup3\n        /* \"#utility.yul\":14243:14261   */\n      add\n        /* \"#utility.yul\":14235:14261   */\n      swap1\n      pop\n        /* \"#utility.yul\":14307:14316   */\n      dup2\n        /* \"#utility.yul\":14301:14305   */\n      dup2\n        /* \"#utility.yul\":14297:14317   */\n      sub\n        /* \"#utility.yul\":14293:14294   */\n      0x00\n        /* \"#utility.yul\":14282:14291   */\n      dup4\n        /* \"#utility.yul\":14278:14295   */\n      add\n        /* \"#utility.yul\":14271:14318   */\n      mstore\n        /* \"#utility.yul\":14335:14466   */\n      tag_386\n        /* \"#utility.yul\":14461:14465   */\n      dup2\n        /* \"#utility.yul\":14335:14466   */\n      tag_226\n      jump\t// in\n    tag_386:\n        /* \"#utility.yul\":14327:14466   */\n      swap1\n      pop\n        /* \"#utility.yul\":14054:14473   */\n      swap2\n      swap1\n      pop\n      jump\t// out\n        /* \"#utility.yul\":14479:14659   */\n    tag_227:\n        /* \"#utility.yul\":14527:14604   */\n      0x4e487b7100000000000000000000000000000000000000000000000000000000\n        /* \"#utility.yul\":14524:14525   */\n      0x00\n        /* \"#utility.yul\":14517:14605   */\n      mstore\n        /* \"#utility.yul\":14624:14628   */\n      0x11\n        /* \"#utility.yul\":14621:14622   */\n      0x04\n        /* \"#utility.yul\":14614:14629   */\n      mstore\n        /* \"#utility.yul\":14648:14652   */\n      0x24\n        /* \"#utility.yul\":14645:14646   */\n      0x00\n        /* \"#utility.yul\":14638:14653   */\n      revert\n        /* \"#utility.yul\":14665:14859   */\n    tag_86:\n        /* \"#utility.yul\":14705:14709   */\n      0x00\n        /* \"#utility.yul\":14725:14745   */\n      tag_389\n        /* \"#utility.yul\":14743:14744   */\n      dup3\n        /* \"#utility.yul\":14725:14745   */\n      tag_187\n      jump\t// in\n    tag_389:\n        /* \"#utility.yul\":14720:14745   */\n      swap2\n      pop\n        /* \"#utility.yul\":14759:14779   */\n      tag_390\n        /* \"#utility.yul\":14777:14778   */\n      dup4\n        /* \"#utility.yul\":14759:14779   */\n      tag_187\n      jump\t// in\n    tag_390:\n        /* \"#utility.yul\":14754:14779   */\n      swap3\n      pop\n        /* \"#utility.yul\":14803:14804   */\n      dup3\n        /* \"#utility.yul\":14800:14801   */\n      dup3\n        /* \"#utility.yul\":14796:14805   */\n      sub\n        /* \"#utility.yul\":14788:14805   */\n      swap1\n      pop\n        /* \"#utility.yul\":14827:14828   */\n      dup2\n        /* \"#utility.yul\":14821:14825   */\n      dup2\n        /* \"#utility.yul\":14818:14829   */\n      gt\n        /* \"#utility.yul\":14815:14852   */\n      iszero\n      tag_391\n      jumpi\n        /* \"#utility.yul\":14832:14850   */\n      tag_392\n      tag_227\n      jump\t// in\n    tag_392:\n        /* \"#utility.yul\":14815:14852   */\n    tag_391:\n        /* \"#utility.yul\":14665:14859   */\n      swap3\n      swap2\n      pop\n      pop\n      jump\t// out\n        /* \"#utility.yul\":14865:15307   */\n    tag_88:\n        /* \"#utility.yul\":15014:15018   */\n      0x00\n        /* \"#utility.yul\":15052:15054   */\n      0x60\n        /* \"#utility.yul\":15041:15050   */\n      dup3\n        /* \"#utility.yul\":15037:15055   */\n      add\n        /* \"#utility.yul\":15029:15055   */\n      swap1\n      pop\n        /* \"#utility.yul\":15065:15136   */\n      tag_394\n        /* \"#utility.yul\":15133:15134   */\n      0x00\n        /* \"#utility.yul\":15122:15131   */\n      dup4\n        /* \"#utility.yul\":15118:15135   */\n      add\n        /* \"#utility.yul\":15109:15115   */\n      dup7\n        /* \"#utility.yul\":15065:15136   */\n      tag_211\n      jump\t// in\n    tag_394:\n        /* \"#utility.yul\":15146:15218   */\n      tag_395\n        /* \"#utility.yul\":15214:15216   */\n      0x20\n        /* \"#utility.yul\":15203:15212   */\n      dup4\n        /* \"#utility.yul\":15199:15217   */\n      add\n        /* \"#utility.yul\":15190:15196   */\n      dup6\n        /* \"#utility.yul\":15146:15218   */\n      tag_210\n      jump\t// in\n    tag_395:\n        /* \"#utility.yul\":15228:15300   */\n      tag_396\n        /* \"#utility.yul\":15296:15298   */\n      0x40\n        /* \"#utility.yul\":15285:15294   */\n      dup4\n        /* \"#utility.yul\":15281:15299   */\n      add\n        /* \"#utility.yul\":15272:15278   */\n      dup5\n        /* \"#utility.yul\":15228:15300   */\n      tag_210\n      jump\t// in\n    tag_396:\n        /* \"#utility.yul\":14865:15307   */\n      swap5\n      swap4\n      pop\n      pop\n      pop\n      pop\n      jump\t// out\n        /* \"#utility.yul\":15313:15473   */\n    tag_228:\n        /* \"#utility.yul\":15453:15465   */\n      0x6e6f742073656c6c657200000000000000000000000000000000000000000000\n        /* \"#utility.yul\":15449:15450   */\n      0x00\n        /* \"#utility.yul\":15441:15447   */\n      dup3\n        /* \"#utility.yul\":15437:15451   */\n      add\n        /* \"#utility.yul\":15430:15466   */\n      mstore\n        /* \"#utility.yul\":15313:15473   */\n      pop\n      jump\t// out\n        /* \"#utility.yul\":15479:15845   */\n    tag_229:\n        /* \"#utility.yul\":15621:15624   */\n      0x00\n        /* \"#utility.yul\":15642:15709   */\n      tag_399\n        /* \"#utility.yul\":15706:15708   */\n      0x0a\n        /* \"#utility.yul\":15701:15704   */\n      dup4\n        /* \"#utility.yul\":15642:15709   */\n      tag_224\n      jump\t// in\n    tag_399:\n        /* \"#utility.yul\":15635:15709   */\n      swap2\n      pop\n        /* \"#utility.yul\":15718:15811   */\n      tag_400\n        /* \"#utility.yul\":15807:15810   */\n      dup3\n        /* \"#utility.yul\":15718:15811   */\n      tag_228\n      jump\t// in\n    tag_400:\n        /* \"#utility.yul\":15836:15838   */\n      0x20\n        /* \"#utility.yul\":15831:15834   */\n      dup3\n        /* \"#utility.yul\":15827:15839   */\n      add\n        /* \"#utility.yul\":15820:15839   */\n      swap1\n      pop\n        /* \"#utility.yul\":15479:15845   */\n      swap2\n      swap1\n      pop\n      jump\t// out\n        /* \"#utility.yul\":15851:16270   */\n    tag_92:\n        /* \"#utility.yul\":16017:16021   */\n      0x00\n        /* \"#utility.yul\":16055:16057   */\n      0x20\n        /* \"#utility.yul\":16044:16053   */\n      dup3\n        /* \"#utility.yul\":16040:16058   */\n      add\n        /* \"#utility.yul\":16032:16058   */\n      swap1\n      pop\n        /* \"#utility.yul\":16104:16113   */\n      dup2\n        /* \"#utility.yul\":16098:16102   */\n      dup2\n        /* \"#utility.yul\":16094:16114   */\n      sub\n        /* \"#utility.yul\":16090:16091   */\n      0x00\n        /* \"#utility.yul\":16079:16088   */\n      dup4\n        /* \"#utility.yul\":16075:16092   */\n      add\n        /* \"#utility.yul\":16068:16115   */\n      mstore\n        /* \"#utility.yul\":16132:16263   */\n      tag_402\n        /* \"#utility.yul\":16258:16262   */\n      dup2\n        /* \"#utility.yul\":16132:16263   */\n      tag_229\n      jump\t// in\n    tag_402:\n        /* \"#utility.yul\":16124:16263   */\n      swap1\n      pop\n        /* \"#utility.yul\":15851:16270   */\n      swap2\n      swap1\n      pop\n      jump\t// out\n        /* \"#utility.yul\":16276:16718   */\n    tag_94:\n        /* \"#utility.yul\":16425:16429   */\n      0x00\n        /* \"#utility.yul\":16463:16465   */\n      0x60\n        /* \"#utility.yul\":16452:16461   */\n      dup3\n        /* \"#utility.yul\":16448:16466   */\n      add\n        /* \"#utility.yul\":16440:16466   */\n      swap1\n      pop\n        /* \"#utility.yul\":16476:16547   */\n      tag_404\n        /* \"#utility.yul\":16544:16545   */\n      0x00\n        /* \"#utility.yul\":16533:16542   */\n      dup4\n        /* \"#utility.yul\":16529:16546   */\n      add\n        /* \"#utility.yul\":16520:16526   */\n      dup7\n        /* \"#utility.yul\":16476:16547   */\n      tag_211\n      jump\t// in\n    tag_404:\n        /* \"#utility.yul\":16557:16629   */\n      tag_405\n        /* \"#utility.yul\":16625:16627   */\n      0x20\n        /* \"#utility.yul\":16614:16623   */\n      dup4\n        /* \"#utility.yul\":16610:16628   */\n      add\n        /* \"#utility.yul\":16601:16607   */\n      dup6\n        /* \"#utility.yul\":16557:16629   */\n      tag_211\n      jump\t// in\n    tag_405:\n        /* \"#utility.yul\":16639:16711   */\n      tag_406\n        /* \"#utility.yul\":16707:16709   */\n      0x40\n        /* \"#utility.yul\":16696:16705   */\n      dup4\n        /* \"#utility.yul\":16692:16710   */\n      add\n        /* \"#utility.yul\":16683:16689   */\n      dup5\n        /* \"#utility.yul\":16639:16711   */\n      tag_210\n      jump\t// in\n    tag_406:\n        /* \"#utility.yul\":16276:16718   */\n      swap5\n      swap4\n      pop\n      pop\n      pop\n      pop\n      jump\t// out\n        /* \"#utility.yul\":16724:17056   */\n    tag_101:\n        /* \"#utility.yul\":16845:16849   */\n      0x00\n        /* \"#utility.yul\":16883:16885   */\n      0x40\n        /* \"#utility.yul\":16872:16881   */\n      dup3\n        /* \"#utility.yul\":16868:16886   */\n      add\n        /* \"#utility.yul\":16860:16886   */\n      swap1\n      pop\n        /* \"#utility.yul\":16896:16967   */\n      tag_408\n        /* \"#utility.yul\":16964:16965   */\n      0x00\n        /* \"#utility.yul\":16953:16962   */\n      dup4\n        /* \"#utility.yul\":16949:16966   */\n      add\n        /* \"#utility.yul\":16940:16946   */\n      dup6\n        /* \"#utility.yul\":16896:16967   */\n      tag_211\n      jump\t// in\n    tag_408:\n        /* \"#utility.yul\":16977:17049   */\n      tag_409\n        /* \"#utility.yul\":17045:17047   */\n      0x20\n        /* \"#utility.yul\":17034:17043   */\n      dup4\n        /* \"#utility.yul\":17030:17048   */\n      add\n        /* \"#utility.yul\":17021:17027   */\n      dup5\n        /* \"#utility.yul\":16977:17049   */\n      tag_210\n      jump\t// in\n    tag_409:\n        /* \"#utility.yul\":16724:17056   */\n      swap4\n      swap3\n      pop\n      pop\n      pop\n      jump\t// out\n        /* \"#utility.yul\":17062:17242   */\n    tag_115:\n        /* \"#utility.yul\":17110:17187   */\n      0x4e487b7100000000000000000000000000000000000000000000000000000000\n        /* \"#utility.yul\":17107:17108   */\n      0x00\n        /* \"#utility.yul\":17100:17188   */\n      mstore\n        /* \"#utility.yul\":17207:17211   */\n      0x32\n        /* \"#utility.yul\":17204:17205   */\n      0x04\n        /* \"#utility.yul\":17197:17212   */\n      mstore\n        /* \"#utility.yul\":17231:17235   */\n      0x24\n        /* \"#utility.yul\":17228:17229   */\n      0x00\n        /* \"#utility.yul\":17221:17236   */\n      revert\n        /* \"#utility.yul\":17248:17481   */\n    tag_124:\n        /* \"#utility.yul\":17287:17290   */\n      0x00\n        /* \"#utility.yul\":17310:17334   */\n      tag_412\n        /* \"#utility.yul\":17328:17333   */\n      dup3\n        /* \"#utility.yul\":17310:17334   */\n      tag_187\n      jump\t// in\n    tag_412:\n        /* \"#utility.yul\":17301:17334   */\n      swap2\n      pop\n        /* \"#utility.yul\":17356:17422   */\n      0xffffffffffffffffffffffffffffffffffffffffffffffffffffffffffffffff\n        /* \"#utility.yul\":17349:17354   */\n      dup3\n        /* \"#utility.yul\":17346:17423   */\n      sub\n        /* \"#utility.yul\":17343:17446   */\n      tag_413\n      jumpi\n        /* \"#utility.yul\":17426:17444   */\n      tag_414\n      tag_227\n      jump\t// in\n    tag_414:\n        /* \"#utility.yul\":17343:17446   */\n    tag_413:\n        /* \"#utility.yul\":17473:17474   */\n      0x01\n        /* \"#utility.yul\":17466:17471   */\n      dup3\n        /* \"#utility.yul\":17462:17475   */\n      add\n        /* \"#utility.yul\":17455:17475   */\n      swap1\n      pop\n        /* \"#utility.yul\":17248:17481   */\n      swap2\n      swap1\n      pop\n      jump\t// out\n        /* \"#utility.yul\":17487:18040   */\n    tag_135:\n        /* \"#utility.yul\":17664:17668   */\n      0x00\n        /* \"#utility.yul\":17702:17705   */\n      0x80\n        /* \"#utility.yul\":17691:17700   */\n      dup3\n        /* \"#utility.yul\":17687:17706   */\n      add\n        /* \"#utility.yul\":17679:17706   */\n      swap1\n      pop\n        /* \"#utility.yul\":17716:17787   */\n      tag_416\n        /* \"#utility.yul\":17784:17785   */\n      0x00\n        /* \"#utility.yul\":17773:17782   */\n      dup4\n        /* \"#utility.yul\":17769:17786   */\n      add\n        /* \"#utility.yul\":17760:17766   */\n      dup8\n        /* \"#utility.yul\":17716:17787   */\n      tag_211\n      jump\t// in\n    tag_416:\n        /* \"#utility.yul\":17797:17869   */\n      tag_417\n        /* \"#utility.yul\":17865:17867   */\n      0x20\n        /* \"#utility.yul\":17854:17863   */\n      dup4\n        /* \"#utility.yul\":17850:17868   */\n      add\n        /* \"#utility.yul\":17841:17847   */\n      dup7\n        /* \"#utility.yul\":17797:17869   */\n      tag_210\n      jump\t// in\n    tag_417:\n        /* \"#utility.yul\":17879:17951   */\n      tag_418\n        /* \"#utility.yul\":17947:17949   */\n      0x40\n        /* \"#utility.yul\":17936:17945   */\n      dup4\n        /* \"#utility.yul\":17932:17950   */\n      add\n        /* \"#utility.yul\":17923:17929   */\n      dup6\n        /* \"#utility.yul\":17879:17951   */\n      tag_210\n      jump\t// in\n    tag_418:\n        /* \"#utility.yul\":17961:18033   */\n      tag_419\n        /* \"#utility.yul\":18029:18031   */\n      0x60\n        /* \"#utility.yul\":18018:18027   */\n      dup4\n        /* \"#utility.yul\":18014:18032   */\n      add\n        /* \"#utility.yul\":18005:18011   */\n      dup5\n        /* \"#utility.yul\":17961:18033   */\n      tag_210\n      jump\t// in\n    tag_419:\n        /* \"#utility.yul\":17487:18040   */\n      swap6\n      swap5\n      pop\n      pop\n      pop\n      pop\n      pop\n      jump\t// out\n        /* \"#utility.yul\":18046:18237   */\n    tag_138:\n        /* \"#utility.yul\":18086:18089   */\n      0x00\n        /* \"#utility.yul\":18105:18125   */\n      tag_421\n        /* \"#utility.yul\":18123:18124   */\n      dup3\n        /* \"#utility.yul\":18105:18125   */\n      tag_187\n      jump\t// in\n    tag_421:\n        /* \"#utility.yul\":18100:18125   */\n      swap2\n      pop\n        /* \"#utility.yul\":18139:18159   */\n      tag_422\n        /* \"#utility.yul\":18157:18158   */\n      dup4\n        /* \"#utility.yul\":18139:18159   */\n      tag_187\n      jump\t// in\n    tag_422:\n        /* \"#utility.yul\":18134:18159   */\n      swap3\n      pop\n        /* \"#utility.yul\":18182:18183   */\n      dup3\n        /* \"#utility.yul\":18179:18180   */\n      dup3\n        /* \"#utility.yul\":18175:18184   */\n      add\n        /* \"#utility.yul\":18168:18184   */\n      swap1\n      pop\n        /* \"#utility.yul\":18203:18206   */\n      dup1\n        /* \"#utility.yul\":18200:18201   */\n      dup3\n        /* \"#utility.yul\":18197:18207   */\n      gt\n        /* \"#utility.yul\":18194:18230   */\n      iszero\n      tag_423\n      jumpi\n        /* \"#utility.yul\":18210:18228   */\n      tag_424\n      tag_227\n      jump\t// in\n    tag_424:\n        /* \"#utility.yul\":18194:18230   */\n    tag_423:\n        /* \"#utility.yul\":18046:18237   */\n      swap3\n      swap2\n      pop\n      pop\n      jump\t// out\n        /* \"#utility.yul\":18243:18419   */\n    tag_230:\n        /* \"#utility.yul\":18383:18411   */\n      0x4d61726b65743a20746f55696e743235365f6f766572666c6f77000000000000\n        /* \"#utility.yul\":18379:18380   */\n      0x00\n        /* \"#utility.yul\":18371:18377   */\n      dup3\n        /* \"#utility.yul\":18367:18381   */\n      add\n        /* \"#utility.yul\":18360:18412   */\n      mstore\n        /* \"#utility.yul\":18243:18419   */\n      pop\n      jump\t// out\n        /* \"#utility.yul\":18425:18791   */\n    tag_231:\n        /* \"#utility.yul\":18567:18570   */\n      0x00\n        /* \"#utility.yul\":18588:18655   */\n      tag_427\n        /* \"#utility.yul\":18652:18654   */\n      0x1a\n        /* \"#utility.yul\":18647:18650   */\n      dup4\n        /* \"#utility.yul\":18588:18655   */\n      tag_224\n      jump\t// in\n    tag_427:\n        /* \"#utility.yul\":18581:18655   */\n      swap2\n      pop\n        /* \"#utility.yul\":18664:18757   */\n      tag_428\n        /* \"#utility.yul\":18753:18756   */\n      dup3\n        /* \"#utility.yul\":18664:18757   */\n      tag_230\n      jump\t// in\n    tag_428:\n        /* \"#utility.yul\":18782:18784   */\n      0x20\n        /* \"#utility.yul\":18777:18780   */\n      dup3\n        /* \"#utility.yul\":18773:18785   */\n      add\n        /* \"#utility.yul\":18766:18785   */\n      swap1\n      pop\n        /* \"#utility.yul\":18425:18791   */\n      swap2\n      swap1\n      pop\n      jump\t// out\n        /* \"#utility.yul\":18797:19216   */\n    tag_141:\n        /* \"#utility.yul\":18963:18967   */\n      0x00\n        /* \"#utility.yul\":19001:19003   */\n      0x20\n        /* \"#utility.yul\":18990:18999   */\n      dup3\n        /* \"#utility.yul\":18986:19004   */\n      add\n        /* \"#utility.yul\":18978:19004   */\n      swap1\n      pop\n        /* \"#utility.yul\":19050:19059   */\n      dup2\n        /* \"#utility.yul\":19044:19048   */\n      dup2\n        /* \"#utility.yul\":19040:19060   */\n      sub\n        /* \"#utility.yul\":19036:19037   */\n      0x00\n        /* \"#utility.yul\":19025:19034   */\n      dup4\n        /* \"#utility.yul\":19021:19038   */\n      add\n        /* \"#utility.yul\":19014:19061   */\n      mstore\n        /* \"#utility.yul\":19078:19209   */\n      tag_430\n        /* \"#utility.yul\":19204:19208   */\n      dup2\n        /* \"#utility.yul\":19078:19209   */\n      tag_231\n      jump\t// in\n    tag_430:\n        /* \"#utility.yul\":19070:19209   */\n      swap1\n      pop\n        /* \"#utility.yul\":18797:19216   */\n      swap2\n      swap1\n      pop\n      jump\t// out\n        /* \"#utility.yul\":19222:19401   */\n    tag_232:\n        /* \"#utility.yul\":19362:19393   */\n      0x4d61726b65743a20746f55696e743235365f6f75744f66426f756e6473000000\n        /* \"#utility.yul\":19358:19359   */\n      0x00\n        /* \"#utility.yul\":19350:19356   */\n      dup3\n        /* \"#utility.yul\":19346:19360   */\n      add\n        /* \"#utility.yul\":19339:19394   */\n      mstore\n        /* \"#utility.yul\":19222:19401   */\n      pop\n      jump\t// out\n        /* \"#utility.yul\":19407:19773   */\n    tag_233:\n        /* \"#utility.yul\":19549:19552   */\n      0x00\n        /* \"#utility.yul\":19570:19637   */\n      tag_433\n        /* \"#utility.yul\":19634:19636   */\n      0x1d\n        /* \"#utility.yul\":19629:19632   */\n      dup4\n        /* \"#utility.yul\":19570:19637   */\n      tag_224\n      jump\t// in\n    tag_433:\n        /* \"#utility.yul\":19563:19637   */\n      swap2\n      pop\n        /* \"#utility.yul\":19646:19739   */\n      tag_434\n        /* \"#utility.yul\":19735:19738   */\n      dup3\n        /* \"#utility.yul\":19646:19739   */\n      tag_232\n      jump\t// in\n    tag_434:\n        /* \"#utility.yul\":19764:19766   */\n      0x20\n        /* \"#utility.yul\":19759:19762   */\n      dup3\n        /* \"#utility.yul\":19755:19767   */\n      add\n        /* \"#utility.yul\":19748:19767   */\n      swap1\n      pop\n        /* \"#utility.yul\":19407:19773   */\n      swap2\n      swap1\n      pop\n      jump\t// out\n        /* \"#utility.yul\":19779:20198   */\n    tag_145:\n        /* \"#utility.yul\":19945:19949   */\n      0x00\n        /* \"#utility.yul\":19983:19985   */\n      0x20\n        /* \"#utility.yul\":19972:19981   */\n      dup3\n        /* \"#utility.yul\":19968:19986   */\n      add\n        /* \"#utility.yul\":19960:19986   */\n      swap1\n      pop\n        /* \"#utility.yul\":20032:20041   */\n      dup2\n        /* \"#utility.yul\":20026:20030   */\n      dup2\n        /* \"#utility.yul\":20022:20042   */\n      sub\n        /* \"#utility.yul\":20018:20019   */\n      0x00\n        /* \"#utility.yul\":20007:20016   */\n      dup4\n        /* \"#utility.yul\":20003:20020   */\n      add\n        /* \"#utility.yul\":19996:20043   */\n      mstore\n        /* \"#utility.yul\":20060:20191   */\n      tag_436\n        /* \"#utility.yul\":20186:20190   */\n      dup2\n        /* \"#utility.yul\":20060:20191   */\n      tag_233\n      jump\t// in\n    tag_436:\n        /* \"#utility.yul\":20052:20191   */\n      swap1\n      pop\n        /* \"#utility.yul\":19779:20198   */\n      swap2\n      swap1\n      pop\n      jump\t// out\n        /* \"#utility.yul\":20204:20320   */\n    tag_234:\n        /* \"#utility.yul\":20274:20295   */\n      tag_438\n        /* \"#utility.yul\":20289:20294   */\n      dup2\n        /* \"#utility.yul\":20274:20295   */\n      tag_222\n      jump\t// in\n    tag_438:\n        /* \"#utility.yul\":20267:20272   */\n      dup2\n        /* \"#utility.yul\":20264:20296   */\n      eq\n        /* \"#utility.yul\":20254:20314   */\n      tag_439\n      jumpi\n        /* \"#utility.yul\":20310:20311   */\n      0x00\n        /* \"#utility.yul\":20307:20308   */\n      dup1\n        /* \"#utility.yul\":20300:20312   */\n      revert\n        /* \"#utility.yul\":20254:20314   */\n    tag_439:\n        /* \"#utility.yul\":20204:20320   */\n      pop\n      jump\t// out\n        /* \"#utility.yul\":20326:20463   */\n    tag_235:\n        /* \"#utility.yul\":20380:20385   */\n      0x00\n        /* \"#utility.yul\":20411:20417   */\n      dup2\n        /* \"#utility.yul\":20405:20418   */\n      mload\n        /* \"#utility.yul\":20396:20418   */\n      swap1\n      pop\n        /* \"#utility.yul\":20427:20457   */\n      tag_441\n        /* \"#utility.yul\":20451:20456   */\n      dup2\n        /* \"#utility.yul\":20427:20457   */\n      tag_234\n      jump\t// in\n    tag_441:\n        /* \"#utility.yul\":20326:20463   */\n      swap3\n      swap2\n      pop\n      pop\n      jump\t// out\n        /* \"#utility.yul\":20469:20814   */\n    tag_151:\n        /* \"#utility.yul\":20536:20542   */\n      0x00\n        /* \"#utility.yul\":20585:20587   */\n      0x20\n        /* \"#utility.yul\":20573:20582   */\n      dup3\n        /* \"#utility.yul\":20564:20571   */\n      dup5\n        /* \"#utility.yul\":20560:20583   */\n      sub\n        /* \"#utility.yul\":20556:20588   */\n      slt\n        /* \"#utility.yul\":20553:20672   */\n      iszero\n      tag_443\n      jumpi\n        /* \"#utility.yul\":20591:20670   */\n      tag_444\n      tag_181\n      jump\t// in\n    tag_444:\n        /* \"#utility.yul\":20553:20672   */\n    tag_443:\n        /* \"#utility.yul\":20711:20712   */\n      0x00\n        /* \"#utility.yul\":20736:20797   */\n      tag_445\n        /* \"#utility.yul\":20789:20796   */\n      dup5\n        /* \"#utility.yul\":20780:20786   */\n      dup3\n        /* \"#utility.yul\":20769:20778   */\n      dup6\n        /* \"#utility.yul\":20765:20787   */\n      add\n        /* \"#utility.yul\":20736:20797   */\n      tag_235\n      jump\t// in\n    tag_445:\n        /* \"#utility.yul\":20726:20797   */\n      swap2\n      pop\n        /* \"#utility.yul\":20682:20807   */\n      pop\n        /* \"#utility.yul\":20469:20814   */\n      swap3\n      swap2\n      pop\n      pop\n      jump\t// out\n        /* \"#utility.yul\":20820:20985   */\n    tag_236:\n        /* \"#utility.yul\":20960:20977   */\n      0x7472616e73666572206661696c65640000000000000000000000000000000000\n        /* \"#utility.yul\":20956:20957   */\n      0x00\n        /* \"#utility.yul\":20948:20954   */\n      dup3\n        /* \"#utility.yul\":20944:20958   */\n      add\n        /* \"#utility.yul\":20937:20978   */\n      mstore\n        /* \"#utility.yul\":20820:20985   */\n      pop\n      jump\t// out\n        /* \"#utility.yul\":20991:21357   */\n    tag_237:\n        /* \"#utility.yul\":21133:21136   */\n      0x00\n        /* \"#utility.yul\":21154:21221   */\n      tag_448\n        /* \"#utility.yul\":21218:21220   */\n      0x0f\n        /* \"#utility.yul\":21213:21216   */\n      dup4\n        /* \"#utility.yul\":21154:21221   */\n      tag_224\n      jump\t// in\n    tag_448:\n        /* \"#utility.yul\":21147:21221   */\n      swap2\n      pop\n        /* \"#utility.yul\":21230:21323   */\n      tag_449\n        /* \"#utility.yul\":21319:21322   */\n      dup3\n        /* \"#utility.yul\":21230:21323   */\n      tag_236\n      jump\t// in\n    tag_449:\n        /* \"#utility.yul\":21348:21350   */\n      0x20\n        /* \"#utility.yul\":21343:21346   */\n      dup3\n        /* \"#utility.yul\":21339:21351   */\n      add\n        /* \"#utility.yul\":21332:21351   */\n      swap1\n      pop\n        /* \"#utility.yul\":20991:21357   */\n      swap2\n      swap1\n      pop\n      jump\t// out\n        /* \"#utility.yul\":21363:21782   */\n    tag_154:\n        /* \"#utility.yul\":21529:21533   */\n      0x00\n        /* \"#utility.yul\":21567:21569   */\n      0x20\n        /* \"#utility.yul\":21556:21565   */\n      dup3\n        /* \"#utility.yul\":21552:21570   */\n      add\n        /* \"#utility.yul\":21544:21570   */\n      swap1\n      pop\n        /* \"#utility.yul\":21616:21625   */\n      dup2\n        /* \"#utility.yul\":21610:21614   */\n      dup2\n        /* \"#utility.yul\":21606:21626   */\n      sub\n        /* \"#utility.yul\":21602:21603   */\n      0x00\n        /* \"#utility.yul\":21591:21600   */\n      dup4\n        /* \"#utility.yul\":21587:21604   */\n      add\n        /* \"#utility.yul\":21580:21627   */\n      mstore\n        /* \"#utility.yul\":21644:21775   */\n      tag_451\n        /* \"#utility.yul\":21770:21774   */\n      dup2\n        /* \"#utility.yul\":21644:21775   */\n      tag_237\n      jump\t// in\n    tag_451:\n        /* \"#utility.yul\":21636:21775   */\n      swap1\n      pop\n        /* \"#utility.yul\":21363:21782   */\n      swap2\n      swap1\n      pop\n      jump\t// out\n        /* \"#utility.yul\":21788:22341   */\n    tag_161:\n        /* \"#utility.yul\":21965:21969   */\n      0x00\n        /* \"#utility.yul\":22003:22006   */\n      0x80\n        /* \"#utility.yul\":21992:22001   */\n      dup3\n        /* \"#utility.yul\":21988:22007   */\n      add\n        /* \"#utility.yul\":21980:22007   */\n      swap1\n      pop\n        /* \"#utility.yul\":22017:22088   */\n      tag_453\n        /* \"#utility.yul\":22085:22086   */\n      0x00\n        /* \"#utility.yul\":22074:22083   */\n      dup4\n        /* \"#utility.yul\":22070:22087   */\n      add\n        /* \"#utility.yul\":22061:22067   */\n      dup8\n        /* \"#utility.yul\":22017:22088   */\n      tag_211\n      jump\t// in\n    tag_453:\n        /* \"#utility.yul\":22098:22170   */\n      tag_454\n        /* \"#utility.yul\":22166:22168   */\n      0x20\n        /* \"#utility.yul\":22155:22164   */\n      dup4\n        /* \"#utility.yul\":22151:22169   */\n      add\n        /* \"#utility.yul\":22142:22148   */\n      dup7\n        /* \"#utility.yul\":22098:22170   */\n      tag_211\n      jump\t// in\n    tag_454:\n        /* \"#utility.yul\":22180:22252   */\n      tag_455\n        /* \"#utility.yul\":22248:22250   */\n      0x40\n        /* \"#utility.yul\":22237:22246   */\n      dup4\n        /* \"#utility.yul\":22233:22251   */\n      add\n        /* \"#utility.yul\":22224:22230   */\n      dup6\n        /* \"#utility.yul\":22180:22252   */\n      tag_210\n      jump\t// in\n    tag_455:\n        /* \"#utility.yul\":22262:22334   */\n      tag_456\n        /* \"#utility.yul\":22330:22332   */\n      0x60\n        /* \"#utility.yul\":22319:22328   */\n      dup4\n        /* \"#utility.yul\":22315:22333   */\n      add\n        /* \"#utility.yul\":22306:22312   */\n      dup5\n        /* \"#utility.yul\":22262:22334   */\n      tag_210\n      jump\t// in\n    tag_456:\n        /* \"#utility.yul\":21788:22341   */\n      swap6\n      swap5\n      pop\n      pop\n      pop\n      pop\n      pop\n      jump\t// out\n        /* \"#utility.yul\":22347:22527   */\n    tag_178:\n        /* \"#utility.yul\":22395:22472   */\n      0x4e487b7100000000000000000000000000000000000000000000000000000000\n        /* \"#utility.yul\":22392:22393   */\n      0x00\n        /* \"#utility.yul\":22385:22473   */\n      mstore\n        /* \"#utility.yul\":22492:22496   */\n      0x31\n        /* \"#utility.yul\":22489:22490   */\n      0x04\n        /* \"#utility.yul\":22482:22497   */\n      mstore\n        /* \"#utility.yul\":22516:22520   */\n      0x24\n        /* \"#utility.yul\":22513:22514   */\n      0x00\n        /* \"#utility.yul\":22506:22521   */\n      revert\n\n    auxdata: 0xa264697066735822122027328e04b27568d7917f71001784142c980f19dc40737a4fa47fb2a113158d1264736f6c634300081a0033\n}\n",
				"bytecode": {
					"linkReferences": {},
					"object": "608060405234801561000f575f80fd5b50604051611e9f380380611e9f833981810160405281019061003191906101f1565b5f73ffffffffffffffffffffffffffffffffffffffff168273ffffffffffffffffffffffffffffffffffffffff160361009f576040517f08c379a000000000000000000000000000000000000000000000000000000000815260040161009690610289565b60405180910390fd5b5f73ffffffffffffffffffffffffffffffffffffffff168173ffffffffffffffffffffffffffffffffffffffff160361010d576040517f08c379a000000000000000000000000000000000000000000000000000000000815260040161010490610289565b60405180910390fd5b815f806101000a81548173ffffffffffffffffffffffffffffffffffffffff021916908373ffffffffffffffffffffffffffffffffffffffff1602179055508060015f6101000a81548173ffffffffffffffffffffffffffffffffffffffff021916908373ffffffffffffffffffffffffffffffffffffffff16021790555050506102a7565b5f80fd5b5f73ffffffffffffffffffffffffffffffffffffffff82169050919050565b5f6101c082610197565b9050919050565b6101d0816101b6565b81146101da575f80fd5b50565b5f815190506101eb816101c7565b92915050565b5f806040838503121561020757610206610193565b5b5f610214858286016101dd565b9250506020610225858286016101dd565b9150509250929050565b5f82825260208201905092915050565b7f7a65726f206164647265737300000000000000000000000000000000000000005f82015250565b5f610273600c8361022f565b915061027e8261023f565b602082019050919050565b5f6020820190508181035f8301526102a081610267565b9050919050565b611beb806102b45f395ff3fe608060405234801561000f575f80fd5b50600436106100e8575f3560e01c8063b3de019c1161008a578063d96a094a11610064578063d96a094a14610260578063da694df01461027c578063e0391b09146102ac578063fcce4883146102ca576100e8565b8063b3de019c146101f6578063b5cdf92414610212578063bca6ce6414610242576100e8565b8063785e9e86116100c6578063785e9e86146101565780638f1ec88f146101745780639d4971b7146101a6578063a85c38ef146101c4576100e8565b8063150b7a02146100ec578063514fcac71461011c578063629cb2e414610138575b5f80fd5b610106600480360381019061010191906111b9565b6102fa565b6040516101139190611277565b60405180910390f35b61013660048036038101906101319190611290565b610553565b005b6101406106c9565b60405161014d91906113c1565b60405180910390f35b61015e610882565b60405161016b919061143c565b60405180910390f35b61018e60048036038101906101899190611290565b6108a5565b60405161019d93929190611473565b60405180910390f35b6101ae6108ea565b6040516101bb91906114a8565b60405180910390f35b6101de60048036038101906101d99190611290565b6108f6565b6040516101ed93929190611473565b60405180910390f35b610210600480360381019061020b91906114c1565b61094a565b005b61022c60048036038101906102279190611637565b610a9e565b60405161023991906114a8565b60405180910390f35b61024a610b52565b60405161025791906116b1565b60405180910390f35b61027a60048036038101906102759190611290565b610b77565b005b61029660048036038101906102919190611290565b610d7b565b6040516102a391906114a8565b60405180910390f35b6102b4610d90565b6040516102c191906113c1565b60405180910390f35b6102e460048036038101906102df9190611290565b610e54565b6040516102f191906116e4565b60405180910390f35b5f8061034984848080601f0160208091040260200160405190810160405280939291908181526020018383808284375f81840152601f19601f820116905080830192505050505050505f610a9e565b90505f811161038d576040517f08c379a000000000000000000000000000000000000000000000000000000000815260040161038490611757565b60405180910390fd5b60405180606001604052808281526020018773ffffffffffffffffffffffffffffffffffffffff1681526020018681525060035f8781526020019081526020015f205f820151815f01556020820151816001015f6101000a81548173ffffffffffffffffffffffffffffffffffffffff021916908373ffffffffffffffffffffffffffffffffffffffff16021790555060408201518160020155905050600260405180606001604052808381526020018873ffffffffffffffffffffffffffffffffffffffff16815260200187815250908060018154018082558091505060019003905f5260205f2090600302015f909190919091505f820151815f01556020820151816001015f6101000a81548173ffffffffffffffffffffffffffffffffffffffff021916908373ffffffffffffffffffffffffffffffffffffffff16021790555060408201518160020155505060016002805490506104ef91906117a2565b60045f8781526020019081526020015f20819055507fd5b509e657d5ec37ae4bdcab658b7340c0453bb630516d26623359a34c1cecf3868287604051610537939291906117d5565b60405180910390a163150b7a0260e01b91505095945050505050565b5f60035f8381526020019081526020015f206001015f9054906101000a900473ffffffffffffffffffffffffffffffffffffffff1690503373ffffffffffffffffffffffffffffffffffffffff168173ffffffffffffffffffffffffffffffffffffffff16146105f8576040517f08c379a00000000000000000000000000000000000000000000000000000000081526004016105ef90611854565b60405180910390fd5b60015f9054906101000a900473ffffffffffffffffffffffffffffffffffffffff1673ffffffffffffffffffffffffffffffffffffffff166342842e0e3083856040518463ffffffff1660e01b815260040161065693929190611872565b5f604051808303815f87803b15801561066d575f80fd5b505af115801561067f573d5f803e3d5ffd5b5050505061068c82610ebf565b7fdd003742fb214507783ce004fe55f5ac14f89c6de4a7cd7487e47eb091c6226533836040516106bd9291906118a7565b60405180910390a15050565b60605f60028054905067ffffffffffffffff8111156106eb576106ea611513565b5b60405190808252806020026020018201604052801561072457816020015b610711611086565b8152602001906001900390816107095790505b5090505f805b600280549050811015610879573373ffffffffffffffffffffffffffffffffffffffff1660028281548110610762576107616118ce565b5b905f5260205f2090600302016001015f9054906101000a900473ffffffffffffffffffffffffffffffffffffffff1673ffffffffffffffffffffffffffffffffffffffff160361086c57600281815481106107c0576107bf6118ce565b5b905f5260205f2090600302016040518060600160405290815f8201548152602001600182015f9054906101000a900473ffffffffffffffffffffffffffffffffffffffff1673ffffffffffffffffffffffffffffffffffffffff1673ffffffffffffffffffffffffffffffffffffffff168152602001600282015481525050838381518110610852576108516118ce565b5b60200260200101819052508180610868906118fb565b9250505b808060010191505061072a565b50819250505090565b5f8054906101000a900473ffffffffffffffffffffffffffffffffffffffff1681565b6003602052805f5260405f205f91509050805f015490806001015f9054906101000a900473ffffffffffffffffffffffffffffffffffffffff16908060020154905083565b5f600280549050905090565b60028181548110610905575f80fd5b905f5260205f2090600302015f91509050805f015490806001015f9054906101000a900473ffffffffffffffffffffffffffffffffffffffff16908060020154905083565b5f60035f8481526020019081526020015f206001015f9054906101000a900473ffffffffffffffffffffffffffffffffffffffff1690503373ffffffffffffffffffffffffffffffffffffffff168173ffffffffffffffffffffffffffffffffffffffff16146109ef576040517f08c379a00000000000000000000000000000000000000000000000000000000081526004016109e690611854565b60405180910390fd5b5f60035f8581526020019081526020015f205f015490508260035f8681526020019081526020015f205f01819055505f600260045f8781526020019081526020015f205481548110610a4457610a436118ce565b5b905f5260205f209060030201905083815f01819055507fe553fdbd198f6bea082afba4b03f9b0a81c01d2c70843669d2289c92b750b8fa33868487604051610a8f9493929190611942565b60405180910390a15050505050565b5f81602083610aad9190611985565b1015610aee576040517f08c379a0000000000000000000000000000000000000000000000000000000008152600401610ae590611a02565b60405180910390fd5b602082610afb9190611985565b83511015610b3e576040517f08c379a0000000000000000000000000000000000000000000000000000000008152600401610b3590611a6a565b60405180910390fd5b5f8260208501015190508091505092915050565b60015f9054906101000a900473ffffffffffffffffffffffffffffffffffffffff1681565b5f3390505f60035f8481526020019081526020015f205f015490505f60035f8581526020019081526020015f206001015f9054906101000a900473ffffffffffffffffffffffffffffffffffffffff1690505f8054906101000a900473ffffffffffffffffffffffffffffffffffffffff1673ffffffffffffffffffffffffffffffffffffffff166323b872dd8483856040518463ffffffff1660e01b8152600401610c2593929190611872565b6020604051808303815f875af1158015610c41573d5f803e3d5ffd5b505050506040513d601f19601f82011682018060405250810190610c659190611ab2565b610ca4576040517f08c379a0000000000000000000000000000000000000000000000000000000008152600401610c9b90611b27565b60405180910390fd5b60015f9054906101000a900473ffffffffffffffffffffffffffffffffffffffff1673ffffffffffffffffffffffffffffffffffffffff166342842e0e3085876040518463ffffffff1660e01b8152600401610d0293929190611872565b5f604051808303815f87803b158015610d19575f80fd5b505af1158015610d2b573d5f803e3d5ffd5b50505050610d3884610ebf565b7f424d5e5f0192c7dacdbe646ca31b00299146d883d76a95ef5cddbac7cd342eab81848487604051610d6d9493929190611b45565b60405180910390a150505050565b6004602052805f5260405f205f915090505481565b60606002805480602002602001604051908101604052809291908181526020015f905b82821015610e4b578382905f5260205f2090600302016040518060600160405290815f8201548152602001600182015f9054906101000a900473ffffffffffffffffffffffffffffffffffffffff1673ffffffffffffffffffffffffffffffffffffffff1673ffffffffffffffffffffffffffffffffffffffff16815260200160028201548152505081526020019060010190610db3565b50505050905090565b5f8073ffffffffffffffffffffffffffffffffffffffff1660035f8481526020019081526020015f206001015f9054906101000a900473ffffffffffffffffffffffffffffffffffffffff1673ffffffffffffffffffffffffffffffffffffffff1614159050919050565b5f60045f8381526020019081526020015f205490505f6001600280549050610ee791906117a2565b9050808214610fca575f60028281548110610f0557610f046118ce565b5b905f5260205f20906003020190508060028481548110610f2857610f276118ce565b5b905f5260205f2090600302015f820154815f0155600182015f9054906101000a900473ffffffffffffffffffffffffffffffffffffffff16816001015f6101000a81548173ffffffffffffffffffffffffffffffffffffffff021916908373ffffffffffffffffffffffffffffffffffffffff160217905550600282015481600201559050508260045f836002015481526020019081526020015f2081905550505b6002805480610fdc57610fdb611b88565b5b600190038181905f5260205f2090600302015f8082015f9055600182015f6101000a81549073ffffffffffffffffffffffffffffffffffffffff0219169055600282015f90555050905560035f8481526020019081526020015f205f8082015f9055600182015f6101000a81549073ffffffffffffffffffffffffffffffffffffffff0219169055600282015f9055505060045f8481526020019081526020015f205f9055505050565b60405180606001604052805f81526020015f73ffffffffffffffffffffffffffffffffffffffff1681526020015f81525090565b5f604051905090565b5f80fd5b5f80fd5b5f73ffffffffffffffffffffffffffffffffffffffff82169050919050565b5f6110f4826110cb565b9050919050565b611104816110ea565b811461110e575f80fd5b50565b5f8135905061111f816110fb565b92915050565b5f819050919050565b61113781611125565b8114611141575f80fd5b50565b5f813590506111528161112e565b92915050565b5f80fd5b5f80fd5b5f80fd5b5f8083601f84011261117957611178611158565b5b8235905067ffffffffffffffff8111156111965761119561115c565b5b6020830191508360018202830111156111b2576111b1611160565b5b9250929050565b5f805f805f608086880312156111d2576111d16110c3565b5b5f6111df88828901611111565b95505060206111f088828901611111565b945050604061120188828901611144565b935050606086013567ffffffffffffffff811115611222576112216110c7565b5b61122e88828901611164565b92509250509295509295909350565b5f7fffffffff0000000000000000000000000000000000000000000000000000000082169050919050565b6112718161123d565b82525050565b5f60208201905061128a5f830184611268565b92915050565b5f602082840312156112a5576112a46110c3565b5b5f6112b284828501611144565b91505092915050565b5f81519050919050565b5f82825260208201905092915050565b5f819050602082019050919050565b6112ed81611125565b82525050565b6112fc816110ea565b82525050565b606082015f8201516113165f8501826112e4565b50602082015161132960208501826112f3565b50604082015161133c60408501826112e4565b50505050565b5f61134d8383611302565b60608301905092915050565b5f602082019050919050565b5f61136f826112bb565b61137981856112c5565b9350611384836112d5565b805f5b838110156113b457815161139b8882611342565b97506113a683611359565b925050600181019050611387565b5085935050505092915050565b5f6020820190508181035f8301526113d98184611365565b905092915050565b5f819050919050565b5f6114046113ff6113fa846110cb565b6113e1565b6110cb565b9050919050565b5f611415826113ea565b9050919050565b5f6114268261140b565b9050919050565b6114368161141c565b82525050565b5f60208201905061144f5f83018461142d565b92915050565b61145e81611125565b82525050565b61146d816110ea565b82525050565b5f6060820190506114865f830186611455565b6114936020830185611464565b6114a06040830184611455565b949350505050565b5f6020820190506114bb5f830184611455565b92915050565b5f80604083850312156114d7576114d66110c3565b5b5f6114e485828601611144565b92505060206114f585828601611144565b9150509250929050565b5f80fd5b5f601f19601f8301169050919050565b7f4e487b71000000000000000000000000000000000000000000000000000000005f52604160045260245ffd5b61154982611503565b810181811067ffffffffffffffff8211171561156857611567611513565b5b80604052505050565b5f61157a6110ba565b90506115868282611540565b919050565b5f67ffffffffffffffff8211156115a5576115a4611513565b5b6115ae82611503565b9050602081019050919050565b828183375f83830152505050565b5f6115db6115d68461158b565b611571565b9050828152602081018484840111156115f7576115f66114ff565b5b6116028482856115bb565b509392505050565b5f82601f83011261161e5761161d611158565b5b813561162e8482602086016115c9565b91505092915050565b5f806040838503121561164d5761164c6110c3565b5b5f83013567ffffffffffffffff81111561166a576116696110c7565b5b6116768582860161160a565b925050602061168785828601611144565b9150509250929050565b5f61169b8261140b565b9050919050565b6116ab81611691565b82525050565b5f6020820190506116c45f8301846116a2565b92915050565b5f8115159050919050565b6116de816116ca565b82525050565b5f6020820190506116f75f8301846116d5565b92915050565b5f82825260208201905092915050565b7f7072696365206d7573742062652067726561746572207468616e2030000000005f82015250565b5f611741601c836116fd565b915061174c8261170d565b602082019050919050565b5f6020820190508181035f83015261176e81611735565b9050919050565b7f4e487b71000000000000000000000000000000000000000000000000000000005f52601160045260245ffd5b5f6117ac82611125565b91506117b783611125565b92508282039050818111156117cf576117ce611775565b5b92915050565b5f6060820190506117e85f830186611464565b6117f56020830185611455565b6118026040830184611455565b949350505050565b7f6e6f742073656c6c6572000000000000000000000000000000000000000000005f82015250565b5f61183e600a836116fd565b91506118498261180a565b602082019050919050565b5f6020820190508181035f83015261186b81611832565b9050919050565b5f6060820190506118855f830186611464565b6118926020830185611464565b61189f6040830184611455565b949350505050565b5f6040820190506118ba5f830185611464565b6118c76020830184611455565b9392505050565b7f4e487b71000000000000000000000000000000000000000000000000000000005f52603260045260245ffd5b5f61190582611125565b91507fffffffffffffffffffffffffffffffffffffffffffffffffffffffffffffffff820361193757611936611775565b5b600182019050919050565b5f6080820190506119555f830187611464565b6119626020830186611455565b61196f6040830185611455565b61197c6060830184611455565b95945050505050565b5f61198f82611125565b915061199a83611125565b92508282019050808211156119b2576119b1611775565b5b92915050565b7f4d61726b65743a20746f55696e743235365f6f766572666c6f770000000000005f82015250565b5f6119ec601a836116fd565b91506119f7826119b8565b602082019050919050565b5f6020820190508181035f830152611a19816119e0565b9050919050565b7f4d61726b65743a20746f55696e743235365f6f75744f66426f756e64730000005f82015250565b5f611a54601d836116fd565b9150611a5f82611a20565b602082019050919050565b5f6020820190508181035f830152611a8181611a48565b9050919050565b611a91816116ca565b8114611a9b575f80fd5b50565b5f81519050611aac81611a88565b92915050565b5f60208284031215611ac757611ac66110c3565b5b5f611ad484828501611a9e565b91505092915050565b7f7472616e73666572206661696c656400000000000000000000000000000000005f82015250565b5f611b11600f836116fd565b9150611b1c82611add565b602082019050919050565b5f6020820190508181035f830152611b3e81611b05565b9050919050565b5f608082019050611b585f830187611464565b611b656020830186611464565b611b726040830185611455565b611b7f6060830184611455565b95945050505050565b7f4e487b71000000000000000000000000000000000000000000000000000000005f52603160045260245ffdfea264697066735822122027328e04b27568d7917f71001784142c980f19dc40737a4fa47fb2a113158d1264736f6c634300081a0033",
					"opcodes": "PUSH1 0x80 PUSH1 0x40 MSTORE CALLVALUE DUP1 ISZERO PUSH2 0xF JUMPI PUSH0 DUP1 REVERT JUMPDEST POP PUSH1 0x40 MLOAD PUSH2 0x1E9F CODESIZE SUB DUP1 PUSH2 0x1E9F DUP4 CODECOPY DUP2 DUP2 ADD PUSH1 0x40 MSTORE DUP2 ADD SWAP1 PUSH2 0x31 SWAP2 SWAP1 PUSH2 0x1F1 JUMP JUMPDEST PUSH0 PUSH20 0xFFFFFFFFFFFFFFFFFFFFFFFFFFFFFFFFFFFFFFFF AND DUP3 PUSH20 0xFFFFFFFFFFFFFFFFFFFFFFFFFFFFFFFFFFFFFFFF AND SUB PUSH2 0x9F JUMPI PUSH1 0x40 MLOAD PUSH32 0x8C379A000000000000000000000000000000000000000000000000000000000 DUP2 MSTORE PUSH1 0x4 ADD PUSH2 0x96 SWAP1 PUSH2 0x289 JUMP JUMPDEST PUSH1 0x40 MLOAD DUP1 SWAP2 SUB SWAP1 REVERT JUMPDEST PUSH0 PUSH20 0xFFFFFFFFFFFFFFFFFFFFFFFFFFFFFFFFFFFFFFFF AND DUP2 PUSH20 0xFFFFFFFFFFFFFFFFFFFFFFFFFFFFFFFFFFFFFFFF AND SUB PUSH2 0x10D JUMPI PUSH1 0x40 MLOAD PUSH32 0x8C379A000000000000000000000000000000000000000000000000000000000 DUP2 MSTORE PUSH1 0x4 ADD PUSH2 0x104 SWAP1 PUSH2 0x289 JUMP JUMPDEST PUSH1 0x40 MLOAD DUP1 SWAP2 SUB SWAP1 REVERT JUMPDEST DUP2 PUSH0 DUP1 PUSH2 0x100 EXP DUP2 SLOAD DUP2 PUSH20 0xFFFFFFFFFFFFFFFFFFFFFFFFFFFFFFFFFFFFFFFF MUL NOT AND SWAP1 DUP4 PUSH20 0xFFFFFFFFFFFFFFFFFFFFFFFFFFFFFFFFFFFFFFFF AND MUL OR SWAP1 SSTORE POP DUP1 PUSH1 0x1 PUSH0 PUSH2 0x100 EXP DUP2 SLOAD DUP2 PUSH20 0xFFFFFFFFFFFFFFFFFFFFFFFFFFFFFFFFFFFFFFFF MUL NOT AND SWAP1 DUP4 PUSH20 0xFFFFFFFFFFFFFFFFFFFFFFFFFFFFFFFFFFFFFFFF AND MUL OR SWAP1 SSTORE POP POP POP PUSH2 0x2A7 JUMP JUMPDEST PUSH0 DUP1 REVERT JUMPDEST PUSH0 PUSH20 0xFFFFFFFFFFFFFFFFFFFFFFFFFFFFFFFFFFFFFFFF DUP3 AND SWAP1 POP SWAP2 SWAP1 POP JUMP JUMPDEST PUSH0 PUSH2 0x1C0 DUP3 PUSH2 0x197 JUMP JUMPDEST SWAP1 POP SWAP2 SWAP1 POP JUMP JUMPDEST PUSH2 0x1D0 DUP2 PUSH2 0x1B6 JUMP JUMPDEST DUP2 EQ PUSH2 0x1DA JUMPI PUSH0 DUP1 REVERT JUMPDEST POP JUMP JUMPDEST PUSH0 DUP2 MLOAD SWAP1 POP PUSH2 0x1EB DUP2 PUSH2 0x1C7 JUMP JUMPDEST SWAP3 SWAP2 POP POP JUMP JUMPDEST PUSH0 DUP1 PUSH1 0x40 DUP4 DUP6 SUB SLT ISZERO PUSH2 0x207 JUMPI PUSH2 0x206 PUSH2 0x193 JUMP JUMPDEST JUMPDEST PUSH0 PUSH2 0x214 DUP6 DUP3 DUP7 ADD PUSH2 0x1DD JUMP JUMPDEST SWAP3 POP POP PUSH1 0x20 PUSH2 0x225 DUP6 DUP3 DUP7 ADD PUSH2 0x1DD JUMP JUMPDEST SWAP2 POP POP SWAP3 POP SWAP3 SWAP1 POP JUMP JUMPDEST PUSH0 DUP3 DUP3 MSTORE PUSH1 0x20 DUP3 ADD SWAP1 POP SWAP3 SWAP2 POP POP JUMP JUMPDEST PUSH32 0x7A65726F20616464726573730000000000000000000000000000000000000000 PUSH0 DUP3 ADD MSTORE POP JUMP JUMPDEST PUSH0 PUSH2 0x273 PUSH1 0xC DUP4 PUSH2 0x22F JUMP JUMPDEST SWAP2 POP PUSH2 0x27E DUP3 PUSH2 0x23F JUMP JUMPDEST PUSH1 0x20 DUP3 ADD SWAP1 POP SWAP2 SWAP1 POP JUMP JUMPDEST PUSH0 PUSH1 0x20 DUP3 ADD SWAP1 POP DUP2 DUP2 SUB PUSH0 DUP4 ADD MSTORE PUSH2 0x2A0 DUP2 PUSH2 0x267 JUMP JUMPDEST SWAP1 POP SWAP2 SWAP1 POP JUMP JUMPDEST PUSH2 0x1BEB DUP1 PUSH2 0x2B4 PUSH0 CODECOPY PUSH0 RETURN INVALID PUSH1 0x80 PUSH1 0x40 MSTORE CALLVALUE DUP1 ISZERO PUSH2 0xF JUMPI PUSH0 DUP1 REVERT JUMPDEST POP PUSH1 0x4 CALLDATASIZE LT PUSH2 0xE8 JUMPI PUSH0 CALLDATALOAD PUSH1 0xE0 SHR DUP1 PUSH4 0xB3DE019C GT PUSH2 0x8A JUMPI DUP1 PUSH4 0xD96A094A GT PUSH2 0x64 JUMPI DUP1 PUSH4 0xD96A094A EQ PUSH2 0x260 JUMPI DUP1 PUSH4 0xDA694DF0 EQ PUSH2 0x27C JUMPI DUP1 PUSH4 0xE0391B09 EQ PUSH2 0x2AC JUMPI DUP1 PUSH4 0xFCCE4883 EQ PUSH2 0x2CA JUMPI PUSH2 0xE8 JUMP JUMPDEST DUP1 PUSH4 0xB3DE019C EQ PUSH2 0x1F6 JUMPI DUP1 PUSH4 0xB5CDF924 EQ PUSH2 0x212 JUMPI DUP1 PUSH4 0xBCA6CE64 EQ PUSH2 0x242 JUMPI PUSH2 0xE8 JUMP JUMPDEST DUP1 PUSH4 0x785E9E86 GT PUSH2 0xC6 JUMPI DUP1 PUSH4 0x785E9E86 EQ PUSH2 0x156 JUMPI DUP1 PUSH4 0x8F1EC88F EQ PUSH2 0x174 JUMPI DUP1 PUSH4 0x9D4971B7 EQ PUSH2 0x1A6 JUMPI DUP1 PUSH4 0xA85C38EF EQ PUSH2 0x1C4 JUMPI PUSH2 0xE8 JUMP JUMPDEST DUP1 PUSH4 0x150B7A02 EQ PUSH2 0xEC JUMPI DUP1 PUSH4 0x514FCAC7 EQ PUSH2 0x11C JUMPI DUP1 PUSH4 0x629CB2E4 EQ PUSH2 0x138 JUMPI JUMPDEST PUSH0 DUP1 REVERT JUMPDEST PUSH2 0x106 PUSH1 0x4 DUP1 CALLDATASIZE SUB DUP2 ADD SWAP1 PUSH2 0x101 SWAP2 SWAP1 PUSH2 0x11B9 JUMP JUMPDEST PUSH2 0x2FA JUMP JUMPDEST PUSH1 0x40 MLOAD PUSH2 0x113 SWAP2 SWAP1 PUSH2 0x1277 JUMP JUMPDEST PUSH1 0x40 MLOAD DUP1 SWAP2 SUB SWAP1 RETURN JUMPDEST PUSH2 0x136 PUSH1 0x4 DUP1 CALLDATASIZE SUB DUP2 ADD SWAP1 PUSH2 0x131 SWAP2 SWAP1 PUSH2 0x1290 JUMP JUMPDEST PUSH2 0x553 JUMP JUMPDEST STOP JUMPDEST PUSH2 0x140 PUSH2 0x6C9 JUMP JUMPDEST PUSH1 0x40 MLOAD PUSH2 0x14D SWAP2 SWAP1 PUSH2 0x13C1 JUMP JUMPDEST PUSH1 0x40 MLOAD DUP1 SWAP2 SUB SWAP1 RETURN JUMPDEST PUSH2 0x15E PUSH2 0x882 JUMP JUMPDEST PUSH1 0x40 MLOAD PUSH2 0x16B SWAP2 SWAP1 PUSH2 0x143C JUMP JUMPDEST PUSH1 0x40 MLOAD DUP1 SWAP2 SUB SWAP1 RETURN JUMPDEST PUSH2 0x18E PUSH1 0x4 DUP1 CALLDATASIZE SUB DUP2 ADD SWAP1 PUSH2 0x189 SWAP2 SWAP1 PUSH2 0x1290 JUMP JUMPDEST PUSH2 0x8A5 JUMP JUMPDEST PUSH1 0x40 MLOAD PUSH2 0x19D SWAP4 SWAP3 SWAP2 SWAP1 PUSH2 0x1473 JUMP JUMPDEST PUSH1 0x40 MLOAD DUP1 SWAP2 SUB SWAP1 RETURN JUMPDEST PUSH2 0x1AE PUSH2 0x8EA JUMP JUMPDEST PUSH1 0x40 MLOAD PUSH2 0x1BB SWAP2 SWAP1 PUSH2 0x14A8 JUMP JUMPDEST PUSH1 0x40 MLOAD DUP1 SWAP2 SUB SWAP1 RETURN JUMPDEST PUSH2 0x1DE PUSH1 0x4 DUP1 CALLDATASIZE SUB DUP2 ADD SWAP1 PUSH2 0x1D9 SWAP2 SWAP1 PUSH2 0x1290 JUMP JUMPDEST PUSH2 0x8F6 JUMP JUMPDEST PUSH1 0x40 MLOAD PUSH2 0x1ED SWAP4 SWAP3 SWAP2 SWAP1 PUSH2 0x1473 JUMP JUMPDEST PUSH1 0x40 MLOAD DUP1 SWAP2 SUB SWAP1 RETURN JUMPDEST PUSH2 0x210 PUSH1 0x4 DUP1 CALLDATASIZE SUB DUP2 ADD SWAP1 PUSH2 0x20B SWAP2 SWAP1 PUSH2 0x14C1 JUMP JUMPDEST PUSH2 0x94A JUMP JUMPDEST STOP JUMPDEST PUSH2 0x22C PUSH1 0x4 DUP1 CALLDATASIZE SUB DUP2 ADD SWAP1 PUSH2 0x227 SWAP2 SWAP1 PUSH2 0x1637 JUMP JUMPDEST PUSH2 0xA9E JUMP JUMPDEST PUSH1 0x40 MLOAD PUSH2 0x239 SWAP2 SWAP1 PUSH2 0x14A8 JUMP JUMPDEST PUSH1 0x40 MLOAD DUP1 SWAP2 SUB SWAP1 RETURN JUMPDEST PUSH2 0x24A PUSH2 0xB52 JUMP JUMPDEST PUSH1 0x40 MLOAD PUSH2 0x257 SWAP2 SWAP1 PUSH2 0x16B1 JUMP JUMPDEST PUSH1 0x40 MLOAD DUP1 SWAP2 SUB SWAP1 RETURN JUMPDEST PUSH2 0x27A PUSH1 0x4 DUP1 CALLDATASIZE SUB DUP2 ADD SWAP1 PUSH2 0x275 SWAP2 SWAP1 PUSH2 0x1290 JUMP JUMPDEST PUSH2 0xB77 JUMP JUMPDEST STOP JUMPDEST PUSH2 0x296 PUSH1 0x4 DUP1 CALLDATASIZE SUB DUP2 ADD SWAP1 PUSH2 0x291 SWAP2 SWAP1 PUSH2 0x1290 JUMP JUMPDEST PUSH2 0xD7B JUMP JUMPDEST PUSH1 0x40 MLOAD PUSH2 0x2A3 SWAP2 SWAP1 PUSH2 0x14A8 JUMP JUMPDEST PUSH1 0x40 MLOAD DUP1 SWAP2 SUB SWAP1 RETURN JUMPDEST PUSH2 0x2B4 PUSH2 0xD90 JUMP JUMPDEST PUSH1 0x40 MLOAD PUSH2 0x2C1 SWAP2 SWAP1 PUSH2 0x13C1 JUMP JUMPDEST PUSH1 0x40 MLOAD DUP1 SWAP2 SUB SWAP1 RETURN JUMPDEST PUSH2 0x2E4 PUSH1 0x4 DUP1 CALLDATASIZE SUB DUP2 ADD SWAP1 PUSH2 0x2DF SWAP2 SWAP1 PUSH2 0x1290 JUMP JUMPDEST PUSH2 0xE54 JUMP JUMPDEST PUSH1 0x40 MLOAD PUSH2 0x2F1 SWAP2 SWAP1 PUSH2 0x16E4 JUMP JUMPDEST PUSH1 0x40 MLOAD DUP1 SWAP2 SUB SWAP1 RETURN JUMPDEST PUSH0 DUP1 PUSH2 0x349 DUP5 DUP5 DUP1 DUP1 PUSH1 0x1F ADD PUSH1 0x20 DUP1 SWAP2 DIV MUL PUSH1 0x20 ADD PUSH1 0x40 MLOAD SWAP1 DUP2 ADD PUSH1 0x40 MSTORE DUP1 SWAP4 SWAP3 SWAP2 SWAP1 DUP2 DUP2 MSTORE PUSH1 0x20 ADD DUP4 DUP4 DUP1 DUP3 DUP5 CALLDATACOPY PUSH0 DUP2 DUP5 ADD MSTORE PUSH1 0x1F NOT PUSH1 0x1F DUP3 ADD AND SWAP1 POP DUP1 DUP4 ADD SWAP3 POP POP POP POP POP POP POP PUSH0 PUSH2 0xA9E JUMP JUMPDEST SWAP1 POP PUSH0 DUP2 GT PUSH2 0x38D JUMPI PUSH1 0x40 MLOAD PUSH32 0x8C379A000000000000000000000000000000000000000000000000000000000 DUP2 MSTORE PUSH1 0x4 ADD PUSH2 0x384 SWAP1 PUSH2 0x1757 JUMP JUMPDEST PUSH1 0x40 MLOAD DUP1 SWAP2 SUB SWAP1 REVERT JUMPDEST PUSH1 0x40 MLOAD DUP1 PUSH1 0x60 ADD PUSH1 0x40 MSTORE DUP1 DUP3 DUP2 MSTORE PUSH1 0x20 ADD DUP8 PUSH20 0xFFFFFFFFFFFFFFFFFFFFFFFFFFFFFFFFFFFFFFFF AND DUP2 MSTORE PUSH1 0x20 ADD DUP7 DUP2 MSTORE POP PUSH1 0x3 PUSH0 DUP8 DUP2 MSTORE PUSH1 0x20 ADD SWAP1 DUP2 MSTORE PUSH1 0x20 ADD PUSH0 KECCAK256 PUSH0 DUP3 ADD MLOAD DUP2 PUSH0 ADD SSTORE PUSH1 0x20 DUP3 ADD MLOAD DUP2 PUSH1 0x1 ADD PUSH0 PUSH2 0x100 EXP DUP2 SLOAD DUP2 PUSH20 0xFFFFFFFFFFFFFFFFFFFFFFFFFFFFFFFFFFFFFFFF MUL NOT AND SWAP1 DUP4 PUSH20 0xFFFFFFFFFFFFFFFFFFFFFFFFFFFFFFFFFFFFFFFF AND MUL OR SWAP1 SSTORE POP PUSH1 0x40 DUP3 ADD MLOAD DUP2 PUSH1 0x2 ADD SSTORE SWAP1 POP POP PUSH1 0x2 PUSH1 0x40 MLOAD DUP1 PUSH1 0x60 ADD PUSH1 0x40 MSTORE DUP1 DUP4 DUP2 MSTORE PUSH1 0x20 ADD DUP9 PUSH20 0xFFFFFFFFFFFFFFFFFFFFFFFFFFFFFFFFFFFFFFFF AND DUP2 MSTORE PUSH1 0x20 ADD DUP8 DUP2 MSTORE POP SWAP1 DUP1 PUSH1 0x1 DUP2 SLOAD ADD DUP1 DUP3 SSTORE DUP1 SWAP2 POP POP PUSH1 0x1 SWAP1 SUB SWAP1 PUSH0 MSTORE PUSH1 0x20 PUSH0 KECCAK256 SWAP1 PUSH1 0x3 MUL ADD PUSH0 SWAP1 SWAP2 SWAP1 SWAP2 SWAP1 SWAP2 POP PUSH0 DUP3 ADD MLOAD DUP2 PUSH0 ADD SSTORE PUSH1 0x20 DUP3 ADD MLOAD DUP2 PUSH1 0x1 ADD PUSH0 PUSH2 0x100 EXP DUP2 SLOAD DUP2 PUSH20 0xFFFFFFFFFFFFFFFFFFFFFFFFFFFFFFFFFFFFFFFF MUL NOT AND SWAP1 DUP4 PUSH20 0xFFFFFFFFFFFFFFFFFFFFFFFFFFFFFFFFFFFFFFFF AND MUL OR SWAP1 SSTORE POP PUSH1 0x40 DUP3 ADD MLOAD DUP2 PUSH1 0x2 ADD SSTORE POP POP PUSH1 0x1 PUSH1 0x2 DUP1 SLOAD SWAP1 POP PUSH2 0x4EF SWAP2 SWAP1 PUSH2 0x17A2 JUMP JUMPDEST PUSH1 0x4 PUSH0 DUP8 DUP2 MSTORE PUSH1 0x20 ADD SWAP1 DUP2 MSTORE PUSH1 0x20 ADD PUSH0 KECCAK256 DUP2 SWAP1 SSTORE POP PUSH32 0xD5B509E657D5EC37AE4BDCAB658B7340C0453BB630516D26623359A34C1CECF3 DUP7 DUP3 DUP8 PUSH1 0x40 MLOAD PUSH2 0x537 SWAP4 SWAP3 SWAP2 SWAP1 PUSH2 0x17D5 JUMP JUMPDEST PUSH1 0x40 MLOAD DUP1 SWAP2 SUB SWAP1 LOG1 PUSH4 0x150B7A02 PUSH1 0xE0 SHL SWAP2 POP POP SWAP6 SWAP5 POP POP POP POP POP JUMP JUMPDEST PUSH0 PUSH1 0x3 PUSH0 DUP4 DUP2 MSTORE PUSH1 0x20 ADD SWAP1 DUP2 MSTORE PUSH1 0x20 ADD PUSH0 KECCAK256 PUSH1 0x1 ADD PUSH0 SWAP1 SLOAD SWAP1 PUSH2 0x100 EXP SWAP1 DIV PUSH20 0xFFFFFFFFFFFFFFFFFFFFFFFFFFFFFFFFFFFFFFFF AND SWAP1 POP CALLER PUSH20 0xFFFFFFFFFFFFFFFFFFFFFFFFFFFFFFFFFFFFFFFF AND DUP2 PUSH20 0xFFFFFFFFFFFFFFFFFFFFFFFFFFFFFFFFFFFFFFFF AND EQ PUSH2 0x5F8 JUMPI PUSH1 0x40 MLOAD PUSH32 0x8C379A000000000000000000000000000000000000000000000000000000000 DUP2 MSTORE PUSH1 0x4 ADD PUSH2 0x5EF SWAP1 PUSH2 0x1854 JUMP JUMPDEST PUSH1 0x40 MLOAD DUP1 SWAP2 SUB SWAP1 REVERT JUMPDEST PUSH1 0x1 PUSH0 SWAP1 SLOAD SWAP1 PUSH2 0x100 EXP SWAP1 DIV PUSH20 0xFFFFFFFFFFFFFFFFFFFFFFFFFFFFFFFFFFFFFFFF AND PUSH20 0xFFFFFFFFFFFFFFFFFFFFFFFFFFFFFFFFFFFFFFFF AND PUSH4 0x42842E0E ADDRESS DUP4 DUP6 PUSH1 0x40 MLOAD DUP5 PUSH4 0xFFFFFFFF AND PUSH1 0xE0 SHL DUP2 MSTORE PUSH1 0x4 ADD PUSH2 0x656 SWAP4 SWAP3 SWAP2 SWAP1 PUSH2 0x1872 JUMP JUMPDEST PUSH0 PUSH1 0x40 MLOAD DUP1 DUP4 SUB DUP2 PUSH0 DUP8 DUP1 EXTCODESIZE ISZERO DUP1 ISZERO PUSH2 0x66D JUMPI PUSH0 DUP1 REVERT JUMPDEST POP GAS CALL ISZERO DUP1 ISZERO PUSH2 0x67F JUMPI RETURNDATASIZE PUSH0 DUP1 RETURNDATACOPY RETURNDATASIZE PUSH0 REVERT JUMPDEST POP POP POP POP PUSH2 0x68C DUP3 PUSH2 0xEBF JUMP JUMPDEST PUSH32 0xDD003742FB214507783CE004FE55F5AC14F89C6DE4A7CD7487E47EB091C62265 CALLER DUP4 PUSH1 0x40 MLOAD PUSH2 0x6BD SWAP3 SWAP2 SWAP1 PUSH2 0x18A7 JUMP JUMPDEST PUSH1 0x40 MLOAD DUP1 SWAP2 SUB SWAP1 LOG1 POP POP JUMP JUMPDEST PUSH1 0x60 PUSH0 PUSH1 0x2 DUP1 SLOAD SWAP1 POP PUSH8 0xFFFFFFFFFFFFFFFF DUP2 GT ISZERO PUSH2 0x6EB JUMPI PUSH2 0x6EA PUSH2 0x1513 JUMP JUMPDEST JUMPDEST PUSH1 0x40 MLOAD SWAP1 DUP1 DUP3 MSTORE DUP1 PUSH1 0x20 MUL PUSH1 0x20 ADD DUP3 ADD PUSH1 0x40 MSTORE DUP1 ISZERO PUSH2 0x724 JUMPI DUP2 PUSH1 0x20 ADD JUMPDEST PUSH2 0x711 PUSH2 0x1086 JUMP JUMPDEST DUP2 MSTORE PUSH1 0x20 ADD SWAP1 PUSH1 0x1 SWAP1 SUB SWAP1 DUP2 PUSH2 0x709 JUMPI SWAP1 POP JUMPDEST POP SWAP1 POP PUSH0 DUP1 JUMPDEST PUSH1 0x2 DUP1 SLOAD SWAP1 POP DUP2 LT ISZERO PUSH2 0x879 JUMPI CALLER PUSH20 0xFFFFFFFFFFFFFFFFFFFFFFFFFFFFFFFFFFFFFFFF AND PUSH1 0x2 DUP3 DUP2 SLOAD DUP2 LT PUSH2 0x762 JUMPI PUSH2 0x761 PUSH2 0x18CE JUMP JUMPDEST JUMPDEST SWAP1 PUSH0 MSTORE PUSH1 0x20 PUSH0 KECCAK256 SWAP1 PUSH1 0x3 MUL ADD PUSH1 0x1 ADD PUSH0 SWAP1 SLOAD SWAP1 PUSH2 0x100 EXP SWAP1 DIV PUSH20 0xFFFFFFFFFFFFFFFFFFFFFFFFFFFFFFFFFFFFFFFF AND PUSH20 0xFFFFFFFFFFFFFFFFFFFFFFFFFFFFFFFFFFFFFFFF AND SUB PUSH2 0x86C JUMPI PUSH1 0x2 DUP2 DUP2 SLOAD DUP2 LT PUSH2 0x7C0 JUMPI PUSH2 0x7BF PUSH2 0x18CE JUMP JUMPDEST JUMPDEST SWAP1 PUSH0 MSTORE PUSH1 0x20 PUSH0 KECCAK256 SWAP1 PUSH1 0x3 MUL ADD PUSH1 0x40 MLOAD DUP1 PUSH1 0x60 ADD PUSH1 0x40 MSTORE SWAP1 DUP2 PUSH0 DUP3 ADD SLOAD DUP2 MSTORE PUSH1 0x20 ADD PUSH1 0x1 DUP3 ADD PUSH0 SWAP1 SLOAD SWAP1 PUSH2 0x100 EXP SWAP1 DIV PUSH20 0xFFFFFFFFFFFFFFFFFFFFFFFFFFFFFFFFFFFFFFFF AND PUSH20 0xFFFFFFFFFFFFFFFFFFFFFFFFFFFFFFFFFFFFFFFF AND PUSH20 0xFFFFFFFFFFFFFFFFFFFFFFFFFFFFFFFFFFFFFFFF AND DUP2 MSTORE PUSH1 0x20 ADD PUSH1 0x2 DUP3 ADD SLOAD DUP2 MSTORE POP POP DUP4 DUP4 DUP2 MLOAD DUP2 LT PUSH2 0x852 JUMPI PUSH2 0x851 PUSH2 0x18CE JUMP JUMPDEST JUMPDEST PUSH1 0x20 MUL PUSH1 0x20 ADD ADD DUP2 SWAP1 MSTORE POP DUP2 DUP1 PUSH2 0x868 SWAP1 PUSH2 0x18FB JUMP JUMPDEST SWAP3 POP POP JUMPDEST DUP1 DUP1 PUSH1 0x1 ADD SWAP2 POP POP PUSH2 0x72A JUMP JUMPDEST POP DUP2 SWAP3 POP POP POP SWAP1 JUMP JUMPDEST PUSH0 DUP1 SLOAD SWAP1 PUSH2 0x100 EXP SWAP1 DIV PUSH20 0xFFFFFFFFFFFFFFFFFFFFFFFFFFFFFFFFFFFFFFFF AND DUP2 JUMP JUMPDEST PUSH1 0x3 PUSH1 0x20 MSTORE DUP1 PUSH0 MSTORE PUSH1 0x40 PUSH0 KECCAK256 PUSH0 SWAP2 POP SWAP1 POP DUP1 PUSH0 ADD SLOAD SWAP1 DUP1 PUSH1 0x1 ADD PUSH0 SWAP1 SLOAD SWAP1 PUSH2 0x100 EXP SWAP1 DIV PUSH20 0xFFFFFFFFFFFFFFFFFFFFFFFFFFFFFFFFFFFFFFFF AND SWAP1 DUP1 PUSH1 0x2 ADD SLOAD SWAP1 POP DUP4 JUMP JUMPDEST PUSH0 PUSH1 0x2 DUP1 SLOAD SWAP1 POP SWAP1 POP SWAP1 JUMP JUMPDEST PUSH1 0x2 DUP2 DUP2 SLOAD DUP2 LT PUSH2 0x905 JUMPI PUSH0 DUP1 REVERT JUMPDEST SWAP1 PUSH0 MSTORE PUSH1 0x20 PUSH0 KECCAK256 SWAP1 PUSH1 0x3 MUL ADD PUSH0 SWAP2 POP SWAP1 POP DUP1 PUSH0 ADD SLOAD SWAP1 DUP1 PUSH1 0x1 ADD PUSH0 SWAP1 SLOAD SWAP1 PUSH2 0x100 EXP SWAP1 DIV PUSH20 0xFFFFFFFFFFFFFFFFFFFFFFFFFFFFFFFFFFFFFFFF AND SWAP1 DUP1 PUSH1 0x2 ADD SLOAD SWAP1 POP DUP4 JUMP JUMPDEST PUSH0 PUSH1 0x3 PUSH0 DUP5 DUP2 MSTORE PUSH1 0x20 ADD SWAP1 DUP2 MSTORE PUSH1 0x20 ADD PUSH0 KECCAK256 PUSH1 0x1 ADD PUSH0 SWAP1 SLOAD SWAP1 PUSH2 0x100 EXP SWAP1 DIV PUSH20 0xFFFFFFFFFFFFFFFFFFFFFFFFFFFFFFFFFFFFFFFF AND SWAP1 POP CALLER PUSH20 0xFFFFFFFFFFFFFFFFFFFFFFFFFFFFFFFFFFFFFFFF AND DUP2 PUSH20 0xFFFFFFFFFFFFFFFFFFFFFFFFFFFFFFFFFFFFFFFF AND EQ PUSH2 0x9EF JUMPI PUSH1 0x40 MLOAD PUSH32 0x8C379A000000000000000000000000000000000000000000000000000000000 DUP2 MSTORE PUSH1 0x4 ADD PUSH2 0x9E6 SWAP1 PUSH2 0x1854 JUMP JUMPDEST PUSH1 0x40 MLOAD DUP1 SWAP2 SUB SWAP1 REVERT JUMPDEST PUSH0 PUSH1 0x3 PUSH0 DUP6 DUP2 MSTORE PUSH1 0x20 ADD SWAP1 DUP2 MSTORE PUSH1 0x20 ADD PUSH0 KECCAK256 PUSH0 ADD SLOAD SWAP1 POP DUP3 PUSH1 0x3 PUSH0 DUP7 DUP2 MSTORE PUSH1 0x20 ADD SWAP1 DUP2 MSTORE PUSH1 0x20 ADD PUSH0 KECCAK256 PUSH0 ADD DUP2 SWAP1 SSTORE POP PUSH0 PUSH1 0x2 PUSH1 0x4 PUSH0 DUP8 DUP2 MSTORE PUSH1 0x20 ADD SWAP1 DUP2 MSTORE PUSH1 0x20 ADD PUSH0 KECCAK256 SLOAD DUP2 SLOAD DUP2 LT PUSH2 0xA44 JUMPI PUSH2 0xA43 PUSH2 0x18CE JUMP JUMPDEST JUMPDEST SWAP1 PUSH0 MSTORE PUSH1 0x20 PUSH0 KECCAK256 SWAP1 PUSH1 0x3 MUL ADD SWAP1 POP DUP4 DUP2 PUSH0 ADD DUP2 SWAP1 SSTORE POP PUSH32 0xE553FDBD198F6BEA082AFBA4B03F9B0A81C01D2C70843669D2289C92B750B8FA CALLER DUP7 DUP5 DUP8 PUSH1 0x40 MLOAD PUSH2 0xA8F SWAP5 SWAP4 SWAP3 SWAP2 SWAP1 PUSH2 0x1942 JUMP JUMPDEST PUSH1 0x40 MLOAD DUP1 SWAP2 SUB SWAP1 LOG1 POP POP POP POP POP JUMP JUMPDEST PUSH0 DUP2 PUSH1 0x20 DUP4 PUSH2 0xAAD SWAP2 SWAP1 PUSH2 0x1985 JUMP JUMPDEST LT ISZERO PUSH2 0xAEE JUMPI PUSH1 0x40 MLOAD PUSH32 0x8C379A000000000000000000000000000000000000000000000000000000000 DUP2 MSTORE PUSH1 0x4 ADD PUSH2 0xAE5 SWAP1 PUSH2 0x1A02 JUMP JUMPDEST PUSH1 0x40 MLOAD DUP1 SWAP2 SUB SWAP1 REVERT JUMPDEST PUSH1 0x20 DUP3 PUSH2 0xAFB SWAP2 SWAP1 PUSH2 0x1985 JUMP JUMPDEST DUP4 MLOAD LT ISZERO PUSH2 0xB3E JUMPI PUSH1 0x40 MLOAD PUSH32 0x8C379A000000000000000000000000000000000000000000000000000000000 DUP2 MSTORE PUSH1 0x4 ADD PUSH2 0xB35 SWAP1 PUSH2 0x1A6A JUMP JUMPDEST PUSH1 0x40 MLOAD DUP1 SWAP2 SUB SWAP1 REVERT JUMPDEST PUSH0 DUP3 PUSH1 0x20 DUP6 ADD ADD MLOAD SWAP1 POP DUP1 SWAP2 POP POP SWAP3 SWAP2 POP POP JUMP JUMPDEST PUSH1 0x1 PUSH0 SWAP1 SLOAD SWAP1 PUSH2 0x100 EXP SWAP1 DIV PUSH20 0xFFFFFFFFFFFFFFFFFFFFFFFFFFFFFFFFFFFFFFFF AND DUP2 JUMP JUMPDEST PUSH0 CALLER SWAP1 POP PUSH0 PUSH1 0x3 PUSH0 DUP5 DUP2 MSTORE PUSH1 0x20 ADD SWAP1 DUP2 MSTORE PUSH1 0x20 ADD PUSH0 KECCAK256 PUSH0 ADD SLOAD SWAP1 POP PUSH0 PUSH1 0x3 PUSH0 DUP6 DUP2 MSTORE PUSH1 0x20 ADD SWAP1 DUP2 MSTORE PUSH1 0x20 ADD PUSH0 KECCAK256 PUSH1 0x1 ADD PUSH0 SWAP1 SLOAD SWAP1 PUSH2 0x100 EXP SWAP1 DIV PUSH20 0xFFFFFFFFFFFFFFFFFFFFFFFFFFFFFFFFFFFFFFFF AND SWAP1 POP PUSH0 DUP1 SLOAD SWAP1 PUSH2 0x100 EXP SWAP1 DIV PUSH20 0xFFFFFFFFFFFFFFFFFFFFFFFFFFFFFFFFFFFFFFFF AND PUSH20 0xFFFFFFFFFFFFFFFFFFFFFFFFFFFFFFFFFFFFFFFF AND PUSH4 0x23B872DD DUP5 DUP4 DUP6 PUSH1 0x40 MLOAD DUP5 PUSH4 0xFFFFFFFF AND PUSH1 0xE0 SHL DUP2 MSTORE PUSH1 0x4 ADD PUSH2 0xC25 SWAP4 SWAP3 SWAP2 SWAP1 PUSH2 0x1872 JUMP JUMPDEST PUSH1 0x20 PUSH1 0x40 MLOAD DUP1 DUP4 SUB DUP2 PUSH0 DUP8 GAS CALL ISZERO DUP1 ISZERO PUSH2 0xC41 JUMPI RETURNDATASIZE PUSH0 DUP1 RETURNDATACOPY RETURNDATASIZE PUSH0 REVERT JUMPDEST POP POP POP POP PUSH1 0x40 MLOAD RETURNDATASIZE PUSH1 0x1F NOT PUSH1 0x1F DUP3 ADD AND DUP3 ADD DUP1 PUSH1 0x40 MSTORE POP DUP2 ADD SWAP1 PUSH2 0xC65 SWAP2 SWAP1 PUSH2 0x1AB2 JUMP JUMPDEST PUSH2 0xCA4 JUMPI PUSH1 0x40 MLOAD PUSH32 0x8C379A000000000000000000000000000000000000000000000000000000000 DUP2 MSTORE PUSH1 0x4 ADD PUSH2 0xC9B SWAP1 PUSH2 0x1B27 JUMP JUMPDEST PUSH1 0x40 MLOAD DUP1 SWAP2 SUB SWAP1 REVERT JUMPDEST PUSH1 0x1 PUSH0 SWAP1 SLOAD SWAP1 PUSH2 0x100 EXP SWAP1 DIV PUSH20 0xFFFFFFFFFFFFFFFFFFFFFFFFFFFFFFFFFFFFFFFF AND PUSH20 0xFFFFFFFFFFFFFFFFFFFFFFFFFFFFFFFFFFFFFFFF AND PUSH4 0x42842E0E ADDRESS DUP6 DUP8 PUSH1 0x40 MLOAD DUP5 PUSH4 0xFFFFFFFF AND PUSH1 0xE0 SHL DUP2 MSTORE PUSH1 0x4 ADD PUSH2 0xD02 SWAP4 SWAP3 SWAP2 SWAP1 PUSH2 0x1872 JUMP JUMPDEST PUSH0 PUSH1 0x40 MLOAD DUP1 DUP4 SUB DUP2 PUSH0 DUP8 DUP1 EXTCODESIZE ISZERO DUP1 ISZERO PUSH2 0xD19 JUMPI PUSH0 DUP1 REVERT JUMPDEST POP GAS CALL ISZERO DUP1 ISZERO PUSH2 0xD2B JUMPI RETURNDATASIZE PUSH0 DUP1 RETURNDATACOPY RETURNDATASIZE PUSH0 REVERT JUMPDEST POP POP POP POP PUSH2 0xD38 DUP5 PUSH2 0xEBF JUMP JUMPDEST PUSH32 0x424D5E5F0192C7DACDBE646CA31B00299146D883D76A95EF5CDDBAC7CD342EAB DUP2 DUP5 DUP5 DUP8 PUSH1 0x40 MLOAD PUSH2 0xD6D SWAP5 SWAP4 SWAP3 SWAP2 SWAP1 PUSH2 0x1B45 JUMP JUMPDEST PUSH1 0x40 MLOAD DUP1 SWAP2 SUB SWAP1 LOG1 POP POP POP POP JUMP JUMPDEST PUSH1 0x4 PUSH1 0x20 MSTORE DUP1 PUSH0 MSTORE PUSH1 0x40 PUSH0 KECCAK256 PUSH0 SWAP2 POP SWAP1 POP SLOAD DUP2 JUMP JUMPDEST PUSH1 0x60 PUSH1 0x2 DUP1 SLOAD DUP1 PUSH1 0x20 MUL PUSH1 0x20 ADD PUSH1 0x40 MLOAD SWAP1 DUP2 ADD PUSH1 0x40 MSTORE DUP1 SWAP3 SWAP2 SWAP1 DUP2 DUP2 MSTORE PUSH1 0x20 ADD PUSH0 SWAP1 JUMPDEST DUP3 DUP3 LT ISZERO PUSH2 0xE4B JUMPI DUP4 DUP3 SWAP1 PUSH0 MSTORE PUSH1 0x20 PUSH0 KECCAK256 SWAP1 PUSH1 0x3 MUL ADD PUSH1 0x40 MLOAD DUP1 PUSH1 0x60 ADD PUSH1 0x40 MSTORE SWAP1 DUP2 PUSH0 DUP3 ADD SLOAD DUP2 MSTORE PUSH1 0x20 ADD PUSH1 0x1 DUP3 ADD PUSH0 SWAP1 SLOAD SWAP1 PUSH2 0x100 EXP SWAP1 DIV PUSH20 0xFFFFFFFFFFFFFFFFFFFFFFFFFFFFFFFFFFFFFFFF AND PUSH20 0xFFFFFFFFFFFFFFFFFFFFFFFFFFFFFFFFFFFFFFFF AND PUSH20 0xFFFFFFFFFFFFFFFFFFFFFFFFFFFFFFFFFFFFFFFF AND DUP2 MSTORE PUSH1 0x20 ADD PUSH1 0x2 DUP3 ADD SLOAD DUP2 MSTORE POP POP DUP2 MSTORE PUSH1 0x20 ADD SWAP1 PUSH1 0x1 ADD SWAP1 PUSH2 0xDB3 JUMP JUMPDEST POP POP POP POP SWAP1 POP SWAP1 JUMP JUMPDEST PUSH0 DUP1 PUSH20 0xFFFFFFFFFFFFFFFFFFFFFFFFFFFFFFFFFFFFFFFF AND PUSH1 0x3 PUSH0 DUP5 DUP2 MSTORE PUSH1 0x20 ADD SWAP1 DUP2 MSTORE PUSH1 0x20 ADD PUSH0 KECCAK256 PUSH1 0x1 ADD PUSH0 SWAP1 SLOAD SWAP1 PUSH2 0x100 EXP SWAP1 DIV PUSH20 0xFFFFFFFFFFFFFFFFFFFFFFFFFFFFFFFFFFFFFFFF AND PUSH20 0xFFFFFFFFFFFFFFFFFFFFFFFFFFFFFFFFFFFFFFFF AND EQ ISZERO SWAP1 POP SWAP2 SWAP1 POP JUMP JUMPDEST PUSH0 PUSH1 0x4 PUSH0 DUP4 DUP2 MSTORE PUSH1 0x20 ADD SWAP1 DUP2 MSTORE PUSH1 0x20 ADD PUSH0 KECCAK256 SLOAD SWAP1 POP PUSH0 PUSH1 0x1 PUSH1 0x2 DUP1 SLOAD SWAP1 POP PUSH2 0xEE7 SWAP2 SWAP1 PUSH2 0x17A2 JUMP JUMPDEST SWAP1 POP DUP1 DUP3 EQ PUSH2 0xFCA JUMPI PUSH0 PUSH1 0x2 DUP3 DUP2 SLOAD DUP2 LT PUSH2 0xF05 JUMPI PUSH2 0xF04 PUSH2 0x18CE JUMP JUMPDEST JUMPDEST SWAP1 PUSH0 MSTORE PUSH1 0x20 PUSH0 KECCAK256 SWAP1 PUSH1 0x3 MUL ADD SWAP1 POP DUP1 PUSH1 0x2 DUP5 DUP2 SLOAD DUP2 LT PUSH2 0xF28 JUMPI PUSH2 0xF27 PUSH2 0x18CE JUMP JUMPDEST JUMPDEST SWAP1 PUSH0 MSTORE PUSH1 0x20 PUSH0 KECCAK256 SWAP1 PUSH1 0x3 MUL ADD PUSH0 DUP3 ADD SLOAD DUP2 PUSH0 ADD SSTORE PUSH1 0x1 DUP3 ADD PUSH0 SWAP1 SLOAD SWAP1 PUSH2 0x100 EXP SWAP1 DIV PUSH20 0xFFFFFFFFFFFFFFFFFFFFFFFFFFFFFFFFFFFFFFFF AND DUP2 PUSH1 0x1 ADD PUSH0 PUSH2 0x100 EXP DUP2 SLOAD DUP2 PUSH20 0xFFFFFFFFFFFFFFFFFFFFFFFFFFFFFFFFFFFFFFFF MUL NOT AND SWAP1 DUP4 PUSH20 0xFFFFFFFFFFFFFFFFFFFFFFFFFFFFFFFFFFFFFFFF AND MUL OR SWAP1 SSTORE POP PUSH1 0x2 DUP3 ADD SLOAD DUP2 PUSH1 0x2 ADD SSTORE SWAP1 POP POP DUP3 PUSH1 0x4 PUSH0 DUP4 PUSH1 0x2 ADD SLOAD DUP2 MSTORE PUSH1 0x20 ADD SWAP1 DUP2 MSTORE PUSH1 0x20 ADD PUSH0 KECCAK256 DUP2 SWAP1 SSTORE POP POP JUMPDEST PUSH1 0x2 DUP1 SLOAD DUP1 PUSH2 0xFDC JUMPI PUSH2 0xFDB PUSH2 0x1B88 JUMP JUMPDEST JUMPDEST PUSH1 0x1 SWAP1 SUB DUP2 DUP2 SWAP1 PUSH0 MSTORE PUSH1 0x20 PUSH0 KECCAK256 SWAP1 PUSH1 0x3 MUL ADD PUSH0 DUP1 DUP3 ADD PUSH0 SWAP1 SSTORE PUSH1 0x1 DUP3 ADD PUSH0 PUSH2 0x100 EXP DUP2 SLOAD SWAP1 PUSH20 0xFFFFFFFFFFFFFFFFFFFFFFFFFFFFFFFFFFFFFFFF MUL NOT AND SWAP1 SSTORE PUSH1 0x2 DUP3 ADD PUSH0 SWAP1 SSTORE POP POP SWAP1 SSTORE PUSH1 0x3 PUSH0 DUP5 DUP2 MSTORE PUSH1 0x20 ADD SWAP1 DUP2 MSTORE PUSH1 0x20 ADD PUSH0 KECCAK256 PUSH0 DUP1 DUP3 ADD PUSH0 SWAP1 SSTORE PUSH1 0x1 DUP3 ADD PUSH0 PUSH2 0x100 EXP DUP2 SLOAD SWAP1 PUSH20 0xFFFFFFFFFFFFFFFFFFFFFFFFFFFFFFFFFFFFFFFF MUL NOT AND SWAP1 SSTORE PUSH1 0x2 DUP3 ADD PUSH0 SWAP1 SSTORE POP POP PUSH1 0x4 PUSH0 DUP5 DUP2 MSTORE PUSH1 0x20 ADD SWAP1 DUP2 MSTORE PUSH1 0x20 ADD PUSH0 KECCAK256 PUSH0 SWAP1 SSTORE POP POP POP JUMP JUMPDEST PUSH1 0x40 MLOAD DUP1 PUSH1 0x60 ADD PUSH1 0x40 MSTORE DUP1 PUSH0 DUP2 MSTORE PUSH1 0x20 ADD PUSH0 PUSH20 0xFFFFFFFFFFFFFFFFFFFFFFFFFFFFFFFFFFFFFFFF AND DUP2 MSTORE PUSH1 0x20 ADD PUSH0 DUP2 MSTORE POP SWAP1 JUMP JUMPDEST PUSH0 PUSH1 0x40 MLOAD SWAP1 POP SWAP1 JUMP JUMPDEST PUSH0 DUP1 REVERT JUMPDEST PUSH0 DUP1 REVERT JUMPDEST PUSH0 PUSH20 0xFFFFFFFFFFFFFFFFFFFFFFFFFFFFFFFFFFFFFFFF DUP3 AND SWAP1 POP SWAP2 SWAP1 POP JUMP JUMPDEST PUSH0 PUSH2 0x10F4 DUP3 PUSH2 0x10CB JUMP JUMPDEST SWAP1 POP SWAP2 SWAP1 POP JUMP JUMPDEST PUSH2 0x1104 DUP2 PUSH2 0x10EA JUMP JUMPDEST DUP2 EQ PUSH2 0x110E JUMPI PUSH0 DUP1 REVERT JUMPDEST POP JUMP JUMPDEST PUSH0 DUP2 CALLDATALOAD SWAP1 POP PUSH2 0x111F DUP2 PUSH2 0x10FB JUMP JUMPDEST SWAP3 SWAP2 POP POP JUMP JUMPDEST PUSH0 DUP2 SWAP1 POP SWAP2 SWAP1 POP JUMP JUMPDEST PUSH2 0x1137 DUP2 PUSH2 0x1125 JUMP JUMPDEST DUP2 EQ PUSH2 0x1141 JUMPI PUSH0 DUP1 REVERT JUMPDEST POP JUMP JUMPDEST PUSH0 DUP2 CALLDATALOAD SWAP1 POP PUSH2 0x1152 DUP2 PUSH2 0x112E JUMP JUMPDEST SWAP3 SWAP2 POP POP JUMP JUMPDEST PUSH0 DUP1 REVERT JUMPDEST PUSH0 DUP1 REVERT JUMPDEST PUSH0 DUP1 REVERT JUMPDEST PUSH0 DUP1 DUP4 PUSH1 0x1F DUP5 ADD SLT PUSH2 0x1179 JUMPI PUSH2 0x1178 PUSH2 0x1158 JUMP JUMPDEST JUMPDEST DUP3 CALLDATALOAD SWAP1 POP PUSH8 0xFFFFFFFFFFFFFFFF DUP2 GT ISZERO PUSH2 0x1196 JUMPI PUSH2 0x1195 PUSH2 0x115C JUMP JUMPDEST JUMPDEST PUSH1 0x20 DUP4 ADD SWAP2 POP DUP4 PUSH1 0x1 DUP3 MUL DUP4 ADD GT ISZERO PUSH2 0x11B2 JUMPI PUSH2 0x11B1 PUSH2 0x1160 JUMP JUMPDEST JUMPDEST SWAP3 POP SWAP3 SWAP1 POP JUMP JUMPDEST PUSH0 DUP1 PUSH0 DUP1 PUSH0 PUSH1 0x80 DUP7 DUP9 SUB SLT ISZERO PUSH2 0x11D2 JUMPI PUSH2 0x11D1 PUSH2 0x10C3 JUMP JUMPDEST JUMPDEST PUSH0 PUSH2 0x11DF DUP9 DUP3 DUP10 ADD PUSH2 0x1111 JUMP JUMPDEST SWAP6 POP POP PUSH1 0x20 PUSH2 0x11F0 DUP9 DUP3 DUP10 ADD PUSH2 0x1111 JUMP JUMPDEST SWAP5 POP POP PUSH1 0x40 PUSH2 0x1201 DUP9 DUP3 DUP10 ADD PUSH2 0x1144 JUMP JUMPDEST SWAP4 POP POP PUSH1 0x60 DUP7 ADD CALLDATALOAD PUSH8 0xFFFFFFFFFFFFFFFF DUP2 GT ISZERO PUSH2 0x1222 JUMPI PUSH2 0x1221 PUSH2 0x10C7 JUMP JUMPDEST JUMPDEST PUSH2 0x122E DUP9 DUP3 DUP10 ADD PUSH2 0x1164 JUMP JUMPDEST SWAP3 POP SWAP3 POP POP SWAP3 SWAP6 POP SWAP3 SWAP6 SWAP1 SWAP4 POP JUMP JUMPDEST PUSH0 PUSH32 0xFFFFFFFF00000000000000000000000000000000000000000000000000000000 DUP3 AND SWAP1 POP SWAP2 SWAP1 POP JUMP JUMPDEST PUSH2 0x1271 DUP2 PUSH2 0x123D JUMP JUMPDEST DUP3 MSTORE POP POP JUMP JUMPDEST PUSH0 PUSH1 0x20 DUP3 ADD SWAP1 POP PUSH2 0x128A PUSH0 DUP4 ADD DUP5 PUSH2 0x1268 JUMP JUMPDEST SWAP3 SWAP2 POP POP JUMP JUMPDEST PUSH0 PUSH1 0x20 DUP3 DUP5 SUB SLT ISZERO PUSH2 0x12A5 JUMPI PUSH2 0x12A4 PUSH2 0x10C3 JUMP JUMPDEST JUMPDEST PUSH0 PUSH2 0x12B2 DUP5 DUP3 DUP6 ADD PUSH2 0x1144 JUMP JUMPDEST SWAP2 POP POP SWAP3 SWAP2 POP POP JUMP JUMPDEST PUSH0 DUP2 MLOAD SWAP1 POP SWAP2 SWAP1 POP JUMP JUMPDEST PUSH0 DUP3 DUP3 MSTORE PUSH1 0x20 DUP3 ADD SWAP1 POP SWAP3 SWAP2 POP POP JUMP JUMPDEST PUSH0 DUP2 SWAP1 POP PUSH1 0x20 DUP3 ADD SWAP1 POP SWAP2 SWAP1 POP JUMP JUMPDEST PUSH2 0x12ED DUP2 PUSH2 0x1125 JUMP JUMPDEST DUP3 MSTORE POP POP JUMP JUMPDEST PUSH2 0x12FC DUP2 PUSH2 0x10EA JUMP JUMPDEST DUP3 MSTORE POP POP JUMP JUMPDEST PUSH1 0x60 DUP3 ADD PUSH0 DUP3 ADD MLOAD PUSH2 0x1316 PUSH0 DUP6 ADD DUP3 PUSH2 0x12E4 JUMP JUMPDEST POP PUSH1 0x20 DUP3 ADD MLOAD PUSH2 0x1329 PUSH1 0x20 DUP6 ADD DUP3 PUSH2 0x12F3 JUMP JUMPDEST POP PUSH1 0x40 DUP3 ADD MLOAD PUSH2 0x133C PUSH1 0x40 DUP6 ADD DUP3 PUSH2 0x12E4 JUMP JUMPDEST POP POP POP POP JUMP JUMPDEST PUSH0 PUSH2 0x134D DUP4 DUP4 PUSH2 0x1302 JUMP JUMPDEST PUSH1 0x60 DUP4 ADD SWAP1 POP SWAP3 SWAP2 POP POP JUMP JUMPDEST PUSH0 PUSH1 0x20 DUP3 ADD SWAP1 POP SWAP2 SWAP1 POP JUMP JUMPDEST PUSH0 PUSH2 0x136F DUP3 PUSH2 0x12BB JUMP JUMPDEST PUSH2 0x1379 DUP2 DUP6 PUSH2 0x12C5 JUMP JUMPDEST SWAP4 POP PUSH2 0x1384 DUP4 PUSH2 0x12D5 JUMP JUMPDEST DUP1 PUSH0 JUMPDEST DUP4 DUP2 LT ISZERO PUSH2 0x13B4 JUMPI DUP2 MLOAD PUSH2 0x139B DUP9 DUP3 PUSH2 0x1342 JUMP JUMPDEST SWAP8 POP PUSH2 0x13A6 DUP4 PUSH2 0x1359 JUMP JUMPDEST SWAP3 POP POP PUSH1 0x1 DUP2 ADD SWAP1 POP PUSH2 0x1387 JUMP JUMPDEST POP DUP6 SWAP4 POP POP POP POP SWAP3 SWAP2 POP POP JUMP JUMPDEST PUSH0 PUSH1 0x20 DUP3 ADD SWAP1 POP DUP2 DUP2 SUB PUSH0 DUP4 ADD MSTORE PUSH2 0x13D9 DUP2 DUP5 PUSH2 0x1365 JUMP JUMPDEST SWAP1 POP SWAP3 SWAP2 POP POP JUMP JUMPDEST PUSH0 DUP2 SWAP1 POP SWAP2 SWAP1 POP JUMP JUMPDEST PUSH0 PUSH2 0x1404 PUSH2 0x13FF PUSH2 0x13FA DUP5 PUSH2 0x10CB JUMP JUMPDEST PUSH2 0x13E1 JUMP JUMPDEST PUSH2 0x10CB JUMP JUMPDEST SWAP1 POP SWAP2 SWAP1 POP JUMP JUMPDEST PUSH0 PUSH2 0x1415 DUP3 PUSH2 0x13EA JUMP JUMPDEST SWAP1 POP SWAP2 SWAP1 POP JUMP JUMPDEST PUSH0 PUSH2 0x1426 DUP3 PUSH2 0x140B JUMP JUMPDEST SWAP1 POP SWAP2 SWAP1 POP JUMP JUMPDEST PUSH2 0x1436 DUP2 PUSH2 0x141C JUMP JUMPDEST DUP3 MSTORE POP POP JUMP JUMPDEST PUSH0 PUSH1 0x20 DUP3 ADD SWAP1 POP PUSH2 0x144F PUSH0 DUP4 ADD DUP5 PUSH2 0x142D JUMP JUMPDEST SWAP3 SWAP2 POP POP JUMP JUMPDEST PUSH2 0x145E DUP2 PUSH2 0x1125 JUMP JUMPDEST DUP3 MSTORE POP POP JUMP JUMPDEST PUSH2 0x146D DUP2 PUSH2 0x10EA JUMP JUMPDEST DUP3 MSTORE POP POP JUMP JUMPDEST PUSH0 PUSH1 0x60 DUP3 ADD SWAP1 POP PUSH2 0x1486 PUSH0 DUP4 ADD DUP7 PUSH2 0x1455 JUMP JUMPDEST PUSH2 0x1493 PUSH1 0x20 DUP4 ADD DUP6 PUSH2 0x1464 JUMP JUMPDEST PUSH2 0x14A0 PUSH1 0x40 DUP4 ADD DUP5 PUSH2 0x1455 JUMP JUMPDEST SWAP5 SWAP4 POP POP POP POP JUMP JUMPDEST PUSH0 PUSH1 0x20 DUP3 ADD SWAP1 POP PUSH2 0x14BB PUSH0 DUP4 ADD DUP5 PUSH2 0x1455 JUMP JUMPDEST SWAP3 SWAP2 POP POP JUMP JUMPDEST PUSH0 DUP1 PUSH1 0x40 DUP4 DUP6 SUB SLT ISZERO PUSH2 0x14D7 JUMPI PUSH2 0x14D6 PUSH2 0x10C3 JUMP JUMPDEST JUMPDEST PUSH0 PUSH2 0x14E4 DUP6 DUP3 DUP7 ADD PUSH2 0x1144 JUMP JUMPDEST SWAP3 POP POP PUSH1 0x20 PUSH2 0x14F5 DUP6 DUP3 DUP7 ADD PUSH2 0x1144 JUMP JUMPDEST SWAP2 POP POP SWAP3 POP SWAP3 SWAP1 POP JUMP JUMPDEST PUSH0 DUP1 REVERT JUMPDEST PUSH0 PUSH1 0x1F NOT PUSH1 0x1F DUP4 ADD AND SWAP1 POP SWAP2 SWAP1 POP JUMP JUMPDEST PUSH32 0x4E487B7100000000000000000000000000000000000000000000000000000000 PUSH0 MSTORE PUSH1 0x41 PUSH1 0x4 MSTORE PUSH1 0x24 PUSH0 REVERT JUMPDEST PUSH2 0x1549 DUP3 PUSH2 0x1503 JUMP JUMPDEST DUP2 ADD DUP2 DUP2 LT PUSH8 0xFFFFFFFFFFFFFFFF DUP3 GT OR ISZERO PUSH2 0x1568 JUMPI PUSH2 0x1567 PUSH2 0x1513 JUMP JUMPDEST JUMPDEST DUP1 PUSH1 0x40 MSTORE POP POP POP JUMP JUMPDEST PUSH0 PUSH2 0x157A PUSH2 0x10BA JUMP JUMPDEST SWAP1 POP PUSH2 0x1586 DUP3 DUP3 PUSH2 0x1540 JUMP JUMPDEST SWAP2 SWAP1 POP JUMP JUMPDEST PUSH0 PUSH8 0xFFFFFFFFFFFFFFFF DUP3 GT ISZERO PUSH2 0x15A5 JUMPI PUSH2 0x15A4 PUSH2 0x1513 JUMP JUMPDEST JUMPDEST PUSH2 0x15AE DUP3 PUSH2 0x1503 JUMP JUMPDEST SWAP1 POP PUSH1 0x20 DUP2 ADD SWAP1 POP SWAP2 SWAP1 POP JUMP JUMPDEST DUP3 DUP2 DUP4 CALLDATACOPY PUSH0 DUP4 DUP4 ADD MSTORE POP POP POP JUMP JUMPDEST PUSH0 PUSH2 0x15DB PUSH2 0x15D6 DUP5 PUSH2 0x158B JUMP JUMPDEST PUSH2 0x1571 JUMP JUMPDEST SWAP1 POP DUP3 DUP2 MSTORE PUSH1 0x20 DUP2 ADD DUP5 DUP5 DUP5 ADD GT ISZERO PUSH2 0x15F7 JUMPI PUSH2 0x15F6 PUSH2 0x14FF JUMP JUMPDEST JUMPDEST PUSH2 0x1602 DUP5 DUP3 DUP6 PUSH2 0x15BB JUMP JUMPDEST POP SWAP4 SWAP3 POP POP POP JUMP JUMPDEST PUSH0 DUP3 PUSH1 0x1F DUP4 ADD SLT PUSH2 0x161E JUMPI PUSH2 0x161D PUSH2 0x1158 JUMP JUMPDEST JUMPDEST DUP2 CALLDATALOAD PUSH2 0x162E DUP5 DUP3 PUSH1 0x20 DUP7 ADD PUSH2 0x15C9 JUMP JUMPDEST SWAP2 POP POP SWAP3 SWAP2 POP POP JUMP JUMPDEST PUSH0 DUP1 PUSH1 0x40 DUP4 DUP6 SUB SLT ISZERO PUSH2 0x164D JUMPI PUSH2 0x164C PUSH2 0x10C3 JUMP JUMPDEST JUMPDEST PUSH0 DUP4 ADD CALLDATALOAD PUSH8 0xFFFFFFFFFFFFFFFF DUP2 GT ISZERO PUSH2 0x166A JUMPI PUSH2 0x1669 PUSH2 0x10C7 JUMP JUMPDEST JUMPDEST PUSH2 0x1676 DUP6 DUP3 DUP7 ADD PUSH2 0x160A JUMP JUMPDEST SWAP3 POP POP PUSH1 0x20 PUSH2 0x1687 DUP6 DUP3 DUP7 ADD PUSH2 0x1144 JUMP JUMPDEST SWAP2 POP POP SWAP3 POP SWAP3 SWAP1 POP JUMP JUMPDEST PUSH0 PUSH2 0x169B DUP3 PUSH2 0x140B JUMP JUMPDEST SWAP1 POP SWAP2 SWAP1 POP JUMP JUMPDEST PUSH2 0x16AB DUP2 PUSH2 0x1691 JUMP JUMPDEST DUP3 MSTORE POP POP JUMP JUMPDEST PUSH0 PUSH1 0x20 DUP3 ADD SWAP1 POP PUSH2 0x16C4 PUSH0 DUP4 ADD DUP5 PUSH2 0x16A2 JUMP JUMPDEST SWAP3 SWAP2 POP POP JUMP JUMPDEST PUSH0 DUP2 ISZERO ISZERO SWAP1 POP SWAP2 SWAP1 POP JUMP JUMPDEST PUSH2 0x16DE DUP2 PUSH2 0x16CA JUMP JUMPDEST DUP3 MSTORE POP POP JUMP JUMPDEST PUSH0 PUSH1 0x20 DUP3 ADD SWAP1 POP PUSH2 0x16F7 PUSH0 DUP4 ADD DUP5 PUSH2 0x16D5 JUMP JUMPDEST SWAP3 SWAP2 POP POP JUMP JUMPDEST PUSH0 DUP3 DUP3 MSTORE PUSH1 0x20 DUP3 ADD SWAP1 POP SWAP3 SWAP2 POP POP JUMP JUMPDEST PUSH32 0x7072696365206D7573742062652067726561746572207468616E203000000000 PUSH0 DUP3 ADD MSTORE POP JUMP JUMPDEST PUSH0 PUSH2 0x1741 PUSH1 0x1C DUP4 PUSH2 0x16FD JUMP JUMPDEST SWAP2 POP PUSH2 0x174C DUP3 PUSH2 0x170D JUMP JUMPDEST PUSH1 0x20 DUP3 ADD SWAP1 POP SWAP2 SWAP1 POP JUMP JUMPDEST PUSH0 PUSH1 0x20 DUP3 ADD SWAP1 POP DUP2 DUP2 SUB PUSH0 DUP4 ADD MSTORE PUSH2 0x176E DUP2 PUSH2 0x1735 JUMP JUMPDEST SWAP1 POP SWAP2 SWAP1 POP JUMP JUMPDEST PUSH32 0x4E487B7100000000000000000000000000000000000000000000000000000000 PUSH0 MSTORE PUSH1 0x11 PUSH1 0x4 MSTORE PUSH1 0x24 PUSH0 REVERT JUMPDEST PUSH0 PUSH2 0x17AC DUP3 PUSH2 0x1125 JUMP JUMPDEST SWAP2 POP PUSH2 0x17B7 DUP4 PUSH2 0x1125 JUMP JUMPDEST SWAP3 POP DUP3 DUP3 SUB SWAP1 POP DUP2 DUP2 GT ISZERO PUSH2 0x17CF JUMPI PUSH2 0x17CE PUSH2 0x1775 JUMP JUMPDEST JUMPDEST SWAP3 SWAP2 POP POP JUMP JUMPDEST PUSH0 PUSH1 0x60 DUP3 ADD SWAP1 POP PUSH2 0x17E8 PUSH0 DUP4 ADD DUP7 PUSH2 0x1464 JUMP JUMPDEST PUSH2 0x17F5 PUSH1 0x20 DUP4 ADD DUP6 PUSH2 0x1455 JUMP JUMPDEST PUSH2 0x1802 PUSH1 0x40 DUP4 ADD DUP5 PUSH2 0x1455 JUMP JUMPDEST SWAP5 SWAP4 POP POP POP POP JUMP JUMPDEST PUSH32 0x6E6F742073656C6C657200000000000000000000000000000000000000000000 PUSH0 DUP3 ADD MSTORE POP JUMP JUMPDEST PUSH0 PUSH2 0x183E PUSH1 0xA DUP4 PUSH2 0x16FD JUMP JUMPDEST SWAP2 POP PUSH2 0x1849 DUP3 PUSH2 0x180A JUMP JUMPDEST PUSH1 0x20 DUP3 ADD SWAP1 POP SWAP2 SWAP1 POP JUMP JUMPDEST PUSH0 PUSH1 0x20 DUP3 ADD SWAP1 POP DUP2 DUP2 SUB PUSH0 DUP4 ADD MSTORE PUSH2 0x186B DUP2 PUSH2 0x1832 JUMP JUMPDEST SWAP1 POP SWAP2 SWAP1 POP JUMP JUMPDEST PUSH0 PUSH1 0x60 DUP3 ADD SWAP1 POP PUSH2 0x1885 PUSH0 DUP4 ADD DUP7 PUSH2 0x1464 JUMP JUMPDEST PUSH2 0x1892 PUSH1 0x20 DUP4 ADD DUP6 PUSH2 0x1464 JUMP JUMPDEST PUSH2 0x189F PUSH1 0x40 DUP4 ADD DUP5 PUSH2 0x1455 JUMP JUMPDEST SWAP5 SWAP4 POP POP POP POP JUMP JUMPDEST PUSH0 PUSH1 0x40 DUP3 ADD SWAP1 POP PUSH2 0x18BA PUSH0 DUP4 ADD DUP6 PUSH2 0x1464 JUMP JUMPDEST PUSH2 0x18C7 PUSH1 0x20 DUP4 ADD DUP5 PUSH2 0x1455 JUMP JUMPDEST SWAP4 SWAP3 POP POP POP JUMP JUMPDEST PUSH32 0x4E487B7100000000000000000000000000000000000000000000000000000000 PUSH0 MSTORE PUSH1 0x32 PUSH1 0x4 MSTORE PUSH1 0x24 PUSH0 REVERT JUMPDEST PUSH0 PUSH2 0x1905 DUP3 PUSH2 0x1125 JUMP JUMPDEST SWAP2 POP PUSH32 0xFFFFFFFFFFFFFFFFFFFFFFFFFFFFFFFFFFFFFFFFFFFFFFFFFFFFFFFFFFFFFFFF DUP3 SUB PUSH2 0x1937 JUMPI PUSH2 0x1936 PUSH2 0x1775 JUMP JUMPDEST JUMPDEST PUSH1 0x1 DUP3 ADD SWAP1 POP SWAP2 SWAP1 POP JUMP JUMPDEST PUSH0 PUSH1 0x80 DUP3 ADD SWAP1 POP PUSH2 0x1955 PUSH0 DUP4 ADD DUP8 PUSH2 0x1464 JUMP JUMPDEST PUSH2 0x1962 PUSH1 0x20 DUP4 ADD DUP7 PUSH2 0x1455 JUMP JUMPDEST PUSH2 0x196F PUSH1 0x40 DUP4 ADD DUP6 PUSH2 0x1455 JUMP JUMPDEST PUSH2 0x197C PUSH1 0x60 DUP4 ADD DUP5 PUSH2 0x1455 JUMP JUMPDEST SWAP6 SWAP5 POP POP POP POP POP JUMP JUMPDEST PUSH0 PUSH2 0x198F DUP3 PUSH2 0x1125 JUMP JUMPDEST SWAP2 POP PUSH2 0x199A DUP4 PUSH2 0x1125 JUMP JUMPDEST SWAP3 POP DUP3 DUP3 ADD SWAP1 POP DUP1 DUP3 GT ISZERO PUSH2 0x19B2 JUMPI PUSH2 0x19B1 PUSH2 0x1775 JUMP JUMPDEST JUMPDEST SWAP3 SWAP2 POP POP JUMP JUMPDEST PUSH32 0x4D61726B65743A20746F55696E743235365F6F766572666C6F77000000000000 PUSH0 DUP3 ADD MSTORE POP JUMP JUMPDEST PUSH0 PUSH2 0x19EC PUSH1 0x1A DUP4 PUSH2 0x16FD JUMP JUMPDEST SWAP2 POP PUSH2 0x19F7 DUP3 PUSH2 0x19B8 JUMP JUMPDEST PUSH1 0x20 DUP3 ADD SWAP1 POP SWAP2 SWAP1 POP JUMP JUMPDEST PUSH0 PUSH1 0x20 DUP3 ADD SWAP1 POP DUP2 DUP2 SUB PUSH0 DUP4 ADD MSTORE PUSH2 0x1A19 DUP2 PUSH2 0x19E0 JUMP JUMPDEST SWAP1 POP SWAP2 SWAP1 POP JUMP JUMPDEST PUSH32 0x4D61726B65743A20746F55696E743235365F6F75744F66426F756E6473000000 PUSH0 DUP3 ADD MSTORE POP JUMP JUMPDEST PUSH0 PUSH2 0x1A54 PUSH1 0x1D DUP4 PUSH2 0x16FD JUMP JUMPDEST SWAP2 POP PUSH2 0x1A5F DUP3 PUSH2 0x1A20 JUMP JUMPDEST PUSH1 0x20 DUP3 ADD SWAP1 POP SWAP2 SWAP1 POP JUMP JUMPDEST PUSH0 PUSH1 0x20 DUP3 ADD SWAP1 POP DUP2 DUP2 SUB PUSH0 DUP4 ADD MSTORE PUSH2 0x1A81 DUP2 PUSH2 0x1A48 JUMP JUMPDEST SWAP1 POP SWAP2 SWAP1 POP JUMP JUMPDEST PUSH2 0x1A91 DUP2 PUSH2 0x16CA JUMP JUMPDEST DUP2 EQ PUSH2 0x1A9B JUMPI PUSH0 DUP1 REVERT JUMPDEST POP JUMP JUMPDEST PUSH0 DUP2 MLOAD SWAP1 POP PUSH2 0x1AAC DUP2 PUSH2 0x1A88 JUMP JUMPDEST SWAP3 SWAP2 POP POP JUMP JUMPDEST PUSH0 PUSH1 0x20 DUP3 DUP5 SUB SLT ISZERO PUSH2 0x1AC7 JUMPI PUSH2 0x1AC6 PUSH2 0x10C3 JUMP JUMPDEST JUMPDEST PUSH0 PUSH2 0x1AD4 DUP5 DUP3 DUP6 ADD PUSH2 0x1A9E JUMP JUMPDEST SWAP2 POP POP SWAP3 SWAP2 POP POP JUMP JUMPDEST PUSH32 0x7472616E73666572206661696C65640000000000000000000000000000000000 PUSH0 DUP3 ADD MSTORE POP JUMP JUMPDEST PUSH0 PUSH2 0x1B11 PUSH1 0xF DUP4 PUSH2 0x16FD JUMP JUMPDEST SWAP2 POP PUSH2 0x1B1C DUP3 PUSH2 0x1ADD JUMP JUMPDEST PUSH1 0x20 DUP3 ADD SWAP1 POP SWAP2 SWAP1 POP JUMP JUMPDEST PUSH0 PUSH1 0x20 DUP3 ADD SWAP1 POP DUP2 DUP2 SUB PUSH0 DUP4 ADD MSTORE PUSH2 0x1B3E DUP2 PUSH2 0x1B05 JUMP JUMPDEST SWAP1 POP SWAP2 SWAP1 POP JUMP JUMPDEST PUSH0 PUSH1 0x80 DUP3 ADD SWAP1 POP PUSH2 0x1B58 PUSH0 DUP4 ADD DUP8 PUSH2 0x1464 JUMP JUMPDEST PUSH2 0x1B65 PUSH1 0x20 DUP4 ADD DUP7 PUSH2 0x1464 JUMP JUMPDEST PUSH2 0x1B72 PUSH1 0x40 DUP4 ADD DUP6 PUSH2 0x1455 JUMP JUMPDEST PUSH2 0x1B7F PUSH1 0x60 DUP4 ADD DUP5 PUSH2 0x1455 JUMP JUMPDEST SWAP6 SWAP5 POP POP POP POP POP JUMP JUMPDEST PUSH32 0x4E487B7100000000000000000000000000000000000000000000000000000000 PUSH0 MSTORE PUSH1 0x31 PUSH1 0x4 MSTORE PUSH1 0x24 PUSH0 REVERT INVALID LOG2 PUSH5 0x6970667358 0x22 SLT KECCAK256 0x27 ORIGIN DUP15 DIV 0xB2 PUSH22 0x68D7917F71001784142C980F19DC40737A4FA47FB2A1 SGT ISZERO DUP14 SLT PUSH5 0x736F6C6343 STOP ADDMOD BYTE STOP CALLER "
				},
				"gasEstimates": {
					"creation": {
						"codeDepositCost": "1429400",
						"executionCost": "infinite",
						"totalCost": "infinite"
					},
					"external": {
						"buy(uint256)": "infinite",
						"cancelOrder(uint256)": "infinite",
						"changePrice(uint256,uint256)": "infinite",
						"erc20()": "infinite",
						"erc721()": "infinite",
						"getAllNFTs()": "infinite",
						"getMyNFTs()": "infinite",
						"getOrderLength()": "2507",
						"idToOrder(uint256)": "infinite",
						"idToOrderIndex(uint256)": "infinite",
						"isListed(uint256)": "2925",
						"onERC721Received(address,address,uint256,bytes)": "infinite",
						"orders(uint256)": "infinite",
						"toUint256(bytes,uint256)": "infinite"
					},
					"internal": {
						"removeOrder(uint256)": "infinite"
					}
				},
				"methodIdentifiers": {
					"buy(uint256)": "d96a094a",
					"cancelOrder(uint256)": "514fcac7",
					"changePrice(uint256,uint256)": "b3de019c",
					"erc20()": "785e9e86",
					"erc721()": "bca6ce64",
					"getAllNFTs()": "e0391b09",
					"getMyNFTs()": "629cb2e4",
					"getOrderLength()": "9d4971b7",
					"idToOrder(uint256)": "8f1ec88f",
					"idToOrderIndex(uint256)": "da694df0",
					"isListed(uint256)": "fcce4883",
					"onERC721Received(address,address,uint256,bytes)": "150b7a02",
					"orders(uint256)": "a85c38ef",
					"toUint256(bytes,uint256)": "b5cdf924"
				}
			},
			"storageLayout": {
				"storage": [
					{
						"astId": 6,
						"contract": "contracts/MyNFTMarket.sol:MyNFTMarket",
						"label": "erc20",
						"offset": 0,
						"slot": "0",
						"type": "t_contract(IERC20)609"
					},
					{
						"astId": 9,
						"contract": "contracts/MyNFTMarket.sol:MyNFTMarket",
						"label": "erc721",
						"offset": 0,
						"slot": "1",
						"type": "t_contract(IERC721)726"
					},
					{
						"astId": 23,
						"contract": "contracts/MyNFTMarket.sol:MyNFTMarket",
						"label": "orders",
						"offset": 0,
						"slot": "2",
						"type": "t_array(t_struct(Order)19_storage)dyn_storage"
					},
					{
						"astId": 28,
						"contract": "contracts/MyNFTMarket.sol:MyNFTMarket",
						"label": "idToOrder",
						"offset": 0,
						"slot": "3",
						"type": "t_mapping(t_uint256,t_struct(Order)19_storage)"
					},
					{
						"astId": 32,
						"contract": "contracts/MyNFTMarket.sol:MyNFTMarket",
						"label": "idToOrderIndex",
						"offset": 0,
						"slot": "4",
						"type": "t_mapping(t_uint256,t_uint256)"
					}
				],
				"types": {
					"t_address": {
						"encoding": "inplace",
						"label": "address",
						"numberOfBytes": "20"
					},
					"t_array(t_struct(Order)19_storage)dyn_storage": {
						"base": "t_struct(Order)19_storage",
						"encoding": "dynamic_array",
						"label": "struct MyNFTMarket.Order[]",
						"numberOfBytes": "32"
					},
					"t_contract(IERC20)609": {
						"encoding": "inplace",
						"label": "contract IERC20",
						"numberOfBytes": "20"
					},
					"t_contract(IERC721)726": {
						"encoding": "inplace",
						"label": "contract IERC721",
						"numberOfBytes": "20"
					},
					"t_mapping(t_uint256,t_struct(Order)19_storage)": {
						"encoding": "mapping",
						"key": "t_uint256",
						"label": "mapping(uint256 => struct MyNFTMarket.Order)",
						"numberOfBytes": "32",
						"value": "t_struct(Order)19_storage"
					},
					"t_mapping(t_uint256,t_uint256)": {
						"encoding": "mapping",
						"key": "t_uint256",
						"label": "mapping(uint256 => uint256)",
						"numberOfBytes": "32",
						"value": "t_uint256"
					},
					"t_struct(Order)19_storage": {
						"encoding": "inplace",
						"label": "struct MyNFTMarket.Order",
						"members": [
							{
								"astId": 14,
								"contract": "contracts/MyNFTMarket.sol:MyNFTMarket",
								"label": "price",
								"offset": 0,
								"slot": "0",
								"type": "t_uint256"
							},
							{
								"astId": 16,
								"contract": "contracts/MyNFTMarket.sol:MyNFTMarket",
								"label": "seller",
								"offset": 0,
								"slot": "1",
								"type": "t_address"
							},
							{
								"astId": 18,
								"contract": "contracts/MyNFTMarket.sol:MyNFTMarket",
								"label": "tokenId",
								"offset": 0,
								"slot": "2",
								"type": "t_uint256"
							}
						],
						"numberOfBytes": "96"
					},
					"t_uint256": {
						"encoding": "inplace",
						"label": "uint256",
						"numberOfBytes": "32"
					}
				}
			},
			"userdoc": {
				"kind": "user",
				"methods": {
					"onERC721Received(address,address,uint256,bytes)": {
						"notice": "上架NFT operator 执行操作的地址  from 发送NFT的地址"
					}
				},
				"version": 1
			}
		}
	}
}